{"abi":[{"anonymous":false,"inputs":[{"indexed":true,"internalType":"address","name":"heir","type":"address"},{"indexed":true,"internalType":"address","name":"inheritance","type":"address"}],"name":"PendingInheritanceRemoved","type":"event"},{"inputs":[{"internalType":"address","name":"_inheritance","type":"address"}],"name":"addPendingInheritance","outputs":[],"stateMutability":"nonpayable","type":"function"},{"inputs":[],"name":"getPendingInheritances","outputs":[{"internalType":"address[]","name":"","type":"address[]"}],"stateMutability":"view","type":"function"},{"inputs":[],"name":"getRejectedInheritances","outputs":[{"internalType":"address[]","name":"","type":"address[]"}],"stateMutability":"view","type":"function"},{"inputs":[],"name":"hasPendingInheritances","outputs":[{"internalType":"bool","name":"","type":"bool"}],"stateMutability":"view","type":"function"},{"inputs":[],"name":"hasRejectedInheritances","outputs":[{"internalType":"bool","name":"","type":"bool"}],"stateMutability":"view","type":"function"},{"inputs":[{"internalType":"address","name":"","type":"address"},{"internalType":"uint256","name":"","type":"uint256"}],"name":"pendingInheritances","outputs":[{"internalType":"address","name":"","type":"address"}],"stateMutability":"view","type":"function"},{"inputs":[{"internalType":"address","name":"","type":"address"},{"internalType":"uint256","name":"","type":"uint256"}],"name":"rejectedInheritances","outputs":[{"internalType":"address","name":"","type":"address"}],"stateMutability":"view","type":"function"},{"inputs":[{"internalType":"address","name":"_inheritance","type":"address"}],"name":"removePendingInheritance","outputs":[],"stateMutability":"nonpayable","type":"function"}],"devdoc":{"kind":"dev","methods":{},"version":1},"evm":{"assembly":"    /* \"HeirsAdministration.sol\":58:2143  contract HeirsAdministration {... */\n  mstore(0x40, 0x80)\n  callvalue\n  dup1\n  iszero\n  tag_1\n  jumpi\n  0x00\n  dup1\n  revert\ntag_1:\n  pop\n  dataSize(sub_0)\n  dup1\n  dataOffset(sub_0)\n  0x00\n  codecopy\n  0x00\n  return\nstop\n\nsub_0: assembly {\n        /* \"HeirsAdministration.sol\":58:2143  contract HeirsAdministration {... */\n      mstore(0x40, 0x80)\n      callvalue\n      dup1\n      iszero\n      tag_1\n      jumpi\n      0x00\n      dup1\n      revert\n    tag_1:\n      pop\n      jumpi(tag_2, lt(calldatasize, 0x04))\n      shr(0xe0, calldataload(0x00))\n      dup1\n      0x52466cba\n      gt\n      tag_11\n      jumpi\n      dup1\n      0x52466cba\n      eq\n      tag_7\n      jumpi\n      dup1\n      0x8a9dab38\n      eq\n      tag_8\n      jumpi\n      dup1\n      0x8c7a6c65\n      eq\n      tag_9\n      jumpi\n      dup1\n      0xb45f0dbd\n      eq\n      tag_10\n      jumpi\n      0x00\n      dup1\n      revert\n    tag_11:\n      dup1\n      0x1e55feca\n      eq\n      tag_3\n      jumpi\n      dup1\n      0x24d02dc5\n      eq\n      tag_4\n      jumpi\n      dup1\n      0x449fd1b2\n      eq\n      tag_5\n      jumpi\n      dup1\n      0x4fd4bacd\n      eq\n      tag_6\n      jumpi\n    tag_2:\n      0x00\n      dup1\n      revert\n        /* \"HeirsAdministration.sol\":1609:1737  function getPendingInheritances() public view returns (address[] memory) {... */\n    tag_3:\n      tag_12\n      tag_13\n      jump\t// in\n    tag_12:\n      mload(0x40)\n      tag_14\n      swap2\n      swap1\n      tag_15\n      jump\t// in\n    tag_14:\n      mload(0x40)\n      dup1\n      swap2\n      sub\n      swap1\n      return\n        /* \"HeirsAdministration.sol\":205:262  mapping(address => address[]) public rejectedInheritances */\n    tag_4:\n      tag_16\n      tag_17\n      calldatasize\n      0x04\n      tag_18\n      jump\t// in\n    tag_17:\n      tag_19\n      jump\t// in\n    tag_16:\n      mload(0x40)\n      sub(shl(0xa0, 0x01), 0x01)\n        /* \"#utility.yul\":1278:1310   */\n      swap1\n      swap2\n      and\n        /* \"#utility.yul\":1260:1311   */\n      dup2\n      mstore\n        /* \"#utility.yul\":1248:1250   */\n      0x20\n        /* \"#utility.yul\":1233:1251   */\n      add\n        /* \"HeirsAdministration.sol\":205:262  mapping(address => address[]) public rejectedInheritances */\n      tag_14\n        /* \"#utility.yul\":1114:1317   */\n      jump\n        /* \"HeirsAdministration.sol\":703:1583  function removePendingInheritance(address _inheritance) public {... */\n    tag_5:\n      tag_22\n      tag_23\n      calldatasize\n      0x04\n      tag_24\n      jump\t// in\n    tag_23:\n      tag_25\n      jump\t// in\n    tag_22:\n      stop\n        /* \"HeirsAdministration.sol\":430:697  function addPendingInheritance(address _inheritance) public {... */\n    tag_6:\n      tag_22\n      tag_27\n      calldatasize\n      0x04\n      tag_24\n      jump\t// in\n    tag_27:\n      tag_28\n      jump\t// in\n        /* \"HeirsAdministration.sol\":1879:2006  function hasPendingInheritances() public view returns (bool) {... */\n    tag_7:\n        /* \"HeirsAdministration.sol\":1977:1987  msg.sender */\n      caller\n        /* \"HeirsAdministration.sol\":1934:1938  bool */\n      0x00\n        /* \"HeirsAdministration.sol\":1957:1988  pendingInheritances[msg.sender] */\n      swap1\n      dup2\n      mstore\n      0x20\n      dup2\n      swap1\n      mstore\n      0x40\n      swap1\n      keccak256\n        /* \"HeirsAdministration.sol\":1957:1995  pendingInheritances[msg.sender].length */\n      sload\n        /* \"HeirsAdministration.sol\":1957:1999  pendingInheritances[msg.sender].length > 0 */\n      iszero\n      iszero\n        /* \"HeirsAdministration.sol\":1879:2006  function hasPendingInheritances() public view returns (bool) {... */\n    tag_29:\n      mload(0x40)\n        /* \"#utility.yul\":1678:1692   */\n      swap1\n      iszero\n        /* \"#utility.yul\":1671:1693   */\n      iszero\n        /* \"#utility.yul\":1653:1694   */\n      dup2\n      mstore\n        /* \"#utility.yul\":1641:1643   */\n      0x20\n        /* \"#utility.yul\":1626:1644   */\n      add\n        /* \"HeirsAdministration.sol\":1879:2006  function hasPendingInheritances() public view returns (bool) {... */\n      tag_14\n        /* \"#utility.yul\":1513:1700   */\n      jump\n        /* \"HeirsAdministration.sol\":93:149  mapping(address => address[]) public pendingInheritances */\n    tag_8:\n      tag_16\n      tag_34\n      calldatasize\n      0x04\n      tag_18\n      jump\t// in\n    tag_34:\n      tag_35\n      jump\t// in\n        /* \"HeirsAdministration.sol\":2012:2141  function hasRejectedInheritances() public view returns (bool) {... */\n    tag_9:\n        /* \"HeirsAdministration.sol\":2112:2122  msg.sender */\n      caller\n        /* \"HeirsAdministration.sol\":2068:2072  bool */\n      0x00\n        /* \"HeirsAdministration.sol\":2091:2123  rejectedInheritances[msg.sender] */\n      swap1\n      dup2\n      mstore\n        /* \"HeirsAdministration.sol\":2091:2111  rejectedInheritances */\n      0x01\n        /* \"HeirsAdministration.sol\":2091:2123  rejectedInheritances[msg.sender] */\n      0x20\n      mstore\n      0x40\n      swap1\n      keccak256\n        /* \"HeirsAdministration.sol\":2091:2130  rejectedInheritances[msg.sender].length */\n      sload\n        /* \"HeirsAdministration.sol\":2091:2134  rejectedInheritances[msg.sender].length > 0 */\n      iszero\n      iszero\n        /* \"HeirsAdministration.sol\":2012:2141  function hasRejectedInheritances() public view returns (bool) {... */\n      jump(tag_29)\n        /* \"HeirsAdministration.sol\":1743:1873  function getRejectedInheritances() public view returns (address[] memory) {... */\n    tag_10:\n      tag_12\n      tag_41\n      jump\t// in\n        /* \"HeirsAdministration.sol\":1609:1737  function getPendingInheritances() public view returns (address[] memory) {... */\n    tag_13:\n        /* \"HeirsAdministration.sol\":1719:1729  msg.sender */\n      caller\n        /* \"HeirsAdministration.sol\":1699:1718  pendingInheritances */\n      0x00\n        /* \"HeirsAdministration.sol\":1699:1730  pendingInheritances[msg.sender] */\n      swap1\n      dup2\n      mstore\n      0x20\n      dup2\n      dup2\n      mstore\n      0x40\n      swap2\n      dup3\n      swap1\n      keccak256\n        /* \"HeirsAdministration.sol\":1692:1730  return pendingInheritances[msg.sender] */\n      dup1\n      sload\n      dup4\n      mload\n      dup2\n      dup5\n      mul\n      dup2\n      add\n      dup5\n      add\n      swap1\n      swap5\n      mstore\n      dup1\n      dup5\n      mstore\n        /* \"HeirsAdministration.sol\":1664:1680  address[] memory */\n      0x60\n      swap4\n        /* \"HeirsAdministration.sol\":1692:1730  return pendingInheritances[msg.sender] */\n      swap3\n      dup4\n      add\n        /* \"HeirsAdministration.sol\":1699:1730  pendingInheritances[msg.sender] */\n      dup3\n        /* \"HeirsAdministration.sol\":1692:1730  return pendingInheritances[msg.sender] */\n      dup3\n      dup1\n      iszero\n      tag_44\n      jumpi\n      0x20\n      mul\n      dup3\n      add\n      swap2\n      swap1\n      0x00\n      mstore\n      keccak256(0x00, 0x20)\n      swap1\n    tag_45:\n      dup2\n      sload\n      sub(shl(0xa0, 0x01), 0x01)\n      and\n      dup2\n      mstore\n      0x01\n      swap1\n      swap2\n      add\n      swap1\n      0x20\n      add\n      dup1\n      dup4\n      gt\n      tag_45\n      jumpi\n    tag_44:\n      pop\n      pop\n      pop\n      pop\n      pop\n      swap1\n      pop\n        /* \"HeirsAdministration.sol\":1609:1737  function getPendingInheritances() public view returns (address[] memory) {... */\n      swap1\n      jump\t// out\n        /* \"HeirsAdministration.sol\":205:262  mapping(address => address[]) public rejectedInheritances */\n    tag_19:\n      mstore(0x20, 0x01)\n      dup2\n      0x00\n      mstore\n      keccak256(0x00, 0x40)\n      dup2\n      dup2\n      sload\n      dup2\n      lt\n      tag_46\n      jumpi\n      0x00\n      dup1\n      revert\n    tag_46:\n      0x00\n      swap2\n      dup3\n      mstore\n      0x20\n      swap1\n      swap2\n      keccak256\n      add\n      sload\n      sub(shl(0xa0, 0x01), 0x01)\n      and\n      swap2\n      pop\n      dup3\n      swap1\n      pop\n      jump\t// out\n        /* \"HeirsAdministration.sol\":703:1583  function removePendingInheritance(address _inheritance) public {... */\n    tag_25:\n        /* \"HeirsAdministration.sol\":776:794  uint indexToRemove */\n      0x00\n      dup1\n      dup1\n        /* \"HeirsAdministration.sol\":833:1082  for (uint i = 0; i < pendingInheritances[msg.sender].length; i++) {... */\n    tag_49:\n        /* \"HeirsAdministration.sol\":874:884  msg.sender */\n      caller\n        /* \"HeirsAdministration.sol\":854:873  pendingInheritances */\n      0x00\n        /* \"HeirsAdministration.sol\":854:885  pendingInheritances[msg.sender] */\n      swap1\n      dup2\n      mstore\n      0x20\n      dup2\n      swap1\n      mstore\n      0x40\n      swap1\n      keccak256\n        /* \"HeirsAdministration.sol\":854:892  pendingInheritances[msg.sender].length */\n      sload\n        /* \"HeirsAdministration.sol\":850:892  i < pendingInheritances[msg.sender].length */\n      dup2\n      lt\n        /* \"HeirsAdministration.sol\":833:1082  for (uint i = 0; i < pendingInheritances[msg.sender].length; i++) {... */\n      iszero\n      tag_50\n      jumpi\n        /* \"HeirsAdministration.sol\":937:947  msg.sender */\n      caller\n        /* \"HeirsAdministration.sol\":917:936  pendingInheritances */\n      0x00\n        /* \"HeirsAdministration.sol\":917:948  pendingInheritances[msg.sender] */\n      swap1\n      dup2\n      mstore\n      0x20\n      dup2\n      swap1\n      mstore\n      0x40\n      swap1\n      keccak256\n        /* \"HeirsAdministration.sol\":917:951  pendingInheritances[msg.sender][i] */\n      dup1\n      sload\n      sub(shl(0xa0, 0x01), 0x01)\n        /* \"HeirsAdministration.sol\":917:967  pendingInheritances[msg.sender][i] == _inheritance */\n      dup7\n      and\n      swap2\n        /* \"HeirsAdministration.sol\":917:948  pendingInheritances[msg.sender] */\n      swap1\n        /* \"HeirsAdministration.sol\":949:950  i */\n      dup4\n      swap1\n        /* \"HeirsAdministration.sol\":917:951  pendingInheritances[msg.sender][i] */\n      dup2\n      lt\n      tag_53\n      jumpi\n      tag_53\n      tag_54\n      jump\t// in\n    tag_53:\n      0x00\n      swap2\n      dup3\n      mstore\n      0x20\n      swap1\n      swap2\n      keccak256\n      add\n      sload\n      sub(shl(0xa0, 0x01), 0x01)\n      and\n        /* \"HeirsAdministration.sol\":917:967  pendingInheritances[msg.sender][i] == _inheritance */\n      sub\n        /* \"HeirsAdministration.sol\":913:1072  if (pendingInheritances[msg.sender][i] == _inheritance) {... */\n      tag_56\n      jumpi\n        /* \"HeirsAdministration.sol\":1003:1004  i */\n      dup1\n        /* \"HeirsAdministration.sol\":987:1004  indexToRemove = i */\n      swap3\n      pop\n        /* \"HeirsAdministration.sol\":1030:1034  true */\n      0x01\n        /* \"HeirsAdministration.sol\":1022:1034  found = true */\n      swap2\n      pop\n        /* \"HeirsAdministration.sol\":1052:1057  break */\n      jump(tag_50)\n        /* \"HeirsAdministration.sol\":913:1072  if (pendingInheritances[msg.sender][i] == _inheritance) {... */\n    tag_56:\n        /* \"HeirsAdministration.sol\":894:897  i++ */\n      dup1\n      tag_57\n      dup2\n      tag_58\n      jump\t// in\n    tag_57:\n      swap2\n      pop\n      pop\n        /* \"HeirsAdministration.sol\":833:1082  for (uint i = 0; i < pendingInheritances[msg.sender].length; i++) {... */\n      jump(tag_49)\n    tag_50:\n      pop\n        /* \"HeirsAdministration.sol\":1100:1105  found */\n      dup1\n        /* \"HeirsAdministration.sol\":1092:1147  require(found, \"Inheritance not found in pending list\") */\n      tag_59\n      jumpi\n      mload(0x40)\n      shl(0xe5, 0x461bcd)\n      dup2\n      mstore\n        /* \"#utility.yul\":2311:2313   */\n      0x20\n        /* \"HeirsAdministration.sol\":1092:1147  require(found, \"Inheritance not found in pending list\") */\n      0x04\n      dup3\n      add\n        /* \"#utility.yul\":2293:2314   */\n      mstore\n        /* \"#utility.yul\":2350:2352   */\n      0x25\n        /* \"#utility.yul\":2330:2348   */\n      0x24\n      dup3\n      add\n        /* \"#utility.yul\":2323:2353   */\n      mstore\n        /* \"#utility.yul\":2389:2423   */\n      0x496e6865726974616e6365206e6f7420666f756e6420696e2070656e64696e67\n        /* \"#utility.yul\":2369:2387   */\n      0x44\n      dup3\n      add\n        /* \"#utility.yul\":2362:2424   */\n      mstore\n      shl(0xda, 0x081b1a5cdd)\n        /* \"#utility.yul\":2440:2458   */\n      0x64\n      dup3\n      add\n        /* \"#utility.yul\":2433:2468   */\n      mstore\n        /* \"#utility.yul\":2485:2504   */\n      0x84\n      add\n        /* \"HeirsAdministration.sol\":1092:1147  require(found, \"Inheritance not found in pending list\") */\n    tag_60:\n      mload(0x40)\n      dup1\n      swap2\n      sub\n      swap1\n      revert\n    tag_59:\n        /* \"HeirsAdministration.sol\":1179:1189  msg.sender */\n      caller\n        /* \"HeirsAdministration.sol\":1158:1190  rejectedInheritances[msg.sender] */\n      0x00\n      dup2\n      dup2\n      mstore\n        /* \"HeirsAdministration.sol\":1158:1178  rejectedInheritances */\n      0x01\n        /* \"HeirsAdministration.sol\":1158:1190  rejectedInheritances[msg.sender] */\n      0x20\n      dup2\n      dup2\n      mstore\n      0x40\n      dup1\n      dup5\n      keccak256\n        /* \"HeirsAdministration.sol\":1158:1209  rejectedInheritances[msg.sender].push(_inheritance) */\n      dup1\n      sload\n      dup1\n      dup6\n      add\n      dup3\n      sstore\n      swap1\n      dup6\n      mstore\n      dup3\n      dup6\n      keccak256\n      add\n      dup1\n      sload\n      not(sub(shl(0xa0, 0x01), 0x01))\n      and\n      sub(shl(0xa0, 0x01), 0x01)\n      dup11\n      and\n      or\n      swap1\n      sstore\n        /* \"HeirsAdministration.sol\":1329:1382  pendingInheritances[... */\n      swap4\n      dup4\n      mstore\n      dup3\n      swap1\n      mstore\n      swap2\n      swap1\n      keccak256\n        /* \"HeirsAdministration.sol\":1383:1421  pendingInheritances[msg.sender].length */\n      dup1\n      sload\n        /* \"HeirsAdministration.sol\":1329:1382  pendingInheritances[... */\n      swap1\n      swap2\n        /* \"HeirsAdministration.sol\":1383:1425  pendingInheritances[msg.sender].length - 1 */\n      tag_63\n      swap2\n      tag_64\n      jump\t// in\n    tag_63:\n        /* \"HeirsAdministration.sol\":1329:1426  pendingInheritances[... */\n      dup2\n      sload\n      dup2\n      lt\n      tag_66\n      jumpi\n      tag_66\n      tag_54\n      jump\t// in\n    tag_66:\n      0x00\n      swap2\n      dup3\n      mstore\n      0x20\n      dup1\n      dup4\n      keccak256\n      swap1\n      swap2\n      add\n      sload\n        /* \"HeirsAdministration.sol\":1300:1310  msg.sender */\n      caller\n        /* \"HeirsAdministration.sol\":1280:1311  pendingInheritances[msg.sender] */\n      dup4\n      mstore\n      swap1\n      dup3\n      swap1\n      mstore\n      0x40\n      swap1\n      swap2\n      keccak256\n        /* \"HeirsAdministration.sol\":1280:1326  pendingInheritances[msg.sender][indexToRemove] */\n      dup1\n      sload\n      sub(shl(0xa0, 0x01), 0x01)\n        /* \"HeirsAdministration.sol\":1329:1426  pendingInheritances[... */\n      swap1\n      swap3\n      and\n      swap2\n        /* \"HeirsAdministration.sol\":1312:1325  indexToRemove */\n      dup5\n      swap1\n        /* \"HeirsAdministration.sol\":1280:1326  pendingInheritances[msg.sender][indexToRemove] */\n      dup2\n      lt\n      tag_69\n      jumpi\n      tag_69\n      tag_54\n      jump\t// in\n    tag_69:\n      0x00\n      swap2\n      dup3\n      mstore\n      0x20\n      dup1\n      dup4\n      keccak256\n      swap2\n      swap1\n      swap2\n      add\n        /* \"HeirsAdministration.sol\":1280:1426  pendingInheritances[msg.sender][indexToRemove] = pendingInheritances[... */\n      dup1\n      sload\n      not(sub(shl(0xa0, 0x01), 0x01))\n      and\n      sub(shl(0xa0, 0x01), 0x01)\n      swap5\n      swap1\n      swap5\n      and\n      swap4\n      swap1\n      swap4\n      or\n      swap1\n      swap3\n      sstore\n        /* \"HeirsAdministration.sol\":1492:1502  msg.sender */\n      caller\n        /* \"HeirsAdministration.sol\":1472:1503  pendingInheritances[msg.sender] */\n      dup2\n      mstore\n      swap1\n      dup2\n      swap1\n      mstore\n      0x40\n      swap1\n      keccak256\n        /* \"HeirsAdministration.sol\":1472:1509  pendingInheritances[msg.sender].pop() */\n      dup1\n      sload\n      dup1\n      tag_72\n      jumpi\n      tag_72\n      tag_73\n      jump\t// in\n    tag_72:\n      0x00\n      dup3\n      dup2\n      mstore\n      0x20\n      dup2\n      keccak256\n      dup3\n      add\n      not(0x00)\n      swap1\n      dup2\n      add\n      dup1\n      sload\n      not(sub(shl(0xa0, 0x01), 0x01))\n      and\n      swap1\n      sstore\n      swap1\n      swap2\n      add\n      swap1\n      swap2\n      sstore\n        /* \"HeirsAdministration.sol\":1525:1576  PendingInheritanceRemoved(msg.sender, _inheritance) */\n      mload(0x40)\n      sub(shl(0xa0, 0x01), 0x01)\n      dup6\n      and\n      swap2\n        /* \"HeirsAdministration.sol\":1551:1561  msg.sender */\n      caller\n      swap2\n        /* \"HeirsAdministration.sol\":1525:1576  PendingInheritanceRemoved(msg.sender, _inheritance) */\n      0x0fb512a92f714e8e3654396c8b45900300a83520e047c58fb3fed73d2c31ec7f\n      swap2\n        /* \"HeirsAdministration.sol\":1472:1509  pendingInheritances[msg.sender].pop() */\n      swap1\n        /* \"HeirsAdministration.sol\":1525:1576  PendingInheritanceRemoved(msg.sender, _inheritance) */\n      log3\n        /* \"HeirsAdministration.sol\":766:1583  {... */\n      pop\n      pop\n        /* \"HeirsAdministration.sol\":703:1583  function removePendingInheritance(address _inheritance) public {... */\n      pop\n      jump\t// out\n        /* \"HeirsAdministration.sol\":430:697  function addPendingInheritance(address _inheritance) public {... */\n    tag_28:\n        /* \"HeirsAdministration.sol\":541:551  msg.sender */\n      caller\n        /* \"HeirsAdministration.sol\":521:540  pendingInheritances */\n      0x00\n        /* \"HeirsAdministration.sol\":521:552  pendingInheritances[msg.sender] */\n      swap1\n      dup2\n      mstore\n      0x20\n      dup2\n      swap1\n      mstore\n      0x40\n      swap1\n      keccak256\n        /* \"HeirsAdministration.sol\":521:559  pendingInheritances[msg.sender].length */\n      sload\n        /* \"HeirsAdministration.sol\":562:563  3 */\n      0x03\n      gt\n        /* \"HeirsAdministration.sol\":500:630  require(... */\n      tag_76\n      jumpi\n      mload(0x40)\n      shl(0xe5, 0x461bcd)\n      dup2\n      mstore\n        /* \"#utility.yul\":2982:2984   */\n      0x20\n        /* \"HeirsAdministration.sol\":500:630  require(... */\n      0x04\n      dup3\n      add\n        /* \"#utility.yul\":2964:2985   */\n      mstore\n        /* \"#utility.yul\":3021:3023   */\n      0x29\n        /* \"#utility.yul\":3001:3019   */\n      0x24\n      dup3\n      add\n        /* \"#utility.yul\":2994:3024   */\n      mstore\n        /* \"#utility.yul\":3060:3094   */\n      0x596f752063616e206f6e6c79207265717565737420757020746f203320696e68\n        /* \"#utility.yul\":3040:3058   */\n      0x44\n      dup3\n      add\n        /* \"#utility.yul\":3033:3095   */\n      mstore\n      shl(0xb8, 0x65726974616e636573)\n        /* \"#utility.yul\":3111:3129   */\n      0x64\n      dup3\n      add\n        /* \"#utility.yul\":3104:3143   */\n      mstore\n        /* \"#utility.yul\":3160:3179   */\n      0x84\n      add\n        /* \"HeirsAdministration.sol\":500:630  require(... */\n      tag_60\n        /* \"#utility.yul\":2780:3185   */\n      jump\n        /* \"HeirsAdministration.sol\":500:630  require(... */\n    tag_76:\n        /* \"HeirsAdministration.sol\":660:670  msg.sender */\n      caller\n        /* \"HeirsAdministration.sol\":640:659  pendingInheritances */\n      0x00\n        /* \"HeirsAdministration.sol\":640:671  pendingInheritances[msg.sender] */\n      swap1\n      dup2\n      mstore\n      0x20\n      dup2\n      dup2\n      mstore\n      0x40\n      dup3\n      keccak256\n        /* \"HeirsAdministration.sol\":640:690  pendingInheritances[msg.sender].push(_inheritance) */\n      dup1\n      sload\n      0x01\n      dup2\n      add\n      dup3\n      sstore\n      swap1\n      dup4\n      mstore\n      swap2\n      keccak256\n      add\n      dup1\n      sload\n      not(sub(shl(0xa0, 0x01), 0x01))\n      and\n      sub(shl(0xa0, 0x01), 0x01)\n      swap3\n      swap1\n      swap3\n      and\n      swap2\n      swap1\n      swap2\n      or\n      swap1\n      sstore\n        /* \"HeirsAdministration.sol\":430:697  function addPendingInheritance(address _inheritance) public {... */\n      jump\t// out\n        /* \"HeirsAdministration.sol\":93:149  mapping(address => address[]) public pendingInheritances */\n    tag_35:\n      mstore(0x20, 0x00)\n      dup2\n      0x00\n      mstore\n      keccak256(0x00, 0x40)\n      dup2\n      dup2\n      sload\n      dup2\n      lt\n      tag_46\n      jumpi\n      0x00\n      dup1\n      revert\n        /* \"HeirsAdministration.sol\":1743:1873  function getRejectedInheritances() public view returns (address[] memory) {... */\n    tag_41:\n        /* \"HeirsAdministration.sol\":1855:1865  msg.sender */\n      caller\n        /* \"HeirsAdministration.sol\":1834:1866  rejectedInheritances[msg.sender] */\n      0x00\n      swap1\n      dup2\n      mstore\n        /* \"HeirsAdministration.sol\":1834:1854  rejectedInheritances */\n      0x01\n        /* \"HeirsAdministration.sol\":1834:1866  rejectedInheritances[msg.sender] */\n      0x20\n      swap1\n      dup2\n      mstore\n      0x40\n      swap2\n      dup3\n      swap1\n      keccak256\n        /* \"HeirsAdministration.sol\":1827:1866  return rejectedInheritances[msg.sender] */\n      dup1\n      sload\n      dup4\n      mload\n      dup2\n      dup5\n      mul\n      dup2\n      add\n      dup5\n      add\n      swap1\n      swap5\n      mstore\n      dup1\n      dup5\n      mstore\n        /* \"HeirsAdministration.sol\":1799:1815  address[] memory */\n      0x60\n      swap4\n        /* \"HeirsAdministration.sol\":1827:1866  return rejectedInheritances[msg.sender] */\n      swap3\n      dup4\n      add\n        /* \"HeirsAdministration.sol\":1834:1866  rejectedInheritances[msg.sender] */\n      dup3\n        /* \"HeirsAdministration.sol\":1827:1866  return rejectedInheritances[msg.sender] */\n      dup3\n      dup1\n      iszero\n      tag_44\n      jumpi\n      0x20\n      mul\n      dup3\n      add\n      swap2\n      swap1\n      0x00\n      mstore\n      keccak256(0x00, 0x20)\n      swap1\n      dup2\n      sload\n      sub(shl(0xa0, 0x01), 0x01)\n      and\n      dup2\n      mstore\n      0x01\n      swap1\n      swap2\n      add\n      swap1\n      0x20\n      add\n      dup1\n      dup4\n      gt\n      tag_45\n      jumpi\n      pop\n      pop\n      pop\n      pop\n      pop\n      swap1\n      pop\n        /* \"HeirsAdministration.sol\":1743:1873  function getRejectedInheritances() public view returns (address[] memory) {... */\n      swap1\n      jump\t// out\n        /* \"#utility.yul\":14:672   */\n    tag_15:\n        /* \"#utility.yul\":185:187   */\n      0x20\n        /* \"#utility.yul\":237:258   */\n      dup1\n      dup3\n      mstore\n        /* \"#utility.yul\":307:320   */\n      dup3\n      mload\n        /* \"#utility.yul\":210:228   */\n      dup3\n      dup3\n      add\n        /* \"#utility.yul\":329:351   */\n      dup2\n      swap1\n      mstore\n        /* \"#utility.yul\":156:160   */\n      0x00\n      swap2\n        /* \"#utility.yul\":185:187   */\n      swap1\n        /* \"#utility.yul\":408:423   */\n      dup5\n      dup3\n      add\n      swap1\n        /* \"#utility.yul\":382:384   */\n      0x40\n        /* \"#utility.yul\":367:385   */\n      dup6\n      add\n      swap1\n        /* \"#utility.yul\":156:160   */\n      dup5\n        /* \"#utility.yul\":451:646   */\n    tag_91:\n        /* \"#utility.yul\":465:471   */\n      dup2\n        /* \"#utility.yul\":462:463   */\n      dup2\n        /* \"#utility.yul\":459:472   */\n      lt\n        /* \"#utility.yul\":451:646   */\n      iszero\n      tag_93\n      jumpi\n        /* \"#utility.yul\":530:543   */\n      dup4\n      mload\n      sub(shl(0xa0, 0x01), 0x01)\n        /* \"#utility.yul\":526:565   */\n      and\n        /* \"#utility.yul\":514:566   */\n      dup4\n      mstore\n        /* \"#utility.yul\":621:636   */\n      swap3\n      dup5\n      add\n      swap3\n        /* \"#utility.yul\":586:598   */\n      swap2\n      dup5\n      add\n      swap2\n        /* \"#utility.yul\":562:563   */\n      0x01\n        /* \"#utility.yul\":480:489   */\n      add\n        /* \"#utility.yul\":451:646   */\n      jump(tag_91)\n    tag_93:\n      pop\n        /* \"#utility.yul\":663:666   */\n      swap1\n      swap7\n        /* \"#utility.yul\":14:672   */\n      swap6\n      pop\n      pop\n      pop\n      pop\n      pop\n      pop\n      jump\t// out\n        /* \"#utility.yul\":677:850   */\n    tag_87:\n        /* \"#utility.yul\":745:765   */\n      dup1\n      calldataload\n      sub(shl(0xa0, 0x01), 0x01)\n        /* \"#utility.yul\":794:825   */\n      dup2\n      and\n        /* \"#utility.yul\":784:826   */\n      dup2\n      eq\n        /* \"#utility.yul\":774:844   */\n      tag_95\n      jumpi\n        /* \"#utility.yul\":840:841   */\n      0x00\n        /* \"#utility.yul\":837:838   */\n      dup1\n        /* \"#utility.yul\":830:842   */\n      revert\n        /* \"#utility.yul\":774:844   */\n    tag_95:\n        /* \"#utility.yul\":677:850   */\n      swap2\n      swap1\n      pop\n      jump\t// out\n        /* \"#utility.yul\":855:1109   */\n    tag_18:\n        /* \"#utility.yul\":923:929   */\n      0x00\n        /* \"#utility.yul\":931:937   */\n      dup1\n        /* \"#utility.yul\":984:986   */\n      0x40\n        /* \"#utility.yul\":972:981   */\n      dup4\n        /* \"#utility.yul\":963:970   */\n      dup6\n        /* \"#utility.yul\":959:982   */\n      sub\n        /* \"#utility.yul\":955:987   */\n      slt\n        /* \"#utility.yul\":952:1004   */\n      iszero\n      tag_97\n      jumpi\n        /* \"#utility.yul\":1000:1001   */\n      0x00\n        /* \"#utility.yul\":997:998   */\n      dup1\n        /* \"#utility.yul\":990:1002   */\n      revert\n        /* \"#utility.yul\":952:1004   */\n    tag_97:\n        /* \"#utility.yul\":1023:1052   */\n      tag_98\n        /* \"#utility.yul\":1042:1051   */\n      dup4\n        /* \"#utility.yul\":1023:1052   */\n      tag_87\n      jump\t// in\n    tag_98:\n        /* \"#utility.yul\":1013:1052   */\n      swap5\n        /* \"#utility.yul\":1099:1101   */\n      0x20\n        /* \"#utility.yul\":1084:1102   */\n      swap4\n      swap1\n      swap4\n      add\n        /* \"#utility.yul\":1071:1103   */\n      calldataload\n      swap4\n      pop\n      pop\n      pop\n        /* \"#utility.yul\":855:1109   */\n      jump\t// out\n        /* \"#utility.yul\":1322:1508   */\n    tag_24:\n        /* \"#utility.yul\":1381:1387   */\n      0x00\n        /* \"#utility.yul\":1434:1436   */\n      0x20\n        /* \"#utility.yul\":1422:1431   */\n      dup3\n        /* \"#utility.yul\":1413:1420   */\n      dup5\n        /* \"#utility.yul\":1409:1432   */\n      sub\n        /* \"#utility.yul\":1405:1437   */\n      slt\n        /* \"#utility.yul\":1402:1454   */\n      iszero\n      tag_101\n      jumpi\n        /* \"#utility.yul\":1450:1451   */\n      0x00\n        /* \"#utility.yul\":1447:1448   */\n      dup1\n        /* \"#utility.yul\":1440:1452   */\n      revert\n        /* \"#utility.yul\":1402:1454   */\n    tag_101:\n        /* \"#utility.yul\":1473:1502   */\n      tag_102\n        /* \"#utility.yul\":1492:1501   */\n      dup3\n        /* \"#utility.yul\":1473:1502   */\n      tag_87\n      jump\t// in\n    tag_102:\n        /* \"#utility.yul\":1463:1502   */\n      swap4\n        /* \"#utility.yul\":1322:1508   */\n      swap3\n      pop\n      pop\n      pop\n      jump\t// out\n        /* \"#utility.yul\":1705:1832   */\n    tag_54:\n        /* \"#utility.yul\":1766:1776   */\n      0x4e487b71\n        /* \"#utility.yul\":1761:1764   */\n      0xe0\n        /* \"#utility.yul\":1757:1777   */\n      shl\n        /* \"#utility.yul\":1754:1755   */\n      0x00\n        /* \"#utility.yul\":1747:1778   */\n      mstore\n        /* \"#utility.yul\":1797:1801   */\n      0x32\n        /* \"#utility.yul\":1794:1795   */\n      0x04\n        /* \"#utility.yul\":1787:1802   */\n      mstore\n        /* \"#utility.yul\":1821:1825   */\n      0x24\n        /* \"#utility.yul\":1818:1819   */\n      0x00\n        /* \"#utility.yul\":1811:1826   */\n      revert\n        /* \"#utility.yul\":1837:1964   */\n    tag_88:\n        /* \"#utility.yul\":1898:1908   */\n      0x4e487b71\n        /* \"#utility.yul\":1893:1896   */\n      0xe0\n        /* \"#utility.yul\":1889:1909   */\n      shl\n        /* \"#utility.yul\":1886:1887   */\n      0x00\n        /* \"#utility.yul\":1879:1910   */\n      mstore\n        /* \"#utility.yul\":1929:1933   */\n      0x11\n        /* \"#utility.yul\":1926:1927   */\n      0x04\n        /* \"#utility.yul\":1919:1934   */\n      mstore\n        /* \"#utility.yul\":1953:1957   */\n      0x24\n        /* \"#utility.yul\":1950:1951   */\n      0x00\n        /* \"#utility.yul\":1943:1958   */\n      revert\n        /* \"#utility.yul\":1969:2104   */\n    tag_58:\n        /* \"#utility.yul\":2008:2011   */\n      0x00\n        /* \"#utility.yul\":2029:2046   */\n      0x01\n      dup3\n      add\n        /* \"#utility.yul\":2026:2069   */\n      tag_108\n      jumpi\n        /* \"#utility.yul\":2049:2067   */\n      tag_108\n      tag_88\n      jump\t// in\n    tag_108:\n      pop\n        /* \"#utility.yul\":2096:2097   */\n      0x01\n        /* \"#utility.yul\":2085:2098   */\n      add\n      swap1\n        /* \"#utility.yul\":1969:2104   */\n      jump\t// out\n        /* \"#utility.yul\":2515:2643   */\n    tag_64:\n        /* \"#utility.yul\":2582:2591   */\n      dup2\n      dup2\n      sub\n        /* \"#utility.yul\":2603:2614   */\n      dup2\n      dup2\n      gt\n        /* \"#utility.yul\":2600:2637   */\n      iszero\n      tag_112\n      jumpi\n        /* \"#utility.yul\":2617:2635   */\n      tag_112\n      tag_88\n      jump\t// in\n    tag_112:\n        /* \"#utility.yul\":2515:2643   */\n      swap3\n      swap2\n      pop\n      pop\n      jump\t// out\n        /* \"#utility.yul\":2648:2775   */\n    tag_73:\n        /* \"#utility.yul\":2709:2719   */\n      0x4e487b71\n        /* \"#utility.yul\":2704:2707   */\n      0xe0\n        /* \"#utility.yul\":2700:2720   */\n      shl\n        /* \"#utility.yul\":2697:2698   */\n      0x00\n        /* \"#utility.yul\":2690:2721   */\n      mstore\n        /* \"#utility.yul\":2740:2744   */\n      0x31\n        /* \"#utility.yul\":2737:2738   */\n      0x04\n        /* \"#utility.yul\":2730:2745   */\n      mstore\n        /* \"#utility.yul\":2764:2768   */\n      0x24\n        /* \"#utility.yul\":2761:2762   */\n      0x00\n        /* \"#utility.yul\":2754:2769   */\n      revert\n\n    auxdata: 0xa2646970667358221220cc0916d2a1b5c7b562a4df6f8f3308acb1af91f38e486f14925fb7de61972b0d64736f6c63430008130033\n}\n","bytecode":{"linkReferences":{},"object":"608060405234801561001057600080fd5b506106a4806100206000396000f3fe608060405234801561001057600080fd5b50600436106100885760003560e01c806352466cba1161005b57806352466cba146100fe5780638a9dab38146101215780638c7a6c6514610134578063b45f0dbd1461014b57600080fd5b80631e55feca1461008d57806324d02dc5146100ab578063449fd1b2146100d65780634fd4bacd146100eb575b600080fd5b610095610153565b6040516100a29190610545565b60405180910390f35b6100be6100b93660046105ae565b6101bc565b6040516001600160a01b0390911681526020016100a2565b6100e96100e43660046105d8565b6101f4565b005b6100e96100f93660046105d8565b610412565b3360009081526020819052604090205415155b60405190151581526020016100a2565b6100be61012f3660046105ae565b6104c0565b336000908152600160205260409020541515610111565b6100956104dc565b33600090815260208181526040918290208054835181840281018401909452808452606093928301828280156101b257602002820191906000526020600020905b81546001600160a01b03168152600190910190602001808311610194575b5050505050905090565b600160205281600052604060002081815481106101d857600080fd5b6000918252602090912001546001600160a01b03169150829050565b600080805b336000908152602081905260409020548110156102755733600090815260208190526040902080546001600160a01b03861691908390811061023d5761023d6105fa565b6000918252602090912001546001600160a01b0316036102635780925060019150610275565b8061026d81610626565b9150506101f9565b50806102d65760405162461bcd60e51b815260206004820152602560248201527f496e6865726974616e6365206e6f7420666f756e6420696e2070656e64696e67604482015264081b1a5cdd60da1b60648201526084015b60405180910390fd5b336000818152600160208181526040808420805480850182559085528285200180546001600160a01b0319166001600160a01b038a16179055938352829052919020805490916103259161063f565b81548110610335576103356105fa565b600091825260208083209091015433835290829052604090912080546001600160a01b03909216918490811061036d5761036d6105fa565b600091825260208083209190910180546001600160a01b0319166001600160a01b03949094169390931790925533815290819052604090208054806103b4576103b4610658565b600082815260208120820160001990810180546001600160a01b03191690559091019091556040516001600160a01b0385169133917f0fb512a92f714e8e3654396c8b45900300a83520e047c58fb3fed73d2c31ec7f9190a3505050565b336000908152602081905260409020546003116104835760405162461bcd60e51b815260206004820152602960248201527f596f752063616e206f6e6c79207265717565737420757020746f203320696e6860448201526865726974616e63657360b81b60648201526084016102cd565b336000908152602081815260408220805460018101825590835291200180546001600160a01b0319166001600160a01b0392909216919091179055565b600060205281600052604060002081815481106101d857600080fd5b336000908152600160209081526040918290208054835181840281018401909452808452606093928301828280156101b2576020028201919060005260206000209081546001600160a01b03168152600190910190602001808311610194575050505050905090565b6020808252825182820181905260009190848201906040850190845b818110156105865783516001600160a01b031683529284019291840191600101610561565b50909695505050505050565b80356001600160a01b03811681146105a957600080fd5b919050565b600080604083850312156105c157600080fd5b6105ca83610592565b946020939093013593505050565b6000602082840312156105ea57600080fd5b6105f382610592565b9392505050565b634e487b7160e01b600052603260045260246000fd5b634e487b7160e01b600052601160045260246000fd5b60006001820161063857610638610610565b5060010190565b8181038181111561065257610652610610565b92915050565b634e487b7160e01b600052603160045260246000fdfea2646970667358221220cc0916d2a1b5c7b562a4df6f8f3308acb1af91f38e486f14925fb7de61972b0d64736f6c63430008130033","opcodes":"PUSH1 0x80 PUSH1 0x40 MSTORE CALLVALUE DUP1 ISZERO PUSH2 0x10 JUMPI PUSH1 0x0 DUP1 REVERT JUMPDEST POP PUSH2 0x6A4 DUP1 PUSH2 0x20 PUSH1 0x0 CODECOPY PUSH1 0x0 RETURN INVALID PUSH1 0x80 PUSH1 0x40 MSTORE CALLVALUE DUP1 ISZERO PUSH2 0x10 JUMPI PUSH1 0x0 DUP1 REVERT JUMPDEST POP PUSH1 0x4 CALLDATASIZE LT PUSH2 0x88 JUMPI PUSH1 0x0 CALLDATALOAD PUSH1 0xE0 SHR DUP1 PUSH4 0x52466CBA GT PUSH2 0x5B JUMPI DUP1 PUSH4 0x52466CBA EQ PUSH2 0xFE JUMPI DUP1 PUSH4 0x8A9DAB38 EQ PUSH2 0x121 JUMPI DUP1 PUSH4 0x8C7A6C65 EQ PUSH2 0x134 JUMPI DUP1 PUSH4 0xB45F0DBD EQ PUSH2 0x14B JUMPI PUSH1 0x0 DUP1 REVERT JUMPDEST DUP1 PUSH4 0x1E55FECA EQ PUSH2 0x8D JUMPI DUP1 PUSH4 0x24D02DC5 EQ PUSH2 0xAB JUMPI DUP1 PUSH4 0x449FD1B2 EQ PUSH2 0xD6 JUMPI DUP1 PUSH4 0x4FD4BACD EQ PUSH2 0xEB JUMPI JUMPDEST PUSH1 0x0 DUP1 REVERT JUMPDEST PUSH2 0x95 PUSH2 0x153 JUMP JUMPDEST PUSH1 0x40 MLOAD PUSH2 0xA2 SWAP2 SWAP1 PUSH2 0x545 JUMP JUMPDEST PUSH1 0x40 MLOAD DUP1 SWAP2 SUB SWAP1 RETURN JUMPDEST PUSH2 0xBE PUSH2 0xB9 CALLDATASIZE PUSH1 0x4 PUSH2 0x5AE JUMP JUMPDEST PUSH2 0x1BC JUMP JUMPDEST PUSH1 0x40 MLOAD PUSH1 0x1 PUSH1 0x1 PUSH1 0xA0 SHL SUB SWAP1 SWAP2 AND DUP2 MSTORE PUSH1 0x20 ADD PUSH2 0xA2 JUMP JUMPDEST PUSH2 0xE9 PUSH2 0xE4 CALLDATASIZE PUSH1 0x4 PUSH2 0x5D8 JUMP JUMPDEST PUSH2 0x1F4 JUMP JUMPDEST STOP JUMPDEST PUSH2 0xE9 PUSH2 0xF9 CALLDATASIZE PUSH1 0x4 PUSH2 0x5D8 JUMP JUMPDEST PUSH2 0x412 JUMP JUMPDEST CALLER PUSH1 0x0 SWAP1 DUP2 MSTORE PUSH1 0x20 DUP2 SWAP1 MSTORE PUSH1 0x40 SWAP1 KECCAK256 SLOAD ISZERO ISZERO JUMPDEST PUSH1 0x40 MLOAD SWAP1 ISZERO ISZERO DUP2 MSTORE PUSH1 0x20 ADD PUSH2 0xA2 JUMP JUMPDEST PUSH2 0xBE PUSH2 0x12F CALLDATASIZE PUSH1 0x4 PUSH2 0x5AE JUMP JUMPDEST PUSH2 0x4C0 JUMP JUMPDEST CALLER PUSH1 0x0 SWAP1 DUP2 MSTORE PUSH1 0x1 PUSH1 0x20 MSTORE PUSH1 0x40 SWAP1 KECCAK256 SLOAD ISZERO ISZERO PUSH2 0x111 JUMP JUMPDEST PUSH2 0x95 PUSH2 0x4DC JUMP JUMPDEST CALLER PUSH1 0x0 SWAP1 DUP2 MSTORE PUSH1 0x20 DUP2 DUP2 MSTORE PUSH1 0x40 SWAP2 DUP3 SWAP1 KECCAK256 DUP1 SLOAD DUP4 MLOAD DUP2 DUP5 MUL DUP2 ADD DUP5 ADD SWAP1 SWAP5 MSTORE DUP1 DUP5 MSTORE PUSH1 0x60 SWAP4 SWAP3 DUP4 ADD DUP3 DUP3 DUP1 ISZERO PUSH2 0x1B2 JUMPI PUSH1 0x20 MUL DUP3 ADD SWAP2 SWAP1 PUSH1 0x0 MSTORE PUSH1 0x20 PUSH1 0x0 KECCAK256 SWAP1 JUMPDEST DUP2 SLOAD PUSH1 0x1 PUSH1 0x1 PUSH1 0xA0 SHL SUB AND DUP2 MSTORE PUSH1 0x1 SWAP1 SWAP2 ADD SWAP1 PUSH1 0x20 ADD DUP1 DUP4 GT PUSH2 0x194 JUMPI JUMPDEST POP POP POP POP POP SWAP1 POP SWAP1 JUMP JUMPDEST PUSH1 0x1 PUSH1 0x20 MSTORE DUP2 PUSH1 0x0 MSTORE PUSH1 0x40 PUSH1 0x0 KECCAK256 DUP2 DUP2 SLOAD DUP2 LT PUSH2 0x1D8 JUMPI PUSH1 0x0 DUP1 REVERT JUMPDEST PUSH1 0x0 SWAP2 DUP3 MSTORE PUSH1 0x20 SWAP1 SWAP2 KECCAK256 ADD SLOAD PUSH1 0x1 PUSH1 0x1 PUSH1 0xA0 SHL SUB AND SWAP2 POP DUP3 SWAP1 POP JUMP JUMPDEST PUSH1 0x0 DUP1 DUP1 JUMPDEST CALLER PUSH1 0x0 SWAP1 DUP2 MSTORE PUSH1 0x20 DUP2 SWAP1 MSTORE PUSH1 0x40 SWAP1 KECCAK256 SLOAD DUP2 LT ISZERO PUSH2 0x275 JUMPI CALLER PUSH1 0x0 SWAP1 DUP2 MSTORE PUSH1 0x20 DUP2 SWAP1 MSTORE PUSH1 0x40 SWAP1 KECCAK256 DUP1 SLOAD PUSH1 0x1 PUSH1 0x1 PUSH1 0xA0 SHL SUB DUP7 AND SWAP2 SWAP1 DUP4 SWAP1 DUP2 LT PUSH2 0x23D JUMPI PUSH2 0x23D PUSH2 0x5FA JUMP JUMPDEST PUSH1 0x0 SWAP2 DUP3 MSTORE PUSH1 0x20 SWAP1 SWAP2 KECCAK256 ADD SLOAD PUSH1 0x1 PUSH1 0x1 PUSH1 0xA0 SHL SUB AND SUB PUSH2 0x263 JUMPI DUP1 SWAP3 POP PUSH1 0x1 SWAP2 POP PUSH2 0x275 JUMP JUMPDEST DUP1 PUSH2 0x26D DUP2 PUSH2 0x626 JUMP JUMPDEST SWAP2 POP POP PUSH2 0x1F9 JUMP JUMPDEST POP DUP1 PUSH2 0x2D6 JUMPI PUSH1 0x40 MLOAD PUSH3 0x461BCD PUSH1 0xE5 SHL DUP2 MSTORE PUSH1 0x20 PUSH1 0x4 DUP3 ADD MSTORE PUSH1 0x25 PUSH1 0x24 DUP3 ADD MSTORE PUSH32 0x496E6865726974616E6365206E6F7420666F756E6420696E2070656E64696E67 PUSH1 0x44 DUP3 ADD MSTORE PUSH5 0x81B1A5CDD PUSH1 0xDA SHL PUSH1 0x64 DUP3 ADD MSTORE PUSH1 0x84 ADD JUMPDEST PUSH1 0x40 MLOAD DUP1 SWAP2 SUB SWAP1 REVERT JUMPDEST CALLER PUSH1 0x0 DUP2 DUP2 MSTORE PUSH1 0x1 PUSH1 0x20 DUP2 DUP2 MSTORE PUSH1 0x40 DUP1 DUP5 KECCAK256 DUP1 SLOAD DUP1 DUP6 ADD DUP3 SSTORE SWAP1 DUP6 MSTORE DUP3 DUP6 KECCAK256 ADD DUP1 SLOAD PUSH1 0x1 PUSH1 0x1 PUSH1 0xA0 SHL SUB NOT AND PUSH1 0x1 PUSH1 0x1 PUSH1 0xA0 SHL SUB DUP11 AND OR SWAP1 SSTORE SWAP4 DUP4 MSTORE DUP3 SWAP1 MSTORE SWAP2 SWAP1 KECCAK256 DUP1 SLOAD SWAP1 SWAP2 PUSH2 0x325 SWAP2 PUSH2 0x63F JUMP JUMPDEST DUP2 SLOAD DUP2 LT PUSH2 0x335 JUMPI PUSH2 0x335 PUSH2 0x5FA JUMP JUMPDEST PUSH1 0x0 SWAP2 DUP3 MSTORE PUSH1 0x20 DUP1 DUP4 KECCAK256 SWAP1 SWAP2 ADD SLOAD CALLER DUP4 MSTORE SWAP1 DUP3 SWAP1 MSTORE PUSH1 0x40 SWAP1 SWAP2 KECCAK256 DUP1 SLOAD PUSH1 0x1 PUSH1 0x1 PUSH1 0xA0 SHL SUB SWAP1 SWAP3 AND SWAP2 DUP5 SWAP1 DUP2 LT PUSH2 0x36D JUMPI PUSH2 0x36D PUSH2 0x5FA JUMP JUMPDEST PUSH1 0x0 SWAP2 DUP3 MSTORE PUSH1 0x20 DUP1 DUP4 KECCAK256 SWAP2 SWAP1 SWAP2 ADD DUP1 SLOAD PUSH1 0x1 PUSH1 0x1 PUSH1 0xA0 SHL SUB NOT AND PUSH1 0x1 PUSH1 0x1 PUSH1 0xA0 SHL SUB SWAP5 SWAP1 SWAP5 AND SWAP4 SWAP1 SWAP4 OR SWAP1 SWAP3 SSTORE CALLER DUP2 MSTORE SWAP1 DUP2 SWAP1 MSTORE PUSH1 0x40 SWAP1 KECCAK256 DUP1 SLOAD DUP1 PUSH2 0x3B4 JUMPI PUSH2 0x3B4 PUSH2 0x658 JUMP JUMPDEST PUSH1 0x0 DUP3 DUP2 MSTORE PUSH1 0x20 DUP2 KECCAK256 DUP3 ADD PUSH1 0x0 NOT SWAP1 DUP2 ADD DUP1 SLOAD PUSH1 0x1 PUSH1 0x1 PUSH1 0xA0 SHL SUB NOT AND SWAP1 SSTORE SWAP1 SWAP2 ADD SWAP1 SWAP2 SSTORE PUSH1 0x40 MLOAD PUSH1 0x1 PUSH1 0x1 PUSH1 0xA0 SHL SUB DUP6 AND SWAP2 CALLER SWAP2 PUSH32 0xFB512A92F714E8E3654396C8B45900300A83520E047C58FB3FED73D2C31EC7F SWAP2 SWAP1 LOG3 POP POP POP JUMP JUMPDEST CALLER PUSH1 0x0 SWAP1 DUP2 MSTORE PUSH1 0x20 DUP2 SWAP1 MSTORE PUSH1 0x40 SWAP1 KECCAK256 SLOAD PUSH1 0x3 GT PUSH2 0x483 JUMPI PUSH1 0x40 MLOAD PUSH3 0x461BCD PUSH1 0xE5 SHL DUP2 MSTORE PUSH1 0x20 PUSH1 0x4 DUP3 ADD MSTORE PUSH1 0x29 PUSH1 0x24 DUP3 ADD MSTORE PUSH32 0x596F752063616E206F6E6C79207265717565737420757020746F203320696E68 PUSH1 0x44 DUP3 ADD MSTORE PUSH9 0x65726974616E636573 PUSH1 0xB8 SHL PUSH1 0x64 DUP3 ADD MSTORE PUSH1 0x84 ADD PUSH2 0x2CD JUMP JUMPDEST CALLER PUSH1 0x0 SWAP1 DUP2 MSTORE PUSH1 0x20 DUP2 DUP2 MSTORE PUSH1 0x40 DUP3 KECCAK256 DUP1 SLOAD PUSH1 0x1 DUP2 ADD DUP3 SSTORE SWAP1 DUP4 MSTORE SWAP2 KECCAK256 ADD DUP1 SLOAD PUSH1 0x1 PUSH1 0x1 PUSH1 0xA0 SHL SUB NOT AND PUSH1 0x1 PUSH1 0x1 PUSH1 0xA0 SHL SUB SWAP3 SWAP1 SWAP3 AND SWAP2 SWAP1 SWAP2 OR SWAP1 SSTORE JUMP JUMPDEST PUSH1 0x0 PUSH1 0x20 MSTORE DUP2 PUSH1 0x0 MSTORE PUSH1 0x40 PUSH1 0x0 KECCAK256 DUP2 DUP2 SLOAD DUP2 LT PUSH2 0x1D8 JUMPI PUSH1 0x0 DUP1 REVERT JUMPDEST CALLER PUSH1 0x0 SWAP1 DUP2 MSTORE PUSH1 0x1 PUSH1 0x20 SWAP1 DUP2 MSTORE PUSH1 0x40 SWAP2 DUP3 SWAP1 KECCAK256 DUP1 SLOAD DUP4 MLOAD DUP2 DUP5 MUL DUP2 ADD DUP5 ADD SWAP1 SWAP5 MSTORE DUP1 DUP5 MSTORE PUSH1 0x60 SWAP4 SWAP3 DUP4 ADD DUP3 DUP3 DUP1 ISZERO PUSH2 0x1B2 JUMPI PUSH1 0x20 MUL DUP3 ADD SWAP2 SWAP1 PUSH1 0x0 MSTORE PUSH1 0x20 PUSH1 0x0 KECCAK256 SWAP1 DUP2 SLOAD PUSH1 0x1 PUSH1 0x1 PUSH1 0xA0 SHL SUB AND DUP2 MSTORE PUSH1 0x1 SWAP1 SWAP2 ADD SWAP1 PUSH1 0x20 ADD DUP1 DUP4 GT PUSH2 0x194 JUMPI POP POP POP POP POP SWAP1 POP SWAP1 JUMP JUMPDEST PUSH1 0x20 DUP1 DUP3 MSTORE DUP3 MLOAD DUP3 DUP3 ADD DUP2 SWAP1 MSTORE PUSH1 0x0 SWAP2 SWAP1 DUP5 DUP3 ADD SWAP1 PUSH1 0x40 DUP6 ADD SWAP1 DUP5 JUMPDEST DUP2 DUP2 LT ISZERO PUSH2 0x586 JUMPI DUP4 MLOAD PUSH1 0x1 PUSH1 0x1 PUSH1 0xA0 SHL SUB AND DUP4 MSTORE SWAP3 DUP5 ADD SWAP3 SWAP2 DUP5 ADD SWAP2 PUSH1 0x1 ADD PUSH2 0x561 JUMP JUMPDEST POP SWAP1 SWAP7 SWAP6 POP POP POP POP POP POP JUMP JUMPDEST DUP1 CALLDATALOAD PUSH1 0x1 PUSH1 0x1 PUSH1 0xA0 SHL SUB DUP2 AND DUP2 EQ PUSH2 0x5A9 JUMPI PUSH1 0x0 DUP1 REVERT JUMPDEST SWAP2 SWAP1 POP JUMP JUMPDEST PUSH1 0x0 DUP1 PUSH1 0x40 DUP4 DUP6 SUB SLT ISZERO PUSH2 0x5C1 JUMPI PUSH1 0x0 DUP1 REVERT JUMPDEST PUSH2 0x5CA DUP4 PUSH2 0x592 JUMP JUMPDEST SWAP5 PUSH1 0x20 SWAP4 SWAP1 SWAP4 ADD CALLDATALOAD SWAP4 POP POP POP JUMP JUMPDEST PUSH1 0x0 PUSH1 0x20 DUP3 DUP5 SUB SLT ISZERO PUSH2 0x5EA JUMPI PUSH1 0x0 DUP1 REVERT JUMPDEST PUSH2 0x5F3 DUP3 PUSH2 0x592 JUMP JUMPDEST SWAP4 SWAP3 POP POP POP JUMP JUMPDEST PUSH4 0x4E487B71 PUSH1 0xE0 SHL PUSH1 0x0 MSTORE PUSH1 0x32 PUSH1 0x4 MSTORE PUSH1 0x24 PUSH1 0x0 REVERT JUMPDEST PUSH4 0x4E487B71 PUSH1 0xE0 SHL PUSH1 0x0 MSTORE PUSH1 0x11 PUSH1 0x4 MSTORE PUSH1 0x24 PUSH1 0x0 REVERT JUMPDEST PUSH1 0x0 PUSH1 0x1 DUP3 ADD PUSH2 0x638 JUMPI PUSH2 0x638 PUSH2 0x610 JUMP JUMPDEST POP PUSH1 0x1 ADD SWAP1 JUMP JUMPDEST DUP2 DUP2 SUB DUP2 DUP2 GT ISZERO PUSH2 0x652 JUMPI PUSH2 0x652 PUSH2 0x610 JUMP JUMPDEST SWAP3 SWAP2 POP POP JUMP JUMPDEST PUSH4 0x4E487B71 PUSH1 0xE0 SHL PUSH1 0x0 MSTORE PUSH1 0x31 PUSH1 0x4 MSTORE PUSH1 0x24 PUSH1 0x0 REVERT INVALID LOG2 PUSH5 0x6970667358 0x22 SLT KECCAK256 0xCC MULMOD AND 0xD2 LOG1 0xB5 0xC7 0xB5 PUSH3 0xA4DF6F DUP16 CALLER ADDMOD 0xAC 0xB1 0xAF SWAP2 RETURN DUP15 BASEFEE PUSH16 0x14925FB7DE61972B0D64736F6C634300 ADDMOD SGT STOP CALLER "},"gasEstimates":{"creation":{"codeDepositCost":"340000","executionCost":"380","totalCost":"340380"},"external":{"addPendingInheritance(address)":"51169","getPendingInheritances()":"infinite","getRejectedInheritances()":"infinite","hasPendingInheritances()":"2364","hasRejectedInheritances()":"2416","pendingInheritances(address,uint256)":"4806","rejectedInheritances(address,uint256)":"4807","removePendingInheritance(address)":"infinite"}},"methodIdentifiers":{"addPendingInheritance(address)":"4fd4bacd","getPendingInheritances()":"1e55feca","getRejectedInheritances()":"b45f0dbd","hasPendingInheritances()":"52466cba","hasRejectedInheritances()":"8c7a6c65","pendingInheritances(address,uint256)":"8a9dab38","rejectedInheritances(address,uint256)":"24d02dc5","removePendingInheritance(address)":"449fd1b2"}},"storageLayout":{"storage":[{"astId":6,"contract":"HeirsAdministration.sol:HeirsAdministration","label":"pendingInheritances","offset":0,"slot":"0","type":"t_mapping(t_address,t_array(t_address)dyn_storage)"},{"astId":11,"contract":"HeirsAdministration.sol:HeirsAdministration","label":"rejectedInheritances","offset":0,"slot":"1","type":"t_mapping(t_address,t_array(t_address)dyn_storage)"}],"types":{"t_address":{"encoding":"inplace","label":"address","numberOfBytes":"20"},"t_array(t_address)dyn_storage":{"base":"t_address","encoding":"dynamic_array","label":"address[]","numberOfBytes":"32"},"t_mapping(t_address,t_array(t_address)dyn_storage)":{"encoding":"mapping","key":"t_address","label":"mapping(address => address[])","numberOfBytes":"32","value":"t_array(t_address)dyn_storage"}}},"userdoc":{"kind":"user","methods":{},"version":1}}