{"abi":[{"anonymous":false,"inputs":[{"indexed":true,"internalType":"address","name":"heir","type":"address"},{"indexed":true,"internalType":"address","name":"inheritance","type":"address"},{"indexed":false,"internalType":"bool","name":"approved","type":"bool"}],"name":"PendingInheritanceRemoved","type":"event"},{"inputs":[{"internalType":"address","name":"_inheritance","type":"address"}],"name":"addPendingInheritance","outputs":[],"stateMutability":"nonpayable","type":"function"},{"inputs":[],"name":"getApprovedInheritances","outputs":[{"internalType":"address[]","name":"","type":"address[]"}],"stateMutability":"view","type":"function"},{"inputs":[],"name":"getPendingInheritances","outputs":[{"internalType":"address[]","name":"","type":"address[]"}],"stateMutability":"view","type":"function"},{"inputs":[],"name":"getRejectedInheritances","outputs":[{"internalType":"address[]","name":"","type":"address[]"}],"stateMutability":"view","type":"function"},{"inputs":[],"name":"hasApprovedInheritances","outputs":[{"internalType":"bool","name":"","type":"bool"}],"stateMutability":"view","type":"function"},{"inputs":[],"name":"hasPendingInheritances","outputs":[{"internalType":"bool","name":"","type":"bool"}],"stateMutability":"view","type":"function"},{"inputs":[],"name":"hasRejectedInheritances","outputs":[{"internalType":"bool","name":"","type":"bool"}],"stateMutability":"view","type":"function"},{"inputs":[{"internalType":"address","name":"_inheritance","type":"address"}],"name":"removePendingInheritanceToRejected","outputs":[],"stateMutability":"nonpayable","type":"function"},{"inputs":[],"name":"updatePendingInheritances","outputs":[],"stateMutability":"nonpayable","type":"function"}],"devdoc":{"kind":"dev","methods":{},"version":1},"evm":{"assembly":"    /* \"HeirsAdministration.sol\":87:4658  contract HeirsAdministration {... */\n  mstore(0x40, 0x80)\n  callvalue\n  dup1\n  iszero\n  tag_1\n  jumpi\n  0x00\n  dup1\n  revert\ntag_1:\n  pop\n  dataSize(sub_0)\n  dup1\n  dataOffset(sub_0)\n  0x00\n  codecopy\n  0x00\n  return\nstop\n\nsub_0: assembly {\n        /* \"HeirsAdministration.sol\":87:4658  contract HeirsAdministration {... */\n      mstore(0x40, 0x80)\n      callvalue\n      dup1\n      iszero\n      tag_1\n      jumpi\n      0x00\n      dup1\n      revert\n    tag_1:\n      pop\n      jumpi(tag_2, lt(calldatasize, 0x04))\n      shr(0xe0, calldataload(0x00))\n      dup1\n      0x8c7a6c65\n      gt\n      tag_12\n      jumpi\n      dup1\n      0x8c7a6c65\n      eq\n      tag_7\n      jumpi\n      dup1\n      0x92c4834a\n      eq\n      tag_8\n      jumpi\n      dup1\n      0xb45f0dbd\n      eq\n      tag_9\n      jumpi\n      dup1\n      0xc16d1962\n      eq\n      tag_10\n      jumpi\n      dup1\n      0xe9df2e7d\n      eq\n      tag_11\n      jumpi\n      0x00\n      dup1\n      revert\n    tag_12:\n      dup1\n      0x1e55feca\n      eq\n      tag_3\n      jumpi\n      dup1\n      0x24de0be1\n      eq\n      tag_4\n      jumpi\n      dup1\n      0x4fd4bacd\n      eq\n      tag_5\n      jumpi\n      dup1\n      0x52466cba\n      eq\n      tag_6\n      jumpi\n    tag_2:\n      0x00\n      dup1\n      revert\n        /* \"HeirsAdministration.sol\":3853:3981  function getPendingInheritances() public view returns (address[] memory) {... */\n    tag_3:\n      tag_13\n      tag_14\n      jump\t// in\n    tag_13:\n      mload(0x40)\n      tag_15\n      swap2\n      swap1\n      tag_16\n      jump\t// in\n    tag_15:\n      mload(0x40)\n      dup1\n      swap2\n      sub\n      swap1\n      return\n        /* \"HeirsAdministration.sol\":1002:1781  function removePendingInheritanceToRejected(address _inheritance) public {... */\n    tag_4:\n      tag_17\n      tag_18\n      calldatasize\n      0x04\n      tag_19\n      jump\t// in\n    tag_18:\n      tag_20\n      jump\t// in\n    tag_17:\n      stop\n        /* \"HeirsAdministration.sol\":598:996  function addPendingInheritance(address _inheritance) public {... */\n    tag_5:\n      tag_17\n      tag_22\n      calldatasize\n      0x04\n      tag_19\n      jump\t// in\n    tag_22:\n      tag_23\n      jump\t// in\n        /* \"HeirsAdministration.sol\":4259:4386  function hasPendingInheritances() public view returns (bool) {... */\n    tag_6:\n        /* \"HeirsAdministration.sol\":4357:4367  msg.sender */\n      caller\n        /* \"HeirsAdministration.sol\":4314:4318  bool */\n      0x00\n        /* \"HeirsAdministration.sol\":4337:4368  pendingInheritances[msg.sender] */\n      swap1\n      dup2\n      mstore\n      0x20\n      dup2\n      swap1\n      mstore\n      0x40\n      swap1\n      keccak256\n        /* \"HeirsAdministration.sol\":4337:4375  pendingInheritances[msg.sender].length */\n      sload\n        /* \"HeirsAdministration.sol\":4337:4379  pendingInheritances[msg.sender].length > 0 */\n      iszero\n      iszero\n        /* \"HeirsAdministration.sol\":4259:4386  function hasPendingInheritances() public view returns (bool) {... */\n    tag_24:\n      mload(0x40)\n        /* \"#utility.yul\":1230:1244   */\n      swap1\n      iszero\n        /* \"#utility.yul\":1223:1245   */\n      iszero\n        /* \"#utility.yul\":1205:1246   */\n      dup2\n      mstore\n        /* \"#utility.yul\":1193:1195   */\n      0x20\n        /* \"#utility.yul\":1178:1196   */\n      add\n        /* \"HeirsAdministration.sol\":4259:4386  function hasPendingInheritances() public view returns (bool) {... */\n      tag_15\n        /* \"#utility.yul\":1065:1252   */\n      jump\n        /* \"HeirsAdministration.sol\":4392:4521  function hasRejectedInheritances() public view returns (bool) {... */\n    tag_7:\n        /* \"HeirsAdministration.sol\":4492:4502  msg.sender */\n      caller\n        /* \"HeirsAdministration.sol\":4448:4452  bool */\n      0x00\n        /* \"HeirsAdministration.sol\":4471:4503  rejectedInheritances[msg.sender] */\n      swap1\n      dup2\n      mstore\n        /* \"HeirsAdministration.sol\":4471:4491  rejectedInheritances */\n      0x01\n        /* \"HeirsAdministration.sol\":4471:4503  rejectedInheritances[msg.sender] */\n      0x20\n      mstore\n      0x40\n      swap1\n      keccak256\n        /* \"HeirsAdministration.sol\":4471:4510  rejectedInheritances[msg.sender].length */\n      sload\n        /* \"HeirsAdministration.sol\":4471:4514  rejectedInheritances[msg.sender].length > 0 */\n      iszero\n      iszero\n        /* \"HeirsAdministration.sol\":4392:4521  function hasRejectedInheritances() public view returns (bool) {... */\n      jump(tag_24)\n        /* \"HeirsAdministration.sol\":3987:4117  function getApprovedInheritances() public view returns (address[] memory) {... */\n    tag_8:\n      tag_13\n      tag_32\n      jump\t// in\n        /* \"HeirsAdministration.sol\":4123:4253  function getRejectedInheritances() public view returns (address[] memory) {... */\n    tag_9:\n      tag_13\n      tag_35\n      jump\t// in\n        /* \"HeirsAdministration.sol\":4527:4656  function hasApprovedInheritances() public view returns (bool) {... */\n    tag_10:\n        /* \"HeirsAdministration.sol\":4627:4637  msg.sender */\n      caller\n        /* \"HeirsAdministration.sol\":4583:4587  bool */\n      0x00\n        /* \"HeirsAdministration.sol\":4606:4638  approvedInheritances[msg.sender] */\n      swap1\n      dup2\n      mstore\n        /* \"HeirsAdministration.sol\":4606:4626  approvedInheritances */\n      0x02\n        /* \"HeirsAdministration.sol\":4606:4638  approvedInheritances[msg.sender] */\n      0x20\n      mstore\n      0x40\n      swap1\n      keccak256\n        /* \"HeirsAdministration.sol\":4606:4645  approvedInheritances[msg.sender].length */\n      sload\n        /* \"HeirsAdministration.sol\":4606:4649  approvedInheritances[msg.sender].length > 0 */\n      iszero\n      iszero\n        /* \"HeirsAdministration.sol\":4527:4656  function hasApprovedInheritances() public view returns (bool) {... */\n      jump(tag_24)\n        /* \"HeirsAdministration.sol\":2572:3827  function updatePendingInheritances() public {... */\n    tag_11:\n      tag_17\n      tag_41\n      jump\t// in\n        /* \"HeirsAdministration.sol\":3853:3981  function getPendingInheritances() public view returns (address[] memory) {... */\n    tag_14:\n        /* \"HeirsAdministration.sol\":3963:3973  msg.sender */\n      caller\n        /* \"HeirsAdministration.sol\":3943:3962  pendingInheritances */\n      0x00\n        /* \"HeirsAdministration.sol\":3943:3974  pendingInheritances[msg.sender] */\n      swap1\n      dup2\n      mstore\n      0x20\n      dup2\n      dup2\n      mstore\n      0x40\n      swap2\n      dup3\n      swap1\n      keccak256\n        /* \"HeirsAdministration.sol\":3936:3974  return pendingInheritances[msg.sender] */\n      dup1\n      sload\n      dup4\n      mload\n      dup2\n      dup5\n      mul\n      dup2\n      add\n      dup5\n      add\n      swap1\n      swap5\n      mstore\n      dup1\n      dup5\n      mstore\n        /* \"HeirsAdministration.sol\":3908:3924  address[] memory */\n      0x60\n      swap4\n        /* \"HeirsAdministration.sol\":3936:3974  return pendingInheritances[msg.sender] */\n      swap3\n      dup4\n      add\n        /* \"HeirsAdministration.sol\":3943:3974  pendingInheritances[msg.sender] */\n      dup3\n        /* \"HeirsAdministration.sol\":3936:3974  return pendingInheritances[msg.sender] */\n      dup3\n      dup1\n      iszero\n      tag_43\n      jumpi\n      0x20\n      mul\n      dup3\n      add\n      swap2\n      swap1\n      0x00\n      mstore\n      keccak256(0x00, 0x20)\n      swap1\n    tag_44:\n      dup2\n      sload\n      sub(shl(0xa0, 0x01), 0x01)\n      and\n      dup2\n      mstore\n      0x01\n      swap1\n      swap2\n      add\n      swap1\n      0x20\n      add\n      dup1\n      dup4\n      gt\n      tag_44\n      jumpi\n    tag_43:\n      pop\n      pop\n      pop\n      pop\n      pop\n      swap1\n      pop\n        /* \"HeirsAdministration.sol\":3853:3981  function getPendingInheritances() public view returns (address[] memory) {... */\n      swap1\n      jump\t// out\n        /* \"HeirsAdministration.sol\":1002:1781  function removePendingInheritanceToRejected(address _inheritance) public {... */\n    tag_20:\n        /* \"HeirsAdministration.sol\":1085:1103  uint indexToRemove */\n      0x00\n      dup1\n      dup1\n        /* \"HeirsAdministration.sol\":1142:1391  for (uint i = 0; i < pendingInheritances[msg.sender].length; i++) {... */\n    tag_46:\n        /* \"HeirsAdministration.sol\":1183:1193  msg.sender */\n      caller\n        /* \"HeirsAdministration.sol\":1163:1182  pendingInheritances */\n      0x00\n        /* \"HeirsAdministration.sol\":1163:1194  pendingInheritances[msg.sender] */\n      swap1\n      dup2\n      mstore\n      0x20\n      dup2\n      swap1\n      mstore\n      0x40\n      swap1\n      keccak256\n        /* \"HeirsAdministration.sol\":1163:1201  pendingInheritances[msg.sender].length */\n      sload\n        /* \"HeirsAdministration.sol\":1159:1201  i < pendingInheritances[msg.sender].length */\n      dup2\n      lt\n        /* \"HeirsAdministration.sol\":1142:1391  for (uint i = 0; i < pendingInheritances[msg.sender].length; i++) {... */\n      iszero\n      tag_47\n      jumpi\n        /* \"HeirsAdministration.sol\":1246:1256  msg.sender */\n      caller\n        /* \"HeirsAdministration.sol\":1226:1245  pendingInheritances */\n      0x00\n        /* \"HeirsAdministration.sol\":1226:1257  pendingInheritances[msg.sender] */\n      swap1\n      dup2\n      mstore\n      0x20\n      dup2\n      swap1\n      mstore\n      0x40\n      swap1\n      keccak256\n        /* \"HeirsAdministration.sol\":1226:1260  pendingInheritances[msg.sender][i] */\n      dup1\n      sload\n      sub(shl(0xa0, 0x01), 0x01)\n        /* \"HeirsAdministration.sol\":1226:1276  pendingInheritances[msg.sender][i] == _inheritance */\n      dup7\n      and\n      swap2\n        /* \"HeirsAdministration.sol\":1226:1257  pendingInheritances[msg.sender] */\n      swap1\n        /* \"HeirsAdministration.sol\":1258:1259  i */\n      dup4\n      swap1\n        /* \"HeirsAdministration.sol\":1226:1260  pendingInheritances[msg.sender][i] */\n      dup2\n      lt\n      tag_50\n      jumpi\n      tag_50\n      tag_51\n      jump\t// in\n    tag_50:\n      0x00\n      swap2\n      dup3\n      mstore\n      0x20\n      swap1\n      swap2\n      keccak256\n      add\n      sload\n      sub(shl(0xa0, 0x01), 0x01)\n      and\n        /* \"HeirsAdministration.sol\":1226:1276  pendingInheritances[msg.sender][i] == _inheritance */\n      sub\n        /* \"HeirsAdministration.sol\":1222:1381  if (pendingInheritances[msg.sender][i] == _inheritance) {... */\n      tag_53\n      jumpi\n        /* \"HeirsAdministration.sol\":1312:1313  i */\n      dup1\n        /* \"HeirsAdministration.sol\":1296:1313  indexToRemove = i */\n      swap3\n      pop\n        /* \"HeirsAdministration.sol\":1339:1343  true */\n      0x01\n        /* \"HeirsAdministration.sol\":1331:1343  found = true */\n      swap2\n      pop\n        /* \"HeirsAdministration.sol\":1361:1366  break */\n      jump(tag_47)\n        /* \"HeirsAdministration.sol\":1222:1381  if (pendingInheritances[msg.sender][i] == _inheritance) {... */\n    tag_53:\n        /* \"HeirsAdministration.sol\":1203:1206  i++ */\n      dup1\n      tag_54\n      dup2\n      tag_55\n      jump\t// in\n    tag_54:\n      swap2\n      pop\n      pop\n        /* \"HeirsAdministration.sol\":1142:1391  for (uint i = 0; i < pendingInheritances[msg.sender].length; i++) {... */\n      jump(tag_46)\n    tag_47:\n      pop\n        /* \"HeirsAdministration.sol\":1409:1414  found */\n      dup1\n        /* \"HeirsAdministration.sol\":1401:1456  require(found, \"Inheritance not found in pending list\") */\n      tag_56\n      jumpi\n      mload(0x40)\n      shl(0xe5, 0x461bcd)\n      dup2\n      mstore\n      0x04\n      add\n      tag_57\n      swap1\n      tag_58\n      jump\t// in\n    tag_57:\n      mload(0x40)\n      dup1\n      swap2\n      sub\n      swap1\n      revert\n    tag_56:\n        /* \"HeirsAdministration.sol\":1488:1498  msg.sender */\n      caller\n        /* \"HeirsAdministration.sol\":1467:1499  rejectedInheritances[msg.sender] */\n      0x00\n      dup2\n      dup2\n      mstore\n        /* \"HeirsAdministration.sol\":1467:1487  rejectedInheritances */\n      0x01\n        /* \"HeirsAdministration.sol\":1467:1499  rejectedInheritances[msg.sender] */\n      0x20\n      dup2\n      dup2\n      mstore\n      0x40\n      dup1\n      dup5\n      keccak256\n        /* \"HeirsAdministration.sol\":1467:1518  rejectedInheritances[msg.sender].push(_inheritance) */\n      dup1\n      sload\n      dup1\n      dup6\n      add\n      dup3\n      sstore\n      swap1\n      dup6\n      mstore\n      dup3\n      dup6\n      keccak256\n      add\n      dup1\n      sload\n      not(sub(shl(0xa0, 0x01), 0x01))\n      and\n      sub(shl(0xa0, 0x01), 0x01)\n      dup11\n      and\n      or\n      swap1\n      sstore\n        /* \"HeirsAdministration.sol\":1578:1609  pendingInheritances[msg.sender] */\n      swap4\n      dup4\n      mstore\n      dup3\n      swap1\n      mstore\n      swap2\n      swap1\n      keccak256\n        /* \"HeirsAdministration.sol\":1610:1648  pendingInheritances[msg.sender].length */\n      dup1\n      sload\n        /* \"HeirsAdministration.sol\":1578:1609  pendingInheritances[msg.sender] */\n      swap1\n      swap2\n        /* \"HeirsAdministration.sol\":1610:1652  pendingInheritances[msg.sender].length - 1 */\n      tag_60\n      swap2\n      tag_61\n      jump\t// in\n    tag_60:\n        /* \"HeirsAdministration.sol\":1578:1653  pendingInheritances[msg.sender][pendingInheritances[msg.sender].length - 1] */\n      dup2\n      sload\n      dup2\n      lt\n      tag_63\n      jumpi\n      tag_63\n      tag_51\n      jump\t// in\n    tag_63:\n      0x00\n      swap2\n      dup3\n      mstore\n      0x20\n      dup1\n      dup4\n      keccak256\n      swap1\n      swap2\n      add\n      sload\n        /* \"HeirsAdministration.sol\":1549:1559  msg.sender */\n      caller\n        /* \"HeirsAdministration.sol\":1529:1560  pendingInheritances[msg.sender] */\n      dup4\n      mstore\n      swap1\n      dup3\n      swap1\n      mstore\n      0x40\n      swap1\n      swap2\n      keccak256\n        /* \"HeirsAdministration.sol\":1529:1575  pendingInheritances[msg.sender][indexToRemove] */\n      dup1\n      sload\n      sub(shl(0xa0, 0x01), 0x01)\n        /* \"HeirsAdministration.sol\":1578:1653  pendingInheritances[msg.sender][pendingInheritances[msg.sender].length - 1] */\n      swap1\n      swap3\n      and\n      swap2\n        /* \"HeirsAdministration.sol\":1561:1574  indexToRemove */\n      dup5\n      swap1\n        /* \"HeirsAdministration.sol\":1529:1575  pendingInheritances[msg.sender][indexToRemove] */\n      dup2\n      lt\n      tag_66\n      jumpi\n      tag_66\n      tag_51\n      jump\t// in\n    tag_66:\n      0x00\n      swap2\n      dup3\n      mstore\n      0x20\n      dup1\n      dup4\n      keccak256\n      swap2\n      swap1\n      swap2\n      add\n        /* \"HeirsAdministration.sol\":1529:1653  pendingInheritances[msg.sender][indexToRemove] = pendingInheritances[msg.sender][pendingInheritances[msg.sender].length - 1] */\n      dup1\n      sload\n      not(sub(shl(0xa0, 0x01), 0x01))\n      and\n      sub(shl(0xa0, 0x01), 0x01)\n      swap5\n      swap1\n      swap5\n      and\n      swap4\n      swap1\n      swap4\n      or\n      swap1\n      swap3\n      sstore\n        /* \"HeirsAdministration.sol\":1683:1693  msg.sender */\n      caller\n        /* \"HeirsAdministration.sol\":1663:1694  pendingInheritances[msg.sender] */\n      dup2\n      mstore\n      swap1\n      dup2\n      swap1\n      mstore\n      0x40\n      swap1\n      keccak256\n        /* \"HeirsAdministration.sol\":1663:1700  pendingInheritances[msg.sender].pop() */\n      dup1\n      sload\n      dup1\n      tag_69\n      jumpi\n      tag_69\n      tag_70\n      jump\t// in\n    tag_69:\n      0x00\n      dup3\n      dup2\n      mstore\n      0x20\n      dup1\n      dup3\n      keccak256\n      not(0x00)\n      swap1\n      dup5\n      add\n      dup2\n      add\n      dup1\n      sload\n      not(sub(shl(0xa0, 0x01), 0x01))\n      and\n      swap1\n      sstore\n      swap1\n      swap3\n      add\n      swap1\n      swap3\n      sstore\n        /* \"HeirsAdministration.sol\":1716:1774  PendingInheritanceRemoved(msg.sender, _inheritance, false) */\n      mload(0x40)\n        /* \"#utility.yul\":1205:1246   */\n      swap2\n      dup3\n      mstore\n      sub(shl(0xa0, 0x01), 0x01)\n        /* \"HeirsAdministration.sol\":1716:1774  PendingInheritanceRemoved(msg.sender, _inheritance, false) */\n      dup6\n      and\n      swap2\n        /* \"HeirsAdministration.sol\":1742:1752  msg.sender */\n      caller\n      swap2\n        /* \"HeirsAdministration.sol\":1716:1774  PendingInheritanceRemoved(msg.sender, _inheritance, false) */\n      0x6079c7acd0668f1b20f3a9c943344041c6009bb0e68fae580c2d5f962ce42be4\n      swap2\n        /* \"#utility.yul\":1178:1196   */\n      add\n        /* \"HeirsAdministration.sol\":1716:1774  PendingInheritanceRemoved(msg.sender, _inheritance, false) */\n    tag_72:\n      mload(0x40)\n      dup1\n      swap2\n      sub\n      swap1\n      log3\n        /* \"HeirsAdministration.sol\":1075:1781  {... */\n      pop\n      pop\n        /* \"HeirsAdministration.sol\":1002:1781  function removePendingInheritanceToRejected(address _inheritance) public {... */\n      pop\n      jump\t// out\n        /* \"HeirsAdministration.sol\":598:996  function addPendingInheritance(address _inheritance) public {... */\n    tag_23:\n        /* \"HeirsAdministration.sol\":709:719  msg.sender */\n      caller\n        /* \"HeirsAdministration.sol\":689:708  pendingInheritances */\n      0x00\n        /* \"HeirsAdministration.sol\":689:720  pendingInheritances[msg.sender] */\n      swap1\n      dup2\n      mstore\n      0x20\n      dup2\n      swap1\n      mstore\n      0x40\n      swap1\n      keccak256\n        /* \"HeirsAdministration.sol\":689:727  pendingInheritances[msg.sender].length */\n      sload\n        /* \"HeirsAdministration.sol\":730:731  3 */\n      0x03\n      gt\n        /* \"HeirsAdministration.sol\":668:798  require(... */\n      tag_74\n      jumpi\n      mload(0x40)\n      shl(0xe5, 0x461bcd)\n      dup2\n      mstore\n        /* \"#utility.yul\":2534:2536   */\n      0x20\n        /* \"HeirsAdministration.sol\":668:798  require(... */\n      0x04\n      dup3\n      add\n        /* \"#utility.yul\":2516:2537   */\n      mstore\n        /* \"#utility.yul\":2573:2575   */\n      0x29\n        /* \"#utility.yul\":2553:2571   */\n      0x24\n      dup3\n      add\n        /* \"#utility.yul\":2546:2576   */\n      mstore\n        /* \"#utility.yul\":2612:2646   */\n      0x596f752063616e206f6e6c79207265717565737420757020746f203320696e68\n        /* \"#utility.yul\":2592:2610   */\n      0x44\n      dup3\n      add\n        /* \"#utility.yul\":2585:2647   */\n      mstore\n      shl(0xb8, 0x65726974616e636573)\n        /* \"#utility.yul\":2663:2681   */\n      0x64\n      dup3\n      add\n        /* \"#utility.yul\":2656:2695   */\n      mstore\n        /* \"#utility.yul\":2712:2731   */\n      0x84\n      add\n        /* \"HeirsAdministration.sol\":668:798  require(... */\n      tag_57\n        /* \"#utility.yul\":2332:2737   */\n      jump\n        /* \"HeirsAdministration.sol\":668:798  require(... */\n    tag_74:\n        /* \"HeirsAdministration.sol\":878:928  inheritanceContract.requestInheritance(msg.sender) */\n      mload(0x40)\n      shl(0xe0, 0x66416dd3)\n      dup2\n      mstore\n        /* \"HeirsAdministration.sol\":917:927  msg.sender */\n      caller\n        /* \"HeirsAdministration.sol\":878:928  inheritanceContract.requestInheritance(msg.sender) */\n      0x04\n      dup3\n      add\n        /* \"#utility.yul\":2888:2939   */\n      mstore\n        /* \"HeirsAdministration.sol\":855:867  _inheritance */\n      dup2\n      swap1\n      sub(shl(0xa0, 0x01), 0x01)\n        /* \"HeirsAdministration.sol\":878:916  inheritanceContract.requestInheritance */\n      dup3\n      and\n      swap1\n      0x66416dd3\n      swap1\n        /* \"#utility.yul\":2861:2879   */\n      0x24\n      add\n        /* \"HeirsAdministration.sol\":878:928  inheritanceContract.requestInheritance(msg.sender) */\n      0x00\n      mload(0x40)\n      dup1\n      dup4\n      sub\n      dup2\n      0x00\n      dup8\n      dup1\n      extcodesize\n      iszero\n      dup1\n      iszero\n      tag_79\n      jumpi\n      0x00\n      dup1\n      revert\n    tag_79:\n      pop\n      gas\n      call\n      iszero\n      dup1\n      iszero\n      tag_81\n      jumpi\n      returndatasize\n      0x00\n      dup1\n      returndatacopy\n      revert(0x00, returndatasize)\n    tag_81:\n      pop\n      pop\n        /* \"HeirsAdministration.sol\":959:969  msg.sender */\n      caller\n        /* \"HeirsAdministration.sol\":939:958  pendingInheritances */\n      0x00\n        /* \"HeirsAdministration.sol\":939:970  pendingInheritances[msg.sender] */\n      swap1\n      dup2\n      mstore\n      0x20\n      dup2\n      dup2\n      mstore\n      0x40\n      dup3\n      keccak256\n        /* \"HeirsAdministration.sol\":939:989  pendingInheritances[msg.sender].push(_inheritance) */\n      dup1\n      sload\n      0x01\n      dup2\n      add\n      dup3\n      sstore\n      swap1\n      dup4\n      mstore\n      swap2\n      keccak256\n      add\n      dup1\n      sload\n      not(sub(shl(0xa0, 0x01), 0x01))\n      and\n      sub(shl(0xa0, 0x01), 0x01)\n      swap6\n      swap1\n      swap6\n      and\n      swap5\n      swap1\n      swap5\n      or\n      swap1\n      swap4\n      sstore\n      pop\n      pop\n      pop\n        /* \"HeirsAdministration.sol\":598:996  function addPendingInheritance(address _inheritance) public {... */\n      jump\t// out\n        /* \"HeirsAdministration.sol\":3987:4117  function getApprovedInheritances() public view returns (address[] memory) {... */\n    tag_32:\n        /* \"HeirsAdministration.sol\":4099:4109  msg.sender */\n      caller\n        /* \"HeirsAdministration.sol\":4078:4110  approvedInheritances[msg.sender] */\n      0x00\n      swap1\n      dup2\n      mstore\n        /* \"HeirsAdministration.sol\":4078:4098  approvedInheritances */\n      0x02\n        /* \"HeirsAdministration.sol\":4078:4110  approvedInheritances[msg.sender] */\n      0x20\n      swap1\n      dup2\n      mstore\n      0x40\n      swap2\n      dup3\n      swap1\n      keccak256\n        /* \"HeirsAdministration.sol\":4071:4110  return approvedInheritances[msg.sender] */\n      dup1\n      sload\n      dup4\n      mload\n      dup2\n      dup5\n      mul\n      dup2\n      add\n      dup5\n      add\n      swap1\n      swap5\n      mstore\n      dup1\n      dup5\n      mstore\n        /* \"HeirsAdministration.sol\":4043:4059  address[] memory */\n      0x60\n      swap4\n        /* \"HeirsAdministration.sol\":4071:4110  return approvedInheritances[msg.sender] */\n      swap3\n      dup4\n      add\n        /* \"HeirsAdministration.sol\":4078:4110  approvedInheritances[msg.sender] */\n      dup3\n        /* \"HeirsAdministration.sol\":4071:4110  return approvedInheritances[msg.sender] */\n      dup3\n      dup1\n      iszero\n      tag_43\n      jumpi\n      0x20\n      mul\n      dup3\n      add\n      swap2\n      swap1\n      0x00\n      mstore\n      keccak256(0x00, 0x20)\n      swap1\n      dup2\n      sload\n      sub(shl(0xa0, 0x01), 0x01)\n      and\n      dup2\n      mstore\n      0x01\n      swap1\n      swap2\n      add\n      swap1\n      0x20\n      add\n      dup1\n      dup4\n      gt\n      tag_44\n      jumpi\n      pop\n      pop\n      pop\n      pop\n      pop\n      swap1\n      pop\n        /* \"HeirsAdministration.sol\":3987:4117  function getApprovedInheritances() public view returns (address[] memory) {... */\n      swap1\n      jump\t// out\n        /* \"HeirsAdministration.sol\":4123:4253  function getRejectedInheritances() public view returns (address[] memory) {... */\n    tag_35:\n        /* \"HeirsAdministration.sol\":4235:4245  msg.sender */\n      caller\n        /* \"HeirsAdministration.sol\":4214:4246  rejectedInheritances[msg.sender] */\n      0x00\n      swap1\n      dup2\n      mstore\n        /* \"HeirsAdministration.sol\":4214:4234  rejectedInheritances */\n      0x01\n        /* \"HeirsAdministration.sol\":4214:4246  rejectedInheritances[msg.sender] */\n      0x20\n      swap1\n      dup2\n      mstore\n      0x40\n      swap2\n      dup3\n      swap1\n      keccak256\n        /* \"HeirsAdministration.sol\":4207:4246  return rejectedInheritances[msg.sender] */\n      dup1\n      sload\n      dup4\n      mload\n      dup2\n      dup5\n      mul\n      dup2\n      add\n      dup5\n      add\n      swap1\n      swap5\n      mstore\n      dup1\n      dup5\n      mstore\n        /* \"HeirsAdministration.sol\":4179:4195  address[] memory */\n      0x60\n      swap4\n        /* \"HeirsAdministration.sol\":4207:4246  return rejectedInheritances[msg.sender] */\n      swap3\n      dup4\n      add\n        /* \"HeirsAdministration.sol\":4214:4246  rejectedInheritances[msg.sender] */\n      dup3\n        /* \"HeirsAdministration.sol\":4207:4246  return rejectedInheritances[msg.sender] */\n      dup3\n      dup1\n      iszero\n      tag_43\n      jumpi\n      0x20\n      mul\n      dup3\n      add\n      swap2\n      swap1\n      0x00\n      mstore\n      keccak256(0x00, 0x20)\n      swap1\n      dup2\n      sload\n      sub(shl(0xa0, 0x01), 0x01)\n      and\n      dup2\n      mstore\n      0x01\n      swap1\n      swap2\n      add\n      swap1\n      0x20\n      add\n      dup1\n      dup4\n      gt\n      tag_44\n      jumpi\n      pop\n      pop\n      pop\n      pop\n      pop\n      swap1\n      pop\n        /* \"HeirsAdministration.sol\":4123:4253  function getRejectedInheritances() public view returns (address[] memory) {... */\n      swap1\n      jump\t// out\n        /* \"HeirsAdministration.sol\":2572:3827  function updatePendingInheritances() public {... */\n    tag_41:\n        /* \"HeirsAdministration.sol\":2631:2637  uint i */\n      0x00\n        /* \"HeirsAdministration.sol\":2626:3821  for (uint i = 0; i < pendingInheritances[msg.sender].length; i++) {... */\n    tag_93:\n        /* \"HeirsAdministration.sol\":2667:2677  msg.sender */\n      caller\n        /* \"HeirsAdministration.sol\":2647:2666  pendingInheritances */\n      0x00\n        /* \"HeirsAdministration.sol\":2647:2678  pendingInheritances[msg.sender] */\n      swap1\n      dup2\n      mstore\n      0x20\n      dup2\n      swap1\n      mstore\n      0x40\n      swap1\n      keccak256\n        /* \"HeirsAdministration.sol\":2647:2685  pendingInheritances[msg.sender].length */\n      sload\n        /* \"HeirsAdministration.sol\":2643:2685  i < pendingInheritances[msg.sender].length */\n      dup2\n      lt\n        /* \"HeirsAdministration.sol\":2626:3821  for (uint i = 0; i < pendingInheritances[msg.sender].length; i++) {... */\n      iszero\n      tag_94\n      jumpi\n        /* \"HeirsAdministration.sol\":2755:2765  msg.sender */\n      caller\n        /* \"HeirsAdministration.sol\":2706:2732  address inheritanceAddress */\n      0x00\n        /* \"HeirsAdministration.sol\":2735:2766  pendingInheritances[msg.sender] */\n      swap1\n      dup2\n      mstore\n      0x20\n      dup2\n      swap1\n      mstore\n      0x40\n      dup2\n      keccak256\n        /* \"HeirsAdministration.sol\":2735:2769  pendingInheritances[msg.sender][i] */\n      dup1\n      sload\n        /* \"HeirsAdministration.sol\":2767:2768  i */\n      dup4\n      swap1\n        /* \"HeirsAdministration.sol\":2735:2769  pendingInheritances[msg.sender][i] */\n      dup2\n      lt\n      tag_97\n      jumpi\n      tag_97\n      tag_51\n      jump\t// in\n    tag_97:\n      0x00\n      swap2\n      dup3\n      mstore\n      0x20\n      dup3\n      keccak256\n      add\n      sload\n        /* \"HeirsAdministration.sol\":2891:2952  inheritanceContract... */\n      0x40\n      dup1\n      mload\n      shl(0xe3, 0xc958af)\n      dup2\n      mstore\n      swap1\n      mload\n      sub(shl(0xa0, 0x01), 0x01)\n        /* \"HeirsAdministration.sol\":2735:2769  pendingInheritances[msg.sender][i] */\n      swap1\n      swap3\n      and\n      swap4\n      pop\n      dup4\n      swap3\n      swap2\n      dup4\n      swap2\n        /* \"HeirsAdministration.sol\":2891:2950  inheritanceContract... */\n      0x064ac578\n      swap2\n        /* \"HeirsAdministration.sol\":2891:2952  inheritanceContract... */\n      0x04\n      dup1\n      dup4\n      add\n      swap3\n        /* \"HeirsAdministration.sol\":2735:2769  pendingInheritances[msg.sender][i] */\n      dup7\n      swap3\n        /* \"HeirsAdministration.sol\":2891:2952  inheritanceContract... */\n      swap2\n      swap1\n      dup3\n      swap1\n      sub\n      add\n      dup2\n        /* \"HeirsAdministration.sol\":2735:2769  pendingInheritances[msg.sender][i] */\n      dup7\n        /* \"HeirsAdministration.sol\":2891:2952  inheritanceContract... */\n      gas\n      staticcall\n      iszero\n      dup1\n      iszero\n      tag_100\n      jumpi\n      returndatasize\n      0x00\n      dup1\n      returndatacopy\n      revert(0x00, returndatasize)\n    tag_100:\n      pop\n      pop\n      pop\n      pop\n      mload(0x40)\n      returndatasize\n      0x00\n      dup3\n      returndatacopy\n      0x1f\n      returndatasize\n      swap1\n      dup2\n      add\n      not(0x1f)\n      and\n      dup3\n      add\n      0x40\n      mstore\n      tag_101\n      swap2\n      swap1\n      dup2\n      add\n      swap1\n      tag_102\n      jump\t// in\n    tag_101:\n        /* \"HeirsAdministration.sol\":2863:2952  address[] memory requests = inheritanceContract... */\n      swap1\n      pop\n        /* \"HeirsAdministration.sol\":2967:2987  bool foundInRequests */\n      0x00\n        /* \"HeirsAdministration.sol\":3014:3020  uint j */\n      dup1\n        /* \"HeirsAdministration.sol\":3009:3205  for (uint j = 0; j < requests.length; j++) {... */\n    tag_103:\n        /* \"HeirsAdministration.sol\":3030:3038  requests */\n      dup3\n        /* \"HeirsAdministration.sol\":3030:3045  requests.length */\n      mload\n        /* \"HeirsAdministration.sol\":3026:3027  j */\n      dup2\n        /* \"HeirsAdministration.sol\":3026:3045  j < requests.length */\n      lt\n        /* \"HeirsAdministration.sol\":3009:3205  for (uint j = 0; j < requests.length; j++) {... */\n      iszero\n      tag_104\n      jumpi\n        /* \"HeirsAdministration.sol\":3089:3099  msg.sender */\n      caller\n      sub(shl(0xa0, 0x01), 0x01)\n        /* \"HeirsAdministration.sol\":3074:3099  requests[j] == msg.sender */\n      and\n        /* \"HeirsAdministration.sol\":3074:3082  requests */\n      dup4\n        /* \"HeirsAdministration.sol\":3083:3084  j */\n      dup3\n        /* \"HeirsAdministration.sol\":3074:3085  requests[j] */\n      dup2\n      mload\n      dup2\n      lt\n      tag_107\n      jumpi\n      tag_107\n      tag_51\n      jump\t// in\n    tag_107:\n      0x20\n      mul\n      0x20\n      add\n      add\n      mload\n      sub(shl(0xa0, 0x01), 0x01)\n        /* \"HeirsAdministration.sol\":3074:3099  requests[j] == msg.sender */\n      and\n      sub\n        /* \"HeirsAdministration.sol\":3070:3191  if (requests[j] == msg.sender) {... */\n      tag_108\n      jumpi\n        /* \"HeirsAdministration.sol\":3141:3145  true */\n      0x01\n        /* \"HeirsAdministration.sol\":3123:3145  foundInRequests = true */\n      swap2\n      pop\n        /* \"HeirsAdministration.sol\":3167:3172  break */\n      jump(tag_104)\n        /* \"HeirsAdministration.sol\":3070:3191  if (requests[j] == msg.sender) {... */\n    tag_108:\n        /* \"HeirsAdministration.sol\":3047:3050  j++ */\n      dup1\n      tag_109\n      dup2\n      tag_55\n      jump\t// in\n    tag_109:\n      swap2\n      pop\n      pop\n        /* \"HeirsAdministration.sol\":3009:3205  for (uint j = 0; j < requests.length; j++) {... */\n      jump(tag_103)\n    tag_104:\n      pop\n        /* \"HeirsAdministration.sol\":3223:3238  foundInRequests */\n      dup1\n        /* \"HeirsAdministration.sol\":3219:3281  if (foundInRequests) {... */\n      iszero\n      tag_110\n      jumpi\n        /* \"HeirsAdministration.sol\":3258:3266  continue */\n      pop\n      pop\n      pop\n      pop\n      jump(tag_95)\n        /* \"HeirsAdministration.sol\":3219:3281  if (foundInRequests) {... */\n    tag_110:\n        /* \"HeirsAdministration.sol\":3295:3317  address[] memory heirs */\n      0x00\n        /* \"HeirsAdministration.sol\":3320:3339  inheritanceContract */\n      dup4\n      sub(shl(0xa0, 0x01), 0x01)\n        /* \"HeirsAdministration.sol\":3320:3357  inheritanceContract.getHeirsAddresses */\n      and\n      0xffc15b7c\n        /* \"HeirsAdministration.sol\":3320:3359  inheritanceContract.getHeirsAddresses() */\n      mload(0x40)\n      dup2\n      0xffffffff\n      and\n      0xe0\n      shl\n      dup2\n      mstore\n      0x04\n      add\n      0x00\n      mload(0x40)\n      dup1\n      dup4\n      sub\n      dup2\n      dup7\n      gas\n      staticcall\n      iszero\n      dup1\n      iszero\n      tag_112\n      jumpi\n      returndatasize\n      0x00\n      dup1\n      returndatacopy\n      revert(0x00, returndatasize)\n    tag_112:\n      pop\n      pop\n      pop\n      pop\n      mload(0x40)\n      returndatasize\n      0x00\n      dup3\n      returndatacopy\n      0x1f\n      returndatasize\n      swap1\n      dup2\n      add\n      not(0x1f)\n      and\n      dup3\n      add\n      0x40\n      mstore\n      tag_113\n      swap2\n      swap1\n      dup2\n      add\n      swap1\n      tag_102\n      jump\t// in\n    tag_113:\n        /* \"HeirsAdministration.sol\":3295:3359  address[] memory heirs = inheritanceContract.getHeirsAddresses() */\n      swap1\n      pop\n        /* \"HeirsAdministration.sol\":3373:3390  bool foundInHeirs */\n      0x00\n        /* \"HeirsAdministration.sol\":3417:3423  uint k */\n      dup1\n        /* \"HeirsAdministration.sol\":3412:3599  for (uint k = 0; k < heirs.length; k++) {... */\n    tag_114:\n        /* \"HeirsAdministration.sol\":3433:3438  heirs */\n      dup3\n        /* \"HeirsAdministration.sol\":3433:3445  heirs.length */\n      mload\n        /* \"HeirsAdministration.sol\":3429:3430  k */\n      dup2\n        /* \"HeirsAdministration.sol\":3429:3445  k < heirs.length */\n      lt\n        /* \"HeirsAdministration.sol\":3412:3599  for (uint k = 0; k < heirs.length; k++) {... */\n      iszero\n      tag_115\n      jumpi\n        /* \"HeirsAdministration.sol\":3486:3496  msg.sender */\n      caller\n      sub(shl(0xa0, 0x01), 0x01)\n        /* \"HeirsAdministration.sol\":3474:3496  heirs[k] == msg.sender */\n      and\n        /* \"HeirsAdministration.sol\":3474:3479  heirs */\n      dup4\n        /* \"HeirsAdministration.sol\":3480:3481  k */\n      dup3\n        /* \"HeirsAdministration.sol\":3474:3482  heirs[k] */\n      dup2\n      mload\n      dup2\n      lt\n      tag_118\n      jumpi\n      tag_118\n      tag_51\n      jump\t// in\n    tag_118:\n      0x20\n      mul\n      0x20\n      add\n      add\n      mload\n      sub(shl(0xa0, 0x01), 0x01)\n        /* \"HeirsAdministration.sol\":3474:3496  heirs[k] == msg.sender */\n      and\n      sub\n        /* \"HeirsAdministration.sol\":3470:3585  if (heirs[k] == msg.sender) {... */\n      tag_119\n      jumpi\n        /* \"HeirsAdministration.sol\":3535:3539  true */\n      0x01\n        /* \"HeirsAdministration.sol\":3520:3539  foundInHeirs = true */\n      swap2\n      pop\n        /* \"HeirsAdministration.sol\":3561:3566  break */\n      jump(tag_115)\n        /* \"HeirsAdministration.sol\":3470:3585  if (heirs[k] == msg.sender) {... */\n    tag_119:\n        /* \"HeirsAdministration.sol\":3447:3450  k++ */\n      dup1\n      tag_120\n      dup2\n      tag_55\n      jump\t// in\n    tag_120:\n      swap2\n      pop\n      pop\n        /* \"HeirsAdministration.sol\":3412:3599  for (uint k = 0; k < heirs.length; k++) {... */\n      jump(tag_114)\n    tag_115:\n      pop\n        /* \"HeirsAdministration.sol\":3617:3629  foundInHeirs */\n      dup1\n        /* \"HeirsAdministration.sol\":3613:3811  if (foundInHeirs) {... */\n      iszero\n      tag_121\n      jumpi\n        /* \"HeirsAdministration.sol\":3649:3703  removePendingInheritanceToApproved(inheritanceAddress) */\n      tag_122\n        /* \"HeirsAdministration.sol\":3684:3702  inheritanceAddress */\n      dup7\n        /* \"HeirsAdministration.sol\":3649:3683  removePendingInheritanceToApproved */\n      tag_123\n        /* \"HeirsAdministration.sol\":3649:3703  removePendingInheritanceToApproved(inheritanceAddress) */\n      jump\t// in\n    tag_122:\n        /* \"HeirsAdministration.sol\":3613:3811  if (foundInHeirs) {... */\n      jump(tag_125)\n    tag_121:\n        /* \"HeirsAdministration.sol\":3742:3796  removePendingInheritanceToRejected(inheritanceAddress) */\n      tag_125\n        /* \"HeirsAdministration.sol\":3777:3795  inheritanceAddress */\n      dup7\n        /* \"HeirsAdministration.sol\":3742:3776  removePendingInheritanceToRejected */\n      tag_20\n        /* \"HeirsAdministration.sol\":3742:3796  removePendingInheritanceToRejected(inheritanceAddress) */\n      jump\t// in\n    tag_125:\n        /* \"HeirsAdministration.sol\":2692:3821  {... */\n      pop\n      pop\n      pop\n      pop\n      pop\n      pop\n        /* \"HeirsAdministration.sol\":2626:3821  for (uint i = 0; i < pendingInheritances[msg.sender].length; i++) {... */\n    tag_95:\n        /* \"HeirsAdministration.sol\":2687:2690  i++ */\n      dup1\n      tag_126\n      dup2\n      tag_55\n      jump\t// in\n    tag_126:\n      swap2\n      pop\n      pop\n        /* \"HeirsAdministration.sol\":2626:3821  for (uint i = 0; i < pendingInheritances[msg.sender].length; i++) {... */\n      jump(tag_93)\n    tag_94:\n      pop\n        /* \"HeirsAdministration.sol\":2572:3827  function updatePendingInheritances() public {... */\n      jump\t// out\n        /* \"HeirsAdministration.sol\":1787:2566  function removePendingInheritanceToApproved(address _inheritance) private {... */\n    tag_123:\n        /* \"HeirsAdministration.sol\":1871:1889  uint indexToRemove */\n      0x00\n      dup1\n      dup1\n        /* \"HeirsAdministration.sol\":1928:2177  for (uint i = 0; i < pendingInheritances[msg.sender].length; i++) {... */\n    tag_128:\n        /* \"HeirsAdministration.sol\":1969:1979  msg.sender */\n      caller\n        /* \"HeirsAdministration.sol\":1949:1968  pendingInheritances */\n      0x00\n        /* \"HeirsAdministration.sol\":1949:1980  pendingInheritances[msg.sender] */\n      swap1\n      dup2\n      mstore\n      0x20\n      dup2\n      swap1\n      mstore\n      0x40\n      swap1\n      keccak256\n        /* \"HeirsAdministration.sol\":1949:1987  pendingInheritances[msg.sender].length */\n      sload\n        /* \"HeirsAdministration.sol\":1945:1987  i < pendingInheritances[msg.sender].length */\n      dup2\n      lt\n        /* \"HeirsAdministration.sol\":1928:2177  for (uint i = 0; i < pendingInheritances[msg.sender].length; i++) {... */\n      iszero\n      tag_129\n      jumpi\n        /* \"HeirsAdministration.sol\":2032:2042  msg.sender */\n      caller\n        /* \"HeirsAdministration.sol\":2012:2031  pendingInheritances */\n      0x00\n        /* \"HeirsAdministration.sol\":2012:2043  pendingInheritances[msg.sender] */\n      swap1\n      dup2\n      mstore\n      0x20\n      dup2\n      swap1\n      mstore\n      0x40\n      swap1\n      keccak256\n        /* \"HeirsAdministration.sol\":2012:2046  pendingInheritances[msg.sender][i] */\n      dup1\n      sload\n      sub(shl(0xa0, 0x01), 0x01)\n        /* \"HeirsAdministration.sol\":2012:2062  pendingInheritances[msg.sender][i] == _inheritance */\n      dup7\n      and\n      swap2\n        /* \"HeirsAdministration.sol\":2012:2043  pendingInheritances[msg.sender] */\n      swap1\n        /* \"HeirsAdministration.sol\":2044:2045  i */\n      dup4\n      swap1\n        /* \"HeirsAdministration.sol\":2012:2046  pendingInheritances[msg.sender][i] */\n      dup2\n      lt\n      tag_132\n      jumpi\n      tag_132\n      tag_51\n      jump\t// in\n    tag_132:\n      0x00\n      swap2\n      dup3\n      mstore\n      0x20\n      swap1\n      swap2\n      keccak256\n      add\n      sload\n      sub(shl(0xa0, 0x01), 0x01)\n      and\n        /* \"HeirsAdministration.sol\":2012:2062  pendingInheritances[msg.sender][i] == _inheritance */\n      sub\n        /* \"HeirsAdministration.sol\":2008:2167  if (pendingInheritances[msg.sender][i] == _inheritance) {... */\n      tag_134\n      jumpi\n        /* \"HeirsAdministration.sol\":2098:2099  i */\n      dup1\n        /* \"HeirsAdministration.sol\":2082:2099  indexToRemove = i */\n      swap3\n      pop\n        /* \"HeirsAdministration.sol\":2125:2129  true */\n      0x01\n        /* \"HeirsAdministration.sol\":2117:2129  found = true */\n      swap2\n      pop\n        /* \"HeirsAdministration.sol\":2147:2152  break */\n      jump(tag_129)\n        /* \"HeirsAdministration.sol\":2008:2167  if (pendingInheritances[msg.sender][i] == _inheritance) {... */\n    tag_134:\n        /* \"HeirsAdministration.sol\":1989:1992  i++ */\n      dup1\n      tag_135\n      dup2\n      tag_55\n      jump\t// in\n    tag_135:\n      swap2\n      pop\n      pop\n        /* \"HeirsAdministration.sol\":1928:2177  for (uint i = 0; i < pendingInheritances[msg.sender].length; i++) {... */\n      jump(tag_128)\n    tag_129:\n      pop\n        /* \"HeirsAdministration.sol\":2195:2200  found */\n      dup1\n        /* \"HeirsAdministration.sol\":2187:2242  require(found, \"Inheritance not found in pending list\") */\n      tag_136\n      jumpi\n      mload(0x40)\n      shl(0xe5, 0x461bcd)\n      dup2\n      mstore\n      0x04\n      add\n      tag_57\n      swap1\n      tag_58\n      jump\t// in\n    tag_136:\n        /* \"HeirsAdministration.sol\":2274:2284  msg.sender */\n      caller\n        /* \"HeirsAdministration.sol\":2253:2285  approvedInheritances[msg.sender] */\n      0x00\n      dup2\n      dup2\n      mstore\n        /* \"HeirsAdministration.sol\":2253:2273  approvedInheritances */\n      0x02\n        /* \"HeirsAdministration.sol\":2253:2285  approvedInheritances[msg.sender] */\n      0x20\n      swap1\n      dup2\n      mstore\n      0x40\n      dup1\n      dup4\n      keccak256\n        /* \"HeirsAdministration.sol\":2253:2304  approvedInheritances[msg.sender].push(_inheritance) */\n      dup1\n      sload\n      0x01\n      dup1\n      dup3\n      add\n      dup4\n      sstore\n      swap2\n      dup6\n      mstore\n      dup4\n      dup6\n      keccak256\n      add\n      dup1\n      sload\n      not(sub(shl(0xa0, 0x01), 0x01))\n      and\n      sub(shl(0xa0, 0x01), 0x01)\n      dup11\n      and\n      or\n      swap1\n      sstore\n        /* \"HeirsAdministration.sol\":2364:2395  pendingInheritances[msg.sender] */\n      swap4\n      dup4\n      mstore\n      swap1\n      dup3\n      swap1\n      mstore\n      swap1\n      keccak256\n        /* \"HeirsAdministration.sol\":2396:2434  pendingInheritances[msg.sender].length */\n      dup1\n      sload\n        /* \"HeirsAdministration.sol\":2364:2395  pendingInheritances[msg.sender] */\n      swap1\n      swap2\n        /* \"HeirsAdministration.sol\":2396:2438  pendingInheritances[msg.sender].length - 1 */\n      tag_139\n      swap2\n      tag_61\n      jump\t// in\n    tag_139:\n        /* \"HeirsAdministration.sol\":2364:2439  pendingInheritances[msg.sender][pendingInheritances[msg.sender].length - 1] */\n      dup2\n      sload\n      dup2\n      lt\n      tag_141\n      jumpi\n      tag_141\n      tag_51\n      jump\t// in\n    tag_141:\n      0x00\n      swap2\n      dup3\n      mstore\n      0x20\n      dup1\n      dup4\n      keccak256\n      swap1\n      swap2\n      add\n      sload\n        /* \"HeirsAdministration.sol\":2335:2345  msg.sender */\n      caller\n        /* \"HeirsAdministration.sol\":2315:2346  pendingInheritances[msg.sender] */\n      dup4\n      mstore\n      swap1\n      dup3\n      swap1\n      mstore\n      0x40\n      swap1\n      swap2\n      keccak256\n        /* \"HeirsAdministration.sol\":2315:2361  pendingInheritances[msg.sender][indexToRemove] */\n      dup1\n      sload\n      sub(shl(0xa0, 0x01), 0x01)\n        /* \"HeirsAdministration.sol\":2364:2439  pendingInheritances[msg.sender][pendingInheritances[msg.sender].length - 1] */\n      swap1\n      swap3\n      and\n      swap2\n        /* \"HeirsAdministration.sol\":2347:2360  indexToRemove */\n      dup5\n      swap1\n        /* \"HeirsAdministration.sol\":2315:2361  pendingInheritances[msg.sender][indexToRemove] */\n      dup2\n      lt\n      tag_144\n      jumpi\n      tag_144\n      tag_51\n      jump\t// in\n    tag_144:\n      0x00\n      swap2\n      dup3\n      mstore\n      0x20\n      dup1\n      dup4\n      keccak256\n      swap2\n      swap1\n      swap2\n      add\n        /* \"HeirsAdministration.sol\":2315:2439  pendingInheritances[msg.sender][indexToRemove] = pendingInheritances[msg.sender][pendingInheritances[msg.sender].length - 1] */\n      dup1\n      sload\n      not(sub(shl(0xa0, 0x01), 0x01))\n      and\n      sub(shl(0xa0, 0x01), 0x01)\n      swap5\n      swap1\n      swap5\n      and\n      swap4\n      swap1\n      swap4\n      or\n      swap1\n      swap3\n      sstore\n        /* \"HeirsAdministration.sol\":2469:2479  msg.sender */\n      caller\n        /* \"HeirsAdministration.sol\":2449:2480  pendingInheritances[msg.sender] */\n      dup2\n      mstore\n      swap1\n      dup2\n      swap1\n      mstore\n      0x40\n      swap1\n      keccak256\n        /* \"HeirsAdministration.sol\":2449:2486  pendingInheritances[msg.sender].pop() */\n      dup1\n      sload\n      dup1\n      tag_147\n      jumpi\n      tag_147\n      tag_70\n      jump\t// in\n    tag_147:\n      0x00\n      dup3\n      dup2\n      mstore\n      0x20\n      swap1\n      keccak256\n      dup2\n      add\n      not(0x00)\n      swap1\n      dup2\n      add\n      dup1\n      sload\n      not(sub(shl(0xa0, 0x01), 0x01))\n      and\n      swap1\n      sstore\n      add\n      swap1\n      sstore\n        /* \"HeirsAdministration.sol\":2502:2559  PendingInheritanceRemoved(msg.sender, _inheritance, true) */\n      mload(0x40)\n      sub(shl(0xa0, 0x01), 0x01)\n      dup5\n      and\n      swap1\n        /* \"HeirsAdministration.sol\":2528:2538  msg.sender */\n      caller\n      swap1\n        /* \"HeirsAdministration.sol\":2502:2559  PendingInheritanceRemoved(msg.sender, _inheritance, true) */\n      0x6079c7acd0668f1b20f3a9c943344041c6009bb0e68fae580c2d5f962ce42be4\n      swap1\n      tag_72\n      swap1\n        /* \"HeirsAdministration.sol\":2449:2486  pendingInheritances[msg.sender].pop() */\n      0x01\n        /* \"#utility.yul\":1230:1244   */\n      iszero\n        /* \"#utility.yul\":1223:1245   */\n      iszero\n        /* \"#utility.yul\":1205:1246   */\n      dup2\n      mstore\n        /* \"#utility.yul\":1193:1195   */\n      0x20\n        /* \"#utility.yul\":1178:1196   */\n      add\n      swap1\n        /* \"#utility.yul\":1065:1252   */\n      jump\n        /* \"#utility.yul\":14:672   */\n    tag_16:\n        /* \"#utility.yul\":185:187   */\n      0x20\n        /* \"#utility.yul\":237:258   */\n      dup1\n      dup3\n      mstore\n        /* \"#utility.yul\":307:320   */\n      dup3\n      mload\n        /* \"#utility.yul\":210:228   */\n      dup3\n      dup3\n      add\n        /* \"#utility.yul\":329:351   */\n      dup2\n      swap1\n      mstore\n        /* \"#utility.yul\":156:160   */\n      0x00\n      swap2\n        /* \"#utility.yul\":185:187   */\n      swap1\n        /* \"#utility.yul\":408:423   */\n      dup5\n      dup3\n      add\n      swap1\n        /* \"#utility.yul\":382:384   */\n      0x40\n        /* \"#utility.yul\":367:385   */\n      dup6\n      add\n      swap1\n        /* \"#utility.yul\":156:160   */\n      dup5\n        /* \"#utility.yul\":451:646   */\n    tag_156:\n        /* \"#utility.yul\":465:471   */\n      dup2\n        /* \"#utility.yul\":462:463   */\n      dup2\n        /* \"#utility.yul\":459:472   */\n      lt\n        /* \"#utility.yul\":451:646   */\n      iszero\n      tag_158\n      jumpi\n        /* \"#utility.yul\":530:543   */\n      dup4\n      mload\n      sub(shl(0xa0, 0x01), 0x01)\n        /* \"#utility.yul\":526:565   */\n      and\n        /* \"#utility.yul\":514:566   */\n      dup4\n      mstore\n        /* \"#utility.yul\":621:636   */\n      swap3\n      dup5\n      add\n      swap3\n        /* \"#utility.yul\":586:598   */\n      swap2\n      dup5\n      add\n      swap2\n        /* \"#utility.yul\":562:563   */\n      0x01\n        /* \"#utility.yul\":480:489   */\n      add\n        /* \"#utility.yul\":451:646   */\n      jump(tag_156)\n    tag_158:\n      pop\n        /* \"#utility.yul\":663:666   */\n      swap1\n      swap7\n        /* \"#utility.yul\":14:672   */\n      swap6\n      pop\n      pop\n      pop\n      pop\n      pop\n      pop\n      jump\t// out\n        /* \"#utility.yul\":677:808   */\n    tag_150:\n      sub(shl(0xa0, 0x01), 0x01)\n        /* \"#utility.yul\":752:783   */\n      dup2\n      and\n        /* \"#utility.yul\":742:784   */\n      dup2\n      eq\n        /* \"#utility.yul\":732:802   */\n      tag_94\n      jumpi\n        /* \"#utility.yul\":798:799   */\n      0x00\n        /* \"#utility.yul\":795:796   */\n      dup1\n        /* \"#utility.yul\":788:800   */\n      revert\n        /* \"#utility.yul\":813:1060   */\n    tag_19:\n        /* \"#utility.yul\":872:878   */\n      0x00\n        /* \"#utility.yul\":925:927   */\n      0x20\n        /* \"#utility.yul\":913:922   */\n      dup3\n        /* \"#utility.yul\":904:911   */\n      dup5\n        /* \"#utility.yul\":900:923   */\n      sub\n        /* \"#utility.yul\":896:928   */\n      slt\n        /* \"#utility.yul\":893:945   */\n      iszero\n      tag_162\n      jumpi\n        /* \"#utility.yul\":941:942   */\n      0x00\n        /* \"#utility.yul\":938:939   */\n      dup1\n        /* \"#utility.yul\":931:943   */\n      revert\n        /* \"#utility.yul\":893:945   */\n    tag_162:\n        /* \"#utility.yul\":980:989   */\n      dup2\n        /* \"#utility.yul\":967:990   */\n      calldataload\n        /* \"#utility.yul\":999:1030   */\n      tag_163\n        /* \"#utility.yul\":1024:1029   */\n      dup2\n        /* \"#utility.yul\":999:1030   */\n      tag_150\n      jump\t// in\n    tag_163:\n        /* \"#utility.yul\":1049:1054   */\n      swap4\n        /* \"#utility.yul\":813:1060   */\n      swap3\n      pop\n      pop\n      pop\n      jump\t// out\n        /* \"#utility.yul\":1257:1384   */\n    tag_51:\n        /* \"#utility.yul\":1318:1328   */\n      0x4e487b71\n        /* \"#utility.yul\":1313:1316   */\n      0xe0\n        /* \"#utility.yul\":1309:1329   */\n      shl\n        /* \"#utility.yul\":1306:1307   */\n      0x00\n        /* \"#utility.yul\":1299:1330   */\n      mstore\n        /* \"#utility.yul\":1349:1353   */\n      0x32\n        /* \"#utility.yul\":1346:1347   */\n      0x04\n        /* \"#utility.yul\":1339:1354   */\n      mstore\n        /* \"#utility.yul\":1373:1377   */\n      0x24\n        /* \"#utility.yul\":1370:1371   */\n      0x00\n        /* \"#utility.yul\":1363:1378   */\n      revert\n        /* \"#utility.yul\":1389:1516   */\n    tag_151:\n        /* \"#utility.yul\":1450:1460   */\n      0x4e487b71\n        /* \"#utility.yul\":1445:1448   */\n      0xe0\n        /* \"#utility.yul\":1441:1461   */\n      shl\n        /* \"#utility.yul\":1438:1439   */\n      0x00\n        /* \"#utility.yul\":1431:1462   */\n      mstore\n        /* \"#utility.yul\":1481:1485   */\n      0x11\n        /* \"#utility.yul\":1478:1479   */\n      0x04\n        /* \"#utility.yul\":1471:1486   */\n      mstore\n        /* \"#utility.yul\":1505:1509   */\n      0x24\n        /* \"#utility.yul\":1502:1503   */\n      0x00\n        /* \"#utility.yul\":1495:1510   */\n      revert\n        /* \"#utility.yul\":1521:1656   */\n    tag_55:\n        /* \"#utility.yul\":1560:1563   */\n      0x00\n        /* \"#utility.yul\":1581:1598   */\n      0x01\n      dup3\n      add\n        /* \"#utility.yul\":1578:1621   */\n      tag_169\n      jumpi\n        /* \"#utility.yul\":1601:1619   */\n      tag_169\n      tag_151\n      jump\t// in\n    tag_169:\n      pop\n        /* \"#utility.yul\":1648:1649   */\n      0x01\n        /* \"#utility.yul\":1637:1650   */\n      add\n      swap1\n        /* \"#utility.yul\":1521:1656   */\n      jump\t// out\n        /* \"#utility.yul\":1661:2062   */\n    tag_58:\n        /* \"#utility.yul\":1863:1865   */\n      0x20\n        /* \"#utility.yul\":1845:1866   */\n      dup1\n      dup3\n      mstore\n        /* \"#utility.yul\":1902:1904   */\n      0x25\n        /* \"#utility.yul\":1882:1900   */\n      swap1\n      dup3\n      add\n        /* \"#utility.yul\":1875:1905   */\n      mstore\n        /* \"#utility.yul\":1941:1975   */\n      0x496e6865726974616e6365206e6f7420666f756e6420696e2070656e64696e67\n        /* \"#utility.yul\":1936:1938   */\n      0x40\n        /* \"#utility.yul\":1921:1939   */\n      dup3\n      add\n        /* \"#utility.yul\":1914:1976   */\n      mstore\n      shl(0xda, 0x081b1a5cdd)\n        /* \"#utility.yul\":2007:2009   */\n      0x60\n        /* \"#utility.yul\":1992:2010   */\n      dup3\n      add\n        /* \"#utility.yul\":1985:2020   */\n      mstore\n        /* \"#utility.yul\":2052:2055   */\n      0x80\n        /* \"#utility.yul\":2037:2056   */\n      add\n      swap1\n        /* \"#utility.yul\":1661:2062   */\n      jump\t// out\n        /* \"#utility.yul\":2067:2195   */\n    tag_61:\n        /* \"#utility.yul\":2134:2143   */\n      dup2\n      dup2\n      sub\n        /* \"#utility.yul\":2155:2166   */\n      dup2\n      dup2\n      gt\n        /* \"#utility.yul\":2152:2189   */\n      iszero\n      tag_173\n      jumpi\n        /* \"#utility.yul\":2169:2187   */\n      tag_173\n      tag_151\n      jump\t// in\n    tag_173:\n        /* \"#utility.yul\":2067:2195   */\n      swap3\n      swap2\n      pop\n      pop\n      jump\t// out\n        /* \"#utility.yul\":2200:2327   */\n    tag_70:\n        /* \"#utility.yul\":2261:2271   */\n      0x4e487b71\n        /* \"#utility.yul\":2256:2259   */\n      0xe0\n        /* \"#utility.yul\":2252:2272   */\n      shl\n        /* \"#utility.yul\":2249:2250   */\n      0x00\n        /* \"#utility.yul\":2242:2273   */\n      mstore\n        /* \"#utility.yul\":2292:2296   */\n      0x31\n        /* \"#utility.yul\":2289:2290   */\n      0x04\n        /* \"#utility.yul\":2282:2297   */\n      mstore\n        /* \"#utility.yul\":2316:2320   */\n      0x24\n        /* \"#utility.yul\":2313:2314   */\n      0x00\n        /* \"#utility.yul\":2306:2321   */\n      revert\n        /* \"#utility.yul\":2950:3077   */\n    tag_152:\n        /* \"#utility.yul\":3011:3021   */\n      0x4e487b71\n        /* \"#utility.yul\":3006:3009   */\n      0xe0\n        /* \"#utility.yul\":3002:3022   */\n      shl\n        /* \"#utility.yul\":2999:3000   */\n      0x00\n        /* \"#utility.yul\":2992:3023   */\n      mstore\n        /* \"#utility.yul\":3042:3046   */\n      0x41\n        /* \"#utility.yul\":3039:3040   */\n      0x04\n        /* \"#utility.yul\":3032:3047   */\n      mstore\n        /* \"#utility.yul\":3066:3070   */\n      0x24\n        /* \"#utility.yul\":3063:3064   */\n      0x00\n        /* \"#utility.yul\":3056:3071   */\n      revert\n        /* \"#utility.yul\":3082:3220   */\n    tag_153:\n        /* \"#utility.yul\":3161:3174   */\n      dup1\n      mload\n        /* \"#utility.yul\":3183:3214   */\n      tag_179\n        /* \"#utility.yul\":3161:3174   */\n      dup2\n        /* \"#utility.yul\":3183:3214   */\n      tag_150\n      jump\t// in\n    tag_179:\n        /* \"#utility.yul\":3082:3220   */\n      swap2\n      swap1\n      pop\n      jump\t// out\n        /* \"#utility.yul\":3225:4354   */\n    tag_102:\n        /* \"#utility.yul\":3320:3326   */\n      0x00\n        /* \"#utility.yul\":3351:3353   */\n      0x20\n        /* \"#utility.yul\":3394:3396   */\n      dup1\n        /* \"#utility.yul\":3382:3391   */\n      dup4\n        /* \"#utility.yul\":3373:3380   */\n      dup6\n        /* \"#utility.yul\":3369:3392   */\n      sub\n        /* \"#utility.yul\":3365:3397   */\n      slt\n        /* \"#utility.yul\":3362:3414   */\n      iszero\n      tag_181\n      jumpi\n        /* \"#utility.yul\":3410:3411   */\n      0x00\n        /* \"#utility.yul\":3407:3408   */\n      dup1\n        /* \"#utility.yul\":3400:3412   */\n      revert\n        /* \"#utility.yul\":3362:3414   */\n    tag_181:\n        /* \"#utility.yul\":3443:3452   */\n      dup3\n        /* \"#utility.yul\":3437:3453   */\n      mload\n        /* \"#utility.yul\":3472:3490   */\n      0xffffffffffffffff\n        /* \"#utility.yul\":3513:3515   */\n      dup1\n        /* \"#utility.yul\":3505:3511   */\n      dup3\n        /* \"#utility.yul\":3502:3516   */\n      gt\n        /* \"#utility.yul\":3499:3533   */\n      iszero\n      tag_182\n      jumpi\n        /* \"#utility.yul\":3529:3530   */\n      0x00\n        /* \"#utility.yul\":3526:3527   */\n      dup1\n        /* \"#utility.yul\":3519:3531   */\n      revert\n        /* \"#utility.yul\":3499:3533   */\n    tag_182:\n        /* \"#utility.yul\":3567:3573   */\n      dup2\n        /* \"#utility.yul\":3556:3565   */\n      dup6\n        /* \"#utility.yul\":3552:3574   */\n      add\n        /* \"#utility.yul\":3542:3574   */\n      swap2\n      pop\n        /* \"#utility.yul\":3612:3619   */\n      dup6\n        /* \"#utility.yul\":3605:3609   */\n      0x1f\n        /* \"#utility.yul\":3601:3603   */\n      dup4\n        /* \"#utility.yul\":3597:3610   */\n      add\n        /* \"#utility.yul\":3593:3620   */\n      slt\n        /* \"#utility.yul\":3583:3638   */\n      tag_183\n      jumpi\n        /* \"#utility.yul\":3634:3635   */\n      0x00\n        /* \"#utility.yul\":3631:3632   */\n      dup1\n        /* \"#utility.yul\":3624:3636   */\n      revert\n        /* \"#utility.yul\":3583:3638   */\n    tag_183:\n        /* \"#utility.yul\":3663:3665   */\n      dup2\n        /* \"#utility.yul\":3657:3666   */\n      mload\n        /* \"#utility.yul\":3685:3687   */\n      dup2\n        /* \"#utility.yul\":3681:3683   */\n      dup2\n        /* \"#utility.yul\":3678:3688   */\n      gt\n        /* \"#utility.yul\":3675:3711   */\n      iszero\n      tag_185\n      jumpi\n        /* \"#utility.yul\":3691:3709   */\n      tag_185\n      tag_152\n      jump\t// in\n    tag_185:\n        /* \"#utility.yul\":3737:3739   */\n      dup1\n        /* \"#utility.yul\":3734:3735   */\n      0x05\n        /* \"#utility.yul\":3730:3740   */\n      shl\n        /* \"#utility.yul\":3769:3771   */\n      0x40\n        /* \"#utility.yul\":3763:3772   */\n      mload\n        /* \"#utility.yul\":3832:3834   */\n      0x1f\n        /* \"#utility.yul\":3828:3835   */\n      not\n        /* \"#utility.yul\":3823:3825   */\n      0x3f\n        /* \"#utility.yul\":3819:3821   */\n      dup4\n        /* \"#utility.yul\":3815:3826   */\n      add\n        /* \"#utility.yul\":3811:3836   */\n      and\n        /* \"#utility.yul\":3803:3809   */\n      dup2\n        /* \"#utility.yul\":3799:3837   */\n      add\n        /* \"#utility.yul\":3887:3893   */\n      dup2\n        /* \"#utility.yul\":3875:3885   */\n      dup2\n        /* \"#utility.yul\":3872:3894   */\n      lt\n        /* \"#utility.yul\":3867:3869   */\n      dup6\n        /* \"#utility.yul\":3855:3865   */\n      dup3\n        /* \"#utility.yul\":3852:3870   */\n      gt\n        /* \"#utility.yul\":3849:3895   */\n      or\n        /* \"#utility.yul\":3846:3918   */\n      iszero\n      tag_187\n      jumpi\n        /* \"#utility.yul\":3898:3916   */\n      tag_187\n      tag_152\n      jump\t// in\n    tag_187:\n        /* \"#utility.yul\":3934:3936   */\n      0x40\n        /* \"#utility.yul\":3927:3949   */\n      mstore\n        /* \"#utility.yul\":3984:4002   */\n      swap2\n      dup3\n      mstore\n        /* \"#utility.yul\":4018:4033   */\n      dup5\n      dup3\n      add\n      swap3\n      pop\n        /* \"#utility.yul\":4060:4071   */\n      dup4\n      dup2\n      add\n        /* \"#utility.yul\":4056:4076   */\n      dup6\n      add\n      swap2\n        /* \"#utility.yul\":4088:4107   */\n      dup9\n      dup4\n      gt\n        /* \"#utility.yul\":4085:4124   */\n      iszero\n      tag_188\n      jumpi\n        /* \"#utility.yul\":4120:4121   */\n      0x00\n        /* \"#utility.yul\":4117:4118   */\n      dup1\n        /* \"#utility.yul\":4110:4122   */\n      revert\n        /* \"#utility.yul\":4085:4124   */\n    tag_188:\n        /* \"#utility.yul\":4144:4155   */\n      swap4\n      dup6\n      add\n      swap4\n        /* \"#utility.yul\":4164:4323   */\n    tag_189:\n        /* \"#utility.yul\":4180:4186   */\n      dup3\n        /* \"#utility.yul\":4175:4178   */\n      dup6\n        /* \"#utility.yul\":4172:4187   */\n      lt\n        /* \"#utility.yul\":4164:4323   */\n      iszero\n      tag_191\n      jumpi\n        /* \"#utility.yul\":4246:4280   */\n      tag_192\n        /* \"#utility.yul\":4276:4279   */\n      dup6\n        /* \"#utility.yul\":4246:4280   */\n      tag_153\n      jump\t// in\n    tag_192:\n        /* \"#utility.yul\":4234:4281   */\n      dup5\n      mstore\n        /* \"#utility.yul\":4197:4209   */\n      swap4\n      dup6\n      add\n      swap4\n        /* \"#utility.yul\":4301:4313   */\n      swap3\n      dup6\n      add\n      swap3\n        /* \"#utility.yul\":4164:4323   */\n      jump(tag_189)\n    tag_191:\n        /* \"#utility.yul\":4342:4348   */\n      swap9\n        /* \"#utility.yul\":3225:4354   */\n      swap8\n      pop\n      pop\n      pop\n      pop\n      pop\n      pop\n      pop\n      pop\n      jump\t// out\n\n    auxdata: 0xa2646970667358221220d0209d8ca9c29f54d3d49b7ffb065af61ff7bcff0c79d0b615167a385df5dff164736f6c63430008130033\n}\n","bytecode":{"linkReferences":{},"object":"608060405234801561001057600080fd5b50610be2806100206000396000f3fe608060405234801561001057600080fd5b50600436106100935760003560e01c80638c7a6c65116100665780638c7a6c651461010157806392c4834a14610118578063b45f0dbd14610120578063c16d196214610128578063e9df2e7d1461013f57600080fd5b80631e55feca1461009857806324de0be1146100b65780634fd4bacd146100cb57806352466cba146100de575b600080fd5b6100a0610147565b6040516100ad9190610982565b60405180910390f35b6100c96100c43660046109e4565b6101b0565b005b6100c96100d93660046109e4565b6103a0565b3360009081526020819052604090205415155b60405190151581526020016100ad565b3360009081526001602052604090205415156100f1565b6100a06104ab565b6100a0610514565b3360009081526002602052604090205415156100f1565b6100c961057d565b33600090815260208181526040918290208054835181840281018401909452808452606093928301828280156101a657602002820191906000526020600020905b81546001600160a01b03168152600190910190602001808311610188575b5050505050905090565b600080805b336000908152602081905260409020548110156102315733600090815260208190526040902080546001600160a01b0386169190839081106101f9576101f9610a08565b6000918252602090912001546001600160a01b03160361021f5780925060019150610231565b8061022981610a34565b9150506101b5565b50806102585760405162461bcd60e51b815260040161024f90610a4d565b60405180910390fd5b336000818152600160208181526040808420805480850182559085528285200180546001600160a01b0319166001600160a01b038a16179055938352829052919020805490916102a791610a92565b815481106102b7576102b7610a08565b600091825260208083209091015433835290829052604090912080546001600160a01b0390921691849081106102ef576102ef610a08565b600091825260208083209190910180546001600160a01b0319166001600160a01b039490941693909317909255338152908190526040902080548061033657610336610aab565b60008281526020808220600019908401810180546001600160a01b03191690559092019092556040519182526001600160a01b0385169133917f6079c7acd0668f1b20f3a9c943344041c6009bb0e68fae580c2d5f962ce42be491015b60405180910390a3505050565b336000908152602081905260409020546003116104115760405162461bcd60e51b815260206004820152602960248201527f596f752063616e206f6e6c79207265717565737420757020746f203320696e6860448201526865726974616e63657360b81b606482015260840161024f565b6040516366416dd360e01b815233600482015281906001600160a01b038216906366416dd390602401600060405180830381600087803b15801561045457600080fd5b505af1158015610468573d6000803e3d6000fd5b5050336000908152602081815260408220805460018101825590835291200180546001600160a01b0319166001600160a01b039590951694909417909355505050565b336000908152600260209081526040918290208054835181840281018401909452808452606093928301828280156101a6576020028201919060005260206000209081546001600160a01b03168152600190910190602001808311610188575050505050905090565b336000908152600160209081526040918290208054835181840281018401909452808452606093928301828280156101a6576020028201919060005260206000209081546001600160a01b03168152600190910190602001808311610188575050505050905090565b60005b3360009081526020819052604090205481101561079c573360009081526020819052604081208054839081106105b8576105b8610a08565b60009182526020822001546040805162c958af60e31b815290516001600160a01b039092169350839291839163064ac57891600480830192869291908290030181865afa15801561060d573d6000803e3d6000fd5b505050506040513d6000823e601f3d908101601f191682016040526106359190810190610ae7565b90506000805b825181101561069157336001600160a01b031683828151811061066057610660610a08565b60200260200101516001600160a01b03160361067f5760019150610691565b8061068981610a34565b91505061063b565b5080156106a1575050505061078a565b6000836001600160a01b031663ffc15b7c6040518163ffffffff1660e01b8152600401600060405180830381865afa1580156106e1573d6000803e3d6000fd5b505050506040513d6000823e601f3d908101601f191682016040526107099190810190610ae7565b90506000805b825181101561076557336001600160a01b031683828151811061073457610734610a08565b60200260200101516001600160a01b0316036107535760019150610765565b8061075d81610a34565b91505061070f565b50801561077a576107758661079f565b610783565b610783866101b0565b5050505050505b8061079481610a34565b915050610580565b50565b600080805b336000908152602081905260409020548110156108205733600090815260208190526040902080546001600160a01b0386169190839081106107e8576107e8610a08565b6000918252602090912001546001600160a01b03160361080e5780925060019150610820565b8061081881610a34565b9150506107a4565b508061083e5760405162461bcd60e51b815260040161024f90610a4d565b3360008181526002602090815260408083208054600180820183559185528385200180546001600160a01b0319166001600160a01b038a161790559383529082905290208054909161088f91610a92565b8154811061089f5761089f610a08565b600091825260208083209091015433835290829052604090912080546001600160a01b0390921691849081106108d7576108d7610a08565b600091825260208083209190910180546001600160a01b0319166001600160a01b039490941693909317909255338152908190526040902080548061091e5761091e610aab565b600082815260209020810160001990810180546001600160a01b03191690550190556040516001600160a01b0384169033907f6079c7acd0668f1b20f3a9c943344041c6009bb0e68fae580c2d5f962ce42be4906103939060011515815260200190565b6020808252825182820181905260009190848201906040850190845b818110156109c35783516001600160a01b03168352928401929184019160010161099e565b50909695505050505050565b6001600160a01b038116811461079c57600080fd5b6000602082840312156109f657600080fd5b8135610a01816109cf565b9392505050565b634e487b7160e01b600052603260045260246000fd5b634e487b7160e01b600052601160045260246000fd5b600060018201610a4657610a46610a1e565b5060010190565b60208082526025908201527f496e6865726974616e6365206e6f7420666f756e6420696e2070656e64696e67604082015264081b1a5cdd60da1b606082015260800190565b81810381811115610aa557610aa5610a1e565b92915050565b634e487b7160e01b600052603160045260246000fd5b634e487b7160e01b600052604160045260246000fd5b8051610ae2816109cf565b919050565b60006020808385031215610afa57600080fd5b825167ffffffffffffffff80821115610b1257600080fd5b818501915085601f830112610b2657600080fd5b815181811115610b3857610b38610ac1565b8060051b604051601f19603f83011681018181108582111715610b5d57610b5d610ac1565b604052918252848201925083810185019188831115610b7b57600080fd5b938501935b82851015610ba057610b9185610ad7565b84529385019392850192610b80565b9897505050505050505056fea2646970667358221220d0209d8ca9c29f54d3d49b7ffb065af61ff7bcff0c79d0b615167a385df5dff164736f6c63430008130033","opcodes":"PUSH1 0x80 PUSH1 0x40 MSTORE CALLVALUE DUP1 ISZERO PUSH2 0x10 JUMPI PUSH1 0x0 DUP1 REVERT JUMPDEST POP PUSH2 0xBE2 DUP1 PUSH2 0x20 PUSH1 0x0 CODECOPY PUSH1 0x0 RETURN INVALID PUSH1 0x80 PUSH1 0x40 MSTORE CALLVALUE DUP1 ISZERO PUSH2 0x10 JUMPI PUSH1 0x0 DUP1 REVERT JUMPDEST POP PUSH1 0x4 CALLDATASIZE LT PUSH2 0x93 JUMPI PUSH1 0x0 CALLDATALOAD PUSH1 0xE0 SHR DUP1 PUSH4 0x8C7A6C65 GT PUSH2 0x66 JUMPI DUP1 PUSH4 0x8C7A6C65 EQ PUSH2 0x101 JUMPI DUP1 PUSH4 0x92C4834A EQ PUSH2 0x118 JUMPI DUP1 PUSH4 0xB45F0DBD EQ PUSH2 0x120 JUMPI DUP1 PUSH4 0xC16D1962 EQ PUSH2 0x128 JUMPI DUP1 PUSH4 0xE9DF2E7D EQ PUSH2 0x13F JUMPI PUSH1 0x0 DUP1 REVERT JUMPDEST DUP1 PUSH4 0x1E55FECA EQ PUSH2 0x98 JUMPI DUP1 PUSH4 0x24DE0BE1 EQ PUSH2 0xB6 JUMPI DUP1 PUSH4 0x4FD4BACD EQ PUSH2 0xCB JUMPI DUP1 PUSH4 0x52466CBA EQ PUSH2 0xDE JUMPI JUMPDEST PUSH1 0x0 DUP1 REVERT JUMPDEST PUSH2 0xA0 PUSH2 0x147 JUMP JUMPDEST PUSH1 0x40 MLOAD PUSH2 0xAD SWAP2 SWAP1 PUSH2 0x982 JUMP JUMPDEST PUSH1 0x40 MLOAD DUP1 SWAP2 SUB SWAP1 RETURN JUMPDEST PUSH2 0xC9 PUSH2 0xC4 CALLDATASIZE PUSH1 0x4 PUSH2 0x9E4 JUMP JUMPDEST PUSH2 0x1B0 JUMP JUMPDEST STOP JUMPDEST PUSH2 0xC9 PUSH2 0xD9 CALLDATASIZE PUSH1 0x4 PUSH2 0x9E4 JUMP JUMPDEST PUSH2 0x3A0 JUMP JUMPDEST CALLER PUSH1 0x0 SWAP1 DUP2 MSTORE PUSH1 0x20 DUP2 SWAP1 MSTORE PUSH1 0x40 SWAP1 KECCAK256 SLOAD ISZERO ISZERO JUMPDEST PUSH1 0x40 MLOAD SWAP1 ISZERO ISZERO DUP2 MSTORE PUSH1 0x20 ADD PUSH2 0xAD JUMP JUMPDEST CALLER PUSH1 0x0 SWAP1 DUP2 MSTORE PUSH1 0x1 PUSH1 0x20 MSTORE PUSH1 0x40 SWAP1 KECCAK256 SLOAD ISZERO ISZERO PUSH2 0xF1 JUMP JUMPDEST PUSH2 0xA0 PUSH2 0x4AB JUMP JUMPDEST PUSH2 0xA0 PUSH2 0x514 JUMP JUMPDEST CALLER PUSH1 0x0 SWAP1 DUP2 MSTORE PUSH1 0x2 PUSH1 0x20 MSTORE PUSH1 0x40 SWAP1 KECCAK256 SLOAD ISZERO ISZERO PUSH2 0xF1 JUMP JUMPDEST PUSH2 0xC9 PUSH2 0x57D JUMP JUMPDEST CALLER PUSH1 0x0 SWAP1 DUP2 MSTORE PUSH1 0x20 DUP2 DUP2 MSTORE PUSH1 0x40 SWAP2 DUP3 SWAP1 KECCAK256 DUP1 SLOAD DUP4 MLOAD DUP2 DUP5 MUL DUP2 ADD DUP5 ADD SWAP1 SWAP5 MSTORE DUP1 DUP5 MSTORE PUSH1 0x60 SWAP4 SWAP3 DUP4 ADD DUP3 DUP3 DUP1 ISZERO PUSH2 0x1A6 JUMPI PUSH1 0x20 MUL DUP3 ADD SWAP2 SWAP1 PUSH1 0x0 MSTORE PUSH1 0x20 PUSH1 0x0 KECCAK256 SWAP1 JUMPDEST DUP2 SLOAD PUSH1 0x1 PUSH1 0x1 PUSH1 0xA0 SHL SUB AND DUP2 MSTORE PUSH1 0x1 SWAP1 SWAP2 ADD SWAP1 PUSH1 0x20 ADD DUP1 DUP4 GT PUSH2 0x188 JUMPI JUMPDEST POP POP POP POP POP SWAP1 POP SWAP1 JUMP JUMPDEST PUSH1 0x0 DUP1 DUP1 JUMPDEST CALLER PUSH1 0x0 SWAP1 DUP2 MSTORE PUSH1 0x20 DUP2 SWAP1 MSTORE PUSH1 0x40 SWAP1 KECCAK256 SLOAD DUP2 LT ISZERO PUSH2 0x231 JUMPI CALLER PUSH1 0x0 SWAP1 DUP2 MSTORE PUSH1 0x20 DUP2 SWAP1 MSTORE PUSH1 0x40 SWAP1 KECCAK256 DUP1 SLOAD PUSH1 0x1 PUSH1 0x1 PUSH1 0xA0 SHL SUB DUP7 AND SWAP2 SWAP1 DUP4 SWAP1 DUP2 LT PUSH2 0x1F9 JUMPI PUSH2 0x1F9 PUSH2 0xA08 JUMP JUMPDEST PUSH1 0x0 SWAP2 DUP3 MSTORE PUSH1 0x20 SWAP1 SWAP2 KECCAK256 ADD SLOAD PUSH1 0x1 PUSH1 0x1 PUSH1 0xA0 SHL SUB AND SUB PUSH2 0x21F JUMPI DUP1 SWAP3 POP PUSH1 0x1 SWAP2 POP PUSH2 0x231 JUMP JUMPDEST DUP1 PUSH2 0x229 DUP2 PUSH2 0xA34 JUMP JUMPDEST SWAP2 POP POP PUSH2 0x1B5 JUMP JUMPDEST POP DUP1 PUSH2 0x258 JUMPI PUSH1 0x40 MLOAD PUSH3 0x461BCD PUSH1 0xE5 SHL DUP2 MSTORE PUSH1 0x4 ADD PUSH2 0x24F SWAP1 PUSH2 0xA4D JUMP JUMPDEST PUSH1 0x40 MLOAD DUP1 SWAP2 SUB SWAP1 REVERT JUMPDEST CALLER PUSH1 0x0 DUP2 DUP2 MSTORE PUSH1 0x1 PUSH1 0x20 DUP2 DUP2 MSTORE PUSH1 0x40 DUP1 DUP5 KECCAK256 DUP1 SLOAD DUP1 DUP6 ADD DUP3 SSTORE SWAP1 DUP6 MSTORE DUP3 DUP6 KECCAK256 ADD DUP1 SLOAD PUSH1 0x1 PUSH1 0x1 PUSH1 0xA0 SHL SUB NOT AND PUSH1 0x1 PUSH1 0x1 PUSH1 0xA0 SHL SUB DUP11 AND OR SWAP1 SSTORE SWAP4 DUP4 MSTORE DUP3 SWAP1 MSTORE SWAP2 SWAP1 KECCAK256 DUP1 SLOAD SWAP1 SWAP2 PUSH2 0x2A7 SWAP2 PUSH2 0xA92 JUMP JUMPDEST DUP2 SLOAD DUP2 LT PUSH2 0x2B7 JUMPI PUSH2 0x2B7 PUSH2 0xA08 JUMP JUMPDEST PUSH1 0x0 SWAP2 DUP3 MSTORE PUSH1 0x20 DUP1 DUP4 KECCAK256 SWAP1 SWAP2 ADD SLOAD CALLER DUP4 MSTORE SWAP1 DUP3 SWAP1 MSTORE PUSH1 0x40 SWAP1 SWAP2 KECCAK256 DUP1 SLOAD PUSH1 0x1 PUSH1 0x1 PUSH1 0xA0 SHL SUB SWAP1 SWAP3 AND SWAP2 DUP5 SWAP1 DUP2 LT PUSH2 0x2EF JUMPI PUSH2 0x2EF PUSH2 0xA08 JUMP JUMPDEST PUSH1 0x0 SWAP2 DUP3 MSTORE PUSH1 0x20 DUP1 DUP4 KECCAK256 SWAP2 SWAP1 SWAP2 ADD DUP1 SLOAD PUSH1 0x1 PUSH1 0x1 PUSH1 0xA0 SHL SUB NOT AND PUSH1 0x1 PUSH1 0x1 PUSH1 0xA0 SHL SUB SWAP5 SWAP1 SWAP5 AND SWAP4 SWAP1 SWAP4 OR SWAP1 SWAP3 SSTORE CALLER DUP2 MSTORE SWAP1 DUP2 SWAP1 MSTORE PUSH1 0x40 SWAP1 KECCAK256 DUP1 SLOAD DUP1 PUSH2 0x336 JUMPI PUSH2 0x336 PUSH2 0xAAB JUMP JUMPDEST PUSH1 0x0 DUP3 DUP2 MSTORE PUSH1 0x20 DUP1 DUP3 KECCAK256 PUSH1 0x0 NOT SWAP1 DUP5 ADD DUP2 ADD DUP1 SLOAD PUSH1 0x1 PUSH1 0x1 PUSH1 0xA0 SHL SUB NOT AND SWAP1 SSTORE SWAP1 SWAP3 ADD SWAP1 SWAP3 SSTORE PUSH1 0x40 MLOAD SWAP2 DUP3 MSTORE PUSH1 0x1 PUSH1 0x1 PUSH1 0xA0 SHL SUB DUP6 AND SWAP2 CALLER SWAP2 PUSH32 0x6079C7ACD0668F1B20F3A9C943344041C6009BB0E68FAE580C2D5F962CE42BE4 SWAP2 ADD JUMPDEST PUSH1 0x40 MLOAD DUP1 SWAP2 SUB SWAP1 LOG3 POP POP POP JUMP JUMPDEST CALLER PUSH1 0x0 SWAP1 DUP2 MSTORE PUSH1 0x20 DUP2 SWAP1 MSTORE PUSH1 0x40 SWAP1 KECCAK256 SLOAD PUSH1 0x3 GT PUSH2 0x411 JUMPI PUSH1 0x40 MLOAD PUSH3 0x461BCD PUSH1 0xE5 SHL DUP2 MSTORE PUSH1 0x20 PUSH1 0x4 DUP3 ADD MSTORE PUSH1 0x29 PUSH1 0x24 DUP3 ADD MSTORE PUSH32 0x596F752063616E206F6E6C79207265717565737420757020746F203320696E68 PUSH1 0x44 DUP3 ADD MSTORE PUSH9 0x65726974616E636573 PUSH1 0xB8 SHL PUSH1 0x64 DUP3 ADD MSTORE PUSH1 0x84 ADD PUSH2 0x24F JUMP JUMPDEST PUSH1 0x40 MLOAD PUSH4 0x66416DD3 PUSH1 0xE0 SHL DUP2 MSTORE CALLER PUSH1 0x4 DUP3 ADD MSTORE DUP2 SWAP1 PUSH1 0x1 PUSH1 0x1 PUSH1 0xA0 SHL SUB DUP3 AND SWAP1 PUSH4 0x66416DD3 SWAP1 PUSH1 0x24 ADD PUSH1 0x0 PUSH1 0x40 MLOAD DUP1 DUP4 SUB DUP2 PUSH1 0x0 DUP8 DUP1 EXTCODESIZE ISZERO DUP1 ISZERO PUSH2 0x454 JUMPI PUSH1 0x0 DUP1 REVERT JUMPDEST POP GAS CALL ISZERO DUP1 ISZERO PUSH2 0x468 JUMPI RETURNDATASIZE PUSH1 0x0 DUP1 RETURNDATACOPY RETURNDATASIZE PUSH1 0x0 REVERT JUMPDEST POP POP CALLER PUSH1 0x0 SWAP1 DUP2 MSTORE PUSH1 0x20 DUP2 DUP2 MSTORE PUSH1 0x40 DUP3 KECCAK256 DUP1 SLOAD PUSH1 0x1 DUP2 ADD DUP3 SSTORE SWAP1 DUP4 MSTORE SWAP2 KECCAK256 ADD DUP1 SLOAD PUSH1 0x1 PUSH1 0x1 PUSH1 0xA0 SHL SUB NOT AND PUSH1 0x1 PUSH1 0x1 PUSH1 0xA0 SHL SUB SWAP6 SWAP1 SWAP6 AND SWAP5 SWAP1 SWAP5 OR SWAP1 SWAP4 SSTORE POP POP POP JUMP JUMPDEST CALLER PUSH1 0x0 SWAP1 DUP2 MSTORE PUSH1 0x2 PUSH1 0x20 SWAP1 DUP2 MSTORE PUSH1 0x40 SWAP2 DUP3 SWAP1 KECCAK256 DUP1 SLOAD DUP4 MLOAD DUP2 DUP5 MUL DUP2 ADD DUP5 ADD SWAP1 SWAP5 MSTORE DUP1 DUP5 MSTORE PUSH1 0x60 SWAP4 SWAP3 DUP4 ADD DUP3 DUP3 DUP1 ISZERO PUSH2 0x1A6 JUMPI PUSH1 0x20 MUL DUP3 ADD SWAP2 SWAP1 PUSH1 0x0 MSTORE PUSH1 0x20 PUSH1 0x0 KECCAK256 SWAP1 DUP2 SLOAD PUSH1 0x1 PUSH1 0x1 PUSH1 0xA0 SHL SUB AND DUP2 MSTORE PUSH1 0x1 SWAP1 SWAP2 ADD SWAP1 PUSH1 0x20 ADD DUP1 DUP4 GT PUSH2 0x188 JUMPI POP POP POP POP POP SWAP1 POP SWAP1 JUMP JUMPDEST CALLER PUSH1 0x0 SWAP1 DUP2 MSTORE PUSH1 0x1 PUSH1 0x20 SWAP1 DUP2 MSTORE PUSH1 0x40 SWAP2 DUP3 SWAP1 KECCAK256 DUP1 SLOAD DUP4 MLOAD DUP2 DUP5 MUL DUP2 ADD DUP5 ADD SWAP1 SWAP5 MSTORE DUP1 DUP5 MSTORE PUSH1 0x60 SWAP4 SWAP3 DUP4 ADD DUP3 DUP3 DUP1 ISZERO PUSH2 0x1A6 JUMPI PUSH1 0x20 MUL DUP3 ADD SWAP2 SWAP1 PUSH1 0x0 MSTORE PUSH1 0x20 PUSH1 0x0 KECCAK256 SWAP1 DUP2 SLOAD PUSH1 0x1 PUSH1 0x1 PUSH1 0xA0 SHL SUB AND DUP2 MSTORE PUSH1 0x1 SWAP1 SWAP2 ADD SWAP1 PUSH1 0x20 ADD DUP1 DUP4 GT PUSH2 0x188 JUMPI POP POP POP POP POP SWAP1 POP SWAP1 JUMP JUMPDEST PUSH1 0x0 JUMPDEST CALLER PUSH1 0x0 SWAP1 DUP2 MSTORE PUSH1 0x20 DUP2 SWAP1 MSTORE PUSH1 0x40 SWAP1 KECCAK256 SLOAD DUP2 LT ISZERO PUSH2 0x79C JUMPI CALLER PUSH1 0x0 SWAP1 DUP2 MSTORE PUSH1 0x20 DUP2 SWAP1 MSTORE PUSH1 0x40 DUP2 KECCAK256 DUP1 SLOAD DUP4 SWAP1 DUP2 LT PUSH2 0x5B8 JUMPI PUSH2 0x5B8 PUSH2 0xA08 JUMP JUMPDEST PUSH1 0x0 SWAP2 DUP3 MSTORE PUSH1 0x20 DUP3 KECCAK256 ADD SLOAD PUSH1 0x40 DUP1 MLOAD PUSH3 0xC958AF PUSH1 0xE3 SHL DUP2 MSTORE SWAP1 MLOAD PUSH1 0x1 PUSH1 0x1 PUSH1 0xA0 SHL SUB SWAP1 SWAP3 AND SWAP4 POP DUP4 SWAP3 SWAP2 DUP4 SWAP2 PUSH4 0x64AC578 SWAP2 PUSH1 0x4 DUP1 DUP4 ADD SWAP3 DUP7 SWAP3 SWAP2 SWAP1 DUP3 SWAP1 SUB ADD DUP2 DUP7 GAS STATICCALL ISZERO DUP1 ISZERO PUSH2 0x60D JUMPI RETURNDATASIZE PUSH1 0x0 DUP1 RETURNDATACOPY RETURNDATASIZE PUSH1 0x0 REVERT JUMPDEST POP POP POP POP PUSH1 0x40 MLOAD RETURNDATASIZE PUSH1 0x0 DUP3 RETURNDATACOPY PUSH1 0x1F RETURNDATASIZE SWAP1 DUP2 ADD PUSH1 0x1F NOT AND DUP3 ADD PUSH1 0x40 MSTORE PUSH2 0x635 SWAP2 SWAP1 DUP2 ADD SWAP1 PUSH2 0xAE7 JUMP JUMPDEST SWAP1 POP PUSH1 0x0 DUP1 JUMPDEST DUP3 MLOAD DUP2 LT ISZERO PUSH2 0x691 JUMPI CALLER PUSH1 0x1 PUSH1 0x1 PUSH1 0xA0 SHL SUB AND DUP4 DUP3 DUP2 MLOAD DUP2 LT PUSH2 0x660 JUMPI PUSH2 0x660 PUSH2 0xA08 JUMP JUMPDEST PUSH1 0x20 MUL PUSH1 0x20 ADD ADD MLOAD PUSH1 0x1 PUSH1 0x1 PUSH1 0xA0 SHL SUB AND SUB PUSH2 0x67F JUMPI PUSH1 0x1 SWAP2 POP PUSH2 0x691 JUMP JUMPDEST DUP1 PUSH2 0x689 DUP2 PUSH2 0xA34 JUMP JUMPDEST SWAP2 POP POP PUSH2 0x63B JUMP JUMPDEST POP DUP1 ISZERO PUSH2 0x6A1 JUMPI POP POP POP POP PUSH2 0x78A JUMP JUMPDEST PUSH1 0x0 DUP4 PUSH1 0x1 PUSH1 0x1 PUSH1 0xA0 SHL SUB AND PUSH4 0xFFC15B7C PUSH1 0x40 MLOAD DUP2 PUSH4 0xFFFFFFFF AND PUSH1 0xE0 SHL DUP2 MSTORE PUSH1 0x4 ADD PUSH1 0x0 PUSH1 0x40 MLOAD DUP1 DUP4 SUB DUP2 DUP7 GAS STATICCALL ISZERO DUP1 ISZERO PUSH2 0x6E1 JUMPI RETURNDATASIZE PUSH1 0x0 DUP1 RETURNDATACOPY RETURNDATASIZE PUSH1 0x0 REVERT JUMPDEST POP POP POP POP PUSH1 0x40 MLOAD RETURNDATASIZE PUSH1 0x0 DUP3 RETURNDATACOPY PUSH1 0x1F RETURNDATASIZE SWAP1 DUP2 ADD PUSH1 0x1F NOT AND DUP3 ADD PUSH1 0x40 MSTORE PUSH2 0x709 SWAP2 SWAP1 DUP2 ADD SWAP1 PUSH2 0xAE7 JUMP JUMPDEST SWAP1 POP PUSH1 0x0 DUP1 JUMPDEST DUP3 MLOAD DUP2 LT ISZERO PUSH2 0x765 JUMPI CALLER PUSH1 0x1 PUSH1 0x1 PUSH1 0xA0 SHL SUB AND DUP4 DUP3 DUP2 MLOAD DUP2 LT PUSH2 0x734 JUMPI PUSH2 0x734 PUSH2 0xA08 JUMP JUMPDEST PUSH1 0x20 MUL PUSH1 0x20 ADD ADD MLOAD PUSH1 0x1 PUSH1 0x1 PUSH1 0xA0 SHL SUB AND SUB PUSH2 0x753 JUMPI PUSH1 0x1 SWAP2 POP PUSH2 0x765 JUMP JUMPDEST DUP1 PUSH2 0x75D DUP2 PUSH2 0xA34 JUMP JUMPDEST SWAP2 POP POP PUSH2 0x70F JUMP JUMPDEST POP DUP1 ISZERO PUSH2 0x77A JUMPI PUSH2 0x775 DUP7 PUSH2 0x79F JUMP JUMPDEST PUSH2 0x783 JUMP JUMPDEST PUSH2 0x783 DUP7 PUSH2 0x1B0 JUMP JUMPDEST POP POP POP POP POP POP JUMPDEST DUP1 PUSH2 0x794 DUP2 PUSH2 0xA34 JUMP JUMPDEST SWAP2 POP POP PUSH2 0x580 JUMP JUMPDEST POP JUMP JUMPDEST PUSH1 0x0 DUP1 DUP1 JUMPDEST CALLER PUSH1 0x0 SWAP1 DUP2 MSTORE PUSH1 0x20 DUP2 SWAP1 MSTORE PUSH1 0x40 SWAP1 KECCAK256 SLOAD DUP2 LT ISZERO PUSH2 0x820 JUMPI CALLER PUSH1 0x0 SWAP1 DUP2 MSTORE PUSH1 0x20 DUP2 SWAP1 MSTORE PUSH1 0x40 SWAP1 KECCAK256 DUP1 SLOAD PUSH1 0x1 PUSH1 0x1 PUSH1 0xA0 SHL SUB DUP7 AND SWAP2 SWAP1 DUP4 SWAP1 DUP2 LT PUSH2 0x7E8 JUMPI PUSH2 0x7E8 PUSH2 0xA08 JUMP JUMPDEST PUSH1 0x0 SWAP2 DUP3 MSTORE PUSH1 0x20 SWAP1 SWAP2 KECCAK256 ADD SLOAD PUSH1 0x1 PUSH1 0x1 PUSH1 0xA0 SHL SUB AND SUB PUSH2 0x80E JUMPI DUP1 SWAP3 POP PUSH1 0x1 SWAP2 POP PUSH2 0x820 JUMP JUMPDEST DUP1 PUSH2 0x818 DUP2 PUSH2 0xA34 JUMP JUMPDEST SWAP2 POP POP PUSH2 0x7A4 JUMP JUMPDEST POP DUP1 PUSH2 0x83E JUMPI PUSH1 0x40 MLOAD PUSH3 0x461BCD PUSH1 0xE5 SHL DUP2 MSTORE PUSH1 0x4 ADD PUSH2 0x24F SWAP1 PUSH2 0xA4D JUMP JUMPDEST CALLER PUSH1 0x0 DUP2 DUP2 MSTORE PUSH1 0x2 PUSH1 0x20 SWAP1 DUP2 MSTORE PUSH1 0x40 DUP1 DUP4 KECCAK256 DUP1 SLOAD PUSH1 0x1 DUP1 DUP3 ADD DUP4 SSTORE SWAP2 DUP6 MSTORE DUP4 DUP6 KECCAK256 ADD DUP1 SLOAD PUSH1 0x1 PUSH1 0x1 PUSH1 0xA0 SHL SUB NOT AND PUSH1 0x1 PUSH1 0x1 PUSH1 0xA0 SHL SUB DUP11 AND OR SWAP1 SSTORE SWAP4 DUP4 MSTORE SWAP1 DUP3 SWAP1 MSTORE SWAP1 KECCAK256 DUP1 SLOAD SWAP1 SWAP2 PUSH2 0x88F SWAP2 PUSH2 0xA92 JUMP JUMPDEST DUP2 SLOAD DUP2 LT PUSH2 0x89F JUMPI PUSH2 0x89F PUSH2 0xA08 JUMP JUMPDEST PUSH1 0x0 SWAP2 DUP3 MSTORE PUSH1 0x20 DUP1 DUP4 KECCAK256 SWAP1 SWAP2 ADD SLOAD CALLER DUP4 MSTORE SWAP1 DUP3 SWAP1 MSTORE PUSH1 0x40 SWAP1 SWAP2 KECCAK256 DUP1 SLOAD PUSH1 0x1 PUSH1 0x1 PUSH1 0xA0 SHL SUB SWAP1 SWAP3 AND SWAP2 DUP5 SWAP1 DUP2 LT PUSH2 0x8D7 JUMPI PUSH2 0x8D7 PUSH2 0xA08 JUMP JUMPDEST PUSH1 0x0 SWAP2 DUP3 MSTORE PUSH1 0x20 DUP1 DUP4 KECCAK256 SWAP2 SWAP1 SWAP2 ADD DUP1 SLOAD PUSH1 0x1 PUSH1 0x1 PUSH1 0xA0 SHL SUB NOT AND PUSH1 0x1 PUSH1 0x1 PUSH1 0xA0 SHL SUB SWAP5 SWAP1 SWAP5 AND SWAP4 SWAP1 SWAP4 OR SWAP1 SWAP3 SSTORE CALLER DUP2 MSTORE SWAP1 DUP2 SWAP1 MSTORE PUSH1 0x40 SWAP1 KECCAK256 DUP1 SLOAD DUP1 PUSH2 0x91E JUMPI PUSH2 0x91E PUSH2 0xAAB JUMP JUMPDEST PUSH1 0x0 DUP3 DUP2 MSTORE PUSH1 0x20 SWAP1 KECCAK256 DUP2 ADD PUSH1 0x0 NOT SWAP1 DUP2 ADD DUP1 SLOAD PUSH1 0x1 PUSH1 0x1 PUSH1 0xA0 SHL SUB NOT AND SWAP1 SSTORE ADD SWAP1 SSTORE PUSH1 0x40 MLOAD PUSH1 0x1 PUSH1 0x1 PUSH1 0xA0 SHL SUB DUP5 AND SWAP1 CALLER SWAP1 PUSH32 0x6079C7ACD0668F1B20F3A9C943344041C6009BB0E68FAE580C2D5F962CE42BE4 SWAP1 PUSH2 0x393 SWAP1 PUSH1 0x1 ISZERO ISZERO DUP2 MSTORE PUSH1 0x20 ADD SWAP1 JUMP JUMPDEST PUSH1 0x20 DUP1 DUP3 MSTORE DUP3 MLOAD DUP3 DUP3 ADD DUP2 SWAP1 MSTORE PUSH1 0x0 SWAP2 SWAP1 DUP5 DUP3 ADD SWAP1 PUSH1 0x40 DUP6 ADD SWAP1 DUP5 JUMPDEST DUP2 DUP2 LT ISZERO PUSH2 0x9C3 JUMPI DUP4 MLOAD PUSH1 0x1 PUSH1 0x1 PUSH1 0xA0 SHL SUB AND DUP4 MSTORE SWAP3 DUP5 ADD SWAP3 SWAP2 DUP5 ADD SWAP2 PUSH1 0x1 ADD PUSH2 0x99E JUMP JUMPDEST POP SWAP1 SWAP7 SWAP6 POP POP POP POP POP POP JUMP JUMPDEST PUSH1 0x1 PUSH1 0x1 PUSH1 0xA0 SHL SUB DUP2 AND DUP2 EQ PUSH2 0x79C JUMPI PUSH1 0x0 DUP1 REVERT JUMPDEST PUSH1 0x0 PUSH1 0x20 DUP3 DUP5 SUB SLT ISZERO PUSH2 0x9F6 JUMPI PUSH1 0x0 DUP1 REVERT JUMPDEST DUP2 CALLDATALOAD PUSH2 0xA01 DUP2 PUSH2 0x9CF JUMP JUMPDEST SWAP4 SWAP3 POP POP POP JUMP JUMPDEST PUSH4 0x4E487B71 PUSH1 0xE0 SHL PUSH1 0x0 MSTORE PUSH1 0x32 PUSH1 0x4 MSTORE PUSH1 0x24 PUSH1 0x0 REVERT JUMPDEST PUSH4 0x4E487B71 PUSH1 0xE0 SHL PUSH1 0x0 MSTORE PUSH1 0x11 PUSH1 0x4 MSTORE PUSH1 0x24 PUSH1 0x0 REVERT JUMPDEST PUSH1 0x0 PUSH1 0x1 DUP3 ADD PUSH2 0xA46 JUMPI PUSH2 0xA46 PUSH2 0xA1E JUMP JUMPDEST POP PUSH1 0x1 ADD SWAP1 JUMP JUMPDEST PUSH1 0x20 DUP1 DUP3 MSTORE PUSH1 0x25 SWAP1 DUP3 ADD MSTORE PUSH32 0x496E6865726974616E6365206E6F7420666F756E6420696E2070656E64696E67 PUSH1 0x40 DUP3 ADD MSTORE PUSH5 0x81B1A5CDD PUSH1 0xDA SHL PUSH1 0x60 DUP3 ADD MSTORE PUSH1 0x80 ADD SWAP1 JUMP JUMPDEST DUP2 DUP2 SUB DUP2 DUP2 GT ISZERO PUSH2 0xAA5 JUMPI PUSH2 0xAA5 PUSH2 0xA1E JUMP JUMPDEST SWAP3 SWAP2 POP POP JUMP JUMPDEST PUSH4 0x4E487B71 PUSH1 0xE0 SHL PUSH1 0x0 MSTORE PUSH1 0x31 PUSH1 0x4 MSTORE PUSH1 0x24 PUSH1 0x0 REVERT JUMPDEST PUSH4 0x4E487B71 PUSH1 0xE0 SHL PUSH1 0x0 MSTORE PUSH1 0x41 PUSH1 0x4 MSTORE PUSH1 0x24 PUSH1 0x0 REVERT JUMPDEST DUP1 MLOAD PUSH2 0xAE2 DUP2 PUSH2 0x9CF JUMP JUMPDEST SWAP2 SWAP1 POP JUMP JUMPDEST PUSH1 0x0 PUSH1 0x20 DUP1 DUP4 DUP6 SUB SLT ISZERO PUSH2 0xAFA JUMPI PUSH1 0x0 DUP1 REVERT JUMPDEST DUP3 MLOAD PUSH8 0xFFFFFFFFFFFFFFFF DUP1 DUP3 GT ISZERO PUSH2 0xB12 JUMPI PUSH1 0x0 DUP1 REVERT JUMPDEST DUP2 DUP6 ADD SWAP2 POP DUP6 PUSH1 0x1F DUP4 ADD SLT PUSH2 0xB26 JUMPI PUSH1 0x0 DUP1 REVERT JUMPDEST DUP2 MLOAD DUP2 DUP2 GT ISZERO PUSH2 0xB38 JUMPI PUSH2 0xB38 PUSH2 0xAC1 JUMP JUMPDEST DUP1 PUSH1 0x5 SHL PUSH1 0x40 MLOAD PUSH1 0x1F NOT PUSH1 0x3F DUP4 ADD AND DUP2 ADD DUP2 DUP2 LT DUP6 DUP3 GT OR ISZERO PUSH2 0xB5D JUMPI PUSH2 0xB5D PUSH2 0xAC1 JUMP JUMPDEST PUSH1 0x40 MSTORE SWAP2 DUP3 MSTORE DUP5 DUP3 ADD SWAP3 POP DUP4 DUP2 ADD DUP6 ADD SWAP2 DUP9 DUP4 GT ISZERO PUSH2 0xB7B JUMPI PUSH1 0x0 DUP1 REVERT JUMPDEST SWAP4 DUP6 ADD SWAP4 JUMPDEST DUP3 DUP6 LT ISZERO PUSH2 0xBA0 JUMPI PUSH2 0xB91 DUP6 PUSH2 0xAD7 JUMP JUMPDEST DUP5 MSTORE SWAP4 DUP6 ADD SWAP4 SWAP3 DUP6 ADD SWAP3 PUSH2 0xB80 JUMP JUMPDEST SWAP9 SWAP8 POP POP POP POP POP POP POP POP JUMP INVALID LOG2 PUSH5 0x6970667358 0x22 SLT KECCAK256 0xD0 KECCAK256 SWAP14 DUP13 0xA9 0xC2 SWAP16 SLOAD 0xD3 0xD4 SWAP12 PUSH32 0xFB065AF61FF7BCFF0C79D0B615167A385DF5DFF164736F6C6343000813003300 "},"gasEstimates":{"creation":{"codeDepositCost":"608400","executionCost":"645","totalCost":"609045"},"external":{"addPendingInheritance(address)":"infinite","getApprovedInheritances()":"infinite","getPendingInheritances()":"infinite","getRejectedInheritances()":"infinite","hasApprovedInheritances()":"2438","hasPendingInheritances()":"2431","hasRejectedInheritances()":"2372","removePendingInheritanceToRejected(address)":"infinite","updatePendingInheritances()":"infinite"},"internal":{"removePendingInheritanceToApproved(address)":"infinite"}},"methodIdentifiers":{"addPendingInheritance(address)":"4fd4bacd","getApprovedInheritances()":"92c4834a","getPendingInheritances()":"1e55feca","getRejectedInheritances()":"b45f0dbd","hasApprovedInheritances()":"c16d1962","hasPendingInheritances()":"52466cba","hasRejectedInheritances()":"8c7a6c65","removePendingInheritanceToRejected(address)":"24de0be1","updatePendingInheritances()":"e9df2e7d"}},"storageLayout":{"storage":[{"astId":7,"contract":"HeirsAdministration.sol:HeirsAdministration","label":"pendingInheritances","offset":0,"slot":"0","type":"t_mapping(t_address,t_array(t_address)dyn_storage)"},{"astId":12,"contract":"HeirsAdministration.sol:HeirsAdministration","label":"rejectedInheritances","offset":0,"slot":"1","type":"t_mapping(t_address,t_array(t_address)dyn_storage)"},{"astId":17,"contract":"HeirsAdministration.sol:HeirsAdministration","label":"approvedInheritances","offset":0,"slot":"2","type":"t_mapping(t_address,t_array(t_address)dyn_storage)"}],"types":{"t_address":{"encoding":"inplace","label":"address","numberOfBytes":"20"},"t_array(t_address)dyn_storage":{"base":"t_address","encoding":"dynamic_array","label":"address[]","numberOfBytes":"32"},"t_mapping(t_address,t_array(t_address)dyn_storage)":{"encoding":"mapping","key":"t_address","label":"mapping(address => address[])","numberOfBytes":"32","value":"t_array(t_address)dyn_storage"}}},"userdoc":{"kind":"user","methods":{},"version":1}}