{"abi":[{"anonymous":false,"inputs":[{"indexed":true,"internalType":"address","name":"heir","type":"address"},{"indexed":true,"internalType":"address","name":"inheritance","type":"address"}],"name":"PendingInheritanceRemoved","type":"event"},{"inputs":[{"internalType":"address","name":"_inheritance","type":"address"}],"name":"addPendingInheritance","outputs":[],"stateMutability":"nonpayable","type":"function"},{"inputs":[],"name":"getPendingInheritances","outputs":[{"internalType":"address[]","name":"","type":"address[]"}],"stateMutability":"view","type":"function"},{"inputs":[],"name":"getRejectedInheritances","outputs":[{"internalType":"address[]","name":"","type":"address[]"}],"stateMutability":"view","type":"function"},{"inputs":[],"name":"hasPendingInheritances","outputs":[{"internalType":"bool","name":"","type":"bool"}],"stateMutability":"view","type":"function"},{"inputs":[],"name":"hasRejectedInheritances","outputs":[{"internalType":"bool","name":"","type":"bool"}],"stateMutability":"view","type":"function"},{"inputs":[{"internalType":"address","name":"","type":"address"},{"internalType":"uint256","name":"","type":"uint256"}],"name":"pendingInheritances","outputs":[{"internalType":"address","name":"","type":"address"}],"stateMutability":"view","type":"function"},{"inputs":[{"internalType":"address","name":"","type":"address"},{"internalType":"uint256","name":"","type":"uint256"}],"name":"rejectedInheritances","outputs":[{"internalType":"address","name":"","type":"address"}],"stateMutability":"view","type":"function"},{"inputs":[{"internalType":"address","name":"_inheritance","type":"address"}],"name":"removePendingInheritance","outputs":[],"stateMutability":"nonpayable","type":"function"}],"devdoc":{"kind":"dev","methods":{},"version":1},"evm":{"assembly":"    /* \"HeirsAdministration.sol\":58:1682  contract HeirsAdministration {... */\n  mstore(0x40, 0x80)\n  callvalue\n  dup1\n  iszero\n  tag_1\n  jumpi\n  0x00\n  dup1\n  revert\ntag_1:\n  pop\n  dataSize(sub_0)\n  dup1\n  dataOffset(sub_0)\n  0x00\n  codecopy\n  0x00\n  return\nstop\n\nsub_0: assembly {\n        /* \"HeirsAdministration.sol\":58:1682  contract HeirsAdministration {... */\n      mstore(0x40, 0x80)\n      callvalue\n      dup1\n      iszero\n      tag_1\n      jumpi\n      0x00\n      dup1\n      revert\n    tag_1:\n      pop\n      jumpi(tag_2, lt(calldatasize, 0x04))\n      shr(0xe0, calldataload(0x00))\n      dup1\n      0x52466cba\n      gt\n      tag_11\n      jumpi\n      dup1\n      0x52466cba\n      eq\n      tag_7\n      jumpi\n      dup1\n      0x8a9dab38\n      eq\n      tag_8\n      jumpi\n      dup1\n      0x8c7a6c65\n      eq\n      tag_9\n      jumpi\n      dup1\n      0xb45f0dbd\n      eq\n      tag_10\n      jumpi\n      0x00\n      dup1\n      revert\n    tag_11:\n      dup1\n      0x1e55feca\n      eq\n      tag_3\n      jumpi\n      dup1\n      0x24d02dc5\n      eq\n      tag_4\n      jumpi\n      dup1\n      0x449fd1b2\n      eq\n      tag_5\n      jumpi\n      dup1\n      0x4fd4bacd\n      eq\n      tag_6\n      jumpi\n    tag_2:\n      0x00\n      dup1\n      revert\n        /* \"HeirsAdministration.sol\":1148:1276  function getPendingInheritances() public view returns (address[] memory) {... */\n    tag_3:\n      tag_12\n      tag_13\n      jump\t// in\n    tag_12:\n      mload(0x40)\n      tag_14\n      swap2\n      swap1\n      tag_15\n      jump\t// in\n    tag_14:\n      mload(0x40)\n      dup1\n      swap2\n      sub\n      swap1\n      return\n        /* \"HeirsAdministration.sol\":206:263  mapping(address => address[]) public rejectedInheritances */\n    tag_4:\n      tag_16\n      tag_17\n      calldatasize\n      0x04\n      tag_18\n      jump\t// in\n    tag_17:\n      tag_19\n      jump\t// in\n    tag_16:\n      mload(0x40)\n      sub(shl(0xa0, 0x01), 0x01)\n        /* \"#utility.yul\":1278:1310   */\n      swap1\n      swap2\n      and\n        /* \"#utility.yul\":1260:1311   */\n      dup2\n      mstore\n        /* \"#utility.yul\":1248:1250   */\n      0x20\n        /* \"#utility.yul\":1233:1251   */\n      add\n        /* \"HeirsAdministration.sol\":206:263  mapping(address => address[]) public rejectedInheritances */\n      tag_14\n        /* \"#utility.yul\":1114:1317   */\n      jump\n        /* \"HeirsAdministration.sol\":652:1118  function removePendingInheritance(address _inheritance) public {... */\n    tag_5:\n      tag_22\n      tag_23\n      calldatasize\n      0x04\n      tag_24\n      jump\t// in\n    tag_23:\n      tag_25\n      jump\t// in\n    tag_22:\n      stop\n        /* \"HeirsAdministration.sol\":413:646  function addPendingInheritance(address _inheritance) public {... */\n    tag_6:\n      tag_22\n      tag_27\n      calldatasize\n      0x04\n      tag_24\n      jump\t// in\n    tag_27:\n      tag_28\n      jump\t// in\n        /* \"HeirsAdministration.sol\":1418:1545  function hasPendingInheritances() public view returns (bool) {... */\n    tag_7:\n        /* \"HeirsAdministration.sol\":1516:1526  msg.sender */\n      caller\n        /* \"HeirsAdministration.sol\":1473:1477  bool */\n      0x00\n        /* \"HeirsAdministration.sol\":1496:1527  pendingInheritances[msg.sender] */\n      swap1\n      dup2\n      mstore\n      0x20\n      dup2\n      swap1\n      mstore\n      0x40\n      swap1\n      keccak256\n        /* \"HeirsAdministration.sol\":1496:1534  pendingInheritances[msg.sender].length */\n      sload\n        /* \"HeirsAdministration.sol\":1496:1538  pendingInheritances[msg.sender].length > 0 */\n      iszero\n      iszero\n        /* \"HeirsAdministration.sol\":1418:1545  function hasPendingInheritances() public view returns (bool) {... */\n    tag_29:\n      mload(0x40)\n        /* \"#utility.yul\":1678:1692   */\n      swap1\n      iszero\n        /* \"#utility.yul\":1671:1693   */\n      iszero\n        /* \"#utility.yul\":1653:1694   */\n      dup2\n      mstore\n        /* \"#utility.yul\":1641:1643   */\n      0x20\n        /* \"#utility.yul\":1626:1644   */\n      add\n        /* \"HeirsAdministration.sol\":1418:1545  function hasPendingInheritances() public view returns (bool) {... */\n      tag_14\n        /* \"#utility.yul\":1513:1700   */\n      jump\n        /* \"HeirsAdministration.sol\":94:150  mapping(address => address[]) public pendingInheritances */\n    tag_8:\n      tag_16\n      tag_34\n      calldatasize\n      0x04\n      tag_18\n      jump\t// in\n    tag_34:\n      tag_35\n      jump\t// in\n        /* \"HeirsAdministration.sol\":1551:1680  function hasRejectedInheritances() public view returns (bool) {... */\n    tag_9:\n        /* \"HeirsAdministration.sol\":1651:1661  msg.sender */\n      caller\n        /* \"HeirsAdministration.sol\":1607:1611  bool */\n      0x00\n        /* \"HeirsAdministration.sol\":1630:1662  rejectedInheritances[msg.sender] */\n      swap1\n      dup2\n      mstore\n        /* \"HeirsAdministration.sol\":1630:1650  rejectedInheritances */\n      0x01\n        /* \"HeirsAdministration.sol\":1630:1662  rejectedInheritances[msg.sender] */\n      0x20\n      mstore\n      0x40\n      swap1\n      keccak256\n        /* \"HeirsAdministration.sol\":1630:1669  rejectedInheritances[msg.sender].length */\n      sload\n        /* \"HeirsAdministration.sol\":1630:1673  rejectedInheritances[msg.sender].length > 0 */\n      iszero\n      iszero\n        /* \"HeirsAdministration.sol\":1551:1680  function hasRejectedInheritances() public view returns (bool) {... */\n      jump(tag_29)\n        /* \"HeirsAdministration.sol\":1282:1412  function getRejectedInheritances() public view returns (address[] memory) {... */\n    tag_10:\n      tag_12\n      tag_41\n      jump\t// in\n        /* \"HeirsAdministration.sol\":1148:1276  function getPendingInheritances() public view returns (address[] memory) {... */\n    tag_13:\n        /* \"HeirsAdministration.sol\":1258:1268  msg.sender */\n      caller\n        /* \"HeirsAdministration.sol\":1238:1257  pendingInheritances */\n      0x00\n        /* \"HeirsAdministration.sol\":1238:1269  pendingInheritances[msg.sender] */\n      swap1\n      dup2\n      mstore\n      0x20\n      dup2\n      dup2\n      mstore\n      0x40\n      swap2\n      dup3\n      swap1\n      keccak256\n        /* \"HeirsAdministration.sol\":1231:1269  return pendingInheritances[msg.sender] */\n      dup1\n      sload\n      dup4\n      mload\n      dup2\n      dup5\n      mul\n      dup2\n      add\n      dup5\n      add\n      swap1\n      swap5\n      mstore\n      dup1\n      dup5\n      mstore\n        /* \"HeirsAdministration.sol\":1203:1219  address[] memory */\n      0x60\n      swap4\n        /* \"HeirsAdministration.sol\":1231:1269  return pendingInheritances[msg.sender] */\n      swap3\n      dup4\n      add\n        /* \"HeirsAdministration.sol\":1238:1269  pendingInheritances[msg.sender] */\n      dup3\n        /* \"HeirsAdministration.sol\":1231:1269  return pendingInheritances[msg.sender] */\n      dup3\n      dup1\n      iszero\n      tag_44\n      jumpi\n      0x20\n      mul\n      dup3\n      add\n      swap2\n      swap1\n      0x00\n      mstore\n      keccak256(0x00, 0x20)\n      swap1\n    tag_45:\n      dup2\n      sload\n      sub(shl(0xa0, 0x01), 0x01)\n      and\n      dup2\n      mstore\n      0x01\n      swap1\n      swap2\n      add\n      swap1\n      0x20\n      add\n      dup1\n      dup4\n      gt\n      tag_45\n      jumpi\n    tag_44:\n      pop\n      pop\n      pop\n      pop\n      pop\n      swap1\n      pop\n        /* \"HeirsAdministration.sol\":1148:1276  function getPendingInheritances() public view returns (address[] memory) {... */\n      swap1\n      jump\t// out\n        /* \"HeirsAdministration.sol\":206:263  mapping(address => address[]) public rejectedInheritances */\n    tag_19:\n      mstore(0x20, 0x01)\n      dup2\n      0x00\n      mstore\n      keccak256(0x00, 0x40)\n      dup2\n      dup2\n      sload\n      dup2\n      lt\n      tag_46\n      jumpi\n      0x00\n      dup1\n      revert\n    tag_46:\n      0x00\n      swap2\n      dup3\n      mstore\n      0x20\n      swap1\n      swap2\n      keccak256\n      add\n      sload\n      sub(shl(0xa0, 0x01), 0x01)\n      and\n      swap2\n      pop\n      dup3\n      swap1\n      pop\n      jump\t// out\n        /* \"HeirsAdministration.sol\":652:1118  function removePendingInheritance(address _inheritance) public {... */\n    tag_25:\n        /* \"HeirsAdministration.sol\":730:736  uint i */\n      0x00\n        /* \"HeirsAdministration.sol\":725:1112  for (uint i = 0; i < pendingInheritances[msg.sender].length; i++) {... */\n    tag_49:\n        /* \"HeirsAdministration.sol\":766:776  msg.sender */\n      caller\n        /* \"HeirsAdministration.sol\":746:765  pendingInheritances */\n      0x00\n        /* \"HeirsAdministration.sol\":746:777  pendingInheritances[msg.sender] */\n      swap1\n      dup2\n      mstore\n      0x20\n      dup2\n      swap1\n      mstore\n      0x40\n      swap1\n      keccak256\n        /* \"HeirsAdministration.sol\":746:784  pendingInheritances[msg.sender].length */\n      sload\n        /* \"HeirsAdministration.sol\":742:784  i < pendingInheritances[msg.sender].length */\n      dup2\n      lt\n        /* \"HeirsAdministration.sol\":725:1112  for (uint i = 0; i < pendingInheritances[msg.sender].length; i++) {... */\n      iszero\n      tag_50\n      jumpi\n        /* \"HeirsAdministration.sol\":829:839  msg.sender */\n      caller\n        /* \"HeirsAdministration.sol\":809:828  pendingInheritances */\n      0x00\n        /* \"HeirsAdministration.sol\":809:840  pendingInheritances[msg.sender] */\n      swap1\n      dup2\n      mstore\n      0x20\n      dup2\n      swap1\n      mstore\n      0x40\n      swap1\n      keccak256\n        /* \"HeirsAdministration.sol\":809:843  pendingInheritances[msg.sender][i] */\n      dup1\n      sload\n      sub(shl(0xa0, 0x01), 0x01)\n        /* \"HeirsAdministration.sol\":809:859  pendingInheritances[msg.sender][i] == _inheritance */\n      dup5\n      and\n      swap2\n        /* \"HeirsAdministration.sol\":809:840  pendingInheritances[msg.sender] */\n      swap1\n        /* \"HeirsAdministration.sol\":841:842  i */\n      dup4\n      swap1\n        /* \"HeirsAdministration.sol\":809:843  pendingInheritances[msg.sender][i] */\n      dup2\n      lt\n      tag_53\n      jumpi\n      tag_53\n      tag_54\n      jump\t// in\n    tag_53:\n      0x00\n      swap2\n      dup3\n      mstore\n      0x20\n      swap1\n      swap2\n      keccak256\n      add\n      sload\n      sub(shl(0xa0, 0x01), 0x01)\n      and\n        /* \"HeirsAdministration.sol\":809:859  pendingInheritances[msg.sender][i] == _inheritance */\n      sub\n        /* \"HeirsAdministration.sol\":805:1102  if (pendingInheritances[msg.sender][i] == _inheritance) {... */\n      tag_56\n      jumpi\n        /* \"HeirsAdministration.sol\":900:910  msg.sender */\n      caller\n        /* \"HeirsAdministration.sol\":879:911  rejectedInheritances[msg.sender] */\n      0x00\n      dup2\n      dup2\n      mstore\n        /* \"HeirsAdministration.sol\":879:899  rejectedInheritances */\n      0x01\n        /* \"HeirsAdministration.sol\":879:911  rejectedInheritances[msg.sender] */\n      0x20\n      dup2\n      dup2\n      mstore\n      0x40\n      dup1\n      dup5\n      keccak256\n        /* \"HeirsAdministration.sol\":879:930  rejectedInheritances[msg.sender].push(_inheritance) */\n      dup1\n      sload\n      swap4\n      dup5\n      add\n      dup2\n      sstore\n      dup5\n      mstore\n      dup2\n      dup5\n      keccak256\n      swap1\n      swap3\n      add\n      dup1\n      sload\n      not(sub(shl(0xa0, 0x01), 0x01))\n      and\n      sub(shl(0xa0, 0x01), 0x01)\n      dup9\n      and\n      or\n      swap1\n      sstore\n        /* \"HeirsAdministration.sol\":955:986  pendingInheritances[msg.sender] */\n      swap3\n      dup3\n      mstore\n      swap2\n      dup2\n      swap1\n      mstore\n      keccak256\n        /* \"HeirsAdministration.sol\":955:989  pendingInheritances[msg.sender][i] */\n      dup1\n      sload\n        /* \"HeirsAdministration.sol\":987:988  i */\n      dup3\n      swap1\n        /* \"HeirsAdministration.sol\":955:989  pendingInheritances[msg.sender][i] */\n      dup2\n      lt\n      tag_59\n      jumpi\n      tag_59\n      tag_54\n      jump\t// in\n    tag_59:\n      0x00\n      swap2\n      dup3\n      mstore\n      0x20\n      dup3\n      keccak256\n      add\n        /* \"HeirsAdministration.sol\":948:989  delete pendingInheritances[msg.sender][i] */\n      dup1\n      sload\n      not(sub(shl(0xa0, 0x01), 0x01))\n      and\n      swap1\n      sstore\n        /* \"HeirsAdministration.sol\":1013:1064  PendingInheritanceRemoved(msg.sender, _inheritance) */\n      mload(0x40)\n      sub(shl(0xa0, 0x01), 0x01)\n      dup5\n      and\n      swap2\n        /* \"HeirsAdministration.sol\":1039:1049  msg.sender */\n      caller\n      swap2\n        /* \"HeirsAdministration.sol\":1013:1064  PendingInheritanceRemoved(msg.sender, _inheritance) */\n      0x0fb512a92f714e8e3654396c8b45900300a83520e047c58fb3fed73d2c31ec7f\n      swap2\n        /* \"HeirsAdministration.sol\":955:989  pendingInheritances[msg.sender][i] */\n      swap1\n        /* \"HeirsAdministration.sol\":1013:1064  PendingInheritanceRemoved(msg.sender, _inheritance) */\n      log3\n        /* \"HeirsAdministration.sol\":725:1112  for (uint i = 0; i < pendingInheritances[msg.sender].length; i++) {... */\n      pop\n        /* \"HeirsAdministration.sol\":652:1118  function removePendingInheritance(address _inheritance) public {... */\n      pop\n      jump\t// out\n        /* \"HeirsAdministration.sol\":805:1102  if (pendingInheritances[msg.sender][i] == _inheritance) {... */\n    tag_56:\n        /* \"HeirsAdministration.sol\":786:789  i++ */\n      dup1\n      tag_61\n      dup2\n      tag_62\n      jump\t// in\n    tag_61:\n      swap2\n      pop\n      pop\n        /* \"HeirsAdministration.sol\":725:1112  for (uint i = 0; i < pendingInheritances[msg.sender].length; i++) {... */\n      jump(tag_49)\n    tag_50:\n      pop\n        /* \"HeirsAdministration.sol\":652:1118  function removePendingInheritance(address _inheritance) public {... */\n      pop\n      jump\t// out\n        /* \"HeirsAdministration.sol\":413:646  function addPendingInheritance(address _inheritance) public {... */\n    tag_28:\n        /* \"HeirsAdministration.sol\":511:521  msg.sender */\n      caller\n        /* \"HeirsAdministration.sol\":491:510  pendingInheritances */\n      0x00\n        /* \"HeirsAdministration.sol\":491:522  pendingInheritances[msg.sender] */\n      swap1\n      dup2\n      mstore\n      0x20\n      dup2\n      swap1\n      mstore\n      0x40\n      swap1\n      keccak256\n        /* \"HeirsAdministration.sol\":491:529  pendingInheritances[msg.sender].length */\n      sload\n        /* \"HeirsAdministration.sol\":532:533  3 */\n      0x03\n      gt\n        /* \"HeirsAdministration.sol\":483:579  require(pendingInheritances[msg.sender].length < 3, \"You can only request up to 3 inheritances\") */\n      tag_64\n      jumpi\n      mload(0x40)\n      shl(0xe5, 0x461bcd)\n      dup2\n      mstore\n        /* \"#utility.yul\":2276:2278   */\n      0x20\n        /* \"HeirsAdministration.sol\":483:579  require(pendingInheritances[msg.sender].length < 3, \"You can only request up to 3 inheritances\") */\n      0x04\n      dup3\n      add\n        /* \"#utility.yul\":2258:2279   */\n      mstore\n        /* \"#utility.yul\":2315:2317   */\n      0x29\n        /* \"#utility.yul\":2295:2313   */\n      0x24\n      dup3\n      add\n        /* \"#utility.yul\":2288:2318   */\n      mstore\n        /* \"#utility.yul\":2354:2388   */\n      0x596f752063616e206f6e6c79207265717565737420757020746f203320696e68\n        /* \"#utility.yul\":2334:2352   */\n      0x44\n      dup3\n      add\n        /* \"#utility.yul\":2327:2389   */\n      mstore\n      shl(0xb8, 0x65726974616e636573)\n        /* \"#utility.yul\":2405:2423   */\n      0x64\n      dup3\n      add\n        /* \"#utility.yul\":2398:2437   */\n      mstore\n        /* \"#utility.yul\":2454:2473   */\n      0x84\n      add\n        /* \"HeirsAdministration.sol\":483:579  require(pendingInheritances[msg.sender].length < 3, \"You can only request up to 3 inheritances\") */\n      mload(0x40)\n      dup1\n      swap2\n      sub\n      swap1\n      revert\n    tag_64:\n        /* \"HeirsAdministration.sol\":609:619  msg.sender */\n      caller\n        /* \"HeirsAdministration.sol\":589:608  pendingInheritances */\n      0x00\n        /* \"HeirsAdministration.sol\":589:620  pendingInheritances[msg.sender] */\n      swap1\n      dup2\n      mstore\n      0x20\n      dup2\n      dup2\n      mstore\n      0x40\n      dup3\n      keccak256\n        /* \"HeirsAdministration.sol\":589:639  pendingInheritances[msg.sender].push(_inheritance) */\n      dup1\n      sload\n      0x01\n      dup2\n      add\n      dup3\n      sstore\n      swap1\n      dup4\n      mstore\n      swap2\n      keccak256\n      add\n      dup1\n      sload\n      not(sub(shl(0xa0, 0x01), 0x01))\n      and\n      sub(shl(0xa0, 0x01), 0x01)\n      swap3\n      swap1\n      swap3\n      and\n      swap2\n      swap1\n      swap2\n      or\n      swap1\n      sstore\n        /* \"HeirsAdministration.sol\":413:646  function addPendingInheritance(address _inheritance) public {... */\n      jump\t// out\n        /* \"HeirsAdministration.sol\":94:150  mapping(address => address[]) public pendingInheritances */\n    tag_35:\n      mstore(0x20, 0x00)\n      dup2\n      0x00\n      mstore\n      keccak256(0x00, 0x40)\n      dup2\n      dup2\n      sload\n      dup2\n      lt\n      tag_46\n      jumpi\n      0x00\n      dup1\n      revert\n        /* \"HeirsAdministration.sol\":1282:1412  function getRejectedInheritances() public view returns (address[] memory) {... */\n    tag_41:\n        /* \"HeirsAdministration.sol\":1394:1404  msg.sender */\n      caller\n        /* \"HeirsAdministration.sol\":1373:1405  rejectedInheritances[msg.sender] */\n      0x00\n      swap1\n      dup2\n      mstore\n        /* \"HeirsAdministration.sol\":1373:1393  rejectedInheritances */\n      0x01\n        /* \"HeirsAdministration.sol\":1373:1405  rejectedInheritances[msg.sender] */\n      0x20\n      swap1\n      dup2\n      mstore\n      0x40\n      swap2\n      dup3\n      swap1\n      keccak256\n        /* \"HeirsAdministration.sol\":1366:1405  return rejectedInheritances[msg.sender] */\n      dup1\n      sload\n      dup4\n      mload\n      dup2\n      dup5\n      mul\n      dup2\n      add\n      dup5\n      add\n      swap1\n      swap5\n      mstore\n      dup1\n      dup5\n      mstore\n        /* \"HeirsAdministration.sol\":1338:1354  address[] memory */\n      0x60\n      swap4\n        /* \"HeirsAdministration.sol\":1366:1405  return rejectedInheritances[msg.sender] */\n      swap3\n      dup4\n      add\n        /* \"HeirsAdministration.sol\":1373:1405  rejectedInheritances[msg.sender] */\n      dup3\n        /* \"HeirsAdministration.sol\":1366:1405  return rejectedInheritances[msg.sender] */\n      dup3\n      dup1\n      iszero\n      tag_44\n      jumpi\n      0x20\n      mul\n      dup3\n      add\n      swap2\n      swap1\n      0x00\n      mstore\n      keccak256(0x00, 0x20)\n      swap1\n      dup2\n      sload\n      sub(shl(0xa0, 0x01), 0x01)\n      and\n      dup2\n      mstore\n      0x01\n      swap1\n      swap2\n      add\n      swap1\n      0x20\n      add\n      dup1\n      dup4\n      gt\n      tag_45\n      jumpi\n      pop\n      pop\n      pop\n      pop\n      pop\n      swap1\n      pop\n        /* \"HeirsAdministration.sol\":1282:1412  function getRejectedInheritances() public view returns (address[] memory) {... */\n      swap1\n      jump\t// out\n        /* \"#utility.yul\":14:672   */\n    tag_15:\n        /* \"#utility.yul\":185:187   */\n      0x20\n        /* \"#utility.yul\":237:258   */\n      dup1\n      dup3\n      mstore\n        /* \"#utility.yul\":307:320   */\n      dup3\n      mload\n        /* \"#utility.yul\":210:228   */\n      dup3\n      dup3\n      add\n        /* \"#utility.yul\":329:351   */\n      dup2\n      swap1\n      mstore\n        /* \"#utility.yul\":156:160   */\n      0x00\n      swap2\n        /* \"#utility.yul\":185:187   */\n      swap1\n        /* \"#utility.yul\":408:423   */\n      dup5\n      dup3\n      add\n      swap1\n        /* \"#utility.yul\":382:384   */\n      0x40\n        /* \"#utility.yul\":367:385   */\n      dup6\n      add\n      swap1\n        /* \"#utility.yul\":156:160   */\n      dup5\n        /* \"#utility.yul\":451:646   */\n    tag_78:\n        /* \"#utility.yul\":465:471   */\n      dup2\n        /* \"#utility.yul\":462:463   */\n      dup2\n        /* \"#utility.yul\":459:472   */\n      lt\n        /* \"#utility.yul\":451:646   */\n      iszero\n      tag_80\n      jumpi\n        /* \"#utility.yul\":530:543   */\n      dup4\n      mload\n      sub(shl(0xa0, 0x01), 0x01)\n        /* \"#utility.yul\":526:565   */\n      and\n        /* \"#utility.yul\":514:566   */\n      dup4\n      mstore\n        /* \"#utility.yul\":621:636   */\n      swap3\n      dup5\n      add\n      swap3\n        /* \"#utility.yul\":586:598   */\n      swap2\n      dup5\n      add\n      swap2\n        /* \"#utility.yul\":562:563   */\n      0x01\n        /* \"#utility.yul\":480:489   */\n      add\n        /* \"#utility.yul\":451:646   */\n      jump(tag_78)\n    tag_80:\n      pop\n        /* \"#utility.yul\":663:666   */\n      swap1\n      swap7\n        /* \"#utility.yul\":14:672   */\n      swap6\n      pop\n      pop\n      pop\n      pop\n      pop\n      pop\n      jump\t// out\n        /* \"#utility.yul\":677:850   */\n    tag_75:\n        /* \"#utility.yul\":745:765   */\n      dup1\n      calldataload\n      sub(shl(0xa0, 0x01), 0x01)\n        /* \"#utility.yul\":794:825   */\n      dup2\n      and\n        /* \"#utility.yul\":784:826   */\n      dup2\n      eq\n        /* \"#utility.yul\":774:844   */\n      tag_82\n      jumpi\n        /* \"#utility.yul\":840:841   */\n      0x00\n        /* \"#utility.yul\":837:838   */\n      dup1\n        /* \"#utility.yul\":830:842   */\n      revert\n        /* \"#utility.yul\":774:844   */\n    tag_82:\n        /* \"#utility.yul\":677:850   */\n      swap2\n      swap1\n      pop\n      jump\t// out\n        /* \"#utility.yul\":855:1109   */\n    tag_18:\n        /* \"#utility.yul\":923:929   */\n      0x00\n        /* \"#utility.yul\":931:937   */\n      dup1\n        /* \"#utility.yul\":984:986   */\n      0x40\n        /* \"#utility.yul\":972:981   */\n      dup4\n        /* \"#utility.yul\":963:970   */\n      dup6\n        /* \"#utility.yul\":959:982   */\n      sub\n        /* \"#utility.yul\":955:987   */\n      slt\n        /* \"#utility.yul\":952:1004   */\n      iszero\n      tag_84\n      jumpi\n        /* \"#utility.yul\":1000:1001   */\n      0x00\n        /* \"#utility.yul\":997:998   */\n      dup1\n        /* \"#utility.yul\":990:1002   */\n      revert\n        /* \"#utility.yul\":952:1004   */\n    tag_84:\n        /* \"#utility.yul\":1023:1052   */\n      tag_85\n        /* \"#utility.yul\":1042:1051   */\n      dup4\n        /* \"#utility.yul\":1023:1052   */\n      tag_75\n      jump\t// in\n    tag_85:\n        /* \"#utility.yul\":1013:1052   */\n      swap5\n        /* \"#utility.yul\":1099:1101   */\n      0x20\n        /* \"#utility.yul\":1084:1102   */\n      swap4\n      swap1\n      swap4\n      add\n        /* \"#utility.yul\":1071:1103   */\n      calldataload\n      swap4\n      pop\n      pop\n      pop\n        /* \"#utility.yul\":855:1109   */\n      jump\t// out\n        /* \"#utility.yul\":1322:1508   */\n    tag_24:\n        /* \"#utility.yul\":1381:1387   */\n      0x00\n        /* \"#utility.yul\":1434:1436   */\n      0x20\n        /* \"#utility.yul\":1422:1431   */\n      dup3\n        /* \"#utility.yul\":1413:1420   */\n      dup5\n        /* \"#utility.yul\":1409:1432   */\n      sub\n        /* \"#utility.yul\":1405:1437   */\n      slt\n        /* \"#utility.yul\":1402:1454   */\n      iszero\n      tag_88\n      jumpi\n        /* \"#utility.yul\":1450:1451   */\n      0x00\n        /* \"#utility.yul\":1447:1448   */\n      dup1\n        /* \"#utility.yul\":1440:1452   */\n      revert\n        /* \"#utility.yul\":1402:1454   */\n    tag_88:\n        /* \"#utility.yul\":1473:1502   */\n      tag_89\n        /* \"#utility.yul\":1492:1501   */\n      dup3\n        /* \"#utility.yul\":1473:1502   */\n      tag_75\n      jump\t// in\n    tag_89:\n        /* \"#utility.yul\":1463:1502   */\n      swap4\n        /* \"#utility.yul\":1322:1508   */\n      swap3\n      pop\n      pop\n      pop\n      jump\t// out\n        /* \"#utility.yul\":1705:1832   */\n    tag_54:\n        /* \"#utility.yul\":1766:1776   */\n      0x4e487b71\n        /* \"#utility.yul\":1761:1764   */\n      0xe0\n        /* \"#utility.yul\":1757:1777   */\n      shl\n        /* \"#utility.yul\":1754:1755   */\n      0x00\n        /* \"#utility.yul\":1747:1778   */\n      mstore\n        /* \"#utility.yul\":1797:1801   */\n      0x32\n        /* \"#utility.yul\":1794:1795   */\n      0x04\n        /* \"#utility.yul\":1787:1802   */\n      mstore\n        /* \"#utility.yul\":1821:1825   */\n      0x24\n        /* \"#utility.yul\":1818:1819   */\n      0x00\n        /* \"#utility.yul\":1811:1826   */\n      revert\n        /* \"#utility.yul\":1837:2069   */\n    tag_62:\n        /* \"#utility.yul\":1876:1879   */\n      0x00\n        /* \"#utility.yul\":1897:1914   */\n      0x01\n      dup3\n      add\n        /* \"#utility.yul\":1894:2034   */\n      tag_93\n      jumpi\n        /* \"#utility.yul\":1956:1966   */\n      0x4e487b71\n        /* \"#utility.yul\":1951:1954   */\n      0xe0\n        /* \"#utility.yul\":1947:1967   */\n      shl\n        /* \"#utility.yul\":1944:1945   */\n      0x00\n        /* \"#utility.yul\":1937:1968   */\n      mstore\n        /* \"#utility.yul\":1991:1995   */\n      0x11\n        /* \"#utility.yul\":1988:1989   */\n      0x04\n        /* \"#utility.yul\":1981:1996   */\n      mstore\n        /* \"#utility.yul\":2019:2023   */\n      0x24\n        /* \"#utility.yul\":2016:2017   */\n      0x00\n        /* \"#utility.yul\":2009:2024   */\n      revert\n        /* \"#utility.yul\":1894:2034   */\n    tag_93:\n      pop\n        /* \"#utility.yul\":2061:2062   */\n      0x01\n        /* \"#utility.yul\":2050:2063   */\n      add\n      swap1\n        /* \"#utility.yul\":1837:2069   */\n      jump\t// out\n\n    auxdata: 0xa26469706673582212209c84578ab3ba17251225b16193911250b407383a11469b95d65a991c4164abd764736f6c63430008130033\n}\n","bytecode":{"linkReferences":{},"object":"608060405234801561001057600080fd5b5061056e806100206000396000f3fe608060405234801561001057600080fd5b50600436106100885760003560e01c806352466cba1161005b57806352466cba146100fe5780638a9dab38146101215780638c7a6c6514610134578063b45f0dbd1461014b57600080fd5b80631e55feca1461008d57806324d02dc5146100ab578063449fd1b2146100d65780634fd4bacd146100eb575b600080fd5b610095610153565b6040516100a29190610446565b60405180910390f35b6100be6100b93660046104af565b6101bc565b6040516001600160a01b0390911681526020016100a2565b6100e96100e43660046104d9565b6101f4565b005b6100e96100f93660046104d9565b61030f565b3360009081526020819052604090205415155b60405190151581526020016100a2565b6100be61012f3660046104af565b6103c1565b336000908152600160205260409020541515610111565b6100956103dd565b33600090815260208181526040918290208054835181840281018401909452808452606093928301828280156101b257602002820191906000526020600020905b81546001600160a01b03168152600190910190602001808311610194575b5050505050905090565b600160205281600052604060002081815481106101d857600080fd5b6000918252602090912001546001600160a01b03169150829050565b60005b3360009081526020819052604090205481101561030b5733600090815260208190526040902080546001600160a01b03841691908390811061023b5761023b6104fb565b6000918252602090912001546001600160a01b0316036102f95733600081815260016020818152604080842080549384018155845281842090920180546001600160a01b0319166001600160a01b03881617905592825291819052208054829081106102a9576102a96104fb565b6000918252602082200180546001600160a01b03191690556040516001600160a01b0384169133917f0fb512a92f714e8e3654396c8b45900300a83520e047c58fb3fed73d2c31ec7f9190a35050565b8061030381610511565b9150506101f7565b5050565b336000908152602081905260409020546003116103845760405162461bcd60e51b815260206004820152602960248201527f596f752063616e206f6e6c79207265717565737420757020746f203320696e6860448201526865726974616e63657360b81b606482015260840160405180910390fd5b336000908152602081815260408220805460018101825590835291200180546001600160a01b0319166001600160a01b0392909216919091179055565b600060205281600052604060002081815481106101d857600080fd5b336000908152600160209081526040918290208054835181840281018401909452808452606093928301828280156101b2576020028201919060005260206000209081546001600160a01b03168152600190910190602001808311610194575050505050905090565b6020808252825182820181905260009190848201906040850190845b818110156104875783516001600160a01b031683529284019291840191600101610462565b50909695505050505050565b80356001600160a01b03811681146104aa57600080fd5b919050565b600080604083850312156104c257600080fd5b6104cb83610493565b946020939093013593505050565b6000602082840312156104eb57600080fd5b6104f482610493565b9392505050565b634e487b7160e01b600052603260045260246000fd5b60006001820161053157634e487b7160e01b600052601160045260246000fd5b506001019056fea26469706673582212209c84578ab3ba17251225b16193911250b407383a11469b95d65a991c4164abd764736f6c63430008130033","opcodes":"PUSH1 0x80 PUSH1 0x40 MSTORE CALLVALUE DUP1 ISZERO PUSH2 0x10 JUMPI PUSH1 0x0 DUP1 REVERT JUMPDEST POP PUSH2 0x56E DUP1 PUSH2 0x20 PUSH1 0x0 CODECOPY PUSH1 0x0 RETURN INVALID PUSH1 0x80 PUSH1 0x40 MSTORE CALLVALUE DUP1 ISZERO PUSH2 0x10 JUMPI PUSH1 0x0 DUP1 REVERT JUMPDEST POP PUSH1 0x4 CALLDATASIZE LT PUSH2 0x88 JUMPI PUSH1 0x0 CALLDATALOAD PUSH1 0xE0 SHR DUP1 PUSH4 0x52466CBA GT PUSH2 0x5B JUMPI DUP1 PUSH4 0x52466CBA EQ PUSH2 0xFE JUMPI DUP1 PUSH4 0x8A9DAB38 EQ PUSH2 0x121 JUMPI DUP1 PUSH4 0x8C7A6C65 EQ PUSH2 0x134 JUMPI DUP1 PUSH4 0xB45F0DBD EQ PUSH2 0x14B JUMPI PUSH1 0x0 DUP1 REVERT JUMPDEST DUP1 PUSH4 0x1E55FECA EQ PUSH2 0x8D JUMPI DUP1 PUSH4 0x24D02DC5 EQ PUSH2 0xAB JUMPI DUP1 PUSH4 0x449FD1B2 EQ PUSH2 0xD6 JUMPI DUP1 PUSH4 0x4FD4BACD EQ PUSH2 0xEB JUMPI JUMPDEST PUSH1 0x0 DUP1 REVERT JUMPDEST PUSH2 0x95 PUSH2 0x153 JUMP JUMPDEST PUSH1 0x40 MLOAD PUSH2 0xA2 SWAP2 SWAP1 PUSH2 0x446 JUMP JUMPDEST PUSH1 0x40 MLOAD DUP1 SWAP2 SUB SWAP1 RETURN JUMPDEST PUSH2 0xBE PUSH2 0xB9 CALLDATASIZE PUSH1 0x4 PUSH2 0x4AF JUMP JUMPDEST PUSH2 0x1BC JUMP JUMPDEST PUSH1 0x40 MLOAD PUSH1 0x1 PUSH1 0x1 PUSH1 0xA0 SHL SUB SWAP1 SWAP2 AND DUP2 MSTORE PUSH1 0x20 ADD PUSH2 0xA2 JUMP JUMPDEST PUSH2 0xE9 PUSH2 0xE4 CALLDATASIZE PUSH1 0x4 PUSH2 0x4D9 JUMP JUMPDEST PUSH2 0x1F4 JUMP JUMPDEST STOP JUMPDEST PUSH2 0xE9 PUSH2 0xF9 CALLDATASIZE PUSH1 0x4 PUSH2 0x4D9 JUMP JUMPDEST PUSH2 0x30F JUMP JUMPDEST CALLER PUSH1 0x0 SWAP1 DUP2 MSTORE PUSH1 0x20 DUP2 SWAP1 MSTORE PUSH1 0x40 SWAP1 KECCAK256 SLOAD ISZERO ISZERO JUMPDEST PUSH1 0x40 MLOAD SWAP1 ISZERO ISZERO DUP2 MSTORE PUSH1 0x20 ADD PUSH2 0xA2 JUMP JUMPDEST PUSH2 0xBE PUSH2 0x12F CALLDATASIZE PUSH1 0x4 PUSH2 0x4AF JUMP JUMPDEST PUSH2 0x3C1 JUMP JUMPDEST CALLER PUSH1 0x0 SWAP1 DUP2 MSTORE PUSH1 0x1 PUSH1 0x20 MSTORE PUSH1 0x40 SWAP1 KECCAK256 SLOAD ISZERO ISZERO PUSH2 0x111 JUMP JUMPDEST PUSH2 0x95 PUSH2 0x3DD JUMP JUMPDEST CALLER PUSH1 0x0 SWAP1 DUP2 MSTORE PUSH1 0x20 DUP2 DUP2 MSTORE PUSH1 0x40 SWAP2 DUP3 SWAP1 KECCAK256 DUP1 SLOAD DUP4 MLOAD DUP2 DUP5 MUL DUP2 ADD DUP5 ADD SWAP1 SWAP5 MSTORE DUP1 DUP5 MSTORE PUSH1 0x60 SWAP4 SWAP3 DUP4 ADD DUP3 DUP3 DUP1 ISZERO PUSH2 0x1B2 JUMPI PUSH1 0x20 MUL DUP3 ADD SWAP2 SWAP1 PUSH1 0x0 MSTORE PUSH1 0x20 PUSH1 0x0 KECCAK256 SWAP1 JUMPDEST DUP2 SLOAD PUSH1 0x1 PUSH1 0x1 PUSH1 0xA0 SHL SUB AND DUP2 MSTORE PUSH1 0x1 SWAP1 SWAP2 ADD SWAP1 PUSH1 0x20 ADD DUP1 DUP4 GT PUSH2 0x194 JUMPI JUMPDEST POP POP POP POP POP SWAP1 POP SWAP1 JUMP JUMPDEST PUSH1 0x1 PUSH1 0x20 MSTORE DUP2 PUSH1 0x0 MSTORE PUSH1 0x40 PUSH1 0x0 KECCAK256 DUP2 DUP2 SLOAD DUP2 LT PUSH2 0x1D8 JUMPI PUSH1 0x0 DUP1 REVERT JUMPDEST PUSH1 0x0 SWAP2 DUP3 MSTORE PUSH1 0x20 SWAP1 SWAP2 KECCAK256 ADD SLOAD PUSH1 0x1 PUSH1 0x1 PUSH1 0xA0 SHL SUB AND SWAP2 POP DUP3 SWAP1 POP JUMP JUMPDEST PUSH1 0x0 JUMPDEST CALLER PUSH1 0x0 SWAP1 DUP2 MSTORE PUSH1 0x20 DUP2 SWAP1 MSTORE PUSH1 0x40 SWAP1 KECCAK256 SLOAD DUP2 LT ISZERO PUSH2 0x30B JUMPI CALLER PUSH1 0x0 SWAP1 DUP2 MSTORE PUSH1 0x20 DUP2 SWAP1 MSTORE PUSH1 0x40 SWAP1 KECCAK256 DUP1 SLOAD PUSH1 0x1 PUSH1 0x1 PUSH1 0xA0 SHL SUB DUP5 AND SWAP2 SWAP1 DUP4 SWAP1 DUP2 LT PUSH2 0x23B JUMPI PUSH2 0x23B PUSH2 0x4FB JUMP JUMPDEST PUSH1 0x0 SWAP2 DUP3 MSTORE PUSH1 0x20 SWAP1 SWAP2 KECCAK256 ADD SLOAD PUSH1 0x1 PUSH1 0x1 PUSH1 0xA0 SHL SUB AND SUB PUSH2 0x2F9 JUMPI CALLER PUSH1 0x0 DUP2 DUP2 MSTORE PUSH1 0x1 PUSH1 0x20 DUP2 DUP2 MSTORE PUSH1 0x40 DUP1 DUP5 KECCAK256 DUP1 SLOAD SWAP4 DUP5 ADD DUP2 SSTORE DUP5 MSTORE DUP2 DUP5 KECCAK256 SWAP1 SWAP3 ADD DUP1 SLOAD PUSH1 0x1 PUSH1 0x1 PUSH1 0xA0 SHL SUB NOT AND PUSH1 0x1 PUSH1 0x1 PUSH1 0xA0 SHL SUB DUP9 AND OR SWAP1 SSTORE SWAP3 DUP3 MSTORE SWAP2 DUP2 SWAP1 MSTORE KECCAK256 DUP1 SLOAD DUP3 SWAP1 DUP2 LT PUSH2 0x2A9 JUMPI PUSH2 0x2A9 PUSH2 0x4FB JUMP JUMPDEST PUSH1 0x0 SWAP2 DUP3 MSTORE PUSH1 0x20 DUP3 KECCAK256 ADD DUP1 SLOAD PUSH1 0x1 PUSH1 0x1 PUSH1 0xA0 SHL SUB NOT AND SWAP1 SSTORE PUSH1 0x40 MLOAD PUSH1 0x1 PUSH1 0x1 PUSH1 0xA0 SHL SUB DUP5 AND SWAP2 CALLER SWAP2 PUSH32 0xFB512A92F714E8E3654396C8B45900300A83520E047C58FB3FED73D2C31EC7F SWAP2 SWAP1 LOG3 POP POP JUMP JUMPDEST DUP1 PUSH2 0x303 DUP2 PUSH2 0x511 JUMP JUMPDEST SWAP2 POP POP PUSH2 0x1F7 JUMP JUMPDEST POP POP JUMP JUMPDEST CALLER PUSH1 0x0 SWAP1 DUP2 MSTORE PUSH1 0x20 DUP2 SWAP1 MSTORE PUSH1 0x40 SWAP1 KECCAK256 SLOAD PUSH1 0x3 GT PUSH2 0x384 JUMPI PUSH1 0x40 MLOAD PUSH3 0x461BCD PUSH1 0xE5 SHL DUP2 MSTORE PUSH1 0x20 PUSH1 0x4 DUP3 ADD MSTORE PUSH1 0x29 PUSH1 0x24 DUP3 ADD MSTORE PUSH32 0x596F752063616E206F6E6C79207265717565737420757020746F203320696E68 PUSH1 0x44 DUP3 ADD MSTORE PUSH9 0x65726974616E636573 PUSH1 0xB8 SHL PUSH1 0x64 DUP3 ADD MSTORE PUSH1 0x84 ADD PUSH1 0x40 MLOAD DUP1 SWAP2 SUB SWAP1 REVERT JUMPDEST CALLER PUSH1 0x0 SWAP1 DUP2 MSTORE PUSH1 0x20 DUP2 DUP2 MSTORE PUSH1 0x40 DUP3 KECCAK256 DUP1 SLOAD PUSH1 0x1 DUP2 ADD DUP3 SSTORE SWAP1 DUP4 MSTORE SWAP2 KECCAK256 ADD DUP1 SLOAD PUSH1 0x1 PUSH1 0x1 PUSH1 0xA0 SHL SUB NOT AND PUSH1 0x1 PUSH1 0x1 PUSH1 0xA0 SHL SUB SWAP3 SWAP1 SWAP3 AND SWAP2 SWAP1 SWAP2 OR SWAP1 SSTORE JUMP JUMPDEST PUSH1 0x0 PUSH1 0x20 MSTORE DUP2 PUSH1 0x0 MSTORE PUSH1 0x40 PUSH1 0x0 KECCAK256 DUP2 DUP2 SLOAD DUP2 LT PUSH2 0x1D8 JUMPI PUSH1 0x0 DUP1 REVERT JUMPDEST CALLER PUSH1 0x0 SWAP1 DUP2 MSTORE PUSH1 0x1 PUSH1 0x20 SWAP1 DUP2 MSTORE PUSH1 0x40 SWAP2 DUP3 SWAP1 KECCAK256 DUP1 SLOAD DUP4 MLOAD DUP2 DUP5 MUL DUP2 ADD DUP5 ADD SWAP1 SWAP5 MSTORE DUP1 DUP5 MSTORE PUSH1 0x60 SWAP4 SWAP3 DUP4 ADD DUP3 DUP3 DUP1 ISZERO PUSH2 0x1B2 JUMPI PUSH1 0x20 MUL DUP3 ADD SWAP2 SWAP1 PUSH1 0x0 MSTORE PUSH1 0x20 PUSH1 0x0 KECCAK256 SWAP1 DUP2 SLOAD PUSH1 0x1 PUSH1 0x1 PUSH1 0xA0 SHL SUB AND DUP2 MSTORE PUSH1 0x1 SWAP1 SWAP2 ADD SWAP1 PUSH1 0x20 ADD DUP1 DUP4 GT PUSH2 0x194 JUMPI POP POP POP POP POP SWAP1 POP SWAP1 JUMP JUMPDEST PUSH1 0x20 DUP1 DUP3 MSTORE DUP3 MLOAD DUP3 DUP3 ADD DUP2 SWAP1 MSTORE PUSH1 0x0 SWAP2 SWAP1 DUP5 DUP3 ADD SWAP1 PUSH1 0x40 DUP6 ADD SWAP1 DUP5 JUMPDEST DUP2 DUP2 LT ISZERO PUSH2 0x487 JUMPI DUP4 MLOAD PUSH1 0x1 PUSH1 0x1 PUSH1 0xA0 SHL SUB AND DUP4 MSTORE SWAP3 DUP5 ADD SWAP3 SWAP2 DUP5 ADD SWAP2 PUSH1 0x1 ADD PUSH2 0x462 JUMP JUMPDEST POP SWAP1 SWAP7 SWAP6 POP POP POP POP POP POP JUMP JUMPDEST DUP1 CALLDATALOAD PUSH1 0x1 PUSH1 0x1 PUSH1 0xA0 SHL SUB DUP2 AND DUP2 EQ PUSH2 0x4AA JUMPI PUSH1 0x0 DUP1 REVERT JUMPDEST SWAP2 SWAP1 POP JUMP JUMPDEST PUSH1 0x0 DUP1 PUSH1 0x40 DUP4 DUP6 SUB SLT ISZERO PUSH2 0x4C2 JUMPI PUSH1 0x0 DUP1 REVERT JUMPDEST PUSH2 0x4CB DUP4 PUSH2 0x493 JUMP JUMPDEST SWAP5 PUSH1 0x20 SWAP4 SWAP1 SWAP4 ADD CALLDATALOAD SWAP4 POP POP POP JUMP JUMPDEST PUSH1 0x0 PUSH1 0x20 DUP3 DUP5 SUB SLT ISZERO PUSH2 0x4EB JUMPI PUSH1 0x0 DUP1 REVERT JUMPDEST PUSH2 0x4F4 DUP3 PUSH2 0x493 JUMP JUMPDEST SWAP4 SWAP3 POP POP POP JUMP JUMPDEST PUSH4 0x4E487B71 PUSH1 0xE0 SHL PUSH1 0x0 MSTORE PUSH1 0x32 PUSH1 0x4 MSTORE PUSH1 0x24 PUSH1 0x0 REVERT JUMPDEST PUSH1 0x0 PUSH1 0x1 DUP3 ADD PUSH2 0x531 JUMPI PUSH4 0x4E487B71 PUSH1 0xE0 SHL PUSH1 0x0 MSTORE PUSH1 0x11 PUSH1 0x4 MSTORE PUSH1 0x24 PUSH1 0x0 REVERT JUMPDEST POP PUSH1 0x1 ADD SWAP1 JUMP INVALID LOG2 PUSH5 0x6970667358 0x22 SLT KECCAK256 SWAP13 DUP5 JUMPI DUP11 0xB3 0xBA OR 0x25 SLT 0x25 0xB1 PUSH2 0x9391 SLT POP 0xB4 SMOD CODESIZE GASPRICE GT CHAINID SWAP12 SWAP6 0xD6 GAS SWAP10 SHR COINBASE PUSH5 0xABD764736F PUSH13 0x63430008130033000000000000 "},"gasEstimates":{"creation":{"codeDepositCost":"278000","executionCost":"318","totalCost":"278318"},"external":{"addPendingInheritance(address)":"51169","getPendingInheritances()":"infinite","getRejectedInheritances()":"infinite","hasPendingInheritances()":"2364","hasRejectedInheritances()":"2416","pendingInheritances(address,uint256)":"4806","rejectedInheritances(address,uint256)":"4807","removePendingInheritance(address)":"infinite"}},"methodIdentifiers":{"addPendingInheritance(address)":"4fd4bacd","getPendingInheritances()":"1e55feca","getRejectedInheritances()":"b45f0dbd","hasPendingInheritances()":"52466cba","hasRejectedInheritances()":"8c7a6c65","pendingInheritances(address,uint256)":"8a9dab38","rejectedInheritances(address,uint256)":"24d02dc5","removePendingInheritance(address)":"449fd1b2"}},"storageLayout":{"storage":[{"astId":6,"contract":"HeirsAdministration.sol:HeirsAdministration","label":"pendingInheritances","offset":0,"slot":"0","type":"t_mapping(t_address,t_array(t_address)dyn_storage)"},{"astId":11,"contract":"HeirsAdministration.sol:HeirsAdministration","label":"rejectedInheritances","offset":0,"slot":"1","type":"t_mapping(t_address,t_array(t_address)dyn_storage)"}],"types":{"t_address":{"encoding":"inplace","label":"address","numberOfBytes":"20"},"t_array(t_address)dyn_storage":{"base":"t_address","encoding":"dynamic_array","label":"address[]","numberOfBytes":"32"},"t_mapping(t_address,t_array(t_address)dyn_storage)":{"encoding":"mapping","key":"t_address","label":"mapping(address => address[])","numberOfBytes":"32","value":"t_array(t_address)dyn_storage"}}},"userdoc":{"kind":"user","methods":{},"version":1}}