{"abi":[{"anonymous":false,"inputs":[{"indexed":false,"internalType":"string","name":"message","type":"string"},{"indexed":true,"internalType":"address","name":"administrator","type":"address"},{"indexed":true,"internalType":"address","name":"inheritance","type":"address"},{"indexed":false,"internalType":"uint256","name":"deployedInheritancesCount","type":"uint256"}],"name":"LogInheritanceCreated","type":"event"},{"inputs":[{"internalType":"uint256","name":"aliveTimeOut","type":"uint256"},{"internalType":"address","name":"usdcTokenAddress","type":"address"}],"name":"createInheritance","outputs":[],"stateMutability":"nonpayable","type":"function"},{"inputs":[],"name":"getDeployedInheritancesCount","outputs":[{"internalType":"uint256","name":"","type":"uint256"}],"stateMutability":"view","type":"function"},{"inputs":[{"internalType":"address","name":"","type":"address"}],"name":"inheritances","outputs":[{"internalType":"address","name":"","type":"address"}],"stateMutability":"view","type":"function"},{"inputs":[],"name":"isAdmin","outputs":[{"internalType":"bool","name":"","type":"bool"}],"stateMutability":"view","type":"function"}],"devdoc":{"kind":"dev","methods":{},"version":1},"evm":{"assembly":"    /* \"Inheritance.sol\":169:1535  contract InheritanceFactory {... */\n  mstore(0x40, 0x80)\n  callvalue\n  dup1\n  iszero\n  tag_1\n  jumpi\n  0x00\n  dup1\n  revert\ntag_1:\n  pop\n  dataSize(sub_0)\n  dup1\n  dataOffset(sub_0)\n  0x00\n  codecopy\n  0x00\n  return\nstop\n\nsub_0: assembly {\n        /* \"Inheritance.sol\":169:1535  contract InheritanceFactory {... */\n      mstore(0x40, 0x80)\n      callvalue\n      dup1\n      iszero\n      tag_1\n      jumpi\n      0x00\n      dup1\n      revert\n    tag_1:\n      pop\n      jumpi(tag_2, lt(calldatasize, 0x04))\n      shr(0xe0, calldataload(0x00))\n      dup1\n      0x21b6e8f5\n      eq\n      tag_3\n      jumpi\n      dup1\n      0x6122fed5\n      eq\n      tag_4\n      jumpi\n      dup1\n      0x65a4c281\n      eq\n      tag_5\n      jumpi\n      dup1\n      0xb6db75a0\n      eq\n      tag_6\n      jumpi\n    tag_2:\n      0x00\n      dup1\n      revert\n        /* \"Inheritance.sol\":1303:1419  function getDeployedInheritancesCount() public view returns (uint) {... */\n    tag_3:\n        /* \"Inheritance.sol\":1364:1368  uint */\n      0x00\n        /* \"Inheritance.sol\":1387:1412  deployedInheritancesCount */\n      sload\n        /* \"Inheritance.sol\":1303:1419  function getDeployedInheritancesCount() public view returns (uint) {... */\n      mload(0x40)\n        /* \"#utility.yul\":160:185   */\n      swap1\n      dup2\n      mstore\n        /* \"#utility.yul\":148:150   */\n      0x20\n        /* \"#utility.yul\":133:151   */\n      add\n        /* \"Inheritance.sol\":1303:1419  function getDeployedInheritancesCount() public view returns (uint) {... */\n    tag_9:\n      mload(0x40)\n      dup1\n      swap2\n      sub\n      swap1\n      return\n        /* \"Inheritance.sol\":250:297  mapping(address => address) public inheritances */\n    tag_4:\n      tag_11\n      tag_12\n      calldatasize\n      0x04\n      tag_13\n      jump\t// in\n    tag_12:\n      mstore(0x20, 0x01)\n      0x00\n      swap1\n      dup2\n      mstore\n      0x40\n      swap1\n      keccak256\n      sload\n      sub(shl(0xa0, 0x01), 0x01)\n      and\n      dup2\n      jump\n    tag_11:\n      mload(0x40)\n      sub(shl(0xa0, 0x01), 0x01)\n        /* \"#utility.yul\":729:761   */\n      swap1\n      swap2\n      and\n        /* \"#utility.yul\":711:762   */\n      dup2\n      mstore\n        /* \"#utility.yul\":699:701   */\n      0x20\n        /* \"#utility.yul\":684:702   */\n      add\n        /* \"Inheritance.sol\":250:297  mapping(address => address) public inheritances */\n      tag_9\n        /* \"#utility.yul\":565:768   */\n      jump\n        /* \"Inheritance.sol\":550:1297  function createInheritance(... */\n    tag_5:\n      tag_17\n      tag_18\n      calldatasize\n      0x04\n      tag_19\n      jump\t// in\n    tag_18:\n      tag_20\n      jump\t// in\n    tag_17:\n      stop\n        /* \"Inheritance.sol\":1425:1533  function isAdmin() public view returns (bool) {... */\n    tag_6:\n        /* \"Inheritance.sol\":1501:1511  msg.sender */\n      caller\n        /* \"Inheritance.sol\":1465:1469  bool */\n      0x00\n        /* \"Inheritance.sol\":1488:1512  inheritances[msg.sender] */\n      swap1\n      dup2\n      mstore\n        /* \"Inheritance.sol\":1488:1500  inheritances */\n      0x01\n        /* \"Inheritance.sol\":1488:1512  inheritances[msg.sender] */\n      0x20\n      mstore\n      0x40\n      swap1\n      keccak256\n      sload\n      sub(shl(0xa0, 0x01), 0x01)\n      and\n        /* \"Inheritance.sol\":1488:1526  inheritances[msg.sender] != address(0) */\n      iszero\n      iszero\n        /* \"Inheritance.sol\":1425:1533  function isAdmin() public view returns (bool) {... */\n      mload(0x40)\n        /* \"#utility.yul\":1197:1211   */\n      swap1\n      iszero\n        /* \"#utility.yul\":1190:1212   */\n      iszero\n        /* \"#utility.yul\":1172:1213   */\n      dup2\n      mstore\n        /* \"#utility.yul\":1160:1162   */\n      0x20\n        /* \"#utility.yul\":1145:1163   */\n      add\n        /* \"Inheritance.sol\":1425:1533  function isAdmin() public view returns (bool) {... */\n      tag_9\n        /* \"#utility.yul\":1032:1219   */\n      jump\n        /* \"Inheritance.sol\":550:1297  function createInheritance(... */\n    tag_20:\n        /* \"Inheritance.sol\":698:708  msg.sender */\n      caller\n        /* \"Inheritance.sol\":721:722  0 */\n      0x00\n        /* \"Inheritance.sol\":685:709  inheritances[msg.sender] */\n      swap1\n      dup2\n      mstore\n        /* \"Inheritance.sol\":685:697  inheritances */\n      0x01\n        /* \"Inheritance.sol\":685:709  inheritances[msg.sender] */\n      0x20\n      mstore\n      0x40\n      swap1\n      keccak256\n      sload\n      sub(shl(0xa0, 0x01), 0x01)\n      and\n        /* \"Inheritance.sol\":685:723  inheritances[msg.sender] == address(0) */\n      iszero\n        /* \"Inheritance.sol\":664:810  require(... */\n      tag_27\n      jumpi\n      mload(0x40)\n      shl(0xe5, 0x461bcd)\n      dup2\n      mstore\n        /* \"#utility.yul\":1426:1428   */\n      0x20\n        /* \"Inheritance.sol\":664:810  require(... */\n      0x04\n      dup3\n      add\n        /* \"#utility.yul\":1408:1429   */\n      mstore\n        /* \"#utility.yul\":1465:1467   */\n      0x3d\n        /* \"#utility.yul\":1445:1463   */\n      0x24\n      dup3\n      add\n        /* \"#utility.yul\":1438:1468   */\n      mstore\n        /* \"#utility.yul\":1504:1538   */\n      0x596f75206861766520616c7265616479206f6e6520696e6865726974616e6365\n        /* \"#utility.yul\":1484:1502   */\n      0x44\n      dup3\n      add\n        /* \"#utility.yul\":1477:1539   */\n      mstore\n        /* \"#utility.yul\":1575:1606   */\n      0x20637265617465642c20796f752063616e277420686176652074776f2e000000\n        /* \"#utility.yul\":1555:1573   */\n      0x64\n      dup3\n      add\n        /* \"#utility.yul\":1548:1607   */\n      mstore\n        /* \"#utility.yul\":1624:1643   */\n      0x84\n      add\n        /* \"Inheritance.sol\":664:810  require(... */\n      mload(0x40)\n      dup1\n      swap2\n      sub\n      swap1\n      revert\n    tag_27:\n        /* \"Inheritance.sol\":931:941  msg.sender */\n      caller\n        /* \"Inheritance.sol\":943:955  aliveTimeOut */\n      dup3\n        /* \"Inheritance.sol\":957:973  usdcTokenAddress */\n      dup3\n        /* \"Inheritance.sol\":915:974  new Inheritance(msg.sender, aliveTimeOut, usdcTokenAddress) */\n      mload(0x40)\n      tag_30\n      swap1\n      tag_31\n      jump\t// in\n    tag_30:\n      sub(shl(0xa0, 0x01), 0x01)\n        /* \"#utility.yul\":1912:1927   */\n      swap4\n      dup5\n      and\n        /* \"#utility.yul\":1894:1928   */\n      dup2\n      mstore\n        /* \"#utility.yul\":1959:1961   */\n      0x20\n        /* \"#utility.yul\":1944:1962   */\n      dup2\n      add\n        /* \"#utility.yul\":1937:1971   */\n      swap3\n      swap1\n      swap3\n      mstore\n        /* \"#utility.yul\":2007:2022   */\n      swap1\n      swap2\n      and\n        /* \"#utility.yul\":2002:2004   */\n      0x40\n        /* \"#utility.yul\":1987:2005   */\n      dup3\n      add\n        /* \"#utility.yul\":1980:2023   */\n      mstore\n        /* \"#utility.yul\":1844:1846   */\n      0x60\n        /* \"#utility.yul\":1829:1847   */\n      add\n        /* \"Inheritance.sol\":915:974  new Inheritance(msg.sender, aliveTimeOut, usdcTokenAddress) */\n      mload(0x40)\n      dup1\n      swap2\n      sub\n      swap1\n      0x00\n      create\n      dup1\n      iszero\n      dup1\n      iszero\n      tag_34\n      jumpi\n      returndatasize\n      0x00\n      dup1\n      returndatacopy\n      revert(0x00, returndatasize)\n    tag_34:\n      pop\n        /* \"Inheritance.sol\":880:890  msg.sender */\n      caller\n        /* \"Inheritance.sol\":867:891  inheritances[msg.sender] */\n      0x00\n      swap1\n      dup2\n      mstore\n        /* \"Inheritance.sol\":867:879  inheritances */\n      0x01\n        /* \"Inheritance.sol\":867:891  inheritances[msg.sender] */\n      0x20\n      mstore\n      0x40\n      dup2\n      keccak256\n        /* \"Inheritance.sol\":867:984  inheritances[msg.sender] = address(... */\n      dup1\n      sload\n      not(sub(shl(0xa0, 0x01), 0x01))\n      and\n      sub(shl(0xa0, 0x01), 0x01)\n      swap4\n      swap1\n      swap4\n      and\n      swap3\n      swap1\n      swap3\n      or\n      swap1\n      swap2\n      sstore\n        /* \"Inheritance.sol\":994:1021  deployedInheritancesCount++ */\n      dup1\n      sload\n      swap1\n        /* \"Inheritance.sol\":867:891  inheritances[msg.sender] */\n      dup1\n        /* \"Inheritance.sol\":994:1021  deployedInheritancesCount++ */\n      tag_35\n      dup4\n      tag_36\n      jump\t// in\n    tag_35:\n      swap1\n      swap2\n      sstore\n      pop\n      pop\n        /* \"Inheritance.sol\":1230:1240  msg.sender */\n      caller\n        /* \"Inheritance.sol\":1217:1241  inheritances[msg.sender] */\n      0x00\n      dup2\n      dup2\n      mstore\n        /* \"Inheritance.sol\":1217:1229  inheritances */\n      0x01\n        /* \"Inheritance.sol\":1217:1241  inheritances[msg.sender] */\n      0x20\n      mstore\n      0x40\n      dup1\n      dup3\n      keccak256\n      sload\n        /* \"Inheritance.sol\":1255:1280  deployedInheritancesCount */\n      swap2\n      sload\n        /* \"Inheritance.sol\":1037:1290  LogInheritanceCreated(... */\n      swap1\n      mload\n      sub(shl(0xa0, 0x01), 0x01)\n        /* \"Inheritance.sol\":1217:1241  inheritances[msg.sender] */\n      swap3\n      swap1\n      swap3\n      and\n      swap3\n        /* \"Inheritance.sol\":1230:1240  msg.sender */\n      swap2\n        /* \"Inheritance.sol\":1037:1290  LogInheritanceCreated(... */\n      0x246b027e5b424dae3d402e972e3f8e400056fe836431cbe048d9553826bb2e11\n      swap2\n      tag_37\n      swap2\n        /* \"#utility.yul\":2501:2503   */\n      0x40\n        /* \"#utility.yul\":2483:2504   */\n      dup1\n      dup3\n      mstore\n        /* \"#utility.yul\":2540:2543   */\n      0x69\n        /* \"#utility.yul\":2520:2538   */\n      swap1\n      dup3\n      add\n        /* \"#utility.yul\":2513:2544   */\n      mstore\n        /* \"#utility.yul\":2580:2614   */\n      0x4c6f6720616c6c207468652076616c7565733a2041646d696e6973747261746f\n        /* \"#utility.yul\":2575:2577   */\n      0x60\n        /* \"#utility.yul\":2560:2578   */\n      dup3\n      add\n        /* \"#utility.yul\":2553:2615   */\n      mstore\n        /* \"#utility.yul\":2652:2686   */\n      0x7220616464726573732c20496e6865726974616e636520636f6e747261637420\n        /* \"#utility.yul\":2646:2649   */\n      0x80\n        /* \"#utility.yul\":2631:2650   */\n      dup3\n      add\n        /* \"#utility.yul\":2624:2687   */\n      mstore\n        /* \"#utility.yul\":2724:2758   */\n      0x616464726573732c204e756d626572206f6620696e6865726974616e63657320\n        /* \"#utility.yul\":2718:2721   */\n      0xa0\n        /* \"#utility.yul\":2703:2722   */\n      dup3\n      add\n        /* \"#utility.yul\":2696:2759   */\n      mstore\n      shl(0xb9, 0x3232b83637bcb2b217)\n        /* \"#utility.yul\":2790:2793   */\n      0xc0\n        /* \"#utility.yul\":2775:2794   */\n      dup3\n      add\n        /* \"#utility.yul\":2768:2808   */\n      mstore\n        /* \"#utility.yul\":2875:2879   */\n      0x20\n        /* \"#utility.yul\":2860:2880   */\n      dup2\n      add\n        /* \"#utility.yul\":2853:2889   */\n      swap2\n      swap1\n      swap2\n      mstore\n        /* \"#utility.yul\":2840:2843   */\n      0xe0\n        /* \"#utility.yul\":2825:2844   */\n      add\n      swap1\n        /* \"#utility.yul\":2271:2895   */\n      jump\n        /* \"Inheritance.sol\":1037:1290  LogInheritanceCreated(... */\n    tag_37:\n      mload(0x40)\n      dup1\n      swap2\n      sub\n      swap1\n      log3\n        /* \"Inheritance.sol\":550:1297  function createInheritance(... */\n      pop\n      pop\n      jump\t// out\n    tag_31:\n      dataSize(sub_0)\n      dup1\n      dataOffset(sub_0)\n      dup4\n      codecopy\n      add\n      swap1\n      jump\t// out\n        /* \"#utility.yul\":196:369   */\n    tag_40:\n        /* \"#utility.yul\":264:284   */\n      dup1\n      calldataload\n      sub(shl(0xa0, 0x01), 0x01)\n        /* \"#utility.yul\":313:344   */\n      dup2\n      and\n        /* \"#utility.yul\":303:345   */\n      dup2\n      eq\n        /* \"#utility.yul\":293:363   */\n      tag_44\n      jumpi\n        /* \"#utility.yul\":359:360   */\n      0x00\n        /* \"#utility.yul\":356:357   */\n      dup1\n        /* \"#utility.yul\":349:361   */\n      revert\n        /* \"#utility.yul\":293:363   */\n    tag_44:\n        /* \"#utility.yul\":196:369   */\n      swap2\n      swap1\n      pop\n      jump\t// out\n        /* \"#utility.yul\":374:560   */\n    tag_13:\n        /* \"#utility.yul\":433:439   */\n      0x00\n        /* \"#utility.yul\":486:488   */\n      0x20\n        /* \"#utility.yul\":474:483   */\n      dup3\n        /* \"#utility.yul\":465:472   */\n      dup5\n        /* \"#utility.yul\":461:484   */\n      sub\n        /* \"#utility.yul\":457:489   */\n      slt\n        /* \"#utility.yul\":454:506   */\n      iszero\n      tag_46\n      jumpi\n        /* \"#utility.yul\":502:503   */\n      0x00\n        /* \"#utility.yul\":499:500   */\n      dup1\n        /* \"#utility.yul\":492:504   */\n      revert\n        /* \"#utility.yul\":454:506   */\n    tag_46:\n        /* \"#utility.yul\":525:554   */\n      tag_47\n        /* \"#utility.yul\":544:553   */\n      dup3\n        /* \"#utility.yul\":525:554   */\n      tag_40\n      jump\t// in\n    tag_47:\n        /* \"#utility.yul\":515:554   */\n      swap4\n        /* \"#utility.yul\":374:560   */\n      swap3\n      pop\n      pop\n      pop\n      jump\t// out\n        /* \"#utility.yul\":773:1027   */\n    tag_19:\n        /* \"#utility.yul\":841:847   */\n      0x00\n        /* \"#utility.yul\":849:855   */\n      dup1\n        /* \"#utility.yul\":902:904   */\n      0x40\n        /* \"#utility.yul\":890:899   */\n      dup4\n        /* \"#utility.yul\":881:888   */\n      dup6\n        /* \"#utility.yul\":877:900   */\n      sub\n        /* \"#utility.yul\":873:905   */\n      slt\n        /* \"#utility.yul\":870:922   */\n      iszero\n      tag_50\n      jumpi\n        /* \"#utility.yul\":918:919   */\n      0x00\n        /* \"#utility.yul\":915:916   */\n      dup1\n        /* \"#utility.yul\":908:920   */\n      revert\n        /* \"#utility.yul\":870:922   */\n    tag_50:\n        /* \"#utility.yul\":954:963   */\n      dup3\n        /* \"#utility.yul\":941:964   */\n      calldataload\n        /* \"#utility.yul\":931:964   */\n      swap2\n      pop\n        /* \"#utility.yul\":983:1021   */\n      tag_51\n        /* \"#utility.yul\":1017:1019   */\n      0x20\n        /* \"#utility.yul\":1006:1015   */\n      dup5\n        /* \"#utility.yul\":1002:1020   */\n      add\n        /* \"#utility.yul\":983:1021   */\n      tag_40\n      jump\t// in\n    tag_51:\n        /* \"#utility.yul\":973:1021   */\n      swap1\n      pop\n        /* \"#utility.yul\":773:1027   */\n      swap3\n      pop\n      swap3\n      swap1\n      pop\n      jump\t// out\n        /* \"#utility.yul\":2034:2266   */\n    tag_36:\n        /* \"#utility.yul\":2073:2076   */\n      0x00\n        /* \"#utility.yul\":2094:2111   */\n      0x01\n      dup3\n      add\n        /* \"#utility.yul\":2091:2231   */\n      tag_56\n      jumpi\n        /* \"#utility.yul\":2153:2163   */\n      0x4e487b71\n        /* \"#utility.yul\":2148:2151   */\n      0xe0\n        /* \"#utility.yul\":2144:2164   */\n      shl\n        /* \"#utility.yul\":2141:2142   */\n      0x00\n        /* \"#utility.yul\":2134:2165   */\n      mstore\n        /* \"#utility.yul\":2188:2192   */\n      0x11\n        /* \"#utility.yul\":2185:2186   */\n      0x04\n        /* \"#utility.yul\":2178:2193   */\n      mstore\n        /* \"#utility.yul\":2216:2220   */\n      0x24\n        /* \"#utility.yul\":2213:2214   */\n      0x00\n        /* \"#utility.yul\":2206:2221   */\n      revert\n        /* \"#utility.yul\":2091:2231   */\n    tag_56:\n      pop\n        /* \"#utility.yul\":2258:2259   */\n      0x01\n        /* \"#utility.yul\":2247:2260   */\n      add\n      swap1\n        /* \"#utility.yul\":2034:2266   */\n      jump\t// out\n    stop\n\n    sub_0: assembly {\n            /* \"Inheritance.sol\":1537:14990  contract Inheritance is Ownable {... */\n          mstore(0x40, 0x80)\n            /* \"Inheritance.sol\":3685:4161  constructor(... */\n          callvalue\n          dup1\n          iszero\n          tag_1\n          jumpi\n          0x00\n          dup1\n          revert\n        tag_1:\n          pop\n          mload(0x40)\n          sub(codesize, bytecodeSize)\n          dup1\n          bytecodeSize\n          dup4\n          codecopy\n          dup2\n          add\n          0x40\n          dup2\n          swap1\n          mstore\n          tag_2\n          swap2\n          tag_3\n          jump\t// in\n        tag_2:\n            /* \"@openzeppelin/contracts/access/Ownable.sol\":936:968   */\n          tag_7\n            /* \"@openzeppelin/contracts/utils/Context.sol\":719:729   */\n          caller\n            /* \"@openzeppelin/contracts/access/Ownable.sol\":936:954   */\n          tag_10\n            /* \"@openzeppelin/contracts/access/Ownable.sol\":936:968   */\n          jump\t// in\n        tag_7:\n            /* \"Inheritance.sol\":3814:3819  token */\n          0x09\n            /* \"Inheritance.sol\":3814:3843  token = IERC20(_tokenAddress) */\n          dup1\n          sload\n          not(sub(shl(0xa0, 0x01), 0x01))\n          and\n          sub(shl(0xa0, 0x01), 0x01)\n          dup4\n          and\n          or\n          swap1\n          sstore\n            /* \"Inheritance.sol\":3854:3894  transferOwnership(_administratorAddress) */\n          tag_12\n            /* \"Inheritance.sol\":3872:3893  _administratorAddress */\n          dup4\n            /* \"Inheritance.sol\":3854:3871  transferOwnership */\n          tag_13\n            /* \"Inheritance.sol\":3854:3894  transferOwnership(_administratorAddress) */\n          jump\t// in\n        tag_12:\n          pop\n            /* \"Inheritance.sol\":3977:3989  aliveTimeOut */\n          0x03\n            /* \"Inheritance.sol\":3977:4005  aliveTimeOut = _aliveTimeOut */\n          sstore\n            /* \"Inheritance.sol\":4032:4154  Administrator({... */\n          0x40\n          dup1\n          mload\n          dup1\n          dup3\n          add\n          swap1\n          swap2\n          mstore\n          sub(shl(0xa0, 0x01), 0x01)\n          swap1\n          swap2\n          and\n          dup1\n          dup3\n          mstore\n            /* \"Inheritance.sol\":4128:4143  block.timestamp */\n          timestamp\n            /* \"Inheritance.sol\":4032:4154  Administrator({... */\n          0x20\n          swap1\n          swap3\n          add\n          dup3\n          swap1\n          mstore\n            /* \"Inheritance.sol\":4016:4029  administrator */\n          0x01\n            /* \"Inheritance.sol\":4016:4154  administrator = Administrator({... */\n          dup1\n          sload\n          not(sub(shl(0xa0, 0x01), 0x01))\n          and\n          swap1\n          swap2\n          or\n          swap1\n          sstore\n          0x02\n          sstore\n            /* \"Inheritance.sol\":1537:14990  contract Inheritance is Ownable {... */\n          jump(tag_34)\n            /* \"@openzeppelin/contracts/access/Ownable.sol\":2433:2620   */\n        tag_10:\n            /* \"@openzeppelin/contracts/access/Ownable.sol\":2506:2522   */\n          0x00\n            /* \"@openzeppelin/contracts/access/Ownable.sol\":2525:2531   */\n          dup1\n          sload\n          sub(shl(0xa0, 0x01), 0x01)\n            /* \"@openzeppelin/contracts/access/Ownable.sol\":2541:2558   */\n          dup4\n          dup2\n          and\n          not(sub(shl(0xa0, 0x01), 0x01))\n          dup4\n          and\n          dup2\n          or\n          dup5\n          sstore\n            /* \"@openzeppelin/contracts/access/Ownable.sol\":2573:2613   */\n          mload(0x40)\n            /* \"@openzeppelin/contracts/access/Ownable.sol\":2525:2531   */\n          swap2\n          swap1\n          swap3\n          and\n          swap3\n          dup4\n          swap2\n            /* \"@openzeppelin/contracts/access/Ownable.sol\":2573:2613   */\n          0x8be0079c531659141344cd1fd0a4f28419497f9722a3daafe3b4186f6b6457e0\n          swap2\n            /* \"@openzeppelin/contracts/access/Ownable.sol\":2506:2522   */\n          swap1\n            /* \"@openzeppelin/contracts/access/Ownable.sol\":2573:2613   */\n          log3\n            /* \"@openzeppelin/contracts/access/Ownable.sol\":2496:2620   */\n          pop\n            /* \"@openzeppelin/contracts/access/Ownable.sol\":2433:2620   */\n          pop\n          jump\t// out\n            /* \"@openzeppelin/contracts/access/Ownable.sol\":2081:2279   */\n        tag_13:\n            /* \"@openzeppelin/contracts/access/Ownable.sol\":1094:1107   */\n          tag_18\n            /* \"@openzeppelin/contracts/access/Ownable.sol\":1094:1105   */\n          tag_19\n            /* \"@openzeppelin/contracts/access/Ownable.sol\":1094:1107   */\n          jump\t// in\n        tag_18:\n          sub(shl(0xa0, 0x01), 0x01)\n            /* \"@openzeppelin/contracts/access/Ownable.sol\":2169:2191   */\n          dup2\n          and\n            /* \"@openzeppelin/contracts/access/Ownable.sol\":2161:2234   */\n          tag_21\n          jumpi\n          mload(0x40)\n          shl(0xe5, 0x461bcd)\n          dup2\n          mstore\n            /* \"#utility.yul\":757:759   */\n          0x20\n            /* \"@openzeppelin/contracts/access/Ownable.sol\":2161:2234   */\n          0x04\n          dup3\n          add\n            /* \"#utility.yul\":739:760   */\n          mstore\n            /* \"#utility.yul\":796:798   */\n          0x26\n            /* \"#utility.yul\":776:794   */\n          0x24\n          dup3\n          add\n            /* \"#utility.yul\":769:799   */\n          mstore\n            /* \"#utility.yul\":835:869   */\n          0x4f776e61626c653a206e6577206f776e657220697320746865207a65726f2061\n            /* \"#utility.yul\":815:833   */\n          0x44\n          dup3\n          add\n            /* \"#utility.yul\":808:870   */\n          mstore\n          shl(0xd0, 0x646472657373)\n            /* \"#utility.yul\":886:904   */\n          0x64\n          dup3\n          add\n            /* \"#utility.yul\":879:915   */\n          mstore\n            /* \"#utility.yul\":932:951   */\n          0x84\n          add\n            /* \"@openzeppelin/contracts/access/Ownable.sol\":2161:2234   */\n        tag_22:\n          mload(0x40)\n          dup1\n          swap2\n          sub\n          swap1\n          revert\n        tag_21:\n            /* \"@openzeppelin/contracts/access/Ownable.sol\":2244:2272   */\n          tag_24\n            /* \"@openzeppelin/contracts/access/Ownable.sol\":2263:2271   */\n          dup2\n            /* \"@openzeppelin/contracts/access/Ownable.sol\":2244:2262   */\n          tag_10\n            /* \"@openzeppelin/contracts/access/Ownable.sol\":2244:2272   */\n          jump\t// in\n        tag_24:\n            /* \"@openzeppelin/contracts/access/Ownable.sol\":2081:2279   */\n          pop\n          jump\t// out\n            /* \"@openzeppelin/contracts/access/Ownable.sol\":1359:1489   */\n        tag_19:\n            /* \"@openzeppelin/contracts/access/Ownable.sol\":1247:1254   */\n          0x00\n            /* \"@openzeppelin/contracts/access/Ownable.sol\":1273:1279   */\n          sload\n          sub(shl(0xa0, 0x01), 0x01)\n          and\n            /* \"@openzeppelin/contracts/utils/Context.sol\":719:729   */\n          caller\n            /* \"@openzeppelin/contracts/access/Ownable.sol\":1422:1445   */\n          eq\n            /* \"@openzeppelin/contracts/access/Ownable.sol\":1414:1482   */\n          tag_29\n          jumpi\n          mload(0x40)\n          shl(0xe5, 0x461bcd)\n          dup2\n          mstore\n            /* \"#utility.yul\":1164:1166   */\n          0x20\n            /* \"@openzeppelin/contracts/access/Ownable.sol\":1414:1482   */\n          0x04\n          dup3\n          add\n            /* \"#utility.yul\":1146:1167   */\n          dup2\n          swap1\n          mstore\n            /* \"#utility.yul\":1183:1201   */\n          0x24\n          dup3\n          add\n            /* \"#utility.yul\":1176:1206   */\n          mstore\n            /* \"#utility.yul\":1242:1276   */\n          0x4f776e61626c653a2063616c6c6572206973206e6f7420746865206f776e6572\n            /* \"#utility.yul\":1222:1240   */\n          0x44\n          dup3\n          add\n            /* \"#utility.yul\":1215:1277   */\n          mstore\n            /* \"#utility.yul\":1294:1312   */\n          0x64\n          add\n            /* \"@openzeppelin/contracts/access/Ownable.sol\":1414:1482   */\n          tag_22\n            /* \"#utility.yul\":962:1318   */\n          jump\n            /* \"@openzeppelin/contracts/access/Ownable.sol\":1414:1482   */\n        tag_29:\n            /* \"@openzeppelin/contracts/access/Ownable.sol\":1359:1489   */\n          jump\t// out\n            /* \"#utility.yul\":14:191   */\n        tag_33:\n            /* \"#utility.yul\":93:106   */\n          dup1\n          mload\n          sub(shl(0xa0, 0x01), 0x01)\n            /* \"#utility.yul\":135:166   */\n          dup2\n          and\n            /* \"#utility.yul\":125:167   */\n          dup2\n          eq\n            /* \"#utility.yul\":115:185   */\n          tag_36\n          jumpi\n            /* \"#utility.yul\":181:182   */\n          0x00\n            /* \"#utility.yul\":178:179   */\n          dup1\n            /* \"#utility.yul\":171:183   */\n          revert\n            /* \"#utility.yul\":115:185   */\n        tag_36:\n            /* \"#utility.yul\":14:191   */\n          swap2\n          swap1\n          pop\n          jump\t// out\n            /* \"#utility.yul\":196:550   */\n        tag_3:\n            /* \"#utility.yul\":284:290   */\n          0x00\n            /* \"#utility.yul\":292:298   */\n          dup1\n            /* \"#utility.yul\":300:306   */\n          0x00\n            /* \"#utility.yul\":353:355   */\n          0x60\n            /* \"#utility.yul\":341:350   */\n          dup5\n            /* \"#utility.yul\":332:339   */\n          dup7\n            /* \"#utility.yul\":328:351   */\n          sub\n            /* \"#utility.yul\":324:356   */\n          slt\n            /* \"#utility.yul\":321:373   */\n          iszero\n          tag_38\n          jumpi\n            /* \"#utility.yul\":369:370   */\n          0x00\n            /* \"#utility.yul\":366:367   */\n          dup1\n            /* \"#utility.yul\":359:371   */\n          revert\n            /* \"#utility.yul\":321:373   */\n        tag_38:\n            /* \"#utility.yul\":392:432   */\n          tag_39\n            /* \"#utility.yul\":422:431   */\n          dup5\n            /* \"#utility.yul\":392:432   */\n          tag_33\n          jump\t// in\n        tag_39:\n            /* \"#utility.yul\":382:432   */\n          swap3\n          pop\n            /* \"#utility.yul\":472:474   */\n          0x20\n            /* \"#utility.yul\":461:470   */\n          dup5\n            /* \"#utility.yul\":457:475   */\n          add\n            /* \"#utility.yul\":451:476   */\n          mload\n            /* \"#utility.yul\":441:476   */\n          swap2\n          pop\n            /* \"#utility.yul\":495:544   */\n          tag_40\n            /* \"#utility.yul\":540:542   */\n          0x40\n            /* \"#utility.yul\":529:538   */\n          dup6\n            /* \"#utility.yul\":525:543   */\n          add\n            /* \"#utility.yul\":495:544   */\n          tag_33\n          jump\t// in\n        tag_40:\n            /* \"#utility.yul\":485:544   */\n          swap1\n          pop\n            /* \"#utility.yul\":196:550   */\n          swap3\n          pop\n          swap3\n          pop\n          swap3\n          jump\t// out\n            /* \"#utility.yul\":962:1318   */\n        tag_34:\n            /* \"Inheritance.sol\":1537:14990  contract Inheritance is Ownable {... */\n          dataSize(sub_0)\n          dup1\n          dataOffset(sub_0)\n          0x00\n          codecopy\n          0x00\n          return\n        stop\n\n        sub_0: assembly {\n                /* \"Inheritance.sol\":1537:14990  contract Inheritance is Ownable {... */\n              mstore(0x40, 0x80)\n              jumpi(tag_1, lt(calldatasize, 0x04))\n              shr(0xe0, calldataload(0x00))\n              dup1\n              0x9f3c4416\n              gt\n              tag_28\n              jumpi\n              dup1\n              0xdb81f99b\n              gt\n              tag_29\n              jumpi\n              dup1\n              0xea46193e\n              gt\n              tag_30\n              jumpi\n              dup1\n              0xea46193e\n              eq\n              tag_24\n              jumpi\n              dup1\n              0xf2fde38b\n              eq\n              tag_25\n              jumpi\n              dup1\n              0xf53d0a8e\n              eq\n              tag_26\n              jumpi\n              dup1\n              0xffc15b7c\n              eq\n              tag_27\n              jumpi\n              0x00\n              dup1\n              revert\n            tag_30:\n              dup1\n              0xdb81f99b\n              eq\n              tag_21\n              jumpi\n              dup1\n              0xde35f376\n              eq\n              tag_22\n              jumpi\n              dup1\n              0xe92df2b0\n              eq\n              tag_23\n              jumpi\n              0x00\n              dup1\n              revert\n            tag_29:\n              dup1\n              0x9f3c4416\n              eq\n              tag_15\n              jumpi\n              dup1\n              0xa37fc5cf\n              eq\n              tag_16\n              jumpi\n              dup1\n              0xc1b640db\n              eq\n              tag_17\n              jumpi\n              dup1\n              0xd0e30db0\n              eq\n              tag_18\n              jumpi\n              dup1\n              0xd5002f2e\n              eq\n              tag_19\n              jumpi\n              dup1\n              0xdaa67756\n              eq\n              tag_20\n              jumpi\n              0x00\n              dup1\n              revert\n            tag_28:\n              dup1\n              0x4eae51f4\n              gt\n              tag_31\n              jumpi\n              dup1\n              0x66416dd3\n              gt\n              tag_32\n              jumpi\n              dup1\n              0x66416dd3\n              eq\n              tag_11\n              jumpi\n              dup1\n              0x715018a6\n              eq\n              tag_12\n              jumpi\n              dup1\n              0x7c1d3a01\n              eq\n              tag_13\n              jumpi\n              dup1\n              0x8da5cb5b\n              eq\n              tag_14\n              jumpi\n              0x00\n              dup1\n              revert\n            tag_32:\n              dup1\n              0x4eae51f4\n              eq\n              tag_8\n              jumpi\n              dup1\n              0x4f3b972d\n              eq\n              tag_9\n              jumpi\n              dup1\n              0x59e82bd7\n              eq\n              tag_10\n              jumpi\n              0x00\n              dup1\n              revert\n            tag_31:\n              dup1\n              0x051ea68f\n              eq\n              tag_2\n              jumpi\n              dup1\n              0x064ac578\n              eq\n              tag_3\n              jumpi\n              dup1\n              0x25cfecbe\n              eq\n              tag_4\n              jumpi\n              dup1\n              0x2e1a7d4d\n              eq\n              tag_5\n              jumpi\n              dup1\n              0x35d6f873\n              eq\n              tag_6\n              jumpi\n              dup1\n              0x3cfd1ccc\n              eq\n              tag_7\n              jumpi\n            tag_1:\n              0x00\n              dup1\n              revert\n                /* \"Inheritance.sol\":6854:7090  function isAdministratorDead() public view returns (bool) {... */\n            tag_2:\n              callvalue\n              dup1\n              iszero\n              tag_33\n              jumpi\n              0x00\n              dup1\n              revert\n            tag_33:\n              pop\n              tag_34\n              tag_35\n              jump\t// in\n            tag_34:\n              mload(0x40)\n                /* \"#utility.yul\":179:193   */\n              swap1\n              iszero\n                /* \"#utility.yul\":172:194   */\n              iszero\n                /* \"#utility.yul\":154:195   */\n              dup2\n              mstore\n                /* \"#utility.yul\":142:144   */\n              0x20\n                /* \"#utility.yul\":127:145   */\n              add\n                /* \"Inheritance.sol\":6854:7090  function isAdministratorDead() public view returns (bool) {... */\n            tag_36:\n              mload(0x40)\n              dup1\n              swap2\n              sub\n              swap1\n              return\n                /* \"Inheritance.sol\":11321:11437  function getInheritanceRequests() public view returns (address[] memory) {... */\n            tag_3:\n              callvalue\n              dup1\n              iszero\n              tag_38\n              jumpi\n              0x00\n              dup1\n              revert\n            tag_38:\n              pop\n              tag_39\n              tag_40\n              jump\t// in\n            tag_39:\n              mload(0x40)\n              tag_36\n              swap2\n              swap1\n              tag_42\n              jump\t// in\n                /* \"Inheritance.sol\":10980:11091  function getLastAlive() public view onlyOwner returns (uint256) {... */\n            tag_4:\n              callvalue\n              dup1\n              iszero\n              tag_43\n              jumpi\n              0x00\n              dup1\n              revert\n            tag_43:\n              pop\n              tag_44\n              tag_45\n              jump\t// in\n            tag_44:\n              mload(0x40)\n                /* \"#utility.yul\":1015:1040   */\n              swap1\n              dup2\n              mstore\n                /* \"#utility.yul\":1003:1005   */\n              0x20\n                /* \"#utility.yul\":988:1006   */\n              add\n                /* \"Inheritance.sol\":10980:11091  function getLastAlive() public view onlyOwner returns (uint256) {... */\n              tag_36\n                /* \"#utility.yul\":869:1046   */\n              jump\n                /* \"Inheritance.sol\":4858:5096  function withdraw(uint256 amount) public onlyOwner {... */\n            tag_5:\n              callvalue\n              dup1\n              iszero\n              tag_48\n              jumpi\n              0x00\n              dup1\n              revert\n            tag_48:\n              pop\n              tag_49\n              tag_50\n              calldatasize\n              0x04\n              tag_51\n              jump\t// in\n            tag_50:\n              tag_52\n              jump\t// in\n            tag_49:\n              stop\n                /* \"Inheritance.sol\":12114:12409  function getNFTDeedsByHeirAddress(... */\n            tag_6:\n              callvalue\n              dup1\n              iszero\n              tag_53\n              jumpi\n              0x00\n              dup1\n              revert\n            tag_53:\n              pop\n              tag_54\n              tag_55\n              calldatasize\n              0x04\n              tag_56\n              jump\t// in\n            tag_55:\n              tag_57\n              jump\t// in\n            tag_54:\n              mload(0x40)\n              tag_36\n              swap2\n              swap1\n              tag_59\n              jump\t// in\n                /* \"Inheritance.sol\":11205:11315  function getUSDCBalance() public view returns (uint256) {... */\n            tag_7:\n              callvalue\n              dup1\n              iszero\n              tag_60\n              jumpi\n              0x00\n              dup1\n              revert\n            tag_60:\n              pop\n              tag_44\n              tag_62\n              jump\t// in\n                /* \"Inheritance.sol\":11443:11528  function getHeirs() public view returns (Heir[] memory) {... */\n            tag_8:\n              callvalue\n              dup1\n              iszero\n              tag_64\n              jumpi\n              0x00\n              dup1\n              revert\n            tag_64:\n              pop\n              tag_65\n              tag_66\n              jump\t// in\n            tag_65:\n              mload(0x40)\n              tag_36\n              swap2\n              swap1\n              tag_68\n              jump\t// in\n                /* \"Inheritance.sol\":2278:2321  mapping(uint256 => address) public nftHeirs */\n            tag_9:\n              callvalue\n              dup1\n              iszero\n              tag_69\n              jumpi\n              0x00\n              dup1\n              revert\n            tag_69:\n              pop\n              tag_70\n              tag_71\n              calldatasize\n              0x04\n              tag_51\n              jump\t// in\n            tag_71:\n              mstore(0x20, 0x08)\n              0x00\n              swap1\n              dup2\n              mstore\n              0x40\n              swap1\n              keccak256\n              sload\n              sub(shl(0xa0, 0x01), 0x01)\n              and\n              dup2\n              jump\n            tag_70:\n              mload(0x40)\n              sub(shl(0xa0, 0x01), 0x01)\n                /* \"#utility.yul\":3785:3817   */\n              swap1\n              swap2\n              and\n                /* \"#utility.yul\":3767:3818   */\n              dup2\n              mstore\n                /* \"#utility.yul\":3755:3757   */\n              0x20\n                /* \"#utility.yul\":3740:3758   */\n              add\n                /* \"Inheritance.sol\":2278:2321  mapping(uint256 => address) public nftHeirs */\n              tag_36\n                /* \"#utility.yul\":3621:3824   */\n              jump\n                /* \"Inheritance.sol\":8621:9608  function addNFTDeed(... */\n            tag_10:\n              callvalue\n              dup1\n              iszero\n              tag_75\n              jumpi\n              0x00\n              dup1\n              revert\n            tag_75:\n              pop\n              tag_49\n              tag_77\n              calldatasize\n              0x04\n              tag_78\n              jump\t// in\n            tag_77:\n              tag_79\n              jump\t// in\n                /* \"Inheritance.sol\":5580:5926  function requestInheritance(... */\n            tag_11:\n              callvalue\n              dup1\n              iszero\n              tag_80\n              jumpi\n              0x00\n              dup1\n              revert\n            tag_80:\n              pop\n              tag_49\n              tag_82\n              calldatasize\n              0x04\n              tag_56\n              jump\t// in\n            tag_82:\n              tag_83\n              jump\t// in\n                /* \"@openzeppelin/contracts/access/Ownable.sol\":1831:1932   */\n            tag_12:\n              callvalue\n              dup1\n              iszero\n              tag_84\n              jumpi\n              0x00\n              dup1\n              revert\n            tag_84:\n              pop\n              tag_49\n              tag_86\n              jump\t// in\n                /* \"Inheritance.sol\":5932:6451  function acceptInheritanceRequest(... */\n            tag_13:\n              callvalue\n              dup1\n              iszero\n              tag_87\n              jumpi\n              0x00\n              dup1\n              revert\n            tag_87:\n              pop\n              tag_49\n              tag_89\n              calldatasize\n              0x04\n              tag_90\n              jump\t// in\n            tag_89:\n              tag_91\n              jump\t// in\n                /* \"@openzeppelin/contracts/access/Ownable.sol\":1201:1286   */\n            tag_14:\n              callvalue\n              dup1\n              iszero\n              tag_92\n              jumpi\n              0x00\n              dup1\n              revert\n            tag_92:\n              pop\n                /* \"@openzeppelin/contracts/access/Ownable.sol\":1247:1254   */\n              0x00\n                /* \"@openzeppelin/contracts/access/Ownable.sol\":1273:1279   */\n              sload\n              sub(shl(0xa0, 0x01), 0x01)\n              and\n                /* \"@openzeppelin/contracts/access/Ownable.sol\":1201:1286   */\n              jump(tag_70)\n                /* \"Inheritance.sol\":7096:8615  function claimInheritance() public isHeir(msg.sender) {... */\n            tag_15:\n              callvalue\n              dup1\n              iszero\n              tag_96\n              jumpi\n              0x00\n              dup1\n              revert\n            tag_96:\n              pop\n              tag_49\n              tag_98\n              jump\t// in\n                /* \"Inheritance.sol\":10871:10974  function getAliveTimeOut() public view onlyOwner returns (uint256) {... */\n            tag_16:\n              callvalue\n              dup1\n              iszero\n              tag_99\n              jumpi\n              0x00\n              dup1\n              revert\n            tag_99:\n              pop\n              tag_44\n              tag_101\n              jump\t// in\n                /* \"Inheritance.sol\":5249:5574  function signalAlive() public onlyOwner {... */\n            tag_17:\n              callvalue\n              dup1\n              iszero\n              tag_103\n              jumpi\n              0x00\n              dup1\n              revert\n            tag_103:\n              pop\n              tag_49\n              tag_105\n              jump\t// in\n                /* \"Inheritance.sol\":4191:4468  function deposit() public payable {... */\n            tag_18:\n              tag_49\n              tag_107\n              jump\t// in\n                /* \"Inheritance.sol\":11534:11761  function getTotalShares() public view returns (uint256) {... */\n            tag_19:\n              callvalue\n              dup1\n              iszero\n              tag_108\n              jumpi\n              0x00\n              dup1\n              revert\n            tag_108:\n              pop\n              tag_44\n              tag_110\n              jump\t// in\n                /* \"Inheritance.sol\":9614:10257  function removeNFTDeed(uint256 tokenId) public onlyOwner {... */\n            tag_20:\n              callvalue\n              dup1\n              iszero\n              tag_112\n              jumpi\n              0x00\n              dup1\n              revert\n            tag_112:\n              pop\n              tag_49\n              tag_114\n              calldatasize\n              0x04\n              tag_51\n              jump\t// in\n            tag_114:\n              tag_115\n              jump\t// in\n                /* \"Inheritance.sol\":4499:4852  function withdrawUSDC(uint256 amount) public onlyOwner {... */\n            tag_21:\n              callvalue\n              dup1\n              iszero\n              tag_116\n              jumpi\n              0x00\n              dup1\n              revert\n            tag_116:\n              pop\n              tag_49\n              tag_118\n              calldatasize\n              0x04\n              tag_51\n              jump\t// in\n            tag_118:\n              tag_119\n              jump\t// in\n                /* \"Inheritance.sol\":5130:5243  function updateAliveTimeOut(uint256 _aliveTimeOut) public onlyOwner {... */\n            tag_22:\n              callvalue\n              dup1\n              iszero\n              tag_120\n              jumpi\n              0x00\n              dup1\n              revert\n            tag_120:\n              pop\n              tag_49\n              tag_122\n              calldatasize\n              0x04\n              tag_51\n              jump\t// in\n            tag_122:\n              tag_123\n              jump\t// in\n                /* \"Inheritance.sol\":6457:6848  function rejectInheritanceRequest(... */\n            tag_23:\n              callvalue\n              dup1\n              iszero\n              tag_124\n              jumpi\n              0x00\n              dup1\n              revert\n            tag_124:\n              pop\n              tag_49\n              tag_126\n              calldatasize\n              0x04\n              tag_78\n              jump\t// in\n            tag_126:\n              tag_127\n              jump\t// in\n                /* \"Inheritance.sol\":11097:11199  function getEtherBalance() public view returns (uint256) {... */\n            tag_24:\n              callvalue\n              dup1\n              iszero\n              tag_128\n              jumpi\n              0x00\n              dup1\n              revert\n            tag_128:\n              pop\n                /* \"Inheritance.sol\":11171:11192  address(this).balance */\n              selfbalance\n                /* \"Inheritance.sol\":11097:11199  function getEtherBalance() public view returns (uint256) {... */\n              jump(tag_44)\n                /* \"@openzeppelin/contracts/access/Ownable.sol\":2081:2279   */\n            tag_25:\n              callvalue\n              dup1\n              iszero\n              tag_132\n              jumpi\n              0x00\n              dup1\n              revert\n            tag_132:\n              pop\n              tag_49\n              tag_134\n              calldatasize\n              0x04\n              tag_56\n              jump\t// in\n            tag_134:\n              tag_135\n              jump\t// in\n                /* \"Inheritance.sol\":1863:1897  Administrator public administrator */\n            tag_26:\n              callvalue\n              dup1\n              iszero\n              tag_136\n              jumpi\n              0x00\n              dup1\n              revert\n            tag_136:\n              pop\n              sload(0x01)\n              sload(0x02)\n              tag_137\n              swap2\n              sub(shl(0xa0, 0x01), 0x01)\n              and\n              swap1\n              dup3\n              jump\n            tag_137:\n              0x40\n              dup1\n              mload\n              sub(shl(0xa0, 0x01), 0x01)\n                /* \"#utility.yul\":4607:4639   */\n              swap1\n              swap4\n              and\n                /* \"#utility.yul\":4589:4640   */\n              dup4\n              mstore\n                /* \"#utility.yul\":4671:4673   */\n              0x20\n                /* \"#utility.yul\":4656:4674   */\n              dup4\n              add\n                /* \"#utility.yul\":4649:4683   */\n              swap2\n              swap1\n              swap2\n              mstore\n                /* \"#utility.yul\":4562:4580   */\n              add\n                /* \"Inheritance.sol\":1863:1897  Administrator public administrator */\n              tag_36\n                /* \"#utility.yul\":4415:4689   */\n              jump\n                /* \"Inheritance.sol\":11767:12108  function getHeirsAddresses() public view returns (address[] memory) {... */\n            tag_27:\n              callvalue\n              dup1\n              iszero\n              tag_141\n              jumpi\n              0x00\n              dup1\n              revert\n            tag_141:\n              pop\n              tag_39\n              tag_143\n              jump\t// in\n                /* \"Inheritance.sol\":6854:7090  function isAdministratorDead() public view returns (bool) {... */\n            tag_35:\n                /* \"Inheritance.sol\":7071:7083  aliveTimeOut */\n              sload(0x03)\n                /* \"Inheritance.sol\":7044:7067  administrator.lastAlive */\n              sload(0x02)\n                /* \"Inheritance.sol\":6906:6910  bool */\n              0x00\n              swap2\n                /* \"Inheritance.sol\":7071:7083  aliveTimeOut */\n              swap1\n                /* \"Inheritance.sol\":7026:7067  block.timestamp - administrator.lastAlive */\n              tag_146\n              swap1\n                /* \"Inheritance.sol\":7026:7041  block.timestamp */\n              timestamp\n                /* \"Inheritance.sol\":7026:7067  block.timestamp - administrator.lastAlive */\n              tag_147\n              jump\t// in\n            tag_146:\n                /* \"Inheritance.sol\":7026:7083  block.timestamp - administrator.lastAlive >= aliveTimeOut */\n              lt\n              iszero\n                /* \"Inheritance.sol\":7019:7083  return block.timestamp - administrator.lastAlive >= aliveTimeOut */\n              swap1\n              pop\n                /* \"Inheritance.sol\":6854:7090  function isAdministratorDead() public view returns (bool) {... */\n              swap1\n              jump\t// out\n                /* \"Inheritance.sol\":11321:11437  function getInheritanceRequests() public view returns (address[] memory) {... */\n            tag_40:\n                /* \"Inheritance.sol\":11376:11392  address[] memory */\n              0x60\n                /* \"Inheritance.sol\":11411:11430  inheritanceRequests */\n              0x05\n                /* \"Inheritance.sol\":11404:11430  return inheritanceRequests */\n              dup1\n              sload\n              dup1\n              0x20\n              mul\n              0x20\n              add\n              mload(0x40)\n              swap1\n              dup2\n              add\n              0x40\n              mstore\n              dup1\n              swap3\n              swap2\n              swap1\n              dup2\n              dup2\n              mstore\n              0x20\n              add\n              dup3\n              dup1\n              sload\n              dup1\n              iszero\n              tag_149\n              jumpi\n              0x20\n              mul\n              dup3\n              add\n              swap2\n              swap1\n              0x00\n              mstore\n              keccak256(0x00, 0x20)\n              swap1\n            tag_150:\n              dup2\n              sload\n              sub(shl(0xa0, 0x01), 0x01)\n              and\n              dup2\n              mstore\n              0x01\n              swap1\n              swap2\n              add\n              swap1\n              0x20\n              add\n              dup1\n              dup4\n              gt\n              tag_150\n              jumpi\n            tag_149:\n              pop\n              pop\n              pop\n              pop\n              pop\n              swap1\n              pop\n                /* \"Inheritance.sol\":11321:11437  function getInheritanceRequests() public view returns (address[] memory) {... */\n              swap1\n              jump\t// out\n                /* \"Inheritance.sol\":10980:11091  function getLastAlive() public view onlyOwner returns (uint256) {... */\n            tag_45:\n                /* \"Inheritance.sol\":11035:11042  uint256 */\n              0x00\n                /* \"@openzeppelin/contracts/access/Ownable.sol\":1094:1107   */\n              tag_152\n                /* \"@openzeppelin/contracts/access/Ownable.sol\":1094:1105   */\n              tag_153\n                /* \"@openzeppelin/contracts/access/Ownable.sol\":1094:1107   */\n              jump\t// in\n            tag_152:\n              pop\n                /* \"Inheritance.sol\":11061:11084  administrator.lastAlive */\n              sload(0x02)\n                /* \"Inheritance.sol\":10980:11091  function getLastAlive() public view onlyOwner returns (uint256) {... */\n              swap1\n              jump\t// out\n                /* \"Inheritance.sol\":4858:5096  function withdraw(uint256 amount) public onlyOwner {... */\n            tag_52:\n                /* \"@openzeppelin/contracts/access/Ownable.sol\":1094:1107   */\n              tag_156\n                /* \"@openzeppelin/contracts/access/Ownable.sol\":1094:1105   */\n              tag_153\n                /* \"@openzeppelin/contracts/access/Ownable.sol\":1094:1107   */\n              jump\t// in\n            tag_156:\n                /* \"Inheritance.sol\":4936:4937  0 */\n              0x00\n                /* \"Inheritance.sol\":4927:4933  amount */\n              dup2\n                /* \"Inheritance.sol\":4927:4937  amount > 0 */\n              gt\n                /* \"Inheritance.sol\":4919:4966  require(amount > 0, \"Amount must be positive.\") */\n              tag_158\n              jumpi\n              mload(0x40)\n              shl(0xe5, 0x461bcd)\n              dup2\n              mstore\n                /* \"#utility.yul\":5161:5163   */\n              0x20\n                /* \"Inheritance.sol\":4919:4966  require(amount > 0, \"Amount must be positive.\") */\n              0x04\n              dup3\n              add\n                /* \"#utility.yul\":5143:5164   */\n              mstore\n                /* \"#utility.yul\":5200:5202   */\n              0x18\n                /* \"#utility.yul\":5180:5198   */\n              0x24\n              dup3\n              add\n                /* \"#utility.yul\":5173:5203   */\n              mstore\n              shl(0x41, 0x20b6b7bab73a1036bab9ba103132903837b9b4ba34bb3297)\n                /* \"#utility.yul\":5219:5237   */\n              0x44\n              dup3\n              add\n                /* \"#utility.yul\":5212:5266   */\n              mstore\n                /* \"#utility.yul\":5283:5301   */\n              0x64\n              add\n                /* \"Inheritance.sol\":4919:4966  require(amount > 0, \"Amount must be positive.\") */\n            tag_159:\n              mload(0x40)\n              dup1\n              swap2\n              sub\n              swap1\n              revert\n            tag_158:\n                /* \"Inheritance.sol\":4994:5015  address(this).balance */\n              selfbalance\n                /* \"Inheritance.sol\":4984:4990  amount */\n              dup2\n                /* \"Inheritance.sol\":4984:5015  amount <= address(this).balance */\n              gt\n              iszero\n                /* \"Inheritance.sol\":4976:5043  require(amount <= address(this).balance, \"Not enough ETH balance.\") */\n              tag_161\n              jumpi\n              mload(0x40)\n              shl(0xe5, 0x461bcd)\n              dup2\n              mstore\n                /* \"#utility.yul\":5514:5516   */\n              0x20\n                /* \"Inheritance.sol\":4976:5043  require(amount <= address(this).balance, \"Not enough ETH balance.\") */\n              0x04\n              dup3\n              add\n                /* \"#utility.yul\":5496:5517   */\n              mstore\n                /* \"#utility.yul\":5553:5555   */\n              0x17\n                /* \"#utility.yul\":5533:5551   */\n              0x24\n              dup3\n              add\n                /* \"#utility.yul\":5526:5556   */\n              mstore\n                /* \"#utility.yul\":5592:5617   */\n              0x4e6f7420656e6f756768204554482062616c616e63652e000000000000000000\n                /* \"#utility.yul\":5572:5590   */\n              0x44\n              dup3\n              add\n                /* \"#utility.yul\":5565:5618   */\n              mstore\n                /* \"#utility.yul\":5635:5653   */\n              0x64\n              add\n                /* \"Inheritance.sol\":4976:5043  require(amount <= address(this).balance, \"Not enough ETH balance.\") */\n              tag_159\n                /* \"#utility.yul\":5312:5659   */\n              jump\n                /* \"Inheritance.sol\":4976:5043  require(amount <= address(this).balance, \"Not enough ETH balance.\") */\n            tag_161:\n                /* \"Inheritance.sol\":5053:5089  payable(msg.sender).transfer(amount) */\n              mload(0x40)\n                /* \"Inheritance.sol\":5061:5071  msg.sender */\n              caller\n              swap1\n                /* \"Inheritance.sol\":5053:5089  payable(msg.sender).transfer(amount) */\n              dup3\n              iszero\n              0x08fc\n              mul\n              swap1\n                /* \"Inheritance.sol\":5082:5088  amount */\n              dup4\n              swap1\n                /* \"Inheritance.sol\":5053:5089  payable(msg.sender).transfer(amount) */\n              0x00\n              dup2\n              dup2\n              dup2\n                /* \"Inheritance.sol\":5082:5088  amount */\n              dup6\n                /* \"Inheritance.sol\":5061:5071  msg.sender */\n              dup9\n                /* \"Inheritance.sol\":5053:5089  payable(msg.sender).transfer(amount) */\n              dup9\n              call\n              swap4\n              pop\n              pop\n              pop\n              pop\n              iszero\n              dup1\n              iszero\n              tag_165\n              jumpi\n              returndatasize\n              0x00\n              dup1\n              returndatacopy\n              revert(0x00, returndatasize)\n            tag_165:\n              pop\n                /* \"Inheritance.sol\":4858:5096  function withdraw(uint256 amount) public onlyOwner {... */\n              pop\n              jump\t// out\n                /* \"Inheritance.sol\":12114:12409  function getNFTDeedsByHeirAddress(... */\n            tag_57:\n                /* \"Inheritance.sol\":12204:12231  uint256[] memory nftDeedIds */\n              0x60\n                /* \"Inheritance.sol\":12248:12257  uint256 i */\n              0x00\n                /* \"Inheritance.sol\":12243:12403  for (uint256 i = 0; i < heirs.length; i++) {... */\n            tag_167:\n                /* \"Inheritance.sol\":12267:12272  heirs */\n              0x04\n                /* \"Inheritance.sol\":12267:12279  heirs.length */\n              sload\n                /* \"Inheritance.sol\":12263:12279  i < heirs.length */\n              dup2\n              lt\n                /* \"Inheritance.sol\":12243:12403  for (uint256 i = 0; i < heirs.length; i++) {... */\n              iszero\n              tag_168\n              jumpi\n                /* \"Inheritance.sol\":12321:12332  heirAddress */\n              dup3\n              sub(shl(0xa0, 0x01), 0x01)\n                /* \"Inheritance.sol\":12304:12332  heirs[i].heir == heirAddress */\n              and\n                /* \"Inheritance.sol\":12304:12309  heirs */\n              0x04\n                /* \"Inheritance.sol\":12310:12311  i */\n              dup3\n                /* \"Inheritance.sol\":12304:12312  heirs[i] */\n              dup2\n              sload\n              dup2\n              lt\n              tag_171\n              jumpi\n              tag_171\n              tag_172\n              jump\t// in\n            tag_171:\n              0x00\n              swap2\n              dup3\n              mstore\n              0x20\n              swap1\n              swap2\n              keccak256\n              0x05\n              swap1\n              swap2\n              mul\n              add\n                /* \"Inheritance.sol\":12304:12317  heirs[i].heir */\n              sload\n              sub(shl(0xa0, 0x01), 0x01)\n              and\n                /* \"Inheritance.sol\":12304:12332  heirs[i].heir == heirAddress */\n              sub\n                /* \"Inheritance.sol\":12300:12393  if (heirs[i].heir == heirAddress) {... */\n              tag_174\n              jumpi\n                /* \"Inheritance.sol\":12359:12364  heirs */\n              0x04\n                /* \"Inheritance.sol\":12365:12366  i */\n              dup2\n                /* \"Inheritance.sol\":12359:12367  heirs[i] */\n              dup2\n              sload\n              dup2\n              lt\n              tag_176\n              jumpi\n              tag_176\n              tag_172\n              jump\t// in\n            tag_176:\n              swap1\n              0x00\n              mstore\n              keccak256(0x00, 0x20)\n              swap1\n              0x05\n              mul\n              add\n                /* \"Inheritance.sol\":12359:12378  heirs[i].NFTDeedIds */\n              0x04\n              add\n                /* \"Inheritance.sol\":12352:12378  return heirs[i].NFTDeedIds */\n              dup1\n              sload\n              dup1\n              0x20\n              mul\n              0x20\n              add\n              mload(0x40)\n              swap1\n              dup2\n              add\n              0x40\n              mstore\n              dup1\n              swap3\n              swap2\n              swap1\n              dup2\n              dup2\n              mstore\n              0x20\n              add\n              dup3\n              dup1\n              sload\n              dup1\n              iszero\n              tag_178\n              jumpi\n              0x20\n              mul\n              dup3\n              add\n              swap2\n              swap1\n              0x00\n              mstore\n              keccak256(0x00, 0x20)\n              swap1\n            tag_179:\n              dup2\n              sload\n              dup2\n              mstore\n              0x20\n              add\n              swap1\n              0x01\n              add\n              swap1\n              dup1\n              dup4\n              gt\n              tag_179\n              jumpi\n            tag_178:\n              pop\n              pop\n              pop\n              pop\n              pop\n              swap2\n              pop\n              pop\n                /* \"Inheritance.sol\":12114:12409  function getNFTDeedsByHeirAddress(... */\n              swap2\n              swap1\n              pop\n              jump\t// out\n                /* \"Inheritance.sol\":12300:12393  if (heirs[i].heir == heirAddress) {... */\n            tag_174:\n                /* \"Inheritance.sol\":12281:12284  i++ */\n              dup1\n              tag_180\n              dup2\n              tag_181\n              jump\t// in\n            tag_180:\n              swap2\n              pop\n              pop\n                /* \"Inheritance.sol\":12243:12403  for (uint256 i = 0; i < heirs.length; i++) {... */\n              jump(tag_167)\n            tag_168:\n              pop\n                /* \"Inheritance.sol\":12114:12409  function getNFTDeedsByHeirAddress(... */\n              swap2\n              swap1\n              pop\n              jump\t// out\n                /* \"Inheritance.sol\":11205:11315  function getUSDCBalance() public view returns (uint256) {... */\n            tag_62:\n                /* \"Inheritance.sol\":11278:11283  token */\n              sload(0x09)\n                /* \"Inheritance.sol\":11278:11308  token.balanceOf(address(this)) */\n              mload(0x40)\n              shl(0xe0, 0x70a08231)\n              dup2\n              mstore\n                /* \"Inheritance.sol\":11302:11306  this */\n              address\n                /* \"Inheritance.sol\":11278:11308  token.balanceOf(address(this)) */\n              0x04\n              dup3\n              add\n                /* \"#utility.yul\":3767:3818   */\n              mstore\n                /* \"Inheritance.sol\":11252:11259  uint256 */\n              0x00\n              swap2\n              sub(shl(0xa0, 0x01), 0x01)\n                /* \"Inheritance.sol\":11278:11283  token */\n              and\n              swap1\n                /* \"Inheritance.sol\":11278:11293  token.balanceOf */\n              0x70a08231\n              swap1\n                /* \"#utility.yul\":3740:3758   */\n              0x24\n              add\n                /* \"Inheritance.sol\":11278:11308  token.balanceOf(address(this)) */\n              0x20\n              mload(0x40)\n              dup1\n              dup4\n              sub\n              dup2\n              dup7\n              gas\n              staticcall\n              iszero\n              dup1\n              iszero\n              tag_185\n              jumpi\n              returndatasize\n              0x00\n              dup1\n              returndatacopy\n              revert(0x00, returndatasize)\n            tag_185:\n              pop\n              pop\n              pop\n              pop\n              mload(0x40)\n              returndatasize\n              not(0x1f)\n              0x1f\n              dup3\n              add\n              and\n              dup3\n              add\n              dup1\n              0x40\n              mstore\n              pop\n              dup2\n              add\n              swap1\n              tag_186\n              swap2\n              swap1\n              tag_187\n              jump\t// in\n            tag_186:\n                /* \"Inheritance.sol\":11271:11308  return token.balanceOf(address(this)) */\n              swap1\n              pop\n                /* \"Inheritance.sol\":11205:11315  function getUSDCBalance() public view returns (uint256) {... */\n              swap1\n              jump\t// out\n                /* \"Inheritance.sol\":11443:11528  function getHeirs() public view returns (Heir[] memory) {... */\n            tag_66:\n                /* \"Inheritance.sol\":11484:11497  Heir[] memory */\n              0x60\n                /* \"Inheritance.sol\":11516:11521  heirs */\n              0x04\n                /* \"Inheritance.sol\":11509:11521  return heirs */\n              dup1\n              sload\n              dup1\n              0x20\n              mul\n              0x20\n              add\n              mload(0x40)\n              swap1\n              dup2\n              add\n              0x40\n              mstore\n              dup1\n              swap3\n              swap2\n              swap1\n              dup2\n              dup2\n              mstore\n              0x20\n              add\n              0x00\n              swap1\n            tag_189:\n              dup3\n              dup3\n              lt\n              iszero\n              tag_190\n              jumpi\n              0x00\n              dup5\n              dup2\n              mstore\n              0x20\n              swap1\n              dup2\n              swap1\n              keccak256\n              0x40\n              dup1\n              mload\n              0xa0\n              dup2\n              add\n              dup3\n              mstore\n              0x05\n              dup7\n              mul\n              swap1\n              swap3\n              add\n              dup1\n              sload\n              sub(shl(0xa0, 0x01), 0x01)\n              and\n              dup4\n              mstore\n              0x01\n              dup2\n              add\n              sload\n              dup4\n              dup6\n              add\n              mstore\n              0x02\n              dup2\n              add\n              sload\n              dup4\n              dup4\n              add\n              mstore\n              0x03\n              dup2\n              add\n              sload\n              0x60\n              dup5\n              add\n              mstore\n              0x04\n              dup2\n              add\n              dup1\n              sload\n              dup4\n              mload\n              dup2\n              dup8\n              mul\n              dup2\n              add\n              dup8\n              add\n              swap1\n              swap5\n              mstore\n              dup1\n              dup5\n              mstore\n              swap4\n              swap5\n              swap2\n              swap4\n              0x80\n              dup7\n              add\n              swap4\n              swap3\n              dup4\n              add\n              dup3\n              dup3\n              dup1\n              iszero\n              tag_192\n              jumpi\n              0x20\n              mul\n              dup3\n              add\n              swap2\n              swap1\n              0x00\n              mstore\n              keccak256(0x00, 0x20)\n              swap1\n            tag_193:\n              dup2\n              sload\n              dup2\n              mstore\n              0x20\n              add\n              swap1\n              0x01\n              add\n              swap1\n              dup1\n              dup4\n              gt\n              tag_193\n              jumpi\n            tag_192:\n              pop\n              pop\n              pop\n              pop\n              pop\n              dup2\n              mstore\n              pop\n              pop\n              dup2\n              mstore\n              0x20\n              add\n              swap1\n              0x01\n              add\n              swap1\n              jump(tag_189)\n            tag_190:\n              pop\n              pop\n              pop\n              pop\n              swap1\n              pop\n                /* \"Inheritance.sol\":11443:11528  function getHeirs() public view returns (Heir[] memory) {... */\n              swap1\n              jump\t// out\n                /* \"Inheritance.sol\":8621:9608  function addNFTDeed(... */\n            tag_79:\n                /* \"@openzeppelin/contracts/access/Ownable.sol\":1094:1107   */\n              tag_195\n                /* \"@openzeppelin/contracts/access/Ownable.sol\":1094:1105   */\n              tag_153\n                /* \"@openzeppelin/contracts/access/Ownable.sol\":1094:1107   */\n              jump\t// in\n            tag_195:\n                /* \"Inheritance.sol\":8731:8750  address currentHeir */\n              0x00\n                /* \"Inheritance.sol\":8753:8770  nftHeirs[tokenId] */\n              dup3\n              dup2\n              mstore\n                /* \"Inheritance.sol\":8753:8761  nftHeirs */\n              0x08\n                /* \"Inheritance.sol\":8753:8770  nftHeirs[tokenId] */\n              0x20\n              mstore\n              0x40\n              swap1\n              keccak256\n              sload\n              sub(shl(0xa0, 0x01), 0x01)\n              and\n                /* \"Inheritance.sol\":8784:8809  currentHeir != address(0) */\n              dup1\n              iszero\n                /* \"Inheritance.sol\":8780:9214  if (currentHeir != address(0)) {... */\n              tag_197\n              jumpi\n                /* \"Inheritance.sol\":8906:8915  uint256 i */\n              0x00\n                /* \"Inheritance.sol\":8901:9204  for (uint256 i = 0; i < heirs.length; i++) {... */\n            tag_198:\n                /* \"Inheritance.sol\":8925:8930  heirs */\n              0x04\n                /* \"Inheritance.sol\":8925:8937  heirs.length */\n              sload\n                /* \"Inheritance.sol\":8921:8937  i < heirs.length */\n              dup2\n              lt\n                /* \"Inheritance.sol\":8901:9204  for (uint256 i = 0; i < heirs.length; i++) {... */\n              iszero\n              tag_199\n              jumpi\n                /* \"Inheritance.sol\":8983:8994  currentHeir */\n              dup2\n              sub(shl(0xa0, 0x01), 0x01)\n                /* \"Inheritance.sol\":8966:8994  heirs[i].heir == currentHeir */\n              and\n                /* \"Inheritance.sol\":8966:8971  heirs */\n              0x04\n                /* \"Inheritance.sol\":8972:8973  i */\n              dup3\n                /* \"Inheritance.sol\":8966:8974  heirs[i] */\n              dup2\n              sload\n              dup2\n              lt\n              tag_202\n              jumpi\n              tag_202\n              tag_172\n              jump\t// in\n            tag_202:\n              0x00\n              swap2\n              dup3\n              mstore\n              0x20\n              swap1\n              swap2\n              keccak256\n              0x05\n              swap1\n              swap2\n              mul\n              add\n                /* \"Inheritance.sol\":8966:8979  heirs[i].heir */\n              sload\n              sub(shl(0xa0, 0x01), 0x01)\n              and\n                /* \"Inheritance.sol\":8966:8994  heirs[i].heir == currentHeir */\n              sub\n                /* \"Inheritance.sol\":8962:9190  if (heirs[i].heir == currentHeir) {... */\n              tag_204\n              jumpi\n                /* \"Inheritance.sol\":9018:9031  uint256 index */\n              0x00\n                /* \"Inheritance.sol\":9034:9076  indexOfToken(heirs[i].NFTDeedIds, tokenId) */\n              tag_205\n                /* \"Inheritance.sol\":9047:9052  heirs */\n              0x04\n                /* \"Inheritance.sol\":9053:9054  i */\n              dup4\n                /* \"Inheritance.sol\":9047:9055  heirs[i] */\n              dup2\n              sload\n              dup2\n              lt\n              tag_207\n              jumpi\n              tag_207\n              tag_172\n              jump\t// in\n            tag_207:\n              swap1\n              0x00\n              mstore\n              keccak256(0x00, 0x20)\n              swap1\n              0x05\n              mul\n              add\n                /* \"Inheritance.sol\":9047:9066  heirs[i].NFTDeedIds */\n              0x04\n              add\n                /* \"Inheritance.sol\":9068:9075  tokenId */\n              dup7\n                /* \"Inheritance.sol\":9034:9046  indexOfToken */\n              tag_209\n                /* \"Inheritance.sol\":9034:9076  indexOfToken(heirs[i].NFTDeedIds, tokenId) */\n              jump\t// in\n            tag_205:\n                /* \"Inheritance.sol\":9018:9076  uint256 index = indexOfToken(heirs[i].NFTDeedIds, tokenId) */\n              swap1\n              pop\n                /* \"Inheritance.sol\":9098:9144  removeTokenAtIndex(heirs[i].NFTDeedIds, index) */\n              tag_210\n                /* \"Inheritance.sol\":9117:9122  heirs */\n              0x04\n                /* \"Inheritance.sol\":9123:9124  i */\n              dup4\n                /* \"Inheritance.sol\":9117:9125  heirs[i] */\n              dup2\n              sload\n              dup2\n              lt\n              tag_212\n              jumpi\n              tag_212\n              tag_172\n              jump\t// in\n            tag_212:\n              swap1\n              0x00\n              mstore\n              keccak256(0x00, 0x20)\n              swap1\n              0x05\n              mul\n              add\n                /* \"Inheritance.sol\":9117:9136  heirs[i].NFTDeedIds */\n              0x04\n              add\n                /* \"Inheritance.sol\":9138:9143  index */\n              dup3\n                /* \"Inheritance.sol\":9098:9116  removeTokenAtIndex */\n              tag_214\n                /* \"Inheritance.sol\":9098:9144  removeTokenAtIndex(heirs[i].NFTDeedIds, index) */\n              jump\t// in\n            tag_210:\n                /* \"Inheritance.sol\":9166:9171  break */\n              pop\n              jump(tag_199)\n                /* \"Inheritance.sol\":8962:9190  if (heirs[i].heir == currentHeir) {... */\n            tag_204:\n                /* \"Inheritance.sol\":8939:8942  i++ */\n              dup1\n              tag_215\n              dup2\n              tag_181\n              jump\t// in\n            tag_215:\n              swap2\n              pop\n              pop\n                /* \"Inheritance.sol\":8901:9204  for (uint256 i = 0; i < heirs.length; i++) {... */\n              jump(tag_198)\n            tag_199:\n              pop\n                /* \"Inheritance.sol\":8780:9214  if (currentHeir != address(0)) {... */\n            tag_197:\n                /* \"Inheritance.sol\":9294:9303  uint256 i */\n              0x00\n                /* \"Inheritance.sol\":9289:9535  for (uint256 i = 0; i < heirs.length; i++) {... */\n            tag_216:\n                /* \"Inheritance.sol\":9313:9318  heirs */\n              0x04\n                /* \"Inheritance.sol\":9313:9325  heirs.length */\n              sload\n                /* \"Inheritance.sol\":9309:9325  i < heirs.length */\n              dup2\n              lt\n                /* \"Inheritance.sol\":9289:9535  for (uint256 i = 0; i < heirs.length; i++) {... */\n              iszero\n              tag_217\n              jumpi\n                /* \"Inheritance.sol\":9367:9381  newHeirAddress */\n              dup3\n              sub(shl(0xa0, 0x01), 0x01)\n                /* \"Inheritance.sol\":9350:9381  heirs[i].heir == newHeirAddress */\n              and\n                /* \"Inheritance.sol\":9350:9355  heirs */\n              0x04\n                /* \"Inheritance.sol\":9356:9357  i */\n              dup3\n                /* \"Inheritance.sol\":9350:9358  heirs[i] */\n              dup2\n              sload\n              dup2\n              lt\n              tag_220\n              jumpi\n              tag_220\n              tag_172\n              jump\t// in\n            tag_220:\n              0x00\n              swap2\n              dup3\n              mstore\n              0x20\n              swap1\n              swap2\n              keccak256\n              0x05\n              swap1\n              swap2\n              mul\n              add\n                /* \"Inheritance.sol\":9350:9363  heirs[i].heir */\n              sload\n              sub(shl(0xa0, 0x01), 0x01)\n              and\n                /* \"Inheritance.sol\":9350:9381  heirs[i].heir == newHeirAddress */\n              sub\n                /* \"Inheritance.sol\":9346:9525  if (heirs[i].heir == newHeirAddress) {... */\n              tag_222\n              jumpi\n                /* \"Inheritance.sol\":9401:9406  heirs */\n              0x04\n                /* \"Inheritance.sol\":9407:9408  i */\n              dup2\n                /* \"Inheritance.sol\":9401:9409  heirs[i] */\n              dup2\n              sload\n              dup2\n              lt\n              tag_224\n              jumpi\n              tag_224\n              tag_172\n              jump\t// in\n            tag_224:\n              0x00\n              swap2\n              dup3\n              mstore\n              0x20\n              dup1\n              dup4\n              keccak256\n              0x05\n              swap3\n              swap1\n              swap3\n              mul\n              swap1\n              swap2\n              add\n                /* \"Inheritance.sol\":9401:9420  heirs[i].NFTDeedIds */\n              0x04\n              add\n                /* \"Inheritance.sol\":9401:9434  heirs[i].NFTDeedIds.push(tokenId) */\n              dup1\n              sload\n              0x01\n              dup2\n              add\n              dup3\n              sstore\n              swap1\n              dup4\n              mstore\n              dup2\n              dup4\n              keccak256\n              add\n              dup7\n              swap1\n              sstore\n                /* \"Inheritance.sol\":9452:9469  nftHeirs[tokenId] */\n              dup6\n              dup3\n              mstore\n                /* \"Inheritance.sol\":9452:9460  nftHeirs */\n              0x08\n                /* \"Inheritance.sol\":9452:9469  nftHeirs[tokenId] */\n              swap1\n              mstore\n              0x40\n              swap1\n              keccak256\n                /* \"Inheritance.sol\":9452:9486  nftHeirs[tokenId] = newHeirAddress */\n              dup1\n              sload\n              not(sub(shl(0xa0, 0x01), 0x01))\n              and\n              sub(shl(0xa0, 0x01), 0x01)\n              dup6\n              and\n              or\n              swap1\n              sstore\n              pop\n                /* \"Inheritance.sol\":9504:9511  return; */\n              tag_165\n              swap1\n              pop\n              jump\n                /* \"Inheritance.sol\":9346:9525  if (heirs[i].heir == newHeirAddress) {... */\n            tag_222:\n                /* \"Inheritance.sol\":9327:9330  i++ */\n              dup1\n              tag_227\n              dup2\n              tag_181\n              jump\t// in\n            tag_227:\n              swap2\n              pop\n              pop\n                /* \"Inheritance.sol\":9289:9535  for (uint256 i = 0; i < heirs.length; i++) {... */\n              jump(tag_216)\n            tag_217:\n              pop\n                /* \"Inheritance.sol\":9544:9601  require(false, \"New heir address not found among heirs.\") */\n              mload(0x40)\n              shl(0xe5, 0x461bcd)\n              dup2\n              mstore\n                /* \"#utility.yul\":6327:6329   */\n              0x20\n                /* \"Inheritance.sol\":9544:9601  require(false, \"New heir address not found among heirs.\") */\n              0x04\n              dup3\n              add\n                /* \"#utility.yul\":6309:6330   */\n              mstore\n                /* \"#utility.yul\":6366:6368   */\n              0x27\n                /* \"#utility.yul\":6346:6364   */\n              0x24\n              dup3\n              add\n                /* \"#utility.yul\":6339:6369   */\n              mstore\n                /* \"#utility.yul\":6405:6439   */\n              0x4e657720686569722061646472657373206e6f7420666f756e6420616d6f6e67\n                /* \"#utility.yul\":6385:6403   */\n              0x44\n              dup3\n              add\n                /* \"#utility.yul\":6378:6440   */\n              mstore\n              shl(0xc9, 0x103432b4b93997)\n                /* \"#utility.yul\":6456:6474   */\n              0x64\n              dup3\n              add\n                /* \"#utility.yul\":6449:6486   */\n              mstore\n                /* \"#utility.yul\":6503:6522   */\n              0x84\n              add\n                /* \"Inheritance.sol\":9544:9601  require(false, \"New heir address not found among heirs.\") */\n              tag_159\n                /* \"#utility.yul\":6125:6528   */\n              jump\n                /* \"Inheritance.sol\":5580:5926  function requestInheritance(... */\n            tag_83:\n                /* \"Inheritance.sol\":12502:12507  heirs */\n              0x04\n                /* \"Inheritance.sol\":12502:12514  heirs.length */\n              sload\n                /* \"Inheritance.sol\":5678:5687  requester */\n              dup2\n              swap1\n                /* \"Inheritance.sol\":12517:12520  100 */\n              0x64\n              gt\n                /* \"Inheritance.sol\":12494:12564  require(heirs.length < 100, \"Already reached the limit of 100 heirs.\") */\n              tag_232\n              jumpi\n              mload(0x40)\n              shl(0xe5, 0x461bcd)\n              dup2\n              mstore\n                /* \"#utility.yul\":6735:6737   */\n              0x20\n                /* \"Inheritance.sol\":12494:12564  require(heirs.length < 100, \"Already reached the limit of 100 heirs.\") */\n              0x04\n              dup3\n              add\n                /* \"#utility.yul\":6717:6738   */\n              mstore\n                /* \"#utility.yul\":6774:6776   */\n              0x27\n                /* \"#utility.yul\":6754:6772   */\n              0x24\n              dup3\n              add\n                /* \"#utility.yul\":6747:6777   */\n              mstore\n                /* \"#utility.yul\":6813:6847   */\n              0x416c7265616479207265616368656420746865206c696d6974206f6620313030\n                /* \"#utility.yul\":6793:6811   */\n              0x44\n              dup3\n              add\n                /* \"#utility.yul\":6786:6848   */\n              mstore\n              shl(0xc9, 0x103432b4b93997)\n                /* \"#utility.yul\":6864:6882   */\n              0x64\n              dup3\n              add\n                /* \"#utility.yul\":6857:6894   */\n              mstore\n                /* \"#utility.yul\":6911:6930   */\n              0x84\n              add\n                /* \"Inheritance.sol\":12494:12564  require(heirs.length < 100, \"Already reached the limit of 100 heirs.\") */\n              tag_159\n                /* \"#utility.yul\":6533:6936   */\n              jump\n                /* \"Inheritance.sol\":12494:12564  require(heirs.length < 100, \"Already reached the limit of 100 heirs.\") */\n            tag_232:\n                /* \"Inheritance.sol\":12595:12614  inheritanceRequests */\n              0x05\n                /* \"Inheritance.sol\":12595:12621  inheritanceRequests.length */\n              sload\n                /* \"Inheritance.sol\":12624:12627  100 */\n              0x64\n              gt\n                /* \"Inheritance.sol\":12574:12707  require(... */\n              tag_235\n              jumpi\n              mload(0x40)\n              shl(0xe5, 0x461bcd)\n              dup2\n              mstore\n                /* \"#utility.yul\":7143:7145   */\n              0x20\n                /* \"Inheritance.sol\":12574:12707  require(... */\n              0x04\n              dup3\n              add\n                /* \"#utility.yul\":7125:7146   */\n              mstore\n                /* \"#utility.yul\":7182:7184   */\n              0x36\n                /* \"#utility.yul\":7162:7180   */\n              0x24\n              dup3\n              add\n                /* \"#utility.yul\":7155:7185   */\n              mstore\n                /* \"#utility.yul\":7221:7255   */\n              0x416c7265616479207265616368656420746865206c696d6974206f6620313030\n                /* \"#utility.yul\":7201:7219   */\n              0x44\n              dup3\n              add\n                /* \"#utility.yul\":7194:7256   */\n              mstore\n              shl(0x51, 0x1034b73432b934ba30b731b2903932b8bab2b9ba3997)\n                /* \"#utility.yul\":7272:7290   */\n              0x64\n              dup3\n              add\n                /* \"#utility.yul\":7265:7317   */\n              mstore\n                /* \"#utility.yul\":7334:7353   */\n              0x84\n              add\n                /* \"Inheritance.sol\":12574:12707  require(... */\n              tag_159\n                /* \"#utility.yul\":6941:7359   */\n              jump\n                /* \"Inheritance.sol\":12574:12707  require(... */\n            tag_235:\n                /* \"Inheritance.sol\":12723:12729  uint i */\n              0x00\n                /* \"Inheritance.sol\":12718:12927  for (uint i = 0; i < inheritanceRequests.length; i++) {... */\n            tag_238:\n                /* \"Inheritance.sol\":12739:12758  inheritanceRequests */\n              0x05\n                /* \"Inheritance.sol\":12739:12765  inheritanceRequests.length */\n              sload\n                /* \"Inheritance.sol\":12735:12765  i < inheritanceRequests.length */\n              dup2\n              lt\n                /* \"Inheritance.sol\":12718:12927  for (uint i = 0; i < inheritanceRequests.length; i++) {... */\n              iszero\n              tag_239\n              jumpi\n                /* \"Inheritance.sol\":12837:12841  addr */\n              dup2\n              sub(shl(0xa0, 0x01), 0x01)\n                /* \"Inheritance.sol\":12811:12841  inheritanceRequests[i] != addr */\n              and\n                /* \"Inheritance.sol\":12811:12830  inheritanceRequests */\n              0x05\n                /* \"Inheritance.sol\":12831:12832  i */\n              dup3\n                /* \"Inheritance.sol\":12811:12833  inheritanceRequests[i] */\n              dup2\n              sload\n              dup2\n              lt\n              tag_242\n              jumpi\n              tag_242\n              tag_172\n              jump\t// in\n            tag_242:\n              0x00\n              swap2\n              dup3\n              mstore\n              0x20\n              swap1\n              swap2\n              keccak256\n              add\n              sload\n              sub(shl(0xa0, 0x01), 0x01)\n              and\n                /* \"Inheritance.sol\":12811:12841  inheritanceRequests[i] != addr */\n              sub\n                /* \"Inheritance.sol\":12786:12916  require(... */\n              tag_244\n              jumpi\n              mload(0x40)\n              shl(0xe5, 0x461bcd)\n              dup2\n              mstore\n                /* \"#utility.yul\":7566:7568   */\n              0x20\n                /* \"Inheritance.sol\":12786:12916  require(... */\n              0x04\n              dup3\n              add\n                /* \"#utility.yul\":7548:7569   */\n              mstore\n                /* \"#utility.yul\":7605:7607   */\n              0x29\n                /* \"#utility.yul\":7585:7603   */\n              0x24\n              dup3\n              add\n                /* \"#utility.yul\":7578:7608   */\n              mstore\n                /* \"#utility.yul\":7644:7678   */\n              0x4164647265737320616c72656164792065786973747320696e20726571756573\n                /* \"#utility.yul\":7624:7642   */\n              0x44\n              dup3\n              add\n                /* \"#utility.yul\":7617:7679   */\n              mstore\n              shl(0xb9, 0x3a399030b93930bc97)\n                /* \"#utility.yul\":7695:7713   */\n              0x64\n              dup3\n              add\n                /* \"#utility.yul\":7688:7727   */\n              mstore\n                /* \"#utility.yul\":7744:7763   */\n              0x84\n              add\n                /* \"Inheritance.sol\":12786:12916  require(... */\n              tag_159\n                /* \"#utility.yul\":7364:7769   */\n              jump\n                /* \"Inheritance.sol\":12786:12916  require(... */\n            tag_244:\n                /* \"Inheritance.sol\":12767:12770  i++ */\n              dup1\n              tag_247\n              dup2\n              tag_181\n              jump\t// in\n            tag_247:\n              swap2\n              pop\n              pop\n                /* \"Inheritance.sol\":12718:12927  for (uint i = 0; i < inheritanceRequests.length; i++) {... */\n              jump(tag_238)\n            tag_239:\n              pop\n                /* \"Inheritance.sol\":5699:5718  inheritanceRequests */\n              0x05\n                /* \"Inheritance.sol\":5699:5734  inheritanceRequests.push(requester) */\n              dup1\n              sload\n              0x01\n              dup2\n              add\n              dup3\n              sstore\n              0x00\n              dup3\n              swap1\n              mstore\n              0x036b6384b5eca791c62761152d0c79bb0604c104a5fb6f4eb0703f3154bb3db0\n              add\n              dup1\n              sload\n              not(sub(shl(0xa0, 0x01), 0x01))\n              and\n              sub(shl(0xa0, 0x01), 0x01)\n              dup6\n              and\n              swap1\n              dup2\n              or\n              swap1\n              swap2\n              sstore\n                /* \"Inheritance.sol\":5857:5883  inheritanceRequests.length */\n              swap1\n              sload\n                /* \"Inheritance.sol\":5897:5902  heirs */\n              0x04\n                /* \"Inheritance.sol\":5897:5909  heirs.length */\n              sload\n                /* \"Inheritance.sol\":5749:5919  LogRequestToBeHeir(... */\n              0x40\n              dup1\n              mload\n                /* \"#utility.yul\":8032:8034   */\n              0x60\n                /* \"#utility.yul\":8014:8035   */\n              dup1\n              dup3\n              mstore\n                /* \"#utility.yul\":8071:8073   */\n              0x25\n                /* \"#utility.yul\":8051:8069   */\n              swap1\n              dup3\n              add\n                /* \"#utility.yul\":8044:8074   */\n              mstore\n                /* \"#utility.yul\":8111:8145   */\n              0x5573657220726571756573747320746f20626520616464656420617320616e20\n                /* \"#utility.yul\":8105:8108   */\n              0x80\n                /* \"#utility.yul\":8090:8109   */\n              dup3\n              add\n                /* \"#utility.yul\":8083:8146   */\n              mstore\n              shl(0xd9, 0x3432b4b917)\n                /* \"#utility.yul\":8177:8180   */\n              0xa0\n                /* \"#utility.yul\":8162:8181   */\n              dup3\n              add\n                /* \"#utility.yul\":8155:8191   */\n              mstore\n                /* \"#utility.yul\":8258:8262   */\n              0x20\n                /* \"#utility.yul\":8243:8263   */\n              dup2\n              add\n                /* \"#utility.yul\":8236:8272   */\n              swap4\n              swap1\n              swap4\n              mstore\n                /* \"#utility.yul\":8288:8306   */\n              dup3\n              add\n                /* \"#utility.yul\":8281:8315   */\n              mstore\n                /* \"Inheritance.sol\":5749:5919  LogRequestToBeHeir(... */\n              0xe6096ebfc672773ae3076e8ae873cb450789130e8c0d87b2b933210acdc08f66\n              swap1\n                /* \"#utility.yul\":8223:8226   */\n              0xc0\n                /* \"#utility.yul\":8208:8227   */\n              add\n                /* \"Inheritance.sol\":5749:5919  LogRequestToBeHeir(... */\n              mload(0x40)\n              dup1\n              swap2\n              sub\n              swap1\n              log2\n                /* \"Inheritance.sol\":5580:5926  function requestInheritance(... */\n              pop\n              pop\n              jump\t// out\n                /* \"@openzeppelin/contracts/access/Ownable.sol\":1831:1932   */\n            tag_86:\n                /* \"@openzeppelin/contracts/access/Ownable.sol\":1094:1107   */\n              tag_253\n                /* \"@openzeppelin/contracts/access/Ownable.sol\":1094:1105   */\n              tag_153\n                /* \"@openzeppelin/contracts/access/Ownable.sol\":1094:1107   */\n              jump\t// in\n            tag_253:\n                /* \"@openzeppelin/contracts/access/Ownable.sol\":1895:1925   */\n              tag_255\n                /* \"@openzeppelin/contracts/access/Ownable.sol\":1922:1923   */\n              0x00\n                /* \"@openzeppelin/contracts/access/Ownable.sol\":1895:1913   */\n              tag_256\n                /* \"@openzeppelin/contracts/access/Ownable.sol\":1895:1925   */\n              jump\t// in\n            tag_255:\n                /* \"@openzeppelin/contracts/access/Ownable.sol\":1831:1932   */\n              jump\t// out\n                /* \"Inheritance.sol\":5932:6451  function acceptInheritanceRequest(... */\n            tag_91:\n                /* \"@openzeppelin/contracts/access/Ownable.sol\":1094:1107   */\n              tag_258\n                /* \"@openzeppelin/contracts/access/Ownable.sol\":1094:1105   */\n              tag_153\n                /* \"@openzeppelin/contracts/access/Ownable.sol\":1094:1107   */\n              jump\t// in\n            tag_258:\n                /* \"Inheritance.sol\":6088:6093  index */\n              dup3\n                /* \"Inheritance.sol\":6095:6104  requester */\n              dup3\n                /* \"Inheritance.sol\":6106:6111  share */\n              dup3\n                /* \"Inheritance.sol\":13098:13117  inheritanceRequests */\n              0x05\n                /* \"Inheritance.sol\":13098:13124  inheritanceRequests.length */\n              dup1\n              sload\n              swap1\n              pop\n                /* \"Inheritance.sol\":13090:13095  index */\n              dup4\n                /* \"Inheritance.sol\":13090:13124  index < inheritanceRequests.length */\n              lt\n                /* \"Inheritance.sol\":13069:13206  require(... */\n              tag_260\n              jumpi\n              mload(0x40)\n              shl(0xe5, 0x461bcd)\n              dup2\n              mstore\n              0x04\n              add\n              tag_159\n              swap1\n              tag_262\n              jump\t// in\n            tag_260:\n                /* \"Inheritance.sol\":13267:13271  addr */\n              dup2\n              sub(shl(0xa0, 0x01), 0x01)\n                /* \"Inheritance.sol\":13237:13271  inheritanceRequests[index] == addr */\n              and\n                /* \"Inheritance.sol\":13237:13256  inheritanceRequests */\n              0x05\n                /* \"Inheritance.sol\":13257:13262  index */\n              dup5\n                /* \"Inheritance.sol\":13237:13263  inheritanceRequests[index] */\n              dup2\n              sload\n              dup2\n              lt\n              tag_264\n              jumpi\n              tag_264\n              tag_172\n              jump\t// in\n            tag_264:\n              0x00\n              swap2\n              dup3\n              mstore\n              0x20\n              swap1\n              swap2\n              keccak256\n              add\n              sload\n              sub(shl(0xa0, 0x01), 0x01)\n              and\n                /* \"Inheritance.sol\":13237:13271  inheritanceRequests[index] == addr */\n              eq\n                /* \"Inheritance.sol\":13216:13370  require(... */\n              tag_266\n              jumpi\n              mload(0x40)\n              shl(0xe5, 0x461bcd)\n              dup2\n              mstore\n              0x04\n              add\n              tag_159\n              swap1\n              tag_268\n              jump\t// in\n            tag_266:\n                /* \"Inheritance.sol\":13381:13400  uint256 totalShares */\n              0x00\n                /* \"Inheritance.sol\":13419:13425  uint i */\n              dup1\n                /* \"Inheritance.sol\":13414:13640  for (uint i = 0; i < heirs.length; i++) {... */\n            tag_269:\n                /* \"Inheritance.sol\":13435:13440  heirs */\n              0x04\n                /* \"Inheritance.sol\":13435:13447  heirs.length */\n              sload\n                /* \"Inheritance.sol\":13431:13447  i < heirs.length */\n              dup2\n              lt\n                /* \"Inheritance.sol\":13414:13640  for (uint i = 0; i < heirs.length; i++) {... */\n              iszero\n              tag_270\n              jumpi\n                /* \"Inheritance.sol\":13510:13514  addr */\n              dup4\n              sub(shl(0xa0, 0x01), 0x01)\n                /* \"Inheritance.sol\":13493:13514  heirs[i].heir != addr */\n              and\n                /* \"Inheritance.sol\":13493:13498  heirs */\n              0x04\n                /* \"Inheritance.sol\":13499:13500  i */\n              dup3\n                /* \"Inheritance.sol\":13493:13501  heirs[i] */\n              dup2\n              sload\n              dup2\n              lt\n              tag_273\n              jumpi\n              tag_273\n              tag_172\n              jump\t// in\n            tag_273:\n              0x00\n              swap2\n              dup3\n              mstore\n              0x20\n              swap1\n              swap2\n              keccak256\n              0x05\n              swap1\n              swap2\n              mul\n              add\n                /* \"Inheritance.sol\":13493:13506  heirs[i].heir */\n              sload\n              sub(shl(0xa0, 0x01), 0x01)\n              and\n                /* \"Inheritance.sol\":13493:13514  heirs[i].heir != addr */\n              sub\n                /* \"Inheritance.sol\":13468:13586  require(... */\n              tag_275\n              jumpi\n              mload(0x40)\n              shl(0xe5, 0x461bcd)\n              dup2\n              mstore\n                /* \"#utility.yul\":9435:9437   */\n              0x20\n                /* \"Inheritance.sol\":13468:13586  require(... */\n              0x04\n              dup3\n              add\n                /* \"#utility.yul\":9417:9438   */\n              mstore\n                /* \"#utility.yul\":9474:9476   */\n              0x26\n                /* \"#utility.yul\":9454:9472   */\n              0x24\n              dup3\n              add\n                /* \"#utility.yul\":9447:9477   */\n              mstore\n                /* \"#utility.yul\":9513:9547   */\n              0x4164647265737320616c72656164792065786973747320696e20686569727320\n                /* \"#utility.yul\":9493:9511   */\n              0x44\n              dup3\n              add\n                /* \"#utility.yul\":9486:9548   */\n              mstore\n              shl(0xd1, 0x30b93930bc97)\n                /* \"#utility.yul\":9564:9582   */\n              0x64\n              dup3\n              add\n                /* \"#utility.yul\":9557:9593   */\n              mstore\n                /* \"#utility.yul\":9610:9629   */\n              0x84\n              add\n                /* \"Inheritance.sol\":13468:13586  require(... */\n              tag_159\n                /* \"#utility.yul\":9233:9635   */\n              jump\n                /* \"Inheritance.sol\":13468:13586  require(... */\n            tag_275:\n                /* \"Inheritance.sol\":13615:13620  heirs */\n              0x04\n                /* \"Inheritance.sol\":13621:13622  i */\n              dup2\n                /* \"Inheritance.sol\":13615:13623  heirs[i] */\n              dup2\n              sload\n              dup2\n              lt\n              tag_279\n              jumpi\n              tag_279\n              tag_172\n              jump\t// in\n            tag_279:\n              swap1\n              0x00\n              mstore\n              keccak256(0x00, 0x20)\n              swap1\n              0x05\n              mul\n              add\n                /* \"Inheritance.sol\":13615:13629  heirs[i].share */\n              0x01\n              add\n              sload\n                /* \"Inheritance.sol\":13600:13629  totalShares += heirs[i].share */\n              dup3\n              tag_281\n              swap2\n              swap1\n              tag_282\n              jump\t// in\n            tag_281:\n              swap2\n              pop\n                /* \"Inheritance.sol\":13449:13452  i++ */\n              dup1\n              tag_283\n              dup2\n              tag_181\n              jump\t// in\n            tag_283:\n              swap2\n              pop\n              pop\n                /* \"Inheritance.sol\":13414:13640  for (uint i = 0; i < heirs.length; i++) {... */\n              jump(tag_269)\n            tag_270:\n              pop\n                /* \"Inheritance.sol\":13696:13699  100 */\n              0x64\n                /* \"Inheritance.sol\":13672:13691  totalShares + share */\n              tag_284\n                /* \"Inheritance.sol\":13686:13691  share */\n              dup4\n                /* \"Inheritance.sol\":13672:13683  totalShares */\n              dup4\n                /* \"Inheritance.sol\":13672:13691  totalShares + share */\n              tag_282\n              jump\t// in\n            tag_284:\n                /* \"Inheritance.sol\":13671:13699  (totalShares + share) <= 100 */\n              gt\n              iszero\n                /* \"Inheritance.sol\":13650:13817  require(... */\n              tag_285\n              jumpi\n              mload(0x40)\n              shl(0xe5, 0x461bcd)\n              dup2\n              mstore\n                /* \"#utility.yul\":9972:9974   */\n              0x20\n                /* \"Inheritance.sol\":13650:13817  require(... */\n              0x04\n              dup3\n              add\n                /* \"#utility.yul\":9954:9975   */\n              mstore\n                /* \"#utility.yul\":10011:10013   */\n              0x5c\n                /* \"#utility.yul\":9991:10009   */\n              0x24\n              dup3\n              add\n                /* \"#utility.yul\":9984:10014   */\n              mstore\n                /* \"#utility.yul\":10050:10084   */\n              0x74686520616d6f756e74206f6620736861726573206578636565642074686520\n                /* \"#utility.yul\":10030:10048   */\n              0x44\n              dup3\n              add\n                /* \"#utility.yul\":10023:10085   */\n              mstore\n                /* \"#utility.yul\":10121:10155   */\n              0x31303025206f662074686520496e6865726974616e63652c2074727920776974\n                /* \"#utility.yul\":10101:10119   */\n              0x64\n              dup3\n              add\n                /* \"#utility.yul\":10094:10156   */\n              mstore\n                /* \"#utility.yul\":10193:10223   */\n              0x68206120736d616c6c657220616d6f756e74206f662073686172652e00000000\n                /* \"#utility.yul\":10172:10191   */\n              0x84\n              dup3\n              add\n                /* \"#utility.yul\":10165:10224   */\n              mstore\n                /* \"#utility.yul\":10241:10260   */\n              0xa4\n              add\n                /* \"Inheritance.sol\":13650:13817  require(... */\n              tag_159\n                /* \"#utility.yul\":9770:10266   */\n              jump\n                /* \"Inheritance.sol\":13650:13817  require(... */\n            tag_285:\n                /* \"Inheritance.sol\":6171:6211  Heir(requester, share, 0, 0, emptyArray) */\n              0x40\n              dup1\n              mload\n              0xa0\n              dup2\n              add\n              dup3\n              mstore\n              sub(shl(0xa0, 0x01), 0x01)\n              dup9\n              dup2\n              and\n              dup3\n              mstore\n              0x20\n              dup1\n              dup4\n              add\n              dup10\n              dup2\n              mstore\n              0x00\n              swap5\n              dup5\n              add\n              dup6\n              dup2\n              mstore\n                /* \"Inheritance.sol\":6123:6150  uint256[] memory emptyArray */\n              0x60\n                /* \"Inheritance.sol\":6171:6211  Heir(requester, share, 0, 0, emptyArray) */\n              dup1\n              dup7\n              add\n              dup8\n              dup2\n              mstore\n              0x80\n              dup8\n              add\n              dup3\n              dup2\n              mstore\n                /* \"Inheritance.sol\":6160:6165  heirs */\n              0x04\n                /* \"Inheritance.sol\":6160:6212  heirs.push(Heir(requester, share, 0, 0, emptyArray)) */\n              dup1\n              sload\n              0x01\n              dup2\n              add\n              dup3\n              sstore\n              swap10\n              mstore\n              dup8\n              mload\n              0x8a35acfbc15ff81a39ae7d344fd709f28e8600b4aa8c65c6b64bfe7fe36bd19b\n              0x05\n              swap1\n              swap11\n              mul\n              swap10\n              dup11\n              add\n              dup1\n              sload\n              not(sub(shl(0xa0, 0x01), 0x01))\n              and\n              swap2\n              swap1\n              swap9\n              and\n              or\n              dup8\n              sstore\n              swap4\n              mload\n              0x8a35acfbc15ff81a39ae7d344fd709f28e8600b4aa8c65c6b64bfe7fe36bd19c\n              dup10\n              add\n              sstore\n              swap2\n              mload\n              0x8a35acfbc15ff81a39ae7d344fd709f28e8600b4aa8c65c6b64bfe7fe36bd19d\n              dup9\n              add\n              sstore\n              swap1\n              mload\n              0x8a35acfbc15ff81a39ae7d344fd709f28e8600b4aa8c65c6b64bfe7fe36bd19e\n              dup8\n              add\n              sstore\n              swap1\n              mload\n              dup1\n              mload\n                /* \"Inheritance.sol\":6123:6150  uint256[] memory emptyArray */\n              swap2\n              swap6\n                /* \"Inheritance.sol\":6160:6212  heirs.push(Heir(requester, share, 0, 0, emptyArray)) */\n              tag_290\n              swap4\n              0x8a35acfbc15ff81a39ae7d344fd709f28e8600b4aa8c65c6b64bfe7fe36bd19f\n              swap1\n              swap2\n              add\n              swap3\n              swap2\n              add\n              swap1\n              tag_291\n              jump\t// in\n            tag_290:\n              pop\n              pop\n              pop\n                /* \"Inheritance.sol\":6222:6242  removeRequest(index) */\n              tag_292\n                /* \"Inheritance.sol\":6236:6241  index */\n              dup9\n                /* \"Inheritance.sol\":6222:6235  removeRequest */\n              tag_293\n                /* \"Inheritance.sol\":6222:6242  removeRequest(index) */\n              jump\t// in\n            tag_292:\n                /* \"Inheritance.sol\":6382:6401  inheritanceRequests */\n              0x05\n                /* \"Inheritance.sol\":6382:6408  inheritanceRequests.length */\n              sload\n                /* \"Inheritance.sol\":6422:6427  heirs */\n              0x04\n                /* \"Inheritance.sol\":6422:6434  heirs.length */\n              sload\n                /* \"Inheritance.sol\":6257:6444  LogHeirAccepted(... */\n              0x40\n              dup1\n              mload\n                /* \"#utility.yul\":10557:10560   */\n              0x80\n                /* \"#utility.yul\":10539:10561   */\n              dup1\n              dup3\n              mstore\n                /* \"#utility.yul\":10598:10600   */\n              0x26\n                /* \"#utility.yul\":10577:10596   */\n              swap1\n              dup3\n              add\n                /* \"#utility.yul\":10570:10601   */\n              mstore\n                /* \"#utility.yul\":10638:10672   */\n              0x41646d696e6973747261746f722061636365707473207573657220617320616e\n                /* \"#utility.yul\":10632:10635   */\n              0xa0\n                /* \"#utility.yul\":10617:10636   */\n              dup3\n              add\n                /* \"#utility.yul\":10610:10673   */\n              mstore\n              shl(0xd1, 0x103432b4b917)\n                /* \"#utility.yul\":10704:10707   */\n              0xc0\n                /* \"#utility.yul\":10689:10708   */\n              dup3\n              add\n                /* \"#utility.yul\":10682:10719   */\n              mstore\n                /* \"#utility.yul\":10786:10790   */\n              0x20\n                /* \"#utility.yul\":10771:10791   */\n              dup2\n              add\n                /* \"#utility.yul\":10764:10800   */\n              dup11\n              swap1\n              mstore\n                /* \"#utility.yul\":10816:10834   */\n              swap1\n              dup2\n              add\n                /* \"#utility.yul\":10809:10843   */\n              swap3\n              swap1\n              swap3\n              mstore\n              0x60\n                /* \"#utility.yul\":10859:10877   */\n              dup3\n              add\n                /* \"#utility.yul\":10852:10886   */\n              mstore\n              sub(shl(0xa0, 0x01), 0x01)\n                /* \"Inheritance.sol\":6257:6444  LogHeirAccepted(... */\n              dup9\n              and\n              swap1\n              0x14aa904c12fa948b33e901e688a79d46fe3d46a383a5b181c26475cec40d67ec\n              swap1\n                /* \"#utility.yul\":10751:10754   */\n              0xe0\n                /* \"#utility.yul\":10736:10755   */\n              add\n                /* \"Inheritance.sol\":6257:6444  LogHeirAccepted(... */\n              mload(0x40)\n              dup1\n              swap2\n              sub\n              swap1\n              log2\n                /* \"Inheritance.sol\":6113:6451  {... */\n              pop\n                /* \"Inheritance.sol\":13059:13835  {... */\n              pop\n                /* \"@openzeppelin/contracts/access/Ownable.sol\":1117:1118   */\n              pop\n              pop\n              pop\n                /* \"Inheritance.sol\":5932:6451  function acceptInheritanceRequest(... */\n              pop\n              pop\n              pop\n              jump\t// out\n                /* \"Inheritance.sol\":7096:8615  function claimInheritance() public isHeir(msg.sender) {... */\n            tag_98:\n                /* \"Inheritance.sol\":7138:7148  msg.sender */\n              caller\n                /* \"Inheritance.sol\":14287:14301  bool isPresent */\n              0x00\n                /* \"Inheritance.sol\":14324:14330  uint i */\n              dup1\n                /* \"Inheritance.sol\":14319:14459  for (uint i = 0; i < heirs.length; i++) {... */\n            tag_298:\n                /* \"Inheritance.sol\":14340:14345  heirs */\n              0x04\n                /* \"Inheritance.sol\":14340:14352  heirs.length */\n              sload\n                /* \"Inheritance.sol\":14336:14352  i < heirs.length */\n              dup2\n              lt\n                /* \"Inheritance.sol\":14319:14459  for (uint i = 0; i < heirs.length; i++) {... */\n              iszero\n              tag_299\n              jumpi\n                /* \"Inheritance.sol\":14394:14398  addr */\n              dup3\n              sub(shl(0xa0, 0x01), 0x01)\n                /* \"Inheritance.sol\":14377:14398  heirs[i].heir == addr */\n              and\n                /* \"Inheritance.sol\":14377:14382  heirs */\n              0x04\n                /* \"Inheritance.sol\":14383:14384  i */\n              dup3\n                /* \"Inheritance.sol\":14377:14385  heirs[i] */\n              dup2\n              sload\n              dup2\n              lt\n              tag_302\n              jumpi\n              tag_302\n              tag_172\n              jump\t// in\n            tag_302:\n              0x00\n              swap2\n              dup3\n              mstore\n              0x20\n              swap1\n              swap2\n              keccak256\n              0x05\n              swap1\n              swap2\n              mul\n              add\n                /* \"Inheritance.sol\":14377:14390  heirs[i].heir */\n              sload\n              sub(shl(0xa0, 0x01), 0x01)\n              and\n                /* \"Inheritance.sol\":14377:14398  heirs[i].heir == addr */\n              sub\n                /* \"Inheritance.sol\":14373:14449  if (heirs[i].heir == addr) {... */\n              tag_304\n              jumpi\n                /* \"Inheritance.sol\":14430:14434  true */\n              0x01\n                /* \"Inheritance.sol\":14418:14434  isPresent = true */\n              swap2\n              pop\n                /* \"Inheritance.sol\":14373:14449  if (heirs[i].heir == addr) {... */\n            tag_304:\n                /* \"Inheritance.sol\":14354:14357  i++ */\n              dup1\n              tag_305\n              dup2\n              tag_181\n              jump\t// in\n            tag_305:\n              swap2\n              pop\n              pop\n                /* \"Inheritance.sol\":14319:14459  for (uint i = 0; i < heirs.length; i++) {... */\n              jump(tag_298)\n            tag_299:\n              pop\n                /* \"Inheritance.sol\":14502:14506  true */\n              0x01\n                /* \"Inheritance.sol\":14489:14506  isPresent == true */\n              dup2\n              iszero\n              iszero\n              eq\n                /* \"Inheritance.sol\":14468:14583  require(... */\n              tag_306\n              jumpi\n              mload(0x40)\n              shl(0xe5, 0x461bcd)\n              dup2\n              mstore\n                /* \"#utility.yul\":11099:11101   */\n              0x20\n                /* \"Inheritance.sol\":14468:14583  require(... */\n              0x04\n              dup3\n              add\n                /* \"#utility.yul\":11081:11102   */\n              mstore\n                /* \"#utility.yul\":11138:11140   */\n              0x33\n                /* \"#utility.yul\":11118:11136   */\n              0x24\n              dup3\n              add\n                /* \"#utility.yul\":11111:11141   */\n              mstore\n                /* \"#utility.yul\":11177:11211   */\n              0x546865206164647265737320636c61696d696e672074686520696e6865726974\n                /* \"#utility.yul\":11157:11175   */\n              0x44\n              dup3\n              add\n                /* \"#utility.yul\":11150:11212   */\n              mstore\n              shl(0x69, 0x30b731b29034b9903737ba1030902432b4b917)\n                /* \"#utility.yul\":11228:11246   */\n              0x64\n              dup3\n              add\n                /* \"#utility.yul\":11221:11270   */\n              mstore\n                /* \"#utility.yul\":11287:11306   */\n              0x84\n              add\n                /* \"Inheritance.sol\":14468:14583  require(... */\n              tag_159\n                /* \"#utility.yul\":10897:11312   */\n              jump\n                /* \"Inheritance.sol\":14468:14583  require(... */\n            tag_306:\n                /* \"Inheritance.sol\":7164:7185  isAdministratorDead() */\n              tag_310\n                /* \"Inheritance.sol\":7164:7183  isAdministratorDead */\n              tag_35\n                /* \"Inheritance.sol\":7164:7185  isAdministratorDead() */\n              jump\t// in\n            tag_310:\n                /* \"Inheritance.sol\":7160:8609  if (isAdministratorDead()) {... */\n              iszero\n              tag_165\n              jumpi\n                /* \"Inheritance.sol\":7201:7224  uint256 usdcInheritance */\n              0x00\n                /* \"Inheritance.sol\":7227:7243  getUSDCBalance() */\n              tag_312\n                /* \"Inheritance.sol\":7227:7241  getUSDCBalance */\n              tag_62\n                /* \"Inheritance.sol\":7227:7243  getUSDCBalance() */\n              jump\t// in\n            tag_312:\n                /* \"Inheritance.sol\":7201:7243  uint256 usdcInheritance = getUSDCBalance() */\n              swap1\n              pop\n                /* \"Inheritance.sol\":11171:11192  address(this).balance */\n              selfbalance\n                /* \"Inheritance.sol\":7257:7281  uint256 etherInheritance */\n              0x00\n                /* \"Inheritance.sol\":7338:7354  getTotalShares() */\n              tag_314\n                /* \"Inheritance.sol\":7338:7352  getTotalShares */\n              tag_110\n                /* \"Inheritance.sol\":7338:7354  getTotalShares() */\n              jump\t// in\n            tag_314:\n                /* \"Inheritance.sol\":7316:7354  uint256 totalShares = getTotalShares() */\n              swap1\n              pop\n                /* \"Inheritance.sol\":7374:7380  uint i */\n              0x00\n                /* \"Inheritance.sol\":7369:7692  for (uint i = 0; i < heirs.length; i++) {... */\n            tag_315:\n                /* \"Inheritance.sol\":7390:7395  heirs */\n              0x04\n                /* \"Inheritance.sol\":7390:7402  heirs.length */\n              sload\n                /* \"Inheritance.sol\":7386:7402  i < heirs.length */\n              dup2\n              lt\n                /* \"Inheritance.sol\":7369:7692  for (uint i = 0; i < heirs.length; i++) {... */\n              iszero\n              tag_316\n              jumpi\n                /* \"Inheritance.sol\":7531:7542  totalShares */\n              dup2\n                /* \"Inheritance.sol\":7492:7507  usdcInheritance */\n              dup5\n                /* \"Inheritance.sol\":7475:7480  heirs */\n              0x04\n                /* \"Inheritance.sol\":7481:7482  i */\n              dup4\n                /* \"Inheritance.sol\":7475:7483  heirs[i] */\n              dup2\n              sload\n              dup2\n              lt\n              tag_319\n              jumpi\n              tag_319\n              tag_172\n              jump\t// in\n            tag_319:\n              swap1\n              0x00\n              mstore\n              keccak256(0x00, 0x20)\n              swap1\n              0x05\n              mul\n              add\n                /* \"Inheritance.sol\":7475:7489  heirs[i].share */\n              0x01\n              add\n              sload\n                /* \"Inheritance.sol\":7475:7507  heirs[i].share * usdcInheritance */\n              tag_321\n              swap2\n              swap1\n              tag_322\n              jump\t// in\n            tag_321:\n                /* \"Inheritance.sol\":7474:7542  (heirs[i].share * usdcInheritance) /... */\n              tag_323\n              swap2\n              swap1\n              tag_324\n              jump\t// in\n            tag_323:\n                /* \"Inheritance.sol\":7427:7436  heirsUSDC */\n              0x06\n                /* \"Inheritance.sol\":7427:7451  heirsUSDC[heirs[i].heir] */\n              0x00\n                /* \"Inheritance.sol\":7437:7442  heirs */\n              0x04\n                /* \"Inheritance.sol\":7443:7444  i */\n              dup5\n                /* \"Inheritance.sol\":7437:7445  heirs[i] */\n              dup2\n              sload\n              dup2\n              lt\n              tag_326\n              jumpi\n              tag_326\n              tag_172\n              jump\t// in\n            tag_326:\n              0x00\n              swap2\n              dup3\n              mstore\n              0x20\n              dup1\n              dup4\n              keccak256\n              0x05\n              swap1\n              swap3\n              mul\n              swap1\n              swap2\n              add\n                /* \"Inheritance.sol\":7437:7450  heirs[i].heir */\n              sload\n              sub(shl(0xa0, 0x01), 0x01)\n              and\n                /* \"Inheritance.sol\":7427:7451  heirsUSDC[heirs[i].heir] */\n              dup4\n              mstore\n              dup3\n              add\n              swap3\n              swap1\n              swap3\n              mstore\n              0x40\n              add\n              swap1\n              keccak256\n                /* \"Inheritance.sol\":7427:7542  heirsUSDC[heirs[i].heir] =... */\n              sstore\n                /* \"Inheritance.sol\":7609:7614  heirs */\n              0x04\n                /* \"Inheritance.sol\":7609:7617  heirs[i] */\n              dup1\n              sload\n                /* \"Inheritance.sol\":7666:7677  totalShares */\n              dup4\n              swap2\n                /* \"Inheritance.sol\":7626:7642  etherInheritance */\n              dup6\n              swap2\n                /* \"Inheritance.sol\":7615:7616  i */\n              dup5\n              swap1\n                /* \"Inheritance.sol\":7609:7617  heirs[i] */\n              dup2\n              lt\n              tag_329\n              jumpi\n              tag_329\n              tag_172\n              jump\t// in\n            tag_329:\n              swap1\n              0x00\n              mstore\n              keccak256(0x00, 0x20)\n              swap1\n              0x05\n              mul\n              add\n                /* \"Inheritance.sol\":7609:7623  heirs[i].share */\n              0x01\n              add\n              sload\n                /* \"Inheritance.sol\":7609:7642  heirs[i].share * etherInheritance */\n              tag_331\n              swap2\n              swap1\n              tag_322\n              jump\t// in\n            tag_331:\n                /* \"Inheritance.sol\":7608:7677  (heirs[i].share * etherInheritance) /... */\n              tag_332\n              swap2\n              swap1\n              tag_324\n              jump\t// in\n            tag_332:\n                /* \"Inheritance.sol\":7560:7570  heirsEther */\n              0x07\n                /* \"Inheritance.sol\":7560:7585  heirsEther[heirs[i].heir] */\n              0x00\n                /* \"Inheritance.sol\":7571:7576  heirs */\n              0x04\n                /* \"Inheritance.sol\":7577:7578  i */\n              dup5\n                /* \"Inheritance.sol\":7571:7579  heirs[i] */\n              dup2\n              sload\n              dup2\n              lt\n              tag_334\n              jumpi\n              tag_334\n              tag_172\n              jump\t// in\n            tag_334:\n              0x00\n              swap2\n              dup3\n              mstore\n              0x20\n              dup1\n              dup4\n              keccak256\n              0x05\n              swap1\n              swap3\n              mul\n              swap1\n              swap2\n              add\n                /* \"Inheritance.sol\":7571:7584  heirs[i].heir */\n              sload\n              sub(shl(0xa0, 0x01), 0x01)\n              and\n                /* \"Inheritance.sol\":7560:7585  heirsEther[heirs[i].heir] */\n              dup4\n              mstore\n              dup3\n              add\n              swap3\n              swap1\n              swap3\n              mstore\n              0x40\n              add\n              swap1\n              keccak256\n                /* \"Inheritance.sol\":7560:7677  heirsEther[heirs[i].heir] =... */\n              sstore\n                /* \"Inheritance.sol\":7404:7407  i++ */\n              dup1\n              tag_336\n              dup2\n              tag_181\n              jump\t// in\n            tag_336:\n              swap2\n              pop\n              pop\n                /* \"Inheritance.sol\":7369:7692  for (uint i = 0; i < heirs.length; i++) {... */\n              jump(tag_315)\n            tag_316:\n              pop\n                /* \"Inheritance.sol\":7706:7725  address heirAddress */\n              0x00\n              dup1\n                /* \"Inheritance.sol\":7739:8599  for (uint i = 0; i < heirs.length; i++) {... */\n            tag_337:\n                /* \"Inheritance.sol\":7760:7765  heirs */\n              0x04\n                /* \"Inheritance.sol\":7760:7772  heirs.length */\n              sload\n                /* \"Inheritance.sol\":7756:7772  i < heirs.length */\n              dup2\n              lt\n                /* \"Inheritance.sol\":7739:8599  for (uint i = 0; i < heirs.length; i++) {... */\n              iszero\n              tag_338\n              jumpi\n                /* \"Inheritance.sol\":7811:7816  heirs */\n              0x04\n                /* \"Inheritance.sol\":7817:7818  i */\n              dup2\n                /* \"Inheritance.sol\":7811:7819  heirs[i] */\n              dup2\n              sload\n              dup2\n              lt\n              tag_341\n              jumpi\n              tag_341\n              tag_172\n              jump\t// in\n            tag_341:\n              0x00\n              swap2\n              dup3\n              mstore\n              0x20\n              dup1\n              dup4\n              keccak256\n              0x05\n              swap1\n              swap3\n              mul\n              swap1\n              swap2\n              add\n                /* \"Inheritance.sol\":7811:7824  heirs[i].heir */\n              sload\n              sub(shl(0xa0, 0x01), 0x01)\n              and\n                /* \"Inheritance.sol\":7873:7896  heirsEther[heirAddress] */\n              dup1\n              dup4\n              mstore\n                /* \"Inheritance.sol\":7873:7883  heirsEther */\n              0x07\n                /* \"Inheritance.sol\":7873:7896  heirsEther[heirAddress] */\n              swap1\n              swap2\n              mstore\n              0x40\n              dup1\n              dup4\n              keccak256\n              sload\n                /* \"Inheritance.sol\":7843:7897  payable(heirAddress).transfer(heirsEther[heirAddress]) */\n              swap1\n              mload\n                /* \"Inheritance.sol\":7811:7824  heirs[i].heir */\n              swap2\n              swap5\n              pop\n              dup5\n              swap3\n                /* \"Inheritance.sol\":7843:7897  payable(heirAddress).transfer(heirsEther[heirAddress]) */\n              dup2\n              iszero\n              0x08fc\n              mul\n              swap3\n              swap1\n              dup2\n                /* \"Inheritance.sol\":7811:7819  heirs[i] */\n              dup2\n                /* \"Inheritance.sol\":7843:7897  payable(heirAddress).transfer(heirsEther[heirAddress]) */\n              dup2\n                /* \"Inheritance.sol\":7873:7896  heirsEther[heirAddress] */\n              dup6\n                /* \"Inheritance.sol\":7811:7824  heirs[i].heir */\n              dup9\n                /* \"Inheritance.sol\":7843:7897  payable(heirAddress).transfer(heirsEther[heirAddress]) */\n              dup9\n              call\n              swap4\n              pop\n              pop\n              pop\n              pop\n              iszero\n              dup1\n              iszero\n              tag_344\n              jumpi\n              returndatasize\n              0x00\n              dup1\n              returndatacopy\n              revert(0x00, returndatasize)\n            tag_344:\n              pop\n              sub(shl(0xa0, 0x01), 0x01)\n                /* \"Inheritance.sol\":7939:7962  heirsEther[heirAddress] */\n              dup3\n              and\n              0x00\n              swap1\n              dup2\n              mstore\n                /* \"Inheritance.sol\":7939:7949  heirsEther */\n              0x07\n                /* \"Inheritance.sol\":7939:7962  heirsEther[heirAddress] */\n              0x20\n              mstore\n              0x40\n              swap1\n              keccak256\n              sload\n                /* \"Inheritance.sol\":7915:7920  heirs */\n              0x04\n                /* \"Inheritance.sol\":7915:7923  heirs[i] */\n              dup1\n              sload\n                /* \"Inheritance.sol\":7921:7922  i */\n              dup4\n              swap1\n                /* \"Inheritance.sol\":7915:7923  heirs[i] */\n              dup2\n              lt\n              tag_346\n              jumpi\n              tag_346\n              tag_172\n              jump\t// in\n            tag_346:\n              0x00\n              swap2\n              dup3\n              mstore\n              0x20\n              dup1\n              dup4\n              keccak256\n              0x05\n              swap3\n              swap1\n              swap3\n              mul\n              swap1\n              swap2\n              add\n                /* \"Inheritance.sol\":7915:7936  heirs[i].etherBalance */\n              0x02\n              add\n                /* \"Inheritance.sol\":7915:7962  heirs[i].etherBalance = heirsEther[heirAddress] */\n              swap3\n              swap1\n              swap3\n              sstore\n                /* \"Inheritance.sol\":8010:8015  token */\n              sload(0x09)\n              sub(shl(0xa0, 0x01), 0x01)\n                /* \"Inheritance.sol\":8038:8060  heirsUSDC[heirAddress] */\n              dup6\n              dup2\n              and\n              dup1\n              dup5\n              mstore\n                /* \"Inheritance.sol\":8038:8047  heirsUSDC */\n              0x06\n                /* \"Inheritance.sol\":8038:8060  heirsUSDC[heirAddress] */\n              swap1\n              swap5\n              mstore\n              0x40\n              swap3\n              dup4\n              swap1\n              keccak256\n              sload\n                /* \"Inheritance.sol\":8010:8061  token.transfer(heirAddress, heirsUSDC[heirAddress]) */\n              swap3\n              mload\n              shl(0xe0, 0xa9059cbb)\n              dup2\n              mstore\n              0x04\n              dup2\n              add\n                /* \"#utility.yul\":4589:4640   */\n              swap5\n              swap1\n              swap5\n              mstore\n                /* \"#utility.yul\":4656:4674   */\n              0x24\n              dup5\n              add\n                /* \"#utility.yul\":4649:4683   */\n              swap3\n              swap1\n              swap3\n              mstore\n                /* \"Inheritance.sol\":8010:8015  token */\n              and\n              swap1\n                /* \"Inheritance.sol\":8010:8024  token.transfer */\n              0xa9059cbb\n              swap1\n                /* \"#utility.yul\":4562:4580   */\n              0x44\n              add\n                /* \"Inheritance.sol\":8010:8061  token.transfer(heirAddress, heirsUSDC[heirAddress]) */\n              0x20\n              mload(0x40)\n              dup1\n              dup4\n              sub\n              dup2\n              0x00\n              dup8\n              gas\n              call\n              iszero\n              dup1\n              iszero\n              tag_350\n              jumpi\n              returndatasize\n              0x00\n              dup1\n              returndatacopy\n              revert(0x00, returndatasize)\n            tag_350:\n              pop\n              pop\n              pop\n              pop\n              mload(0x40)\n              returndatasize\n              not(0x1f)\n              0x1f\n              dup3\n              add\n              and\n              dup3\n              add\n              dup1\n              0x40\n              mstore\n              pop\n              dup2\n              add\n              swap1\n              tag_351\n              swap2\n              swap1\n              tag_352\n              jump\t// in\n            tag_351:\n                /* \"Inheritance.sol\":7981:8159  require(... */\n              tag_353\n              jumpi\n              mload(0x40)\n              shl(0xe5, 0x461bcd)\n              dup2\n              mstore\n                /* \"#utility.yul\":12196:12198   */\n              0x20\n                /* \"Inheritance.sol\":7981:8159  require(... */\n              0x04\n              dup3\n              add\n                /* \"#utility.yul\":12178:12199   */\n              mstore\n                /* \"#utility.yul\":12235:12237   */\n              0x38\n                /* \"#utility.yul\":12215:12233   */\n              0x24\n              dup3\n              add\n                /* \"#utility.yul\":12208:12238   */\n              mstore\n                /* \"#utility.yul\":12274:12308   */\n              0x4572726f72207768696c65207472616e7366657272696e672055534443206672\n                /* \"#utility.yul\":12254:12272   */\n              0x44\n              dup3\n              add\n                /* \"#utility.yul\":12247:12309   */\n              mstore\n                /* \"#utility.yul\":12345:12371   */\n              0x6f6d2074686520636f6e747261637420746f20686569722e0000000000000000\n                /* \"#utility.yul\":12325:12343   */\n              0x64\n              dup3\n              add\n                /* \"#utility.yul\":12318:12372   */\n              mstore\n                /* \"#utility.yul\":12389:12408   */\n              0x84\n              add\n                /* \"Inheritance.sol\":7981:8159  require(... */\n              tag_159\n                /* \"#utility.yul\":11994:12414   */\n              jump\n                /* \"Inheritance.sol\":7981:8159  require(... */\n            tag_353:\n              sub(shl(0xa0, 0x01), 0x01)\n                /* \"Inheritance.sol\":8200:8222  heirsUSDC[heirAddress] */\n              dup3\n              and\n              0x00\n              swap1\n              dup2\n              mstore\n                /* \"Inheritance.sol\":8200:8209  heirsUSDC */\n              0x06\n                /* \"Inheritance.sol\":8200:8222  heirsUSDC[heirAddress] */\n              0x20\n              mstore\n              0x40\n              swap1\n              keccak256\n              sload\n                /* \"Inheritance.sol\":8177:8182  heirs */\n              0x04\n                /* \"Inheritance.sol\":8177:8185  heirs[i] */\n              dup1\n              sload\n                /* \"Inheritance.sol\":8183:8184  i */\n              dup4\n              swap1\n                /* \"Inheritance.sol\":8177:8185  heirs[i] */\n              dup2\n              lt\n              tag_357\n              jumpi\n              tag_357\n              tag_172\n              jump\t// in\n            tag_357:\n              swap1\n              0x00\n              mstore\n              keccak256(0x00, 0x20)\n              swap1\n              0x05\n              mul\n              add\n                /* \"Inheritance.sol\":8177:8197  heirs[i].usdcBalance */\n              0x03\n              add\n                /* \"Inheritance.sol\":8177:8222  heirs[i].usdcBalance = heirsUSDC[heirAddress] */\n              dup2\n              swap1\n              sstore\n              pop\n                /* \"Inheritance.sol\":8345:8356  heirAddress */\n              dup2\n              sub(shl(0xa0, 0x01), 0x01)\n                /* \"Inheritance.sol\":8246:8584  LogHeirClaiming(... */\n              and\n              0x34e2b4efda0968bd3c419ecd901876f712f93cd5fda9303ab16021c3535f5593\n                /* \"Inheritance.sol\":8378:8383  heirs */\n              0x04\n                /* \"Inheritance.sol\":8384:8385  i */\n              dup4\n                /* \"Inheritance.sol\":8378:8386  heirs[i] */\n              dup2\n              sload\n              dup2\n              lt\n              tag_360\n              jumpi\n              tag_360\n              tag_172\n              jump\t// in\n            tag_360:\n              swap1\n              0x00\n              mstore\n              keccak256(0x00, 0x20)\n              swap1\n              0x05\n              mul\n              add\n                /* \"Inheritance.sol\":8378:8392  heirs[i].share */\n              0x01\n              add\n              sload\n                /* \"Inheritance.sol\":8414:8424  heirsEther */\n              0x07\n                /* \"Inheritance.sol\":8414:8437  heirsEther[heirAddress] */\n              0x00\n                /* \"Inheritance.sol\":8425:8436  heirAddress */\n              dup7\n              sub(shl(0xa0, 0x01), 0x01)\n                /* \"Inheritance.sol\":8414:8437  heirsEther[heirAddress] */\n              and\n              sub(shl(0xa0, 0x01), 0x01)\n              and\n              dup2\n              mstore\n              0x20\n              add\n              swap1\n              dup2\n              mstore\n              0x20\n              add\n              0x00\n              keccak256\n              sload\n                /* \"Inheritance.sol\":8459:8464  heirs */\n              0x04\n                /* \"Inheritance.sol\":8465:8466  i */\n              dup6\n                /* \"Inheritance.sol\":8459:8467  heirs[i] */\n              dup2\n              sload\n              dup2\n              lt\n              tag_363\n              jumpi\n              tag_363\n              tag_172\n              jump\t// in\n            tag_363:\n              swap1\n              0x00\n              mstore\n              keccak256(0x00, 0x20)\n              swap1\n              0x05\n              mul\n              add\n                /* \"Inheritance.sol\":8459:8480  heirs[i].etherBalance */\n              0x02\n              add\n              sload\n                /* \"Inheritance.sol\":8502:8511  heirsUSDC */\n              0x06\n                /* \"Inheritance.sol\":8502:8524  heirsUSDC[heirAddress] */\n              0x00\n                /* \"Inheritance.sol\":8512:8523  heirAddress */\n              dup9\n              sub(shl(0xa0, 0x01), 0x01)\n                /* \"Inheritance.sol\":8502:8524  heirsUSDC[heirAddress] */\n              and\n              sub(shl(0xa0, 0x01), 0x01)\n              and\n              dup2\n              mstore\n              0x20\n              add\n              swap1\n              dup2\n              mstore\n              0x20\n              add\n              0x00\n              keccak256\n              sload\n                /* \"Inheritance.sol\":8546:8551  heirs */\n              0x04\n                /* \"Inheritance.sol\":8552:8553  i */\n              dup8\n                /* \"Inheritance.sol\":8546:8554  heirs[i] */\n              dup2\n              sload\n              dup2\n              lt\n              tag_366\n              jumpi\n              tag_366\n              tag_172\n              jump\t// in\n            tag_366:\n              swap1\n              0x00\n              mstore\n              keccak256(0x00, 0x20)\n              swap1\n              0x05\n              mul\n              add\n                /* \"Inheritance.sol\":8546:8566  heirs[i].usdcBalance */\n              0x03\n              add\n              sload\n                /* \"Inheritance.sol\":8246:8584  LogHeirClaiming(... */\n              mload(0x40)\n              tag_368\n              swap6\n              swap5\n              swap4\n              swap3\n              swap2\n              swap1\n                /* \"#utility.yul\":12761:12764   */\n              0xc0\n                /* \"#utility.yul\":12743:12765   */\n              dup1\n              dup3\n              mstore\n                /* \"#utility.yul\":12802:12804   */\n              0x26\n                /* \"#utility.yul\":12781:12800   */\n              swap1\n              dup3\n              add\n                /* \"#utility.yul\":12774:12805   */\n              mstore\n                /* \"#utility.yul\":12842:12876   */\n              0x457468657220616e642055534443206d6f6e65792073656e7420746f20746865\n                /* \"#utility.yul\":12836:12839   */\n              0xe0\n                /* \"#utility.yul\":12821:12840   */\n              dup3\n              add\n                /* \"#utility.yul\":12814:12877   */\n              mstore\n              shl(0xd1, 0x103432b4b917)\n                /* \"#utility.yul\":12908:12911   */\n              0x0100\n                /* \"#utility.yul\":12893:12912   */\n              dup3\n              add\n                /* \"#utility.yul\":12886:12923   */\n              mstore\n                /* \"#utility.yul\":12990:12994   */\n              0x20\n                /* \"#utility.yul\":12975:12995   */\n              dup2\n              add\n                /* \"#utility.yul\":12968:13004   */\n              swap6\n              swap1\n              swap6\n              mstore\n                /* \"#utility.yul\":13035:13037   */\n              0x40\n                /* \"#utility.yul\":13020:13038   */\n              dup6\n              add\n                /* \"#utility.yul\":13013:13047   */\n              swap4\n              swap1\n              swap4\n              mstore\n                /* \"#utility.yul\":13078:13080   */\n              0x60\n                /* \"#utility.yul\":13063:13081   */\n              dup5\n              add\n                /* \"#utility.yul\":13056:13090   */\n              swap2\n              swap1\n              swap2\n              mstore\n              0x80\n                /* \"#utility.yul\":13106:13125   */\n              dup4\n              add\n                /* \"#utility.yul\":13099:13134   */\n              mstore\n              0xa0\n                /* \"#utility.yul\":13150:13169   */\n              dup3\n              add\n                /* \"#utility.yul\":13143:13178   */\n              mstore\n                /* \"#utility.yul\":12955:12958   */\n              0x0120\n                /* \"#utility.yul\":12940:12959   */\n              add\n              swap1\n                /* \"#utility.yul\":12419:13184   */\n              jump\n                /* \"Inheritance.sol\":8246:8584  LogHeirClaiming(... */\n            tag_368:\n              mload(0x40)\n              dup1\n              swap2\n              sub\n              swap1\n              log2\n                /* \"Inheritance.sol\":7774:7777  i++ */\n              dup1\n              tag_370\n              dup2\n              tag_181\n              jump\t// in\n            tag_370:\n              swap2\n              pop\n              pop\n                /* \"Inheritance.sol\":7739:8599  for (uint i = 0; i < heirs.length; i++) {... */\n              jump(tag_337)\n            tag_338:\n              pop\n                /* \"Inheritance.sol\":7187:8609  {... */\n              pop\n              pop\n              pop\n              pop\n                /* \"Inheritance.sol\":14277:14601  {... */\n              pop\n                /* \"Inheritance.sol\":7096:8615  function claimInheritance() public isHeir(msg.sender) {... */\n              pop\n              jump\t// out\n                /* \"Inheritance.sol\":10871:10974  function getAliveTimeOut() public view onlyOwner returns (uint256) {... */\n            tag_101:\n                /* \"Inheritance.sol\":10929:10936  uint256 */\n              0x00\n                /* \"@openzeppelin/contracts/access/Ownable.sol\":1094:1107   */\n              tag_372\n                /* \"@openzeppelin/contracts/access/Ownable.sol\":1094:1105   */\n              tag_153\n                /* \"@openzeppelin/contracts/access/Ownable.sol\":1094:1107   */\n              jump\t// in\n            tag_372:\n              pop\n                /* \"Inheritance.sol\":10955:10967  aliveTimeOut */\n              sload(0x03)\n                /* \"Inheritance.sol\":10871:10974  function getAliveTimeOut() public view onlyOwner returns (uint256) {... */\n              swap1\n              jump\t// out\n                /* \"Inheritance.sol\":5249:5574  function signalAlive() public onlyOwner {... */\n            tag_105:\n                /* \"@openzeppelin/contracts/access/Ownable.sol\":1094:1107   */\n              tag_375\n                /* \"@openzeppelin/contracts/access/Ownable.sol\":1094:1105   */\n              tag_153\n                /* \"@openzeppelin/contracts/access/Ownable.sol\":1094:1107   */\n              jump\t// in\n            tag_375:\n                /* \"Inheritance.sol\":5325:5340  block.timestamp */\n              timestamp\n                /* \"Inheritance.sol\":5299:5322  administrator.lastAlive */\n              0x02\n                /* \"Inheritance.sol\":5299:5340  administrator.lastAlive = block.timestamp */\n              dup2\n              swap1\n              sstore\n                /* \"Inheritance.sol\":5545:5557  aliveTimeOut */\n              sload(0x03)\n                /* \"Inheritance.sol\":5355:5567  LogAdministratorAlive(... */\n              0x40\n              dup1\n              mload\n                /* \"#utility.yul\":13475:13478   */\n              0x80\n                /* \"#utility.yul\":13457:13479   */\n              dup1\n              dup3\n              mstore\n                /* \"#utility.yul\":13516:13518   */\n              0x31\n                /* \"#utility.yul\":13495:13514   */\n              swap1\n              dup3\n              add\n                /* \"#utility.yul\":13488:13519   */\n              mstore\n                /* \"#utility.yul\":13556:13590   */\n              0x41646d696e6973747261746f722073656e64732061207369676e616c20746f20\n                /* \"#utility.yul\":13550:13553   */\n              0xa0\n                /* \"#utility.yul\":13535:13554   */\n              dup3\n              add\n                /* \"#utility.yul\":13528:13591   */\n              mstore\n              shl(0x79, 0x39b437bb9034329034b99030b634bb3297)\n                /* \"#utility.yul\":13622:13625   */\n              0xc0\n                /* \"#utility.yul\":13607:13626   */\n              dup3\n              add\n                /* \"#utility.yul\":13600:13648   */\n              mstore\n                /* \"#utility.yul\":13715:13719   */\n              0x20\n                /* \"#utility.yul\":13700:13720   */\n              dup2\n              add\n                /* \"#utility.yul\":13693:13729   */\n              dup5\n              swap1\n              mstore\n                /* \"#utility.yul\":13745:13763   */\n              swap1\n              dup2\n              add\n                /* \"#utility.yul\":13738:13772   */\n              swap3\n              swap1\n              swap3\n              mstore\n              0x60\n                /* \"#utility.yul\":13788:13806   */\n              dup3\n              add\n                /* \"#utility.yul\":13781:13815   */\n              mstore\n                /* \"Inheritance.sol\":5455:5465  msg.sender */\n              caller\n              swap1\n                /* \"Inheritance.sol\":5355:5567  LogAdministratorAlive(... */\n              0x5f1aa2875b7b1df0cd72a6ee708c6aff6432288001c47518bc91be4599fdf6e6\n              swap1\n                /* \"#utility.yul\":13680:13683   */\n              0xe0\n                /* \"#utility.yul\":13665:13684   */\n              add\n                /* \"Inheritance.sol\":5355:5567  LogAdministratorAlive(... */\n              mload(0x40)\n              dup1\n              swap2\n              sub\n              swap1\n              log2\n                /* \"Inheritance.sol\":5249:5574  function signalAlive() public onlyOwner {... */\n              jump\t// out\n                /* \"Inheritance.sol\":4191:4468  function deposit() public payable {... */\n            tag_107:\n                /* \"Inheritance.sol\":4359:4372  administrator */\n              0x01\n                /* \"Inheritance.sol\":4359:4393  administrator.administratorAddress */\n              sload\n                /* \"Inheritance.sol\":4240:4461  LogDeposit(... */\n              0x40\n              dup1\n              mload\n                /* \"#utility.yul\":14112:14115   */\n              0x80\n                /* \"#utility.yul\":14094:14116   */\n              dup1\n              dup3\n              mstore\n                /* \"#utility.yul\":14153:14155   */\n              0x4f\n                /* \"#utility.yul\":14132:14151   */\n              swap1\n              dup3\n              add\n                /* \"#utility.yul\":14125:14156   */\n              mstore\n                /* \"#utility.yul\":14193:14227   */\n              0x4c6f6720616c6c207468652076616c7565733a2041646d696e6973747261746f\n                /* \"#utility.yul\":14187:14190   */\n              0xa0\n                /* \"#utility.yul\":14172:14191   */\n              dup3\n              add\n                /* \"#utility.yul\":14165:14228   */\n              mstore\n                /* \"#utility.yul\":14265:14299   */\n              0x7220616464726573732c20416d6f756e742073656e742c20436f6e7472616374\n                /* \"#utility.yul\":14259:14262   */\n              0xc0\n                /* \"#utility.yul\":14244:14263   */\n              dup3\n              add\n                /* \"#utility.yul\":14237:14300   */\n              mstore\n              shl(0x89, 0x1032ba3432b9103130b630b731b297)\n                /* \"#utility.yul\":14331:14334   */\n              0xe0\n                /* \"#utility.yul\":14316:14335   */\n              dup3\n              add\n                /* \"#utility.yul\":14309:14355   */\n              mstore\n              sub(shl(0xa0, 0x01), 0x01)\n                /* \"Inheritance.sol\":4359:4393  administrator.administratorAddress */\n              swap1\n              swap3\n              and\n                /* \"#utility.yul\":14422:14426   */\n              0x20\n                /* \"#utility.yul\":14407:14427   */\n              dup4\n              add\n                /* \"#utility.yul\":14400:14462   */\n              mstore\n                /* \"Inheritance.sol\":4407:4416  msg.value */\n              callvalue\n                /* \"#utility.yul\":14478:14496   */\n              dup3\n              dup3\n              add\n                /* \"#utility.yul\":14471:14505   */\n              mstore\n                /* \"Inheritance.sol\":4430:4451  address(this).balance */\n              selfbalance\n              0x60\n                /* \"#utility.yul\":14521:14539   */\n              dup4\n              add\n                /* \"#utility.yul\":14514:14548   */\n              mstore\n                /* \"Inheritance.sol\":4240:4461  LogDeposit(... */\n              mload\n              0x0e329d93cfda1bd6ead1003e3ae53461617c8d120014dfaea03d2fb42ec55b07\n              swap2\n              dup2\n              swap1\n              sub\n                /* \"#utility.yul\":14387:14390   */\n              0x0100\n                /* \"Inheritance.sol\":4240:4461  LogDeposit(... */\n              add\n              swap1\n              log1\n                /* \"Inheritance.sol\":4191:4468  function deposit() public payable {... */\n              jump\t// out\n                /* \"Inheritance.sol\":11534:11761  function getTotalShares() public view returns (uint256) {... */\n            tag_110:\n                /* \"Inheritance.sol\":11581:11588  uint256 */\n              0x00\n              dup1\n              dup1\n                /* \"Inheritance.sol\":11633:11727  for (uint i = 0; i < heirs.length; i++) {... */\n            tag_383:\n                /* \"Inheritance.sol\":11654:11659  heirs */\n              0x04\n                /* \"Inheritance.sol\":11654:11666  heirs.length */\n              sload\n                /* \"Inheritance.sol\":11650:11666  i < heirs.length */\n              dup2\n              lt\n                /* \"Inheritance.sol\":11633:11727  for (uint i = 0; i < heirs.length; i++) {... */\n              iszero\n              tag_168\n              jumpi\n                /* \"Inheritance.sol\":11702:11707  heirs */\n              0x04\n                /* \"Inheritance.sol\":11708:11709  i */\n              dup2\n                /* \"Inheritance.sol\":11702:11710  heirs[i] */\n              dup2\n              sload\n              dup2\n              lt\n              tag_387\n              jumpi\n              tag_387\n              tag_172\n              jump\t// in\n            tag_387:\n              swap1\n              0x00\n              mstore\n              keccak256(0x00, 0x20)\n              swap1\n              0x05\n              mul\n              add\n                /* \"Inheritance.sol\":11702:11716  heirs[i].share */\n              0x01\n              add\n              sload\n                /* \"Inheritance.sol\":11687:11716  totalShares += heirs[i].share */\n              dup3\n              tag_389\n              swap2\n              swap1\n              tag_282\n              jump\t// in\n            tag_389:\n              swap2\n              pop\n                /* \"Inheritance.sol\":11668:11671  i++ */\n              dup1\n              tag_390\n              dup2\n              tag_181\n              jump\t// in\n            tag_390:\n              swap2\n              pop\n              pop\n                /* \"Inheritance.sol\":11633:11727  for (uint i = 0; i < heirs.length; i++) {... */\n              jump(tag_383)\n                /* \"Inheritance.sol\":9614:10257  function removeNFTDeed(uint256 tokenId) public onlyOwner {... */\n            tag_115:\n                /* \"@openzeppelin/contracts/access/Ownable.sol\":1094:1107   */\n              tag_392\n                /* \"@openzeppelin/contracts/access/Ownable.sol\":1094:1105   */\n              tag_153\n                /* \"@openzeppelin/contracts/access/Ownable.sol\":1094:1107   */\n              jump\t// in\n            tag_392:\n                /* \"Inheritance.sol\":9681:9700  address currentHeir */\n              0x00\n                /* \"Inheritance.sol\":9703:9720  nftHeirs[tokenId] */\n              dup2\n              dup2\n              mstore\n                /* \"Inheritance.sol\":9703:9711  nftHeirs */\n              0x08\n                /* \"Inheritance.sol\":9703:9720  nftHeirs[tokenId] */\n              0x20\n              mstore\n              0x40\n              swap1\n              keccak256\n              sload\n              sub(shl(0xa0, 0x01), 0x01)\n              and\n              dup1\n                /* \"Inheritance.sol\":9730:9799  require(currentHeir != address(0), \"Token not assigned to any heir.\") */\n              tag_394\n              jumpi\n              mload(0x40)\n              shl(0xe5, 0x461bcd)\n              dup2\n              mstore\n                /* \"#utility.yul\":14761:14763   */\n              0x20\n                /* \"Inheritance.sol\":9730:9799  require(currentHeir != address(0), \"Token not assigned to any heir.\") */\n              0x04\n              dup3\n              add\n                /* \"#utility.yul\":14743:14764   */\n              mstore\n                /* \"#utility.yul\":14800:14802   */\n              0x1f\n                /* \"#utility.yul\":14780:14798   */\n              0x24\n              dup3\n              add\n                /* \"#utility.yul\":14773:14803   */\n              mstore\n                /* \"#utility.yul\":14839:14872   */\n              0x546f6b656e206e6f742061737369676e656420746f20616e7920686569722e00\n                /* \"#utility.yul\":14819:14837   */\n              0x44\n              dup3\n              add\n                /* \"#utility.yul\":14812:14873   */\n              mstore\n                /* \"#utility.yul\":14890:14908   */\n              0x64\n              add\n                /* \"Inheritance.sol\":9730:9799  require(currentHeir != address(0), \"Token not assigned to any heir.\") */\n              tag_159\n                /* \"#utility.yul\":14559:14914   */\n              jump\n                /* \"Inheritance.sol\":9730:9799  require(currentHeir != address(0), \"Token not assigned to any heir.\") */\n            tag_394:\n                /* \"Inheritance.sol\":9886:9895  uint256 i */\n              0x00\n                /* \"Inheritance.sol\":9881:10160  for (uint256 i = 0; i < heirs.length; i++) {... */\n            tag_397:\n                /* \"Inheritance.sol\":9905:9910  heirs */\n              0x04\n                /* \"Inheritance.sol\":9905:9917  heirs.length */\n              sload\n                /* \"Inheritance.sol\":9901:9917  i < heirs.length */\n              dup2\n              lt\n                /* \"Inheritance.sol\":9881:10160  for (uint256 i = 0; i < heirs.length; i++) {... */\n              iszero\n              tag_398\n              jumpi\n                /* \"Inheritance.sol\":9959:9970  currentHeir */\n              dup2\n              sub(shl(0xa0, 0x01), 0x01)\n                /* \"Inheritance.sol\":9942:9970  heirs[i].heir == currentHeir */\n              and\n                /* \"Inheritance.sol\":9942:9947  heirs */\n              0x04\n                /* \"Inheritance.sol\":9948:9949  i */\n              dup3\n                /* \"Inheritance.sol\":9942:9950  heirs[i] */\n              dup2\n              sload\n              dup2\n              lt\n              tag_401\n              jumpi\n              tag_401\n              tag_172\n              jump\t// in\n            tag_401:\n              0x00\n              swap2\n              dup3\n              mstore\n              0x20\n              swap1\n              swap2\n              keccak256\n              0x05\n              swap1\n              swap2\n              mul\n              add\n                /* \"Inheritance.sol\":9942:9955  heirs[i].heir */\n              sload\n              sub(shl(0xa0, 0x01), 0x01)\n              and\n                /* \"Inheritance.sol\":9942:9970  heirs[i].heir == currentHeir */\n              sub\n                /* \"Inheritance.sol\":9938:10150  if (heirs[i].heir == currentHeir) {... */\n              tag_403\n              jumpi\n                /* \"Inheritance.sol\":9990:10003  uint256 index */\n              0x00\n                /* \"Inheritance.sol\":10006:10048  indexOfToken(heirs[i].NFTDeedIds, tokenId) */\n              tag_404\n                /* \"Inheritance.sol\":10019:10024  heirs */\n              0x04\n                /* \"Inheritance.sol\":10025:10026  i */\n              dup4\n                /* \"Inheritance.sol\":10019:10027  heirs[i] */\n              dup2\n              sload\n              dup2\n              lt\n              tag_406\n              jumpi\n              tag_406\n              tag_172\n              jump\t// in\n            tag_406:\n              swap1\n              0x00\n              mstore\n              keccak256(0x00, 0x20)\n              swap1\n              0x05\n              mul\n              add\n                /* \"Inheritance.sol\":10019:10038  heirs[i].NFTDeedIds */\n              0x04\n              add\n                /* \"Inheritance.sol\":10040:10047  tokenId */\n              dup6\n                /* \"Inheritance.sol\":10006:10018  indexOfToken */\n              tag_209\n                /* \"Inheritance.sol\":10006:10048  indexOfToken(heirs[i].NFTDeedIds, tokenId) */\n              jump\t// in\n            tag_404:\n                /* \"Inheritance.sol\":9990:10048  uint256 index = indexOfToken(heirs[i].NFTDeedIds, tokenId) */\n              swap1\n              pop\n                /* \"Inheritance.sol\":10066:10112  removeTokenAtIndex(heirs[i].NFTDeedIds, index) */\n              tag_408\n                /* \"Inheritance.sol\":10085:10090  heirs */\n              0x04\n                /* \"Inheritance.sol\":10091:10092  i */\n              dup4\n                /* \"Inheritance.sol\":10085:10093  heirs[i] */\n              dup2\n              sload\n              dup2\n              lt\n              tag_212\n              jumpi\n              tag_212\n              tag_172\n              jump\t// in\n                /* \"Inheritance.sol\":10066:10112  removeTokenAtIndex(heirs[i].NFTDeedIds, index) */\n            tag_408:\n                /* \"Inheritance.sol\":10130:10135  break */\n              pop\n              jump(tag_398)\n                /* \"Inheritance.sol\":9938:10150  if (heirs[i].heir == currentHeir) {... */\n            tag_403:\n                /* \"Inheritance.sol\":9919:9922  i++ */\n              dup1\n              tag_412\n              dup2\n              tag_181\n              jump\t// in\n            tag_412:\n              swap2\n              pop\n              pop\n                /* \"Inheritance.sol\":9881:10160  for (uint256 i = 0; i < heirs.length; i++) {... */\n              jump(tag_397)\n            tag_398:\n              pop\n              pop\n                /* \"Inheritance.sol\":10233:10250  nftHeirs[tokenId] */\n              0x00\n              swap1\n              dup2\n              mstore\n                /* \"Inheritance.sol\":10233:10241  nftHeirs */\n              0x08\n                /* \"Inheritance.sol\":10233:10250  nftHeirs[tokenId] */\n              0x20\n              mstore\n              0x40\n              swap1\n              keccak256\n                /* \"Inheritance.sol\":10226:10250  delete nftHeirs[tokenId] */\n              dup1\n              sload\n              not(sub(shl(0xa0, 0x01), 0x01))\n              and\n              swap1\n              sstore\n                /* \"Inheritance.sol\":9614:10257  function removeNFTDeed(uint256 tokenId) public onlyOwner {... */\n              jump\t// out\n                /* \"Inheritance.sol\":4499:4852  function withdrawUSDC(uint256 amount) public onlyOwner {... */\n            tag_119:\n                /* \"@openzeppelin/contracts/access/Ownable.sol\":1094:1107   */\n              tag_414\n                /* \"@openzeppelin/contracts/access/Ownable.sol\":1094:1105   */\n              tag_153\n                /* \"@openzeppelin/contracts/access/Ownable.sol\":1094:1107   */\n              jump\t// in\n            tag_414:\n                /* \"Inheritance.sol\":4581:4582  0 */\n              0x00\n                /* \"Inheritance.sol\":4572:4578  amount */\n              dup2\n                /* \"Inheritance.sol\":4572:4582  amount > 0 */\n              gt\n                /* \"Inheritance.sol\":4564:4611  require(amount > 0, \"Amount must be positive.\") */\n              tag_416\n              jumpi\n              mload(0x40)\n              shl(0xe5, 0x461bcd)\n              dup2\n              mstore\n                /* \"#utility.yul\":5161:5163   */\n              0x20\n                /* \"Inheritance.sol\":4564:4611  require(amount > 0, \"Amount must be positive.\") */\n              0x04\n              dup3\n              add\n                /* \"#utility.yul\":5143:5164   */\n              mstore\n                /* \"#utility.yul\":5200:5202   */\n              0x18\n                /* \"#utility.yul\":5180:5198   */\n              0x24\n              dup3\n              add\n                /* \"#utility.yul\":5173:5203   */\n              mstore\n              shl(0x41, 0x20b6b7bab73a1036bab9ba103132903837b9b4ba34bb3297)\n                /* \"#utility.yul\":5219:5237   */\n              0x44\n              dup3\n              add\n                /* \"#utility.yul\":5212:5266   */\n              mstore\n                /* \"#utility.yul\":5283:5301   */\n              0x64\n              add\n                /* \"Inheritance.sol\":4564:4611  require(amount > 0, \"Amount must be positive.\") */\n              tag_159\n                /* \"#utility.yul\":4959:5307   */\n              jump\n                /* \"Inheritance.sol\":4564:4611  require(amount > 0, \"Amount must be positive.\") */\n            tag_416:\n                /* \"Inheritance.sol\":4639:4655  getUSDCBalance() */\n              tag_418\n                /* \"Inheritance.sol\":4639:4653  getUSDCBalance */\n              tag_62\n                /* \"Inheritance.sol\":4639:4655  getUSDCBalance() */\n              jump\t// in\n            tag_418:\n                /* \"Inheritance.sol\":4629:4635  amount */\n              dup2\n                /* \"Inheritance.sol\":4629:4655  amount <= getUSDCBalance() */\n              gt\n              iszero\n                /* \"Inheritance.sol\":4621:4684  require(amount <= getUSDCBalance(), \"Not enough USDC balance.\") */\n              tag_419\n              jumpi\n              mload(0x40)\n              shl(0xe5, 0x461bcd)\n              dup2\n              mstore\n                /* \"#utility.yul\":15121:15123   */\n              0x20\n                /* \"Inheritance.sol\":4621:4684  require(amount <= getUSDCBalance(), \"Not enough USDC balance.\") */\n              0x04\n              dup3\n              add\n                /* \"#utility.yul\":15103:15124   */\n              mstore\n                /* \"#utility.yul\":15160:15162   */\n              0x18\n                /* \"#utility.yul\":15140:15158   */\n              0x24\n              dup3\n              add\n                /* \"#utility.yul\":15133:15163   */\n              mstore\n                /* \"#utility.yul\":15199:15225   */\n              0x4e6f7420656e6f75676820555344432062616c616e63652e0000000000000000\n                /* \"#utility.yul\":15179:15197   */\n              0x44\n              dup3\n              add\n                /* \"#utility.yul\":15172:15226   */\n              mstore\n                /* \"#utility.yul\":15243:15261   */\n              0x64\n              add\n                /* \"Inheritance.sol\":4621:4684  require(amount <= getUSDCBalance(), \"Not enough USDC balance.\") */\n              tag_159\n                /* \"#utility.yul\":14919:15267   */\n              jump\n                /* \"Inheritance.sol\":4621:4684  require(amount <= getUSDCBalance(), \"Not enough USDC balance.\") */\n            tag_419:\n                /* \"Inheritance.sol\":4716:4721  token */\n              sload(0x09)\n                /* \"Inheritance.sol\":4716:4750  token.transfer(msg.sender, amount) */\n              mload(0x40)\n              shl(0xe0, 0xa9059cbb)\n              dup2\n              mstore\n                /* \"Inheritance.sol\":4731:4741  msg.sender */\n              caller\n                /* \"Inheritance.sol\":4716:4750  token.transfer(msg.sender, amount) */\n              0x04\n              dup3\n              add\n                /* \"#utility.yul\":4589:4640   */\n              mstore\n                /* \"#utility.yul\":4656:4674   */\n              0x24\n              dup2\n              add\n                /* \"#utility.yul\":4649:4683   */\n              dup4\n              swap1\n              mstore\n              sub(shl(0xa0, 0x01), 0x01)\n                /* \"Inheritance.sol\":4716:4721  token */\n              swap1\n              swap2\n              and\n              swap1\n                /* \"Inheritance.sol\":4716:4730  token.transfer */\n              0xa9059cbb\n              swap1\n                /* \"#utility.yul\":4562:4580   */\n              0x44\n              add\n                /* \"Inheritance.sol\":4716:4750  token.transfer(msg.sender, amount) */\n              0x20\n              mload(0x40)\n              dup1\n              dup4\n              sub\n              dup2\n              0x00\n              dup8\n              gas\n              call\n              iszero\n              dup1\n              iszero\n              tag_424\n              jumpi\n              returndatasize\n              0x00\n              dup1\n              returndatacopy\n              revert(0x00, returndatasize)\n            tag_424:\n              pop\n              pop\n              pop\n              pop\n              mload(0x40)\n              returndatasize\n              not(0x1f)\n              0x1f\n              dup3\n              add\n              and\n              dup3\n              add\n              dup1\n              0x40\n              mstore\n              pop\n              dup2\n              add\n              swap1\n              tag_425\n              swap2\n              swap1\n              tag_352\n              jump\t// in\n            tag_425:\n                /* \"Inheritance.sol\":4695:4845  require(... */\n              tag_426\n              jumpi\n              mload(0x40)\n              shl(0xe5, 0x461bcd)\n              dup2\n              mstore\n                /* \"#utility.yul\":15474:15476   */\n              0x20\n                /* \"Inheritance.sol\":4695:4845  require(... */\n              0x04\n              dup3\n              add\n                /* \"#utility.yul\":15456:15477   */\n              mstore\n                /* \"#utility.yul\":15513:15515   */\n              0x45\n                /* \"#utility.yul\":15493:15511   */\n              0x24\n              dup3\n              add\n                /* \"#utility.yul\":15486:15516   */\n              mstore\n                /* \"#utility.yul\":15552:15586   */\n              0x4572726f72207768696c65207472616e7366657272696e672055534443206672\n                /* \"#utility.yul\":15532:15550   */\n              0x44\n              dup3\n              add\n                /* \"#utility.yul\":15525:15587   */\n              mstore\n                /* \"#utility.yul\":15623:15657   */\n              0x6f6d2074686520636f6e747261637420746f207468652061646d696e69737472\n                /* \"#utility.yul\":15603:15621   */\n              0x64\n              dup3\n              add\n                /* \"#utility.yul\":15596:15658   */\n              mstore\n              shl(0xd9, 0x30ba37b917)\n                /* \"#utility.yul\":15674:15693   */\n              0x84\n              dup3\n              add\n                /* \"#utility.yul\":15667:15703   */\n              mstore\n                /* \"#utility.yul\":15720:15739   */\n              0xa4\n              add\n                /* \"Inheritance.sol\":4695:4845  require(... */\n              tag_159\n                /* \"#utility.yul\":15272:15745   */\n              jump\n                /* \"Inheritance.sol\":4695:4845  require(... */\n            tag_426:\n                /* \"Inheritance.sol\":4499:4852  function withdrawUSDC(uint256 amount) public onlyOwner {... */\n              pop\n              jump\t// out\n                /* \"Inheritance.sol\":5130:5243  function updateAliveTimeOut(uint256 _aliveTimeOut) public onlyOwner {... */\n            tag_123:\n                /* \"@openzeppelin/contracts/access/Ownable.sol\":1094:1107   */\n              tag_430\n                /* \"@openzeppelin/contracts/access/Ownable.sol\":1094:1105   */\n              tag_153\n                /* \"@openzeppelin/contracts/access/Ownable.sol\":1094:1107   */\n              jump\t// in\n            tag_430:\n                /* \"Inheritance.sol\":5208:5220  aliveTimeOut */\n              0x03\n                /* \"Inheritance.sol\":5208:5236  aliveTimeOut = _aliveTimeOut */\n              sstore\n                /* \"Inheritance.sol\":5130:5243  function updateAliveTimeOut(uint256 _aliveTimeOut) public onlyOwner {... */\n              jump\t// out\n                /* \"Inheritance.sol\":6457:6848  function rejectInheritanceRequest(... */\n            tag_127:\n                /* \"@openzeppelin/contracts/access/Ownable.sol\":1094:1107   */\n              tag_433\n                /* \"@openzeppelin/contracts/access/Ownable.sol\":1094:1105   */\n              tag_153\n                /* \"@openzeppelin/contracts/access/Ownable.sol\":1094:1107   */\n              jump\t// in\n            tag_433:\n                /* \"Inheritance.sol\":13951:13970  inheritanceRequests */\n              0x05\n                /* \"Inheritance.sol\":13951:13977  inheritanceRequests.length */\n              sload\n                /* \"Inheritance.sol\":6597:6602  index */\n              dup3\n              swap1\n                /* \"Inheritance.sol\":6604:6613  requester */\n              dup3\n              swap1\n                /* \"Inheritance.sol\":13943:13977  index < inheritanceRequests.length */\n              dup3\n              lt\n                /* \"Inheritance.sol\":13922:14059  require(... */\n              tag_435\n              jumpi\n              mload(0x40)\n              shl(0xe5, 0x461bcd)\n              dup2\n              mstore\n              0x04\n              add\n              tag_159\n              swap1\n              tag_262\n              jump\t// in\n            tag_435:\n                /* \"Inheritance.sol\":14120:14124  addr */\n              dup1\n              sub(shl(0xa0, 0x01), 0x01)\n                /* \"Inheritance.sol\":14090:14124  inheritanceRequests[index] == addr */\n              and\n                /* \"Inheritance.sol\":14090:14109  inheritanceRequests */\n              0x05\n                /* \"Inheritance.sol\":14110:14115  index */\n              dup4\n                /* \"Inheritance.sol\":14090:14116  inheritanceRequests[index] */\n              dup2\n              sload\n              dup2\n              lt\n              tag_438\n              jumpi\n              tag_438\n              tag_172\n              jump\t// in\n            tag_438:\n              0x00\n              swap2\n              dup3\n              mstore\n              0x20\n              swap1\n              swap2\n              keccak256\n              add\n              sload\n              sub(shl(0xa0, 0x01), 0x01)\n              and\n                /* \"Inheritance.sol\":14090:14124  inheritanceRequests[index] == addr */\n              eq\n                /* \"Inheritance.sol\":14069:14223  require(... */\n              tag_440\n              jumpi\n              mload(0x40)\n              shl(0xe5, 0x461bcd)\n              dup2\n              mstore\n              0x04\n              add\n              tag_159\n              swap1\n              tag_268\n              jump\t// in\n            tag_440:\n                /* \"Inheritance.sol\":6625:6645  removeRequest(index) */\n              tag_443\n                /* \"Inheritance.sol\":6639:6644  index */\n              dup5\n                /* \"Inheritance.sol\":6625:6638  removeRequest */\n              tag_293\n                /* \"Inheritance.sol\":6625:6645  removeRequest(index) */\n              jump\t// in\n            tag_443:\n                /* \"Inheritance.sol\":6779:6798  inheritanceRequests */\n              0x05\n                /* \"Inheritance.sol\":6779:6805  inheritanceRequests.length */\n              sload\n                /* \"Inheritance.sol\":6819:6824  heirs */\n              0x04\n                /* \"Inheritance.sol\":6819:6831  heirs.length */\n              sload\n                /* \"Inheritance.sol\":6660:6841  LogHeirRejected(... */\n              0x40\n              dup1\n              mload\n                /* \"#utility.yul\":16008:16010   */\n              0x60\n                /* \"#utility.yul\":15990:16011   */\n              dup1\n              dup3\n              mstore\n                /* \"#utility.yul\":16047:16049   */\n              0x33\n                /* \"#utility.yul\":16027:16045   */\n              swap1\n              dup3\n              add\n                /* \"#utility.yul\":16020:16050   */\n              mstore\n                /* \"#utility.yul\":16087:16121   */\n              0x41646d696e6973747261746f722072656a656374732075736572277320726571\n                /* \"#utility.yul\":16081:16084   */\n              0x80\n                /* \"#utility.yul\":16066:16085   */\n              dup3\n              add\n                /* \"#utility.yul\":16059:16122   */\n              mstore\n              shl(0x69, 0x3ab2b9ba103a379031329030b7103432b4b917)\n                /* \"#utility.yul\":16153:16156   */\n              0xa0\n                /* \"#utility.yul\":16138:16157   */\n              dup3\n              add\n                /* \"#utility.yul\":16131:16181   */\n              mstore\n                /* \"#utility.yul\":16248:16252   */\n              0x20\n                /* \"#utility.yul\":16233:16253   */\n              dup2\n              add\n                /* \"#utility.yul\":16226:16262   */\n              swap4\n              swap1\n              swap4\n              mstore\n                /* \"#utility.yul\":16278:16296   */\n              dup3\n              add\n                /* \"#utility.yul\":16271:16305   */\n              mstore\n              sub(shl(0xa0, 0x01), 0x01)\n                /* \"Inheritance.sol\":6660:6841  LogHeirRejected(... */\n              dup5\n              and\n              swap1\n              0x05541b3bb46c30ee5aea95b57d7a1d3949da67ba8e09c865da2318f2fb273857\n              swap1\n                /* \"#utility.yul\":16213:16216   */\n              0xc0\n                /* \"#utility.yul\":16198:16217   */\n              add\n                /* \"Inheritance.sol\":6660:6841  LogHeirRejected(... */\n              mload(0x40)\n              dup1\n              swap2\n              sub\n              swap1\n              log2\n                /* \"@openzeppelin/contracts/access/Ownable.sol\":1117:1118   */\n              pop\n              pop\n                /* \"Inheritance.sol\":6457:6848  function rejectInheritanceRequest(... */\n              pop\n              pop\n              jump\t// out\n                /* \"@openzeppelin/contracts/access/Ownable.sol\":2081:2279   */\n            tag_135:\n                /* \"@openzeppelin/contracts/access/Ownable.sol\":1094:1107   */\n              tag_448\n                /* \"@openzeppelin/contracts/access/Ownable.sol\":1094:1105   */\n              tag_153\n                /* \"@openzeppelin/contracts/access/Ownable.sol\":1094:1107   */\n              jump\t// in\n            tag_448:\n              sub(shl(0xa0, 0x01), 0x01)\n                /* \"@openzeppelin/contracts/access/Ownable.sol\":2169:2191   */\n              dup2\n              and\n                /* \"@openzeppelin/contracts/access/Ownable.sol\":2161:2234   */\n              tag_450\n              jumpi\n              mload(0x40)\n              shl(0xe5, 0x461bcd)\n              dup2\n              mstore\n                /* \"#utility.yul\":16518:16520   */\n              0x20\n                /* \"@openzeppelin/contracts/access/Ownable.sol\":2161:2234   */\n              0x04\n              dup3\n              add\n                /* \"#utility.yul\":16500:16521   */\n              mstore\n                /* \"#utility.yul\":16557:16559   */\n              0x26\n                /* \"#utility.yul\":16537:16555   */\n              0x24\n              dup3\n              add\n                /* \"#utility.yul\":16530:16560   */\n              mstore\n                /* \"#utility.yul\":16596:16630   */\n              0x4f776e61626c653a206e6577206f776e657220697320746865207a65726f2061\n                /* \"#utility.yul\":16576:16594   */\n              0x44\n              dup3\n              add\n                /* \"#utility.yul\":16569:16631   */\n              mstore\n              shl(0xd0, 0x646472657373)\n                /* \"#utility.yul\":16647:16665   */\n              0x64\n              dup3\n              add\n                /* \"#utility.yul\":16640:16676   */\n              mstore\n                /* \"#utility.yul\":16693:16712   */\n              0x84\n              add\n                /* \"@openzeppelin/contracts/access/Ownable.sol\":2161:2234   */\n              tag_159\n                /* \"#utility.yul\":16316:16718   */\n              jump\n                /* \"@openzeppelin/contracts/access/Ownable.sol\":2161:2234   */\n            tag_450:\n                /* \"@openzeppelin/contracts/access/Ownable.sol\":2244:2272   */\n              tag_426\n                /* \"@openzeppelin/contracts/access/Ownable.sol\":2263:2271   */\n              dup2\n                /* \"@openzeppelin/contracts/access/Ownable.sol\":2244:2262   */\n              tag_256\n                /* \"@openzeppelin/contracts/access/Ownable.sol\":2244:2272   */\n              jump\t// in\n                /* \"Inheritance.sol\":11767:12108  function getHeirsAddresses() public view returns (address[] memory) {... */\n            tag_143:\n                /* \"Inheritance.sol\":11892:11897  heirs */\n              0x04\n                /* \"Inheritance.sol\":11892:11904  heirs.length */\n              sload\n                /* \"Inheritance.sol\":11817:11833  address[] memory */\n              0x60\n              swap1\n                /* \"Inheritance.sol\":11845:11875  address[] memory heirAddresses */\n              0x00\n              swap1\n                /* \"Inheritance.sol\":11878:11905  new address[](heirs.length) */\n              0xffffffffffffffff\n              dup2\n              gt\n              iszero\n              tag_456\n              jumpi\n              tag_456\n              tag_457\n              jump\t// in\n            tag_456:\n              mload(0x40)\n              swap1\n              dup1\n              dup3\n              mstore\n              dup1\n              0x20\n              mul\n              0x20\n              add\n              dup3\n              add\n              0x40\n              mstore\n              dup1\n              iszero\n              tag_458\n              jumpi\n              dup2\n              0x20\n              add\n              0x20\n              dup3\n              mul\n              dup1\n              calldatasize\n              dup4\n              calldatacopy\n              add\n              swap1\n              pop\n            tag_458:\n              pop\n                /* \"Inheritance.sol\":11845:11905  address[] memory heirAddresses = new address[](heirs.length) */\n              swap1\n              pop\n                /* \"Inheritance.sol\":11915:11928  uint256 index */\n              0x00\n                /* \"Inheritance.sol\":11948:11957  uint256 i */\n              dup1\n                /* \"Inheritance.sol\":11943:12071  for (uint256 i = 0; i < heirs.length; i++) {... */\n            tag_459:\n                /* \"Inheritance.sol\":11967:11972  heirs */\n              0x04\n                /* \"Inheritance.sol\":11967:11979  heirs.length */\n              sload\n                /* \"Inheritance.sol\":11963:11979  i < heirs.length */\n              dup2\n              lt\n                /* \"Inheritance.sol\":11943:12071  for (uint256 i = 0; i < heirs.length; i++) {... */\n              iszero\n              tag_460\n              jumpi\n                /* \"Inheritance.sol\":12023:12028  heirs */\n              0x04\n                /* \"Inheritance.sol\":12029:12030  i */\n              dup2\n                /* \"Inheritance.sol\":12023:12031  heirs[i] */\n              dup2\n              sload\n              dup2\n              lt\n              tag_463\n              jumpi\n              tag_463\n              tag_172\n              jump\t// in\n            tag_463:\n              0x00\n              swap2\n              dup3\n              mstore\n              0x20\n              swap1\n              swap2\n              keccak256\n              0x05\n              swap1\n              swap2\n              mul\n              add\n                /* \"Inheritance.sol\":12023:12036  heirs[i].heir */\n              sload\n                /* \"Inheritance.sol\":12000:12020  heirAddresses[index] */\n              dup4\n              mload\n              sub(shl(0xa0, 0x01), 0x01)\n                /* \"Inheritance.sol\":12023:12036  heirs[i].heir */\n              swap1\n              swap2\n              and\n              swap1\n                /* \"Inheritance.sol\":12000:12013  heirAddresses */\n              dup5\n              swap1\n                /* \"Inheritance.sol\":12014:12019  index */\n              dup5\n              swap1\n                /* \"Inheritance.sol\":12000:12020  heirAddresses[index] */\n              dup2\n              lt\n              tag_466\n              jumpi\n              tag_466\n              tag_172\n              jump\t// in\n            tag_466:\n              sub(shl(0xa0, 0x01), 0x01)\n                /* \"Inheritance.sol\":12000:12036  heirAddresses[index] = heirs[i].heir */\n              swap1\n              swap3\n              and\n                /* \"Inheritance.sol\":12000:12020  heirAddresses[index] */\n              0x20\n              swap3\n              dup4\n              mul\n              swap2\n              swap1\n              swap2\n              add\n              swap1\n              swap2\n              add\n                /* \"Inheritance.sol\":12000:12036  heirAddresses[index] = heirs[i].heir */\n              mstore\n                /* \"Inheritance.sol\":12050:12060  index += 1 */\n              tag_467\n                /* \"Inheritance.sol\":12059:12060  1 */\n              0x01\n                /* \"Inheritance.sol\":12050:12060  index += 1 */\n              dup4\n              tag_282\n              jump\t// in\n            tag_467:\n              swap2\n              pop\n                /* \"Inheritance.sol\":11981:11984  i++ */\n              dup1\n              tag_468\n              dup2\n              tag_181\n              jump\t// in\n            tag_468:\n              swap2\n              pop\n              pop\n                /* \"Inheritance.sol\":11943:12071  for (uint256 i = 0; i < heirs.length; i++) {... */\n              jump(tag_459)\n            tag_460:\n              pop\n                /* \"Inheritance.sol\":12088:12101  heirAddresses */\n              swap1\n              swap3\n                /* \"Inheritance.sol\":11767:12108  function getHeirsAddresses() public view returns (address[] memory) {... */\n              swap2\n              pop\n              pop\n              jump\t// out\n                /* \"@openzeppelin/contracts/access/Ownable.sol\":1359:1489   */\n            tag_153:\n                /* \"@openzeppelin/contracts/access/Ownable.sol\":1247:1254   */\n              0x00\n                /* \"@openzeppelin/contracts/access/Ownable.sol\":1273:1279   */\n              sload\n              sub(shl(0xa0, 0x01), 0x01)\n              and\n                /* \"@openzeppelin/contracts/utils/Context.sol\":719:729   */\n              caller\n                /* \"@openzeppelin/contracts/access/Ownable.sol\":1422:1445   */\n              eq\n                /* \"@openzeppelin/contracts/access/Ownable.sol\":1414:1482   */\n              tag_255\n              jumpi\n              mload(0x40)\n              shl(0xe5, 0x461bcd)\n              dup2\n              mstore\n                /* \"#utility.yul\":17057:17059   */\n              0x20\n                /* \"@openzeppelin/contracts/access/Ownable.sol\":1414:1482   */\n              0x04\n              dup3\n              add\n                /* \"#utility.yul\":17039:17060   */\n              dup2\n              swap1\n              mstore\n                /* \"#utility.yul\":17076:17094   */\n              0x24\n              dup3\n              add\n                /* \"#utility.yul\":17069:17099   */\n              mstore\n                /* \"#utility.yul\":17135:17169   */\n              0x4f776e61626c653a2063616c6c6572206973206e6f7420746865206f776e6572\n                /* \"#utility.yul\":17115:17133   */\n              0x44\n              dup3\n              add\n                /* \"#utility.yul\":17108:17170   */\n              mstore\n                /* \"#utility.yul\":17187:17205   */\n              0x64\n              add\n                /* \"@openzeppelin/contracts/access/Ownable.sol\":1414:1482   */\n              tag_159\n                /* \"#utility.yul\":16855:17211   */\n              jump\n                /* \"Inheritance.sol\":10531:10845  function indexOfToken(... */\n            tag_209:\n                /* \"Inheritance.sol\":10638:10645  uint256 */\n              0x00\n              dup1\n                /* \"Inheritance.sol\":10657:10786  for (uint256 i = 0; i < arr.length; i++) {... */\n            tag_477:\n                /* \"Inheritance.sol\":10681:10691  arr.length */\n              dup4\n              sload\n                /* \"Inheritance.sol\":10677:10691  i < arr.length */\n              dup2\n              lt\n                /* \"Inheritance.sol\":10657:10786  for (uint256 i = 0; i < arr.length; i++) {... */\n              iszero\n              tag_478\n              jumpi\n                /* \"Inheritance.sol\":10726:10733  tokenId */\n              dup3\n                /* \"Inheritance.sol\":10716:10719  arr */\n              dup5\n                /* \"Inheritance.sol\":10720:10721  i */\n              dup3\n                /* \"Inheritance.sol\":10716:10722  arr[i] */\n              dup2\n              sload\n              dup2\n              lt\n              tag_481\n              jumpi\n              tag_481\n              tag_172\n              jump\t// in\n            tag_481:\n              swap1\n              0x00\n              mstore\n              keccak256(0x00, 0x20)\n              add\n              sload\n                /* \"Inheritance.sol\":10716:10733  arr[i] == tokenId */\n              sub\n                /* \"Inheritance.sol\":10712:10776  if (arr[i] == tokenId) {... */\n              tag_483\n              jumpi\n                /* \"Inheritance.sol\":10760:10761  i */\n              swap1\n              pop\n                /* \"Inheritance.sol\":10753:10761  return i */\n              jump(tag_485)\n                /* \"Inheritance.sol\":10712:10776  if (arr[i] == tokenId) {... */\n            tag_483:\n                /* \"Inheritance.sol\":10693:10696  i++ */\n              dup1\n              tag_484\n              dup2\n              tag_181\n              jump\t// in\n            tag_484:\n              swap2\n              pop\n              pop\n                /* \"Inheritance.sol\":10657:10786  for (uint256 i = 0; i < arr.length; i++) {... */\n              jump(tag_477)\n            tag_478:\n              pop\n                /* \"Inheritance.sol\":10795:10838  require(false, \"Token not found in array.\") */\n              mload(0x40)\n              shl(0xe5, 0x461bcd)\n              dup2\n              mstore\n                /* \"#utility.yul\":17418:17420   */\n              0x20\n                /* \"Inheritance.sol\":10795:10838  require(false, \"Token not found in array.\") */\n              0x04\n              dup3\n              add\n                /* \"#utility.yul\":17400:17421   */\n              mstore\n                /* \"#utility.yul\":17457:17459   */\n              0x19\n                /* \"#utility.yul\":17437:17455   */\n              0x24\n              dup3\n              add\n                /* \"#utility.yul\":17430:17460   */\n              mstore\n                /* \"#utility.yul\":17496:17523   */\n              0x546f6b656e206e6f7420666f756e6420696e2061727261792e00000000000000\n                /* \"#utility.yul\":17476:17494   */\n              0x44\n              dup3\n              add\n                /* \"#utility.yul\":17469:17524   */\n              mstore\n                /* \"#utility.yul\":17541:17559   */\n              0x64\n              add\n                /* \"Inheritance.sol\":10795:10838  require(false, \"Token not found in array.\") */\n              tag_159\n                /* \"#utility.yul\":17216:17565   */\n              jump\n                /* \"Inheritance.sol\":10795:10838  require(false, \"Token not found in array.\") */\n            tag_485:\n                /* \"Inheritance.sol\":10531:10845  function indexOfToken(... */\n              swap3\n              swap2\n              pop\n              pop\n              jump\t// out\n                /* \"Inheritance.sol\":10263:10525  function removeTokenAtIndex(uint256[] storage arr, uint256 index) internal {... */\n            tag_214:\n                /* \"Inheritance.sol\":10364:10374  arr.length */\n              dup2\n              sload\n                /* \"Inheritance.sol\":10356:10374  index < arr.length */\n              dup2\n              lt\n                /* \"Inheritance.sol\":10348:10399  require(index < arr.length, \"Index out of bounds.\") */\n              tag_489\n              jumpi\n              mload(0x40)\n              shl(0xe5, 0x461bcd)\n              dup2\n              mstore\n                /* \"#utility.yul\":17772:17774   */\n              0x20\n                /* \"Inheritance.sol\":10348:10399  require(index < arr.length, \"Index out of bounds.\") */\n              0x04\n              dup3\n              add\n                /* \"#utility.yul\":17754:17775   */\n              mstore\n                /* \"#utility.yul\":17811:17813   */\n              0x14\n                /* \"#utility.yul\":17791:17809   */\n              0x24\n              dup3\n              add\n                /* \"#utility.yul\":17784:17814   */\n              mstore\n              shl(0x61, 0x24b73232bc1037baba1037b3103137bab7323997)\n                /* \"#utility.yul\":17830:17848   */\n              0x44\n              dup3\n              add\n                /* \"#utility.yul\":17823:17873   */\n              mstore\n                /* \"#utility.yul\":17890:17908   */\n              0x64\n              add\n                /* \"Inheritance.sol\":10348:10399  require(index < arr.length, \"Index out of bounds.\") */\n              tag_159\n                /* \"#utility.yul\":17570:17914   */\n              jump\n                /* \"Inheritance.sol\":10348:10399  require(index < arr.length, \"Index out of bounds.\") */\n            tag_489:\n                /* \"Inheritance.sol\":10424:10429  index */\n              dup1\n                /* \"Inheritance.sol\":10410:10500  for (uint i = index; i < arr.length - 1; i++) {... */\n            tag_492:\n                /* \"Inheritance.sol\":10435:10445  arr.length */\n              dup3\n              sload\n                /* \"Inheritance.sol\":10435:10449  arr.length - 1 */\n              tag_495\n              swap1\n                /* \"Inheritance.sol\":10448:10449  1 */\n              0x01\n              swap1\n                /* \"Inheritance.sol\":10435:10449  arr.length - 1 */\n              tag_147\n              jump\t// in\n            tag_495:\n                /* \"Inheritance.sol\":10431:10432  i */\n              dup2\n                /* \"Inheritance.sol\":10431:10449  i < arr.length - 1 */\n              lt\n                /* \"Inheritance.sol\":10410:10500  for (uint i = index; i < arr.length - 1; i++) {... */\n              iszero\n              tag_493\n              jumpi\n                /* \"Inheritance.sol\":10479:10482  arr */\n              dup3\n                /* \"Inheritance.sol\":10483:10488  i + 1 */\n              tag_496\n                /* \"Inheritance.sol\":10483:10484  i */\n              dup3\n                /* \"Inheritance.sol\":10487:10488  1 */\n              0x01\n                /* \"Inheritance.sol\":10483:10488  i + 1 */\n              tag_282\n              jump\t// in\n            tag_496:\n                /* \"Inheritance.sol\":10479:10489  arr[i + 1] */\n              dup2\n              sload\n              dup2\n              lt\n              tag_498\n              jumpi\n              tag_498\n              tag_172\n              jump\t// in\n            tag_498:\n              swap1\n              0x00\n              mstore\n              keccak256(0x00, 0x20)\n              add\n              sload\n                /* \"Inheritance.sol\":10470:10473  arr */\n              dup4\n                /* \"Inheritance.sol\":10474:10475  i */\n              dup3\n                /* \"Inheritance.sol\":10470:10476  arr[i] */\n              dup2\n              sload\n              dup2\n              lt\n              tag_501\n              jumpi\n              tag_501\n              tag_172\n              jump\t// in\n            tag_501:\n              0x00\n              swap2\n              dup3\n              mstore\n              0x20\n              swap1\n              swap2\n              keccak256\n              add\n                /* \"Inheritance.sol\":10470:10489  arr[i] = arr[i + 1] */\n              sstore\n                /* \"Inheritance.sol\":10451:10454  i++ */\n              dup1\n              tag_503\n              dup2\n              tag_181\n              jump\t// in\n            tag_503:\n              swap2\n              pop\n              pop\n                /* \"Inheritance.sol\":10410:10500  for (uint i = index; i < arr.length - 1; i++) {... */\n              jump(tag_492)\n            tag_493:\n              pop\n                /* \"Inheritance.sol\":10509:10512  arr */\n              dup2\n                /* \"Inheritance.sol\":10509:10518  arr.pop() */\n              dup1\n              sload\n              dup1\n              tag_505\n              jumpi\n              tag_505\n              tag_506\n              jump\t// in\n            tag_505:\n              0x01\n              swap1\n              sub\n              dup2\n              dup2\n              swap1\n              0x00\n              mstore\n              keccak256(0x00, 0x20)\n              add\n              0x00\n              swap1\n              sstore\n              swap1\n              sstore\n                /* \"Inheritance.sol\":10263:10525  function removeTokenAtIndex(uint256[] storage arr, uint256 index) internal {... */\n              pop\n              pop\n              jump\t// out\n                /* \"@openzeppelin/contracts/access/Ownable.sol\":2433:2620   */\n            tag_256:\n                /* \"@openzeppelin/contracts/access/Ownable.sol\":2506:2522   */\n              0x00\n                /* \"@openzeppelin/contracts/access/Ownable.sol\":2525:2531   */\n              dup1\n              sload\n              sub(shl(0xa0, 0x01), 0x01)\n                /* \"@openzeppelin/contracts/access/Ownable.sol\":2541:2558   */\n              dup4\n              dup2\n              and\n              not(sub(shl(0xa0, 0x01), 0x01))\n              dup4\n              and\n              dup2\n              or\n              dup5\n              sstore\n                /* \"@openzeppelin/contracts/access/Ownable.sol\":2573:2613   */\n              mload(0x40)\n                /* \"@openzeppelin/contracts/access/Ownable.sol\":2525:2531   */\n              swap2\n              swap1\n              swap3\n              and\n              swap3\n              dup4\n              swap2\n                /* \"@openzeppelin/contracts/access/Ownable.sol\":2573:2613   */\n              0x8be0079c531659141344cd1fd0a4f28419497f9722a3daafe3b4186f6b6457e0\n              swap2\n                /* \"@openzeppelin/contracts/access/Ownable.sol\":2506:2522   */\n              swap1\n                /* \"@openzeppelin/contracts/access/Ownable.sol\":2573:2613   */\n              log3\n                /* \"@openzeppelin/contracts/access/Ownable.sol\":2496:2620   */\n              pop\n                /* \"@openzeppelin/contracts/access/Ownable.sol\":2433:2620   */\n              pop\n              jump\t// out\n                /* \"Inheritance.sol\":14607:14988  function removeRequest(uint index) internal {... */\n            tag_293:\n                /* \"Inheritance.sol\":14690:14709  inheritanceRequests */\n              0x05\n                /* \"Inheritance.sol\":14690:14716  inheritanceRequests.length */\n              sload\n                /* \"Inheritance.sol\":14682:14716  index < inheritanceRequests.length */\n              dup2\n              lt\n                /* \"Inheritance.sol\":14661:14798  require(... */\n              tag_510\n              jumpi\n              mload(0x40)\n              shl(0xe5, 0x461bcd)\n              dup2\n              mstore\n              0x04\n              add\n              tag_159\n              swap1\n              tag_262\n              jump\t// in\n            tag_510:\n                /* \"Inheritance.sol\":14823:14828  index */\n              dup1\n                /* \"Inheritance.sol\":14809:14947  for (uint i = index; i < inheritanceRequests.length - 1; i++) {... */\n            tag_512:\n                /* \"Inheritance.sol\":14834:14853  inheritanceRequests */\n              0x05\n                /* \"Inheritance.sol\":14834:14860  inheritanceRequests.length */\n              sload\n                /* \"Inheritance.sol\":14834:14864  inheritanceRequests.length - 1 */\n              tag_515\n              swap1\n                /* \"Inheritance.sol\":14863:14864  1 */\n              0x01\n              swap1\n                /* \"Inheritance.sol\":14834:14864  inheritanceRequests.length - 1 */\n              tag_147\n              jump\t// in\n            tag_515:\n                /* \"Inheritance.sol\":14830:14831  i */\n              dup2\n                /* \"Inheritance.sol\":14830:14864  i < inheritanceRequests.length - 1 */\n              lt\n                /* \"Inheritance.sol\":14809:14947  for (uint i = index; i < inheritanceRequests.length - 1; i++) {... */\n              iszero\n              tag_513\n              jumpi\n                /* \"Inheritance.sol\":14910:14929  inheritanceRequests */\n              0x05\n                /* \"Inheritance.sol\":14930:14935  i + 1 */\n              tag_516\n                /* \"Inheritance.sol\":14930:14931  i */\n              dup3\n                /* \"Inheritance.sol\":14934:14935  1 */\n              0x01\n                /* \"Inheritance.sol\":14930:14935  i + 1 */\n              tag_282\n              jump\t// in\n            tag_516:\n                /* \"Inheritance.sol\":14910:14936  inheritanceRequests[i + 1] */\n              dup2\n              sload\n              dup2\n              lt\n              tag_518\n              jumpi\n              tag_518\n              tag_172\n              jump\t// in\n            tag_518:\n              0x00\n              swap2\n              dup3\n              mstore\n              0x20\n              swap1\n              swap2\n              keccak256\n              add\n              sload\n                /* \"Inheritance.sol\":14885:14904  inheritanceRequests */\n              0x05\n                /* \"Inheritance.sol\":14885:14907  inheritanceRequests[i] */\n              dup1\n              sload\n              sub(shl(0xa0, 0x01), 0x01)\n                /* \"Inheritance.sol\":14910:14936  inheritanceRequests[i + 1] */\n              swap1\n              swap3\n              and\n              swap2\n                /* \"Inheritance.sol\":14905:14906  i */\n              dup4\n              swap1\n                /* \"Inheritance.sol\":14885:14907  inheritanceRequests[i] */\n              dup2\n              lt\n              tag_521\n              jumpi\n              tag_521\n              tag_172\n              jump\t// in\n            tag_521:\n              0x00\n              swap2\n              dup3\n              mstore\n              0x20\n              swap1\n              swap2\n              keccak256\n              add\n                /* \"Inheritance.sol\":14885:14936  inheritanceRequests[i] = inheritanceRequests[i + 1] */\n              dup1\n              sload\n              not(sub(shl(0xa0, 0x01), 0x01))\n              and\n              sub(shl(0xa0, 0x01), 0x01)\n              swap3\n              swap1\n              swap3\n              and\n              swap2\n              swap1\n              swap2\n              or\n              swap1\n              sstore\n                /* \"Inheritance.sol\":14866:14869  i++ */\n              dup1\n              tag_523\n              dup2\n              tag_181\n              jump\t// in\n            tag_523:\n              swap2\n              pop\n              pop\n                /* \"Inheritance.sol\":14809:14947  for (uint i = index; i < inheritanceRequests.length - 1; i++) {... */\n              jump(tag_512)\n            tag_513:\n              pop\n                /* \"Inheritance.sol\":14956:14975  inheritanceRequests */\n              0x05\n                /* \"Inheritance.sol\":14956:14981  inheritanceRequests.pop() */\n              dup1\n              sload\n              dup1\n              tag_525\n              jumpi\n              tag_525\n              tag_506\n              jump\t// in\n            tag_525:\n              0x00\n              dup3\n              dup2\n              mstore\n              0x20\n              swap1\n              keccak256\n              dup2\n              add\n              not(0x00)\n              swap1\n              dup2\n              add\n              dup1\n              sload\n              not(sub(shl(0xa0, 0x01), 0x01))\n              and\n              swap1\n              sstore\n              add\n              swap1\n              sstore\n              pop\n                /* \"Inheritance.sol\":14607:14988  function removeRequest(uint index) internal {... */\n              jump\t// out\n            tag_291:\n              dup3\n              dup1\n              sload\n              dup3\n              dup3\n              sstore\n              swap1\n              0x00\n              mstore\n              keccak256(0x00, 0x20)\n              swap1\n              dup2\n              add\n              swap3\n              dup3\n              iszero\n              tag_530\n              jumpi\n              swap2\n              0x20\n              mul\n              dup3\n              add\n            tag_529:\n              dup3\n              dup2\n              gt\n              iszero\n              tag_530\n              jumpi\n              dup3\n              mload\n              dup3\n              sstore\n              swap2\n              0x20\n              add\n              swap2\n              swap1\n              0x01\n              add\n              swap1\n              jump(tag_529)\n            tag_530:\n              pop\n              tag_531\n              swap3\n              swap2\n              pop\n              tag_532\n              jump\t// in\n            tag_531:\n              pop\n              swap1\n              jump\t// out\n            tag_532:\n            tag_533:\n              dup1\n              dup3\n              gt\n              iszero\n              tag_531\n              jumpi\n              0x00\n              dup2\n              sstore\n              0x01\n              add\n              jump(tag_533)\n                /* \"#utility.yul\":206:864   */\n            tag_42:\n                /* \"#utility.yul\":377:379   */\n              0x20\n                /* \"#utility.yul\":429:450   */\n              dup1\n              dup3\n              mstore\n                /* \"#utility.yul\":499:512   */\n              dup3\n              mload\n                /* \"#utility.yul\":402:420   */\n              dup3\n              dup3\n              add\n                /* \"#utility.yul\":521:543   */\n              dup2\n              swap1\n              mstore\n                /* \"#utility.yul\":348:352   */\n              0x00\n              swap2\n                /* \"#utility.yul\":377:379   */\n              swap1\n                /* \"#utility.yul\":600:615   */\n              dup5\n              dup3\n              add\n              swap1\n                /* \"#utility.yul\":574:576   */\n              0x40\n                /* \"#utility.yul\":559:577   */\n              dup6\n              add\n              swap1\n                /* \"#utility.yul\":348:352   */\n              dup5\n                /* \"#utility.yul\":643:838   */\n            tag_541:\n                /* \"#utility.yul\":657:663   */\n              dup2\n                /* \"#utility.yul\":654:655   */\n              dup2\n                /* \"#utility.yul\":651:664   */\n              lt\n                /* \"#utility.yul\":643:838   */\n              iszero\n              tag_543\n              jumpi\n                /* \"#utility.yul\":722:735   */\n              dup4\n              mload\n              sub(shl(0xa0, 0x01), 0x01)\n                /* \"#utility.yul\":718:757   */\n              and\n                /* \"#utility.yul\":706:758   */\n              dup4\n              mstore\n                /* \"#utility.yul\":813:828   */\n              swap3\n              dup5\n              add\n              swap3\n                /* \"#utility.yul\":778:790   */\n              swap2\n              dup5\n              add\n              swap2\n                /* \"#utility.yul\":754:755   */\n              0x01\n                /* \"#utility.yul\":672:681   */\n              add\n                /* \"#utility.yul\":643:838   */\n              jump(tag_541)\n            tag_543:\n              pop\n                /* \"#utility.yul\":855:858   */\n              swap1\n              swap7\n                /* \"#utility.yul\":206:864   */\n              swap6\n              pop\n              pop\n              pop\n              pop\n              pop\n              pop\n              jump\t// out\n                /* \"#utility.yul\":1051:1231   */\n            tag_51:\n                /* \"#utility.yul\":1110:1116   */\n              0x00\n                /* \"#utility.yul\":1163:1165   */\n              0x20\n                /* \"#utility.yul\":1151:1160   */\n              dup3\n                /* \"#utility.yul\":1142:1149   */\n              dup5\n                /* \"#utility.yul\":1138:1161   */\n              sub\n                /* \"#utility.yul\":1134:1166   */\n              slt\n                /* \"#utility.yul\":1131:1183   */\n              iszero\n              tag_546\n              jumpi\n                /* \"#utility.yul\":1179:1180   */\n              0x00\n                /* \"#utility.yul\":1176:1177   */\n              dup1\n                /* \"#utility.yul\":1169:1181   */\n              revert\n                /* \"#utility.yul\":1131:1183   */\n            tag_546:\n              pop\n                /* \"#utility.yul\":1202:1225   */\n              calldataload\n              swap2\n                /* \"#utility.yul\":1051:1231   */\n              swap1\n              pop\n              jump\t// out\n                /* \"#utility.yul\":1236:1409   */\n            tag_535:\n                /* \"#utility.yul\":1304:1324   */\n              dup1\n              calldataload\n              sub(shl(0xa0, 0x01), 0x01)\n                /* \"#utility.yul\":1353:1384   */\n              dup2\n              and\n                /* \"#utility.yul\":1343:1385   */\n              dup2\n              eq\n                /* \"#utility.yul\":1333:1403   */\n              tag_548\n              jumpi\n                /* \"#utility.yul\":1399:1400   */\n              0x00\n                /* \"#utility.yul\":1396:1397   */\n              dup1\n                /* \"#utility.yul\":1389:1401   */\n              revert\n                /* \"#utility.yul\":1333:1403   */\n            tag_548:\n                /* \"#utility.yul\":1236:1409   */\n              swap2\n              swap1\n              pop\n              jump\t// out\n                /* \"#utility.yul\":1414:1600   */\n            tag_56:\n                /* \"#utility.yul\":1473:1479   */\n              0x00\n                /* \"#utility.yul\":1526:1528   */\n              0x20\n                /* \"#utility.yul\":1514:1523   */\n              dup3\n                /* \"#utility.yul\":1505:1512   */\n              dup5\n                /* \"#utility.yul\":1501:1524   */\n              sub\n                /* \"#utility.yul\":1497:1529   */\n              slt\n                /* \"#utility.yul\":1494:1546   */\n              iszero\n              tag_550\n              jumpi\n                /* \"#utility.yul\":1542:1543   */\n              0x00\n                /* \"#utility.yul\":1539:1540   */\n              dup1\n                /* \"#utility.yul\":1532:1544   */\n              revert\n                /* \"#utility.yul\":1494:1546   */\n            tag_550:\n                /* \"#utility.yul\":1565:1594   */\n              tag_551\n                /* \"#utility.yul\":1584:1593   */\n              dup3\n                /* \"#utility.yul\":1565:1594   */\n              tag_535\n              jump\t// in\n            tag_551:\n                /* \"#utility.yul\":1555:1594   */\n              swap4\n                /* \"#utility.yul\":1414:1600   */\n              swap3\n              pop\n              pop\n              pop\n              jump\t// out\n                /* \"#utility.yul\":1605:2040   */\n            tag_536:\n                /* \"#utility.yul\":1658:1661   */\n              0x00\n                /* \"#utility.yul\":1696:1701   */\n              dup2\n                /* \"#utility.yul\":1690:1702   */\n              mload\n                /* \"#utility.yul\":1723:1729   */\n              dup1\n                /* \"#utility.yul\":1718:1721   */\n              dup5\n                /* \"#utility.yul\":1711:1730   */\n              mstore\n                /* \"#utility.yul\":1749:1753   */\n              0x20\n                /* \"#utility.yul\":1778:1780   */\n              dup1\n                /* \"#utility.yul\":1773:1776   */\n              dup6\n                /* \"#utility.yul\":1769:1781   */\n              add\n                /* \"#utility.yul\":1762:1781   */\n              swap5\n              pop\n                /* \"#utility.yul\":1815:1817   */\n              dup1\n                /* \"#utility.yul\":1808:1813   */\n              dup5\n                /* \"#utility.yul\":1804:1818   */\n              add\n                /* \"#utility.yul\":1836:1837   */\n              0x00\n                /* \"#utility.yul\":1846:2015   */\n            tag_553:\n                /* \"#utility.yul\":1860:1866   */\n              dup4\n                /* \"#utility.yul\":1857:1858   */\n              dup2\n                /* \"#utility.yul\":1854:1867   */\n              lt\n                /* \"#utility.yul\":1846:2015   */\n              iszero\n              tag_555\n              jumpi\n                /* \"#utility.yul\":1921:1934   */\n              dup2\n              mload\n                /* \"#utility.yul\":1909:1935   */\n              dup8\n              mstore\n                /* \"#utility.yul\":1955:1967   */\n              swap6\n              dup3\n              add\n              swap6\n                /* \"#utility.yul\":1990:2005   */\n              swap1\n              dup3\n              add\n              swap1\n                /* \"#utility.yul\":1882:1883   */\n              0x01\n                /* \"#utility.yul\":1875:1884   */\n              add\n                /* \"#utility.yul\":1846:2015   */\n              jump(tag_553)\n            tag_555:\n              pop\n                /* \"#utility.yul\":2031:2034   */\n              swap5\n              swap6\n                /* \"#utility.yul\":1605:2040   */\n              swap5\n              pop\n              pop\n              pop\n              pop\n              pop\n              jump\t// out\n                /* \"#utility.yul\":2045:2306   */\n            tag_59:\n                /* \"#utility.yul\":2224:2226   */\n              0x20\n                /* \"#utility.yul\":2213:2222   */\n              dup2\n                /* \"#utility.yul\":2206:2227   */\n              mstore\n                /* \"#utility.yul\":2187:2191   */\n              0x00\n                /* \"#utility.yul\":2244:2300   */\n              tag_551\n                /* \"#utility.yul\":2296:2298   */\n              0x20\n                /* \"#utility.yul\":2285:2294   */\n              dup4\n                /* \"#utility.yul\":2281:2299   */\n              add\n                /* \"#utility.yul\":2273:2279   */\n              dup5\n                /* \"#utility.yul\":2244:2300   */\n              tag_536\n              jump\t// in\n                /* \"#utility.yul\":2311:3616   */\n            tag_68:\n                /* \"#utility.yul\":2495:2499   */\n              0x00\n                /* \"#utility.yul\":2524:2526   */\n              0x20\n                /* \"#utility.yul\":2564:2566   */\n              dup1\n                /* \"#utility.yul\":2553:2562   */\n              dup4\n                /* \"#utility.yul\":2549:2567   */\n              add\n                /* \"#utility.yul\":2594:2596   */\n              dup2\n                /* \"#utility.yul\":2583:2592   */\n              dup5\n                /* \"#utility.yul\":2576:2597   */\n              mstore\n                /* \"#utility.yul\":2617:2623   */\n              dup1\n                /* \"#utility.yul\":2652:2658   */\n              dup6\n                /* \"#utility.yul\":2646:2659   */\n              mload\n                /* \"#utility.yul\":2683:2689   */\n              dup1\n                /* \"#utility.yul\":2675:2681   */\n              dup4\n                /* \"#utility.yul\":2668:2690   */\n              mstore\n                /* \"#utility.yul\":2709:2711   */\n              0x40\n                /* \"#utility.yul\":2699:2711   */\n              swap3\n              pop\n                /* \"#utility.yul\":2742:2744   */\n              dup3\n                /* \"#utility.yul\":2731:2740   */\n              dup7\n                /* \"#utility.yul\":2727:2745   */\n              add\n                /* \"#utility.yul\":2720:2745   */\n              swap2\n              pop\n                /* \"#utility.yul\":2804:2806   */\n              dup3\n                /* \"#utility.yul\":2794:2800   */\n              dup2\n                /* \"#utility.yul\":2791:2792   */\n              0x05\n                /* \"#utility.yul\":2787:2801   */\n              shl\n                /* \"#utility.yul\":2776:2785   */\n              dup8\n                /* \"#utility.yul\":2772:2802   */\n              add\n                /* \"#utility.yul\":2768:2807   */\n              add\n                /* \"#utility.yul\":2842:2844   */\n              dup5\n                /* \"#utility.yul\":2834:2840   */\n              dup9\n                /* \"#utility.yul\":2830:2845   */\n              add\n                /* \"#utility.yul\":2863:2864   */\n              0x00\n                /* \"#utility.yul\":2873:3587   */\n            tag_559:\n                /* \"#utility.yul\":2887:2893   */\n              dup4\n                /* \"#utility.yul\":2884:2885   */\n              dup2\n                /* \"#utility.yul\":2881:2894   */\n              lt\n                /* \"#utility.yul\":2873:3587   */\n              iszero\n              tag_561\n              jumpi\n                /* \"#utility.yul\":2952:2974   */\n              dup9\n              dup4\n              sub\n              not(0x3f)\n                /* \"#utility.yul\":2948:2984   */\n              add\n                /* \"#utility.yul\":2936:2985   */\n              dup6\n              mstore\n                /* \"#utility.yul\":3008:3021   */\n              dup2\n              mload\n                /* \"#utility.yul\":3080:3089   */\n              dup1\n              mload\n              sub(shl(0xa0, 0x01), 0x01)\n                /* \"#utility.yul\":3076:3111   */\n              and\n                /* \"#utility.yul\":3061:3112   */\n              dup5\n              mstore\n                /* \"#utility.yul\":3155:3166   */\n              dup8\n              dup2\n              add\n                /* \"#utility.yul\":3149:3167   */\n              mload\n                /* \"#utility.yul\":3132:3147   */\n              dup9\n              dup6\n              add\n                /* \"#utility.yul\":3125:3168   */\n              mstore\n                /* \"#utility.yul\":3211:3222   */\n              dup7\n              dup2\n              add\n                /* \"#utility.yul\":3205:3223   */\n              mload\n                /* \"#utility.yul\":3188:3203   */\n              dup8\n              dup6\n              add\n                /* \"#utility.yul\":3181:3224   */\n              mstore\n                /* \"#utility.yul\":3247:3251   */\n              0x60\n                /* \"#utility.yul\":3294:3305   */\n              dup1\n              dup3\n              add\n                /* \"#utility.yul\":3288:3306   */\n              mload\n                /* \"#utility.yul\":3271:3286   */\n              swap1\n              dup6\n              add\n                /* \"#utility.yul\":3264:3307   */\n              mstore\n                /* \"#utility.yul\":3330:3334   */\n              0x80\n                /* \"#utility.yul\":3373:3384   */\n              swap1\n              dup2\n              add\n                /* \"#utility.yul\":3367:3385   */\n              mload\n                /* \"#utility.yul\":3044:3048   */\n              0xa0\n                /* \"#utility.yul\":3405:3420   */\n              swap2\n              dup6\n              add\n                /* \"#utility.yul\":3398:3425   */\n              dup3\n              swap1\n              mstore\n                /* \"#utility.yul\":3367:3385   */\n              swap1\n                /* \"#utility.yul\":3448:3507   */\n              tag_562\n                /* \"#utility.yul\":3491:3506   */\n              dup2\n              dup7\n              add\n                /* \"#utility.yul\":3367:3385   */\n              dup4\n                /* \"#utility.yul\":3448:3507   */\n              tag_536\n              jump\t// in\n            tag_562:\n                /* \"#utility.yul\":3565:3577   */\n              swap7\n              dup10\n              add\n              swap7\n                /* \"#utility.yul\":3438:3507   */\n              swap5\n              pop\n              pop\n              pop\n                /* \"#utility.yul\":3530:3545   */\n              swap1\n              dup7\n              add\n              swap1\n                /* \"#utility.yul\":2909:2910   */\n              0x01\n                /* \"#utility.yul\":2902:2911   */\n              add\n                /* \"#utility.yul\":2873:3587   */\n              jump(tag_559)\n            tag_561:\n              pop\n                /* \"#utility.yul\":3604:3610   */\n              swap1\n              swap9\n                /* \"#utility.yul\":2311:3616   */\n              swap8\n              pop\n              pop\n              pop\n              pop\n              pop\n              pop\n              pop\n              pop\n              jump\t// out\n                /* \"#utility.yul\":3829:4083   */\n            tag_78:\n                /* \"#utility.yul\":3897:3903   */\n              0x00\n                /* \"#utility.yul\":3905:3911   */\n              dup1\n                /* \"#utility.yul\":3958:3960   */\n              0x40\n                /* \"#utility.yul\":3946:3955   */\n              dup4\n                /* \"#utility.yul\":3937:3944   */\n              dup6\n                /* \"#utility.yul\":3933:3956   */\n              sub\n                /* \"#utility.yul\":3929:3961   */\n              slt\n                /* \"#utility.yul\":3926:3978   */\n              iszero\n              tag_565\n              jumpi\n                /* \"#utility.yul\":3974:3975   */\n              0x00\n                /* \"#utility.yul\":3971:3972   */\n              dup1\n                /* \"#utility.yul\":3964:3976   */\n              revert\n                /* \"#utility.yul\":3926:3978   */\n            tag_565:\n                /* \"#utility.yul\":4010:4019   */\n              dup3\n                /* \"#utility.yul\":3997:4020   */\n              calldataload\n                /* \"#utility.yul\":3987:4020   */\n              swap2\n              pop\n                /* \"#utility.yul\":4039:4077   */\n              tag_566\n                /* \"#utility.yul\":4073:4075   */\n              0x20\n                /* \"#utility.yul\":4062:4071   */\n              dup5\n                /* \"#utility.yul\":4058:4076   */\n              add\n                /* \"#utility.yul\":4039:4077   */\n              tag_535\n              jump\t// in\n            tag_566:\n                /* \"#utility.yul\":4029:4077   */\n              swap1\n              pop\n                /* \"#utility.yul\":3829:4083   */\n              swap3\n              pop\n              swap3\n              swap1\n              pop\n              jump\t// out\n                /* \"#utility.yul\":4088:4410   */\n            tag_90:\n                /* \"#utility.yul\":4165:4171   */\n              0x00\n                /* \"#utility.yul\":4173:4179   */\n              dup1\n                /* \"#utility.yul\":4181:4187   */\n              0x00\n                /* \"#utility.yul\":4234:4236   */\n              0x60\n                /* \"#utility.yul\":4222:4231   */\n              dup5\n                /* \"#utility.yul\":4213:4220   */\n              dup7\n                /* \"#utility.yul\":4209:4232   */\n              sub\n                /* \"#utility.yul\":4205:4237   */\n              slt\n                /* \"#utility.yul\":4202:4254   */\n              iszero\n              tag_568\n              jumpi\n                /* \"#utility.yul\":4250:4251   */\n              0x00\n                /* \"#utility.yul\":4247:4248   */\n              dup1\n                /* \"#utility.yul\":4240:4252   */\n              revert\n                /* \"#utility.yul\":4202:4254   */\n            tag_568:\n                /* \"#utility.yul\":4286:4295   */\n              dup4\n                /* \"#utility.yul\":4273:4296   */\n              calldataload\n                /* \"#utility.yul\":4263:4296   */\n              swap3\n              pop\n                /* \"#utility.yul\":4315:4353   */\n              tag_569\n                /* \"#utility.yul\":4349:4351   */\n              0x20\n                /* \"#utility.yul\":4338:4347   */\n              dup6\n                /* \"#utility.yul\":4334:4352   */\n              add\n                /* \"#utility.yul\":4315:4353   */\n              tag_535\n              jump\t// in\n            tag_569:\n                /* \"#utility.yul\":4305:4353   */\n              swap2\n              pop\n                /* \"#utility.yul\":4400:4402   */\n              0x40\n                /* \"#utility.yul\":4389:4398   */\n              dup5\n                /* \"#utility.yul\":4385:4403   */\n              add\n                /* \"#utility.yul\":4372:4404   */\n              calldataload\n                /* \"#utility.yul\":4362:4404   */\n              swap1\n              pop\n                /* \"#utility.yul\":4088:4410   */\n              swap3\n              pop\n              swap3\n              pop\n              swap3\n              jump\t// out\n                /* \"#utility.yul\":4694:4821   */\n            tag_537:\n                /* \"#utility.yul\":4755:4765   */\n              0x4e487b71\n                /* \"#utility.yul\":4750:4753   */\n              0xe0\n                /* \"#utility.yul\":4746:4766   */\n              shl\n                /* \"#utility.yul\":4743:4744   */\n              0x00\n                /* \"#utility.yul\":4736:4767   */\n              mstore\n                /* \"#utility.yul\":4786:4790   */\n              0x11\n                /* \"#utility.yul\":4783:4784   */\n              0x04\n                /* \"#utility.yul\":4776:4791   */\n              mstore\n                /* \"#utility.yul\":4810:4814   */\n              0x24\n                /* \"#utility.yul\":4807:4808   */\n              0x00\n                /* \"#utility.yul\":4800:4815   */\n              revert\n                /* \"#utility.yul\":4826:4954   */\n            tag_147:\n                /* \"#utility.yul\":4893:4902   */\n              dup2\n              dup2\n              sub\n                /* \"#utility.yul\":4914:4925   */\n              dup2\n              dup2\n              gt\n                /* \"#utility.yul\":4911:4948   */\n              iszero\n              tag_485\n              jumpi\n                /* \"#utility.yul\":4928:4946   */\n              tag_485\n              tag_537\n              jump\t// in\n                /* \"#utility.yul\":5664:5791   */\n            tag_172:\n                /* \"#utility.yul\":5725:5735   */\n              0x4e487b71\n                /* \"#utility.yul\":5720:5723   */\n              0xe0\n                /* \"#utility.yul\":5716:5736   */\n              shl\n                /* \"#utility.yul\":5713:5714   */\n              0x00\n                /* \"#utility.yul\":5706:5737   */\n              mstore\n                /* \"#utility.yul\":5756:5760   */\n              0x32\n                /* \"#utility.yul\":5753:5754   */\n              0x04\n                /* \"#utility.yul\":5746:5761   */\n              mstore\n                /* \"#utility.yul\":5780:5784   */\n              0x24\n                /* \"#utility.yul\":5777:5778   */\n              0x00\n                /* \"#utility.yul\":5770:5785   */\n              revert\n                /* \"#utility.yul\":5796:5931   */\n            tag_181:\n                /* \"#utility.yul\":5835:5838   */\n              0x00\n                /* \"#utility.yul\":5856:5873   */\n              0x01\n              dup3\n              add\n                /* \"#utility.yul\":5853:5896   */\n              tag_580\n              jumpi\n                /* \"#utility.yul\":5876:5894   */\n              tag_580\n              tag_537\n              jump\t// in\n            tag_580:\n              pop\n                /* \"#utility.yul\":5923:5924   */\n              0x01\n                /* \"#utility.yul\":5912:5925   */\n              add\n              swap1\n                /* \"#utility.yul\":5796:5931   */\n              jump\t// out\n                /* \"#utility.yul\":5936:6120   */\n            tag_187:\n                /* \"#utility.yul\":6006:6012   */\n              0x00\n                /* \"#utility.yul\":6059:6061   */\n              0x20\n                /* \"#utility.yul\":6047:6056   */\n              dup3\n                /* \"#utility.yul\":6038:6045   */\n              dup5\n                /* \"#utility.yul\":6034:6057   */\n              sub\n                /* \"#utility.yul\":6030:6062   */\n              slt\n                /* \"#utility.yul\":6027:6079   */\n              iszero\n              tag_582\n              jumpi\n                /* \"#utility.yul\":6075:6076   */\n              0x00\n                /* \"#utility.yul\":6072:6073   */\n              dup1\n                /* \"#utility.yul\":6065:6077   */\n              revert\n                /* \"#utility.yul\":6027:6079   */\n            tag_582:\n              pop\n                /* \"#utility.yul\":6098:6114   */\n              mload\n              swap2\n                /* \"#utility.yul\":5936:6120   */\n              swap1\n              pop\n              jump\t// out\n                /* \"#utility.yul\":8326:8746   */\n            tag_262:\n                /* \"#utility.yul\":8528:8530   */\n              0x20\n                /* \"#utility.yul\":8510:8531   */\n              dup1\n              dup3\n              mstore\n                /* \"#utility.yul\":8567:8569   */\n              0x38\n                /* \"#utility.yul\":8547:8565   */\n              swap1\n              dup3\n              add\n                /* \"#utility.yul\":8540:8570   */\n              mstore\n                /* \"#utility.yul\":8606:8640   */\n              0x54686520696e6465782073656e7420697320626967676572207468616e207468\n                /* \"#utility.yul\":8601:8603   */\n              0x40\n                /* \"#utility.yul\":8586:8604   */\n              dup3\n              add\n                /* \"#utility.yul\":8579:8641   */\n              mstore\n                /* \"#utility.yul\":8677:8703   */\n              0x65207265717565737473206172726179206c656e6774682e0000000000000000\n                /* \"#utility.yul\":8672:8674   */\n              0x60\n                /* \"#utility.yul\":8657:8675   */\n              dup3\n              add\n                /* \"#utility.yul\":8650:8704   */\n              mstore\n                /* \"#utility.yul\":8736:8739   */\n              0x80\n                /* \"#utility.yul\":8721:8740   */\n              add\n              swap1\n                /* \"#utility.yul\":8326:8746   */\n              jump\t// out\n                /* \"#utility.yul\":8751:9228   */\n            tag_268:\n                /* \"#utility.yul\":8953:8955   */\n              0x20\n                /* \"#utility.yul\":8935:8956   */\n              dup1\n              dup3\n              mstore\n                /* \"#utility.yul\":8992:8994   */\n              0x49\n                /* \"#utility.yul\":8972:8990   */\n              swap1\n              dup3\n              add\n                /* \"#utility.yul\":8965:8995   */\n              mstore\n                /* \"#utility.yul\":9031:9065   */\n              0x416464726573732073656e7420646f65736e2774206d61746368207769746820\n                /* \"#utility.yul\":9026:9028   */\n              0x40\n                /* \"#utility.yul\":9011:9029   */\n              dup3\n              add\n                /* \"#utility.yul\":9004:9066   */\n              mstore\n                /* \"#utility.yul\":9102:9136   */\n              0x74686520616464726573732073746f72656420696e2074686520726571756573\n                /* \"#utility.yul\":9097:9099   */\n              0x60\n                /* \"#utility.yul\":9082:9100   */\n              dup3\n              add\n                /* \"#utility.yul\":9075:9137   */\n              mstore\n              shl(0xb9, 0x3a399030b93930bc97)\n                /* \"#utility.yul\":9168:9171   */\n              0x80\n                /* \"#utility.yul\":9153:9172   */\n              dup3\n              add\n                /* \"#utility.yul\":9146:9186   */\n              mstore\n                /* \"#utility.yul\":9218:9221   */\n              0xa0\n                /* \"#utility.yul\":9203:9222   */\n              add\n              swap1\n                /* \"#utility.yul\":8751:9228   */\n              jump\t// out\n                /* \"#utility.yul\":9640:9765   */\n            tag_282:\n                /* \"#utility.yul\":9705:9714   */\n              dup1\n              dup3\n              add\n                /* \"#utility.yul\":9726:9736   */\n              dup1\n              dup3\n              gt\n                /* \"#utility.yul\":9723:9759   */\n              iszero\n              tag_485\n              jumpi\n                /* \"#utility.yul\":9739:9757   */\n              tag_485\n              tag_537\n              jump\t// in\n                /* \"#utility.yul\":11317:11485   */\n            tag_322:\n                /* \"#utility.yul\":11390:11399   */\n              dup1\n              dup3\n              mul\n                /* \"#utility.yul\":11421:11430   */\n              dup2\n              iszero\n                /* \"#utility.yul\":11438:11453   */\n              dup3\n              dup3\n              div\n                /* \"#utility.yul\":11432:11454   */\n              dup5\n              eq\n                /* \"#utility.yul\":11418:11455   */\n              or\n                /* \"#utility.yul\":11408:11479   */\n              tag_485\n              jumpi\n                /* \"#utility.yul\":11459:11477   */\n              tag_485\n              tag_537\n              jump\t// in\n                /* \"#utility.yul\":11490:11707   */\n            tag_324:\n                /* \"#utility.yul\":11530:11531   */\n              0x00\n                /* \"#utility.yul\":11556:11557   */\n              dup3\n                /* \"#utility.yul\":11546:11678   */\n              tag_601\n              jumpi\n                /* \"#utility.yul\":11600:11610   */\n              0x4e487b71\n                /* \"#utility.yul\":11595:11598   */\n              0xe0\n                /* \"#utility.yul\":11591:11611   */\n              shl\n                /* \"#utility.yul\":11588:11589   */\n              0x00\n                /* \"#utility.yul\":11581:11612   */\n              mstore\n                /* \"#utility.yul\":11635:11639   */\n              0x12\n                /* \"#utility.yul\":11632:11633   */\n              0x04\n                /* \"#utility.yul\":11625:11640   */\n              mstore\n                /* \"#utility.yul\":11663:11667   */\n              0x24\n                /* \"#utility.yul\":11660:11661   */\n              0x00\n                /* \"#utility.yul\":11653:11668   */\n              revert\n                /* \"#utility.yul\":11546:11678   */\n            tag_601:\n              pop\n                /* \"#utility.yul\":11692:11701   */\n              div\n              swap1\n                /* \"#utility.yul\":11490:11707   */\n              jump\t// out\n                /* \"#utility.yul\":11712:11989   */\n            tag_352:\n                /* \"#utility.yul\":11779:11785   */\n              0x00\n                /* \"#utility.yul\":11832:11834   */\n              0x20\n                /* \"#utility.yul\":11820:11829   */\n              dup3\n                /* \"#utility.yul\":11811:11818   */\n              dup5\n                /* \"#utility.yul\":11807:11830   */\n              sub\n                /* \"#utility.yul\":11803:11835   */\n              slt\n                /* \"#utility.yul\":11800:11852   */\n              iszero\n              tag_603\n              jumpi\n                /* \"#utility.yul\":11848:11849   */\n              0x00\n                /* \"#utility.yul\":11845:11846   */\n              dup1\n                /* \"#utility.yul\":11838:11850   */\n              revert\n                /* \"#utility.yul\":11800:11852   */\n            tag_603:\n                /* \"#utility.yul\":11880:11889   */\n              dup2\n                /* \"#utility.yul\":11874:11890   */\n              mload\n                /* \"#utility.yul\":11933:11938   */\n              dup1\n                /* \"#utility.yul\":11926:11939   */\n              iszero\n                /* \"#utility.yul\":11919:11940   */\n              iszero\n                /* \"#utility.yul\":11912:11917   */\n              dup2\n                /* \"#utility.yul\":11909:11941   */\n              eq\n                /* \"#utility.yul\":11899:11959   */\n              tag_551\n              jumpi\n                /* \"#utility.yul\":11955:11956   */\n              0x00\n                /* \"#utility.yul\":11952:11953   */\n              dup1\n                /* \"#utility.yul\":11945:11957   */\n              revert\n                /* \"#utility.yul\":16723:16850   */\n            tag_457:\n                /* \"#utility.yul\":16784:16794   */\n              0x4e487b71\n                /* \"#utility.yul\":16779:16782   */\n              0xe0\n                /* \"#utility.yul\":16775:16795   */\n              shl\n                /* \"#utility.yul\":16772:16773   */\n              0x00\n                /* \"#utility.yul\":16765:16796   */\n              mstore\n                /* \"#utility.yul\":16815:16819   */\n              0x41\n                /* \"#utility.yul\":16812:16813   */\n              0x04\n                /* \"#utility.yul\":16805:16820   */\n              mstore\n                /* \"#utility.yul\":16839:16843   */\n              0x24\n                /* \"#utility.yul\":16836:16837   */\n              0x00\n                /* \"#utility.yul\":16829:16844   */\n              revert\n                /* \"#utility.yul\":17919:18046   */\n            tag_506:\n                /* \"#utility.yul\":17980:17990   */\n              0x4e487b71\n                /* \"#utility.yul\":17975:17978   */\n              0xe0\n                /* \"#utility.yul\":17971:17991   */\n              shl\n                /* \"#utility.yul\":17968:17969   */\n              0x00\n                /* \"#utility.yul\":17961:17992   */\n              mstore\n                /* \"#utility.yul\":18011:18015   */\n              0x31\n                /* \"#utility.yul\":18008:18009   */\n              0x04\n                /* \"#utility.yul\":18001:18016   */\n              mstore\n                /* \"#utility.yul\":18035:18039   */\n              0x24\n                /* \"#utility.yul\":18032:18033   */\n              0x00\n                /* \"#utility.yul\":18025:18040   */\n              revert\n\n            auxdata: 0xa2646970667358221220dfe27663a73cae8692087c6ab8deafa8b5317326366eceda4eb0f500e7e2a30064736f6c63430008130033\n        }\n    }\n\n    auxdata: 0xa264697066735822122082f2f33e9d40a71255ade6a000d25c34af18a6547e393b805302948a3c2c2bc564736f6c63430008130033\n}\n","bytecode":{"linkReferences":{},"object":"608060405234801561001057600080fd5b50612ad7806100206000396000f3fe608060405234801561001057600080fd5b506004361061004c5760003560e01c806321b6e8f5146100515780636122fed51461006757806365a4c281146100a8578063b6db75a0146100bd575b600080fd5b6000546040519081526020015b60405180910390f35b61009061007536600461031f565b6001602052600090815260409020546001600160a01b031681565b6040516001600160a01b03909116815260200161005e565b6100bb6100b6366004610341565b6100e8565b005b336000908152600160205260409020546001600160a01b03161515604051901515815260200161005e565b336000908152600160205260409020546001600160a01b0316156101785760405162461bcd60e51b815260206004820152603d60248201527f596f75206861766520616c7265616479206f6e6520696e6865726974616e636560448201527f20637265617465642c20796f752063616e277420686176652074776f2e000000606482015260840160405180910390fd5b338282604051610187906102f6565b6001600160a01b03938416815260208101929092529091166040820152606001604051809103906000f0801580156101c3573d6000803e3d6000fd5b5033600090815260016020526040812080546001600160a01b0319166001600160a01b039390931692909217909155805490806101ff8361036d565b90915550503360008181526001602052604080822054915490516001600160a01b039290921692917f246b027e5b424dae3d402e972e3f8e400056fe836431cbe048d9553826bb2e11916102ea9160408082526069908201527f4c6f6720616c6c207468652076616c7565733a2041646d696e6973747261746f60608201527f7220616464726573732c20496e6865726974616e636520636f6e74726163742060808201527f616464726573732c204e756d626572206f6620696e6865726974616e6365732060a0820152683232b83637bcb2b21760b91b60c0820152602081019190915260e00190565b60405180910390a35050565b61270d8061039583390190565b80356001600160a01b038116811461031a57600080fd5b919050565b60006020828403121561033157600080fd5b61033a82610303565b9392505050565b6000806040838503121561035457600080fd5b8235915061036460208401610303565b90509250929050565b60006001820161038d57634e487b7160e01b600052601160045260246000fd5b506001019056fe60806040523480156200001157600080fd5b506040516200270d3803806200270d8339810160408190526200003491620001f4565b6200003f33620000a6565b600980546001600160a01b0319166001600160a01b0383161790556200006583620000f6565b50600355604080518082019091526001600160a01b03909116808252426020909201829052600180546001600160a01b031916909117905560025562000235565b600080546001600160a01b038381166001600160a01b0319831681178455604051919092169283917f8be0079c531659141344cd1fd0a4f28419497f9722a3daafe3b4186f6b6457e09190a35050565b6200010062000179565b6001600160a01b0381166200016b5760405162461bcd60e51b815260206004820152602660248201527f4f776e61626c653a206e6577206f776e657220697320746865207a65726f206160448201526564647265737360d01b60648201526084015b60405180910390fd5b6200017681620000a6565b50565b6000546001600160a01b03163314620001d55760405162461bcd60e51b815260206004820181905260248201527f4f776e61626c653a2063616c6c6572206973206e6f7420746865206f776e6572604482015260640162000162565b565b80516001600160a01b0381168114620001ef57600080fd5b919050565b6000806000606084860312156200020a57600080fd5b6200021584620001d7565b9250602084015191506200022c60408501620001d7565b90509250925092565b6124c880620002456000396000f3fe6080604052600436106101815760003560e01c80639f3c4416116100d1578063db81f99b1161008a578063ea46193e11610064578063ea46193e14610438578063f2fde38b1461044b578063f53d0a8e1461046b578063ffc15b7c146104ae57600080fd5b8063db81f99b146103d8578063de35f376146103f8578063e92df2b01461041857600080fd5b80639f3c44161461035c578063a37fc5cf14610371578063c1b640db14610386578063d0e30db01461039b578063d5002f2e146103a3578063daa67756146103b857600080fd5b80634eae51f41161013e57806366416dd31161011857806366416dd3146102e9578063715018a6146103095780637c1d3a011461031e5780638da5cb5b1461033e57600080fd5b80634eae51f4146102595780634f3b972d1461027b57806359e82bd7146102c957600080fd5b8063051ea68f14610186578063064ac578146101b057806325cfecbe146101d25780632e1a7d4d146101f557806335d6f873146102175780633cfd1ccc14610244575b600080fd5b34801561019257600080fd5b5061019b6104c3565b60405190151581526020015b60405180910390f35b3480156101bc57600080fd5b506101c56104de565b6040516101a791906120ca565b3480156101de57600080fd5b506101e7610540565b6040519081526020016101a7565b34801561020157600080fd5b50610215610210366004612117565b610551565b005b34801561022357600080fd5b5061023761023236600461214c565b61062a565b6040516101a791906121a9565b34801561025057600080fd5b506101e7610708565b34801561026557600080fd5b5061026e61077a565b6040516101a791906121bc565b34801561028757600080fd5b506102b1610296366004612117565b6008602052600090815260409020546001600160a01b031681565b6040516001600160a01b0390911681526020016101a7565b3480156102d557600080fd5b506102156102e436600461225a565b61085a565b3480156102f557600080fd5b5061021561030436600461214c565b610a5c565b34801561031557600080fd5b50610215610cb3565b34801561032a57600080fd5b50610215610339366004612286565b610cc7565b34801561034a57600080fd5b506000546001600160a01b03166102b1565b34801561036857600080fd5b506102156110a5565b34801561037d57600080fd5b506101e7611630565b34801561039257600080fd5b50610215611641565b6102156116e5565b3480156103af57600080fd5b506101e76117a4565b3480156103c457600080fd5b506102156103d3366004612117565b6117f7565b3480156103e457600080fd5b506102156103f3366004612117565b61192c565b34801561040457600080fd5b50610215610413366004612117565b611ace565b34801561042457600080fd5b5061021561043336600461225a565b611adb565b34801561044457600080fd5b50476101e7565b34801561045757600080fd5b5061021561046636600461214c565b611c00565b34801561047757600080fd5b5060015460025461048f916001600160a01b03169082565b604080516001600160a01b0390931683526020830191909152016101a7565b3480156104ba57600080fd5b506101c5611c76565b600354600254600091906104d790426122d1565b1015905090565b6060600580548060200260200160405190810160405280929190818152602001828054801561053657602002820191906000526020600020905b81546001600160a01b03168152600190910190602001808311610518575b5050505050905090565b600061054a611d54565b5060025490565b610559611d54565b600081116105a95760405162461bcd60e51b815260206004820152601860248201527720b6b7bab73a1036bab9ba103132903837b9b4ba34bb329760411b60448201526064015b60405180910390fd5b478111156105f95760405162461bcd60e51b815260206004820152601760248201527f4e6f7420656e6f756768204554482062616c616e63652e00000000000000000060448201526064016105a0565b604051339082156108fc029083906000818181858888f19350505050158015610626573d6000803e3d6000fd5b5050565b606060005b60045481101561070257826001600160a01b031660048281548110610656576106566122e4565b60009182526020909120600590910201546001600160a01b0316036106f05760048181548110610688576106886122e4565b90600052602060002090600502016004018054806020026020016040519081016040528092919081815260200182805480156106e357602002820191906000526020600020905b8154815260200190600101908083116106cf575b5050505050915050919050565b806106fa816122fa565b91505061062f565b50919050565b6009546040516370a0823160e01b81523060048201526000916001600160a01b0316906370a0823190602401602060405180830381865afa158015610751573d6000803e3d6000fd5b505050506040513d601f19601f820116820180604052508101906107759190612313565b905090565b60606004805480602002602001604051908101604052809291908181526020016000905b828210156108515760008481526020908190206040805160a0810182526005860290920180546001600160a01b03168352600181015483850152600281015483830152600381015460608401526004810180548351818702810187019094528084529394919360808601939283018282801561083957602002820191906000526020600020905b815481526020019060010190808311610825575b5050505050815250508152602001906001019061079e565b50505050905090565b610862611d54565b6000828152600860205260409020546001600160a01b031680156109415760005b60045481101561093f57816001600160a01b0316600482815481106108aa576108aa6122e4565b60009182526020909120600590910201546001600160a01b03160361092d5760006108f8600483815481106108e1576108e16122e4565b906000526020600020906005020160040186611dae565b905061092760048381548110610910576109106122e4565b906000526020600020906005020160040182611e46565b5061093f565b80610937816122fa565b915050610883565b505b60005b600454811015610a0357826001600160a01b03166004828154811061096b5761096b6122e4565b60009182526020909120600590910201546001600160a01b0316036109f1576004818154811061099d5761099d6122e4565b60009182526020808320600592909202909101600401805460018101825590835281832001869055858252600890526040902080546001600160a01b0319166001600160a01b038516179055506106269050565b806109fb816122fa565b915050610944565b5060405162461bcd60e51b815260206004820152602760248201527f4e657720686569722061646472657373206e6f7420666f756e6420616d6f6e67604482015266103432b4b9399760c91b60648201526084016105a0565b6004548190606411610ac05760405162461bcd60e51b815260206004820152602760248201527f416c7265616479207265616368656420746865206c696d6974206f6620313030604482015266103432b4b9399760c91b60648201526084016105a0565b600554606411610b315760405162461bcd60e51b815260206004820152603660248201527f416c7265616479207265616368656420746865206c696d6974206f66203130306044820152751034b73432b934ba30b731b2903932b8bab2b9ba399760511b60648201526084016105a0565b60005b600554811015610be157816001600160a01b031660058281548110610b5b57610b5b6122e4565b6000918252602090912001546001600160a01b031603610bcf5760405162461bcd60e51b815260206004820152602960248201527f4164647265737320616c72656164792065786973747320696e207265717565736044820152683a399030b93930bc9760b91b60648201526084016105a0565b80610bd9816122fa565b915050610b34565b506005805460018101825560008290527f036b6384b5eca791c62761152d0c79bb0604c104a5fb6f4eb0703f3154bb3db00180546001600160a01b0319166001600160a01b03851690811790915590546004546040805160608082526025908201527f5573657220726571756573747320746f20626520616464656420617320616e206080820152643432b4b91760d91b60a082015260208101939093528201527fe6096ebfc672773ae3076e8ae873cb450789130e8c0d87b2b933210acdc08f669060c00160405180910390a25050565b610cbb611d54565b610cc56000611f26565b565b610ccf611d54565b8282826005805490508310610cf65760405162461bcd60e51b81526004016105a09061232c565b816001600160a01b031660058481548110610d1357610d136122e4565b6000918252602090912001546001600160a01b031614610d455760405162461bcd60e51b81526004016105a090612389565b6000805b600454811015610e2a57836001600160a01b031660048281548110610d7057610d706122e4565b60009182526020909120600590910201546001600160a01b031603610de65760405162461bcd60e51b815260206004820152602660248201527f4164647265737320616c72656164792065786973747320696e2068656972732060448201526530b93930bc9760d11b60648201526084016105a0565b60048181548110610df957610df96122e4565b90600052602060002090600502016001015482610e1691906123f8565b915080610e22816122fa565b915050610d49565b506064610e3783836123f8565b1115610ed15760405162461bcd60e51b815260206004820152605c60248201527f74686520616d6f756e74206f662073686172657320657863656564207468652060448201527f31303025206f662074686520496e6865726974616e63652c207472792077697460648201527f68206120736d616c6c657220616d6f756e74206f662073686172652e00000000608482015260a4016105a0565b6040805160a0810182526001600160a01b0388811682526020808301898152600094840185815260608086018781526080870182815260048054600181018255995287517f8a35acfbc15ff81a39ae7d344fd709f28e8600b4aa8c65c6b64bfe7fe36bd19b6005909a02998a0180546001600160a01b0319169190981617875593517f8a35acfbc15ff81a39ae7d344fd709f28e8600b4aa8c65c6b64bfe7fe36bd19c89015591517f8a35acfbc15ff81a39ae7d344fd709f28e8600b4aa8c65c6b64bfe7fe36bd19d88015590517f8a35acfbc15ff81a39ae7d344fd709f28e8600b4aa8c65c6b64bfe7fe36bd19e870155905180519195610ffa937f8a35acfbc15ff81a39ae7d344fd709f28e8600b4aa8c65c6b64bfe7fe36bd19f9091019291019061206a565b50505061100688611f76565b6005546004546040805160808082526026908201527f41646d696e6973747261746f722061636365707473207573657220617320616e60a082015265103432b4b91760d11b60c0820152602081018a90529081019290925260608201526001600160a01b038816907f14aa904c12fa948b33e901e688a79d46fe3d46a383a5b181c26475cec40d67ec9060e00160405180910390a25050505050505050565b336000805b60045481101561110757826001600160a01b0316600482815481106110d1576110d16122e4565b60009182526020909120600590910201546001600160a01b0316036110f557600191505b806110ff816122fa565b9150506110aa565b506001811515146111765760405162461bcd60e51b815260206004820152603360248201527f546865206164647265737320636c61696d696e672074686520696e686572697460448201527230b731b29034b9903737ba1030902432b4b91760691b60648201526084016105a0565b61117e6104c3565b1561062657600061118d610708565b905047600061119a6117a4565b905060005b6004548110156112b6578184600483815481106111be576111be6122e4565b9060005260206000209060050201600101546111da919061240b565b6111e49190612422565b60066000600484815481106111fb576111fb6122e4565b600091825260208083206005909202909101546001600160a01b0316835282019290925260400190205560048054839185918490811061123d5761123d6122e4565b906000526020600020906005020160010154611259919061240b565b6112639190612422565b600760006004848154811061127a5761127a6122e4565b600091825260208083206005909202909101546001600160a01b03168352820192909252604001902055806112ae816122fa565b91505061119f565b506000805b60045481101561162757600481815481106112d8576112d86122e4565b600091825260208083206005909202909101546001600160a01b031680835260079091526040808320549051919450849281156108fc029290818181858888f1935050505015801561132e573d6000803e3d6000fd5b506001600160a01b038216600090815260076020526040902054600480548390811061135c5761135c6122e4565b60009182526020808320600592909202909101600201929092556009546001600160a01b03858116808452600690945260409283902054925163a9059cbb60e01b815260048101949094526024840192909252169063a9059cbb906044016020604051808303816000875af11580156113d9573d6000803e3d6000fd5b505050506040513d601f19601f820116820180604052508101906113fd9190612444565b61146f5760405162461bcd60e51b815260206004820152603860248201527f4572726f72207768696c65207472616e7366657272696e67205553444320667260448201527f6f6d2074686520636f6e747261637420746f20686569722e000000000000000060648201526084016105a0565b6001600160a01b038216600090815260066020526040902054600480548390811061149c5761149c6122e4565b906000526020600020906005020160030181905550816001600160a01b03167f34e2b4efda0968bd3c419ecd901876f712f93cd5fda9303ab16021c3535f5593600483815481106114ef576114ef6122e4565b90600052602060002090600502016001015460076000866001600160a01b03166001600160a01b03168152602001908152602001600020546004858154811061153a5761153a6122e4565b90600052602060002090600502016002015460066000886001600160a01b03166001600160a01b031681526020019081526020016000205460048781548110611585576115856122e4565b90600052602060002090600502016003015460405161160d95949392919060c08082526026908201527f457468657220616e642055534443206d6f6e65792073656e7420746f2074686560e082015265103432b4b91760d11b610100820152602081019590955260408501939093526060840191909152608083015260a08201526101200190565b60405180910390a28061161f816122fa565b9150506112bb565b50505050505050565b600061163a611d54565b5060035490565b611649611d54565b4260028190556003546040805160808082526031908201527f41646d696e6973747261746f722073656e64732061207369676e616c20746f2060a08201527039b437bb9034329034b99030b634bb329760791b60c08201526020810184905290810192909252606082015233907f5f1aa2875b7b1df0cd72a6ee708c6aff6432288001c47518bc91be4599fdf6e69060e00160405180910390a2565b600154604080516080808252604f908201527f4c6f6720616c6c207468652076616c7565733a2041646d696e6973747261746f60a08201527f7220616464726573732c20416d6f756e742073656e742c20436f6e747261637460c08201526e1032ba3432b9103130b630b731b29760891b60e08201526001600160a01b0390921660208301523482820152476060830152517f0e329d93cfda1bd6ead1003e3ae53461617c8d120014dfaea03d2fb42ec55b07918190036101000190a1565b600080805b60045481101561070257600481815481106117c6576117c66122e4565b906000526020600020906005020160010154826117e391906123f8565b9150806117ef816122fa565b9150506117a9565b6117ff611d54565b6000818152600860205260409020546001600160a01b0316806118645760405162461bcd60e51b815260206004820152601f60248201527f546f6b656e206e6f742061737369676e656420746f20616e7920686569722e0060448201526064016105a0565b60005b60045481101561190c57816001600160a01b03166004828154811061188e5761188e6122e4565b60009182526020909120600590910201546001600160a01b0316036118fa5760006118dc600483815481106118c5576118c56122e4565b906000526020600020906005020160040185611dae565b90506118f460048381548110610910576109106122e4565b5061190c565b80611904816122fa565b915050611867565b5050600090815260086020526040902080546001600160a01b0319169055565b611934611d54565b6000811161197f5760405162461bcd60e51b815260206004820152601860248201527720b6b7bab73a1036bab9ba103132903837b9b4ba34bb329760411b60448201526064016105a0565b611987610708565b8111156119d65760405162461bcd60e51b815260206004820152601860248201527f4e6f7420656e6f75676820555344432062616c616e63652e000000000000000060448201526064016105a0565b60095460405163a9059cbb60e01b8152336004820152602481018390526001600160a01b039091169063a9059cbb906044016020604051808303816000875af1158015611a27573d6000803e3d6000fd5b505050506040513d601f19601f82011682018060405250810190611a4b9190612444565b611acb5760405162461bcd60e51b815260206004820152604560248201527f4572726f72207768696c65207472616e7366657272696e67205553444320667260448201527f6f6d2074686520636f6e747261637420746f207468652061646d696e6973747260648201526430ba37b91760d91b608482015260a4016105a0565b50565b611ad6611d54565b600355565b611ae3611d54565b600554829082908210611b085760405162461bcd60e51b81526004016105a09061232c565b806001600160a01b031660058381548110611b2557611b256122e4565b6000918252602090912001546001600160a01b031614611b575760405162461bcd60e51b81526004016105a090612389565b611b6084611f76565b6005546004546040805160608082526033908201527f41646d696e6973747261746f722072656a6563747320757365722773207265716080820152723ab2b9ba103a379031329030b7103432b4b91760691b60a082015260208101939093528201526001600160a01b038416907f05541b3bb46c30ee5aea95b57d7a1d3949da67ba8e09c865da2318f2fb2738579060c00160405180910390a250505050565b611c08611d54565b6001600160a01b038116611c6d5760405162461bcd60e51b815260206004820152602660248201527f4f776e61626c653a206e6577206f776e657220697320746865207a65726f206160448201526564647265737360d01b60648201526084016105a0565b611acb81611f26565b60045460609060009067ffffffffffffffff811115611c9757611c97612466565b604051908082528060200260200182016040528015611cc0578160200160208202803683370190505b5090506000805b600454811015611d4c5760048181548110611ce457611ce46122e4565b600091825260209091206005909102015483516001600160a01b0390911690849084908110611d1557611d156122e4565b6001600160a01b0390921660209283029190910190910152611d386001836123f8565b915080611d44816122fa565b915050611cc7565b509092915050565b6000546001600160a01b03163314610cc55760405162461bcd60e51b815260206004820181905260248201527f4f776e61626c653a2063616c6c6572206973206e6f7420746865206f776e657260448201526064016105a0565b6000805b8354811015611df75782848281548110611dce57611dce6122e4565b906000526020600020015403611de5579050611e40565b80611def816122fa565b915050611db2565b5060405162461bcd60e51b815260206004820152601960248201527f546f6b656e206e6f7420666f756e6420696e2061727261792e0000000000000060448201526064016105a0565b92915050565b81548110611e8d5760405162461bcd60e51b815260206004820152601460248201527324b73232bc1037baba1037b3103137bab732399760611b60448201526064016105a0565b805b8254611e9d906001906122d1565b811015611efb5782611eb08260016123f8565b81548110611ec057611ec06122e4565b9060005260206000200154838281548110611edd57611edd6122e4565b60009182526020909120015580611ef3816122fa565b915050611e8f565b5081805480611f0c57611f0c61247c565b600190038181906000526020600020016000905590555050565b600080546001600160a01b038381166001600160a01b0319831681178455604051919092169283917f8be0079c531659141344cd1fd0a4f28419497f9722a3daafe3b4186f6b6457e09190a35050565b6005548110611f975760405162461bcd60e51b81526004016105a09061232c565b805b600554611fa8906001906122d1565b811015612033576005611fbc8260016123f8565b81548110611fcc57611fcc6122e4565b600091825260209091200154600580546001600160a01b039092169183908110611ff857611ff86122e4565b600091825260209091200180546001600160a01b0319166001600160a01b03929092169190911790558061202b816122fa565b915050611f99565b5060058054806120455761204561247c565b600082815260209020810160001990810180546001600160a01b031916905501905550565b8280548282559060005260206000209081019282156120a5579160200282015b828111156120a557825182559160200191906001019061208a565b506120b19291506120b5565b5090565b5b808211156120b157600081556001016120b6565b6020808252825182820181905260009190848201906040850190845b8181101561210b5783516001600160a01b0316835292840192918401916001016120e6565b50909695505050505050565b60006020828403121561212957600080fd5b5035919050565b80356001600160a01b038116811461214757600080fd5b919050565b60006020828403121561215e57600080fd5b61216782612130565b9392505050565b600081518084526020808501945080840160005b8381101561219e57815187529582019590820190600101612182565b509495945050505050565b602081526000612167602083018461216e565b60006020808301818452808551808352604092508286019150828160051b87010184880160005b8381101561224c57888303603f19018552815180516001600160a01b03168452878101518885015286810151878501526060808201519085015260809081015160a0918501829052906122388186018361216e565b9689019694505050908601906001016121e3565b509098975050505050505050565b6000806040838503121561226d57600080fd5b8235915061227d60208401612130565b90509250929050565b60008060006060848603121561229b57600080fd5b833592506122ab60208501612130565b9150604084013590509250925092565b634e487b7160e01b600052601160045260246000fd5b81810381811115611e4057611e406122bb565b634e487b7160e01b600052603260045260246000fd5b60006001820161230c5761230c6122bb565b5060010190565b60006020828403121561232557600080fd5b5051919050565b60208082526038908201527f54686520696e6465782073656e7420697320626967676572207468616e20746860408201527f65207265717565737473206172726179206c656e6774682e0000000000000000606082015260800190565b60208082526049908201527f416464726573732073656e7420646f65736e2774206d6174636820776974682060408201527f74686520616464726573732073746f72656420696e20746865207265717565736060820152683a399030b93930bc9760b91b608082015260a00190565b80820180821115611e4057611e406122bb565b8082028115828204841417611e4057611e406122bb565b60008261243f57634e487b7160e01b600052601260045260246000fd5b500490565b60006020828403121561245657600080fd5b8151801515811461216757600080fd5b634e487b7160e01b600052604160045260246000fd5b634e487b7160e01b600052603160045260246000fdfea2646970667358221220dfe27663a73cae8692087c6ab8deafa8b5317326366eceda4eb0f500e7e2a30064736f6c63430008130033a264697066735822122082f2f33e9d40a71255ade6a000d25c34af18a6547e393b805302948a3c2c2bc564736f6c63430008130033","opcodes":"PUSH1 0x80 PUSH1 0x40 MSTORE CALLVALUE DUP1 ISZERO PUSH2 0x10 JUMPI PUSH1 0x0 DUP1 REVERT JUMPDEST POP PUSH2 0x2AD7 DUP1 PUSH2 0x20 PUSH1 0x0 CODECOPY PUSH1 0x0 RETURN INVALID PUSH1 0x80 PUSH1 0x40 MSTORE CALLVALUE DUP1 ISZERO PUSH2 0x10 JUMPI PUSH1 0x0 DUP1 REVERT JUMPDEST POP PUSH1 0x4 CALLDATASIZE LT PUSH2 0x4C JUMPI PUSH1 0x0 CALLDATALOAD PUSH1 0xE0 SHR DUP1 PUSH4 0x21B6E8F5 EQ PUSH2 0x51 JUMPI DUP1 PUSH4 0x6122FED5 EQ PUSH2 0x67 JUMPI DUP1 PUSH4 0x65A4C281 EQ PUSH2 0xA8 JUMPI DUP1 PUSH4 0xB6DB75A0 EQ PUSH2 0xBD JUMPI JUMPDEST PUSH1 0x0 DUP1 REVERT JUMPDEST PUSH1 0x0 SLOAD PUSH1 0x40 MLOAD SWAP1 DUP2 MSTORE PUSH1 0x20 ADD JUMPDEST PUSH1 0x40 MLOAD DUP1 SWAP2 SUB SWAP1 RETURN JUMPDEST PUSH2 0x90 PUSH2 0x75 CALLDATASIZE PUSH1 0x4 PUSH2 0x31F JUMP JUMPDEST PUSH1 0x1 PUSH1 0x20 MSTORE PUSH1 0x0 SWAP1 DUP2 MSTORE PUSH1 0x40 SWAP1 KECCAK256 SLOAD PUSH1 0x1 PUSH1 0x1 PUSH1 0xA0 SHL SUB AND DUP2 JUMP JUMPDEST PUSH1 0x40 MLOAD PUSH1 0x1 PUSH1 0x1 PUSH1 0xA0 SHL SUB SWAP1 SWAP2 AND DUP2 MSTORE PUSH1 0x20 ADD PUSH2 0x5E JUMP JUMPDEST PUSH2 0xBB PUSH2 0xB6 CALLDATASIZE PUSH1 0x4 PUSH2 0x341 JUMP JUMPDEST PUSH2 0xE8 JUMP JUMPDEST STOP JUMPDEST CALLER PUSH1 0x0 SWAP1 DUP2 MSTORE PUSH1 0x1 PUSH1 0x20 MSTORE PUSH1 0x40 SWAP1 KECCAK256 SLOAD PUSH1 0x1 PUSH1 0x1 PUSH1 0xA0 SHL SUB AND ISZERO ISZERO PUSH1 0x40 MLOAD SWAP1 ISZERO ISZERO DUP2 MSTORE PUSH1 0x20 ADD PUSH2 0x5E JUMP JUMPDEST CALLER PUSH1 0x0 SWAP1 DUP2 MSTORE PUSH1 0x1 PUSH1 0x20 MSTORE PUSH1 0x40 SWAP1 KECCAK256 SLOAD PUSH1 0x1 PUSH1 0x1 PUSH1 0xA0 SHL SUB AND ISZERO PUSH2 0x178 JUMPI PUSH1 0x40 MLOAD PUSH3 0x461BCD PUSH1 0xE5 SHL DUP2 MSTORE PUSH1 0x20 PUSH1 0x4 DUP3 ADD MSTORE PUSH1 0x3D PUSH1 0x24 DUP3 ADD MSTORE PUSH32 0x596F75206861766520616C7265616479206F6E6520696E6865726974616E6365 PUSH1 0x44 DUP3 ADD MSTORE PUSH32 0x20637265617465642C20796F752063616E277420686176652074776F2E000000 PUSH1 0x64 DUP3 ADD MSTORE PUSH1 0x84 ADD PUSH1 0x40 MLOAD DUP1 SWAP2 SUB SWAP1 REVERT JUMPDEST CALLER DUP3 DUP3 PUSH1 0x40 MLOAD PUSH2 0x187 SWAP1 PUSH2 0x2F6 JUMP JUMPDEST PUSH1 0x1 PUSH1 0x1 PUSH1 0xA0 SHL SUB SWAP4 DUP5 AND DUP2 MSTORE PUSH1 0x20 DUP2 ADD SWAP3 SWAP1 SWAP3 MSTORE SWAP1 SWAP2 AND PUSH1 0x40 DUP3 ADD MSTORE PUSH1 0x60 ADD PUSH1 0x40 MLOAD DUP1 SWAP2 SUB SWAP1 PUSH1 0x0 CREATE DUP1 ISZERO DUP1 ISZERO PUSH2 0x1C3 JUMPI RETURNDATASIZE PUSH1 0x0 DUP1 RETURNDATACOPY RETURNDATASIZE PUSH1 0x0 REVERT JUMPDEST POP CALLER PUSH1 0x0 SWAP1 DUP2 MSTORE PUSH1 0x1 PUSH1 0x20 MSTORE PUSH1 0x40 DUP2 KECCAK256 DUP1 SLOAD PUSH1 0x1 PUSH1 0x1 PUSH1 0xA0 SHL SUB NOT AND PUSH1 0x1 PUSH1 0x1 PUSH1 0xA0 SHL SUB SWAP4 SWAP1 SWAP4 AND SWAP3 SWAP1 SWAP3 OR SWAP1 SWAP2 SSTORE DUP1 SLOAD SWAP1 DUP1 PUSH2 0x1FF DUP4 PUSH2 0x36D JUMP JUMPDEST SWAP1 SWAP2 SSTORE POP POP CALLER PUSH1 0x0 DUP2 DUP2 MSTORE PUSH1 0x1 PUSH1 0x20 MSTORE PUSH1 0x40 DUP1 DUP3 KECCAK256 SLOAD SWAP2 SLOAD SWAP1 MLOAD PUSH1 0x1 PUSH1 0x1 PUSH1 0xA0 SHL SUB SWAP3 SWAP1 SWAP3 AND SWAP3 SWAP2 PUSH32 0x246B027E5B424DAE3D402E972E3F8E400056FE836431CBE048D9553826BB2E11 SWAP2 PUSH2 0x2EA SWAP2 PUSH1 0x40 DUP1 DUP3 MSTORE PUSH1 0x69 SWAP1 DUP3 ADD MSTORE PUSH32 0x4C6F6720616C6C207468652076616C7565733A2041646D696E6973747261746F PUSH1 0x60 DUP3 ADD MSTORE PUSH32 0x7220616464726573732C20496E6865726974616E636520636F6E747261637420 PUSH1 0x80 DUP3 ADD MSTORE PUSH32 0x616464726573732C204E756D626572206F6620696E6865726974616E63657320 PUSH1 0xA0 DUP3 ADD MSTORE PUSH9 0x3232B83637BCB2B217 PUSH1 0xB9 SHL PUSH1 0xC0 DUP3 ADD MSTORE PUSH1 0x20 DUP2 ADD SWAP2 SWAP1 SWAP2 MSTORE PUSH1 0xE0 ADD SWAP1 JUMP JUMPDEST PUSH1 0x40 MLOAD DUP1 SWAP2 SUB SWAP1 LOG3 POP POP JUMP JUMPDEST PUSH2 0x270D DUP1 PUSH2 0x395 DUP4 CODECOPY ADD SWAP1 JUMP JUMPDEST DUP1 CALLDATALOAD PUSH1 0x1 PUSH1 0x1 PUSH1 0xA0 SHL SUB DUP2 AND DUP2 EQ PUSH2 0x31A JUMPI PUSH1 0x0 DUP1 REVERT JUMPDEST SWAP2 SWAP1 POP JUMP JUMPDEST PUSH1 0x0 PUSH1 0x20 DUP3 DUP5 SUB SLT ISZERO PUSH2 0x331 JUMPI PUSH1 0x0 DUP1 REVERT JUMPDEST PUSH2 0x33A DUP3 PUSH2 0x303 JUMP JUMPDEST SWAP4 SWAP3 POP POP POP JUMP JUMPDEST PUSH1 0x0 DUP1 PUSH1 0x40 DUP4 DUP6 SUB SLT ISZERO PUSH2 0x354 JUMPI PUSH1 0x0 DUP1 REVERT JUMPDEST DUP3 CALLDATALOAD SWAP2 POP PUSH2 0x364 PUSH1 0x20 DUP5 ADD PUSH2 0x303 JUMP JUMPDEST SWAP1 POP SWAP3 POP SWAP3 SWAP1 POP JUMP JUMPDEST PUSH1 0x0 PUSH1 0x1 DUP3 ADD PUSH2 0x38D JUMPI PUSH4 0x4E487B71 PUSH1 0xE0 SHL PUSH1 0x0 MSTORE PUSH1 0x11 PUSH1 0x4 MSTORE PUSH1 0x24 PUSH1 0x0 REVERT JUMPDEST POP PUSH1 0x1 ADD SWAP1 JUMP INVALID PUSH1 0x80 PUSH1 0x40 MSTORE CALLVALUE DUP1 ISZERO PUSH3 0x11 JUMPI PUSH1 0x0 DUP1 REVERT JUMPDEST POP PUSH1 0x40 MLOAD PUSH3 0x270D CODESIZE SUB DUP1 PUSH3 0x270D DUP4 CODECOPY DUP2 ADD PUSH1 0x40 DUP2 SWAP1 MSTORE PUSH3 0x34 SWAP2 PUSH3 0x1F4 JUMP JUMPDEST PUSH3 0x3F CALLER PUSH3 0xA6 JUMP JUMPDEST PUSH1 0x9 DUP1 SLOAD PUSH1 0x1 PUSH1 0x1 PUSH1 0xA0 SHL SUB NOT AND PUSH1 0x1 PUSH1 0x1 PUSH1 0xA0 SHL SUB DUP4 AND OR SWAP1 SSTORE PUSH3 0x65 DUP4 PUSH3 0xF6 JUMP JUMPDEST POP PUSH1 0x3 SSTORE PUSH1 0x40 DUP1 MLOAD DUP1 DUP3 ADD SWAP1 SWAP2 MSTORE PUSH1 0x1 PUSH1 0x1 PUSH1 0xA0 SHL SUB SWAP1 SWAP2 AND DUP1 DUP3 MSTORE TIMESTAMP PUSH1 0x20 SWAP1 SWAP3 ADD DUP3 SWAP1 MSTORE PUSH1 0x1 DUP1 SLOAD PUSH1 0x1 PUSH1 0x1 PUSH1 0xA0 SHL SUB NOT AND SWAP1 SWAP2 OR SWAP1 SSTORE PUSH1 0x2 SSTORE PUSH3 0x235 JUMP JUMPDEST PUSH1 0x0 DUP1 SLOAD PUSH1 0x1 PUSH1 0x1 PUSH1 0xA0 SHL SUB DUP4 DUP2 AND PUSH1 0x1 PUSH1 0x1 PUSH1 0xA0 SHL SUB NOT DUP4 AND DUP2 OR DUP5 SSTORE PUSH1 0x40 MLOAD SWAP2 SWAP1 SWAP3 AND SWAP3 DUP4 SWAP2 PUSH32 0x8BE0079C531659141344CD1FD0A4F28419497F9722A3DAAFE3B4186F6B6457E0 SWAP2 SWAP1 LOG3 POP POP JUMP JUMPDEST PUSH3 0x100 PUSH3 0x179 JUMP JUMPDEST PUSH1 0x1 PUSH1 0x1 PUSH1 0xA0 SHL SUB DUP2 AND PUSH3 0x16B JUMPI PUSH1 0x40 MLOAD PUSH3 0x461BCD PUSH1 0xE5 SHL DUP2 MSTORE PUSH1 0x20 PUSH1 0x4 DUP3 ADD MSTORE PUSH1 0x26 PUSH1 0x24 DUP3 ADD MSTORE PUSH32 0x4F776E61626C653A206E6577206F776E657220697320746865207A65726F2061 PUSH1 0x44 DUP3 ADD MSTORE PUSH6 0x646472657373 PUSH1 0xD0 SHL PUSH1 0x64 DUP3 ADD MSTORE PUSH1 0x84 ADD JUMPDEST PUSH1 0x40 MLOAD DUP1 SWAP2 SUB SWAP1 REVERT JUMPDEST PUSH3 0x176 DUP2 PUSH3 0xA6 JUMP JUMPDEST POP JUMP JUMPDEST PUSH1 0x0 SLOAD PUSH1 0x1 PUSH1 0x1 PUSH1 0xA0 SHL SUB AND CALLER EQ PUSH3 0x1D5 JUMPI PUSH1 0x40 MLOAD PUSH3 0x461BCD PUSH1 0xE5 SHL DUP2 MSTORE PUSH1 0x20 PUSH1 0x4 DUP3 ADD DUP2 SWAP1 MSTORE PUSH1 0x24 DUP3 ADD MSTORE PUSH32 0x4F776E61626C653A2063616C6C6572206973206E6F7420746865206F776E6572 PUSH1 0x44 DUP3 ADD MSTORE PUSH1 0x64 ADD PUSH3 0x162 JUMP JUMPDEST JUMP JUMPDEST DUP1 MLOAD PUSH1 0x1 PUSH1 0x1 PUSH1 0xA0 SHL SUB DUP2 AND DUP2 EQ PUSH3 0x1EF JUMPI PUSH1 0x0 DUP1 REVERT JUMPDEST SWAP2 SWAP1 POP JUMP JUMPDEST PUSH1 0x0 DUP1 PUSH1 0x0 PUSH1 0x60 DUP5 DUP7 SUB SLT ISZERO PUSH3 0x20A JUMPI PUSH1 0x0 DUP1 REVERT JUMPDEST PUSH3 0x215 DUP5 PUSH3 0x1D7 JUMP JUMPDEST SWAP3 POP PUSH1 0x20 DUP5 ADD MLOAD SWAP2 POP PUSH3 0x22C PUSH1 0x40 DUP6 ADD PUSH3 0x1D7 JUMP JUMPDEST SWAP1 POP SWAP3 POP SWAP3 POP SWAP3 JUMP JUMPDEST PUSH2 0x24C8 DUP1 PUSH3 0x245 PUSH1 0x0 CODECOPY PUSH1 0x0 RETURN INVALID PUSH1 0x80 PUSH1 0x40 MSTORE PUSH1 0x4 CALLDATASIZE LT PUSH2 0x181 JUMPI PUSH1 0x0 CALLDATALOAD PUSH1 0xE0 SHR DUP1 PUSH4 0x9F3C4416 GT PUSH2 0xD1 JUMPI DUP1 PUSH4 0xDB81F99B GT PUSH2 0x8A JUMPI DUP1 PUSH4 0xEA46193E GT PUSH2 0x64 JUMPI DUP1 PUSH4 0xEA46193E EQ PUSH2 0x438 JUMPI DUP1 PUSH4 0xF2FDE38B EQ PUSH2 0x44B JUMPI DUP1 PUSH4 0xF53D0A8E EQ PUSH2 0x46B JUMPI DUP1 PUSH4 0xFFC15B7C EQ PUSH2 0x4AE JUMPI PUSH1 0x0 DUP1 REVERT JUMPDEST DUP1 PUSH4 0xDB81F99B EQ PUSH2 0x3D8 JUMPI DUP1 PUSH4 0xDE35F376 EQ PUSH2 0x3F8 JUMPI DUP1 PUSH4 0xE92DF2B0 EQ PUSH2 0x418 JUMPI PUSH1 0x0 DUP1 REVERT JUMPDEST DUP1 PUSH4 0x9F3C4416 EQ PUSH2 0x35C JUMPI DUP1 PUSH4 0xA37FC5CF EQ PUSH2 0x371 JUMPI DUP1 PUSH4 0xC1B640DB EQ PUSH2 0x386 JUMPI DUP1 PUSH4 0xD0E30DB0 EQ PUSH2 0x39B JUMPI DUP1 PUSH4 0xD5002F2E EQ PUSH2 0x3A3 JUMPI DUP1 PUSH4 0xDAA67756 EQ PUSH2 0x3B8 JUMPI PUSH1 0x0 DUP1 REVERT JUMPDEST DUP1 PUSH4 0x4EAE51F4 GT PUSH2 0x13E JUMPI DUP1 PUSH4 0x66416DD3 GT PUSH2 0x118 JUMPI DUP1 PUSH4 0x66416DD3 EQ PUSH2 0x2E9 JUMPI DUP1 PUSH4 0x715018A6 EQ PUSH2 0x309 JUMPI DUP1 PUSH4 0x7C1D3A01 EQ PUSH2 0x31E JUMPI DUP1 PUSH4 0x8DA5CB5B EQ PUSH2 0x33E JUMPI PUSH1 0x0 DUP1 REVERT JUMPDEST DUP1 PUSH4 0x4EAE51F4 EQ PUSH2 0x259 JUMPI DUP1 PUSH4 0x4F3B972D EQ PUSH2 0x27B JUMPI DUP1 PUSH4 0x59E82BD7 EQ PUSH2 0x2C9 JUMPI PUSH1 0x0 DUP1 REVERT JUMPDEST DUP1 PUSH4 0x51EA68F EQ PUSH2 0x186 JUMPI DUP1 PUSH4 0x64AC578 EQ PUSH2 0x1B0 JUMPI DUP1 PUSH4 0x25CFECBE EQ PUSH2 0x1D2 JUMPI DUP1 PUSH4 0x2E1A7D4D EQ PUSH2 0x1F5 JUMPI DUP1 PUSH4 0x35D6F873 EQ PUSH2 0x217 JUMPI DUP1 PUSH4 0x3CFD1CCC EQ PUSH2 0x244 JUMPI JUMPDEST PUSH1 0x0 DUP1 REVERT JUMPDEST CALLVALUE DUP1 ISZERO PUSH2 0x192 JUMPI PUSH1 0x0 DUP1 REVERT JUMPDEST POP PUSH2 0x19B PUSH2 0x4C3 JUMP JUMPDEST PUSH1 0x40 MLOAD SWAP1 ISZERO ISZERO DUP2 MSTORE PUSH1 0x20 ADD JUMPDEST PUSH1 0x40 MLOAD DUP1 SWAP2 SUB SWAP1 RETURN JUMPDEST CALLVALUE DUP1 ISZERO PUSH2 0x1BC JUMPI PUSH1 0x0 DUP1 REVERT JUMPDEST POP PUSH2 0x1C5 PUSH2 0x4DE JUMP JUMPDEST PUSH1 0x40 MLOAD PUSH2 0x1A7 SWAP2 SWAP1 PUSH2 0x20CA JUMP JUMPDEST CALLVALUE DUP1 ISZERO PUSH2 0x1DE JUMPI PUSH1 0x0 DUP1 REVERT JUMPDEST POP PUSH2 0x1E7 PUSH2 0x540 JUMP JUMPDEST PUSH1 0x40 MLOAD SWAP1 DUP2 MSTORE PUSH1 0x20 ADD PUSH2 0x1A7 JUMP JUMPDEST CALLVALUE DUP1 ISZERO PUSH2 0x201 JUMPI PUSH1 0x0 DUP1 REVERT JUMPDEST POP PUSH2 0x215 PUSH2 0x210 CALLDATASIZE PUSH1 0x4 PUSH2 0x2117 JUMP JUMPDEST PUSH2 0x551 JUMP JUMPDEST STOP JUMPDEST CALLVALUE DUP1 ISZERO PUSH2 0x223 JUMPI PUSH1 0x0 DUP1 REVERT JUMPDEST POP PUSH2 0x237 PUSH2 0x232 CALLDATASIZE PUSH1 0x4 PUSH2 0x214C JUMP JUMPDEST PUSH2 0x62A JUMP JUMPDEST PUSH1 0x40 MLOAD PUSH2 0x1A7 SWAP2 SWAP1 PUSH2 0x21A9 JUMP JUMPDEST CALLVALUE DUP1 ISZERO PUSH2 0x250 JUMPI PUSH1 0x0 DUP1 REVERT JUMPDEST POP PUSH2 0x1E7 PUSH2 0x708 JUMP JUMPDEST CALLVALUE DUP1 ISZERO PUSH2 0x265 JUMPI PUSH1 0x0 DUP1 REVERT JUMPDEST POP PUSH2 0x26E PUSH2 0x77A JUMP JUMPDEST PUSH1 0x40 MLOAD PUSH2 0x1A7 SWAP2 SWAP1 PUSH2 0x21BC JUMP JUMPDEST CALLVALUE DUP1 ISZERO PUSH2 0x287 JUMPI PUSH1 0x0 DUP1 REVERT JUMPDEST POP PUSH2 0x2B1 PUSH2 0x296 CALLDATASIZE PUSH1 0x4 PUSH2 0x2117 JUMP JUMPDEST PUSH1 0x8 PUSH1 0x20 MSTORE PUSH1 0x0 SWAP1 DUP2 MSTORE PUSH1 0x40 SWAP1 KECCAK256 SLOAD PUSH1 0x1 PUSH1 0x1 PUSH1 0xA0 SHL SUB AND DUP2 JUMP JUMPDEST PUSH1 0x40 MLOAD PUSH1 0x1 PUSH1 0x1 PUSH1 0xA0 SHL SUB SWAP1 SWAP2 AND DUP2 MSTORE PUSH1 0x20 ADD PUSH2 0x1A7 JUMP JUMPDEST CALLVALUE DUP1 ISZERO PUSH2 0x2D5 JUMPI PUSH1 0x0 DUP1 REVERT JUMPDEST POP PUSH2 0x215 PUSH2 0x2E4 CALLDATASIZE PUSH1 0x4 PUSH2 0x225A JUMP JUMPDEST PUSH2 0x85A JUMP JUMPDEST CALLVALUE DUP1 ISZERO PUSH2 0x2F5 JUMPI PUSH1 0x0 DUP1 REVERT JUMPDEST POP PUSH2 0x215 PUSH2 0x304 CALLDATASIZE PUSH1 0x4 PUSH2 0x214C JUMP JUMPDEST PUSH2 0xA5C JUMP JUMPDEST CALLVALUE DUP1 ISZERO PUSH2 0x315 JUMPI PUSH1 0x0 DUP1 REVERT JUMPDEST POP PUSH2 0x215 PUSH2 0xCB3 JUMP JUMPDEST CALLVALUE DUP1 ISZERO PUSH2 0x32A JUMPI PUSH1 0x0 DUP1 REVERT JUMPDEST POP PUSH2 0x215 PUSH2 0x339 CALLDATASIZE PUSH1 0x4 PUSH2 0x2286 JUMP JUMPDEST PUSH2 0xCC7 JUMP JUMPDEST CALLVALUE DUP1 ISZERO PUSH2 0x34A JUMPI PUSH1 0x0 DUP1 REVERT JUMPDEST POP PUSH1 0x0 SLOAD PUSH1 0x1 PUSH1 0x1 PUSH1 0xA0 SHL SUB AND PUSH2 0x2B1 JUMP JUMPDEST CALLVALUE DUP1 ISZERO PUSH2 0x368 JUMPI PUSH1 0x0 DUP1 REVERT JUMPDEST POP PUSH2 0x215 PUSH2 0x10A5 JUMP JUMPDEST CALLVALUE DUP1 ISZERO PUSH2 0x37D JUMPI PUSH1 0x0 DUP1 REVERT JUMPDEST POP PUSH2 0x1E7 PUSH2 0x1630 JUMP JUMPDEST CALLVALUE DUP1 ISZERO PUSH2 0x392 JUMPI PUSH1 0x0 DUP1 REVERT JUMPDEST POP PUSH2 0x215 PUSH2 0x1641 JUMP JUMPDEST PUSH2 0x215 PUSH2 0x16E5 JUMP JUMPDEST CALLVALUE DUP1 ISZERO PUSH2 0x3AF JUMPI PUSH1 0x0 DUP1 REVERT JUMPDEST POP PUSH2 0x1E7 PUSH2 0x17A4 JUMP JUMPDEST CALLVALUE DUP1 ISZERO PUSH2 0x3C4 JUMPI PUSH1 0x0 DUP1 REVERT JUMPDEST POP PUSH2 0x215 PUSH2 0x3D3 CALLDATASIZE PUSH1 0x4 PUSH2 0x2117 JUMP JUMPDEST PUSH2 0x17F7 JUMP JUMPDEST CALLVALUE DUP1 ISZERO PUSH2 0x3E4 JUMPI PUSH1 0x0 DUP1 REVERT JUMPDEST POP PUSH2 0x215 PUSH2 0x3F3 CALLDATASIZE PUSH1 0x4 PUSH2 0x2117 JUMP JUMPDEST PUSH2 0x192C JUMP JUMPDEST CALLVALUE DUP1 ISZERO PUSH2 0x404 JUMPI PUSH1 0x0 DUP1 REVERT JUMPDEST POP PUSH2 0x215 PUSH2 0x413 CALLDATASIZE PUSH1 0x4 PUSH2 0x2117 JUMP JUMPDEST PUSH2 0x1ACE JUMP JUMPDEST CALLVALUE DUP1 ISZERO PUSH2 0x424 JUMPI PUSH1 0x0 DUP1 REVERT JUMPDEST POP PUSH2 0x215 PUSH2 0x433 CALLDATASIZE PUSH1 0x4 PUSH2 0x225A JUMP JUMPDEST PUSH2 0x1ADB JUMP JUMPDEST CALLVALUE DUP1 ISZERO PUSH2 0x444 JUMPI PUSH1 0x0 DUP1 REVERT JUMPDEST POP SELFBALANCE PUSH2 0x1E7 JUMP JUMPDEST CALLVALUE DUP1 ISZERO PUSH2 0x457 JUMPI PUSH1 0x0 DUP1 REVERT JUMPDEST POP PUSH2 0x215 PUSH2 0x466 CALLDATASIZE PUSH1 0x4 PUSH2 0x214C JUMP JUMPDEST PUSH2 0x1C00 JUMP JUMPDEST CALLVALUE DUP1 ISZERO PUSH2 0x477 JUMPI PUSH1 0x0 DUP1 REVERT JUMPDEST POP PUSH1 0x1 SLOAD PUSH1 0x2 SLOAD PUSH2 0x48F SWAP2 PUSH1 0x1 PUSH1 0x1 PUSH1 0xA0 SHL SUB AND SWAP1 DUP3 JUMP JUMPDEST PUSH1 0x40 DUP1 MLOAD PUSH1 0x1 PUSH1 0x1 PUSH1 0xA0 SHL SUB SWAP1 SWAP4 AND DUP4 MSTORE PUSH1 0x20 DUP4 ADD SWAP2 SWAP1 SWAP2 MSTORE ADD PUSH2 0x1A7 JUMP JUMPDEST CALLVALUE DUP1 ISZERO PUSH2 0x4BA JUMPI PUSH1 0x0 DUP1 REVERT JUMPDEST POP PUSH2 0x1C5 PUSH2 0x1C76 JUMP JUMPDEST PUSH1 0x3 SLOAD PUSH1 0x2 SLOAD PUSH1 0x0 SWAP2 SWAP1 PUSH2 0x4D7 SWAP1 TIMESTAMP PUSH2 0x22D1 JUMP JUMPDEST LT ISZERO SWAP1 POP SWAP1 JUMP JUMPDEST PUSH1 0x60 PUSH1 0x5 DUP1 SLOAD DUP1 PUSH1 0x20 MUL PUSH1 0x20 ADD PUSH1 0x40 MLOAD SWAP1 DUP2 ADD PUSH1 0x40 MSTORE DUP1 SWAP3 SWAP2 SWAP1 DUP2 DUP2 MSTORE PUSH1 0x20 ADD DUP3 DUP1 SLOAD DUP1 ISZERO PUSH2 0x536 JUMPI PUSH1 0x20 MUL DUP3 ADD SWAP2 SWAP1 PUSH1 0x0 MSTORE PUSH1 0x20 PUSH1 0x0 KECCAK256 SWAP1 JUMPDEST DUP2 SLOAD PUSH1 0x1 PUSH1 0x1 PUSH1 0xA0 SHL SUB AND DUP2 MSTORE PUSH1 0x1 SWAP1 SWAP2 ADD SWAP1 PUSH1 0x20 ADD DUP1 DUP4 GT PUSH2 0x518 JUMPI JUMPDEST POP POP POP POP POP SWAP1 POP SWAP1 JUMP JUMPDEST PUSH1 0x0 PUSH2 0x54A PUSH2 0x1D54 JUMP JUMPDEST POP PUSH1 0x2 SLOAD SWAP1 JUMP JUMPDEST PUSH2 0x559 PUSH2 0x1D54 JUMP JUMPDEST PUSH1 0x0 DUP2 GT PUSH2 0x5A9 JUMPI PUSH1 0x40 MLOAD PUSH3 0x461BCD PUSH1 0xE5 SHL DUP2 MSTORE PUSH1 0x20 PUSH1 0x4 DUP3 ADD MSTORE PUSH1 0x18 PUSH1 0x24 DUP3 ADD MSTORE PUSH24 0x20B6B7BAB73A1036BAB9BA103132903837B9B4BA34BB3297 PUSH1 0x41 SHL PUSH1 0x44 DUP3 ADD MSTORE PUSH1 0x64 ADD JUMPDEST PUSH1 0x40 MLOAD DUP1 SWAP2 SUB SWAP1 REVERT JUMPDEST SELFBALANCE DUP2 GT ISZERO PUSH2 0x5F9 JUMPI PUSH1 0x40 MLOAD PUSH3 0x461BCD PUSH1 0xE5 SHL DUP2 MSTORE PUSH1 0x20 PUSH1 0x4 DUP3 ADD MSTORE PUSH1 0x17 PUSH1 0x24 DUP3 ADD MSTORE PUSH32 0x4E6F7420656E6F756768204554482062616C616E63652E000000000000000000 PUSH1 0x44 DUP3 ADD MSTORE PUSH1 0x64 ADD PUSH2 0x5A0 JUMP JUMPDEST PUSH1 0x40 MLOAD CALLER SWAP1 DUP3 ISZERO PUSH2 0x8FC MUL SWAP1 DUP4 SWAP1 PUSH1 0x0 DUP2 DUP2 DUP2 DUP6 DUP9 DUP9 CALL SWAP4 POP POP POP POP ISZERO DUP1 ISZERO PUSH2 0x626 JUMPI RETURNDATASIZE PUSH1 0x0 DUP1 RETURNDATACOPY RETURNDATASIZE PUSH1 0x0 REVERT JUMPDEST POP POP JUMP JUMPDEST PUSH1 0x60 PUSH1 0x0 JUMPDEST PUSH1 0x4 SLOAD DUP2 LT ISZERO PUSH2 0x702 JUMPI DUP3 PUSH1 0x1 PUSH1 0x1 PUSH1 0xA0 SHL SUB AND PUSH1 0x4 DUP3 DUP2 SLOAD DUP2 LT PUSH2 0x656 JUMPI PUSH2 0x656 PUSH2 0x22E4 JUMP JUMPDEST PUSH1 0x0 SWAP2 DUP3 MSTORE PUSH1 0x20 SWAP1 SWAP2 KECCAK256 PUSH1 0x5 SWAP1 SWAP2 MUL ADD SLOAD PUSH1 0x1 PUSH1 0x1 PUSH1 0xA0 SHL SUB AND SUB PUSH2 0x6F0 JUMPI PUSH1 0x4 DUP2 DUP2 SLOAD DUP2 LT PUSH2 0x688 JUMPI PUSH2 0x688 PUSH2 0x22E4 JUMP JUMPDEST SWAP1 PUSH1 0x0 MSTORE PUSH1 0x20 PUSH1 0x0 KECCAK256 SWAP1 PUSH1 0x5 MUL ADD PUSH1 0x4 ADD DUP1 SLOAD DUP1 PUSH1 0x20 MUL PUSH1 0x20 ADD PUSH1 0x40 MLOAD SWAP1 DUP2 ADD PUSH1 0x40 MSTORE DUP1 SWAP3 SWAP2 SWAP1 DUP2 DUP2 MSTORE PUSH1 0x20 ADD DUP3 DUP1 SLOAD DUP1 ISZERO PUSH2 0x6E3 JUMPI PUSH1 0x20 MUL DUP3 ADD SWAP2 SWAP1 PUSH1 0x0 MSTORE PUSH1 0x20 PUSH1 0x0 KECCAK256 SWAP1 JUMPDEST DUP2 SLOAD DUP2 MSTORE PUSH1 0x20 ADD SWAP1 PUSH1 0x1 ADD SWAP1 DUP1 DUP4 GT PUSH2 0x6CF JUMPI JUMPDEST POP POP POP POP POP SWAP2 POP POP SWAP2 SWAP1 POP JUMP JUMPDEST DUP1 PUSH2 0x6FA DUP2 PUSH2 0x22FA JUMP JUMPDEST SWAP2 POP POP PUSH2 0x62F JUMP JUMPDEST POP SWAP2 SWAP1 POP JUMP JUMPDEST PUSH1 0x9 SLOAD PUSH1 0x40 MLOAD PUSH4 0x70A08231 PUSH1 0xE0 SHL DUP2 MSTORE ADDRESS PUSH1 0x4 DUP3 ADD MSTORE PUSH1 0x0 SWAP2 PUSH1 0x1 PUSH1 0x1 PUSH1 0xA0 SHL SUB AND SWAP1 PUSH4 0x70A08231 SWAP1 PUSH1 0x24 ADD PUSH1 0x20 PUSH1 0x40 MLOAD DUP1 DUP4 SUB DUP2 DUP7 GAS STATICCALL ISZERO DUP1 ISZERO PUSH2 0x751 JUMPI RETURNDATASIZE PUSH1 0x0 DUP1 RETURNDATACOPY RETURNDATASIZE PUSH1 0x0 REVERT JUMPDEST POP POP POP POP PUSH1 0x40 MLOAD RETURNDATASIZE PUSH1 0x1F NOT PUSH1 0x1F DUP3 ADD AND DUP3 ADD DUP1 PUSH1 0x40 MSTORE POP DUP2 ADD SWAP1 PUSH2 0x775 SWAP2 SWAP1 PUSH2 0x2313 JUMP JUMPDEST SWAP1 POP SWAP1 JUMP JUMPDEST PUSH1 0x60 PUSH1 0x4 DUP1 SLOAD DUP1 PUSH1 0x20 MUL PUSH1 0x20 ADD PUSH1 0x40 MLOAD SWAP1 DUP2 ADD PUSH1 0x40 MSTORE DUP1 SWAP3 SWAP2 SWAP1 DUP2 DUP2 MSTORE PUSH1 0x20 ADD PUSH1 0x0 SWAP1 JUMPDEST DUP3 DUP3 LT ISZERO PUSH2 0x851 JUMPI PUSH1 0x0 DUP5 DUP2 MSTORE PUSH1 0x20 SWAP1 DUP2 SWAP1 KECCAK256 PUSH1 0x40 DUP1 MLOAD PUSH1 0xA0 DUP2 ADD DUP3 MSTORE PUSH1 0x5 DUP7 MUL SWAP1 SWAP3 ADD DUP1 SLOAD PUSH1 0x1 PUSH1 0x1 PUSH1 0xA0 SHL SUB AND DUP4 MSTORE PUSH1 0x1 DUP2 ADD SLOAD DUP4 DUP6 ADD MSTORE PUSH1 0x2 DUP2 ADD SLOAD DUP4 DUP4 ADD MSTORE PUSH1 0x3 DUP2 ADD SLOAD PUSH1 0x60 DUP5 ADD MSTORE PUSH1 0x4 DUP2 ADD DUP1 SLOAD DUP4 MLOAD DUP2 DUP8 MUL DUP2 ADD DUP8 ADD SWAP1 SWAP5 MSTORE DUP1 DUP5 MSTORE SWAP4 SWAP5 SWAP2 SWAP4 PUSH1 0x80 DUP7 ADD SWAP4 SWAP3 DUP4 ADD DUP3 DUP3 DUP1 ISZERO PUSH2 0x839 JUMPI PUSH1 0x20 MUL DUP3 ADD SWAP2 SWAP1 PUSH1 0x0 MSTORE PUSH1 0x20 PUSH1 0x0 KECCAK256 SWAP1 JUMPDEST DUP2 SLOAD DUP2 MSTORE PUSH1 0x20 ADD SWAP1 PUSH1 0x1 ADD SWAP1 DUP1 DUP4 GT PUSH2 0x825 JUMPI JUMPDEST POP POP POP POP POP DUP2 MSTORE POP POP DUP2 MSTORE PUSH1 0x20 ADD SWAP1 PUSH1 0x1 ADD SWAP1 PUSH2 0x79E JUMP JUMPDEST POP POP POP POP SWAP1 POP SWAP1 JUMP JUMPDEST PUSH2 0x862 PUSH2 0x1D54 JUMP JUMPDEST PUSH1 0x0 DUP3 DUP2 MSTORE PUSH1 0x8 PUSH1 0x20 MSTORE PUSH1 0x40 SWAP1 KECCAK256 SLOAD PUSH1 0x1 PUSH1 0x1 PUSH1 0xA0 SHL SUB AND DUP1 ISZERO PUSH2 0x941 JUMPI PUSH1 0x0 JUMPDEST PUSH1 0x4 SLOAD DUP2 LT ISZERO PUSH2 0x93F JUMPI DUP2 PUSH1 0x1 PUSH1 0x1 PUSH1 0xA0 SHL SUB AND PUSH1 0x4 DUP3 DUP2 SLOAD DUP2 LT PUSH2 0x8AA JUMPI PUSH2 0x8AA PUSH2 0x22E4 JUMP JUMPDEST PUSH1 0x0 SWAP2 DUP3 MSTORE PUSH1 0x20 SWAP1 SWAP2 KECCAK256 PUSH1 0x5 SWAP1 SWAP2 MUL ADD SLOAD PUSH1 0x1 PUSH1 0x1 PUSH1 0xA0 SHL SUB AND SUB PUSH2 0x92D JUMPI PUSH1 0x0 PUSH2 0x8F8 PUSH1 0x4 DUP4 DUP2 SLOAD DUP2 LT PUSH2 0x8E1 JUMPI PUSH2 0x8E1 PUSH2 0x22E4 JUMP JUMPDEST SWAP1 PUSH1 0x0 MSTORE PUSH1 0x20 PUSH1 0x0 KECCAK256 SWAP1 PUSH1 0x5 MUL ADD PUSH1 0x4 ADD DUP7 PUSH2 0x1DAE JUMP JUMPDEST SWAP1 POP PUSH2 0x927 PUSH1 0x4 DUP4 DUP2 SLOAD DUP2 LT PUSH2 0x910 JUMPI PUSH2 0x910 PUSH2 0x22E4 JUMP JUMPDEST SWAP1 PUSH1 0x0 MSTORE PUSH1 0x20 PUSH1 0x0 KECCAK256 SWAP1 PUSH1 0x5 MUL ADD PUSH1 0x4 ADD DUP3 PUSH2 0x1E46 JUMP JUMPDEST POP PUSH2 0x93F JUMP JUMPDEST DUP1 PUSH2 0x937 DUP2 PUSH2 0x22FA JUMP JUMPDEST SWAP2 POP POP PUSH2 0x883 JUMP JUMPDEST POP JUMPDEST PUSH1 0x0 JUMPDEST PUSH1 0x4 SLOAD DUP2 LT ISZERO PUSH2 0xA03 JUMPI DUP3 PUSH1 0x1 PUSH1 0x1 PUSH1 0xA0 SHL SUB AND PUSH1 0x4 DUP3 DUP2 SLOAD DUP2 LT PUSH2 0x96B JUMPI PUSH2 0x96B PUSH2 0x22E4 JUMP JUMPDEST PUSH1 0x0 SWAP2 DUP3 MSTORE PUSH1 0x20 SWAP1 SWAP2 KECCAK256 PUSH1 0x5 SWAP1 SWAP2 MUL ADD SLOAD PUSH1 0x1 PUSH1 0x1 PUSH1 0xA0 SHL SUB AND SUB PUSH2 0x9F1 JUMPI PUSH1 0x4 DUP2 DUP2 SLOAD DUP2 LT PUSH2 0x99D JUMPI PUSH2 0x99D PUSH2 0x22E4 JUMP JUMPDEST PUSH1 0x0 SWAP2 DUP3 MSTORE PUSH1 0x20 DUP1 DUP4 KECCAK256 PUSH1 0x5 SWAP3 SWAP1 SWAP3 MUL SWAP1 SWAP2 ADD PUSH1 0x4 ADD DUP1 SLOAD PUSH1 0x1 DUP2 ADD DUP3 SSTORE SWAP1 DUP4 MSTORE DUP2 DUP4 KECCAK256 ADD DUP7 SWAP1 SSTORE DUP6 DUP3 MSTORE PUSH1 0x8 SWAP1 MSTORE PUSH1 0x40 SWAP1 KECCAK256 DUP1 SLOAD PUSH1 0x1 PUSH1 0x1 PUSH1 0xA0 SHL SUB NOT AND PUSH1 0x1 PUSH1 0x1 PUSH1 0xA0 SHL SUB DUP6 AND OR SWAP1 SSTORE POP PUSH2 0x626 SWAP1 POP JUMP JUMPDEST DUP1 PUSH2 0x9FB DUP2 PUSH2 0x22FA JUMP JUMPDEST SWAP2 POP POP PUSH2 0x944 JUMP JUMPDEST POP PUSH1 0x40 MLOAD PUSH3 0x461BCD PUSH1 0xE5 SHL DUP2 MSTORE PUSH1 0x20 PUSH1 0x4 DUP3 ADD MSTORE PUSH1 0x27 PUSH1 0x24 DUP3 ADD MSTORE PUSH32 0x4E657720686569722061646472657373206E6F7420666F756E6420616D6F6E67 PUSH1 0x44 DUP3 ADD MSTORE PUSH7 0x103432B4B93997 PUSH1 0xC9 SHL PUSH1 0x64 DUP3 ADD MSTORE PUSH1 0x84 ADD PUSH2 0x5A0 JUMP JUMPDEST PUSH1 0x4 SLOAD DUP2 SWAP1 PUSH1 0x64 GT PUSH2 0xAC0 JUMPI PUSH1 0x40 MLOAD PUSH3 0x461BCD PUSH1 0xE5 SHL DUP2 MSTORE PUSH1 0x20 PUSH1 0x4 DUP3 ADD MSTORE PUSH1 0x27 PUSH1 0x24 DUP3 ADD MSTORE PUSH32 0x416C7265616479207265616368656420746865206C696D6974206F6620313030 PUSH1 0x44 DUP3 ADD MSTORE PUSH7 0x103432B4B93997 PUSH1 0xC9 SHL PUSH1 0x64 DUP3 ADD MSTORE PUSH1 0x84 ADD PUSH2 0x5A0 JUMP JUMPDEST PUSH1 0x5 SLOAD PUSH1 0x64 GT PUSH2 0xB31 JUMPI PUSH1 0x40 MLOAD PUSH3 0x461BCD PUSH1 0xE5 SHL DUP2 MSTORE PUSH1 0x20 PUSH1 0x4 DUP3 ADD MSTORE PUSH1 0x36 PUSH1 0x24 DUP3 ADD MSTORE PUSH32 0x416C7265616479207265616368656420746865206C696D6974206F6620313030 PUSH1 0x44 DUP3 ADD MSTORE PUSH22 0x1034B73432B934BA30B731B2903932B8BAB2B9BA3997 PUSH1 0x51 SHL PUSH1 0x64 DUP3 ADD MSTORE PUSH1 0x84 ADD PUSH2 0x5A0 JUMP JUMPDEST PUSH1 0x0 JUMPDEST PUSH1 0x5 SLOAD DUP2 LT ISZERO PUSH2 0xBE1 JUMPI DUP2 PUSH1 0x1 PUSH1 0x1 PUSH1 0xA0 SHL SUB AND PUSH1 0x5 DUP3 DUP2 SLOAD DUP2 LT PUSH2 0xB5B JUMPI PUSH2 0xB5B PUSH2 0x22E4 JUMP JUMPDEST PUSH1 0x0 SWAP2 DUP3 MSTORE PUSH1 0x20 SWAP1 SWAP2 KECCAK256 ADD SLOAD PUSH1 0x1 PUSH1 0x1 PUSH1 0xA0 SHL SUB AND SUB PUSH2 0xBCF JUMPI PUSH1 0x40 MLOAD PUSH3 0x461BCD PUSH1 0xE5 SHL DUP2 MSTORE PUSH1 0x20 PUSH1 0x4 DUP3 ADD MSTORE PUSH1 0x29 PUSH1 0x24 DUP3 ADD MSTORE PUSH32 0x4164647265737320616C72656164792065786973747320696E20726571756573 PUSH1 0x44 DUP3 ADD MSTORE PUSH9 0x3A399030B93930BC97 PUSH1 0xB9 SHL PUSH1 0x64 DUP3 ADD MSTORE PUSH1 0x84 ADD PUSH2 0x5A0 JUMP JUMPDEST DUP1 PUSH2 0xBD9 DUP2 PUSH2 0x22FA JUMP JUMPDEST SWAP2 POP POP PUSH2 0xB34 JUMP JUMPDEST POP PUSH1 0x5 DUP1 SLOAD PUSH1 0x1 DUP2 ADD DUP3 SSTORE PUSH1 0x0 DUP3 SWAP1 MSTORE PUSH32 0x36B6384B5ECA791C62761152D0C79BB0604C104A5FB6F4EB0703F3154BB3DB0 ADD DUP1 SLOAD PUSH1 0x1 PUSH1 0x1 PUSH1 0xA0 SHL SUB NOT AND PUSH1 0x1 PUSH1 0x1 PUSH1 0xA0 SHL SUB DUP6 AND SWAP1 DUP2 OR SWAP1 SWAP2 SSTORE SWAP1 SLOAD PUSH1 0x4 SLOAD PUSH1 0x40 DUP1 MLOAD PUSH1 0x60 DUP1 DUP3 MSTORE PUSH1 0x25 SWAP1 DUP3 ADD MSTORE PUSH32 0x5573657220726571756573747320746F20626520616464656420617320616E20 PUSH1 0x80 DUP3 ADD MSTORE PUSH5 0x3432B4B917 PUSH1 0xD9 SHL PUSH1 0xA0 DUP3 ADD MSTORE PUSH1 0x20 DUP2 ADD SWAP4 SWAP1 SWAP4 MSTORE DUP3 ADD MSTORE PUSH32 0xE6096EBFC672773AE3076E8AE873CB450789130E8C0D87B2B933210ACDC08F66 SWAP1 PUSH1 0xC0 ADD PUSH1 0x40 MLOAD DUP1 SWAP2 SUB SWAP1 LOG2 POP POP JUMP JUMPDEST PUSH2 0xCBB PUSH2 0x1D54 JUMP JUMPDEST PUSH2 0xCC5 PUSH1 0x0 PUSH2 0x1F26 JUMP JUMPDEST JUMP JUMPDEST PUSH2 0xCCF PUSH2 0x1D54 JUMP JUMPDEST DUP3 DUP3 DUP3 PUSH1 0x5 DUP1 SLOAD SWAP1 POP DUP4 LT PUSH2 0xCF6 JUMPI PUSH1 0x40 MLOAD PUSH3 0x461BCD PUSH1 0xE5 SHL DUP2 MSTORE PUSH1 0x4 ADD PUSH2 0x5A0 SWAP1 PUSH2 0x232C JUMP JUMPDEST DUP2 PUSH1 0x1 PUSH1 0x1 PUSH1 0xA0 SHL SUB AND PUSH1 0x5 DUP5 DUP2 SLOAD DUP2 LT PUSH2 0xD13 JUMPI PUSH2 0xD13 PUSH2 0x22E4 JUMP JUMPDEST PUSH1 0x0 SWAP2 DUP3 MSTORE PUSH1 0x20 SWAP1 SWAP2 KECCAK256 ADD SLOAD PUSH1 0x1 PUSH1 0x1 PUSH1 0xA0 SHL SUB AND EQ PUSH2 0xD45 JUMPI PUSH1 0x40 MLOAD PUSH3 0x461BCD PUSH1 0xE5 SHL DUP2 MSTORE PUSH1 0x4 ADD PUSH2 0x5A0 SWAP1 PUSH2 0x2389 JUMP JUMPDEST PUSH1 0x0 DUP1 JUMPDEST PUSH1 0x4 SLOAD DUP2 LT ISZERO PUSH2 0xE2A JUMPI DUP4 PUSH1 0x1 PUSH1 0x1 PUSH1 0xA0 SHL SUB AND PUSH1 0x4 DUP3 DUP2 SLOAD DUP2 LT PUSH2 0xD70 JUMPI PUSH2 0xD70 PUSH2 0x22E4 JUMP JUMPDEST PUSH1 0x0 SWAP2 DUP3 MSTORE PUSH1 0x20 SWAP1 SWAP2 KECCAK256 PUSH1 0x5 SWAP1 SWAP2 MUL ADD SLOAD PUSH1 0x1 PUSH1 0x1 PUSH1 0xA0 SHL SUB AND SUB PUSH2 0xDE6 JUMPI PUSH1 0x40 MLOAD PUSH3 0x461BCD PUSH1 0xE5 SHL DUP2 MSTORE PUSH1 0x20 PUSH1 0x4 DUP3 ADD MSTORE PUSH1 0x26 PUSH1 0x24 DUP3 ADD MSTORE PUSH32 0x4164647265737320616C72656164792065786973747320696E20686569727320 PUSH1 0x44 DUP3 ADD MSTORE PUSH6 0x30B93930BC97 PUSH1 0xD1 SHL PUSH1 0x64 DUP3 ADD MSTORE PUSH1 0x84 ADD PUSH2 0x5A0 JUMP JUMPDEST PUSH1 0x4 DUP2 DUP2 SLOAD DUP2 LT PUSH2 0xDF9 JUMPI PUSH2 0xDF9 PUSH2 0x22E4 JUMP JUMPDEST SWAP1 PUSH1 0x0 MSTORE PUSH1 0x20 PUSH1 0x0 KECCAK256 SWAP1 PUSH1 0x5 MUL ADD PUSH1 0x1 ADD SLOAD DUP3 PUSH2 0xE16 SWAP2 SWAP1 PUSH2 0x23F8 JUMP JUMPDEST SWAP2 POP DUP1 PUSH2 0xE22 DUP2 PUSH2 0x22FA JUMP JUMPDEST SWAP2 POP POP PUSH2 0xD49 JUMP JUMPDEST POP PUSH1 0x64 PUSH2 0xE37 DUP4 DUP4 PUSH2 0x23F8 JUMP JUMPDEST GT ISZERO PUSH2 0xED1 JUMPI PUSH1 0x40 MLOAD PUSH3 0x461BCD PUSH1 0xE5 SHL DUP2 MSTORE PUSH1 0x20 PUSH1 0x4 DUP3 ADD MSTORE PUSH1 0x5C PUSH1 0x24 DUP3 ADD MSTORE PUSH32 0x74686520616D6F756E74206F6620736861726573206578636565642074686520 PUSH1 0x44 DUP3 ADD MSTORE PUSH32 0x31303025206F662074686520496E6865726974616E63652C2074727920776974 PUSH1 0x64 DUP3 ADD MSTORE PUSH32 0x68206120736D616C6C657220616D6F756E74206F662073686172652E00000000 PUSH1 0x84 DUP3 ADD MSTORE PUSH1 0xA4 ADD PUSH2 0x5A0 JUMP JUMPDEST PUSH1 0x40 DUP1 MLOAD PUSH1 0xA0 DUP2 ADD DUP3 MSTORE PUSH1 0x1 PUSH1 0x1 PUSH1 0xA0 SHL SUB DUP9 DUP2 AND DUP3 MSTORE PUSH1 0x20 DUP1 DUP4 ADD DUP10 DUP2 MSTORE PUSH1 0x0 SWAP5 DUP5 ADD DUP6 DUP2 MSTORE PUSH1 0x60 DUP1 DUP7 ADD DUP8 DUP2 MSTORE PUSH1 0x80 DUP8 ADD DUP3 DUP2 MSTORE PUSH1 0x4 DUP1 SLOAD PUSH1 0x1 DUP2 ADD DUP3 SSTORE SWAP10 MSTORE DUP8 MLOAD PUSH32 0x8A35ACFBC15FF81A39AE7D344FD709F28E8600B4AA8C65C6B64BFE7FE36BD19B PUSH1 0x5 SWAP1 SWAP11 MUL SWAP10 DUP11 ADD DUP1 SLOAD PUSH1 0x1 PUSH1 0x1 PUSH1 0xA0 SHL SUB NOT AND SWAP2 SWAP1 SWAP9 AND OR DUP8 SSTORE SWAP4 MLOAD PUSH32 0x8A35ACFBC15FF81A39AE7D344FD709F28E8600B4AA8C65C6B64BFE7FE36BD19C DUP10 ADD SSTORE SWAP2 MLOAD PUSH32 0x8A35ACFBC15FF81A39AE7D344FD709F28E8600B4AA8C65C6B64BFE7FE36BD19D DUP9 ADD SSTORE SWAP1 MLOAD PUSH32 0x8A35ACFBC15FF81A39AE7D344FD709F28E8600B4AA8C65C6B64BFE7FE36BD19E DUP8 ADD SSTORE SWAP1 MLOAD DUP1 MLOAD SWAP2 SWAP6 PUSH2 0xFFA SWAP4 PUSH32 0x8A35ACFBC15FF81A39AE7D344FD709F28E8600B4AA8C65C6B64BFE7FE36BD19F SWAP1 SWAP2 ADD SWAP3 SWAP2 ADD SWAP1 PUSH2 0x206A JUMP JUMPDEST POP POP POP PUSH2 0x1006 DUP9 PUSH2 0x1F76 JUMP JUMPDEST PUSH1 0x5 SLOAD PUSH1 0x4 SLOAD PUSH1 0x40 DUP1 MLOAD PUSH1 0x80 DUP1 DUP3 MSTORE PUSH1 0x26 SWAP1 DUP3 ADD MSTORE PUSH32 0x41646D696E6973747261746F722061636365707473207573657220617320616E PUSH1 0xA0 DUP3 ADD MSTORE PUSH6 0x103432B4B917 PUSH1 0xD1 SHL PUSH1 0xC0 DUP3 ADD MSTORE PUSH1 0x20 DUP2 ADD DUP11 SWAP1 MSTORE SWAP1 DUP2 ADD SWAP3 SWAP1 SWAP3 MSTORE PUSH1 0x60 DUP3 ADD MSTORE PUSH1 0x1 PUSH1 0x1 PUSH1 0xA0 SHL SUB DUP9 AND SWAP1 PUSH32 0x14AA904C12FA948B33E901E688A79D46FE3D46A383A5B181C26475CEC40D67EC SWAP1 PUSH1 0xE0 ADD PUSH1 0x40 MLOAD DUP1 SWAP2 SUB SWAP1 LOG2 POP POP POP POP POP POP POP POP JUMP JUMPDEST CALLER PUSH1 0x0 DUP1 JUMPDEST PUSH1 0x4 SLOAD DUP2 LT ISZERO PUSH2 0x1107 JUMPI DUP3 PUSH1 0x1 PUSH1 0x1 PUSH1 0xA0 SHL SUB AND PUSH1 0x4 DUP3 DUP2 SLOAD DUP2 LT PUSH2 0x10D1 JUMPI PUSH2 0x10D1 PUSH2 0x22E4 JUMP JUMPDEST PUSH1 0x0 SWAP2 DUP3 MSTORE PUSH1 0x20 SWAP1 SWAP2 KECCAK256 PUSH1 0x5 SWAP1 SWAP2 MUL ADD SLOAD PUSH1 0x1 PUSH1 0x1 PUSH1 0xA0 SHL SUB AND SUB PUSH2 0x10F5 JUMPI PUSH1 0x1 SWAP2 POP JUMPDEST DUP1 PUSH2 0x10FF DUP2 PUSH2 0x22FA JUMP JUMPDEST SWAP2 POP POP PUSH2 0x10AA JUMP JUMPDEST POP PUSH1 0x1 DUP2 ISZERO ISZERO EQ PUSH2 0x1176 JUMPI PUSH1 0x40 MLOAD PUSH3 0x461BCD PUSH1 0xE5 SHL DUP2 MSTORE PUSH1 0x20 PUSH1 0x4 DUP3 ADD MSTORE PUSH1 0x33 PUSH1 0x24 DUP3 ADD MSTORE PUSH32 0x546865206164647265737320636C61696D696E672074686520696E6865726974 PUSH1 0x44 DUP3 ADD MSTORE PUSH19 0x30B731B29034B9903737BA1030902432B4B917 PUSH1 0x69 SHL PUSH1 0x64 DUP3 ADD MSTORE PUSH1 0x84 ADD PUSH2 0x5A0 JUMP JUMPDEST PUSH2 0x117E PUSH2 0x4C3 JUMP JUMPDEST ISZERO PUSH2 0x626 JUMPI PUSH1 0x0 PUSH2 0x118D PUSH2 0x708 JUMP JUMPDEST SWAP1 POP SELFBALANCE PUSH1 0x0 PUSH2 0x119A PUSH2 0x17A4 JUMP JUMPDEST SWAP1 POP PUSH1 0x0 JUMPDEST PUSH1 0x4 SLOAD DUP2 LT ISZERO PUSH2 0x12B6 JUMPI DUP2 DUP5 PUSH1 0x4 DUP4 DUP2 SLOAD DUP2 LT PUSH2 0x11BE JUMPI PUSH2 0x11BE PUSH2 0x22E4 JUMP JUMPDEST SWAP1 PUSH1 0x0 MSTORE PUSH1 0x20 PUSH1 0x0 KECCAK256 SWAP1 PUSH1 0x5 MUL ADD PUSH1 0x1 ADD SLOAD PUSH2 0x11DA SWAP2 SWAP1 PUSH2 0x240B JUMP JUMPDEST PUSH2 0x11E4 SWAP2 SWAP1 PUSH2 0x2422 JUMP JUMPDEST PUSH1 0x6 PUSH1 0x0 PUSH1 0x4 DUP5 DUP2 SLOAD DUP2 LT PUSH2 0x11FB JUMPI PUSH2 0x11FB PUSH2 0x22E4 JUMP JUMPDEST PUSH1 0x0 SWAP2 DUP3 MSTORE PUSH1 0x20 DUP1 DUP4 KECCAK256 PUSH1 0x5 SWAP1 SWAP3 MUL SWAP1 SWAP2 ADD SLOAD PUSH1 0x1 PUSH1 0x1 PUSH1 0xA0 SHL SUB AND DUP4 MSTORE DUP3 ADD SWAP3 SWAP1 SWAP3 MSTORE PUSH1 0x40 ADD SWAP1 KECCAK256 SSTORE PUSH1 0x4 DUP1 SLOAD DUP4 SWAP2 DUP6 SWAP2 DUP5 SWAP1 DUP2 LT PUSH2 0x123D JUMPI PUSH2 0x123D PUSH2 0x22E4 JUMP JUMPDEST SWAP1 PUSH1 0x0 MSTORE PUSH1 0x20 PUSH1 0x0 KECCAK256 SWAP1 PUSH1 0x5 MUL ADD PUSH1 0x1 ADD SLOAD PUSH2 0x1259 SWAP2 SWAP1 PUSH2 0x240B JUMP JUMPDEST PUSH2 0x1263 SWAP2 SWAP1 PUSH2 0x2422 JUMP JUMPDEST PUSH1 0x7 PUSH1 0x0 PUSH1 0x4 DUP5 DUP2 SLOAD DUP2 LT PUSH2 0x127A JUMPI PUSH2 0x127A PUSH2 0x22E4 JUMP JUMPDEST PUSH1 0x0 SWAP2 DUP3 MSTORE PUSH1 0x20 DUP1 DUP4 KECCAK256 PUSH1 0x5 SWAP1 SWAP3 MUL SWAP1 SWAP2 ADD SLOAD PUSH1 0x1 PUSH1 0x1 PUSH1 0xA0 SHL SUB AND DUP4 MSTORE DUP3 ADD SWAP3 SWAP1 SWAP3 MSTORE PUSH1 0x40 ADD SWAP1 KECCAK256 SSTORE DUP1 PUSH2 0x12AE DUP2 PUSH2 0x22FA JUMP JUMPDEST SWAP2 POP POP PUSH2 0x119F JUMP JUMPDEST POP PUSH1 0x0 DUP1 JUMPDEST PUSH1 0x4 SLOAD DUP2 LT ISZERO PUSH2 0x1627 JUMPI PUSH1 0x4 DUP2 DUP2 SLOAD DUP2 LT PUSH2 0x12D8 JUMPI PUSH2 0x12D8 PUSH2 0x22E4 JUMP JUMPDEST PUSH1 0x0 SWAP2 DUP3 MSTORE PUSH1 0x20 DUP1 DUP4 KECCAK256 PUSH1 0x5 SWAP1 SWAP3 MUL SWAP1 SWAP2 ADD SLOAD PUSH1 0x1 PUSH1 0x1 PUSH1 0xA0 SHL SUB AND DUP1 DUP4 MSTORE PUSH1 0x7 SWAP1 SWAP2 MSTORE PUSH1 0x40 DUP1 DUP4 KECCAK256 SLOAD SWAP1 MLOAD SWAP2 SWAP5 POP DUP5 SWAP3 DUP2 ISZERO PUSH2 0x8FC MUL SWAP3 SWAP1 DUP2 DUP2 DUP2 DUP6 DUP9 DUP9 CALL SWAP4 POP POP POP POP ISZERO DUP1 ISZERO PUSH2 0x132E JUMPI RETURNDATASIZE PUSH1 0x0 DUP1 RETURNDATACOPY RETURNDATASIZE PUSH1 0x0 REVERT JUMPDEST POP PUSH1 0x1 PUSH1 0x1 PUSH1 0xA0 SHL SUB DUP3 AND PUSH1 0x0 SWAP1 DUP2 MSTORE PUSH1 0x7 PUSH1 0x20 MSTORE PUSH1 0x40 SWAP1 KECCAK256 SLOAD PUSH1 0x4 DUP1 SLOAD DUP4 SWAP1 DUP2 LT PUSH2 0x135C JUMPI PUSH2 0x135C PUSH2 0x22E4 JUMP JUMPDEST PUSH1 0x0 SWAP2 DUP3 MSTORE PUSH1 0x20 DUP1 DUP4 KECCAK256 PUSH1 0x5 SWAP3 SWAP1 SWAP3 MUL SWAP1 SWAP2 ADD PUSH1 0x2 ADD SWAP3 SWAP1 SWAP3 SSTORE PUSH1 0x9 SLOAD PUSH1 0x1 PUSH1 0x1 PUSH1 0xA0 SHL SUB DUP6 DUP2 AND DUP1 DUP5 MSTORE PUSH1 0x6 SWAP1 SWAP5 MSTORE PUSH1 0x40 SWAP3 DUP4 SWAP1 KECCAK256 SLOAD SWAP3 MLOAD PUSH4 0xA9059CBB PUSH1 0xE0 SHL DUP2 MSTORE PUSH1 0x4 DUP2 ADD SWAP5 SWAP1 SWAP5 MSTORE PUSH1 0x24 DUP5 ADD SWAP3 SWAP1 SWAP3 MSTORE AND SWAP1 PUSH4 0xA9059CBB SWAP1 PUSH1 0x44 ADD PUSH1 0x20 PUSH1 0x40 MLOAD DUP1 DUP4 SUB DUP2 PUSH1 0x0 DUP8 GAS CALL ISZERO DUP1 ISZERO PUSH2 0x13D9 JUMPI RETURNDATASIZE PUSH1 0x0 DUP1 RETURNDATACOPY RETURNDATASIZE PUSH1 0x0 REVERT JUMPDEST POP POP POP POP PUSH1 0x40 MLOAD RETURNDATASIZE PUSH1 0x1F NOT PUSH1 0x1F DUP3 ADD AND DUP3 ADD DUP1 PUSH1 0x40 MSTORE POP DUP2 ADD SWAP1 PUSH2 0x13FD SWAP2 SWAP1 PUSH2 0x2444 JUMP JUMPDEST PUSH2 0x146F JUMPI PUSH1 0x40 MLOAD PUSH3 0x461BCD PUSH1 0xE5 SHL DUP2 MSTORE PUSH1 0x20 PUSH1 0x4 DUP3 ADD MSTORE PUSH1 0x38 PUSH1 0x24 DUP3 ADD MSTORE PUSH32 0x4572726F72207768696C65207472616E7366657272696E672055534443206672 PUSH1 0x44 DUP3 ADD MSTORE PUSH32 0x6F6D2074686520636F6E747261637420746F20686569722E0000000000000000 PUSH1 0x64 DUP3 ADD MSTORE PUSH1 0x84 ADD PUSH2 0x5A0 JUMP JUMPDEST PUSH1 0x1 PUSH1 0x1 PUSH1 0xA0 SHL SUB DUP3 AND PUSH1 0x0 SWAP1 DUP2 MSTORE PUSH1 0x6 PUSH1 0x20 MSTORE PUSH1 0x40 SWAP1 KECCAK256 SLOAD PUSH1 0x4 DUP1 SLOAD DUP4 SWAP1 DUP2 LT PUSH2 0x149C JUMPI PUSH2 0x149C PUSH2 0x22E4 JUMP JUMPDEST SWAP1 PUSH1 0x0 MSTORE PUSH1 0x20 PUSH1 0x0 KECCAK256 SWAP1 PUSH1 0x5 MUL ADD PUSH1 0x3 ADD DUP2 SWAP1 SSTORE POP DUP2 PUSH1 0x1 PUSH1 0x1 PUSH1 0xA0 SHL SUB AND PUSH32 0x34E2B4EFDA0968BD3C419ECD901876F712F93CD5FDA9303AB16021C3535F5593 PUSH1 0x4 DUP4 DUP2 SLOAD DUP2 LT PUSH2 0x14EF JUMPI PUSH2 0x14EF PUSH2 0x22E4 JUMP JUMPDEST SWAP1 PUSH1 0x0 MSTORE PUSH1 0x20 PUSH1 0x0 KECCAK256 SWAP1 PUSH1 0x5 MUL ADD PUSH1 0x1 ADD SLOAD PUSH1 0x7 PUSH1 0x0 DUP7 PUSH1 0x1 PUSH1 0x1 PUSH1 0xA0 SHL SUB AND PUSH1 0x1 PUSH1 0x1 PUSH1 0xA0 SHL SUB AND DUP2 MSTORE PUSH1 0x20 ADD SWAP1 DUP2 MSTORE PUSH1 0x20 ADD PUSH1 0x0 KECCAK256 SLOAD PUSH1 0x4 DUP6 DUP2 SLOAD DUP2 LT PUSH2 0x153A JUMPI PUSH2 0x153A PUSH2 0x22E4 JUMP JUMPDEST SWAP1 PUSH1 0x0 MSTORE PUSH1 0x20 PUSH1 0x0 KECCAK256 SWAP1 PUSH1 0x5 MUL ADD PUSH1 0x2 ADD SLOAD PUSH1 0x6 PUSH1 0x0 DUP9 PUSH1 0x1 PUSH1 0x1 PUSH1 0xA0 SHL SUB AND PUSH1 0x1 PUSH1 0x1 PUSH1 0xA0 SHL SUB AND DUP2 MSTORE PUSH1 0x20 ADD SWAP1 DUP2 MSTORE PUSH1 0x20 ADD PUSH1 0x0 KECCAK256 SLOAD PUSH1 0x4 DUP8 DUP2 SLOAD DUP2 LT PUSH2 0x1585 JUMPI PUSH2 0x1585 PUSH2 0x22E4 JUMP JUMPDEST SWAP1 PUSH1 0x0 MSTORE PUSH1 0x20 PUSH1 0x0 KECCAK256 SWAP1 PUSH1 0x5 MUL ADD PUSH1 0x3 ADD SLOAD PUSH1 0x40 MLOAD PUSH2 0x160D SWAP6 SWAP5 SWAP4 SWAP3 SWAP2 SWAP1 PUSH1 0xC0 DUP1 DUP3 MSTORE PUSH1 0x26 SWAP1 DUP3 ADD MSTORE PUSH32 0x457468657220616E642055534443206D6F6E65792073656E7420746F20746865 PUSH1 0xE0 DUP3 ADD MSTORE PUSH6 0x103432B4B917 PUSH1 0xD1 SHL PUSH2 0x100 DUP3 ADD MSTORE PUSH1 0x20 DUP2 ADD SWAP6 SWAP1 SWAP6 MSTORE PUSH1 0x40 DUP6 ADD SWAP4 SWAP1 SWAP4 MSTORE PUSH1 0x60 DUP5 ADD SWAP2 SWAP1 SWAP2 MSTORE PUSH1 0x80 DUP4 ADD MSTORE PUSH1 0xA0 DUP3 ADD MSTORE PUSH2 0x120 ADD SWAP1 JUMP JUMPDEST PUSH1 0x40 MLOAD DUP1 SWAP2 SUB SWAP1 LOG2 DUP1 PUSH2 0x161F DUP2 PUSH2 0x22FA JUMP JUMPDEST SWAP2 POP POP PUSH2 0x12BB JUMP JUMPDEST POP POP POP POP POP POP POP JUMP JUMPDEST PUSH1 0x0 PUSH2 0x163A PUSH2 0x1D54 JUMP JUMPDEST POP PUSH1 0x3 SLOAD SWAP1 JUMP JUMPDEST PUSH2 0x1649 PUSH2 0x1D54 JUMP JUMPDEST TIMESTAMP PUSH1 0x2 DUP2 SWAP1 SSTORE PUSH1 0x3 SLOAD PUSH1 0x40 DUP1 MLOAD PUSH1 0x80 DUP1 DUP3 MSTORE PUSH1 0x31 SWAP1 DUP3 ADD MSTORE PUSH32 0x41646D696E6973747261746F722073656E64732061207369676E616C20746F20 PUSH1 0xA0 DUP3 ADD MSTORE PUSH17 0x39B437BB9034329034B99030B634BB3297 PUSH1 0x79 SHL PUSH1 0xC0 DUP3 ADD MSTORE PUSH1 0x20 DUP2 ADD DUP5 SWAP1 MSTORE SWAP1 DUP2 ADD SWAP3 SWAP1 SWAP3 MSTORE PUSH1 0x60 DUP3 ADD MSTORE CALLER SWAP1 PUSH32 0x5F1AA2875B7B1DF0CD72A6EE708C6AFF6432288001C47518BC91BE4599FDF6E6 SWAP1 PUSH1 0xE0 ADD PUSH1 0x40 MLOAD DUP1 SWAP2 SUB SWAP1 LOG2 JUMP JUMPDEST PUSH1 0x1 SLOAD PUSH1 0x40 DUP1 MLOAD PUSH1 0x80 DUP1 DUP3 MSTORE PUSH1 0x4F SWAP1 DUP3 ADD MSTORE PUSH32 0x4C6F6720616C6C207468652076616C7565733A2041646D696E6973747261746F PUSH1 0xA0 DUP3 ADD MSTORE PUSH32 0x7220616464726573732C20416D6F756E742073656E742C20436F6E7472616374 PUSH1 0xC0 DUP3 ADD MSTORE PUSH15 0x1032BA3432B9103130B630B731B297 PUSH1 0x89 SHL PUSH1 0xE0 DUP3 ADD MSTORE PUSH1 0x1 PUSH1 0x1 PUSH1 0xA0 SHL SUB SWAP1 SWAP3 AND PUSH1 0x20 DUP4 ADD MSTORE CALLVALUE DUP3 DUP3 ADD MSTORE SELFBALANCE PUSH1 0x60 DUP4 ADD MSTORE MLOAD PUSH32 0xE329D93CFDA1BD6EAD1003E3AE53461617C8D120014DFAEA03D2FB42EC55B07 SWAP2 DUP2 SWAP1 SUB PUSH2 0x100 ADD SWAP1 LOG1 JUMP JUMPDEST PUSH1 0x0 DUP1 DUP1 JUMPDEST PUSH1 0x4 SLOAD DUP2 LT ISZERO PUSH2 0x702 JUMPI PUSH1 0x4 DUP2 DUP2 SLOAD DUP2 LT PUSH2 0x17C6 JUMPI PUSH2 0x17C6 PUSH2 0x22E4 JUMP JUMPDEST SWAP1 PUSH1 0x0 MSTORE PUSH1 0x20 PUSH1 0x0 KECCAK256 SWAP1 PUSH1 0x5 MUL ADD PUSH1 0x1 ADD SLOAD DUP3 PUSH2 0x17E3 SWAP2 SWAP1 PUSH2 0x23F8 JUMP JUMPDEST SWAP2 POP DUP1 PUSH2 0x17EF DUP2 PUSH2 0x22FA JUMP JUMPDEST SWAP2 POP POP PUSH2 0x17A9 JUMP JUMPDEST PUSH2 0x17FF PUSH2 0x1D54 JUMP JUMPDEST PUSH1 0x0 DUP2 DUP2 MSTORE PUSH1 0x8 PUSH1 0x20 MSTORE PUSH1 0x40 SWAP1 KECCAK256 SLOAD PUSH1 0x1 PUSH1 0x1 PUSH1 0xA0 SHL SUB AND DUP1 PUSH2 0x1864 JUMPI PUSH1 0x40 MLOAD PUSH3 0x461BCD PUSH1 0xE5 SHL DUP2 MSTORE PUSH1 0x20 PUSH1 0x4 DUP3 ADD MSTORE PUSH1 0x1F PUSH1 0x24 DUP3 ADD MSTORE PUSH32 0x546F6B656E206E6F742061737369676E656420746F20616E7920686569722E00 PUSH1 0x44 DUP3 ADD MSTORE PUSH1 0x64 ADD PUSH2 0x5A0 JUMP JUMPDEST PUSH1 0x0 JUMPDEST PUSH1 0x4 SLOAD DUP2 LT ISZERO PUSH2 0x190C JUMPI DUP2 PUSH1 0x1 PUSH1 0x1 PUSH1 0xA0 SHL SUB AND PUSH1 0x4 DUP3 DUP2 SLOAD DUP2 LT PUSH2 0x188E JUMPI PUSH2 0x188E PUSH2 0x22E4 JUMP JUMPDEST PUSH1 0x0 SWAP2 DUP3 MSTORE PUSH1 0x20 SWAP1 SWAP2 KECCAK256 PUSH1 0x5 SWAP1 SWAP2 MUL ADD SLOAD PUSH1 0x1 PUSH1 0x1 PUSH1 0xA0 SHL SUB AND SUB PUSH2 0x18FA JUMPI PUSH1 0x0 PUSH2 0x18DC PUSH1 0x4 DUP4 DUP2 SLOAD DUP2 LT PUSH2 0x18C5 JUMPI PUSH2 0x18C5 PUSH2 0x22E4 JUMP JUMPDEST SWAP1 PUSH1 0x0 MSTORE PUSH1 0x20 PUSH1 0x0 KECCAK256 SWAP1 PUSH1 0x5 MUL ADD PUSH1 0x4 ADD DUP6 PUSH2 0x1DAE JUMP JUMPDEST SWAP1 POP PUSH2 0x18F4 PUSH1 0x4 DUP4 DUP2 SLOAD DUP2 LT PUSH2 0x910 JUMPI PUSH2 0x910 PUSH2 0x22E4 JUMP JUMPDEST POP PUSH2 0x190C JUMP JUMPDEST DUP1 PUSH2 0x1904 DUP2 PUSH2 0x22FA JUMP JUMPDEST SWAP2 POP POP PUSH2 0x1867 JUMP JUMPDEST POP POP PUSH1 0x0 SWAP1 DUP2 MSTORE PUSH1 0x8 PUSH1 0x20 MSTORE PUSH1 0x40 SWAP1 KECCAK256 DUP1 SLOAD PUSH1 0x1 PUSH1 0x1 PUSH1 0xA0 SHL SUB NOT AND SWAP1 SSTORE JUMP JUMPDEST PUSH2 0x1934 PUSH2 0x1D54 JUMP JUMPDEST PUSH1 0x0 DUP2 GT PUSH2 0x197F JUMPI PUSH1 0x40 MLOAD PUSH3 0x461BCD PUSH1 0xE5 SHL DUP2 MSTORE PUSH1 0x20 PUSH1 0x4 DUP3 ADD MSTORE PUSH1 0x18 PUSH1 0x24 DUP3 ADD MSTORE PUSH24 0x20B6B7BAB73A1036BAB9BA103132903837B9B4BA34BB3297 PUSH1 0x41 SHL PUSH1 0x44 DUP3 ADD MSTORE PUSH1 0x64 ADD PUSH2 0x5A0 JUMP JUMPDEST PUSH2 0x1987 PUSH2 0x708 JUMP JUMPDEST DUP2 GT ISZERO PUSH2 0x19D6 JUMPI PUSH1 0x40 MLOAD PUSH3 0x461BCD PUSH1 0xE5 SHL DUP2 MSTORE PUSH1 0x20 PUSH1 0x4 DUP3 ADD MSTORE PUSH1 0x18 PUSH1 0x24 DUP3 ADD MSTORE PUSH32 0x4E6F7420656E6F75676820555344432062616C616E63652E0000000000000000 PUSH1 0x44 DUP3 ADD MSTORE PUSH1 0x64 ADD PUSH2 0x5A0 JUMP JUMPDEST PUSH1 0x9 SLOAD PUSH1 0x40 MLOAD PUSH4 0xA9059CBB PUSH1 0xE0 SHL DUP2 MSTORE CALLER PUSH1 0x4 DUP3 ADD MSTORE PUSH1 0x24 DUP2 ADD DUP4 SWAP1 MSTORE PUSH1 0x1 PUSH1 0x1 PUSH1 0xA0 SHL SUB SWAP1 SWAP2 AND SWAP1 PUSH4 0xA9059CBB SWAP1 PUSH1 0x44 ADD PUSH1 0x20 PUSH1 0x40 MLOAD DUP1 DUP4 SUB DUP2 PUSH1 0x0 DUP8 GAS CALL ISZERO DUP1 ISZERO PUSH2 0x1A27 JUMPI RETURNDATASIZE PUSH1 0x0 DUP1 RETURNDATACOPY RETURNDATASIZE PUSH1 0x0 REVERT JUMPDEST POP POP POP POP PUSH1 0x40 MLOAD RETURNDATASIZE PUSH1 0x1F NOT PUSH1 0x1F DUP3 ADD AND DUP3 ADD DUP1 PUSH1 0x40 MSTORE POP DUP2 ADD SWAP1 PUSH2 0x1A4B SWAP2 SWAP1 PUSH2 0x2444 JUMP JUMPDEST PUSH2 0x1ACB JUMPI PUSH1 0x40 MLOAD PUSH3 0x461BCD PUSH1 0xE5 SHL DUP2 MSTORE PUSH1 0x20 PUSH1 0x4 DUP3 ADD MSTORE PUSH1 0x45 PUSH1 0x24 DUP3 ADD MSTORE PUSH32 0x4572726F72207768696C65207472616E7366657272696E672055534443206672 PUSH1 0x44 DUP3 ADD MSTORE PUSH32 0x6F6D2074686520636F6E747261637420746F207468652061646D696E69737472 PUSH1 0x64 DUP3 ADD MSTORE PUSH5 0x30BA37B917 PUSH1 0xD9 SHL PUSH1 0x84 DUP3 ADD MSTORE PUSH1 0xA4 ADD PUSH2 0x5A0 JUMP JUMPDEST POP JUMP JUMPDEST PUSH2 0x1AD6 PUSH2 0x1D54 JUMP JUMPDEST PUSH1 0x3 SSTORE JUMP JUMPDEST PUSH2 0x1AE3 PUSH2 0x1D54 JUMP JUMPDEST PUSH1 0x5 SLOAD DUP3 SWAP1 DUP3 SWAP1 DUP3 LT PUSH2 0x1B08 JUMPI PUSH1 0x40 MLOAD PUSH3 0x461BCD PUSH1 0xE5 SHL DUP2 MSTORE PUSH1 0x4 ADD PUSH2 0x5A0 SWAP1 PUSH2 0x232C JUMP JUMPDEST DUP1 PUSH1 0x1 PUSH1 0x1 PUSH1 0xA0 SHL SUB AND PUSH1 0x5 DUP4 DUP2 SLOAD DUP2 LT PUSH2 0x1B25 JUMPI PUSH2 0x1B25 PUSH2 0x22E4 JUMP JUMPDEST PUSH1 0x0 SWAP2 DUP3 MSTORE PUSH1 0x20 SWAP1 SWAP2 KECCAK256 ADD SLOAD PUSH1 0x1 PUSH1 0x1 PUSH1 0xA0 SHL SUB AND EQ PUSH2 0x1B57 JUMPI PUSH1 0x40 MLOAD PUSH3 0x461BCD PUSH1 0xE5 SHL DUP2 MSTORE PUSH1 0x4 ADD PUSH2 0x5A0 SWAP1 PUSH2 0x2389 JUMP JUMPDEST PUSH2 0x1B60 DUP5 PUSH2 0x1F76 JUMP JUMPDEST PUSH1 0x5 SLOAD PUSH1 0x4 SLOAD PUSH1 0x40 DUP1 MLOAD PUSH1 0x60 DUP1 DUP3 MSTORE PUSH1 0x33 SWAP1 DUP3 ADD MSTORE PUSH32 0x41646D696E6973747261746F722072656A656374732075736572277320726571 PUSH1 0x80 DUP3 ADD MSTORE PUSH19 0x3AB2B9BA103A379031329030B7103432B4B917 PUSH1 0x69 SHL PUSH1 0xA0 DUP3 ADD MSTORE PUSH1 0x20 DUP2 ADD SWAP4 SWAP1 SWAP4 MSTORE DUP3 ADD MSTORE PUSH1 0x1 PUSH1 0x1 PUSH1 0xA0 SHL SUB DUP5 AND SWAP1 PUSH32 0x5541B3BB46C30EE5AEA95B57D7A1D3949DA67BA8E09C865DA2318F2FB273857 SWAP1 PUSH1 0xC0 ADD PUSH1 0x40 MLOAD DUP1 SWAP2 SUB SWAP1 LOG2 POP POP POP POP JUMP JUMPDEST PUSH2 0x1C08 PUSH2 0x1D54 JUMP JUMPDEST PUSH1 0x1 PUSH1 0x1 PUSH1 0xA0 SHL SUB DUP2 AND PUSH2 0x1C6D JUMPI PUSH1 0x40 MLOAD PUSH3 0x461BCD PUSH1 0xE5 SHL DUP2 MSTORE PUSH1 0x20 PUSH1 0x4 DUP3 ADD MSTORE PUSH1 0x26 PUSH1 0x24 DUP3 ADD MSTORE PUSH32 0x4F776E61626C653A206E6577206F776E657220697320746865207A65726F2061 PUSH1 0x44 DUP3 ADD MSTORE PUSH6 0x646472657373 PUSH1 0xD0 SHL PUSH1 0x64 DUP3 ADD MSTORE PUSH1 0x84 ADD PUSH2 0x5A0 JUMP JUMPDEST PUSH2 0x1ACB DUP2 PUSH2 0x1F26 JUMP JUMPDEST PUSH1 0x4 SLOAD PUSH1 0x60 SWAP1 PUSH1 0x0 SWAP1 PUSH8 0xFFFFFFFFFFFFFFFF DUP2 GT ISZERO PUSH2 0x1C97 JUMPI PUSH2 0x1C97 PUSH2 0x2466 JUMP JUMPDEST PUSH1 0x40 MLOAD SWAP1 DUP1 DUP3 MSTORE DUP1 PUSH1 0x20 MUL PUSH1 0x20 ADD DUP3 ADD PUSH1 0x40 MSTORE DUP1 ISZERO PUSH2 0x1CC0 JUMPI DUP2 PUSH1 0x20 ADD PUSH1 0x20 DUP3 MUL DUP1 CALLDATASIZE DUP4 CALLDATACOPY ADD SWAP1 POP JUMPDEST POP SWAP1 POP PUSH1 0x0 DUP1 JUMPDEST PUSH1 0x4 SLOAD DUP2 LT ISZERO PUSH2 0x1D4C JUMPI PUSH1 0x4 DUP2 DUP2 SLOAD DUP2 LT PUSH2 0x1CE4 JUMPI PUSH2 0x1CE4 PUSH2 0x22E4 JUMP JUMPDEST PUSH1 0x0 SWAP2 DUP3 MSTORE PUSH1 0x20 SWAP1 SWAP2 KECCAK256 PUSH1 0x5 SWAP1 SWAP2 MUL ADD SLOAD DUP4 MLOAD PUSH1 0x1 PUSH1 0x1 PUSH1 0xA0 SHL SUB SWAP1 SWAP2 AND SWAP1 DUP5 SWAP1 DUP5 SWAP1 DUP2 LT PUSH2 0x1D15 JUMPI PUSH2 0x1D15 PUSH2 0x22E4 JUMP JUMPDEST PUSH1 0x1 PUSH1 0x1 PUSH1 0xA0 SHL SUB SWAP1 SWAP3 AND PUSH1 0x20 SWAP3 DUP4 MUL SWAP2 SWAP1 SWAP2 ADD SWAP1 SWAP2 ADD MSTORE PUSH2 0x1D38 PUSH1 0x1 DUP4 PUSH2 0x23F8 JUMP JUMPDEST SWAP2 POP DUP1 PUSH2 0x1D44 DUP2 PUSH2 0x22FA JUMP JUMPDEST SWAP2 POP POP PUSH2 0x1CC7 JUMP JUMPDEST POP SWAP1 SWAP3 SWAP2 POP POP JUMP JUMPDEST PUSH1 0x0 SLOAD PUSH1 0x1 PUSH1 0x1 PUSH1 0xA0 SHL SUB AND CALLER EQ PUSH2 0xCC5 JUMPI PUSH1 0x40 MLOAD PUSH3 0x461BCD PUSH1 0xE5 SHL DUP2 MSTORE PUSH1 0x20 PUSH1 0x4 DUP3 ADD DUP2 SWAP1 MSTORE PUSH1 0x24 DUP3 ADD MSTORE PUSH32 0x4F776E61626C653A2063616C6C6572206973206E6F7420746865206F776E6572 PUSH1 0x44 DUP3 ADD MSTORE PUSH1 0x64 ADD PUSH2 0x5A0 JUMP JUMPDEST PUSH1 0x0 DUP1 JUMPDEST DUP4 SLOAD DUP2 LT ISZERO PUSH2 0x1DF7 JUMPI DUP3 DUP5 DUP3 DUP2 SLOAD DUP2 LT PUSH2 0x1DCE JUMPI PUSH2 0x1DCE PUSH2 0x22E4 JUMP JUMPDEST SWAP1 PUSH1 0x0 MSTORE PUSH1 0x20 PUSH1 0x0 KECCAK256 ADD SLOAD SUB PUSH2 0x1DE5 JUMPI SWAP1 POP PUSH2 0x1E40 JUMP JUMPDEST DUP1 PUSH2 0x1DEF DUP2 PUSH2 0x22FA JUMP JUMPDEST SWAP2 POP POP PUSH2 0x1DB2 JUMP JUMPDEST POP PUSH1 0x40 MLOAD PUSH3 0x461BCD PUSH1 0xE5 SHL DUP2 MSTORE PUSH1 0x20 PUSH1 0x4 DUP3 ADD MSTORE PUSH1 0x19 PUSH1 0x24 DUP3 ADD MSTORE PUSH32 0x546F6B656E206E6F7420666F756E6420696E2061727261792E00000000000000 PUSH1 0x44 DUP3 ADD MSTORE PUSH1 0x64 ADD PUSH2 0x5A0 JUMP JUMPDEST SWAP3 SWAP2 POP POP JUMP JUMPDEST DUP2 SLOAD DUP2 LT PUSH2 0x1E8D JUMPI PUSH1 0x40 MLOAD PUSH3 0x461BCD PUSH1 0xE5 SHL DUP2 MSTORE PUSH1 0x20 PUSH1 0x4 DUP3 ADD MSTORE PUSH1 0x14 PUSH1 0x24 DUP3 ADD MSTORE PUSH20 0x24B73232BC1037BABA1037B3103137BAB7323997 PUSH1 0x61 SHL PUSH1 0x44 DUP3 ADD MSTORE PUSH1 0x64 ADD PUSH2 0x5A0 JUMP JUMPDEST DUP1 JUMPDEST DUP3 SLOAD PUSH2 0x1E9D SWAP1 PUSH1 0x1 SWAP1 PUSH2 0x22D1 JUMP JUMPDEST DUP2 LT ISZERO PUSH2 0x1EFB JUMPI DUP3 PUSH2 0x1EB0 DUP3 PUSH1 0x1 PUSH2 0x23F8 JUMP JUMPDEST DUP2 SLOAD DUP2 LT PUSH2 0x1EC0 JUMPI PUSH2 0x1EC0 PUSH2 0x22E4 JUMP JUMPDEST SWAP1 PUSH1 0x0 MSTORE PUSH1 0x20 PUSH1 0x0 KECCAK256 ADD SLOAD DUP4 DUP3 DUP2 SLOAD DUP2 LT PUSH2 0x1EDD JUMPI PUSH2 0x1EDD PUSH2 0x22E4 JUMP JUMPDEST PUSH1 0x0 SWAP2 DUP3 MSTORE PUSH1 0x20 SWAP1 SWAP2 KECCAK256 ADD SSTORE DUP1 PUSH2 0x1EF3 DUP2 PUSH2 0x22FA JUMP JUMPDEST SWAP2 POP POP PUSH2 0x1E8F JUMP JUMPDEST POP DUP2 DUP1 SLOAD DUP1 PUSH2 0x1F0C JUMPI PUSH2 0x1F0C PUSH2 0x247C JUMP JUMPDEST PUSH1 0x1 SWAP1 SUB DUP2 DUP2 SWAP1 PUSH1 0x0 MSTORE PUSH1 0x20 PUSH1 0x0 KECCAK256 ADD PUSH1 0x0 SWAP1 SSTORE SWAP1 SSTORE POP POP JUMP JUMPDEST PUSH1 0x0 DUP1 SLOAD PUSH1 0x1 PUSH1 0x1 PUSH1 0xA0 SHL SUB DUP4 DUP2 AND PUSH1 0x1 PUSH1 0x1 PUSH1 0xA0 SHL SUB NOT DUP4 AND DUP2 OR DUP5 SSTORE PUSH1 0x40 MLOAD SWAP2 SWAP1 SWAP3 AND SWAP3 DUP4 SWAP2 PUSH32 0x8BE0079C531659141344CD1FD0A4F28419497F9722A3DAAFE3B4186F6B6457E0 SWAP2 SWAP1 LOG3 POP POP JUMP JUMPDEST PUSH1 0x5 SLOAD DUP2 LT PUSH2 0x1F97 JUMPI PUSH1 0x40 MLOAD PUSH3 0x461BCD PUSH1 0xE5 SHL DUP2 MSTORE PUSH1 0x4 ADD PUSH2 0x5A0 SWAP1 PUSH2 0x232C JUMP JUMPDEST DUP1 JUMPDEST PUSH1 0x5 SLOAD PUSH2 0x1FA8 SWAP1 PUSH1 0x1 SWAP1 PUSH2 0x22D1 JUMP JUMPDEST DUP2 LT ISZERO PUSH2 0x2033 JUMPI PUSH1 0x5 PUSH2 0x1FBC DUP3 PUSH1 0x1 PUSH2 0x23F8 JUMP JUMPDEST DUP2 SLOAD DUP2 LT PUSH2 0x1FCC JUMPI PUSH2 0x1FCC PUSH2 0x22E4 JUMP JUMPDEST PUSH1 0x0 SWAP2 DUP3 MSTORE PUSH1 0x20 SWAP1 SWAP2 KECCAK256 ADD SLOAD PUSH1 0x5 DUP1 SLOAD PUSH1 0x1 PUSH1 0x1 PUSH1 0xA0 SHL SUB SWAP1 SWAP3 AND SWAP2 DUP4 SWAP1 DUP2 LT PUSH2 0x1FF8 JUMPI PUSH2 0x1FF8 PUSH2 0x22E4 JUMP JUMPDEST PUSH1 0x0 SWAP2 DUP3 MSTORE PUSH1 0x20 SWAP1 SWAP2 KECCAK256 ADD DUP1 SLOAD PUSH1 0x1 PUSH1 0x1 PUSH1 0xA0 SHL SUB NOT AND PUSH1 0x1 PUSH1 0x1 PUSH1 0xA0 SHL SUB SWAP3 SWAP1 SWAP3 AND SWAP2 SWAP1 SWAP2 OR SWAP1 SSTORE DUP1 PUSH2 0x202B DUP2 PUSH2 0x22FA JUMP JUMPDEST SWAP2 POP POP PUSH2 0x1F99 JUMP JUMPDEST POP PUSH1 0x5 DUP1 SLOAD DUP1 PUSH2 0x2045 JUMPI PUSH2 0x2045 PUSH2 0x247C JUMP JUMPDEST PUSH1 0x0 DUP3 DUP2 MSTORE PUSH1 0x20 SWAP1 KECCAK256 DUP2 ADD PUSH1 0x0 NOT SWAP1 DUP2 ADD DUP1 SLOAD PUSH1 0x1 PUSH1 0x1 PUSH1 0xA0 SHL SUB NOT AND SWAP1 SSTORE ADD SWAP1 SSTORE POP JUMP JUMPDEST DUP3 DUP1 SLOAD DUP3 DUP3 SSTORE SWAP1 PUSH1 0x0 MSTORE PUSH1 0x20 PUSH1 0x0 KECCAK256 SWAP1 DUP2 ADD SWAP3 DUP3 ISZERO PUSH2 0x20A5 JUMPI SWAP2 PUSH1 0x20 MUL DUP3 ADD JUMPDEST DUP3 DUP2 GT ISZERO PUSH2 0x20A5 JUMPI DUP3 MLOAD DUP3 SSTORE SWAP2 PUSH1 0x20 ADD SWAP2 SWAP1 PUSH1 0x1 ADD SWAP1 PUSH2 0x208A JUMP JUMPDEST POP PUSH2 0x20B1 SWAP3 SWAP2 POP PUSH2 0x20B5 JUMP JUMPDEST POP SWAP1 JUMP JUMPDEST JUMPDEST DUP1 DUP3 GT ISZERO PUSH2 0x20B1 JUMPI PUSH1 0x0 DUP2 SSTORE PUSH1 0x1 ADD PUSH2 0x20B6 JUMP JUMPDEST PUSH1 0x20 DUP1 DUP3 MSTORE DUP3 MLOAD DUP3 DUP3 ADD DUP2 SWAP1 MSTORE PUSH1 0x0 SWAP2 SWAP1 DUP5 DUP3 ADD SWAP1 PUSH1 0x40 DUP6 ADD SWAP1 DUP5 JUMPDEST DUP2 DUP2 LT ISZERO PUSH2 0x210B JUMPI DUP4 MLOAD PUSH1 0x1 PUSH1 0x1 PUSH1 0xA0 SHL SUB AND DUP4 MSTORE SWAP3 DUP5 ADD SWAP3 SWAP2 DUP5 ADD SWAP2 PUSH1 0x1 ADD PUSH2 0x20E6 JUMP JUMPDEST POP SWAP1 SWAP7 SWAP6 POP POP POP POP POP POP JUMP JUMPDEST PUSH1 0x0 PUSH1 0x20 DUP3 DUP5 SUB SLT ISZERO PUSH2 0x2129 JUMPI PUSH1 0x0 DUP1 REVERT JUMPDEST POP CALLDATALOAD SWAP2 SWAP1 POP JUMP JUMPDEST DUP1 CALLDATALOAD PUSH1 0x1 PUSH1 0x1 PUSH1 0xA0 SHL SUB DUP2 AND DUP2 EQ PUSH2 0x2147 JUMPI PUSH1 0x0 DUP1 REVERT JUMPDEST SWAP2 SWAP1 POP JUMP JUMPDEST PUSH1 0x0 PUSH1 0x20 DUP3 DUP5 SUB SLT ISZERO PUSH2 0x215E JUMPI PUSH1 0x0 DUP1 REVERT JUMPDEST PUSH2 0x2167 DUP3 PUSH2 0x2130 JUMP JUMPDEST SWAP4 SWAP3 POP POP POP JUMP JUMPDEST PUSH1 0x0 DUP2 MLOAD DUP1 DUP5 MSTORE PUSH1 0x20 DUP1 DUP6 ADD SWAP5 POP DUP1 DUP5 ADD PUSH1 0x0 JUMPDEST DUP4 DUP2 LT ISZERO PUSH2 0x219E JUMPI DUP2 MLOAD DUP8 MSTORE SWAP6 DUP3 ADD SWAP6 SWAP1 DUP3 ADD SWAP1 PUSH1 0x1 ADD PUSH2 0x2182 JUMP JUMPDEST POP SWAP5 SWAP6 SWAP5 POP POP POP POP POP JUMP JUMPDEST PUSH1 0x20 DUP2 MSTORE PUSH1 0x0 PUSH2 0x2167 PUSH1 0x20 DUP4 ADD DUP5 PUSH2 0x216E JUMP JUMPDEST PUSH1 0x0 PUSH1 0x20 DUP1 DUP4 ADD DUP2 DUP5 MSTORE DUP1 DUP6 MLOAD DUP1 DUP4 MSTORE PUSH1 0x40 SWAP3 POP DUP3 DUP7 ADD SWAP2 POP DUP3 DUP2 PUSH1 0x5 SHL DUP8 ADD ADD DUP5 DUP9 ADD PUSH1 0x0 JUMPDEST DUP4 DUP2 LT ISZERO PUSH2 0x224C JUMPI DUP9 DUP4 SUB PUSH1 0x3F NOT ADD DUP6 MSTORE DUP2 MLOAD DUP1 MLOAD PUSH1 0x1 PUSH1 0x1 PUSH1 0xA0 SHL SUB AND DUP5 MSTORE DUP8 DUP2 ADD MLOAD DUP9 DUP6 ADD MSTORE DUP7 DUP2 ADD MLOAD DUP8 DUP6 ADD MSTORE PUSH1 0x60 DUP1 DUP3 ADD MLOAD SWAP1 DUP6 ADD MSTORE PUSH1 0x80 SWAP1 DUP2 ADD MLOAD PUSH1 0xA0 SWAP2 DUP6 ADD DUP3 SWAP1 MSTORE SWAP1 PUSH2 0x2238 DUP2 DUP7 ADD DUP4 PUSH2 0x216E JUMP JUMPDEST SWAP7 DUP10 ADD SWAP7 SWAP5 POP POP POP SWAP1 DUP7 ADD SWAP1 PUSH1 0x1 ADD PUSH2 0x21E3 JUMP JUMPDEST POP SWAP1 SWAP9 SWAP8 POP POP POP POP POP POP POP POP JUMP JUMPDEST PUSH1 0x0 DUP1 PUSH1 0x40 DUP4 DUP6 SUB SLT ISZERO PUSH2 0x226D JUMPI PUSH1 0x0 DUP1 REVERT JUMPDEST DUP3 CALLDATALOAD SWAP2 POP PUSH2 0x227D PUSH1 0x20 DUP5 ADD PUSH2 0x2130 JUMP JUMPDEST SWAP1 POP SWAP3 POP SWAP3 SWAP1 POP JUMP JUMPDEST PUSH1 0x0 DUP1 PUSH1 0x0 PUSH1 0x60 DUP5 DUP7 SUB SLT ISZERO PUSH2 0x229B JUMPI PUSH1 0x0 DUP1 REVERT JUMPDEST DUP4 CALLDATALOAD SWAP3 POP PUSH2 0x22AB PUSH1 0x20 DUP6 ADD PUSH2 0x2130 JUMP JUMPDEST SWAP2 POP PUSH1 0x40 DUP5 ADD CALLDATALOAD SWAP1 POP SWAP3 POP SWAP3 POP SWAP3 JUMP JUMPDEST PUSH4 0x4E487B71 PUSH1 0xE0 SHL PUSH1 0x0 MSTORE PUSH1 0x11 PUSH1 0x4 MSTORE PUSH1 0x24 PUSH1 0x0 REVERT JUMPDEST DUP2 DUP2 SUB DUP2 DUP2 GT ISZERO PUSH2 0x1E40 JUMPI PUSH2 0x1E40 PUSH2 0x22BB JUMP JUMPDEST PUSH4 0x4E487B71 PUSH1 0xE0 SHL PUSH1 0x0 MSTORE PUSH1 0x32 PUSH1 0x4 MSTORE PUSH1 0x24 PUSH1 0x0 REVERT JUMPDEST PUSH1 0x0 PUSH1 0x1 DUP3 ADD PUSH2 0x230C JUMPI PUSH2 0x230C PUSH2 0x22BB JUMP JUMPDEST POP PUSH1 0x1 ADD SWAP1 JUMP JUMPDEST PUSH1 0x0 PUSH1 0x20 DUP3 DUP5 SUB SLT ISZERO PUSH2 0x2325 JUMPI PUSH1 0x0 DUP1 REVERT JUMPDEST POP MLOAD SWAP2 SWAP1 POP JUMP JUMPDEST PUSH1 0x20 DUP1 DUP3 MSTORE PUSH1 0x38 SWAP1 DUP3 ADD MSTORE PUSH32 0x54686520696E6465782073656E7420697320626967676572207468616E207468 PUSH1 0x40 DUP3 ADD MSTORE PUSH32 0x65207265717565737473206172726179206C656E6774682E0000000000000000 PUSH1 0x60 DUP3 ADD MSTORE PUSH1 0x80 ADD SWAP1 JUMP JUMPDEST PUSH1 0x20 DUP1 DUP3 MSTORE PUSH1 0x49 SWAP1 DUP3 ADD MSTORE PUSH32 0x416464726573732073656E7420646F65736E2774206D61746368207769746820 PUSH1 0x40 DUP3 ADD MSTORE PUSH32 0x74686520616464726573732073746F72656420696E2074686520726571756573 PUSH1 0x60 DUP3 ADD MSTORE PUSH9 0x3A399030B93930BC97 PUSH1 0xB9 SHL PUSH1 0x80 DUP3 ADD MSTORE PUSH1 0xA0 ADD SWAP1 JUMP JUMPDEST DUP1 DUP3 ADD DUP1 DUP3 GT ISZERO PUSH2 0x1E40 JUMPI PUSH2 0x1E40 PUSH2 0x22BB JUMP JUMPDEST DUP1 DUP3 MUL DUP2 ISZERO DUP3 DUP3 DIV DUP5 EQ OR PUSH2 0x1E40 JUMPI PUSH2 0x1E40 PUSH2 0x22BB JUMP JUMPDEST PUSH1 0x0 DUP3 PUSH2 0x243F JUMPI PUSH4 0x4E487B71 PUSH1 0xE0 SHL PUSH1 0x0 MSTORE PUSH1 0x12 PUSH1 0x4 MSTORE PUSH1 0x24 PUSH1 0x0 REVERT JUMPDEST POP DIV SWAP1 JUMP JUMPDEST PUSH1 0x0 PUSH1 0x20 DUP3 DUP5 SUB SLT ISZERO PUSH2 0x2456 JUMPI PUSH1 0x0 DUP1 REVERT JUMPDEST DUP2 MLOAD DUP1 ISZERO ISZERO DUP2 EQ PUSH2 0x2167 JUMPI PUSH1 0x0 DUP1 REVERT JUMPDEST PUSH4 0x4E487B71 PUSH1 0xE0 SHL PUSH1 0x0 MSTORE PUSH1 0x41 PUSH1 0x4 MSTORE PUSH1 0x24 PUSH1 0x0 REVERT JUMPDEST PUSH4 0x4E487B71 PUSH1 0xE0 SHL PUSH1 0x0 MSTORE PUSH1 0x31 PUSH1 0x4 MSTORE PUSH1 0x24 PUSH1 0x0 REVERT INVALID LOG2 PUSH5 0x6970667358 0x22 SLT KECCAK256 0xDF 0xE2 PUSH23 0x63A73CAE8692087C6AB8DEAFA8B5317326366ECEDA4EB0 CREATE2 STOP 0xE7 0xE2 LOG3 STOP PUSH5 0x736F6C6343 STOP ADDMOD SGT STOP CALLER LOG2 PUSH5 0x6970667358 0x22 SLT KECCAK256 DUP3 CALLCODE RETURN RETURNDATACOPY SWAP14 BLOCKHASH 0xA7 SLT SSTORE 0xAD 0xE6 LOG0 STOP 0xD2 0x5C CALLVALUE 0xAF XOR 0xA6 SLOAD PUSH31 0x393B805302948A3C2C2BC564736F6C63430008130033000000000000000000 "},"gasEstimates":{"creation":{"codeDepositCost":"2193400","executionCost":"2338","totalCost":"2195738"},"external":{"createInheritance(uint256,address)":"infinite","getDeployedInheritancesCount()":"2247","inheritances(address)":"2558","isAdmin()":"2422"}},"methodIdentifiers":{"createInheritance(uint256,address)":"65a4c281","getDeployedInheritancesCount()":"21b6e8f5","inheritances(address)":"6122fed5","isAdmin()":"b6db75a0"}},"storageLayout":{"storage":[{"astId":455,"contract":"Inheritance.sol:InheritanceFactory","label":"deployedInheritancesCount","offset":0,"slot":"0","type":"t_uint256"},{"astId":459,"contract":"Inheritance.sol:InheritanceFactory","label":"inheritances","offset":0,"slot":"1","type":"t_mapping(t_address,t_address)"}],"types":{"t_address":{"encoding":"inplace","label":"address","numberOfBytes":"20"},"t_mapping(t_address,t_address)":{"encoding":"mapping","key":"t_address","label":"mapping(address => address)","numberOfBytes":"32","value":"t_address"},"t_uint256":{"encoding":"inplace","label":"uint256","numberOfBytes":"32"}}},"userdoc":{"kind":"user","methods":{},"version":1}}