{"abi":[{"inputs":[{"internalType":"address","name":"_administratorAddress","type":"address"},{"internalType":"uint256","name":"_aliveTimeOut","type":"uint256"},{"internalType":"address","name":"_tokenAddress","type":"address"}],"stateMutability":"nonpayable","type":"constructor"},{"anonymous":false,"inputs":[{"indexed":false,"internalType":"string","name":"message","type":"string"},{"indexed":true,"internalType":"address","name":"administrator","type":"address"},{"indexed":false,"internalType":"uint256","name":"timestamp","type":"uint256"},{"indexed":false,"internalType":"uint256","name":"currentTime","type":"uint256"},{"indexed":false,"internalType":"uint256","name":"aliveTimeOut","type":"uint256"}],"name":"LogAdministratorAlive","type":"event"},{"anonymous":false,"inputs":[{"indexed":false,"internalType":"string","name":"message","type":"string"},{"indexed":false,"internalType":"address","name":"administratorAddress","type":"address"},{"indexed":false,"internalType":"uint256","name":"value","type":"uint256"},{"indexed":false,"internalType":"uint256","name":"contractBalance","type":"uint256"}],"name":"LogDeposit","type":"event"},{"anonymous":false,"inputs":[{"indexed":false,"internalType":"string","name":"message","type":"string"},{"indexed":true,"internalType":"address","name":"heir","type":"address"},{"indexed":false,"internalType":"uint256","name":"share","type":"uint256"},{"indexed":false,"internalType":"uint256","name":"numberOfRequests","type":"uint256"},{"indexed":false,"internalType":"uint256","name":"numberOfHeirs","type":"uint256"}],"name":"LogHeirAccepted","type":"event"},{"anonymous":false,"inputs":[{"indexed":false,"internalType":"string","name":"message","type":"string"},{"indexed":true,"internalType":"address","name":"heir","type":"address"},{"indexed":false,"internalType":"uint256","name":"share","type":"uint256"},{"indexed":false,"internalType":"uint256","name":"etherSent","type":"uint256"},{"indexed":false,"internalType":"uint256","name":"etherBalance","type":"uint256"},{"indexed":false,"internalType":"uint256","name":"usdcSent","type":"uint256"},{"indexed":false,"internalType":"uint256","name":"usdcBalance","type":"uint256"}],"name":"LogHeirClaiming","type":"event"},{"anonymous":false,"inputs":[{"indexed":false,"internalType":"string","name":"message","type":"string"},{"indexed":true,"internalType":"address","name":"requester","type":"address"},{"indexed":false,"internalType":"uint256","name":"numberOfRequests","type":"uint256"},{"indexed":false,"internalType":"uint256","name":"numberOfHeirs","type":"uint256"}],"name":"LogHeirRejected","type":"event"},{"anonymous":false,"inputs":[{"indexed":false,"internalType":"string","name":"message","type":"string"},{"indexed":true,"internalType":"address","name":"heir","type":"address"},{"indexed":false,"internalType":"uint256","name":"share","type":"uint256"},{"indexed":false,"internalType":"uint256","name":"numberOfHeirs","type":"uint256"}],"name":"LogInheritanceClaimed","type":"event"},{"anonymous":false,"inputs":[{"indexed":false,"internalType":"string","name":"message","type":"string"},{"indexed":true,"internalType":"address","name":"requester","type":"address"},{"indexed":false,"internalType":"uint256","name":"numberOfRequests","type":"uint256"},{"indexed":false,"internalType":"uint256","name":"numberOfHeirs","type":"uint256"}],"name":"LogRequestToBeHeir","type":"event"},{"anonymous":false,"inputs":[{"indexed":true,"internalType":"address","name":"previousOwner","type":"address"},{"indexed":true,"internalType":"address","name":"newOwner","type":"address"}],"name":"OwnershipTransferred","type":"event"},{"inputs":[{"internalType":"uint256","name":"index","type":"uint256"},{"internalType":"address","name":"requester","type":"address"},{"internalType":"uint256","name":"share","type":"uint256"}],"name":"acceptInheritanceRequest","outputs":[],"stateMutability":"nonpayable","type":"function"},{"inputs":[{"internalType":"uint256","name":"tokenId","type":"uint256"},{"internalType":"address","name":"newHeirAddress","type":"address"}],"name":"addNFTDeed","outputs":[],"stateMutability":"nonpayable","type":"function"},{"inputs":[],"name":"administrator","outputs":[{"internalType":"address","name":"administratorAddress","type":"address"},{"internalType":"uint256","name":"lastAlive","type":"uint256"}],"stateMutability":"view","type":"function"},{"inputs":[],"name":"claimInheritance","outputs":[],"stateMutability":"nonpayable","type":"function"},{"inputs":[],"name":"deposit","outputs":[],"stateMutability":"payable","type":"function"},{"inputs":[],"name":"getAliveTimeOut","outputs":[{"internalType":"uint256","name":"","type":"uint256"}],"stateMutability":"view","type":"function"},{"inputs":[],"name":"getEtherBalance","outputs":[{"internalType":"uint256","name":"","type":"uint256"}],"stateMutability":"view","type":"function"},{"inputs":[{"internalType":"address","name":"heirAddress","type":"address"}],"name":"getHeirByAddress","outputs":[{"components":[{"internalType":"address","name":"heir","type":"address"},{"internalType":"uint256","name":"share","type":"uint256"},{"internalType":"uint256","name":"etherBalance","type":"uint256"},{"internalType":"uint256","name":"usdcBalance","type":"uint256"},{"internalType":"uint256[]","name":"NFTDeedIds","type":"uint256[]"}],"internalType":"struct Inheritance.Heir","name":"","type":"tuple"}],"stateMutability":"view","type":"function"},{"inputs":[],"name":"getHeirs","outputs":[{"components":[{"internalType":"address","name":"heir","type":"address"},{"internalType":"uint256","name":"share","type":"uint256"},{"internalType":"uint256","name":"etherBalance","type":"uint256"},{"internalType":"uint256","name":"usdcBalance","type":"uint256"},{"internalType":"uint256[]","name":"NFTDeedIds","type":"uint256[]"}],"internalType":"struct Inheritance.Heir[]","name":"","type":"tuple[]"}],"stateMutability":"view","type":"function"},{"inputs":[],"name":"getHeirsAddresses","outputs":[{"internalType":"address[]","name":"","type":"address[]"}],"stateMutability":"view","type":"function"},{"inputs":[],"name":"getInheritanceRequests","outputs":[{"internalType":"address[]","name":"","type":"address[]"}],"stateMutability":"view","type":"function"},{"inputs":[],"name":"getIsInheritanceClaimed","outputs":[{"internalType":"bool","name":"","type":"bool"}],"stateMutability":"view","type":"function"},{"inputs":[],"name":"getLastAlive","outputs":[{"internalType":"uint256","name":"","type":"uint256"}],"stateMutability":"view","type":"function"},{"inputs":[{"internalType":"address","name":"heirAddress","type":"address"}],"name":"getNFTDeedsByHeirAddress","outputs":[{"internalType":"uint256[]","name":"nftDeedIds","type":"uint256[]"}],"stateMutability":"view","type":"function"},{"inputs":[],"name":"getTotalShares","outputs":[{"internalType":"uint256","name":"","type":"uint256"}],"stateMutability":"view","type":"function"},{"inputs":[],"name":"getUSDCBalance","outputs":[{"internalType":"uint256","name":"","type":"uint256"}],"stateMutability":"view","type":"function"},{"inputs":[],"name":"isAdministratorDead","outputs":[{"internalType":"bool","name":"","type":"bool"}],"stateMutability":"view","type":"function"},{"inputs":[{"internalType":"uint256","name":"","type":"uint256"}],"name":"nftHeirs","outputs":[{"internalType":"address","name":"","type":"address"}],"stateMutability":"view","type":"function"},{"inputs":[],"name":"owner","outputs":[{"internalType":"address","name":"","type":"address"}],"stateMutability":"view","type":"function"},{"inputs":[{"internalType":"uint256","name":"index","type":"uint256"},{"internalType":"address","name":"requester","type":"address"}],"name":"rejectInheritanceRequest","outputs":[],"stateMutability":"nonpayable","type":"function"},{"inputs":[{"internalType":"uint256","name":"tokenId","type":"uint256"}],"name":"removeNFTDeed","outputs":[],"stateMutability":"nonpayable","type":"function"},{"inputs":[],"name":"renounceOwnership","outputs":[],"stateMutability":"nonpayable","type":"function"},{"inputs":[{"internalType":"address","name":"requester","type":"address"}],"name":"requestInheritance","outputs":[],"stateMutability":"nonpayable","type":"function"},{"inputs":[],"name":"signalAlive","outputs":[],"stateMutability":"nonpayable","type":"function"},{"inputs":[{"internalType":"address","name":"newOwner","type":"address"}],"name":"transferOwnership","outputs":[],"stateMutability":"nonpayable","type":"function"},{"inputs":[{"internalType":"uint256","name":"_aliveTimeOut","type":"uint256"}],"name":"updateAliveTimeOut","outputs":[],"stateMutability":"nonpayable","type":"function"},{"inputs":[{"internalType":"uint256","name":"amount","type":"uint256"}],"name":"withdraw","outputs":[],"stateMutability":"nonpayable","type":"function"},{"inputs":[{"internalType":"uint256","name":"amount","type":"uint256"}],"name":"withdrawUSDC","outputs":[],"stateMutability":"nonpayable","type":"function"}],"devdoc":{"kind":"dev","methods":{"owner()":{"details":"Returns the address of the current owner."},"renounceOwnership()":{"details":"Leaves the contract without owner. It will not be possible to call `onlyOwner` functions anymore. Can only be called by the current owner. NOTE: Renouncing ownership will leave the contract without an owner, thereby removing any functionality that is only available to the owner."},"transferOwnership(address)":{"details":"Transfers ownership of the contract to a new account (`newOwner`). Can only be called by the current owner."}},"version":1},"evm":{"assembly":"    /* \"Inheritance.sol\":1537:15463  contract Inheritance is Ownable {... */\n  mstore(0x40, 0x80)\n    /* \"Inheritance.sol\":3778:4254  constructor(... */\n  callvalue\n  dup1\n  iszero\n  tag_1\n  jumpi\n  0x00\n  dup1\n  revert\ntag_1:\n  pop\n  mload(0x40)\n  sub(codesize, bytecodeSize)\n  dup1\n  bytecodeSize\n  dup4\n  codecopy\n  dup2\n  add\n  0x40\n  dup2\n  swap1\n  mstore\n  tag_2\n  swap2\n  tag_3\n  jump\t// in\ntag_2:\n    /* \"@openzeppelin/contracts/access/Ownable.sol\":936:968   */\n  tag_7\n    /* \"@openzeppelin/contracts/utils/Context.sol\":719:729   */\n  caller\n    /* \"@openzeppelin/contracts/access/Ownable.sol\":936:954   */\n  tag_10\n    /* \"@openzeppelin/contracts/access/Ownable.sol\":936:968   */\n  jump\t// in\ntag_7:\n    /* \"Inheritance.sol\":3907:3912  token */\n  0x0a\n    /* \"Inheritance.sol\":3907:3936  token = IERC20(_tokenAddress) */\n  dup1\n  sload\n  not(sub(shl(0xa0, 0x01), 0x01))\n  and\n  sub(shl(0xa0, 0x01), 0x01)\n  dup4\n  and\n  or\n  swap1\n  sstore\n    /* \"Inheritance.sol\":3947:3987  transferOwnership(_administratorAddress) */\n  tag_12\n    /* \"Inheritance.sol\":3965:3986  _administratorAddress */\n  dup4\n    /* \"Inheritance.sol\":3947:3964  transferOwnership */\n  tag_13\n    /* \"Inheritance.sol\":3947:3987  transferOwnership(_administratorAddress) */\n  jump\t// in\ntag_12:\n  pop\n    /* \"Inheritance.sol\":4070:4082  aliveTimeOut */\n  0x03\n    /* \"Inheritance.sol\":4070:4098  aliveTimeOut = _aliveTimeOut */\n  sstore\n    /* \"Inheritance.sol\":4125:4247  Administrator({... */\n  0x40\n  dup1\n  mload\n  dup1\n  dup3\n  add\n  swap1\n  swap2\n  mstore\n  sub(shl(0xa0, 0x01), 0x01)\n  swap1\n  swap2\n  and\n  dup1\n  dup3\n  mstore\n    /* \"Inheritance.sol\":4221:4236  block.timestamp */\n  timestamp\n    /* \"Inheritance.sol\":4125:4247  Administrator({... */\n  0x20\n  swap1\n  swap3\n  add\n  dup3\n  swap1\n  mstore\n    /* \"Inheritance.sol\":4109:4122  administrator */\n  0x01\n    /* \"Inheritance.sol\":4109:4247  administrator = Administrator({... */\n  dup1\n  sload\n  not(sub(shl(0xa0, 0x01), 0x01))\n  and\n  swap1\n  swap2\n  or\n  swap1\n  sstore\n  0x02\n  sstore\n    /* \"Inheritance.sol\":1537:15463  contract Inheritance is Ownable {... */\n  jump(tag_34)\n    /* \"@openzeppelin/contracts/access/Ownable.sol\":2433:2620   */\ntag_10:\n    /* \"@openzeppelin/contracts/access/Ownable.sol\":2506:2522   */\n  0x00\n    /* \"@openzeppelin/contracts/access/Ownable.sol\":2525:2531   */\n  dup1\n  sload\n  sub(shl(0xa0, 0x01), 0x01)\n    /* \"@openzeppelin/contracts/access/Ownable.sol\":2541:2558   */\n  dup4\n  dup2\n  and\n  not(sub(shl(0xa0, 0x01), 0x01))\n  dup4\n  and\n  dup2\n  or\n  dup5\n  sstore\n    /* \"@openzeppelin/contracts/access/Ownable.sol\":2573:2613   */\n  mload(0x40)\n    /* \"@openzeppelin/contracts/access/Ownable.sol\":2525:2531   */\n  swap2\n  swap1\n  swap3\n  and\n  swap3\n  dup4\n  swap2\n    /* \"@openzeppelin/contracts/access/Ownable.sol\":2573:2613   */\n  0x8be0079c531659141344cd1fd0a4f28419497f9722a3daafe3b4186f6b6457e0\n  swap2\n    /* \"@openzeppelin/contracts/access/Ownable.sol\":2506:2522   */\n  swap1\n    /* \"@openzeppelin/contracts/access/Ownable.sol\":2573:2613   */\n  log3\n    /* \"@openzeppelin/contracts/access/Ownable.sol\":2496:2620   */\n  pop\n    /* \"@openzeppelin/contracts/access/Ownable.sol\":2433:2620   */\n  pop\n  jump\t// out\n    /* \"@openzeppelin/contracts/access/Ownable.sol\":2081:2279   */\ntag_13:\n    /* \"@openzeppelin/contracts/access/Ownable.sol\":1094:1107   */\n  tag_18\n    /* \"@openzeppelin/contracts/access/Ownable.sol\":1094:1105   */\n  tag_19\n    /* \"@openzeppelin/contracts/access/Ownable.sol\":1094:1107   */\n  jump\t// in\ntag_18:\n  sub(shl(0xa0, 0x01), 0x01)\n    /* \"@openzeppelin/contracts/access/Ownable.sol\":2169:2191   */\n  dup2\n  and\n    /* \"@openzeppelin/contracts/access/Ownable.sol\":2161:2234   */\n  tag_21\n  jumpi\n  mload(0x40)\n  shl(0xe5, 0x461bcd)\n  dup2\n  mstore\n    /* \"#utility.yul\":757:759   */\n  0x20\n    /* \"@openzeppelin/contracts/access/Ownable.sol\":2161:2234   */\n  0x04\n  dup3\n  add\n    /* \"#utility.yul\":739:760   */\n  mstore\n    /* \"#utility.yul\":796:798   */\n  0x26\n    /* \"#utility.yul\":776:794   */\n  0x24\n  dup3\n  add\n    /* \"#utility.yul\":769:799   */\n  mstore\n    /* \"#utility.yul\":835:869   */\n  0x4f776e61626c653a206e6577206f776e657220697320746865207a65726f2061\n    /* \"#utility.yul\":815:833   */\n  0x44\n  dup3\n  add\n    /* \"#utility.yul\":808:870   */\n  mstore\n  shl(0xd0, 0x646472657373)\n    /* \"#utility.yul\":886:904   */\n  0x64\n  dup3\n  add\n    /* \"#utility.yul\":879:915   */\n  mstore\n    /* \"#utility.yul\":932:951   */\n  0x84\n  add\n    /* \"@openzeppelin/contracts/access/Ownable.sol\":2161:2234   */\ntag_22:\n  mload(0x40)\n  dup1\n  swap2\n  sub\n  swap1\n  revert\ntag_21:\n    /* \"@openzeppelin/contracts/access/Ownable.sol\":2244:2272   */\n  tag_24\n    /* \"@openzeppelin/contracts/access/Ownable.sol\":2263:2271   */\n  dup2\n    /* \"@openzeppelin/contracts/access/Ownable.sol\":2244:2262   */\n  tag_10\n    /* \"@openzeppelin/contracts/access/Ownable.sol\":2244:2272   */\n  jump\t// in\ntag_24:\n    /* \"@openzeppelin/contracts/access/Ownable.sol\":2081:2279   */\n  pop\n  jump\t// out\n    /* \"@openzeppelin/contracts/access/Ownable.sol\":1359:1489   */\ntag_19:\n    /* \"@openzeppelin/contracts/access/Ownable.sol\":1247:1254   */\n  0x00\n    /* \"@openzeppelin/contracts/access/Ownable.sol\":1273:1279   */\n  sload\n  sub(shl(0xa0, 0x01), 0x01)\n  and\n    /* \"@openzeppelin/contracts/utils/Context.sol\":719:729   */\n  caller\n    /* \"@openzeppelin/contracts/access/Ownable.sol\":1422:1445   */\n  eq\n    /* \"@openzeppelin/contracts/access/Ownable.sol\":1414:1482   */\n  tag_29\n  jumpi\n  mload(0x40)\n  shl(0xe5, 0x461bcd)\n  dup2\n  mstore\n    /* \"#utility.yul\":1164:1166   */\n  0x20\n    /* \"@openzeppelin/contracts/access/Ownable.sol\":1414:1482   */\n  0x04\n  dup3\n  add\n    /* \"#utility.yul\":1146:1167   */\n  dup2\n  swap1\n  mstore\n    /* \"#utility.yul\":1183:1201   */\n  0x24\n  dup3\n  add\n    /* \"#utility.yul\":1176:1206   */\n  mstore\n    /* \"#utility.yul\":1242:1276   */\n  0x4f776e61626c653a2063616c6c6572206973206e6f7420746865206f776e6572\n    /* \"#utility.yul\":1222:1240   */\n  0x44\n  dup3\n  add\n    /* \"#utility.yul\":1215:1277   */\n  mstore\n    /* \"#utility.yul\":1294:1312   */\n  0x64\n  add\n    /* \"@openzeppelin/contracts/access/Ownable.sol\":1414:1482   */\n  tag_22\n    /* \"#utility.yul\":962:1318   */\n  jump\n    /* \"@openzeppelin/contracts/access/Ownable.sol\":1414:1482   */\ntag_29:\n    /* \"@openzeppelin/contracts/access/Ownable.sol\":1359:1489   */\n  jump\t// out\n    /* \"#utility.yul\":14:191   */\ntag_33:\n    /* \"#utility.yul\":93:106   */\n  dup1\n  mload\n  sub(shl(0xa0, 0x01), 0x01)\n    /* \"#utility.yul\":135:166   */\n  dup2\n  and\n    /* \"#utility.yul\":125:167   */\n  dup2\n  eq\n    /* \"#utility.yul\":115:185   */\n  tag_36\n  jumpi\n    /* \"#utility.yul\":181:182   */\n  0x00\n    /* \"#utility.yul\":178:179   */\n  dup1\n    /* \"#utility.yul\":171:183   */\n  revert\n    /* \"#utility.yul\":115:185   */\ntag_36:\n    /* \"#utility.yul\":14:191   */\n  swap2\n  swap1\n  pop\n  jump\t// out\n    /* \"#utility.yul\":196:550   */\ntag_3:\n    /* \"#utility.yul\":284:290   */\n  0x00\n    /* \"#utility.yul\":292:298   */\n  dup1\n    /* \"#utility.yul\":300:306   */\n  0x00\n    /* \"#utility.yul\":353:355   */\n  0x60\n    /* \"#utility.yul\":341:350   */\n  dup5\n    /* \"#utility.yul\":332:339   */\n  dup7\n    /* \"#utility.yul\":328:351   */\n  sub\n    /* \"#utility.yul\":324:356   */\n  slt\n    /* \"#utility.yul\":321:373   */\n  iszero\n  tag_38\n  jumpi\n    /* \"#utility.yul\":369:370   */\n  0x00\n    /* \"#utility.yul\":366:367   */\n  dup1\n    /* \"#utility.yul\":359:371   */\n  revert\n    /* \"#utility.yul\":321:373   */\ntag_38:\n    /* \"#utility.yul\":392:432   */\n  tag_39\n    /* \"#utility.yul\":422:431   */\n  dup5\n    /* \"#utility.yul\":392:432   */\n  tag_33\n  jump\t// in\ntag_39:\n    /* \"#utility.yul\":382:432   */\n  swap3\n  pop\n    /* \"#utility.yul\":472:474   */\n  0x20\n    /* \"#utility.yul\":461:470   */\n  dup5\n    /* \"#utility.yul\":457:475   */\n  add\n    /* \"#utility.yul\":451:476   */\n  mload\n    /* \"#utility.yul\":441:476   */\n  swap2\n  pop\n    /* \"#utility.yul\":495:544   */\n  tag_40\n    /* \"#utility.yul\":540:542   */\n  0x40\n    /* \"#utility.yul\":529:538   */\n  dup6\n    /* \"#utility.yul\":525:543   */\n  add\n    /* \"#utility.yul\":495:544   */\n  tag_33\n  jump\t// in\ntag_40:\n    /* \"#utility.yul\":485:544   */\n  swap1\n  pop\n    /* \"#utility.yul\":196:550   */\n  swap3\n  pop\n  swap3\n  pop\n  swap3\n  jump\t// out\n    /* \"#utility.yul\":962:1318   */\ntag_34:\n    /* \"Inheritance.sol\":1537:15463  contract Inheritance is Ownable {... */\n  dataSize(sub_0)\n  dup1\n  dataOffset(sub_0)\n  0x00\n  codecopy\n  0x00\n  return\nstop\n\nsub_0: assembly {\n        /* \"Inheritance.sol\":1537:15463  contract Inheritance is Ownable {... */\n      mstore(0x40, 0x80)\n      jumpi(tag_1, lt(calldatasize, 0x04))\n      shr(0xe0, calldataload(0x00))\n      dup1\n      0x8da5cb5b\n      gt\n      tag_30\n      jumpi\n      dup1\n      0xdb81f99b\n      gt\n      tag_31\n      jumpi\n      dup1\n      0xea46193e\n      gt\n      tag_32\n      jumpi\n      dup1\n      0xea46193e\n      eq\n      tag_26\n      jumpi\n      dup1\n      0xf2fde38b\n      eq\n      tag_27\n      jumpi\n      dup1\n      0xf53d0a8e\n      eq\n      tag_28\n      jumpi\n      dup1\n      0xffc15b7c\n      eq\n      tag_29\n      jumpi\n      0x00\n      dup1\n      revert\n    tag_32:\n      dup1\n      0xdb81f99b\n      eq\n      tag_23\n      jumpi\n      dup1\n      0xde35f376\n      eq\n      tag_24\n      jumpi\n      dup1\n      0xe92df2b0\n      eq\n      tag_25\n      jumpi\n      0x00\n      dup1\n      revert\n    tag_31:\n      dup1\n      0xc1b640db\n      gt\n      tag_33\n      jumpi\n      dup1\n      0xc1b640db\n      eq\n      tag_19\n      jumpi\n      dup1\n      0xd0e30db0\n      eq\n      tag_20\n      jumpi\n      dup1\n      0xd5002f2e\n      eq\n      tag_21\n      jumpi\n      dup1\n      0xdaa67756\n      eq\n      tag_22\n      jumpi\n      0x00\n      dup1\n      revert\n    tag_33:\n      dup1\n      0x8da5cb5b\n      eq\n      tag_16\n      jumpi\n      dup1\n      0x9f3c4416\n      eq\n      tag_17\n      jumpi\n      dup1\n      0xa37fc5cf\n      eq\n      tag_18\n      jumpi\n      0x00\n      dup1\n      revert\n    tag_30:\n      dup1\n      0x4eae51f4\n      gt\n      tag_34\n      jumpi\n      dup1\n      0x66416dd3\n      gt\n      tag_35\n      jumpi\n      dup1\n      0x66416dd3\n      eq\n      tag_12\n      jumpi\n      dup1\n      0x715018a6\n      eq\n      tag_13\n      jumpi\n      dup1\n      0x7c1d3a01\n      eq\n      tag_14\n      jumpi\n      dup1\n      0x7ef665e9\n      eq\n      tag_15\n      jumpi\n      0x00\n      dup1\n      revert\n    tag_35:\n      dup1\n      0x4eae51f4\n      eq\n      tag_9\n      jumpi\n      dup1\n      0x4f3b972d\n      eq\n      tag_10\n      jumpi\n      dup1\n      0x59e82bd7\n      eq\n      tag_11\n      jumpi\n      0x00\n      dup1\n      revert\n    tag_34:\n      dup1\n      0x2e1a7d4d\n      gt\n      tag_36\n      jumpi\n      dup1\n      0x2e1a7d4d\n      eq\n      tag_5\n      jumpi\n      dup1\n      0x35d6f873\n      eq\n      tag_6\n      jumpi\n      dup1\n      0x3cfd1ccc\n      eq\n      tag_7\n      jumpi\n      dup1\n      0x4da2f2f9\n      eq\n      tag_8\n      jumpi\n      0x00\n      dup1\n      revert\n    tag_36:\n      dup1\n      0x051ea68f\n      eq\n      tag_2\n      jumpi\n      dup1\n      0x064ac578\n      eq\n      tag_3\n      jumpi\n      dup1\n      0x25cfecbe\n      eq\n      tag_4\n      jumpi\n    tag_1:\n      0x00\n      dup1\n      revert\n        /* \"Inheritance.sol\":6947:7183  function isAdministratorDead() public view returns (bool) {... */\n    tag_2:\n      callvalue\n      dup1\n      iszero\n      tag_37\n      jumpi\n      0x00\n      dup1\n      revert\n    tag_37:\n      pop\n      tag_38\n      tag_39\n      jump\t// in\n    tag_38:\n      mload(0x40)\n        /* \"#utility.yul\":179:193   */\n      swap1\n      iszero\n        /* \"#utility.yul\":172:194   */\n      iszero\n        /* \"#utility.yul\":154:195   */\n      dup2\n      mstore\n        /* \"#utility.yul\":142:144   */\n      0x20\n        /* \"#utility.yul\":127:145   */\n      add\n        /* \"Inheritance.sol\":6947:7183  function isAdministratorDead() public view returns (bool) {... */\n    tag_40:\n      mload(0x40)\n      dup1\n      swap2\n      sub\n      swap1\n      return\n        /* \"Inheritance.sol\":11387:11503  function getInheritanceRequests() public view returns (address[] memory) {... */\n    tag_3:\n      callvalue\n      dup1\n      iszero\n      tag_42\n      jumpi\n      0x00\n      dup1\n      revert\n    tag_42:\n      pop\n      tag_43\n      tag_44\n      jump\t// in\n    tag_43:\n      mload(0x40)\n      tag_40\n      swap2\n      swap1\n      tag_46\n      jump\t// in\n        /* \"Inheritance.sol\":11046:11157  function getLastAlive() public view onlyOwner returns (uint256) {... */\n    tag_4:\n      callvalue\n      dup1\n      iszero\n      tag_47\n      jumpi\n      0x00\n      dup1\n      revert\n    tag_47:\n      pop\n      tag_48\n      tag_49\n      jump\t// in\n    tag_48:\n      mload(0x40)\n        /* \"#utility.yul\":1015:1040   */\n      swap1\n      dup2\n      mstore\n        /* \"#utility.yul\":1003:1005   */\n      0x20\n        /* \"#utility.yul\":988:1006   */\n      add\n        /* \"Inheritance.sol\":11046:11157  function getLastAlive() public view onlyOwner returns (uint256) {... */\n      tag_40\n        /* \"#utility.yul\":869:1046   */\n      jump\n        /* \"Inheritance.sol\":4951:5189  function withdraw(uint256 amount) public onlyOwner {... */\n    tag_5:\n      callvalue\n      dup1\n      iszero\n      tag_52\n      jumpi\n      0x00\n      dup1\n      revert\n    tag_52:\n      pop\n      tag_53\n      tag_54\n      calldatasize\n      0x04\n      tag_55\n      jump\t// in\n    tag_54:\n      tag_56\n      jump\t// in\n    tag_53:\n      stop\n        /* \"Inheritance.sol\":12475:12770  function getNFTDeedsByHeirAddress(... */\n    tag_6:\n      callvalue\n      dup1\n      iszero\n      tag_57\n      jumpi\n      0x00\n      dup1\n      revert\n    tag_57:\n      pop\n      tag_58\n      tag_59\n      calldatasize\n      0x04\n      tag_60\n      jump\t// in\n    tag_59:\n      tag_61\n      jump\t// in\n    tag_58:\n      mload(0x40)\n      tag_40\n      swap2\n      swap1\n      tag_63\n      jump\t// in\n        /* \"Inheritance.sol\":11271:11381  function getUSDCBalance() public view returns (uint256) {... */\n    tag_7:\n      callvalue\n      dup1\n      iszero\n      tag_64\n      jumpi\n      0x00\n      dup1\n      revert\n    tag_64:\n      pop\n      tag_48\n      tag_66\n      jump\t// in\n        /* \"Inheritance.sol\":11600:11889  function getHeirByAddress(address heirAddress) public view returns (Heir memory) {... */\n    tag_8:\n      callvalue\n      dup1\n      iszero\n      tag_68\n      jumpi\n      0x00\n      dup1\n      revert\n    tag_68:\n      pop\n      tag_69\n      tag_70\n      calldatasize\n      0x04\n      tag_60\n      jump\t// in\n    tag_70:\n      tag_71\n      jump\t// in\n    tag_69:\n      mload(0x40)\n      tag_40\n      swap2\n      swap1\n      tag_73\n      jump\t// in\n        /* \"Inheritance.sol\":11509:11594  function getHeirs() public view returns (Heir[] memory) {... */\n    tag_9:\n      callvalue\n      dup1\n      iszero\n      tag_74\n      jumpi\n      0x00\n      dup1\n      revert\n    tag_74:\n      pop\n      tag_75\n      tag_76\n      jump\t// in\n    tag_75:\n      mload(0x40)\n      tag_40\n      swap2\n      swap1\n      tag_78\n      jump\t// in\n        /* \"Inheritance.sol\":2371:2414  mapping(uint256 => address) public nftHeirs */\n    tag_10:\n      callvalue\n      dup1\n      iszero\n      tag_79\n      jumpi\n      0x00\n      dup1\n      revert\n    tag_79:\n      pop\n      tag_80\n      tag_81\n      calldatasize\n      0x04\n      tag_55\n      jump\t// in\n    tag_81:\n      mstore(0x20, 0x09)\n      0x00\n      swap1\n      dup2\n      mstore\n      0x40\n      swap1\n      keccak256\n      sload\n      sub(shl(0xa0, 0x01), 0x01)\n      and\n      dup2\n      jump\n    tag_80:\n      mload(0x40)\n      sub(shl(0xa0, 0x01), 0x01)\n        /* \"#utility.yul\":4020:4052   */\n      swap1\n      swap2\n      and\n        /* \"#utility.yul\":4002:4053   */\n      dup2\n      mstore\n        /* \"#utility.yul\":3990:3992   */\n      0x20\n        /* \"#utility.yul\":3975:3993   */\n      add\n        /* \"Inheritance.sol\":2371:2414  mapping(uint256 => address) public nftHeirs */\n      tag_40\n        /* \"#utility.yul\":3856:4059   */\n      jump\n        /* \"Inheritance.sol\":8687:9674  function addNFTDeed(... */\n    tag_11:\n      callvalue\n      dup1\n      iszero\n      tag_85\n      jumpi\n      0x00\n      dup1\n      revert\n    tag_85:\n      pop\n      tag_53\n      tag_87\n      calldatasize\n      0x04\n      tag_88\n      jump\t// in\n    tag_87:\n      tag_89\n      jump\t// in\n        /* \"Inheritance.sol\":5673:6019  function requestInheritance(... */\n    tag_12:\n      callvalue\n      dup1\n      iszero\n      tag_90\n      jumpi\n      0x00\n      dup1\n      revert\n    tag_90:\n      pop\n      tag_53\n      tag_92\n      calldatasize\n      0x04\n      tag_60\n      jump\t// in\n    tag_92:\n      tag_93\n      jump\t// in\n        /* \"@openzeppelin/contracts/access/Ownable.sol\":1831:1932   */\n    tag_13:\n      callvalue\n      dup1\n      iszero\n      tag_94\n      jumpi\n      0x00\n      dup1\n      revert\n    tag_94:\n      pop\n      tag_53\n      tag_96\n      jump\t// in\n        /* \"Inheritance.sol\":6025:6544  function acceptInheritanceRequest(... */\n    tag_14:\n      callvalue\n      dup1\n      iszero\n      tag_97\n      jumpi\n      0x00\n      dup1\n      revert\n    tag_97:\n      pop\n      tag_53\n      tag_99\n      calldatasize\n      0x04\n      tag_100\n      jump\t// in\n    tag_99:\n      tag_101\n      jump\t// in\n        /* \"Inheritance.sol\":12776:12882  function getIsInheritanceClaimed() public view returns (bool) {... */\n    tag_15:\n      callvalue\n      dup1\n      iszero\n      tag_102\n      jumpi\n      0x00\n      dup1\n      revert\n    tag_102:\n      pop\n        /* \"Inheritance.sol\":12855:12875  isInheritanceClaimed */\n      and(0xff, sload(0x04))\n        /* \"Inheritance.sol\":12776:12882  function getIsInheritanceClaimed() public view returns (bool) {... */\n      jump(tag_38)\n        /* \"@openzeppelin/contracts/access/Ownable.sol\":1201:1286   */\n    tag_16:\n      callvalue\n      dup1\n      iszero\n      tag_106\n      jumpi\n      0x00\n      dup1\n      revert\n    tag_106:\n      pop\n        /* \"@openzeppelin/contracts/access/Ownable.sol\":1247:1254   */\n      0x00\n        /* \"@openzeppelin/contracts/access/Ownable.sol\":1273:1279   */\n      sload\n      sub(shl(0xa0, 0x01), 0x01)\n      and\n        /* \"@openzeppelin/contracts/access/Ownable.sol\":1201:1286   */\n      jump(tag_80)\n        /* \"Inheritance.sol\":7189:8681  function claimInheritance() public isHeir(msg.sender) {... */\n    tag_17:\n      callvalue\n      dup1\n      iszero\n      tag_110\n      jumpi\n      0x00\n      dup1\n      revert\n    tag_110:\n      pop\n      tag_53\n      tag_112\n      jump\t// in\n        /* \"Inheritance.sol\":10937:11040  function getAliveTimeOut() public view onlyOwner returns (uint256) {... */\n    tag_18:\n      callvalue\n      dup1\n      iszero\n      tag_113\n      jumpi\n      0x00\n      dup1\n      revert\n    tag_113:\n      pop\n      tag_48\n      tag_115\n      jump\t// in\n        /* \"Inheritance.sol\":5342:5667  function signalAlive() public onlyOwner {... */\n    tag_19:\n      callvalue\n      dup1\n      iszero\n      tag_117\n      jumpi\n      0x00\n      dup1\n      revert\n    tag_117:\n      pop\n      tag_53\n      tag_119\n      jump\t// in\n        /* \"Inheritance.sol\":4284:4561  function deposit() public payable {... */\n    tag_20:\n      tag_53\n      tag_121\n      jump\t// in\n        /* \"Inheritance.sol\":11895:12122  function getTotalShares() public view returns (uint256) {... */\n    tag_21:\n      callvalue\n      dup1\n      iszero\n      tag_122\n      jumpi\n      0x00\n      dup1\n      revert\n    tag_122:\n      pop\n      tag_48\n      tag_124\n      jump\t// in\n        /* \"Inheritance.sol\":9680:10323  function removeNFTDeed(uint256 tokenId) public onlyOwner {... */\n    tag_22:\n      callvalue\n      dup1\n      iszero\n      tag_126\n      jumpi\n      0x00\n      dup1\n      revert\n    tag_126:\n      pop\n      tag_53\n      tag_128\n      calldatasize\n      0x04\n      tag_55\n      jump\t// in\n    tag_128:\n      tag_129\n      jump\t// in\n        /* \"Inheritance.sol\":4592:4945  function withdrawUSDC(uint256 amount) public onlyOwner {... */\n    tag_23:\n      callvalue\n      dup1\n      iszero\n      tag_130\n      jumpi\n      0x00\n      dup1\n      revert\n    tag_130:\n      pop\n      tag_53\n      tag_132\n      calldatasize\n      0x04\n      tag_55\n      jump\t// in\n    tag_132:\n      tag_133\n      jump\t// in\n        /* \"Inheritance.sol\":5223:5336  function updateAliveTimeOut(uint256 _aliveTimeOut) public onlyOwner {... */\n    tag_24:\n      callvalue\n      dup1\n      iszero\n      tag_134\n      jumpi\n      0x00\n      dup1\n      revert\n    tag_134:\n      pop\n      tag_53\n      tag_136\n      calldatasize\n      0x04\n      tag_55\n      jump\t// in\n    tag_136:\n      tag_137\n      jump\t// in\n        /* \"Inheritance.sol\":6550:6941  function rejectInheritanceRequest(... */\n    tag_25:\n      callvalue\n      dup1\n      iszero\n      tag_138\n      jumpi\n      0x00\n      dup1\n      revert\n    tag_138:\n      pop\n      tag_53\n      tag_140\n      calldatasize\n      0x04\n      tag_88\n      jump\t// in\n    tag_140:\n      tag_141\n      jump\t// in\n        /* \"Inheritance.sol\":11163:11265  function getEtherBalance() public view returns (uint256) {... */\n    tag_26:\n      callvalue\n      dup1\n      iszero\n      tag_142\n      jumpi\n      0x00\n      dup1\n      revert\n    tag_142:\n      pop\n        /* \"Inheritance.sol\":11237:11258  address(this).balance */\n      selfbalance\n        /* \"Inheritance.sol\":11163:11265  function getEtherBalance() public view returns (uint256) {... */\n      jump(tag_48)\n        /* \"@openzeppelin/contracts/access/Ownable.sol\":2081:2279   */\n    tag_27:\n      callvalue\n      dup1\n      iszero\n      tag_146\n      jumpi\n      0x00\n      dup1\n      revert\n    tag_146:\n      pop\n      tag_53\n      tag_148\n      calldatasize\n      0x04\n      tag_60\n      jump\t// in\n    tag_148:\n      tag_149\n      jump\t// in\n        /* \"Inheritance.sol\":1863:1897  Administrator public administrator */\n    tag_28:\n      callvalue\n      dup1\n      iszero\n      tag_150\n      jumpi\n      0x00\n      dup1\n      revert\n    tag_150:\n      pop\n      sload(0x01)\n      sload(0x02)\n      tag_151\n      swap2\n      sub(shl(0xa0, 0x01), 0x01)\n      and\n      swap1\n      dup3\n      jump\n    tag_151:\n      0x40\n      dup1\n      mload\n      sub(shl(0xa0, 0x01), 0x01)\n        /* \"#utility.yul\":4842:4874   */\n      swap1\n      swap4\n      and\n        /* \"#utility.yul\":4824:4875   */\n      dup4\n      mstore\n        /* \"#utility.yul\":4906:4908   */\n      0x20\n        /* \"#utility.yul\":4891:4909   */\n      dup4\n      add\n        /* \"#utility.yul\":4884:4918   */\n      swap2\n      swap1\n      swap2\n      mstore\n        /* \"#utility.yul\":4797:4815   */\n      add\n        /* \"Inheritance.sol\":1863:1897  Administrator public administrator */\n      tag_40\n        /* \"#utility.yul\":4650:4924   */\n      jump\n        /* \"Inheritance.sol\":12128:12469  function getHeirsAddresses() public view returns (address[] memory) {... */\n    tag_29:\n      callvalue\n      dup1\n      iszero\n      tag_155\n      jumpi\n      0x00\n      dup1\n      revert\n    tag_155:\n      pop\n      tag_43\n      tag_157\n      jump\t// in\n        /* \"Inheritance.sol\":6947:7183  function isAdministratorDead() public view returns (bool) {... */\n    tag_39:\n        /* \"Inheritance.sol\":7164:7176  aliveTimeOut */\n      sload(0x03)\n        /* \"Inheritance.sol\":7137:7160  administrator.lastAlive */\n      sload(0x02)\n        /* \"Inheritance.sol\":6999:7003  bool */\n      0x00\n      swap2\n        /* \"Inheritance.sol\":7164:7176  aliveTimeOut */\n      swap1\n        /* \"Inheritance.sol\":7119:7160  block.timestamp - administrator.lastAlive */\n      tag_160\n      swap1\n        /* \"Inheritance.sol\":7119:7134  block.timestamp */\n      timestamp\n        /* \"Inheritance.sol\":7119:7160  block.timestamp - administrator.lastAlive */\n      tag_161\n      jump\t// in\n    tag_160:\n        /* \"Inheritance.sol\":7119:7176  block.timestamp - administrator.lastAlive >= aliveTimeOut */\n      lt\n      iszero\n        /* \"Inheritance.sol\":7112:7176  return block.timestamp - administrator.lastAlive >= aliveTimeOut */\n      swap1\n      pop\n        /* \"Inheritance.sol\":6947:7183  function isAdministratorDead() public view returns (bool) {... */\n      swap1\n      jump\t// out\n        /* \"Inheritance.sol\":11387:11503  function getInheritanceRequests() public view returns (address[] memory) {... */\n    tag_44:\n        /* \"Inheritance.sol\":11442:11458  address[] memory */\n      0x60\n        /* \"Inheritance.sol\":11477:11496  inheritanceRequests */\n      0x06\n        /* \"Inheritance.sol\":11470:11496  return inheritanceRequests */\n      dup1\n      sload\n      dup1\n      0x20\n      mul\n      0x20\n      add\n      mload(0x40)\n      swap1\n      dup2\n      add\n      0x40\n      mstore\n      dup1\n      swap3\n      swap2\n      swap1\n      dup2\n      dup2\n      mstore\n      0x20\n      add\n      dup3\n      dup1\n      sload\n      dup1\n      iszero\n      tag_163\n      jumpi\n      0x20\n      mul\n      dup3\n      add\n      swap2\n      swap1\n      0x00\n      mstore\n      keccak256(0x00, 0x20)\n      swap1\n    tag_164:\n      dup2\n      sload\n      sub(shl(0xa0, 0x01), 0x01)\n      and\n      dup2\n      mstore\n      0x01\n      swap1\n      swap2\n      add\n      swap1\n      0x20\n      add\n      dup1\n      dup4\n      gt\n      tag_164\n      jumpi\n    tag_163:\n      pop\n      pop\n      pop\n      pop\n      pop\n      swap1\n      pop\n        /* \"Inheritance.sol\":11387:11503  function getInheritanceRequests() public view returns (address[] memory) {... */\n      swap1\n      jump\t// out\n        /* \"Inheritance.sol\":11046:11157  function getLastAlive() public view onlyOwner returns (uint256) {... */\n    tag_49:\n        /* \"Inheritance.sol\":11101:11108  uint256 */\n      0x00\n        /* \"@openzeppelin/contracts/access/Ownable.sol\":1094:1107   */\n      tag_166\n        /* \"@openzeppelin/contracts/access/Ownable.sol\":1094:1105   */\n      tag_167\n        /* \"@openzeppelin/contracts/access/Ownable.sol\":1094:1107   */\n      jump\t// in\n    tag_166:\n      pop\n        /* \"Inheritance.sol\":11127:11150  administrator.lastAlive */\n      sload(0x02)\n        /* \"Inheritance.sol\":11046:11157  function getLastAlive() public view onlyOwner returns (uint256) {... */\n      swap1\n      jump\t// out\n        /* \"Inheritance.sol\":4951:5189  function withdraw(uint256 amount) public onlyOwner {... */\n    tag_56:\n        /* \"@openzeppelin/contracts/access/Ownable.sol\":1094:1107   */\n      tag_170\n        /* \"@openzeppelin/contracts/access/Ownable.sol\":1094:1105   */\n      tag_167\n        /* \"@openzeppelin/contracts/access/Ownable.sol\":1094:1107   */\n      jump\t// in\n    tag_170:\n        /* \"Inheritance.sol\":5029:5030  0 */\n      0x00\n        /* \"Inheritance.sol\":5020:5026  amount */\n      dup2\n        /* \"Inheritance.sol\":5020:5030  amount > 0 */\n      gt\n        /* \"Inheritance.sol\":5012:5059  require(amount > 0, \"Amount must be positive.\") */\n      tag_172\n      jumpi\n      mload(0x40)\n      shl(0xe5, 0x461bcd)\n      dup2\n      mstore\n        /* \"#utility.yul\":5396:5398   */\n      0x20\n        /* \"Inheritance.sol\":5012:5059  require(amount > 0, \"Amount must be positive.\") */\n      0x04\n      dup3\n      add\n        /* \"#utility.yul\":5378:5399   */\n      mstore\n        /* \"#utility.yul\":5435:5437   */\n      0x18\n        /* \"#utility.yul\":5415:5433   */\n      0x24\n      dup3\n      add\n        /* \"#utility.yul\":5408:5438   */\n      mstore\n      shl(0x41, 0x20b6b7bab73a1036bab9ba103132903837b9b4ba34bb3297)\n        /* \"#utility.yul\":5454:5472   */\n      0x44\n      dup3\n      add\n        /* \"#utility.yul\":5447:5501   */\n      mstore\n        /* \"#utility.yul\":5518:5536   */\n      0x64\n      add\n        /* \"Inheritance.sol\":5012:5059  require(amount > 0, \"Amount must be positive.\") */\n    tag_173:\n      mload(0x40)\n      dup1\n      swap2\n      sub\n      swap1\n      revert\n    tag_172:\n        /* \"Inheritance.sol\":5087:5108  address(this).balance */\n      selfbalance\n        /* \"Inheritance.sol\":5077:5083  amount */\n      dup2\n        /* \"Inheritance.sol\":5077:5108  amount <= address(this).balance */\n      gt\n      iszero\n        /* \"Inheritance.sol\":5069:5136  require(amount <= address(this).balance, \"Not enough ETH balance.\") */\n      tag_175\n      jumpi\n      mload(0x40)\n      shl(0xe5, 0x461bcd)\n      dup2\n      mstore\n        /* \"#utility.yul\":5749:5751   */\n      0x20\n        /* \"Inheritance.sol\":5069:5136  require(amount <= address(this).balance, \"Not enough ETH balance.\") */\n      0x04\n      dup3\n      add\n        /* \"#utility.yul\":5731:5752   */\n      mstore\n        /* \"#utility.yul\":5788:5790   */\n      0x17\n        /* \"#utility.yul\":5768:5786   */\n      0x24\n      dup3\n      add\n        /* \"#utility.yul\":5761:5791   */\n      mstore\n        /* \"#utility.yul\":5827:5852   */\n      0x4e6f7420656e6f756768204554482062616c616e63652e000000000000000000\n        /* \"#utility.yul\":5807:5825   */\n      0x44\n      dup3\n      add\n        /* \"#utility.yul\":5800:5853   */\n      mstore\n        /* \"#utility.yul\":5870:5888   */\n      0x64\n      add\n        /* \"Inheritance.sol\":5069:5136  require(amount <= address(this).balance, \"Not enough ETH balance.\") */\n      tag_173\n        /* \"#utility.yul\":5547:5894   */\n      jump\n        /* \"Inheritance.sol\":5069:5136  require(amount <= address(this).balance, \"Not enough ETH balance.\") */\n    tag_175:\n        /* \"Inheritance.sol\":5146:5182  payable(msg.sender).transfer(amount) */\n      mload(0x40)\n        /* \"Inheritance.sol\":5154:5164  msg.sender */\n      caller\n      swap1\n        /* \"Inheritance.sol\":5146:5182  payable(msg.sender).transfer(amount) */\n      dup3\n      iszero\n      0x08fc\n      mul\n      swap1\n        /* \"Inheritance.sol\":5175:5181  amount */\n      dup4\n      swap1\n        /* \"Inheritance.sol\":5146:5182  payable(msg.sender).transfer(amount) */\n      0x00\n      dup2\n      dup2\n      dup2\n        /* \"Inheritance.sol\":5175:5181  amount */\n      dup6\n        /* \"Inheritance.sol\":5154:5164  msg.sender */\n      dup9\n        /* \"Inheritance.sol\":5146:5182  payable(msg.sender).transfer(amount) */\n      dup9\n      call\n      swap4\n      pop\n      pop\n      pop\n      pop\n      iszero\n      dup1\n      iszero\n      tag_179\n      jumpi\n      returndatasize\n      0x00\n      dup1\n      returndatacopy\n      revert(0x00, returndatasize)\n    tag_179:\n      pop\n        /* \"Inheritance.sol\":4951:5189  function withdraw(uint256 amount) public onlyOwner {... */\n      pop\n      jump\t// out\n        /* \"Inheritance.sol\":12475:12770  function getNFTDeedsByHeirAddress(... */\n    tag_61:\n        /* \"Inheritance.sol\":12565:12592  uint256[] memory nftDeedIds */\n      0x60\n        /* \"Inheritance.sol\":12609:12618  uint256 i */\n      0x00\n        /* \"Inheritance.sol\":12604:12764  for (uint256 i = 0; i < heirs.length; i++) {... */\n    tag_181:\n        /* \"Inheritance.sol\":12628:12633  heirs */\n      0x05\n        /* \"Inheritance.sol\":12628:12640  heirs.length */\n      sload\n        /* \"Inheritance.sol\":12624:12640  i < heirs.length */\n      dup2\n      lt\n        /* \"Inheritance.sol\":12604:12764  for (uint256 i = 0; i < heirs.length; i++) {... */\n      iszero\n      tag_182\n      jumpi\n        /* \"Inheritance.sol\":12682:12693  heirAddress */\n      dup3\n      sub(shl(0xa0, 0x01), 0x01)\n        /* \"Inheritance.sol\":12665:12693  heirs[i].heir == heirAddress */\n      and\n        /* \"Inheritance.sol\":12665:12670  heirs */\n      0x05\n        /* \"Inheritance.sol\":12671:12672  i */\n      dup3\n        /* \"Inheritance.sol\":12665:12673  heirs[i] */\n      dup2\n      sload\n      dup2\n      lt\n      tag_185\n      jumpi\n      tag_185\n      tag_186\n      jump\t// in\n    tag_185:\n      0x00\n      swap2\n      dup3\n      mstore\n      0x20\n      swap1\n      swap2\n      keccak256\n      0x05\n      swap1\n      swap2\n      mul\n      add\n        /* \"Inheritance.sol\":12665:12678  heirs[i].heir */\n      sload\n      sub(shl(0xa0, 0x01), 0x01)\n      and\n        /* \"Inheritance.sol\":12665:12693  heirs[i].heir == heirAddress */\n      sub\n        /* \"Inheritance.sol\":12661:12754  if (heirs[i].heir == heirAddress) {... */\n      tag_188\n      jumpi\n        /* \"Inheritance.sol\":12720:12725  heirs */\n      0x05\n        /* \"Inheritance.sol\":12726:12727  i */\n      dup2\n        /* \"Inheritance.sol\":12720:12728  heirs[i] */\n      dup2\n      sload\n      dup2\n      lt\n      tag_190\n      jumpi\n      tag_190\n      tag_186\n      jump\t// in\n    tag_190:\n      swap1\n      0x00\n      mstore\n      keccak256(0x00, 0x20)\n      swap1\n      0x05\n      mul\n      add\n        /* \"Inheritance.sol\":12720:12739  heirs[i].NFTDeedIds */\n      0x04\n      add\n        /* \"Inheritance.sol\":12713:12739  return heirs[i].NFTDeedIds */\n      dup1\n      sload\n      dup1\n      0x20\n      mul\n      0x20\n      add\n      mload(0x40)\n      swap1\n      dup2\n      add\n      0x40\n      mstore\n      dup1\n      swap3\n      swap2\n      swap1\n      dup2\n      dup2\n      mstore\n      0x20\n      add\n      dup3\n      dup1\n      sload\n      dup1\n      iszero\n      tag_192\n      jumpi\n      0x20\n      mul\n      dup3\n      add\n      swap2\n      swap1\n      0x00\n      mstore\n      keccak256(0x00, 0x20)\n      swap1\n    tag_193:\n      dup2\n      sload\n      dup2\n      mstore\n      0x20\n      add\n      swap1\n      0x01\n      add\n      swap1\n      dup1\n      dup4\n      gt\n      tag_193\n      jumpi\n    tag_192:\n      pop\n      pop\n      pop\n      pop\n      pop\n      swap2\n      pop\n      pop\n        /* \"Inheritance.sol\":12475:12770  function getNFTDeedsByHeirAddress(... */\n      swap2\n      swap1\n      pop\n      jump\t// out\n        /* \"Inheritance.sol\":12661:12754  if (heirs[i].heir == heirAddress) {... */\n    tag_188:\n        /* \"Inheritance.sol\":12642:12645  i++ */\n      dup1\n      tag_194\n      dup2\n      tag_195\n      jump\t// in\n    tag_194:\n      swap2\n      pop\n      pop\n        /* \"Inheritance.sol\":12604:12764  for (uint256 i = 0; i < heirs.length; i++) {... */\n      jump(tag_181)\n    tag_182:\n      pop\n        /* \"Inheritance.sol\":12475:12770  function getNFTDeedsByHeirAddress(... */\n      swap2\n      swap1\n      pop\n      jump\t// out\n        /* \"Inheritance.sol\":11271:11381  function getUSDCBalance() public view returns (uint256) {... */\n    tag_66:\n        /* \"Inheritance.sol\":11344:11349  token */\n      sload(0x0a)\n        /* \"Inheritance.sol\":11344:11374  token.balanceOf(address(this)) */\n      mload(0x40)\n      shl(0xe0, 0x70a08231)\n      dup2\n      mstore\n        /* \"Inheritance.sol\":11368:11372  this */\n      address\n        /* \"Inheritance.sol\":11344:11374  token.balanceOf(address(this)) */\n      0x04\n      dup3\n      add\n        /* \"#utility.yul\":4002:4053   */\n      mstore\n        /* \"Inheritance.sol\":11318:11325  uint256 */\n      0x00\n      swap2\n      sub(shl(0xa0, 0x01), 0x01)\n        /* \"Inheritance.sol\":11344:11349  token */\n      and\n      swap1\n        /* \"Inheritance.sol\":11344:11359  token.balanceOf */\n      0x70a08231\n      swap1\n        /* \"#utility.yul\":3975:3993   */\n      0x24\n      add\n        /* \"Inheritance.sol\":11344:11374  token.balanceOf(address(this)) */\n      0x20\n      mload(0x40)\n      dup1\n      dup4\n      sub\n      dup2\n      dup7\n      gas\n      staticcall\n      iszero\n      dup1\n      iszero\n      tag_199\n      jumpi\n      returndatasize\n      0x00\n      dup1\n      returndatacopy\n      revert(0x00, returndatasize)\n    tag_199:\n      pop\n      pop\n      pop\n      pop\n      mload(0x40)\n      returndatasize\n      not(0x1f)\n      0x1f\n      dup3\n      add\n      and\n      dup3\n      add\n      dup1\n      0x40\n      mstore\n      pop\n      dup2\n      add\n      swap1\n      tag_200\n      swap2\n      swap1\n      tag_201\n      jump\t// in\n    tag_200:\n        /* \"Inheritance.sol\":11337:11374  return token.balanceOf(address(this)) */\n      swap1\n      pop\n        /* \"Inheritance.sol\":11271:11381  function getUSDCBalance() public view returns (uint256) {... */\n      swap1\n      jump\t// out\n        /* \"Inheritance.sol\":11600:11889  function getHeirByAddress(address heirAddress) public view returns (Heir memory) {... */\n    tag_71:\n        /* \"Inheritance.sol\":11668:11679  Heir memory */\n      tag_202\n      mload(0x40)\n      dup1\n      0xa0\n      add\n      0x40\n      mstore\n      dup1\n      and(sub(shl(0xa0, 0x01), 0x01), 0x00)\n      dup2\n      mstore\n      0x20\n      add\n      0x00\n      dup2\n      mstore\n      0x20\n      add\n      0x00\n      dup2\n      mstore\n      0x20\n      add\n      0x00\n      dup2\n      mstore\n      0x20\n      add\n      0x60\n      dup2\n      mstore\n      pop\n      swap1\n      jump\n    tag_202:\n        /* \"Inheritance.sol\":11696:11705  uint256 i */\n      0x00\n        /* \"Inheritance.sol\":11691:11840  for (uint256 i = 0; i < heirs.length; i++) {... */\n    tag_205:\n        /* \"Inheritance.sol\":11715:11720  heirs */\n      0x05\n        /* \"Inheritance.sol\":11715:11727  heirs.length */\n      sload\n        /* \"Inheritance.sol\":11711:11727  i < heirs.length */\n      dup2\n      lt\n        /* \"Inheritance.sol\":11691:11840  for (uint256 i = 0; i < heirs.length; i++) {... */\n      iszero\n      tag_206\n      jumpi\n        /* \"Inheritance.sol\":11769:11780  heirAddress */\n      dup3\n      sub(shl(0xa0, 0x01), 0x01)\n        /* \"Inheritance.sol\":11752:11780  heirs[i].heir == heirAddress */\n      and\n        /* \"Inheritance.sol\":11752:11757  heirs */\n      0x05\n        /* \"Inheritance.sol\":11758:11759  i */\n      dup3\n        /* \"Inheritance.sol\":11752:11760  heirs[i] */\n      dup2\n      sload\n      dup2\n      lt\n      tag_209\n      jumpi\n      tag_209\n      tag_186\n      jump\t// in\n    tag_209:\n      0x00\n      swap2\n      dup3\n      mstore\n      0x20\n      swap1\n      swap2\n      keccak256\n      0x05\n      swap1\n      swap2\n      mul\n      add\n        /* \"Inheritance.sol\":11752:11765  heirs[i].heir */\n      sload\n      sub(shl(0xa0, 0x01), 0x01)\n      and\n        /* \"Inheritance.sol\":11752:11780  heirs[i].heir == heirAddress */\n      sub\n        /* \"Inheritance.sol\":11748:11830  if (heirs[i].heir == heirAddress) {... */\n      tag_211\n      jumpi\n        /* \"Inheritance.sol\":11807:11812  heirs */\n      0x05\n        /* \"Inheritance.sol\":11813:11814  i */\n      dup2\n        /* \"Inheritance.sol\":11807:11815  heirs[i] */\n      dup2\n      sload\n      dup2\n      lt\n      tag_213\n      jumpi\n      tag_213\n      tag_186\n      jump\t// in\n    tag_213:\n      0x00\n      swap2\n      dup3\n      mstore\n      0x20\n      swap2\n      dup3\n      swap1\n      keccak256\n        /* \"Inheritance.sol\":11800:11815  return heirs[i] */\n      0x40\n      dup1\n      mload\n      0xa0\n      dup2\n      add\n      dup3\n      mstore\n        /* \"Inheritance.sol\":11807:11815  heirs[i] */\n      0x05\n      swap1\n      swap4\n      mul\n      swap1\n      swap2\n      add\n        /* \"Inheritance.sol\":11800:11815  return heirs[i] */\n      dup1\n      sload\n      sub(shl(0xa0, 0x01), 0x01)\n      and\n      dup4\n      mstore\n      0x01\n      dup2\n      add\n      sload\n      dup4\n      dup6\n      add\n      mstore\n      0x02\n      dup2\n      add\n      sload\n      dup4\n      dup4\n      add\n      mstore\n      0x03\n      dup2\n      add\n      sload\n      0x60\n      dup5\n      add\n      mstore\n      0x04\n      dup2\n      add\n      dup1\n      sload\n      dup4\n      mload\n      dup2\n      dup8\n      mul\n      dup2\n      add\n      dup8\n      add\n      swap1\n      swap5\n      mstore\n      dup1\n      dup5\n      mstore\n      swap4\n      swap5\n        /* \"Inheritance.sol\":11807:11815  heirs[i] */\n      swap2\n      swap4\n        /* \"Inheritance.sol\":11800:11815  return heirs[i] */\n      0x80\n      dup7\n      add\n      swap4\n      swap3\n      dup4\n      add\n      dup3\n      dup3\n      dup1\n      iszero\n      tag_215\n      jumpi\n      0x20\n      mul\n      dup3\n      add\n      swap2\n      swap1\n      0x00\n      mstore\n      keccak256(0x00, 0x20)\n      swap1\n    tag_216:\n      dup2\n      sload\n      dup2\n      mstore\n      0x20\n      add\n      swap1\n      0x01\n      add\n      swap1\n      dup1\n      dup4\n      gt\n      tag_216\n      jumpi\n    tag_215:\n      pop\n      pop\n      pop\n      pop\n      pop\n      dup2\n      mstore\n      pop\n      pop\n      swap2\n      pop\n      pop\n        /* \"Inheritance.sol\":11600:11889  function getHeirByAddress(address heirAddress) public view returns (Heir memory) {... */\n      swap2\n      swap1\n      pop\n      jump\t// out\n        /* \"Inheritance.sol\":11748:11830  if (heirs[i].heir == heirAddress) {... */\n    tag_211:\n        /* \"Inheritance.sol\":11729:11732  i++ */\n      dup1\n      tag_217\n      dup2\n      tag_195\n      jump\t// in\n    tag_217:\n      swap2\n      pop\n      pop\n        /* \"Inheritance.sol\":11691:11840  for (uint256 i = 0; i < heirs.length; i++) {... */\n      jump(tag_205)\n    tag_206:\n      pop\n        /* \"Inheritance.sol\":11849:11882  require(false, \"Heir not found.\") */\n      mload(0x40)\n      shl(0xe5, 0x461bcd)\n      dup2\n      mstore\n        /* \"#utility.yul\":6562:6564   */\n      0x20\n        /* \"Inheritance.sol\":11849:11882  require(false, \"Heir not found.\") */\n      0x04\n      dup3\n      add\n        /* \"#utility.yul\":6544:6565   */\n      mstore\n        /* \"#utility.yul\":6601:6603   */\n      0x0f\n        /* \"#utility.yul\":6581:6599   */\n      0x24\n      dup3\n      add\n        /* \"#utility.yul\":6574:6604   */\n      mstore\n      shl(0x89, 0x2432b4b9103737ba103337bab73217)\n        /* \"#utility.yul\":6620:6638   */\n      0x44\n      dup3\n      add\n        /* \"#utility.yul\":6613:6658   */\n      mstore\n        /* \"#utility.yul\":6675:6693   */\n      0x64\n      add\n        /* \"Inheritance.sol\":11849:11882  require(false, \"Heir not found.\") */\n      tag_173\n        /* \"#utility.yul\":6360:6699   */\n      jump\n        /* \"Inheritance.sol\":11849:11882  require(false, \"Heir not found.\") */\n    tag_218:\n        /* \"Inheritance.sol\":11600:11889  function getHeirByAddress(address heirAddress) public view returns (Heir memory) {... */\n      swap2\n      swap1\n      pop\n      jump\t// out\n        /* \"Inheritance.sol\":11509:11594  function getHeirs() public view returns (Heir[] memory) {... */\n    tag_76:\n        /* \"Inheritance.sol\":11550:11563  Heir[] memory */\n      0x60\n        /* \"Inheritance.sol\":11582:11587  heirs */\n      0x05\n        /* \"Inheritance.sol\":11575:11587  return heirs */\n      dup1\n      sload\n      dup1\n      0x20\n      mul\n      0x20\n      add\n      mload(0x40)\n      swap1\n      dup2\n      add\n      0x40\n      mstore\n      dup1\n      swap3\n      swap2\n      swap1\n      dup2\n      dup2\n      mstore\n      0x20\n      add\n      0x00\n      swap1\n    tag_222:\n      dup3\n      dup3\n      lt\n      iszero\n      tag_223\n      jumpi\n      0x00\n      dup5\n      dup2\n      mstore\n      0x20\n      swap1\n      dup2\n      swap1\n      keccak256\n      0x40\n      dup1\n      mload\n      0xa0\n      dup2\n      add\n      dup3\n      mstore\n      0x05\n      dup7\n      mul\n      swap1\n      swap3\n      add\n      dup1\n      sload\n      sub(shl(0xa0, 0x01), 0x01)\n      and\n      dup4\n      mstore\n      0x01\n      dup2\n      add\n      sload\n      dup4\n      dup6\n      add\n      mstore\n      0x02\n      dup2\n      add\n      sload\n      dup4\n      dup4\n      add\n      mstore\n      0x03\n      dup2\n      add\n      sload\n      0x60\n      dup5\n      add\n      mstore\n      0x04\n      dup2\n      add\n      dup1\n      sload\n      dup4\n      mload\n      dup2\n      dup8\n      mul\n      dup2\n      add\n      dup8\n      add\n      swap1\n      swap5\n      mstore\n      dup1\n      dup5\n      mstore\n      swap4\n      swap5\n      swap2\n      swap4\n      0x80\n      dup7\n      add\n      swap4\n      swap3\n      dup4\n      add\n      dup3\n      dup3\n      dup1\n      iszero\n      tag_225\n      jumpi\n      0x20\n      mul\n      dup3\n      add\n      swap2\n      swap1\n      0x00\n      mstore\n      keccak256(0x00, 0x20)\n      swap1\n    tag_226:\n      dup2\n      sload\n      dup2\n      mstore\n      0x20\n      add\n      swap1\n      0x01\n      add\n      swap1\n      dup1\n      dup4\n      gt\n      tag_226\n      jumpi\n    tag_225:\n      pop\n      pop\n      pop\n      pop\n      pop\n      dup2\n      mstore\n      pop\n      pop\n      dup2\n      mstore\n      0x20\n      add\n      swap1\n      0x01\n      add\n      swap1\n      jump(tag_222)\n    tag_223:\n      pop\n      pop\n      pop\n      pop\n      swap1\n      pop\n        /* \"Inheritance.sol\":11509:11594  function getHeirs() public view returns (Heir[] memory) {... */\n      swap1\n      jump\t// out\n        /* \"Inheritance.sol\":8687:9674  function addNFTDeed(... */\n    tag_89:\n        /* \"@openzeppelin/contracts/access/Ownable.sol\":1094:1107   */\n      tag_228\n        /* \"@openzeppelin/contracts/access/Ownable.sol\":1094:1105   */\n      tag_167\n        /* \"@openzeppelin/contracts/access/Ownable.sol\":1094:1107   */\n      jump\t// in\n    tag_228:\n        /* \"Inheritance.sol\":8797:8816  address currentHeir */\n      0x00\n        /* \"Inheritance.sol\":8819:8836  nftHeirs[tokenId] */\n      dup3\n      dup2\n      mstore\n        /* \"Inheritance.sol\":8819:8827  nftHeirs */\n      0x09\n        /* \"Inheritance.sol\":8819:8836  nftHeirs[tokenId] */\n      0x20\n      mstore\n      0x40\n      swap1\n      keccak256\n      sload\n      sub(shl(0xa0, 0x01), 0x01)\n      and\n        /* \"Inheritance.sol\":8850:8875  currentHeir != address(0) */\n      dup1\n      iszero\n        /* \"Inheritance.sol\":8846:9280  if (currentHeir != address(0)) {... */\n      tag_230\n      jumpi\n        /* \"Inheritance.sol\":8972:8981  uint256 i */\n      0x00\n        /* \"Inheritance.sol\":8967:9270  for (uint256 i = 0; i < heirs.length; i++) {... */\n    tag_231:\n        /* \"Inheritance.sol\":8991:8996  heirs */\n      0x05\n        /* \"Inheritance.sol\":8991:9003  heirs.length */\n      sload\n        /* \"Inheritance.sol\":8987:9003  i < heirs.length */\n      dup2\n      lt\n        /* \"Inheritance.sol\":8967:9270  for (uint256 i = 0; i < heirs.length; i++) {... */\n      iszero\n      tag_232\n      jumpi\n        /* \"Inheritance.sol\":9049:9060  currentHeir */\n      dup2\n      sub(shl(0xa0, 0x01), 0x01)\n        /* \"Inheritance.sol\":9032:9060  heirs[i].heir == currentHeir */\n      and\n        /* \"Inheritance.sol\":9032:9037  heirs */\n      0x05\n        /* \"Inheritance.sol\":9038:9039  i */\n      dup3\n        /* \"Inheritance.sol\":9032:9040  heirs[i] */\n      dup2\n      sload\n      dup2\n      lt\n      tag_235\n      jumpi\n      tag_235\n      tag_186\n      jump\t// in\n    tag_235:\n      0x00\n      swap2\n      dup3\n      mstore\n      0x20\n      swap1\n      swap2\n      keccak256\n      0x05\n      swap1\n      swap2\n      mul\n      add\n        /* \"Inheritance.sol\":9032:9045  heirs[i].heir */\n      sload\n      sub(shl(0xa0, 0x01), 0x01)\n      and\n        /* \"Inheritance.sol\":9032:9060  heirs[i].heir == currentHeir */\n      sub\n        /* \"Inheritance.sol\":9028:9256  if (heirs[i].heir == currentHeir) {... */\n      tag_237\n      jumpi\n        /* \"Inheritance.sol\":9084:9097  uint256 index */\n      0x00\n        /* \"Inheritance.sol\":9100:9142  indexOfToken(heirs[i].NFTDeedIds, tokenId) */\n      tag_238\n        /* \"Inheritance.sol\":9113:9118  heirs */\n      0x05\n        /* \"Inheritance.sol\":9119:9120  i */\n      dup4\n        /* \"Inheritance.sol\":9113:9121  heirs[i] */\n      dup2\n      sload\n      dup2\n      lt\n      tag_240\n      jumpi\n      tag_240\n      tag_186\n      jump\t// in\n    tag_240:\n      swap1\n      0x00\n      mstore\n      keccak256(0x00, 0x20)\n      swap1\n      0x05\n      mul\n      add\n        /* \"Inheritance.sol\":9113:9132  heirs[i].NFTDeedIds */\n      0x04\n      add\n        /* \"Inheritance.sol\":9134:9141  tokenId */\n      dup7\n        /* \"Inheritance.sol\":9100:9112  indexOfToken */\n      tag_242\n        /* \"Inheritance.sol\":9100:9142  indexOfToken(heirs[i].NFTDeedIds, tokenId) */\n      jump\t// in\n    tag_238:\n        /* \"Inheritance.sol\":9084:9142  uint256 index = indexOfToken(heirs[i].NFTDeedIds, tokenId) */\n      swap1\n      pop\n        /* \"Inheritance.sol\":9164:9210  removeTokenAtIndex(heirs[i].NFTDeedIds, index) */\n      tag_243\n        /* \"Inheritance.sol\":9183:9188  heirs */\n      0x05\n        /* \"Inheritance.sol\":9189:9190  i */\n      dup4\n        /* \"Inheritance.sol\":9183:9191  heirs[i] */\n      dup2\n      sload\n      dup2\n      lt\n      tag_245\n      jumpi\n      tag_245\n      tag_186\n      jump\t// in\n    tag_245:\n      swap1\n      0x00\n      mstore\n      keccak256(0x00, 0x20)\n      swap1\n      0x05\n      mul\n      add\n        /* \"Inheritance.sol\":9183:9202  heirs[i].NFTDeedIds */\n      0x04\n      add\n        /* \"Inheritance.sol\":9204:9209  index */\n      dup3\n        /* \"Inheritance.sol\":9164:9182  removeTokenAtIndex */\n      tag_247\n        /* \"Inheritance.sol\":9164:9210  removeTokenAtIndex(heirs[i].NFTDeedIds, index) */\n      jump\t// in\n    tag_243:\n        /* \"Inheritance.sol\":9232:9237  break */\n      pop\n      jump(tag_232)\n        /* \"Inheritance.sol\":9028:9256  if (heirs[i].heir == currentHeir) {... */\n    tag_237:\n        /* \"Inheritance.sol\":9005:9008  i++ */\n      dup1\n      tag_248\n      dup2\n      tag_195\n      jump\t// in\n    tag_248:\n      swap2\n      pop\n      pop\n        /* \"Inheritance.sol\":8967:9270  for (uint256 i = 0; i < heirs.length; i++) {... */\n      jump(tag_231)\n    tag_232:\n      pop\n        /* \"Inheritance.sol\":8846:9280  if (currentHeir != address(0)) {... */\n    tag_230:\n        /* \"Inheritance.sol\":9360:9369  uint256 i */\n      0x00\n        /* \"Inheritance.sol\":9355:9601  for (uint256 i = 0; i < heirs.length; i++) {... */\n    tag_249:\n        /* \"Inheritance.sol\":9379:9384  heirs */\n      0x05\n        /* \"Inheritance.sol\":9379:9391  heirs.length */\n      sload\n        /* \"Inheritance.sol\":9375:9391  i < heirs.length */\n      dup2\n      lt\n        /* \"Inheritance.sol\":9355:9601  for (uint256 i = 0; i < heirs.length; i++) {... */\n      iszero\n      tag_250\n      jumpi\n        /* \"Inheritance.sol\":9433:9447  newHeirAddress */\n      dup3\n      sub(shl(0xa0, 0x01), 0x01)\n        /* \"Inheritance.sol\":9416:9447  heirs[i].heir == newHeirAddress */\n      and\n        /* \"Inheritance.sol\":9416:9421  heirs */\n      0x05\n        /* \"Inheritance.sol\":9422:9423  i */\n      dup3\n        /* \"Inheritance.sol\":9416:9424  heirs[i] */\n      dup2\n      sload\n      dup2\n      lt\n      tag_253\n      jumpi\n      tag_253\n      tag_186\n      jump\t// in\n    tag_253:\n      0x00\n      swap2\n      dup3\n      mstore\n      0x20\n      swap1\n      swap2\n      keccak256\n      0x05\n      swap1\n      swap2\n      mul\n      add\n        /* \"Inheritance.sol\":9416:9429  heirs[i].heir */\n      sload\n      sub(shl(0xa0, 0x01), 0x01)\n      and\n        /* \"Inheritance.sol\":9416:9447  heirs[i].heir == newHeirAddress */\n      sub\n        /* \"Inheritance.sol\":9412:9591  if (heirs[i].heir == newHeirAddress) {... */\n      tag_255\n      jumpi\n        /* \"Inheritance.sol\":9467:9472  heirs */\n      0x05\n        /* \"Inheritance.sol\":9473:9474  i */\n      dup2\n        /* \"Inheritance.sol\":9467:9475  heirs[i] */\n      dup2\n      sload\n      dup2\n      lt\n      tag_257\n      jumpi\n      tag_257\n      tag_186\n      jump\t// in\n    tag_257:\n      0x00\n      swap2\n      dup3\n      mstore\n      0x20\n      dup1\n      dup4\n      keccak256\n      0x05\n      swap3\n      swap1\n      swap3\n      mul\n      swap1\n      swap2\n      add\n        /* \"Inheritance.sol\":9467:9486  heirs[i].NFTDeedIds */\n      0x04\n      add\n        /* \"Inheritance.sol\":9467:9500  heirs[i].NFTDeedIds.push(tokenId) */\n      dup1\n      sload\n      0x01\n      dup2\n      add\n      dup3\n      sstore\n      swap1\n      dup4\n      mstore\n      dup2\n      dup4\n      keccak256\n      add\n      dup7\n      swap1\n      sstore\n        /* \"Inheritance.sol\":9518:9535  nftHeirs[tokenId] */\n      dup6\n      dup3\n      mstore\n        /* \"Inheritance.sol\":9518:9526  nftHeirs */\n      0x09\n        /* \"Inheritance.sol\":9518:9535  nftHeirs[tokenId] */\n      swap1\n      mstore\n      0x40\n      swap1\n      keccak256\n        /* \"Inheritance.sol\":9518:9552  nftHeirs[tokenId] = newHeirAddress */\n      dup1\n      sload\n      not(sub(shl(0xa0, 0x01), 0x01))\n      and\n      sub(shl(0xa0, 0x01), 0x01)\n      dup6\n      and\n      or\n      swap1\n      sstore\n      pop\n        /* \"Inheritance.sol\":9570:9577  return; */\n      tag_179\n      swap1\n      pop\n      jump\n        /* \"Inheritance.sol\":9412:9591  if (heirs[i].heir == newHeirAddress) {... */\n    tag_255:\n        /* \"Inheritance.sol\":9393:9396  i++ */\n      dup1\n      tag_260\n      dup2\n      tag_195\n      jump\t// in\n    tag_260:\n      swap2\n      pop\n      pop\n        /* \"Inheritance.sol\":9355:9601  for (uint256 i = 0; i < heirs.length; i++) {... */\n      jump(tag_249)\n    tag_250:\n      pop\n        /* \"Inheritance.sol\":9610:9667  require(false, \"New heir address not found among heirs.\") */\n      mload(0x40)\n      shl(0xe5, 0x461bcd)\n      dup2\n      mstore\n        /* \"#utility.yul\":6906:6908   */\n      0x20\n        /* \"Inheritance.sol\":9610:9667  require(false, \"New heir address not found among heirs.\") */\n      0x04\n      dup3\n      add\n        /* \"#utility.yul\":6888:6909   */\n      mstore\n        /* \"#utility.yul\":6945:6947   */\n      0x27\n        /* \"#utility.yul\":6925:6943   */\n      0x24\n      dup3\n      add\n        /* \"#utility.yul\":6918:6948   */\n      mstore\n        /* \"#utility.yul\":6984:7018   */\n      0x4e657720686569722061646472657373206e6f7420666f756e6420616d6f6e67\n        /* \"#utility.yul\":6964:6982   */\n      0x44\n      dup3\n      add\n        /* \"#utility.yul\":6957:7019   */\n      mstore\n      shl(0xc9, 0x103432b4b93997)\n        /* \"#utility.yul\":7035:7053   */\n      0x64\n      dup3\n      add\n        /* \"#utility.yul\":7028:7065   */\n      mstore\n        /* \"#utility.yul\":7082:7101   */\n      0x84\n      add\n        /* \"Inheritance.sol\":9610:9667  require(false, \"New heir address not found among heirs.\") */\n      tag_173\n        /* \"#utility.yul\":6704:7107   */\n      jump\n        /* \"Inheritance.sol\":5673:6019  function requestInheritance(... */\n    tag_93:\n        /* \"Inheritance.sol\":12975:12980  heirs */\n      0x05\n        /* \"Inheritance.sol\":12975:12987  heirs.length */\n      sload\n        /* \"Inheritance.sol\":5771:5780  requester */\n      dup2\n      swap1\n        /* \"Inheritance.sol\":12990:12993  100 */\n      0x64\n      gt\n        /* \"Inheritance.sol\":12967:13037  require(heirs.length < 100, \"Already reached the limit of 100 heirs.\") */\n      tag_265\n      jumpi\n      mload(0x40)\n      shl(0xe5, 0x461bcd)\n      dup2\n      mstore\n        /* \"#utility.yul\":7314:7316   */\n      0x20\n        /* \"Inheritance.sol\":12967:13037  require(heirs.length < 100, \"Already reached the limit of 100 heirs.\") */\n      0x04\n      dup3\n      add\n        /* \"#utility.yul\":7296:7317   */\n      mstore\n        /* \"#utility.yul\":7353:7355   */\n      0x27\n        /* \"#utility.yul\":7333:7351   */\n      0x24\n      dup3\n      add\n        /* \"#utility.yul\":7326:7356   */\n      mstore\n        /* \"#utility.yul\":7392:7426   */\n      0x416c7265616479207265616368656420746865206c696d6974206f6620313030\n        /* \"#utility.yul\":7372:7390   */\n      0x44\n      dup3\n      add\n        /* \"#utility.yul\":7365:7427   */\n      mstore\n      shl(0xc9, 0x103432b4b93997)\n        /* \"#utility.yul\":7443:7461   */\n      0x64\n      dup3\n      add\n        /* \"#utility.yul\":7436:7473   */\n      mstore\n        /* \"#utility.yul\":7490:7509   */\n      0x84\n      add\n        /* \"Inheritance.sol\":12967:13037  require(heirs.length < 100, \"Already reached the limit of 100 heirs.\") */\n      tag_173\n        /* \"#utility.yul\":7112:7515   */\n      jump\n        /* \"Inheritance.sol\":12967:13037  require(heirs.length < 100, \"Already reached the limit of 100 heirs.\") */\n    tag_265:\n        /* \"Inheritance.sol\":13068:13087  inheritanceRequests */\n      0x06\n        /* \"Inheritance.sol\":13068:13094  inheritanceRequests.length */\n      sload\n        /* \"Inheritance.sol\":13097:13100  100 */\n      0x64\n      gt\n        /* \"Inheritance.sol\":13047:13180  require(... */\n      tag_268\n      jumpi\n      mload(0x40)\n      shl(0xe5, 0x461bcd)\n      dup2\n      mstore\n        /* \"#utility.yul\":7722:7724   */\n      0x20\n        /* \"Inheritance.sol\":13047:13180  require(... */\n      0x04\n      dup3\n      add\n        /* \"#utility.yul\":7704:7725   */\n      mstore\n        /* \"#utility.yul\":7761:7763   */\n      0x36\n        /* \"#utility.yul\":7741:7759   */\n      0x24\n      dup3\n      add\n        /* \"#utility.yul\":7734:7764   */\n      mstore\n        /* \"#utility.yul\":7800:7834   */\n      0x416c7265616479207265616368656420746865206c696d6974206f6620313030\n        /* \"#utility.yul\":7780:7798   */\n      0x44\n      dup3\n      add\n        /* \"#utility.yul\":7773:7835   */\n      mstore\n      shl(0x51, 0x1034b73432b934ba30b731b2903932b8bab2b9ba3997)\n        /* \"#utility.yul\":7851:7869   */\n      0x64\n      dup3\n      add\n        /* \"#utility.yul\":7844:7896   */\n      mstore\n        /* \"#utility.yul\":7913:7932   */\n      0x84\n      add\n        /* \"Inheritance.sol\":13047:13180  require(... */\n      tag_173\n        /* \"#utility.yul\":7520:7938   */\n      jump\n        /* \"Inheritance.sol\":13047:13180  require(... */\n    tag_268:\n        /* \"Inheritance.sol\":13196:13202  uint i */\n      0x00\n        /* \"Inheritance.sol\":13191:13400  for (uint i = 0; i < inheritanceRequests.length; i++) {... */\n    tag_271:\n        /* \"Inheritance.sol\":13212:13231  inheritanceRequests */\n      0x06\n        /* \"Inheritance.sol\":13212:13238  inheritanceRequests.length */\n      sload\n        /* \"Inheritance.sol\":13208:13238  i < inheritanceRequests.length */\n      dup2\n      lt\n        /* \"Inheritance.sol\":13191:13400  for (uint i = 0; i < inheritanceRequests.length; i++) {... */\n      iszero\n      tag_272\n      jumpi\n        /* \"Inheritance.sol\":13310:13314  addr */\n      dup2\n      sub(shl(0xa0, 0x01), 0x01)\n        /* \"Inheritance.sol\":13284:13314  inheritanceRequests[i] != addr */\n      and\n        /* \"Inheritance.sol\":13284:13303  inheritanceRequests */\n      0x06\n        /* \"Inheritance.sol\":13304:13305  i */\n      dup3\n        /* \"Inheritance.sol\":13284:13306  inheritanceRequests[i] */\n      dup2\n      sload\n      dup2\n      lt\n      tag_275\n      jumpi\n      tag_275\n      tag_186\n      jump\t// in\n    tag_275:\n      0x00\n      swap2\n      dup3\n      mstore\n      0x20\n      swap1\n      swap2\n      keccak256\n      add\n      sload\n      sub(shl(0xa0, 0x01), 0x01)\n      and\n        /* \"Inheritance.sol\":13284:13314  inheritanceRequests[i] != addr */\n      sub\n        /* \"Inheritance.sol\":13259:13389  require(... */\n      tag_277\n      jumpi\n      mload(0x40)\n      shl(0xe5, 0x461bcd)\n      dup2\n      mstore\n        /* \"#utility.yul\":8145:8147   */\n      0x20\n        /* \"Inheritance.sol\":13259:13389  require(... */\n      0x04\n      dup3\n      add\n        /* \"#utility.yul\":8127:8148   */\n      mstore\n        /* \"#utility.yul\":8184:8186   */\n      0x29\n        /* \"#utility.yul\":8164:8182   */\n      0x24\n      dup3\n      add\n        /* \"#utility.yul\":8157:8187   */\n      mstore\n        /* \"#utility.yul\":8223:8257   */\n      0x4164647265737320616c72656164792065786973747320696e20726571756573\n        /* \"#utility.yul\":8203:8221   */\n      0x44\n      dup3\n      add\n        /* \"#utility.yul\":8196:8258   */\n      mstore\n      shl(0xb9, 0x3a399030b93930bc97)\n        /* \"#utility.yul\":8274:8292   */\n      0x64\n      dup3\n      add\n        /* \"#utility.yul\":8267:8306   */\n      mstore\n        /* \"#utility.yul\":8323:8342   */\n      0x84\n      add\n        /* \"Inheritance.sol\":13259:13389  require(... */\n      tag_173\n        /* \"#utility.yul\":7943:8348   */\n      jump\n        /* \"Inheritance.sol\":13259:13389  require(... */\n    tag_277:\n        /* \"Inheritance.sol\":13240:13243  i++ */\n      dup1\n      tag_280\n      dup2\n      tag_195\n      jump\t// in\n    tag_280:\n      swap2\n      pop\n      pop\n        /* \"Inheritance.sol\":13191:13400  for (uint i = 0; i < inheritanceRequests.length; i++) {... */\n      jump(tag_271)\n    tag_272:\n      pop\n        /* \"Inheritance.sol\":5792:5811  inheritanceRequests */\n      0x06\n        /* \"Inheritance.sol\":5792:5827  inheritanceRequests.push(requester) */\n      dup1\n      sload\n      0x01\n      dup2\n      add\n      dup3\n      sstore\n      0x00\n      dup3\n      swap1\n      mstore\n      0xf652222313e28459528d920b65115c16c04f3efc82aaedc97be59f3f377c0d3f\n      add\n      dup1\n      sload\n      not(sub(shl(0xa0, 0x01), 0x01))\n      and\n      sub(shl(0xa0, 0x01), 0x01)\n      dup6\n      and\n      swap1\n      dup2\n      or\n      swap1\n      swap2\n      sstore\n        /* \"Inheritance.sol\":5950:5976  inheritanceRequests.length */\n      swap1\n      sload\n        /* \"Inheritance.sol\":5990:5995  heirs */\n      0x05\n        /* \"Inheritance.sol\":5990:6002  heirs.length */\n      sload\n        /* \"Inheritance.sol\":5842:6012  LogRequestToBeHeir(... */\n      0x40\n      dup1\n      mload\n        /* \"#utility.yul\":8611:8613   */\n      0x60\n        /* \"#utility.yul\":8593:8614   */\n      dup1\n      dup3\n      mstore\n        /* \"#utility.yul\":8650:8652   */\n      0x25\n        /* \"#utility.yul\":8630:8648   */\n      swap1\n      dup3\n      add\n        /* \"#utility.yul\":8623:8653   */\n      mstore\n        /* \"#utility.yul\":8690:8724   */\n      0x5573657220726571756573747320746f20626520616464656420617320616e20\n        /* \"#utility.yul\":8684:8687   */\n      0x80\n        /* \"#utility.yul\":8669:8688   */\n      dup3\n      add\n        /* \"#utility.yul\":8662:8725   */\n      mstore\n      shl(0xd9, 0x3432b4b917)\n        /* \"#utility.yul\":8756:8759   */\n      0xa0\n        /* \"#utility.yul\":8741:8760   */\n      dup3\n      add\n        /* \"#utility.yul\":8734:8770   */\n      mstore\n        /* \"#utility.yul\":8837:8841   */\n      0x20\n        /* \"#utility.yul\":8822:8842   */\n      dup2\n      add\n        /* \"#utility.yul\":8815:8851   */\n      swap4\n      swap1\n      swap4\n      mstore\n        /* \"#utility.yul\":8867:8885   */\n      dup3\n      add\n        /* \"#utility.yul\":8860:8894   */\n      mstore\n        /* \"Inheritance.sol\":5842:6012  LogRequestToBeHeir(... */\n      0xe6096ebfc672773ae3076e8ae873cb450789130e8c0d87b2b933210acdc08f66\n      swap1\n        /* \"#utility.yul\":8802:8805   */\n      0xc0\n        /* \"#utility.yul\":8787:8806   */\n      add\n        /* \"Inheritance.sol\":5842:6012  LogRequestToBeHeir(... */\n      mload(0x40)\n      dup1\n      swap2\n      sub\n      swap1\n      log2\n        /* \"Inheritance.sol\":5673:6019  function requestInheritance(... */\n      pop\n      pop\n      jump\t// out\n        /* \"@openzeppelin/contracts/access/Ownable.sol\":1831:1932   */\n    tag_96:\n        /* \"@openzeppelin/contracts/access/Ownable.sol\":1094:1107   */\n      tag_286\n        /* \"@openzeppelin/contracts/access/Ownable.sol\":1094:1105   */\n      tag_167\n        /* \"@openzeppelin/contracts/access/Ownable.sol\":1094:1107   */\n      jump\t// in\n    tag_286:\n        /* \"@openzeppelin/contracts/access/Ownable.sol\":1895:1925   */\n      tag_288\n        /* \"@openzeppelin/contracts/access/Ownable.sol\":1922:1923   */\n      0x00\n        /* \"@openzeppelin/contracts/access/Ownable.sol\":1895:1913   */\n      tag_289\n        /* \"@openzeppelin/contracts/access/Ownable.sol\":1895:1925   */\n      jump\t// in\n    tag_288:\n        /* \"@openzeppelin/contracts/access/Ownable.sol\":1831:1932   */\n      jump\t// out\n        /* \"Inheritance.sol\":6025:6544  function acceptInheritanceRequest(... */\n    tag_101:\n        /* \"@openzeppelin/contracts/access/Ownable.sol\":1094:1107   */\n      tag_291\n        /* \"@openzeppelin/contracts/access/Ownable.sol\":1094:1105   */\n      tag_167\n        /* \"@openzeppelin/contracts/access/Ownable.sol\":1094:1107   */\n      jump\t// in\n    tag_291:\n        /* \"Inheritance.sol\":6181:6186  index */\n      dup3\n        /* \"Inheritance.sol\":6188:6197  requester */\n      dup3\n        /* \"Inheritance.sol\":6199:6204  share */\n      dup3\n        /* \"Inheritance.sol\":13571:13590  inheritanceRequests */\n      0x06\n        /* \"Inheritance.sol\":13571:13597  inheritanceRequests.length */\n      dup1\n      sload\n      swap1\n      pop\n        /* \"Inheritance.sol\":13563:13568  index */\n      dup4\n        /* \"Inheritance.sol\":13563:13597  index < inheritanceRequests.length */\n      lt\n        /* \"Inheritance.sol\":13542:13679  require(... */\n      tag_293\n      jumpi\n      mload(0x40)\n      shl(0xe5, 0x461bcd)\n      dup2\n      mstore\n      0x04\n      add\n      tag_173\n      swap1\n      tag_295\n      jump\t// in\n    tag_293:\n        /* \"Inheritance.sol\":13740:13744  addr */\n      dup2\n      sub(shl(0xa0, 0x01), 0x01)\n        /* \"Inheritance.sol\":13710:13744  inheritanceRequests[index] == addr */\n      and\n        /* \"Inheritance.sol\":13710:13729  inheritanceRequests */\n      0x06\n        /* \"Inheritance.sol\":13730:13735  index */\n      dup5\n        /* \"Inheritance.sol\":13710:13736  inheritanceRequests[index] */\n      dup2\n      sload\n      dup2\n      lt\n      tag_297\n      jumpi\n      tag_297\n      tag_186\n      jump\t// in\n    tag_297:\n      0x00\n      swap2\n      dup3\n      mstore\n      0x20\n      swap1\n      swap2\n      keccak256\n      add\n      sload\n      sub(shl(0xa0, 0x01), 0x01)\n      and\n        /* \"Inheritance.sol\":13710:13744  inheritanceRequests[index] == addr */\n      eq\n        /* \"Inheritance.sol\":13689:13843  require(... */\n      tag_299\n      jumpi\n      mload(0x40)\n      shl(0xe5, 0x461bcd)\n      dup2\n      mstore\n      0x04\n      add\n      tag_173\n      swap1\n      tag_301\n      jump\t// in\n    tag_299:\n        /* \"Inheritance.sol\":13854:13873  uint256 totalShares */\n      0x00\n        /* \"Inheritance.sol\":13892:13898  uint i */\n      dup1\n        /* \"Inheritance.sol\":13887:14113  for (uint i = 0; i < heirs.length; i++) {... */\n    tag_302:\n        /* \"Inheritance.sol\":13908:13913  heirs */\n      0x05\n        /* \"Inheritance.sol\":13908:13920  heirs.length */\n      sload\n        /* \"Inheritance.sol\":13904:13920  i < heirs.length */\n      dup2\n      lt\n        /* \"Inheritance.sol\":13887:14113  for (uint i = 0; i < heirs.length; i++) {... */\n      iszero\n      tag_303\n      jumpi\n        /* \"Inheritance.sol\":13983:13987  addr */\n      dup4\n      sub(shl(0xa0, 0x01), 0x01)\n        /* \"Inheritance.sol\":13966:13987  heirs[i].heir != addr */\n      and\n        /* \"Inheritance.sol\":13966:13971  heirs */\n      0x05\n        /* \"Inheritance.sol\":13972:13973  i */\n      dup3\n        /* \"Inheritance.sol\":13966:13974  heirs[i] */\n      dup2\n      sload\n      dup2\n      lt\n      tag_306\n      jumpi\n      tag_306\n      tag_186\n      jump\t// in\n    tag_306:\n      0x00\n      swap2\n      dup3\n      mstore\n      0x20\n      swap1\n      swap2\n      keccak256\n      0x05\n      swap1\n      swap2\n      mul\n      add\n        /* \"Inheritance.sol\":13966:13979  heirs[i].heir */\n      sload\n      sub(shl(0xa0, 0x01), 0x01)\n      and\n        /* \"Inheritance.sol\":13966:13987  heirs[i].heir != addr */\n      sub\n        /* \"Inheritance.sol\":13941:14059  require(... */\n      tag_308\n      jumpi\n      mload(0x40)\n      shl(0xe5, 0x461bcd)\n      dup2\n      mstore\n        /* \"#utility.yul\":10014:10016   */\n      0x20\n        /* \"Inheritance.sol\":13941:14059  require(... */\n      0x04\n      dup3\n      add\n        /* \"#utility.yul\":9996:10017   */\n      mstore\n        /* \"#utility.yul\":10053:10055   */\n      0x26\n        /* \"#utility.yul\":10033:10051   */\n      0x24\n      dup3\n      add\n        /* \"#utility.yul\":10026:10056   */\n      mstore\n        /* \"#utility.yul\":10092:10126   */\n      0x4164647265737320616c72656164792065786973747320696e20686569727320\n        /* \"#utility.yul\":10072:10090   */\n      0x44\n      dup3\n      add\n        /* \"#utility.yul\":10065:10127   */\n      mstore\n      shl(0xd1, 0x30b93930bc97)\n        /* \"#utility.yul\":10143:10161   */\n      0x64\n      dup3\n      add\n        /* \"#utility.yul\":10136:10172   */\n      mstore\n        /* \"#utility.yul\":10189:10208   */\n      0x84\n      add\n        /* \"Inheritance.sol\":13941:14059  require(... */\n      tag_173\n        /* \"#utility.yul\":9812:10214   */\n      jump\n        /* \"Inheritance.sol\":13941:14059  require(... */\n    tag_308:\n        /* \"Inheritance.sol\":14088:14093  heirs */\n      0x05\n        /* \"Inheritance.sol\":14094:14095  i */\n      dup2\n        /* \"Inheritance.sol\":14088:14096  heirs[i] */\n      dup2\n      sload\n      dup2\n      lt\n      tag_312\n      jumpi\n      tag_312\n      tag_186\n      jump\t// in\n    tag_312:\n      swap1\n      0x00\n      mstore\n      keccak256(0x00, 0x20)\n      swap1\n      0x05\n      mul\n      add\n        /* \"Inheritance.sol\":14088:14102  heirs[i].share */\n      0x01\n      add\n      sload\n        /* \"Inheritance.sol\":14073:14102  totalShares += heirs[i].share */\n      dup3\n      tag_314\n      swap2\n      swap1\n      tag_315\n      jump\t// in\n    tag_314:\n      swap2\n      pop\n        /* \"Inheritance.sol\":13922:13925  i++ */\n      dup1\n      tag_316\n      dup2\n      tag_195\n      jump\t// in\n    tag_316:\n      swap2\n      pop\n      pop\n        /* \"Inheritance.sol\":13887:14113  for (uint i = 0; i < heirs.length; i++) {... */\n      jump(tag_302)\n    tag_303:\n      pop\n        /* \"Inheritance.sol\":14169:14172  100 */\n      0x64\n        /* \"Inheritance.sol\":14145:14164  totalShares + share */\n      tag_317\n        /* \"Inheritance.sol\":14159:14164  share */\n      dup4\n        /* \"Inheritance.sol\":14145:14156  totalShares */\n      dup4\n        /* \"Inheritance.sol\":14145:14164  totalShares + share */\n      tag_315\n      jump\t// in\n    tag_317:\n        /* \"Inheritance.sol\":14144:14172  (totalShares + share) <= 100 */\n      gt\n      iszero\n        /* \"Inheritance.sol\":14123:14290  require(... */\n      tag_318\n      jumpi\n      mload(0x40)\n      shl(0xe5, 0x461bcd)\n      dup2\n      mstore\n        /* \"#utility.yul\":10551:10553   */\n      0x20\n        /* \"Inheritance.sol\":14123:14290  require(... */\n      0x04\n      dup3\n      add\n        /* \"#utility.yul\":10533:10554   */\n      mstore\n        /* \"#utility.yul\":10590:10592   */\n      0x5c\n        /* \"#utility.yul\":10570:10588   */\n      0x24\n      dup3\n      add\n        /* \"#utility.yul\":10563:10593   */\n      mstore\n        /* \"#utility.yul\":10629:10663   */\n      0x74686520616d6f756e74206f6620736861726573206578636565642074686520\n        /* \"#utility.yul\":10609:10627   */\n      0x44\n      dup3\n      add\n        /* \"#utility.yul\":10602:10664   */\n      mstore\n        /* \"#utility.yul\":10700:10734   */\n      0x31303025206f662074686520496e6865726974616e63652c2074727920776974\n        /* \"#utility.yul\":10680:10698   */\n      0x64\n      dup3\n      add\n        /* \"#utility.yul\":10673:10735   */\n      mstore\n        /* \"#utility.yul\":10772:10802   */\n      0x68206120736d616c6c657220616d6f756e74206f662073686172652e00000000\n        /* \"#utility.yul\":10751:10770   */\n      0x84\n      dup3\n      add\n        /* \"#utility.yul\":10744:10803   */\n      mstore\n        /* \"#utility.yul\":10820:10839   */\n      0xa4\n      add\n        /* \"Inheritance.sol\":14123:14290  require(... */\n      tag_173\n        /* \"#utility.yul\":10349:10845   */\n      jump\n        /* \"Inheritance.sol\":14123:14290  require(... */\n    tag_318:\n        /* \"Inheritance.sol\":6264:6304  Heir(requester, share, 0, 0, emptyArray) */\n      0x40\n      dup1\n      mload\n      0xa0\n      dup2\n      add\n      dup3\n      mstore\n      sub(shl(0xa0, 0x01), 0x01)\n      dup9\n      dup2\n      and\n      dup3\n      mstore\n      0x20\n      dup1\n      dup4\n      add\n      dup10\n      dup2\n      mstore\n      0x00\n      swap5\n      dup5\n      add\n      dup6\n      dup2\n      mstore\n        /* \"Inheritance.sol\":6216:6243  uint256[] memory emptyArray */\n      0x60\n        /* \"Inheritance.sol\":6264:6304  Heir(requester, share, 0, 0, emptyArray) */\n      dup1\n      dup7\n      add\n      dup8\n      dup2\n      mstore\n      0x80\n      dup8\n      add\n      dup3\n      dup2\n      mstore\n        /* \"Inheritance.sol\":6253:6258  heirs */\n      0x05\n        /* \"Inheritance.sol\":6253:6305  heirs.push(Heir(requester, share, 0, 0, emptyArray)) */\n      dup1\n      sload\n      0x01\n      dup2\n      add\n      dup3\n      sstore\n      swap10\n      dup2\n      swap1\n      mstore\n      dup9\n      mload\n      0x036b6384b5eca791c62761152d0c79bb0604c104a5fb6f4eb0703f3154bb3db0\n      swap11\n      swap1\n      swap2\n      mul\n      swap10\n      dup11\n      add\n      dup1\n      sload\n      not(sub(shl(0xa0, 0x01), 0x01))\n      and\n      swap2\n      swap1\n      swap9\n      and\n      or\n      dup8\n      sstore\n      swap4\n      mload\n      0x036b6384b5eca791c62761152d0c79bb0604c104a5fb6f4eb0703f3154bb3db1\n      dup10\n      add\n      sstore\n      swap2\n      mload\n      0x036b6384b5eca791c62761152d0c79bb0604c104a5fb6f4eb0703f3154bb3db2\n      dup9\n      add\n      sstore\n      swap1\n      mload\n      0x036b6384b5eca791c62761152d0c79bb0604c104a5fb6f4eb0703f3154bb3db3\n      dup8\n      add\n      sstore\n      swap1\n      mload\n      dup1\n      mload\n        /* \"Inheritance.sol\":6216:6243  uint256[] memory emptyArray */\n      swap2\n      swap6\n        /* \"Inheritance.sol\":6253:6305  heirs.push(Heir(requester, share, 0, 0, emptyArray)) */\n      tag_323\n      swap4\n      0x036b6384b5eca791c62761152d0c79bb0604c104a5fb6f4eb0703f3154bb3db4\n      swap1\n      swap2\n      add\n      swap3\n      swap2\n      add\n      swap1\n      tag_324\n      jump\t// in\n    tag_323:\n      pop\n      pop\n      pop\n        /* \"Inheritance.sol\":6315:6335  removeRequest(index) */\n      tag_325\n        /* \"Inheritance.sol\":6329:6334  index */\n      dup9\n        /* \"Inheritance.sol\":6315:6328  removeRequest */\n      tag_326\n        /* \"Inheritance.sol\":6315:6335  removeRequest(index) */\n      jump\t// in\n    tag_325:\n        /* \"Inheritance.sol\":6475:6494  inheritanceRequests */\n      0x06\n        /* \"Inheritance.sol\":6475:6501  inheritanceRequests.length */\n      sload\n        /* \"Inheritance.sol\":6515:6520  heirs */\n      0x05\n        /* \"Inheritance.sol\":6515:6527  heirs.length */\n      sload\n        /* \"Inheritance.sol\":6350:6537  LogHeirAccepted(... */\n      0x40\n      dup1\n      mload\n        /* \"#utility.yul\":11136:11139   */\n      0x80\n        /* \"#utility.yul\":11118:11140   */\n      dup1\n      dup3\n      mstore\n        /* \"#utility.yul\":11177:11179   */\n      0x26\n        /* \"#utility.yul\":11156:11175   */\n      swap1\n      dup3\n      add\n        /* \"#utility.yul\":11149:11180   */\n      mstore\n        /* \"#utility.yul\":11217:11251   */\n      0x41646d696e6973747261746f722061636365707473207573657220617320616e\n        /* \"#utility.yul\":11211:11214   */\n      0xa0\n        /* \"#utility.yul\":11196:11215   */\n      dup3\n      add\n        /* \"#utility.yul\":11189:11252   */\n      mstore\n      shl(0xd1, 0x103432b4b917)\n        /* \"#utility.yul\":11283:11286   */\n      0xc0\n        /* \"#utility.yul\":11268:11287   */\n      dup3\n      add\n        /* \"#utility.yul\":11261:11298   */\n      mstore\n        /* \"#utility.yul\":11365:11369   */\n      0x20\n        /* \"#utility.yul\":11350:11370   */\n      dup2\n      add\n        /* \"#utility.yul\":11343:11379   */\n      dup11\n      swap1\n      mstore\n        /* \"#utility.yul\":11395:11413   */\n      swap1\n      dup2\n      add\n        /* \"#utility.yul\":11388:11422   */\n      swap3\n      swap1\n      swap3\n      mstore\n      0x60\n        /* \"#utility.yul\":11438:11456   */\n      dup3\n      add\n        /* \"#utility.yul\":11431:11465   */\n      mstore\n      sub(shl(0xa0, 0x01), 0x01)\n        /* \"Inheritance.sol\":6350:6537  LogHeirAccepted(... */\n      dup9\n      and\n      swap1\n      0x14aa904c12fa948b33e901e688a79d46fe3d46a383a5b181c26475cec40d67ec\n      swap1\n        /* \"#utility.yul\":11330:11333   */\n      0xe0\n        /* \"#utility.yul\":11315:11334   */\n      add\n        /* \"Inheritance.sol\":6350:6537  LogHeirAccepted(... */\n      mload(0x40)\n      dup1\n      swap2\n      sub\n      swap1\n      log2\n        /* \"Inheritance.sol\":6206:6544  {... */\n      pop\n        /* \"Inheritance.sol\":13532:14308  {... */\n      pop\n        /* \"@openzeppelin/contracts/access/Ownable.sol\":1117:1118   */\n      pop\n      pop\n      pop\n        /* \"Inheritance.sol\":6025:6544  function acceptInheritanceRequest(... */\n      pop\n      pop\n      pop\n      jump\t// out\n        /* \"Inheritance.sol\":7189:8681  function claimInheritance() public isHeir(msg.sender) {... */\n    tag_112:\n        /* \"Inheritance.sol\":7231:7241  msg.sender */\n      caller\n        /* \"Inheritance.sol\":14760:14774  bool isPresent */\n      0x00\n        /* \"Inheritance.sol\":14797:14803  uint i */\n      dup1\n        /* \"Inheritance.sol\":14792:14932  for (uint i = 0; i < heirs.length; i++) {... */\n    tag_332:\n        /* \"Inheritance.sol\":14813:14818  heirs */\n      0x05\n        /* \"Inheritance.sol\":14813:14825  heirs.length */\n      sload\n        /* \"Inheritance.sol\":14809:14825  i < heirs.length */\n      dup2\n      lt\n        /* \"Inheritance.sol\":14792:14932  for (uint i = 0; i < heirs.length; i++) {... */\n      iszero\n      tag_333\n      jumpi\n        /* \"Inheritance.sol\":14867:14871  addr */\n      dup3\n      sub(shl(0xa0, 0x01), 0x01)\n        /* \"Inheritance.sol\":14850:14871  heirs[i].heir == addr */\n      and\n        /* \"Inheritance.sol\":14850:14855  heirs */\n      0x05\n        /* \"Inheritance.sol\":14856:14857  i */\n      dup3\n        /* \"Inheritance.sol\":14850:14858  heirs[i] */\n      dup2\n      sload\n      dup2\n      lt\n      tag_336\n      jumpi\n      tag_336\n      tag_186\n      jump\t// in\n    tag_336:\n      0x00\n      swap2\n      dup3\n      mstore\n      0x20\n      swap1\n      swap2\n      keccak256\n      0x05\n      swap1\n      swap2\n      mul\n      add\n        /* \"Inheritance.sol\":14850:14863  heirs[i].heir */\n      sload\n      sub(shl(0xa0, 0x01), 0x01)\n      and\n        /* \"Inheritance.sol\":14850:14871  heirs[i].heir == addr */\n      sub\n        /* \"Inheritance.sol\":14846:14922  if (heirs[i].heir == addr) {... */\n      tag_338\n      jumpi\n        /* \"Inheritance.sol\":14903:14907  true */\n      0x01\n        /* \"Inheritance.sol\":14891:14907  isPresent = true */\n      swap2\n      pop\n        /* \"Inheritance.sol\":14846:14922  if (heirs[i].heir == addr) {... */\n    tag_338:\n        /* \"Inheritance.sol\":14827:14830  i++ */\n      dup1\n      tag_339\n      dup2\n      tag_195\n      jump\t// in\n    tag_339:\n      swap2\n      pop\n      pop\n        /* \"Inheritance.sol\":14792:14932  for (uint i = 0; i < heirs.length; i++) {... */\n      jump(tag_332)\n    tag_333:\n      pop\n        /* \"Inheritance.sol\":14975:14979  true */\n      0x01\n        /* \"Inheritance.sol\":14962:14979  isPresent == true */\n      dup2\n      iszero\n      iszero\n      eq\n        /* \"Inheritance.sol\":14941:15056  require(... */\n      tag_340\n      jumpi\n      mload(0x40)\n      shl(0xe5, 0x461bcd)\n      dup2\n      mstore\n        /* \"#utility.yul\":11678:11680   */\n      0x20\n        /* \"Inheritance.sol\":14941:15056  require(... */\n      0x04\n      dup3\n      add\n        /* \"#utility.yul\":11660:11681   */\n      mstore\n        /* \"#utility.yul\":11717:11719   */\n      0x33\n        /* \"#utility.yul\":11697:11715   */\n      0x24\n      dup3\n      add\n        /* \"#utility.yul\":11690:11720   */\n      mstore\n        /* \"#utility.yul\":11756:11790   */\n      0x546865206164647265737320636c61696d696e672074686520696e6865726974\n        /* \"#utility.yul\":11736:11754   */\n      0x44\n      dup3\n      add\n        /* \"#utility.yul\":11729:11791   */\n      mstore\n      shl(0x69, 0x30b731b29034b9903737ba1030902432b4b917)\n        /* \"#utility.yul\":11807:11825   */\n      0x64\n      dup3\n      add\n        /* \"#utility.yul\":11800:11849   */\n      mstore\n        /* \"#utility.yul\":11866:11885   */\n      0x84\n      add\n        /* \"Inheritance.sol\":14941:15056  require(... */\n      tag_173\n        /* \"#utility.yul\":11476:11891   */\n      jump\n        /* \"Inheritance.sol\":14941:15056  require(... */\n    tag_340:\n        /* \"Inheritance.sol\":7257:7278  isAdministratorDead() */\n      tag_344\n        /* \"Inheritance.sol\":7257:7276  isAdministratorDead */\n      tag_39\n        /* \"Inheritance.sol\":7257:7278  isAdministratorDead() */\n      jump\t// in\n    tag_344:\n        /* \"Inheritance.sol\":7253:8675  if (isAdministratorDead()) {... */\n      iszero\n      tag_179\n      jumpi\n        /* \"Inheritance.sol\":7294:7317  uint256 usdcInheritance */\n      0x00\n        /* \"Inheritance.sol\":7320:7336  getUSDCBalance() */\n      tag_346\n        /* \"Inheritance.sol\":7320:7334  getUSDCBalance */\n      tag_66\n        /* \"Inheritance.sol\":7320:7336  getUSDCBalance() */\n      jump\t// in\n    tag_346:\n        /* \"Inheritance.sol\":7294:7336  uint256 usdcInheritance = getUSDCBalance() */\n      swap1\n      pop\n        /* \"Inheritance.sol\":11237:11258  address(this).balance */\n      selfbalance\n        /* \"Inheritance.sol\":7350:7374  uint256 etherInheritance */\n      0x00\n        /* \"Inheritance.sol\":7409:7716  for (uint i = 0; i < heirs.length; i++) {... */\n    tag_348:\n        /* \"Inheritance.sol\":7430:7435  heirs */\n      0x05\n        /* \"Inheritance.sol\":7430:7442  heirs.length */\n      sload\n        /* \"Inheritance.sol\":7426:7442  i < heirs.length */\n      dup2\n      lt\n        /* \"Inheritance.sol\":7409:7716  for (uint i = 0; i < heirs.length; i++) {... */\n      iszero\n      tag_349\n      jumpi\n        /* \"Inheritance.sol\":7571:7574  100 */\n      0x64\n        /* \"Inheritance.sol\":7532:7547  usdcInheritance */\n      dup4\n        /* \"Inheritance.sol\":7515:7520  heirs */\n      0x05\n        /* \"Inheritance.sol\":7521:7522  i */\n      dup4\n        /* \"Inheritance.sol\":7515:7523  heirs[i] */\n      dup2\n      sload\n      dup2\n      lt\n      tag_352\n      jumpi\n      tag_352\n      tag_186\n      jump\t// in\n    tag_352:\n      swap1\n      0x00\n      mstore\n      keccak256(0x00, 0x20)\n      swap1\n      0x05\n      mul\n      add\n        /* \"Inheritance.sol\":7515:7529  heirs[i].share */\n      0x01\n      add\n      sload\n        /* \"Inheritance.sol\":7515:7547  heirs[i].share * usdcInheritance */\n      tag_354\n      swap2\n      swap1\n      tag_355\n      jump\t// in\n    tag_354:\n        /* \"Inheritance.sol\":7514:7574  (heirs[i].share * usdcInheritance) /... */\n      tag_356\n      swap2\n      swap1\n      tag_357\n      jump\t// in\n    tag_356:\n        /* \"Inheritance.sol\":7467:7476  heirsUSDC */\n      0x07\n        /* \"Inheritance.sol\":7467:7491  heirsUSDC[heirs[i].heir] */\n      0x00\n        /* \"Inheritance.sol\":7477:7482  heirs */\n      0x05\n        /* \"Inheritance.sol\":7483:7484  i */\n      dup5\n        /* \"Inheritance.sol\":7477:7485  heirs[i] */\n      dup2\n      sload\n      dup2\n      lt\n      tag_359\n      jumpi\n      tag_359\n      tag_186\n      jump\t// in\n    tag_359:\n      0x00\n      swap2\n      dup3\n      mstore\n      0x20\n      dup1\n      dup4\n      keccak256\n      0x05\n      swap3\n      dup4\n      mul\n      add\n        /* \"Inheritance.sol\":7477:7490  heirs[i].heir */\n      sload\n      sub(shl(0xa0, 0x01), 0x01)\n      and\n        /* \"Inheritance.sol\":7467:7491  heirsUSDC[heirs[i].heir] */\n      dup5\n      mstore\n      dup4\n      add\n      swap4\n      swap1\n      swap4\n      mstore\n      0x40\n      swap1\n      swap2\n      add\n      swap1\n      keccak256\n        /* \"Inheritance.sol\":7467:7574  heirsUSDC[heirs[i].heir] =... */\n      swap2\n      swap1\n      swap2\n      sstore\n        /* \"Inheritance.sol\":7641:7649  heirs[i] */\n      dup1\n      sload\n        /* \"Inheritance.sol\":7698:7701  100 */\n      0x64\n      swap2\n        /* \"Inheritance.sol\":7658:7674  etherInheritance */\n      dup5\n      swap2\n        /* \"Inheritance.sol\":7647:7648  i */\n      dup5\n      swap1\n        /* \"Inheritance.sol\":7641:7649  heirs[i] */\n      dup2\n      lt\n      tag_362\n      jumpi\n      tag_362\n      tag_186\n      jump\t// in\n    tag_362:\n      swap1\n      0x00\n      mstore\n      keccak256(0x00, 0x20)\n      swap1\n      0x05\n      mul\n      add\n        /* \"Inheritance.sol\":7641:7655  heirs[i].share */\n      0x01\n      add\n      sload\n        /* \"Inheritance.sol\":7641:7674  heirs[i].share * etherInheritance */\n      tag_364\n      swap2\n      swap1\n      tag_355\n      jump\t// in\n    tag_364:\n        /* \"Inheritance.sol\":7640:7701  (heirs[i].share * etherInheritance) /... */\n      tag_365\n      swap2\n      swap1\n      tag_357\n      jump\t// in\n    tag_365:\n        /* \"Inheritance.sol\":7592:7602  heirsEther */\n      0x08\n        /* \"Inheritance.sol\":7592:7617  heirsEther[heirs[i].heir] */\n      0x00\n        /* \"Inheritance.sol\":7603:7608  heirs */\n      0x05\n        /* \"Inheritance.sol\":7609:7610  i */\n      dup5\n        /* \"Inheritance.sol\":7603:7611  heirs[i] */\n      dup2\n      sload\n      dup2\n      lt\n      tag_367\n      jumpi\n      tag_367\n      tag_186\n      jump\t// in\n    tag_367:\n      0x00\n      swap2\n      dup3\n      mstore\n      0x20\n      dup1\n      dup4\n      keccak256\n      0x05\n      swap1\n      swap3\n      mul\n      swap1\n      swap2\n      add\n        /* \"Inheritance.sol\":7603:7616  heirs[i].heir */\n      sload\n      sub(shl(0xa0, 0x01), 0x01)\n      and\n        /* \"Inheritance.sol\":7592:7617  heirsEther[heirs[i].heir] */\n      dup4\n      mstore\n      dup3\n      add\n      swap3\n      swap1\n      swap3\n      mstore\n      0x40\n      add\n      swap1\n      keccak256\n        /* \"Inheritance.sol\":7592:7701  heirsEther[heirs[i].heir] =... */\n      sstore\n        /* \"Inheritance.sol\":7444:7447  i++ */\n      dup1\n      tag_369\n      dup2\n      tag_195\n      jump\t// in\n    tag_369:\n      swap2\n      pop\n      pop\n        /* \"Inheritance.sol\":7409:7716  for (uint i = 0; i < heirs.length; i++) {... */\n      jump(tag_348)\n    tag_349:\n      pop\n        /* \"Inheritance.sol\":7730:7749  address heirAddress */\n      0x00\n      dup1\n        /* \"Inheritance.sol\":7763:8623  for (uint i = 0; i < heirs.length; i++) {... */\n    tag_370:\n        /* \"Inheritance.sol\":7784:7789  heirs */\n      0x05\n        /* \"Inheritance.sol\":7784:7796  heirs.length */\n      sload\n        /* \"Inheritance.sol\":7780:7796  i < heirs.length */\n      dup2\n      lt\n        /* \"Inheritance.sol\":7763:8623  for (uint i = 0; i < heirs.length; i++) {... */\n      iszero\n      tag_371\n      jumpi\n        /* \"Inheritance.sol\":7835:7840  heirs */\n      0x05\n        /* \"Inheritance.sol\":7841:7842  i */\n      dup2\n        /* \"Inheritance.sol\":7835:7843  heirs[i] */\n      dup2\n      sload\n      dup2\n      lt\n      tag_374\n      jumpi\n      tag_374\n      tag_186\n      jump\t// in\n    tag_374:\n      0x00\n      swap2\n      dup3\n      mstore\n      0x20\n      dup1\n      dup4\n      keccak256\n      0x05\n      swap1\n      swap3\n      mul\n      swap1\n      swap2\n      add\n        /* \"Inheritance.sol\":7835:7848  heirs[i].heir */\n      sload\n      sub(shl(0xa0, 0x01), 0x01)\n      and\n        /* \"Inheritance.sol\":7897:7920  heirsEther[heirAddress] */\n      dup1\n      dup4\n      mstore\n        /* \"Inheritance.sol\":7897:7907  heirsEther */\n      0x08\n        /* \"Inheritance.sol\":7897:7920  heirsEther[heirAddress] */\n      swap1\n      swap2\n      mstore\n      0x40\n      dup1\n      dup4\n      keccak256\n      sload\n        /* \"Inheritance.sol\":7867:7921  payable(heirAddress).transfer(heirsEther[heirAddress]) */\n      swap1\n      mload\n        /* \"Inheritance.sol\":7835:7848  heirs[i].heir */\n      swap2\n      swap5\n      pop\n      dup5\n      swap3\n        /* \"Inheritance.sol\":7867:7921  payable(heirAddress).transfer(heirsEther[heirAddress]) */\n      dup2\n      iszero\n      0x08fc\n      mul\n      swap3\n      swap1\n      dup2\n        /* \"Inheritance.sol\":7835:7843  heirs[i] */\n      dup2\n        /* \"Inheritance.sol\":7867:7921  payable(heirAddress).transfer(heirsEther[heirAddress]) */\n      dup2\n        /* \"Inheritance.sol\":7897:7920  heirsEther[heirAddress] */\n      dup6\n        /* \"Inheritance.sol\":7835:7848  heirs[i].heir */\n      dup9\n        /* \"Inheritance.sol\":7867:7921  payable(heirAddress).transfer(heirsEther[heirAddress]) */\n      dup9\n      call\n      swap4\n      pop\n      pop\n      pop\n      pop\n      iszero\n      dup1\n      iszero\n      tag_377\n      jumpi\n      returndatasize\n      0x00\n      dup1\n      returndatacopy\n      revert(0x00, returndatasize)\n    tag_377:\n      pop\n      sub(shl(0xa0, 0x01), 0x01)\n        /* \"Inheritance.sol\":7963:7986  heirsEther[heirAddress] */\n      dup3\n      and\n      0x00\n      swap1\n      dup2\n      mstore\n        /* \"Inheritance.sol\":7963:7973  heirsEther */\n      0x08\n        /* \"Inheritance.sol\":7963:7986  heirsEther[heirAddress] */\n      0x20\n      mstore\n      0x40\n      swap1\n      keccak256\n      sload\n        /* \"Inheritance.sol\":7939:7944  heirs */\n      0x05\n        /* \"Inheritance.sol\":7939:7947  heirs[i] */\n      dup1\n      sload\n        /* \"Inheritance.sol\":7945:7946  i */\n      dup4\n      swap1\n        /* \"Inheritance.sol\":7939:7947  heirs[i] */\n      dup2\n      lt\n      tag_379\n      jumpi\n      tag_379\n      tag_186\n      jump\t// in\n    tag_379:\n      0x00\n      swap2\n      dup3\n      mstore\n      0x20\n      dup1\n      dup4\n      keccak256\n      0x05\n      swap3\n      swap1\n      swap3\n      mul\n      swap1\n      swap2\n      add\n        /* \"Inheritance.sol\":7939:7960  heirs[i].etherBalance */\n      0x02\n      add\n        /* \"Inheritance.sol\":7939:7986  heirs[i].etherBalance = heirsEther[heirAddress] */\n      swap3\n      swap1\n      swap3\n      sstore\n        /* \"Inheritance.sol\":8034:8039  token */\n      sload(0x0a)\n      sub(shl(0xa0, 0x01), 0x01)\n        /* \"Inheritance.sol\":8062:8084  heirsUSDC[heirAddress] */\n      dup6\n      dup2\n      and\n      dup1\n      dup5\n      mstore\n        /* \"Inheritance.sol\":8062:8071  heirsUSDC */\n      0x07\n        /* \"Inheritance.sol\":8062:8084  heirsUSDC[heirAddress] */\n      swap1\n      swap5\n      mstore\n      0x40\n      swap3\n      dup4\n      swap1\n      keccak256\n      sload\n        /* \"Inheritance.sol\":8034:8085  token.transfer(heirAddress, heirsUSDC[heirAddress]) */\n      swap3\n      mload\n      shl(0xe0, 0xa9059cbb)\n      dup2\n      mstore\n      0x04\n      dup2\n      add\n        /* \"#utility.yul\":4824:4875   */\n      swap5\n      swap1\n      swap5\n      mstore\n        /* \"#utility.yul\":4891:4909   */\n      0x24\n      dup5\n      add\n        /* \"#utility.yul\":4884:4918   */\n      swap3\n      swap1\n      swap3\n      mstore\n        /* \"Inheritance.sol\":8034:8039  token */\n      and\n      swap1\n        /* \"Inheritance.sol\":8034:8048  token.transfer */\n      0xa9059cbb\n      swap1\n        /* \"#utility.yul\":4797:4815   */\n      0x44\n      add\n        /* \"Inheritance.sol\":8034:8085  token.transfer(heirAddress, heirsUSDC[heirAddress]) */\n      0x20\n      mload(0x40)\n      dup1\n      dup4\n      sub\n      dup2\n      0x00\n      dup8\n      gas\n      call\n      iszero\n      dup1\n      iszero\n      tag_383\n      jumpi\n      returndatasize\n      0x00\n      dup1\n      returndatacopy\n      revert(0x00, returndatasize)\n    tag_383:\n      pop\n      pop\n      pop\n      pop\n      mload(0x40)\n      returndatasize\n      not(0x1f)\n      0x1f\n      dup3\n      add\n      and\n      dup3\n      add\n      dup1\n      0x40\n      mstore\n      pop\n      dup2\n      add\n      swap1\n      tag_384\n      swap2\n      swap1\n      tag_385\n      jump\t// in\n    tag_384:\n        /* \"Inheritance.sol\":8005:8183  require(... */\n      tag_386\n      jumpi\n      mload(0x40)\n      shl(0xe5, 0x461bcd)\n      dup2\n      mstore\n        /* \"#utility.yul\":12775:12777   */\n      0x20\n        /* \"Inheritance.sol\":8005:8183  require(... */\n      0x04\n      dup3\n      add\n        /* \"#utility.yul\":12757:12778   */\n      mstore\n        /* \"#utility.yul\":12814:12816   */\n      0x38\n        /* \"#utility.yul\":12794:12812   */\n      0x24\n      dup3\n      add\n        /* \"#utility.yul\":12787:12817   */\n      mstore\n        /* \"#utility.yul\":12853:12887   */\n      0x4572726f72207768696c65207472616e7366657272696e672055534443206672\n        /* \"#utility.yul\":12833:12851   */\n      0x44\n      dup3\n      add\n        /* \"#utility.yul\":12826:12888   */\n      mstore\n        /* \"#utility.yul\":12924:12950   */\n      0x6f6d2074686520636f6e747261637420746f20686569722e0000000000000000\n        /* \"#utility.yul\":12904:12922   */\n      0x64\n      dup3\n      add\n        /* \"#utility.yul\":12897:12951   */\n      mstore\n        /* \"#utility.yul\":12968:12987   */\n      0x84\n      add\n        /* \"Inheritance.sol\":8005:8183  require(... */\n      tag_173\n        /* \"#utility.yul\":12573:12993   */\n      jump\n        /* \"Inheritance.sol\":8005:8183  require(... */\n    tag_386:\n      sub(shl(0xa0, 0x01), 0x01)\n        /* \"Inheritance.sol\":8224:8246  heirsUSDC[heirAddress] */\n      dup3\n      and\n      0x00\n      swap1\n      dup2\n      mstore\n        /* \"Inheritance.sol\":8224:8233  heirsUSDC */\n      0x07\n        /* \"Inheritance.sol\":8224:8246  heirsUSDC[heirAddress] */\n      0x20\n      mstore\n      0x40\n      swap1\n      keccak256\n      sload\n        /* \"Inheritance.sol\":8201:8206  heirs */\n      0x05\n        /* \"Inheritance.sol\":8201:8209  heirs[i] */\n      dup1\n      sload\n        /* \"Inheritance.sol\":8207:8208  i */\n      dup4\n      swap1\n        /* \"Inheritance.sol\":8201:8209  heirs[i] */\n      dup2\n      lt\n      tag_390\n      jumpi\n      tag_390\n      tag_186\n      jump\t// in\n    tag_390:\n      swap1\n      0x00\n      mstore\n      keccak256(0x00, 0x20)\n      swap1\n      0x05\n      mul\n      add\n        /* \"Inheritance.sol\":8201:8221  heirs[i].usdcBalance */\n      0x03\n      add\n        /* \"Inheritance.sol\":8201:8246  heirs[i].usdcBalance = heirsUSDC[heirAddress] */\n      dup2\n      swap1\n      sstore\n      pop\n        /* \"Inheritance.sol\":8369:8380  heirAddress */\n      dup2\n      sub(shl(0xa0, 0x01), 0x01)\n        /* \"Inheritance.sol\":8270:8608  LogHeirClaiming(... */\n      and\n      0x34e2b4efda0968bd3c419ecd901876f712f93cd5fda9303ab16021c3535f5593\n        /* \"Inheritance.sol\":8402:8407  heirs */\n      0x05\n        /* \"Inheritance.sol\":8408:8409  i */\n      dup4\n        /* \"Inheritance.sol\":8402:8410  heirs[i] */\n      dup2\n      sload\n      dup2\n      lt\n      tag_393\n      jumpi\n      tag_393\n      tag_186\n      jump\t// in\n    tag_393:\n      swap1\n      0x00\n      mstore\n      keccak256(0x00, 0x20)\n      swap1\n      0x05\n      mul\n      add\n        /* \"Inheritance.sol\":8402:8416  heirs[i].share */\n      0x01\n      add\n      sload\n        /* \"Inheritance.sol\":8438:8448  heirsEther */\n      0x08\n        /* \"Inheritance.sol\":8438:8461  heirsEther[heirAddress] */\n      0x00\n        /* \"Inheritance.sol\":8449:8460  heirAddress */\n      dup7\n      sub(shl(0xa0, 0x01), 0x01)\n        /* \"Inheritance.sol\":8438:8461  heirsEther[heirAddress] */\n      and\n      sub(shl(0xa0, 0x01), 0x01)\n      and\n      dup2\n      mstore\n      0x20\n      add\n      swap1\n      dup2\n      mstore\n      0x20\n      add\n      0x00\n      keccak256\n      sload\n        /* \"Inheritance.sol\":8483:8488  heirs */\n      0x05\n        /* \"Inheritance.sol\":8489:8490  i */\n      dup6\n        /* \"Inheritance.sol\":8483:8491  heirs[i] */\n      dup2\n      sload\n      dup2\n      lt\n      tag_396\n      jumpi\n      tag_396\n      tag_186\n      jump\t// in\n    tag_396:\n      swap1\n      0x00\n      mstore\n      keccak256(0x00, 0x20)\n      swap1\n      0x05\n      mul\n      add\n        /* \"Inheritance.sol\":8483:8504  heirs[i].etherBalance */\n      0x02\n      add\n      sload\n        /* \"Inheritance.sol\":8526:8535  heirsUSDC */\n      0x07\n        /* \"Inheritance.sol\":8526:8548  heirsUSDC[heirAddress] */\n      0x00\n        /* \"Inheritance.sol\":8536:8547  heirAddress */\n      dup9\n      sub(shl(0xa0, 0x01), 0x01)\n        /* \"Inheritance.sol\":8526:8548  heirsUSDC[heirAddress] */\n      and\n      sub(shl(0xa0, 0x01), 0x01)\n      and\n      dup2\n      mstore\n      0x20\n      add\n      swap1\n      dup2\n      mstore\n      0x20\n      add\n      0x00\n      keccak256\n      sload\n        /* \"Inheritance.sol\":8570:8575  heirs */\n      0x05\n        /* \"Inheritance.sol\":8576:8577  i */\n      dup8\n        /* \"Inheritance.sol\":8570:8578  heirs[i] */\n      dup2\n      sload\n      dup2\n      lt\n      tag_399\n      jumpi\n      tag_399\n      tag_186\n      jump\t// in\n    tag_399:\n      swap1\n      0x00\n      mstore\n      keccak256(0x00, 0x20)\n      swap1\n      0x05\n      mul\n      add\n        /* \"Inheritance.sol\":8570:8590  heirs[i].usdcBalance */\n      0x03\n      add\n      sload\n        /* \"Inheritance.sol\":8270:8608  LogHeirClaiming(... */\n      mload(0x40)\n      tag_401\n      swap6\n      swap5\n      swap4\n      swap3\n      swap2\n      swap1\n        /* \"#utility.yul\":13340:13343   */\n      0xc0\n        /* \"#utility.yul\":13322:13344   */\n      dup1\n      dup3\n      mstore\n        /* \"#utility.yul\":13381:13383   */\n      0x26\n        /* \"#utility.yul\":13360:13379   */\n      swap1\n      dup3\n      add\n        /* \"#utility.yul\":13353:13384   */\n      mstore\n        /* \"#utility.yul\":13421:13455   */\n      0x457468657220616e642055534443206d6f6e65792073656e7420746f20746865\n        /* \"#utility.yul\":13415:13418   */\n      0xe0\n        /* \"#utility.yul\":13400:13419   */\n      dup3\n      add\n        /* \"#utility.yul\":13393:13456   */\n      mstore\n      shl(0xd1, 0x103432b4b917)\n        /* \"#utility.yul\":13487:13490   */\n      0x0100\n        /* \"#utility.yul\":13472:13491   */\n      dup3\n      add\n        /* \"#utility.yul\":13465:13502   */\n      mstore\n        /* \"#utility.yul\":13569:13573   */\n      0x20\n        /* \"#utility.yul\":13554:13574   */\n      dup2\n      add\n        /* \"#utility.yul\":13547:13583   */\n      swap6\n      swap1\n      swap6\n      mstore\n        /* \"#utility.yul\":13614:13616   */\n      0x40\n        /* \"#utility.yul\":13599:13617   */\n      dup6\n      add\n        /* \"#utility.yul\":13592:13626   */\n      swap4\n      swap1\n      swap4\n      mstore\n        /* \"#utility.yul\":13657:13659   */\n      0x60\n        /* \"#utility.yul\":13642:13660   */\n      dup5\n      add\n        /* \"#utility.yul\":13635:13669   */\n      swap2\n      swap1\n      swap2\n      mstore\n      0x80\n        /* \"#utility.yul\":13685:13704   */\n      dup4\n      add\n        /* \"#utility.yul\":13678:13713   */\n      mstore\n      0xa0\n        /* \"#utility.yul\":13729:13748   */\n      dup3\n      add\n        /* \"#utility.yul\":13722:13757   */\n      mstore\n        /* \"#utility.yul\":13534:13537   */\n      0x0120\n        /* \"#utility.yul\":13519:13538   */\n      add\n      swap1\n        /* \"#utility.yul\":12998:13763   */\n      jump\n        /* \"Inheritance.sol\":8270:8608  LogHeirClaiming(... */\n    tag_401:\n      mload(0x40)\n      dup1\n      swap2\n      sub\n      swap1\n      log2\n        /* \"Inheritance.sol\":7798:7801  i++ */\n      dup1\n      tag_403\n      dup2\n      tag_195\n      jump\t// in\n    tag_403:\n      swap2\n      pop\n      pop\n        /* \"Inheritance.sol\":7763:8623  for (uint i = 0; i < heirs.length; i++) {... */\n      jump(tag_370)\n    tag_371:\n      pop\n      pop\n        /* \"Inheritance.sol\":8637:8657  isInheritanceClaimed */\n      0x04\n        /* \"Inheritance.sol\":8637:8664  isInheritanceClaimed = true */\n      dup1\n      sload\n      not(0xff)\n      and\n        /* \"Inheritance.sol\":8660:8664  true */\n      0x01\n        /* \"Inheritance.sol\":8637:8664  isInheritanceClaimed = true */\n      or\n      swap1\n      sstore\n      pop\n      pop\n        /* \"Inheritance.sol\":14750:15074  {... */\n      pop\n        /* \"Inheritance.sol\":7189:8681  function claimInheritance() public isHeir(msg.sender) {... */\n      pop\n      jump\t// out\n        /* \"Inheritance.sol\":10937:11040  function getAliveTimeOut() public view onlyOwner returns (uint256) {... */\n    tag_115:\n        /* \"Inheritance.sol\":10995:11002  uint256 */\n      0x00\n        /* \"@openzeppelin/contracts/access/Ownable.sol\":1094:1107   */\n      tag_405\n        /* \"@openzeppelin/contracts/access/Ownable.sol\":1094:1105   */\n      tag_167\n        /* \"@openzeppelin/contracts/access/Ownable.sol\":1094:1107   */\n      jump\t// in\n    tag_405:\n      pop\n        /* \"Inheritance.sol\":11021:11033  aliveTimeOut */\n      sload(0x03)\n        /* \"Inheritance.sol\":10937:11040  function getAliveTimeOut() public view onlyOwner returns (uint256) {... */\n      swap1\n      jump\t// out\n        /* \"Inheritance.sol\":5342:5667  function signalAlive() public onlyOwner {... */\n    tag_119:\n        /* \"@openzeppelin/contracts/access/Ownable.sol\":1094:1107   */\n      tag_408\n        /* \"@openzeppelin/contracts/access/Ownable.sol\":1094:1105   */\n      tag_167\n        /* \"@openzeppelin/contracts/access/Ownable.sol\":1094:1107   */\n      jump\t// in\n    tag_408:\n        /* \"Inheritance.sol\":5418:5433  block.timestamp */\n      timestamp\n        /* \"Inheritance.sol\":5392:5415  administrator.lastAlive */\n      0x02\n        /* \"Inheritance.sol\":5392:5433  administrator.lastAlive = block.timestamp */\n      dup2\n      swap1\n      sstore\n        /* \"Inheritance.sol\":5638:5650  aliveTimeOut */\n      sload(0x03)\n        /* \"Inheritance.sol\":5448:5660  LogAdministratorAlive(... */\n      0x40\n      dup1\n      mload\n        /* \"#utility.yul\":14054:14057   */\n      0x80\n        /* \"#utility.yul\":14036:14058   */\n      dup1\n      dup3\n      mstore\n        /* \"#utility.yul\":14095:14097   */\n      0x31\n        /* \"#utility.yul\":14074:14093   */\n      swap1\n      dup3\n      add\n        /* \"#utility.yul\":14067:14098   */\n      mstore\n        /* \"#utility.yul\":14135:14169   */\n      0x41646d696e6973747261746f722073656e64732061207369676e616c20746f20\n        /* \"#utility.yul\":14129:14132   */\n      0xa0\n        /* \"#utility.yul\":14114:14133   */\n      dup3\n      add\n        /* \"#utility.yul\":14107:14170   */\n      mstore\n      shl(0x79, 0x39b437bb9034329034b99030b634bb3297)\n        /* \"#utility.yul\":14201:14204   */\n      0xc0\n        /* \"#utility.yul\":14186:14205   */\n      dup3\n      add\n        /* \"#utility.yul\":14179:14227   */\n      mstore\n        /* \"#utility.yul\":14294:14298   */\n      0x20\n        /* \"#utility.yul\":14279:14299   */\n      dup2\n      add\n        /* \"#utility.yul\":14272:14308   */\n      dup5\n      swap1\n      mstore\n        /* \"#utility.yul\":14324:14342   */\n      swap1\n      dup2\n      add\n        /* \"#utility.yul\":14317:14351   */\n      swap3\n      swap1\n      swap3\n      mstore\n      0x60\n        /* \"#utility.yul\":14367:14385   */\n      dup3\n      add\n        /* \"#utility.yul\":14360:14394   */\n      mstore\n        /* \"Inheritance.sol\":5548:5558  msg.sender */\n      caller\n      swap1\n        /* \"Inheritance.sol\":5448:5660  LogAdministratorAlive(... */\n      0x5f1aa2875b7b1df0cd72a6ee708c6aff6432288001c47518bc91be4599fdf6e6\n      swap1\n        /* \"#utility.yul\":14259:14262   */\n      0xe0\n        /* \"#utility.yul\":14244:14263   */\n      add\n        /* \"Inheritance.sol\":5448:5660  LogAdministratorAlive(... */\n      mload(0x40)\n      dup1\n      swap2\n      sub\n      swap1\n      log2\n        /* \"Inheritance.sol\":5342:5667  function signalAlive() public onlyOwner {... */\n      jump\t// out\n        /* \"Inheritance.sol\":4284:4561  function deposit() public payable {... */\n    tag_121:\n        /* \"Inheritance.sol\":4452:4465  administrator */\n      0x01\n        /* \"Inheritance.sol\":4452:4486  administrator.administratorAddress */\n      sload\n        /* \"Inheritance.sol\":4333:4554  LogDeposit(... */\n      0x40\n      dup1\n      mload\n        /* \"#utility.yul\":14691:14694   */\n      0x80\n        /* \"#utility.yul\":14673:14695   */\n      dup1\n      dup3\n      mstore\n        /* \"#utility.yul\":14732:14734   */\n      0x4f\n        /* \"#utility.yul\":14711:14730   */\n      swap1\n      dup3\n      add\n        /* \"#utility.yul\":14704:14735   */\n      mstore\n        /* \"#utility.yul\":14772:14806   */\n      0x4c6f6720616c6c207468652076616c7565733a2041646d696e6973747261746f\n        /* \"#utility.yul\":14766:14769   */\n      0xa0\n        /* \"#utility.yul\":14751:14770   */\n      dup3\n      add\n        /* \"#utility.yul\":14744:14807   */\n      mstore\n        /* \"#utility.yul\":14844:14878   */\n      0x7220616464726573732c20416d6f756e742073656e742c20436f6e7472616374\n        /* \"#utility.yul\":14838:14841   */\n      0xc0\n        /* \"#utility.yul\":14823:14842   */\n      dup3\n      add\n        /* \"#utility.yul\":14816:14879   */\n      mstore\n      shl(0x89, 0x1032ba3432b9103130b630b731b297)\n        /* \"#utility.yul\":14910:14913   */\n      0xe0\n        /* \"#utility.yul\":14895:14914   */\n      dup3\n      add\n        /* \"#utility.yul\":14888:14934   */\n      mstore\n      sub(shl(0xa0, 0x01), 0x01)\n        /* \"Inheritance.sol\":4452:4486  administrator.administratorAddress */\n      swap1\n      swap3\n      and\n        /* \"#utility.yul\":15001:15005   */\n      0x20\n        /* \"#utility.yul\":14986:15006   */\n      dup4\n      add\n        /* \"#utility.yul\":14979:15041   */\n      mstore\n        /* \"Inheritance.sol\":4500:4509  msg.value */\n      callvalue\n        /* \"#utility.yul\":15057:15075   */\n      dup3\n      dup3\n      add\n        /* \"#utility.yul\":15050:15084   */\n      mstore\n        /* \"Inheritance.sol\":4523:4544  address(this).balance */\n      selfbalance\n      0x60\n        /* \"#utility.yul\":15100:15118   */\n      dup4\n      add\n        /* \"#utility.yul\":15093:15127   */\n      mstore\n        /* \"Inheritance.sol\":4333:4554  LogDeposit(... */\n      mload\n      0x0e329d93cfda1bd6ead1003e3ae53461617c8d120014dfaea03d2fb42ec55b07\n      swap2\n      dup2\n      swap1\n      sub\n        /* \"#utility.yul\":14966:14969   */\n      0x0100\n        /* \"Inheritance.sol\":4333:4554  LogDeposit(... */\n      add\n      swap1\n      log1\n        /* \"Inheritance.sol\":4284:4561  function deposit() public payable {... */\n      jump\t// out\n        /* \"Inheritance.sol\":11895:12122  function getTotalShares() public view returns (uint256) {... */\n    tag_124:\n        /* \"Inheritance.sol\":11942:11949  uint256 */\n      0x00\n      dup1\n      dup1\n        /* \"Inheritance.sol\":11994:12088  for (uint i = 0; i < heirs.length; i++) {... */\n    tag_416:\n        /* \"Inheritance.sol\":12015:12020  heirs */\n      0x05\n        /* \"Inheritance.sol\":12015:12027  heirs.length */\n      sload\n        /* \"Inheritance.sol\":12011:12027  i < heirs.length */\n      dup2\n      lt\n        /* \"Inheritance.sol\":11994:12088  for (uint i = 0; i < heirs.length; i++) {... */\n      iszero\n      tag_182\n      jumpi\n        /* \"Inheritance.sol\":12063:12068  heirs */\n      0x05\n        /* \"Inheritance.sol\":12069:12070  i */\n      dup2\n        /* \"Inheritance.sol\":12063:12071  heirs[i] */\n      dup2\n      sload\n      dup2\n      lt\n      tag_420\n      jumpi\n      tag_420\n      tag_186\n      jump\t// in\n    tag_420:\n      swap1\n      0x00\n      mstore\n      keccak256(0x00, 0x20)\n      swap1\n      0x05\n      mul\n      add\n        /* \"Inheritance.sol\":12063:12077  heirs[i].share */\n      0x01\n      add\n      sload\n        /* \"Inheritance.sol\":12048:12077  totalShares += heirs[i].share */\n      dup3\n      tag_422\n      swap2\n      swap1\n      tag_315\n      jump\t// in\n    tag_422:\n      swap2\n      pop\n        /* \"Inheritance.sol\":12029:12032  i++ */\n      dup1\n      tag_423\n      dup2\n      tag_195\n      jump\t// in\n    tag_423:\n      swap2\n      pop\n      pop\n        /* \"Inheritance.sol\":11994:12088  for (uint i = 0; i < heirs.length; i++) {... */\n      jump(tag_416)\n        /* \"Inheritance.sol\":9680:10323  function removeNFTDeed(uint256 tokenId) public onlyOwner {... */\n    tag_129:\n        /* \"@openzeppelin/contracts/access/Ownable.sol\":1094:1107   */\n      tag_425\n        /* \"@openzeppelin/contracts/access/Ownable.sol\":1094:1105   */\n      tag_167\n        /* \"@openzeppelin/contracts/access/Ownable.sol\":1094:1107   */\n      jump\t// in\n    tag_425:\n        /* \"Inheritance.sol\":9747:9766  address currentHeir */\n      0x00\n        /* \"Inheritance.sol\":9769:9786  nftHeirs[tokenId] */\n      dup2\n      dup2\n      mstore\n        /* \"Inheritance.sol\":9769:9777  nftHeirs */\n      0x09\n        /* \"Inheritance.sol\":9769:9786  nftHeirs[tokenId] */\n      0x20\n      mstore\n      0x40\n      swap1\n      keccak256\n      sload\n      sub(shl(0xa0, 0x01), 0x01)\n      and\n      dup1\n        /* \"Inheritance.sol\":9796:9865  require(currentHeir != address(0), \"Token not assigned to any heir.\") */\n      tag_427\n      jumpi\n      mload(0x40)\n      shl(0xe5, 0x461bcd)\n      dup2\n      mstore\n        /* \"#utility.yul\":15340:15342   */\n      0x20\n        /* \"Inheritance.sol\":9796:9865  require(currentHeir != address(0), \"Token not assigned to any heir.\") */\n      0x04\n      dup3\n      add\n        /* \"#utility.yul\":15322:15343   */\n      mstore\n        /* \"#utility.yul\":15379:15381   */\n      0x1f\n        /* \"#utility.yul\":15359:15377   */\n      0x24\n      dup3\n      add\n        /* \"#utility.yul\":15352:15382   */\n      mstore\n        /* \"#utility.yul\":15418:15451   */\n      0x546f6b656e206e6f742061737369676e656420746f20616e7920686569722e00\n        /* \"#utility.yul\":15398:15416   */\n      0x44\n      dup3\n      add\n        /* \"#utility.yul\":15391:15452   */\n      mstore\n        /* \"#utility.yul\":15469:15487   */\n      0x64\n      add\n        /* \"Inheritance.sol\":9796:9865  require(currentHeir != address(0), \"Token not assigned to any heir.\") */\n      tag_173\n        /* \"#utility.yul\":15138:15493   */\n      jump\n        /* \"Inheritance.sol\":9796:9865  require(currentHeir != address(0), \"Token not assigned to any heir.\") */\n    tag_427:\n        /* \"Inheritance.sol\":9952:9961  uint256 i */\n      0x00\n        /* \"Inheritance.sol\":9947:10226  for (uint256 i = 0; i < heirs.length; i++) {... */\n    tag_430:\n        /* \"Inheritance.sol\":9971:9976  heirs */\n      0x05\n        /* \"Inheritance.sol\":9971:9983  heirs.length */\n      sload\n        /* \"Inheritance.sol\":9967:9983  i < heirs.length */\n      dup2\n      lt\n        /* \"Inheritance.sol\":9947:10226  for (uint256 i = 0; i < heirs.length; i++) {... */\n      iszero\n      tag_431\n      jumpi\n        /* \"Inheritance.sol\":10025:10036  currentHeir */\n      dup2\n      sub(shl(0xa0, 0x01), 0x01)\n        /* \"Inheritance.sol\":10008:10036  heirs[i].heir == currentHeir */\n      and\n        /* \"Inheritance.sol\":10008:10013  heirs */\n      0x05\n        /* \"Inheritance.sol\":10014:10015  i */\n      dup3\n        /* \"Inheritance.sol\":10008:10016  heirs[i] */\n      dup2\n      sload\n      dup2\n      lt\n      tag_434\n      jumpi\n      tag_434\n      tag_186\n      jump\t// in\n    tag_434:\n      0x00\n      swap2\n      dup3\n      mstore\n      0x20\n      swap1\n      swap2\n      keccak256\n      0x05\n      swap1\n      swap2\n      mul\n      add\n        /* \"Inheritance.sol\":10008:10021  heirs[i].heir */\n      sload\n      sub(shl(0xa0, 0x01), 0x01)\n      and\n        /* \"Inheritance.sol\":10008:10036  heirs[i].heir == currentHeir */\n      sub\n        /* \"Inheritance.sol\":10004:10216  if (heirs[i].heir == currentHeir) {... */\n      tag_436\n      jumpi\n        /* \"Inheritance.sol\":10056:10069  uint256 index */\n      0x00\n        /* \"Inheritance.sol\":10072:10114  indexOfToken(heirs[i].NFTDeedIds, tokenId) */\n      tag_437\n        /* \"Inheritance.sol\":10085:10090  heirs */\n      0x05\n        /* \"Inheritance.sol\":10091:10092  i */\n      dup4\n        /* \"Inheritance.sol\":10085:10093  heirs[i] */\n      dup2\n      sload\n      dup2\n      lt\n      tag_439\n      jumpi\n      tag_439\n      tag_186\n      jump\t// in\n    tag_439:\n      swap1\n      0x00\n      mstore\n      keccak256(0x00, 0x20)\n      swap1\n      0x05\n      mul\n      add\n        /* \"Inheritance.sol\":10085:10104  heirs[i].NFTDeedIds */\n      0x04\n      add\n        /* \"Inheritance.sol\":10106:10113  tokenId */\n      dup6\n        /* \"Inheritance.sol\":10072:10084  indexOfToken */\n      tag_242\n        /* \"Inheritance.sol\":10072:10114  indexOfToken(heirs[i].NFTDeedIds, tokenId) */\n      jump\t// in\n    tag_437:\n        /* \"Inheritance.sol\":10056:10114  uint256 index = indexOfToken(heirs[i].NFTDeedIds, tokenId) */\n      swap1\n      pop\n        /* \"Inheritance.sol\":10132:10178  removeTokenAtIndex(heirs[i].NFTDeedIds, index) */\n      tag_441\n        /* \"Inheritance.sol\":10151:10156  heirs */\n      0x05\n        /* \"Inheritance.sol\":10157:10158  i */\n      dup4\n        /* \"Inheritance.sol\":10151:10159  heirs[i] */\n      dup2\n      sload\n      dup2\n      lt\n      tag_245\n      jumpi\n      tag_245\n      tag_186\n      jump\t// in\n        /* \"Inheritance.sol\":10132:10178  removeTokenAtIndex(heirs[i].NFTDeedIds, index) */\n    tag_441:\n        /* \"Inheritance.sol\":10196:10201  break */\n      pop\n      jump(tag_431)\n        /* \"Inheritance.sol\":10004:10216  if (heirs[i].heir == currentHeir) {... */\n    tag_436:\n        /* \"Inheritance.sol\":9985:9988  i++ */\n      dup1\n      tag_445\n      dup2\n      tag_195\n      jump\t// in\n    tag_445:\n      swap2\n      pop\n      pop\n        /* \"Inheritance.sol\":9947:10226  for (uint256 i = 0; i < heirs.length; i++) {... */\n      jump(tag_430)\n    tag_431:\n      pop\n      pop\n        /* \"Inheritance.sol\":10299:10316  nftHeirs[tokenId] */\n      0x00\n      swap1\n      dup2\n      mstore\n        /* \"Inheritance.sol\":10299:10307  nftHeirs */\n      0x09\n        /* \"Inheritance.sol\":10299:10316  nftHeirs[tokenId] */\n      0x20\n      mstore\n      0x40\n      swap1\n      keccak256\n        /* \"Inheritance.sol\":10292:10316  delete nftHeirs[tokenId] */\n      dup1\n      sload\n      not(sub(shl(0xa0, 0x01), 0x01))\n      and\n      swap1\n      sstore\n        /* \"Inheritance.sol\":9680:10323  function removeNFTDeed(uint256 tokenId) public onlyOwner {... */\n      jump\t// out\n        /* \"Inheritance.sol\":4592:4945  function withdrawUSDC(uint256 amount) public onlyOwner {... */\n    tag_133:\n        /* \"@openzeppelin/contracts/access/Ownable.sol\":1094:1107   */\n      tag_447\n        /* \"@openzeppelin/contracts/access/Ownable.sol\":1094:1105   */\n      tag_167\n        /* \"@openzeppelin/contracts/access/Ownable.sol\":1094:1107   */\n      jump\t// in\n    tag_447:\n        /* \"Inheritance.sol\":4674:4675  0 */\n      0x00\n        /* \"Inheritance.sol\":4665:4671  amount */\n      dup2\n        /* \"Inheritance.sol\":4665:4675  amount > 0 */\n      gt\n        /* \"Inheritance.sol\":4657:4704  require(amount > 0, \"Amount must be positive.\") */\n      tag_449\n      jumpi\n      mload(0x40)\n      shl(0xe5, 0x461bcd)\n      dup2\n      mstore\n        /* \"#utility.yul\":5396:5398   */\n      0x20\n        /* \"Inheritance.sol\":4657:4704  require(amount > 0, \"Amount must be positive.\") */\n      0x04\n      dup3\n      add\n        /* \"#utility.yul\":5378:5399   */\n      mstore\n        /* \"#utility.yul\":5435:5437   */\n      0x18\n        /* \"#utility.yul\":5415:5433   */\n      0x24\n      dup3\n      add\n        /* \"#utility.yul\":5408:5438   */\n      mstore\n      shl(0x41, 0x20b6b7bab73a1036bab9ba103132903837b9b4ba34bb3297)\n        /* \"#utility.yul\":5454:5472   */\n      0x44\n      dup3\n      add\n        /* \"#utility.yul\":5447:5501   */\n      mstore\n        /* \"#utility.yul\":5518:5536   */\n      0x64\n      add\n        /* \"Inheritance.sol\":4657:4704  require(amount > 0, \"Amount must be positive.\") */\n      tag_173\n        /* \"#utility.yul\":5194:5542   */\n      jump\n        /* \"Inheritance.sol\":4657:4704  require(amount > 0, \"Amount must be positive.\") */\n    tag_449:\n        /* \"Inheritance.sol\":4732:4748  getUSDCBalance() */\n      tag_451\n        /* \"Inheritance.sol\":4732:4746  getUSDCBalance */\n      tag_66\n        /* \"Inheritance.sol\":4732:4748  getUSDCBalance() */\n      jump\t// in\n    tag_451:\n        /* \"Inheritance.sol\":4722:4728  amount */\n      dup2\n        /* \"Inheritance.sol\":4722:4748  amount <= getUSDCBalance() */\n      gt\n      iszero\n        /* \"Inheritance.sol\":4714:4777  require(amount <= getUSDCBalance(), \"Not enough USDC balance.\") */\n      tag_452\n      jumpi\n      mload(0x40)\n      shl(0xe5, 0x461bcd)\n      dup2\n      mstore\n        /* \"#utility.yul\":15700:15702   */\n      0x20\n        /* \"Inheritance.sol\":4714:4777  require(amount <= getUSDCBalance(), \"Not enough USDC balance.\") */\n      0x04\n      dup3\n      add\n        /* \"#utility.yul\":15682:15703   */\n      mstore\n        /* \"#utility.yul\":15739:15741   */\n      0x18\n        /* \"#utility.yul\":15719:15737   */\n      0x24\n      dup3\n      add\n        /* \"#utility.yul\":15712:15742   */\n      mstore\n        /* \"#utility.yul\":15778:15804   */\n      0x4e6f7420656e6f75676820555344432062616c616e63652e0000000000000000\n        /* \"#utility.yul\":15758:15776   */\n      0x44\n      dup3\n      add\n        /* \"#utility.yul\":15751:15805   */\n      mstore\n        /* \"#utility.yul\":15822:15840   */\n      0x64\n      add\n        /* \"Inheritance.sol\":4714:4777  require(amount <= getUSDCBalance(), \"Not enough USDC balance.\") */\n      tag_173\n        /* \"#utility.yul\":15498:15846   */\n      jump\n        /* \"Inheritance.sol\":4714:4777  require(amount <= getUSDCBalance(), \"Not enough USDC balance.\") */\n    tag_452:\n        /* \"Inheritance.sol\":4809:4814  token */\n      sload(0x0a)\n        /* \"Inheritance.sol\":4809:4843  token.transfer(msg.sender, amount) */\n      mload(0x40)\n      shl(0xe0, 0xa9059cbb)\n      dup2\n      mstore\n        /* \"Inheritance.sol\":4824:4834  msg.sender */\n      caller\n        /* \"Inheritance.sol\":4809:4843  token.transfer(msg.sender, amount) */\n      0x04\n      dup3\n      add\n        /* \"#utility.yul\":4824:4875   */\n      mstore\n        /* \"#utility.yul\":4891:4909   */\n      0x24\n      dup2\n      add\n        /* \"#utility.yul\":4884:4918   */\n      dup4\n      swap1\n      mstore\n      sub(shl(0xa0, 0x01), 0x01)\n        /* \"Inheritance.sol\":4809:4814  token */\n      swap1\n      swap2\n      and\n      swap1\n        /* \"Inheritance.sol\":4809:4823  token.transfer */\n      0xa9059cbb\n      swap1\n        /* \"#utility.yul\":4797:4815   */\n      0x44\n      add\n        /* \"Inheritance.sol\":4809:4843  token.transfer(msg.sender, amount) */\n      0x20\n      mload(0x40)\n      dup1\n      dup4\n      sub\n      dup2\n      0x00\n      dup8\n      gas\n      call\n      iszero\n      dup1\n      iszero\n      tag_457\n      jumpi\n      returndatasize\n      0x00\n      dup1\n      returndatacopy\n      revert(0x00, returndatasize)\n    tag_457:\n      pop\n      pop\n      pop\n      pop\n      mload(0x40)\n      returndatasize\n      not(0x1f)\n      0x1f\n      dup3\n      add\n      and\n      dup3\n      add\n      dup1\n      0x40\n      mstore\n      pop\n      dup2\n      add\n      swap1\n      tag_458\n      swap2\n      swap1\n      tag_385\n      jump\t// in\n    tag_458:\n        /* \"Inheritance.sol\":4788:4938  require(... */\n      tag_459\n      jumpi\n      mload(0x40)\n      shl(0xe5, 0x461bcd)\n      dup2\n      mstore\n        /* \"#utility.yul\":16053:16055   */\n      0x20\n        /* \"Inheritance.sol\":4788:4938  require(... */\n      0x04\n      dup3\n      add\n        /* \"#utility.yul\":16035:16056   */\n      mstore\n        /* \"#utility.yul\":16092:16094   */\n      0x45\n        /* \"#utility.yul\":16072:16090   */\n      0x24\n      dup3\n      add\n        /* \"#utility.yul\":16065:16095   */\n      mstore\n        /* \"#utility.yul\":16131:16165   */\n      0x4572726f72207768696c65207472616e7366657272696e672055534443206672\n        /* \"#utility.yul\":16111:16129   */\n      0x44\n      dup3\n      add\n        /* \"#utility.yul\":16104:16166   */\n      mstore\n        /* \"#utility.yul\":16202:16236   */\n      0x6f6d2074686520636f6e747261637420746f207468652061646d696e69737472\n        /* \"#utility.yul\":16182:16200   */\n      0x64\n      dup3\n      add\n        /* \"#utility.yul\":16175:16237   */\n      mstore\n      shl(0xd9, 0x30ba37b917)\n        /* \"#utility.yul\":16253:16272   */\n      0x84\n      dup3\n      add\n        /* \"#utility.yul\":16246:16282   */\n      mstore\n        /* \"#utility.yul\":16299:16318   */\n      0xa4\n      add\n        /* \"Inheritance.sol\":4788:4938  require(... */\n      tag_173\n        /* \"#utility.yul\":15851:16324   */\n      jump\n        /* \"Inheritance.sol\":4788:4938  require(... */\n    tag_459:\n        /* \"Inheritance.sol\":4592:4945  function withdrawUSDC(uint256 amount) public onlyOwner {... */\n      pop\n      jump\t// out\n        /* \"Inheritance.sol\":5223:5336  function updateAliveTimeOut(uint256 _aliveTimeOut) public onlyOwner {... */\n    tag_137:\n        /* \"@openzeppelin/contracts/access/Ownable.sol\":1094:1107   */\n      tag_463\n        /* \"@openzeppelin/contracts/access/Ownable.sol\":1094:1105   */\n      tag_167\n        /* \"@openzeppelin/contracts/access/Ownable.sol\":1094:1107   */\n      jump\t// in\n    tag_463:\n        /* \"Inheritance.sol\":5301:5313  aliveTimeOut */\n      0x03\n        /* \"Inheritance.sol\":5301:5329  aliveTimeOut = _aliveTimeOut */\n      sstore\n        /* \"Inheritance.sol\":5223:5336  function updateAliveTimeOut(uint256 _aliveTimeOut) public onlyOwner {... */\n      jump\t// out\n        /* \"Inheritance.sol\":6550:6941  function rejectInheritanceRequest(... */\n    tag_141:\n        /* \"@openzeppelin/contracts/access/Ownable.sol\":1094:1107   */\n      tag_466\n        /* \"@openzeppelin/contracts/access/Ownable.sol\":1094:1105   */\n      tag_167\n        /* \"@openzeppelin/contracts/access/Ownable.sol\":1094:1107   */\n      jump\t// in\n    tag_466:\n        /* \"Inheritance.sol\":14424:14443  inheritanceRequests */\n      0x06\n        /* \"Inheritance.sol\":14424:14450  inheritanceRequests.length */\n      sload\n        /* \"Inheritance.sol\":6690:6695  index */\n      dup3\n      swap1\n        /* \"Inheritance.sol\":6697:6706  requester */\n      dup3\n      swap1\n        /* \"Inheritance.sol\":14416:14450  index < inheritanceRequests.length */\n      dup3\n      lt\n        /* \"Inheritance.sol\":14395:14532  require(... */\n      tag_468\n      jumpi\n      mload(0x40)\n      shl(0xe5, 0x461bcd)\n      dup2\n      mstore\n      0x04\n      add\n      tag_173\n      swap1\n      tag_295\n      jump\t// in\n    tag_468:\n        /* \"Inheritance.sol\":14593:14597  addr */\n      dup1\n      sub(shl(0xa0, 0x01), 0x01)\n        /* \"Inheritance.sol\":14563:14597  inheritanceRequests[index] == addr */\n      and\n        /* \"Inheritance.sol\":14563:14582  inheritanceRequests */\n      0x06\n        /* \"Inheritance.sol\":14583:14588  index */\n      dup4\n        /* \"Inheritance.sol\":14563:14589  inheritanceRequests[index] */\n      dup2\n      sload\n      dup2\n      lt\n      tag_471\n      jumpi\n      tag_471\n      tag_186\n      jump\t// in\n    tag_471:\n      0x00\n      swap2\n      dup3\n      mstore\n      0x20\n      swap1\n      swap2\n      keccak256\n      add\n      sload\n      sub(shl(0xa0, 0x01), 0x01)\n      and\n        /* \"Inheritance.sol\":14563:14597  inheritanceRequests[index] == addr */\n      eq\n        /* \"Inheritance.sol\":14542:14696  require(... */\n      tag_473\n      jumpi\n      mload(0x40)\n      shl(0xe5, 0x461bcd)\n      dup2\n      mstore\n      0x04\n      add\n      tag_173\n      swap1\n      tag_301\n      jump\t// in\n    tag_473:\n        /* \"Inheritance.sol\":6718:6738  removeRequest(index) */\n      tag_476\n        /* \"Inheritance.sol\":6732:6737  index */\n      dup5\n        /* \"Inheritance.sol\":6718:6731  removeRequest */\n      tag_326\n        /* \"Inheritance.sol\":6718:6738  removeRequest(index) */\n      jump\t// in\n    tag_476:\n        /* \"Inheritance.sol\":6872:6891  inheritanceRequests */\n      0x06\n        /* \"Inheritance.sol\":6872:6898  inheritanceRequests.length */\n      sload\n        /* \"Inheritance.sol\":6912:6917  heirs */\n      0x05\n        /* \"Inheritance.sol\":6912:6924  heirs.length */\n      sload\n        /* \"Inheritance.sol\":6753:6934  LogHeirRejected(... */\n      0x40\n      dup1\n      mload\n        /* \"#utility.yul\":16587:16589   */\n      0x60\n        /* \"#utility.yul\":16569:16590   */\n      dup1\n      dup3\n      mstore\n        /* \"#utility.yul\":16626:16628   */\n      0x33\n        /* \"#utility.yul\":16606:16624   */\n      swap1\n      dup3\n      add\n        /* \"#utility.yul\":16599:16629   */\n      mstore\n        /* \"#utility.yul\":16666:16700   */\n      0x41646d696e6973747261746f722072656a656374732075736572277320726571\n        /* \"#utility.yul\":16660:16663   */\n      0x80\n        /* \"#utility.yul\":16645:16664   */\n      dup3\n      add\n        /* \"#utility.yul\":16638:16701   */\n      mstore\n      shl(0x69, 0x3ab2b9ba103a379031329030b7103432b4b917)\n        /* \"#utility.yul\":16732:16735   */\n      0xa0\n        /* \"#utility.yul\":16717:16736   */\n      dup3\n      add\n        /* \"#utility.yul\":16710:16760   */\n      mstore\n        /* \"#utility.yul\":16827:16831   */\n      0x20\n        /* \"#utility.yul\":16812:16832   */\n      dup2\n      add\n        /* \"#utility.yul\":16805:16841   */\n      swap4\n      swap1\n      swap4\n      mstore\n        /* \"#utility.yul\":16857:16875   */\n      dup3\n      add\n        /* \"#utility.yul\":16850:16884   */\n      mstore\n      sub(shl(0xa0, 0x01), 0x01)\n        /* \"Inheritance.sol\":6753:6934  LogHeirRejected(... */\n      dup5\n      and\n      swap1\n      0x05541b3bb46c30ee5aea95b57d7a1d3949da67ba8e09c865da2318f2fb273857\n      swap1\n        /* \"#utility.yul\":16792:16795   */\n      0xc0\n        /* \"#utility.yul\":16777:16796   */\n      add\n        /* \"Inheritance.sol\":6753:6934  LogHeirRejected(... */\n      mload(0x40)\n      dup1\n      swap2\n      sub\n      swap1\n      log2\n        /* \"@openzeppelin/contracts/access/Ownable.sol\":1117:1118   */\n      pop\n      pop\n        /* \"Inheritance.sol\":6550:6941  function rejectInheritanceRequest(... */\n      pop\n      pop\n      jump\t// out\n        /* \"@openzeppelin/contracts/access/Ownable.sol\":2081:2279   */\n    tag_149:\n        /* \"@openzeppelin/contracts/access/Ownable.sol\":1094:1107   */\n      tag_481\n        /* \"@openzeppelin/contracts/access/Ownable.sol\":1094:1105   */\n      tag_167\n        /* \"@openzeppelin/contracts/access/Ownable.sol\":1094:1107   */\n      jump\t// in\n    tag_481:\n      sub(shl(0xa0, 0x01), 0x01)\n        /* \"@openzeppelin/contracts/access/Ownable.sol\":2169:2191   */\n      dup2\n      and\n        /* \"@openzeppelin/contracts/access/Ownable.sol\":2161:2234   */\n      tag_483\n      jumpi\n      mload(0x40)\n      shl(0xe5, 0x461bcd)\n      dup2\n      mstore\n        /* \"#utility.yul\":17097:17099   */\n      0x20\n        /* \"@openzeppelin/contracts/access/Ownable.sol\":2161:2234   */\n      0x04\n      dup3\n      add\n        /* \"#utility.yul\":17079:17100   */\n      mstore\n        /* \"#utility.yul\":17136:17138   */\n      0x26\n        /* \"#utility.yul\":17116:17134   */\n      0x24\n      dup3\n      add\n        /* \"#utility.yul\":17109:17139   */\n      mstore\n        /* \"#utility.yul\":17175:17209   */\n      0x4f776e61626c653a206e6577206f776e657220697320746865207a65726f2061\n        /* \"#utility.yul\":17155:17173   */\n      0x44\n      dup3\n      add\n        /* \"#utility.yul\":17148:17210   */\n      mstore\n      shl(0xd0, 0x646472657373)\n        /* \"#utility.yul\":17226:17244   */\n      0x64\n      dup3\n      add\n        /* \"#utility.yul\":17219:17255   */\n      mstore\n        /* \"#utility.yul\":17272:17291   */\n      0x84\n      add\n        /* \"@openzeppelin/contracts/access/Ownable.sol\":2161:2234   */\n      tag_173\n        /* \"#utility.yul\":16895:17297   */\n      jump\n        /* \"@openzeppelin/contracts/access/Ownable.sol\":2161:2234   */\n    tag_483:\n        /* \"@openzeppelin/contracts/access/Ownable.sol\":2244:2272   */\n      tag_459\n        /* \"@openzeppelin/contracts/access/Ownable.sol\":2263:2271   */\n      dup2\n        /* \"@openzeppelin/contracts/access/Ownable.sol\":2244:2262   */\n      tag_289\n        /* \"@openzeppelin/contracts/access/Ownable.sol\":2244:2272   */\n      jump\t// in\n        /* \"Inheritance.sol\":12128:12469  function getHeirsAddresses() public view returns (address[] memory) {... */\n    tag_157:\n        /* \"Inheritance.sol\":12253:12258  heirs */\n      0x05\n        /* \"Inheritance.sol\":12253:12265  heirs.length */\n      sload\n        /* \"Inheritance.sol\":12178:12194  address[] memory */\n      0x60\n      swap1\n        /* \"Inheritance.sol\":12206:12236  address[] memory heirAddresses */\n      0x00\n      swap1\n        /* \"Inheritance.sol\":12239:12266  new address[](heirs.length) */\n      0xffffffffffffffff\n      dup2\n      gt\n      iszero\n      tag_489\n      jumpi\n      tag_489\n      tag_490\n      jump\t// in\n    tag_489:\n      mload(0x40)\n      swap1\n      dup1\n      dup3\n      mstore\n      dup1\n      0x20\n      mul\n      0x20\n      add\n      dup3\n      add\n      0x40\n      mstore\n      dup1\n      iszero\n      tag_491\n      jumpi\n      dup2\n      0x20\n      add\n      0x20\n      dup3\n      mul\n      dup1\n      calldatasize\n      dup4\n      calldatacopy\n      add\n      swap1\n      pop\n    tag_491:\n      pop\n        /* \"Inheritance.sol\":12206:12266  address[] memory heirAddresses = new address[](heirs.length) */\n      swap1\n      pop\n        /* \"Inheritance.sol\":12276:12289  uint256 index */\n      0x00\n        /* \"Inheritance.sol\":12309:12318  uint256 i */\n      dup1\n        /* \"Inheritance.sol\":12304:12432  for (uint256 i = 0; i < heirs.length; i++) {... */\n    tag_492:\n        /* \"Inheritance.sol\":12328:12333  heirs */\n      0x05\n        /* \"Inheritance.sol\":12328:12340  heirs.length */\n      sload\n        /* \"Inheritance.sol\":12324:12340  i < heirs.length */\n      dup2\n      lt\n        /* \"Inheritance.sol\":12304:12432  for (uint256 i = 0; i < heirs.length; i++) {... */\n      iszero\n      tag_493\n      jumpi\n        /* \"Inheritance.sol\":12384:12389  heirs */\n      0x05\n        /* \"Inheritance.sol\":12390:12391  i */\n      dup2\n        /* \"Inheritance.sol\":12384:12392  heirs[i] */\n      dup2\n      sload\n      dup2\n      lt\n      tag_496\n      jumpi\n      tag_496\n      tag_186\n      jump\t// in\n    tag_496:\n      0x00\n      swap2\n      dup3\n      mstore\n      0x20\n      swap1\n      swap2\n      keccak256\n      0x05\n      swap1\n      swap2\n      mul\n      add\n        /* \"Inheritance.sol\":12384:12397  heirs[i].heir */\n      sload\n        /* \"Inheritance.sol\":12361:12381  heirAddresses[index] */\n      dup4\n      mload\n      sub(shl(0xa0, 0x01), 0x01)\n        /* \"Inheritance.sol\":12384:12397  heirs[i].heir */\n      swap1\n      swap2\n      and\n      swap1\n        /* \"Inheritance.sol\":12361:12374  heirAddresses */\n      dup5\n      swap1\n        /* \"Inheritance.sol\":12375:12380  index */\n      dup5\n      swap1\n        /* \"Inheritance.sol\":12361:12381  heirAddresses[index] */\n      dup2\n      lt\n      tag_499\n      jumpi\n      tag_499\n      tag_186\n      jump\t// in\n    tag_499:\n      sub(shl(0xa0, 0x01), 0x01)\n        /* \"Inheritance.sol\":12361:12397  heirAddresses[index] = heirs[i].heir */\n      swap1\n      swap3\n      and\n        /* \"Inheritance.sol\":12361:12381  heirAddresses[index] */\n      0x20\n      swap3\n      dup4\n      mul\n      swap2\n      swap1\n      swap2\n      add\n      swap1\n      swap2\n      add\n        /* \"Inheritance.sol\":12361:12397  heirAddresses[index] = heirs[i].heir */\n      mstore\n        /* \"Inheritance.sol\":12411:12421  index += 1 */\n      tag_500\n        /* \"Inheritance.sol\":12420:12421  1 */\n      0x01\n        /* \"Inheritance.sol\":12411:12421  index += 1 */\n      dup4\n      tag_315\n      jump\t// in\n    tag_500:\n      swap2\n      pop\n        /* \"Inheritance.sol\":12342:12345  i++ */\n      dup1\n      tag_501\n      dup2\n      tag_195\n      jump\t// in\n    tag_501:\n      swap2\n      pop\n      pop\n        /* \"Inheritance.sol\":12304:12432  for (uint256 i = 0; i < heirs.length; i++) {... */\n      jump(tag_492)\n    tag_493:\n      pop\n        /* \"Inheritance.sol\":12449:12462  heirAddresses */\n      swap1\n      swap3\n        /* \"Inheritance.sol\":12128:12469  function getHeirsAddresses() public view returns (address[] memory) {... */\n      swap2\n      pop\n      pop\n      jump\t// out\n        /* \"@openzeppelin/contracts/access/Ownable.sol\":1359:1489   */\n    tag_167:\n        /* \"@openzeppelin/contracts/access/Ownable.sol\":1247:1254   */\n      0x00\n        /* \"@openzeppelin/contracts/access/Ownable.sol\":1273:1279   */\n      sload\n      sub(shl(0xa0, 0x01), 0x01)\n      and\n        /* \"@openzeppelin/contracts/utils/Context.sol\":719:729   */\n      caller\n        /* \"@openzeppelin/contracts/access/Ownable.sol\":1422:1445   */\n      eq\n        /* \"@openzeppelin/contracts/access/Ownable.sol\":1414:1482   */\n      tag_288\n      jumpi\n      mload(0x40)\n      shl(0xe5, 0x461bcd)\n      dup2\n      mstore\n        /* \"#utility.yul\":17636:17638   */\n      0x20\n        /* \"@openzeppelin/contracts/access/Ownable.sol\":1414:1482   */\n      0x04\n      dup3\n      add\n        /* \"#utility.yul\":17618:17639   */\n      dup2\n      swap1\n      mstore\n        /* \"#utility.yul\":17655:17673   */\n      0x24\n      dup3\n      add\n        /* \"#utility.yul\":17648:17678   */\n      mstore\n        /* \"#utility.yul\":17714:17748   */\n      0x4f776e61626c653a2063616c6c6572206973206e6f7420746865206f776e6572\n        /* \"#utility.yul\":17694:17712   */\n      0x44\n      dup3\n      add\n        /* \"#utility.yul\":17687:17749   */\n      mstore\n        /* \"#utility.yul\":17766:17784   */\n      0x64\n      add\n        /* \"@openzeppelin/contracts/access/Ownable.sol\":1414:1482   */\n      tag_173\n        /* \"#utility.yul\":17434:17790   */\n      jump\n        /* \"Inheritance.sol\":10597:10911  function indexOfToken(... */\n    tag_242:\n        /* \"Inheritance.sol\":10704:10711  uint256 */\n      0x00\n      dup1\n        /* \"Inheritance.sol\":10723:10852  for (uint256 i = 0; i < arr.length; i++) {... */\n    tag_510:\n        /* \"Inheritance.sol\":10747:10757  arr.length */\n      dup4\n      sload\n        /* \"Inheritance.sol\":10743:10757  i < arr.length */\n      dup2\n      lt\n        /* \"Inheritance.sol\":10723:10852  for (uint256 i = 0; i < arr.length; i++) {... */\n      iszero\n      tag_511\n      jumpi\n        /* \"Inheritance.sol\":10792:10799  tokenId */\n      dup3\n        /* \"Inheritance.sol\":10782:10785  arr */\n      dup5\n        /* \"Inheritance.sol\":10786:10787  i */\n      dup3\n        /* \"Inheritance.sol\":10782:10788  arr[i] */\n      dup2\n      sload\n      dup2\n      lt\n      tag_514\n      jumpi\n      tag_514\n      tag_186\n      jump\t// in\n    tag_514:\n      swap1\n      0x00\n      mstore\n      keccak256(0x00, 0x20)\n      add\n      sload\n        /* \"Inheritance.sol\":10782:10799  arr[i] == tokenId */\n      sub\n        /* \"Inheritance.sol\":10778:10842  if (arr[i] == tokenId) {... */\n      tag_516\n      jumpi\n        /* \"Inheritance.sol\":10826:10827  i */\n      swap1\n      pop\n        /* \"Inheritance.sol\":10819:10827  return i */\n      jump(tag_518)\n        /* \"Inheritance.sol\":10778:10842  if (arr[i] == tokenId) {... */\n    tag_516:\n        /* \"Inheritance.sol\":10759:10762  i++ */\n      dup1\n      tag_517\n      dup2\n      tag_195\n      jump\t// in\n    tag_517:\n      swap2\n      pop\n      pop\n        /* \"Inheritance.sol\":10723:10852  for (uint256 i = 0; i < arr.length; i++) {... */\n      jump(tag_510)\n    tag_511:\n      pop\n        /* \"Inheritance.sol\":10861:10904  require(false, \"Token not found in array.\") */\n      mload(0x40)\n      shl(0xe5, 0x461bcd)\n      dup2\n      mstore\n        /* \"#utility.yul\":17997:17999   */\n      0x20\n        /* \"Inheritance.sol\":10861:10904  require(false, \"Token not found in array.\") */\n      0x04\n      dup3\n      add\n        /* \"#utility.yul\":17979:18000   */\n      mstore\n        /* \"#utility.yul\":18036:18038   */\n      0x19\n        /* \"#utility.yul\":18016:18034   */\n      0x24\n      dup3\n      add\n        /* \"#utility.yul\":18009:18039   */\n      mstore\n        /* \"#utility.yul\":18075:18102   */\n      0x546f6b656e206e6f7420666f756e6420696e2061727261792e00000000000000\n        /* \"#utility.yul\":18055:18073   */\n      0x44\n      dup3\n      add\n        /* \"#utility.yul\":18048:18103   */\n      mstore\n        /* \"#utility.yul\":18120:18138   */\n      0x64\n      add\n        /* \"Inheritance.sol\":10861:10904  require(false, \"Token not found in array.\") */\n      tag_173\n        /* \"#utility.yul\":17795:18144   */\n      jump\n        /* \"Inheritance.sol\":10861:10904  require(false, \"Token not found in array.\") */\n    tag_518:\n        /* \"Inheritance.sol\":10597:10911  function indexOfToken(... */\n      swap3\n      swap2\n      pop\n      pop\n      jump\t// out\n        /* \"Inheritance.sol\":10329:10591  function removeTokenAtIndex(uint256[] storage arr, uint256 index) internal {... */\n    tag_247:\n        /* \"Inheritance.sol\":10430:10440  arr.length */\n      dup2\n      sload\n        /* \"Inheritance.sol\":10422:10440  index < arr.length */\n      dup2\n      lt\n        /* \"Inheritance.sol\":10414:10465  require(index < arr.length, \"Index out of bounds.\") */\n      tag_522\n      jumpi\n      mload(0x40)\n      shl(0xe5, 0x461bcd)\n      dup2\n      mstore\n        /* \"#utility.yul\":18351:18353   */\n      0x20\n        /* \"Inheritance.sol\":10414:10465  require(index < arr.length, \"Index out of bounds.\") */\n      0x04\n      dup3\n      add\n        /* \"#utility.yul\":18333:18354   */\n      mstore\n        /* \"#utility.yul\":18390:18392   */\n      0x14\n        /* \"#utility.yul\":18370:18388   */\n      0x24\n      dup3\n      add\n        /* \"#utility.yul\":18363:18393   */\n      mstore\n      shl(0x61, 0x24b73232bc1037baba1037b3103137bab7323997)\n        /* \"#utility.yul\":18409:18427   */\n      0x44\n      dup3\n      add\n        /* \"#utility.yul\":18402:18452   */\n      mstore\n        /* \"#utility.yul\":18469:18487   */\n      0x64\n      add\n        /* \"Inheritance.sol\":10414:10465  require(index < arr.length, \"Index out of bounds.\") */\n      tag_173\n        /* \"#utility.yul\":18149:18493   */\n      jump\n        /* \"Inheritance.sol\":10414:10465  require(index < arr.length, \"Index out of bounds.\") */\n    tag_522:\n        /* \"Inheritance.sol\":10490:10495  index */\n      dup1\n        /* \"Inheritance.sol\":10476:10566  for (uint i = index; i < arr.length - 1; i++) {... */\n    tag_525:\n        /* \"Inheritance.sol\":10501:10511  arr.length */\n      dup3\n      sload\n        /* \"Inheritance.sol\":10501:10515  arr.length - 1 */\n      tag_528\n      swap1\n        /* \"Inheritance.sol\":10514:10515  1 */\n      0x01\n      swap1\n        /* \"Inheritance.sol\":10501:10515  arr.length - 1 */\n      tag_161\n      jump\t// in\n    tag_528:\n        /* \"Inheritance.sol\":10497:10498  i */\n      dup2\n        /* \"Inheritance.sol\":10497:10515  i < arr.length - 1 */\n      lt\n        /* \"Inheritance.sol\":10476:10566  for (uint i = index; i < arr.length - 1; i++) {... */\n      iszero\n      tag_526\n      jumpi\n        /* \"Inheritance.sol\":10545:10548  arr */\n      dup3\n        /* \"Inheritance.sol\":10549:10554  i + 1 */\n      tag_529\n        /* \"Inheritance.sol\":10549:10550  i */\n      dup3\n        /* \"Inheritance.sol\":10553:10554  1 */\n      0x01\n        /* \"Inheritance.sol\":10549:10554  i + 1 */\n      tag_315\n      jump\t// in\n    tag_529:\n        /* \"Inheritance.sol\":10545:10555  arr[i + 1] */\n      dup2\n      sload\n      dup2\n      lt\n      tag_531\n      jumpi\n      tag_531\n      tag_186\n      jump\t// in\n    tag_531:\n      swap1\n      0x00\n      mstore\n      keccak256(0x00, 0x20)\n      add\n      sload\n        /* \"Inheritance.sol\":10536:10539  arr */\n      dup4\n        /* \"Inheritance.sol\":10540:10541  i */\n      dup3\n        /* \"Inheritance.sol\":10536:10542  arr[i] */\n      dup2\n      sload\n      dup2\n      lt\n      tag_534\n      jumpi\n      tag_534\n      tag_186\n      jump\t// in\n    tag_534:\n      0x00\n      swap2\n      dup3\n      mstore\n      0x20\n      swap1\n      swap2\n      keccak256\n      add\n        /* \"Inheritance.sol\":10536:10555  arr[i] = arr[i + 1] */\n      sstore\n        /* \"Inheritance.sol\":10517:10520  i++ */\n      dup1\n      tag_536\n      dup2\n      tag_195\n      jump\t// in\n    tag_536:\n      swap2\n      pop\n      pop\n        /* \"Inheritance.sol\":10476:10566  for (uint i = index; i < arr.length - 1; i++) {... */\n      jump(tag_525)\n    tag_526:\n      pop\n        /* \"Inheritance.sol\":10575:10578  arr */\n      dup2\n        /* \"Inheritance.sol\":10575:10584  arr.pop() */\n      dup1\n      sload\n      dup1\n      tag_538\n      jumpi\n      tag_538\n      tag_539\n      jump\t// in\n    tag_538:\n      0x01\n      swap1\n      sub\n      dup2\n      dup2\n      swap1\n      0x00\n      mstore\n      keccak256(0x00, 0x20)\n      add\n      0x00\n      swap1\n      sstore\n      swap1\n      sstore\n        /* \"Inheritance.sol\":10329:10591  function removeTokenAtIndex(uint256[] storage arr, uint256 index) internal {... */\n      pop\n      pop\n      jump\t// out\n        /* \"@openzeppelin/contracts/access/Ownable.sol\":2433:2620   */\n    tag_289:\n        /* \"@openzeppelin/contracts/access/Ownable.sol\":2506:2522   */\n      0x00\n        /* \"@openzeppelin/contracts/access/Ownable.sol\":2525:2531   */\n      dup1\n      sload\n      sub(shl(0xa0, 0x01), 0x01)\n        /* \"@openzeppelin/contracts/access/Ownable.sol\":2541:2558   */\n      dup4\n      dup2\n      and\n      not(sub(shl(0xa0, 0x01), 0x01))\n      dup4\n      and\n      dup2\n      or\n      dup5\n      sstore\n        /* \"@openzeppelin/contracts/access/Ownable.sol\":2573:2613   */\n      mload(0x40)\n        /* \"@openzeppelin/contracts/access/Ownable.sol\":2525:2531   */\n      swap2\n      swap1\n      swap3\n      and\n      swap3\n      dup4\n      swap2\n        /* \"@openzeppelin/contracts/access/Ownable.sol\":2573:2613   */\n      0x8be0079c531659141344cd1fd0a4f28419497f9722a3daafe3b4186f6b6457e0\n      swap2\n        /* \"@openzeppelin/contracts/access/Ownable.sol\":2506:2522   */\n      swap1\n        /* \"@openzeppelin/contracts/access/Ownable.sol\":2573:2613   */\n      log3\n        /* \"@openzeppelin/contracts/access/Ownable.sol\":2496:2620   */\n      pop\n        /* \"@openzeppelin/contracts/access/Ownable.sol\":2433:2620   */\n      pop\n      jump\t// out\n        /* \"Inheritance.sol\":15080:15461  function removeRequest(uint index) internal {... */\n    tag_326:\n        /* \"Inheritance.sol\":15163:15182  inheritanceRequests */\n      0x06\n        /* \"Inheritance.sol\":15163:15189  inheritanceRequests.length */\n      sload\n        /* \"Inheritance.sol\":15155:15189  index < inheritanceRequests.length */\n      dup2\n      lt\n        /* \"Inheritance.sol\":15134:15271  require(... */\n      tag_543\n      jumpi\n      mload(0x40)\n      shl(0xe5, 0x461bcd)\n      dup2\n      mstore\n      0x04\n      add\n      tag_173\n      swap1\n      tag_295\n      jump\t// in\n    tag_543:\n        /* \"Inheritance.sol\":15296:15301  index */\n      dup1\n        /* \"Inheritance.sol\":15282:15420  for (uint i = index; i < inheritanceRequests.length - 1; i++) {... */\n    tag_545:\n        /* \"Inheritance.sol\":15307:15326  inheritanceRequests */\n      0x06\n        /* \"Inheritance.sol\":15307:15333  inheritanceRequests.length */\n      sload\n        /* \"Inheritance.sol\":15307:15337  inheritanceRequests.length - 1 */\n      tag_548\n      swap1\n        /* \"Inheritance.sol\":15336:15337  1 */\n      0x01\n      swap1\n        /* \"Inheritance.sol\":15307:15337  inheritanceRequests.length - 1 */\n      tag_161\n      jump\t// in\n    tag_548:\n        /* \"Inheritance.sol\":15303:15304  i */\n      dup2\n        /* \"Inheritance.sol\":15303:15337  i < inheritanceRequests.length - 1 */\n      lt\n        /* \"Inheritance.sol\":15282:15420  for (uint i = index; i < inheritanceRequests.length - 1; i++) {... */\n      iszero\n      tag_546\n      jumpi\n        /* \"Inheritance.sol\":15383:15402  inheritanceRequests */\n      0x06\n        /* \"Inheritance.sol\":15403:15408  i + 1 */\n      tag_549\n        /* \"Inheritance.sol\":15403:15404  i */\n      dup3\n        /* \"Inheritance.sol\":15407:15408  1 */\n      0x01\n        /* \"Inheritance.sol\":15403:15408  i + 1 */\n      tag_315\n      jump\t// in\n    tag_549:\n        /* \"Inheritance.sol\":15383:15409  inheritanceRequests[i + 1] */\n      dup2\n      sload\n      dup2\n      lt\n      tag_551\n      jumpi\n      tag_551\n      tag_186\n      jump\t// in\n    tag_551:\n      0x00\n      swap2\n      dup3\n      mstore\n      0x20\n      swap1\n      swap2\n      keccak256\n      add\n      sload\n        /* \"Inheritance.sol\":15358:15377  inheritanceRequests */\n      0x06\n        /* \"Inheritance.sol\":15358:15380  inheritanceRequests[i] */\n      dup1\n      sload\n      sub(shl(0xa0, 0x01), 0x01)\n        /* \"Inheritance.sol\":15383:15409  inheritanceRequests[i + 1] */\n      swap1\n      swap3\n      and\n      swap2\n        /* \"Inheritance.sol\":15378:15379  i */\n      dup4\n      swap1\n        /* \"Inheritance.sol\":15358:15380  inheritanceRequests[i] */\n      dup2\n      lt\n      tag_554\n      jumpi\n      tag_554\n      tag_186\n      jump\t// in\n    tag_554:\n      0x00\n      swap2\n      dup3\n      mstore\n      0x20\n      swap1\n      swap2\n      keccak256\n      add\n        /* \"Inheritance.sol\":15358:15409  inheritanceRequests[i] = inheritanceRequests[i + 1] */\n      dup1\n      sload\n      not(sub(shl(0xa0, 0x01), 0x01))\n      and\n      sub(shl(0xa0, 0x01), 0x01)\n      swap3\n      swap1\n      swap3\n      and\n      swap2\n      swap1\n      swap2\n      or\n      swap1\n      sstore\n        /* \"Inheritance.sol\":15339:15342  i++ */\n      dup1\n      tag_556\n      dup2\n      tag_195\n      jump\t// in\n    tag_556:\n      swap2\n      pop\n      pop\n        /* \"Inheritance.sol\":15282:15420  for (uint i = index; i < inheritanceRequests.length - 1; i++) {... */\n      jump(tag_545)\n    tag_546:\n      pop\n        /* \"Inheritance.sol\":15429:15448  inheritanceRequests */\n      0x06\n        /* \"Inheritance.sol\":15429:15454  inheritanceRequests.pop() */\n      dup1\n      sload\n      dup1\n      tag_558\n      jumpi\n      tag_558\n      tag_539\n      jump\t// in\n    tag_558:\n      0x00\n      dup3\n      dup2\n      mstore\n      0x20\n      swap1\n      keccak256\n      dup2\n      add\n      not(0x00)\n      swap1\n      dup2\n      add\n      dup1\n      sload\n      not(sub(shl(0xa0, 0x01), 0x01))\n      and\n      swap1\n      sstore\n      add\n      swap1\n      sstore\n      pop\n        /* \"Inheritance.sol\":15080:15461  function removeRequest(uint index) internal {... */\n      jump\t// out\n    tag_324:\n      dup3\n      dup1\n      sload\n      dup3\n      dup3\n      sstore\n      swap1\n      0x00\n      mstore\n      keccak256(0x00, 0x20)\n      swap1\n      dup2\n      add\n      swap3\n      dup3\n      iszero\n      tag_563\n      jumpi\n      swap2\n      0x20\n      mul\n      dup3\n      add\n    tag_562:\n      dup3\n      dup2\n      gt\n      iszero\n      tag_563\n      jumpi\n      dup3\n      mload\n      dup3\n      sstore\n      swap2\n      0x20\n      add\n      swap2\n      swap1\n      0x01\n      add\n      swap1\n      jump(tag_562)\n    tag_563:\n      pop\n      tag_564\n      swap3\n      swap2\n      pop\n      tag_565\n      jump\t// in\n    tag_564:\n      pop\n      swap1\n      jump\t// out\n    tag_565:\n    tag_566:\n      dup1\n      dup3\n      gt\n      iszero\n      tag_564\n      jumpi\n      0x00\n      dup2\n      sstore\n      0x01\n      add\n      jump(tag_566)\n        /* \"#utility.yul\":206:864   */\n    tag_46:\n        /* \"#utility.yul\":377:379   */\n      0x20\n        /* \"#utility.yul\":429:450   */\n      dup1\n      dup3\n      mstore\n        /* \"#utility.yul\":499:512   */\n      dup3\n      mload\n        /* \"#utility.yul\":402:420   */\n      dup3\n      dup3\n      add\n        /* \"#utility.yul\":521:543   */\n      dup2\n      swap1\n      mstore\n        /* \"#utility.yul\":348:352   */\n      0x00\n      swap2\n        /* \"#utility.yul\":377:379   */\n      swap1\n        /* \"#utility.yul\":600:615   */\n      dup5\n      dup3\n      add\n      swap1\n        /* \"#utility.yul\":574:576   */\n      0x40\n        /* \"#utility.yul\":559:577   */\n      dup6\n      add\n      swap1\n        /* \"#utility.yul\":348:352   */\n      dup5\n        /* \"#utility.yul\":643:838   */\n    tag_575:\n        /* \"#utility.yul\":657:663   */\n      dup2\n        /* \"#utility.yul\":654:655   */\n      dup2\n        /* \"#utility.yul\":651:664   */\n      lt\n        /* \"#utility.yul\":643:838   */\n      iszero\n      tag_577\n      jumpi\n        /* \"#utility.yul\":722:735   */\n      dup4\n      mload\n      sub(shl(0xa0, 0x01), 0x01)\n        /* \"#utility.yul\":718:757   */\n      and\n        /* \"#utility.yul\":706:758   */\n      dup4\n      mstore\n        /* \"#utility.yul\":813:828   */\n      swap3\n      dup5\n      add\n      swap3\n        /* \"#utility.yul\":778:790   */\n      swap2\n      dup5\n      add\n      swap2\n        /* \"#utility.yul\":754:755   */\n      0x01\n        /* \"#utility.yul\":672:681   */\n      add\n        /* \"#utility.yul\":643:838   */\n      jump(tag_575)\n    tag_577:\n      pop\n        /* \"#utility.yul\":855:858   */\n      swap1\n      swap7\n        /* \"#utility.yul\":206:864   */\n      swap6\n      pop\n      pop\n      pop\n      pop\n      pop\n      pop\n      jump\t// out\n        /* \"#utility.yul\":1051:1231   */\n    tag_55:\n        /* \"#utility.yul\":1110:1116   */\n      0x00\n        /* \"#utility.yul\":1163:1165   */\n      0x20\n        /* \"#utility.yul\":1151:1160   */\n      dup3\n        /* \"#utility.yul\":1142:1149   */\n      dup5\n        /* \"#utility.yul\":1138:1161   */\n      sub\n        /* \"#utility.yul\":1134:1166   */\n      slt\n        /* \"#utility.yul\":1131:1183   */\n      iszero\n      tag_580\n      jumpi\n        /* \"#utility.yul\":1179:1180   */\n      0x00\n        /* \"#utility.yul\":1176:1177   */\n      dup1\n        /* \"#utility.yul\":1169:1181   */\n      revert\n        /* \"#utility.yul\":1131:1183   */\n    tag_580:\n      pop\n        /* \"#utility.yul\":1202:1225   */\n      calldataload\n      swap2\n        /* \"#utility.yul\":1051:1231   */\n      swap1\n      pop\n      jump\t// out\n        /* \"#utility.yul\":1236:1409   */\n    tag_568:\n        /* \"#utility.yul\":1304:1324   */\n      dup1\n      calldataload\n      sub(shl(0xa0, 0x01), 0x01)\n        /* \"#utility.yul\":1353:1384   */\n      dup2\n      and\n        /* \"#utility.yul\":1343:1385   */\n      dup2\n      eq\n        /* \"#utility.yul\":1333:1403   */\n      tag_218\n      jumpi\n        /* \"#utility.yul\":1399:1400   */\n      0x00\n        /* \"#utility.yul\":1396:1397   */\n      dup1\n        /* \"#utility.yul\":1389:1401   */\n      revert\n        /* \"#utility.yul\":1414:1600   */\n    tag_60:\n        /* \"#utility.yul\":1473:1479   */\n      0x00\n        /* \"#utility.yul\":1526:1528   */\n      0x20\n        /* \"#utility.yul\":1514:1523   */\n      dup3\n        /* \"#utility.yul\":1505:1512   */\n      dup5\n        /* \"#utility.yul\":1501:1524   */\n      sub\n        /* \"#utility.yul\":1497:1529   */\n      slt\n        /* \"#utility.yul\":1494:1546   */\n      iszero\n      tag_584\n      jumpi\n        /* \"#utility.yul\":1542:1543   */\n      0x00\n        /* \"#utility.yul\":1539:1540   */\n      dup1\n        /* \"#utility.yul\":1532:1544   */\n      revert\n        /* \"#utility.yul\":1494:1546   */\n    tag_584:\n        /* \"#utility.yul\":1565:1594   */\n      tag_585\n        /* \"#utility.yul\":1584:1593   */\n      dup3\n        /* \"#utility.yul\":1565:1594   */\n      tag_568\n      jump\t// in\n    tag_585:\n        /* \"#utility.yul\":1555:1594   */\n      swap4\n        /* \"#utility.yul\":1414:1600   */\n      swap3\n      pop\n      pop\n      pop\n      jump\t// out\n        /* \"#utility.yul\":1605:2040   */\n    tag_569:\n        /* \"#utility.yul\":1658:1661   */\n      0x00\n        /* \"#utility.yul\":1696:1701   */\n      dup2\n        /* \"#utility.yul\":1690:1702   */\n      mload\n        /* \"#utility.yul\":1723:1729   */\n      dup1\n        /* \"#utility.yul\":1718:1721   */\n      dup5\n        /* \"#utility.yul\":1711:1730   */\n      mstore\n        /* \"#utility.yul\":1749:1753   */\n      0x20\n        /* \"#utility.yul\":1778:1780   */\n      dup1\n        /* \"#utility.yul\":1773:1776   */\n      dup6\n        /* \"#utility.yul\":1769:1781   */\n      add\n        /* \"#utility.yul\":1762:1781   */\n      swap5\n      pop\n        /* \"#utility.yul\":1815:1817   */\n      dup1\n        /* \"#utility.yul\":1808:1813   */\n      dup5\n        /* \"#utility.yul\":1804:1818   */\n      add\n        /* \"#utility.yul\":1836:1837   */\n      0x00\n        /* \"#utility.yul\":1846:2015   */\n    tag_587:\n        /* \"#utility.yul\":1860:1866   */\n      dup4\n        /* \"#utility.yul\":1857:1858   */\n      dup2\n        /* \"#utility.yul\":1854:1867   */\n      lt\n        /* \"#utility.yul\":1846:2015   */\n      iszero\n      tag_589\n      jumpi\n        /* \"#utility.yul\":1921:1934   */\n      dup2\n      mload\n        /* \"#utility.yul\":1909:1935   */\n      dup8\n      mstore\n        /* \"#utility.yul\":1955:1967   */\n      swap6\n      dup3\n      add\n      swap6\n        /* \"#utility.yul\":1990:2005   */\n      swap1\n      dup3\n      add\n      swap1\n        /* \"#utility.yul\":1882:1883   */\n      0x01\n        /* \"#utility.yul\":1875:1884   */\n      add\n        /* \"#utility.yul\":1846:2015   */\n      jump(tag_587)\n    tag_589:\n      pop\n        /* \"#utility.yul\":2031:2034   */\n      swap5\n      swap6\n        /* \"#utility.yul\":1605:2040   */\n      swap5\n      pop\n      pop\n      pop\n      pop\n      pop\n      jump\t// out\n        /* \"#utility.yul\":2045:2306   */\n    tag_63:\n        /* \"#utility.yul\":2224:2226   */\n      0x20\n        /* \"#utility.yul\":2213:2222   */\n      dup2\n        /* \"#utility.yul\":2206:2227   */\n      mstore\n        /* \"#utility.yul\":2187:2191   */\n      0x00\n        /* \"#utility.yul\":2244:2300   */\n      tag_585\n        /* \"#utility.yul\":2296:2298   */\n      0x20\n        /* \"#utility.yul\":2285:2294   */\n      dup4\n        /* \"#utility.yul\":2281:2299   */\n      add\n        /* \"#utility.yul\":2273:2279   */\n      dup5\n        /* \"#utility.yul\":2244:2300   */\n      tag_569\n      jump\t// in\n        /* \"#utility.yul\":2311:2764   */\n    tag_570:\n        /* \"#utility.yul\":2423:2424   */\n      0x01\n        /* \"#utility.yul\":2419:2420   */\n      dup1\n        /* \"#utility.yul\":2414:2417   */\n      0xa0\n        /* \"#utility.yul\":2410:2421   */\n      shl\n        /* \"#utility.yul\":2406:2425   */\n      sub\n        /* \"#utility.yul\":2398:2403   */\n      dup2\n        /* \"#utility.yul\":2392:2404   */\n      mload\n        /* \"#utility.yul\":2388:2426   */\n      and\n        /* \"#utility.yul\":2383:2386   */\n      dup3\n        /* \"#utility.yul\":2376:2427   */\n      mstore\n        /* \"#utility.yul\":2476:2480   */\n      0x20\n        /* \"#utility.yul\":2469:2474   */\n      dup2\n        /* \"#utility.yul\":2465:2481   */\n      add\n        /* \"#utility.yul\":2459:2482   */\n      mload\n        /* \"#utility.yul\":2452:2456   */\n      0x20\n        /* \"#utility.yul\":2447:2450   */\n      dup4\n        /* \"#utility.yul\":2443:2457   */\n      add\n        /* \"#utility.yul\":2436:2483   */\n      mstore\n        /* \"#utility.yul\":2532:2536   */\n      0x40\n        /* \"#utility.yul\":2525:2530   */\n      dup2\n        /* \"#utility.yul\":2521:2537   */\n      add\n        /* \"#utility.yul\":2515:2538   */\n      mload\n        /* \"#utility.yul\":2508:2512   */\n      0x40\n        /* \"#utility.yul\":2503:2506   */\n      dup4\n        /* \"#utility.yul\":2499:2513   */\n      add\n        /* \"#utility.yul\":2492:2539   */\n      mstore\n        /* \"#utility.yul\":2588:2592   */\n      0x60\n        /* \"#utility.yul\":2581:2586   */\n      dup2\n        /* \"#utility.yul\":2577:2593   */\n      add\n        /* \"#utility.yul\":2571:2594   */\n      mload\n        /* \"#utility.yul\":2564:2568   */\n      0x60\n        /* \"#utility.yul\":2559:2562   */\n      dup4\n        /* \"#utility.yul\":2555:2569   */\n      add\n        /* \"#utility.yul\":2548:2595   */\n      mstore\n        /* \"#utility.yul\":2358:2361   */\n      0x00\n        /* \"#utility.yul\":2641:2645   */\n      0x80\n        /* \"#utility.yul\":2634:2639   */\n      dup3\n        /* \"#utility.yul\":2630:2646   */\n      add\n        /* \"#utility.yul\":2624:2647   */\n      mload\n        /* \"#utility.yul\":2679:2683   */\n      0xa0\n        /* \"#utility.yul\":2672:2676   */\n      0x80\n        /* \"#utility.yul\":2667:2670   */\n      dup6\n        /* \"#utility.yul\":2663:2677   */\n      add\n        /* \"#utility.yul\":2656:2684   */\n      mstore\n        /* \"#utility.yul\":2700:2758   */\n      tag_593\n        /* \"#utility.yul\":2752:2756   */\n      0xa0\n        /* \"#utility.yul\":2747:2750   */\n      dup6\n        /* \"#utility.yul\":2743:2757   */\n      add\n        /* \"#utility.yul\":2729:2741   */\n      dup3\n        /* \"#utility.yul\":2700:2758   */\n      tag_569\n      jump\t// in\n    tag_593:\n        /* \"#utility.yul\":2693:2758   */\n      swap5\n        /* \"#utility.yul\":2311:2764   */\n      swap4\n      pop\n      pop\n      pop\n      pop\n      jump\t// out\n        /* \"#utility.yul\":2769:3016   */\n    tag_73:\n        /* \"#utility.yul\":2940:2942   */\n      0x20\n        /* \"#utility.yul\":2929:2938   */\n      dup2\n        /* \"#utility.yul\":2922:2943   */\n      mstore\n        /* \"#utility.yul\":2903:2907   */\n      0x00\n        /* \"#utility.yul\":2960:3010   */\n      tag_585\n        /* \"#utility.yul\":3006:3008   */\n      0x20\n        /* \"#utility.yul\":2995:3004   */\n      dup4\n        /* \"#utility.yul\":2991:3009   */\n      add\n        /* \"#utility.yul\":2983:2989   */\n      dup5\n        /* \"#utility.yul\":2960:3010   */\n      tag_570\n      jump\t// in\n        /* \"#utility.yul\":3021:3851   */\n    tag_78:\n        /* \"#utility.yul\":3205:3209   */\n      0x00\n        /* \"#utility.yul\":3234:3236   */\n      0x20\n        /* \"#utility.yul\":3274:3276   */\n      dup1\n        /* \"#utility.yul\":3263:3272   */\n      dup4\n        /* \"#utility.yul\":3259:3277   */\n      add\n        /* \"#utility.yul\":3304:3306   */\n      dup2\n        /* \"#utility.yul\":3293:3302   */\n      dup5\n        /* \"#utility.yul\":3286:3307   */\n      mstore\n        /* \"#utility.yul\":3327:3333   */\n      dup1\n        /* \"#utility.yul\":3362:3368   */\n      dup6\n        /* \"#utility.yul\":3356:3369   */\n      mload\n        /* \"#utility.yul\":3393:3399   */\n      dup1\n        /* \"#utility.yul\":3385:3391   */\n      dup4\n        /* \"#utility.yul\":3378:3400   */\n      mstore\n        /* \"#utility.yul\":3431:3433   */\n      0x40\n        /* \"#utility.yul\":3420:3429   */\n      dup7\n        /* \"#utility.yul\":3416:3434   */\n      add\n        /* \"#utility.yul\":3409:3434   */\n      swap2\n      pop\n        /* \"#utility.yul\":3493:3495   */\n      0x40\n        /* \"#utility.yul\":3483:3489   */\n      dup2\n        /* \"#utility.yul\":3480:3481   */\n      0x05\n        /* \"#utility.yul\":3476:3490   */\n      shl\n        /* \"#utility.yul\":3465:3474   */\n      dup8\n        /* \"#utility.yul\":3461:3491   */\n      add\n        /* \"#utility.yul\":3457:3496   */\n      add\n        /* \"#utility.yul\":3443:3496   */\n      swap3\n      pop\n        /* \"#utility.yul\":3531:3533   */\n      dup4\n        /* \"#utility.yul\":3523:3529   */\n      dup8\n        /* \"#utility.yul\":3519:3534   */\n      add\n        /* \"#utility.yul\":3552:3553   */\n      0x00\n        /* \"#utility.yul\":3562:3822   */\n    tag_597:\n        /* \"#utility.yul\":3576:3582   */\n      dup3\n        /* \"#utility.yul\":3573:3574   */\n      dup2\n        /* \"#utility.yul\":3570:3583   */\n      lt\n        /* \"#utility.yul\":3562:3822   */\n      iszero\n      tag_599\n      jumpi\n        /* \"#utility.yul\":3669:3671   */\n      0x3f\n        /* \"#utility.yul\":3665:3672   */\n      not\n        /* \"#utility.yul\":3653:3662   */\n      dup9\n        /* \"#utility.yul\":3645:3651   */\n      dup7\n        /* \"#utility.yul\":3641:3663   */\n      sub\n        /* \"#utility.yul\":3637:3673   */\n      add\n        /* \"#utility.yul\":3632:3635   */\n      dup5\n        /* \"#utility.yul\":3625:3674   */\n      mstore\n        /* \"#utility.yul\":3697:3742   */\n      tag_600\n        /* \"#utility.yul\":3735:3741   */\n      dup6\n        /* \"#utility.yul\":3726:3732   */\n      dup4\n        /* \"#utility.yul\":3720:3733   */\n      mload\n        /* \"#utility.yul\":3697:3742   */\n      tag_570\n      jump\t// in\n    tag_600:\n        /* \"#utility.yul\":3687:3742   */\n      swap5\n      pop\n        /* \"#utility.yul\":3800:3812   */\n      swap3\n      dup6\n      add\n      swap3\n        /* \"#utility.yul\":3765:3780   */\n      swap1\n      dup6\n      add\n      swap1\n        /* \"#utility.yul\":3598:3599   */\n      0x01\n        /* \"#utility.yul\":3591:3600   */\n      add\n        /* \"#utility.yul\":3562:3822   */\n      jump(tag_597)\n    tag_599:\n      pop\n        /* \"#utility.yul\":3839:3845   */\n      swap3\n      swap8\n        /* \"#utility.yul\":3021:3851   */\n      swap7\n      pop\n      pop\n      pop\n      pop\n      pop\n      pop\n      pop\n      jump\t// out\n        /* \"#utility.yul\":4064:4318   */\n    tag_88:\n        /* \"#utility.yul\":4132:4138   */\n      0x00\n        /* \"#utility.yul\":4140:4146   */\n      dup1\n        /* \"#utility.yul\":4193:4195   */\n      0x40\n        /* \"#utility.yul\":4181:4190   */\n      dup4\n        /* \"#utility.yul\":4172:4179   */\n      dup6\n        /* \"#utility.yul\":4168:4191   */\n      sub\n        /* \"#utility.yul\":4164:4196   */\n      slt\n        /* \"#utility.yul\":4161:4213   */\n      iszero\n      tag_603\n      jumpi\n        /* \"#utility.yul\":4209:4210   */\n      0x00\n        /* \"#utility.yul\":4206:4207   */\n      dup1\n        /* \"#utility.yul\":4199:4211   */\n      revert\n        /* \"#utility.yul\":4161:4213   */\n    tag_603:\n        /* \"#utility.yul\":4245:4254   */\n      dup3\n        /* \"#utility.yul\":4232:4255   */\n      calldataload\n        /* \"#utility.yul\":4222:4255   */\n      swap2\n      pop\n        /* \"#utility.yul\":4274:4312   */\n      tag_604\n        /* \"#utility.yul\":4308:4310   */\n      0x20\n        /* \"#utility.yul\":4297:4306   */\n      dup5\n        /* \"#utility.yul\":4293:4311   */\n      add\n        /* \"#utility.yul\":4274:4312   */\n      tag_568\n      jump\t// in\n    tag_604:\n        /* \"#utility.yul\":4264:4312   */\n      swap1\n      pop\n        /* \"#utility.yul\":4064:4318   */\n      swap3\n      pop\n      swap3\n      swap1\n      pop\n      jump\t// out\n        /* \"#utility.yul\":4323:4645   */\n    tag_100:\n        /* \"#utility.yul\":4400:4406   */\n      0x00\n        /* \"#utility.yul\":4408:4414   */\n      dup1\n        /* \"#utility.yul\":4416:4422   */\n      0x00\n        /* \"#utility.yul\":4469:4471   */\n      0x60\n        /* \"#utility.yul\":4457:4466   */\n      dup5\n        /* \"#utility.yul\":4448:4455   */\n      dup7\n        /* \"#utility.yul\":4444:4467   */\n      sub\n        /* \"#utility.yul\":4440:4472   */\n      slt\n        /* \"#utility.yul\":4437:4489   */\n      iszero\n      tag_606\n      jumpi\n        /* \"#utility.yul\":4485:4486   */\n      0x00\n        /* \"#utility.yul\":4482:4483   */\n      dup1\n        /* \"#utility.yul\":4475:4487   */\n      revert\n        /* \"#utility.yul\":4437:4489   */\n    tag_606:\n        /* \"#utility.yul\":4521:4530   */\n      dup4\n        /* \"#utility.yul\":4508:4531   */\n      calldataload\n        /* \"#utility.yul\":4498:4531   */\n      swap3\n      pop\n        /* \"#utility.yul\":4550:4588   */\n      tag_607\n        /* \"#utility.yul\":4584:4586   */\n      0x20\n        /* \"#utility.yul\":4573:4582   */\n      dup6\n        /* \"#utility.yul\":4569:4587   */\n      add\n        /* \"#utility.yul\":4550:4588   */\n      tag_568\n      jump\t// in\n    tag_607:\n        /* \"#utility.yul\":4540:4588   */\n      swap2\n      pop\n        /* \"#utility.yul\":4635:4637   */\n      0x40\n        /* \"#utility.yul\":4624:4633   */\n      dup5\n        /* \"#utility.yul\":4620:4638   */\n      add\n        /* \"#utility.yul\":4607:4639   */\n      calldataload\n        /* \"#utility.yul\":4597:4639   */\n      swap1\n      pop\n        /* \"#utility.yul\":4323:4645   */\n      swap3\n      pop\n      swap3\n      pop\n      swap3\n      jump\t// out\n        /* \"#utility.yul\":4929:5056   */\n    tag_571:\n        /* \"#utility.yul\":4990:5000   */\n      0x4e487b71\n        /* \"#utility.yul\":4985:4988   */\n      0xe0\n        /* \"#utility.yul\":4981:5001   */\n      shl\n        /* \"#utility.yul\":4978:4979   */\n      0x00\n        /* \"#utility.yul\":4971:5002   */\n      mstore\n        /* \"#utility.yul\":5021:5025   */\n      0x11\n        /* \"#utility.yul\":5018:5019   */\n      0x04\n        /* \"#utility.yul\":5011:5026   */\n      mstore\n        /* \"#utility.yul\":5045:5049   */\n      0x24\n        /* \"#utility.yul\":5042:5043   */\n      0x00\n        /* \"#utility.yul\":5035:5050   */\n      revert\n        /* \"#utility.yul\":5061:5189   */\n    tag_161:\n        /* \"#utility.yul\":5128:5137   */\n      dup2\n      dup2\n      sub\n        /* \"#utility.yul\":5149:5160   */\n      dup2\n      dup2\n      gt\n        /* \"#utility.yul\":5146:5183   */\n      iszero\n      tag_518\n      jumpi\n        /* \"#utility.yul\":5163:5181   */\n      tag_518\n      tag_571\n      jump\t// in\n        /* \"#utility.yul\":5899:6026   */\n    tag_186:\n        /* \"#utility.yul\":5960:5970   */\n      0x4e487b71\n        /* \"#utility.yul\":5955:5958   */\n      0xe0\n        /* \"#utility.yul\":5951:5971   */\n      shl\n        /* \"#utility.yul\":5948:5949   */\n      0x00\n        /* \"#utility.yul\":5941:5972   */\n      mstore\n        /* \"#utility.yul\":5991:5995   */\n      0x32\n        /* \"#utility.yul\":5988:5989   */\n      0x04\n        /* \"#utility.yul\":5981:5996   */\n      mstore\n        /* \"#utility.yul\":6015:6019   */\n      0x24\n        /* \"#utility.yul\":6012:6013   */\n      0x00\n        /* \"#utility.yul\":6005:6020   */\n      revert\n        /* \"#utility.yul\":6031:6166   */\n    tag_195:\n        /* \"#utility.yul\":6070:6073   */\n      0x00\n        /* \"#utility.yul\":6091:6108   */\n      0x01\n      dup3\n      add\n        /* \"#utility.yul\":6088:6131   */\n      tag_618\n      jumpi\n        /* \"#utility.yul\":6111:6129   */\n      tag_618\n      tag_571\n      jump\t// in\n    tag_618:\n      pop\n        /* \"#utility.yul\":6158:6159   */\n      0x01\n        /* \"#utility.yul\":6147:6160   */\n      add\n      swap1\n        /* \"#utility.yul\":6031:6166   */\n      jump\t// out\n        /* \"#utility.yul\":6171:6355   */\n    tag_201:\n        /* \"#utility.yul\":6241:6247   */\n      0x00\n        /* \"#utility.yul\":6294:6296   */\n      0x20\n        /* \"#utility.yul\":6282:6291   */\n      dup3\n        /* \"#utility.yul\":6273:6280   */\n      dup5\n        /* \"#utility.yul\":6269:6292   */\n      sub\n        /* \"#utility.yul\":6265:6297   */\n      slt\n        /* \"#utility.yul\":6262:6314   */\n      iszero\n      tag_620\n      jumpi\n        /* \"#utility.yul\":6310:6311   */\n      0x00\n        /* \"#utility.yul\":6307:6308   */\n      dup1\n        /* \"#utility.yul\":6300:6312   */\n      revert\n        /* \"#utility.yul\":6262:6314   */\n    tag_620:\n      pop\n        /* \"#utility.yul\":6333:6349   */\n      mload\n      swap2\n        /* \"#utility.yul\":6171:6355   */\n      swap1\n      pop\n      jump\t// out\n        /* \"#utility.yul\":8905:9325   */\n    tag_295:\n        /* \"#utility.yul\":9107:9109   */\n      0x20\n        /* \"#utility.yul\":9089:9110   */\n      dup1\n      dup3\n      mstore\n        /* \"#utility.yul\":9146:9148   */\n      0x38\n        /* \"#utility.yul\":9126:9144   */\n      swap1\n      dup3\n      add\n        /* \"#utility.yul\":9119:9149   */\n      mstore\n        /* \"#utility.yul\":9185:9219   */\n      0x54686520696e6465782073656e7420697320626967676572207468616e207468\n        /* \"#utility.yul\":9180:9182   */\n      0x40\n        /* \"#utility.yul\":9165:9183   */\n      dup3\n      add\n        /* \"#utility.yul\":9158:9220   */\n      mstore\n        /* \"#utility.yul\":9256:9282   */\n      0x65207265717565737473206172726179206c656e6774682e0000000000000000\n        /* \"#utility.yul\":9251:9253   */\n      0x60\n        /* \"#utility.yul\":9236:9254   */\n      dup3\n      add\n        /* \"#utility.yul\":9229:9283   */\n      mstore\n        /* \"#utility.yul\":9315:9318   */\n      0x80\n        /* \"#utility.yul\":9300:9319   */\n      add\n      swap1\n        /* \"#utility.yul\":8905:9325   */\n      jump\t// out\n        /* \"#utility.yul\":9330:9807   */\n    tag_301:\n        /* \"#utility.yul\":9532:9534   */\n      0x20\n        /* \"#utility.yul\":9514:9535   */\n      dup1\n      dup3\n      mstore\n        /* \"#utility.yul\":9571:9573   */\n      0x49\n        /* \"#utility.yul\":9551:9569   */\n      swap1\n      dup3\n      add\n        /* \"#utility.yul\":9544:9574   */\n      mstore\n        /* \"#utility.yul\":9610:9644   */\n      0x416464726573732073656e7420646f65736e2774206d61746368207769746820\n        /* \"#utility.yul\":9605:9607   */\n      0x40\n        /* \"#utility.yul\":9590:9608   */\n      dup3\n      add\n        /* \"#utility.yul\":9583:9645   */\n      mstore\n        /* \"#utility.yul\":9681:9715   */\n      0x74686520616464726573732073746f72656420696e2074686520726571756573\n        /* \"#utility.yul\":9676:9678   */\n      0x60\n        /* \"#utility.yul\":9661:9679   */\n      dup3\n      add\n        /* \"#utility.yul\":9654:9716   */\n      mstore\n      shl(0xb9, 0x3a399030b93930bc97)\n        /* \"#utility.yul\":9747:9750   */\n      0x80\n        /* \"#utility.yul\":9732:9751   */\n      dup3\n      add\n        /* \"#utility.yul\":9725:9765   */\n      mstore\n        /* \"#utility.yul\":9797:9800   */\n      0xa0\n        /* \"#utility.yul\":9782:9801   */\n      add\n      swap1\n        /* \"#utility.yul\":9330:9807   */\n      jump\t// out\n        /* \"#utility.yul\":10219:10344   */\n    tag_315:\n        /* \"#utility.yul\":10284:10293   */\n      dup1\n      dup3\n      add\n        /* \"#utility.yul\":10305:10315   */\n      dup1\n      dup3\n      gt\n        /* \"#utility.yul\":10302:10338   */\n      iszero\n      tag_518\n      jumpi\n        /* \"#utility.yul\":10318:10336   */\n      tag_518\n      tag_571\n      jump\t// in\n        /* \"#utility.yul\":11896:12064   */\n    tag_355:\n        /* \"#utility.yul\":11969:11978   */\n      dup1\n      dup3\n      mul\n        /* \"#utility.yul\":12000:12009   */\n      dup2\n      iszero\n        /* \"#utility.yul\":12017:12032   */\n      dup3\n      dup3\n      div\n        /* \"#utility.yul\":12011:12033   */\n      dup5\n      eq\n        /* \"#utility.yul\":11997:12034   */\n      or\n        /* \"#utility.yul\":11987:12058   */\n      tag_518\n      jumpi\n        /* \"#utility.yul\":12038:12056   */\n      tag_518\n      tag_571\n      jump\t// in\n        /* \"#utility.yul\":12069:12286   */\n    tag_357:\n        /* \"#utility.yul\":12109:12110   */\n      0x00\n        /* \"#utility.yul\":12135:12136   */\n      dup3\n        /* \"#utility.yul\":12125:12257   */\n      tag_640\n      jumpi\n        /* \"#utility.yul\":12179:12189   */\n      0x4e487b71\n        /* \"#utility.yul\":12174:12177   */\n      0xe0\n        /* \"#utility.yul\":12170:12190   */\n      shl\n        /* \"#utility.yul\":12167:12168   */\n      0x00\n        /* \"#utility.yul\":12160:12191   */\n      mstore\n        /* \"#utility.yul\":12214:12218   */\n      0x12\n        /* \"#utility.yul\":12211:12212   */\n      0x04\n        /* \"#utility.yul\":12204:12219   */\n      mstore\n        /* \"#utility.yul\":12242:12246   */\n      0x24\n        /* \"#utility.yul\":12239:12240   */\n      0x00\n        /* \"#utility.yul\":12232:12247   */\n      revert\n        /* \"#utility.yul\":12125:12257   */\n    tag_640:\n      pop\n        /* \"#utility.yul\":12271:12280   */\n      div\n      swap1\n        /* \"#utility.yul\":12069:12286   */\n      jump\t// out\n        /* \"#utility.yul\":12291:12568   */\n    tag_385:\n        /* \"#utility.yul\":12358:12364   */\n      0x00\n        /* \"#utility.yul\":12411:12413   */\n      0x20\n        /* \"#utility.yul\":12399:12408   */\n      dup3\n        /* \"#utility.yul\":12390:12397   */\n      dup5\n        /* \"#utility.yul\":12386:12409   */\n      sub\n        /* \"#utility.yul\":12382:12414   */\n      slt\n        /* \"#utility.yul\":12379:12431   */\n      iszero\n      tag_642\n      jumpi\n        /* \"#utility.yul\":12427:12428   */\n      0x00\n        /* \"#utility.yul\":12424:12425   */\n      dup1\n        /* \"#utility.yul\":12417:12429   */\n      revert\n        /* \"#utility.yul\":12379:12431   */\n    tag_642:\n        /* \"#utility.yul\":12459:12468   */\n      dup2\n        /* \"#utility.yul\":12453:12469   */\n      mload\n        /* \"#utility.yul\":12512:12517   */\n      dup1\n        /* \"#utility.yul\":12505:12518   */\n      iszero\n        /* \"#utility.yul\":12498:12519   */\n      iszero\n        /* \"#utility.yul\":12491:12496   */\n      dup2\n        /* \"#utility.yul\":12488:12520   */\n      eq\n        /* \"#utility.yul\":12478:12538   */\n      tag_585\n      jumpi\n        /* \"#utility.yul\":12534:12535   */\n      0x00\n        /* \"#utility.yul\":12531:12532   */\n      dup1\n        /* \"#utility.yul\":12524:12536   */\n      revert\n        /* \"#utility.yul\":17302:17429   */\n    tag_490:\n        /* \"#utility.yul\":17363:17373   */\n      0x4e487b71\n        /* \"#utility.yul\":17358:17361   */\n      0xe0\n        /* \"#utility.yul\":17354:17374   */\n      shl\n        /* \"#utility.yul\":17351:17352   */\n      0x00\n        /* \"#utility.yul\":17344:17375   */\n      mstore\n        /* \"#utility.yul\":17394:17398   */\n      0x41\n        /* \"#utility.yul\":17391:17392   */\n      0x04\n        /* \"#utility.yul\":17384:17399   */\n      mstore\n        /* \"#utility.yul\":17418:17422   */\n      0x24\n        /* \"#utility.yul\":17415:17416   */\n      0x00\n        /* \"#utility.yul\":17408:17423   */\n      revert\n        /* \"#utility.yul\":18498:18625   */\n    tag_539:\n        /* \"#utility.yul\":18559:18569   */\n      0x4e487b71\n        /* \"#utility.yul\":18554:18557   */\n      0xe0\n        /* \"#utility.yul\":18550:18570   */\n      shl\n        /* \"#utility.yul\":18547:18548   */\n      0x00\n        /* \"#utility.yul\":18540:18571   */\n      mstore\n        /* \"#utility.yul\":18590:18594   */\n      0x31\n        /* \"#utility.yul\":18587:18588   */\n      0x04\n        /* \"#utility.yul\":18580:18595   */\n      mstore\n        /* \"#utility.yul\":18614:18618   */\n      0x24\n        /* \"#utility.yul\":18611:18612   */\n      0x00\n        /* \"#utility.yul\":18604:18619   */\n      revert\n\n    auxdata: 0xa2646970667358221220fe6f1810f7f07828546242d203fd9eba4a2e5d7dd0eeecaf09660eb8bd3c9ee664736f6c63430008130033\n}\n","bytecode":{"linkReferences":{},"object":"60806040523480156200001157600080fd5b5060405162002939380380620029398339810160408190526200003491620001f4565b6200003f33620000a6565b600a80546001600160a01b0319166001600160a01b0383161790556200006583620000f6565b50600355604080518082019091526001600160a01b03909116808252426020909201829052600180546001600160a01b031916909117905560025562000235565b600080546001600160a01b038381166001600160a01b0319831681178455604051919092169283917f8be0079c531659141344cd1fd0a4f28419497f9722a3daafe3b4186f6b6457e09190a35050565b6200010062000179565b6001600160a01b0381166200016b5760405162461bcd60e51b815260206004820152602660248201527f4f776e61626c653a206e6577206f776e657220697320746865207a65726f206160448201526564647265737360d01b60648201526084015b60405180910390fd5b6200017681620000a6565b50565b6000546001600160a01b03163314620001d55760405162461bcd60e51b815260206004820181905260248201527f4f776e61626c653a2063616c6c6572206973206e6f7420746865206f776e6572604482015260640162000162565b565b80516001600160a01b0381168114620001ef57600080fd5b919050565b6000806000606084860312156200020a57600080fd5b6200021584620001d7565b9250602084015191506200022c60408501620001d7565b90509250925092565b6126f480620002456000396000f3fe6080604052600436106101b75760003560e01c80638da5cb5b116100ec578063db81f99b1161008a578063ea46193e11610064578063ea46193e146104b3578063f2fde38b146104c6578063f53d0a8e146104e6578063ffc15b7c1461052957600080fd5b8063db81f99b14610453578063de35f37614610473578063e92df2b01461049357600080fd5b8063c1b640db116100c6578063c1b640db14610401578063d0e30db014610416578063d5002f2e1461041e578063daa677561461043357600080fd5b80638da5cb5b146103b95780639f3c4416146103d7578063a37fc5cf146103ec57600080fd5b80634eae51f41161015957806366416dd31161013357806366416dd31461034c578063715018a61461036c5780637c1d3a01146103815780637ef665e9146103a157600080fd5b80634eae51f4146102bc5780634f3b972d146102de57806359e82bd71461032c57600080fd5b80632e1a7d4d116101955780632e1a7d4d1461022b57806335d6f8731461024d5780633cfd1ccc1461027a5780634da2f2f91461028f57600080fd5b8063051ea68f146101bc578063064ac578146101e657806325cfecbe14610208575b600080fd5b3480156101c857600080fd5b506101d161053e565b60405190151581526020015b60405180910390f35b3480156101f257600080fd5b506101fb610559565b6040516101dd91906122d7565b34801561021457600080fd5b5061021d6105bb565b6040519081526020016101dd565b34801561023757600080fd5b5061024b610246366004612324565b6105cc565b005b34801561025957600080fd5b5061026d610268366004612354565b6106a5565b6040516101dd91906123b1565b34801561028657600080fd5b5061021d610783565b34801561029b57600080fd5b506102af6102aa366004612354565b6107f5565b6040516101dd9190612411565b3480156102c857600080fd5b506102d1610983565b6040516101dd9190612424565b3480156102ea57600080fd5b506103146102f9366004612324565b6009602052600090815260409020546001600160a01b031681565b6040516001600160a01b0390911681526020016101dd565b34801561033857600080fd5b5061024b610347366004612486565b610a63565b34801561035857600080fd5b5061024b610367366004612354565b610c65565b34801561037857600080fd5b5061024b610ebc565b34801561038d57600080fd5b5061024b61039c3660046124b2565b610ed0565b3480156103ad57600080fd5b5060045460ff166101d1565b3480156103c557600080fd5b506000546001600160a01b0316610314565b3480156103e357600080fd5b5061024b6112af565b3480156103f857600080fd5b5061021d61183d565b34801561040d57600080fd5b5061024b61184e565b61024b6118f2565b34801561042a57600080fd5b5061021d6119b1565b34801561043f57600080fd5b5061024b61044e366004612324565b611a04565b34801561045f57600080fd5b5061024b61046e366004612324565b611b39565b34801561047f57600080fd5b5061024b61048e366004612324565b611cdb565b34801561049f57600080fd5b5061024b6104ae366004612486565b611ce8565b3480156104bf57600080fd5b504761021d565b3480156104d257600080fd5b5061024b6104e1366004612354565b611e0d565b3480156104f257600080fd5b5060015460025461050a916001600160a01b03169082565b604080516001600160a01b0390931683526020830191909152016101dd565b34801561053557600080fd5b506101fb611e83565b6003546002546000919061055290426124fd565b1015905090565b606060068054806020026020016040519081016040528092919081815260200182805480156105b157602002820191906000526020600020905b81546001600160a01b03168152600190910190602001808311610593575b5050505050905090565b60006105c5611f61565b5060025490565b6105d4611f61565b600081116106245760405162461bcd60e51b815260206004820152601860248201527720b6b7bab73a1036bab9ba103132903837b9b4ba34bb329760411b60448201526064015b60405180910390fd5b478111156106745760405162461bcd60e51b815260206004820152601760248201527f4e6f7420656e6f756768204554482062616c616e63652e000000000000000000604482015260640161061b565b604051339082156108fc029083906000818181858888f193505050501580156106a1573d6000803e3d6000fd5b5050565b606060005b60055481101561077d57826001600160a01b0316600582815481106106d1576106d1612510565b60009182526020909120600590910201546001600160a01b03160361076b576005818154811061070357610703612510565b906000526020600020906005020160040180548060200260200160405190810160405280929190818152602001828054801561075e57602002820191906000526020600020905b81548152602001906001019080831161074a575b5050505050915050919050565b8061077581612526565b9150506106aa565b50919050565b600a546040516370a0823160e01b81523060048201526000916001600160a01b0316906370a0823190602401602060405180830381865afa1580156107cc573d6000803e3d6000fd5b505050506040513d601f19601f820116820180604052508101906107f0919061253f565b905090565b6108306040518060a0016040528060006001600160a01b03168152602001600081526020016000815260200160008152602001606081525090565b60005b60055481101561094357826001600160a01b03166005828154811061085a5761085a612510565b60009182526020909120600590910201546001600160a01b031603610931576005818154811061088c5761088c612510565b60009182526020918290206040805160a081018252600590930290910180546001600160a01b03168352600181015483850152600281015483830152600381015460608401526004810180548351818702810187019094528084529394919360808601939283018282801561092057602002820191906000526020600020905b81548152602001906001019080831161090c575b505050505081525050915050919050565b8061093b81612526565b915050610833565b5060405162461bcd60e51b815260206004820152600f60248201526e2432b4b9103737ba103337bab7321760891b604482015260640161061b565b919050565b60606005805480602002602001604051908101604052809291908181526020016000905b82821015610a5a5760008481526020908190206040805160a0810182526005860290920180546001600160a01b031683526001810154838501526002810154838301526003810154606084015260048101805483518187028101870190945280845293949193608086019392830182828015610a4257602002820191906000526020600020905b815481526020019060010190808311610a2e575b505050505081525050815260200190600101906109a7565b50505050905090565b610a6b611f61565b6000828152600960205260409020546001600160a01b03168015610b4a5760005b600554811015610b4857816001600160a01b031660058281548110610ab357610ab3612510565b60009182526020909120600590910201546001600160a01b031603610b36576000610b0160058381548110610aea57610aea612510565b906000526020600020906005020160040186611fbb565b9050610b3060058381548110610b1957610b19612510565b906000526020600020906005020160040182612053565b50610b48565b80610b4081612526565b915050610a8c565b505b60005b600554811015610c0c57826001600160a01b031660058281548110610b7457610b74612510565b60009182526020909120600590910201546001600160a01b031603610bfa5760058181548110610ba657610ba6612510565b60009182526020808320600592909202909101600401805460018101825590835281832001869055858252600990526040902080546001600160a01b0319166001600160a01b038516179055506106a19050565b80610c0481612526565b915050610b4d565b5060405162461bcd60e51b815260206004820152602760248201527f4e657720686569722061646472657373206e6f7420666f756e6420616d6f6e67604482015266103432b4b9399760c91b606482015260840161061b565b6005548190606411610cc95760405162461bcd60e51b815260206004820152602760248201527f416c7265616479207265616368656420746865206c696d6974206f6620313030604482015266103432b4b9399760c91b606482015260840161061b565b600654606411610d3a5760405162461bcd60e51b815260206004820152603660248201527f416c7265616479207265616368656420746865206c696d6974206f66203130306044820152751034b73432b934ba30b731b2903932b8bab2b9ba399760511b606482015260840161061b565b60005b600654811015610dea57816001600160a01b031660068281548110610d6457610d64612510565b6000918252602090912001546001600160a01b031603610dd85760405162461bcd60e51b815260206004820152602960248201527f4164647265737320616c72656164792065786973747320696e207265717565736044820152683a399030b93930bc9760b91b606482015260840161061b565b80610de281612526565b915050610d3d565b506006805460018101825560008290527ff652222313e28459528d920b65115c16c04f3efc82aaedc97be59f3f377c0d3f0180546001600160a01b0319166001600160a01b03851690811790915590546005546040805160608082526025908201527f5573657220726571756573747320746f20626520616464656420617320616e206080820152643432b4b91760d91b60a082015260208101939093528201527fe6096ebfc672773ae3076e8ae873cb450789130e8c0d87b2b933210acdc08f669060c00160405180910390a25050565b610ec4611f61565b610ece6000612133565b565b610ed8611f61565b8282826006805490508310610eff5760405162461bcd60e51b815260040161061b90612558565b816001600160a01b031660068481548110610f1c57610f1c612510565b6000918252602090912001546001600160a01b031614610f4e5760405162461bcd60e51b815260040161061b906125b5565b6000805b60055481101561103357836001600160a01b031660058281548110610f7957610f79612510565b60009182526020909120600590910201546001600160a01b031603610fef5760405162461bcd60e51b815260206004820152602660248201527f4164647265737320616c72656164792065786973747320696e2068656972732060448201526530b93930bc9760d11b606482015260840161061b565b6005818154811061100257611002612510565b9060005260206000209060050201600101548261101f9190612624565b91508061102b81612526565b915050610f52565b5060646110408383612624565b11156110da5760405162461bcd60e51b815260206004820152605c60248201527f74686520616d6f756e74206f662073686172657320657863656564207468652060448201527f31303025206f662074686520496e6865726974616e63652c207472792077697460648201527f68206120736d616c6c657220616d6f756e74206f662073686172652e00000000608482015260a40161061b565b6040805160a0810182526001600160a01b03888116825260208083018981526000948401858152606080860187815260808701828152600580546001810182559981905288517f036b6384b5eca791c62761152d0c79bb0604c104a5fb6f4eb0703f3154bb3db09a909102998a0180546001600160a01b0319169190981617875593517f036b6384b5eca791c62761152d0c79bb0604c104a5fb6f4eb0703f3154bb3db189015591517f036b6384b5eca791c62761152d0c79bb0604c104a5fb6f4eb0703f3154bb3db288015590517f036b6384b5eca791c62761152d0c79bb0604c104a5fb6f4eb0703f3154bb3db3870155905180519195611204937f036b6384b5eca791c62761152d0c79bb0604c104a5fb6f4eb0703f3154bb3db490910192910190612277565b50505061121088612183565b6006546005546040805160808082526026908201527f41646d696e6973747261746f722061636365707473207573657220617320616e60a082015265103432b4b91760d11b60c0820152602081018a90529081019290925260608201526001600160a01b038816907f14aa904c12fa948b33e901e688a79d46fe3d46a383a5b181c26475cec40d67ec9060e00160405180910390a25050505050505050565b336000805b60055481101561131157826001600160a01b0316600582815481106112db576112db612510565b60009182526020909120600590910201546001600160a01b0316036112ff57600191505b8061130981612526565b9150506112b4565b506001811515146113805760405162461bcd60e51b815260206004820152603360248201527f546865206164647265737320636c61696d696e672074686520696e686572697460448201527230b731b29034b9903737ba1030902432b4b91760691b606482015260840161061b565b61138861053e565b156106a1576000611397610783565b90504760005b6005548110156114b757606483600583815481106113bd576113bd612510565b9060005260206000209060050201600101546113d99190612637565b6113e3919061264e565b60076000600584815481106113fa576113fa612510565b60009182526020808320600592830201546001600160a01b031684528301939093526040909101902091909155805460649184918490811061143e5761143e612510565b90600052602060002090600502016001015461145a9190612637565b611464919061264e565b600860006005848154811061147b5761147b612510565b600091825260208083206005909202909101546001600160a01b03168352820192909252604001902055806114af81612526565b91505061139d565b506000805b60055481101561182857600581815481106114d9576114d9612510565b600091825260208083206005909202909101546001600160a01b031680835260089091526040808320549051919450849281156108fc029290818181858888f1935050505015801561152f573d6000803e3d6000fd5b506001600160a01b038216600090815260086020526040902054600580548390811061155d5761155d612510565b6000918252602080832060059290920290910160020192909255600a546001600160a01b03858116808452600790945260409283902054925163a9059cbb60e01b815260048101949094526024840192909252169063a9059cbb906044016020604051808303816000875af11580156115da573d6000803e3d6000fd5b505050506040513d601f19601f820116820180604052508101906115fe9190612670565b6116705760405162461bcd60e51b815260206004820152603860248201527f4572726f72207768696c65207472616e7366657272696e67205553444320667260448201527f6f6d2074686520636f6e747261637420746f20686569722e0000000000000000606482015260840161061b565b6001600160a01b038216600090815260076020526040902054600580548390811061169d5761169d612510565b906000526020600020906005020160030181905550816001600160a01b03167f34e2b4efda0968bd3c419ecd901876f712f93cd5fda9303ab16021c3535f5593600583815481106116f0576116f0612510565b90600052602060002090600502016001015460086000866001600160a01b03166001600160a01b03168152602001908152602001600020546005858154811061173b5761173b612510565b90600052602060002090600502016002015460076000886001600160a01b03166001600160a01b03168152602001908152602001600020546005878154811061178657611786612510565b90600052602060002090600502016003015460405161180e95949392919060c08082526026908201527f457468657220616e642055534443206d6f6e65792073656e7420746f2074686560e082015265103432b4b91760d11b610100820152602081019590955260408501939093526060840191909152608083015260a08201526101200190565b60405180910390a28061182081612526565b9150506114bc565b50506004805460ff1916600117905550505050565b6000611847611f61565b5060035490565b611856611f61565b4260028190556003546040805160808082526031908201527f41646d696e6973747261746f722073656e64732061207369676e616c20746f2060a08201527039b437bb9034329034b99030b634bb329760791b60c08201526020810184905290810192909252606082015233907f5f1aa2875b7b1df0cd72a6ee708c6aff6432288001c47518bc91be4599fdf6e69060e00160405180910390a2565b600154604080516080808252604f908201527f4c6f6720616c6c207468652076616c7565733a2041646d696e6973747261746f60a08201527f7220616464726573732c20416d6f756e742073656e742c20436f6e747261637460c08201526e1032ba3432b9103130b630b731b29760891b60e08201526001600160a01b0390921660208301523482820152476060830152517f0e329d93cfda1bd6ead1003e3ae53461617c8d120014dfaea03d2fb42ec55b07918190036101000190a1565b600080805b60055481101561077d57600581815481106119d3576119d3612510565b906000526020600020906005020160010154826119f09190612624565b9150806119fc81612526565b9150506119b6565b611a0c611f61565b6000818152600960205260409020546001600160a01b031680611a715760405162461bcd60e51b815260206004820152601f60248201527f546f6b656e206e6f742061737369676e656420746f20616e7920686569722e00604482015260640161061b565b60005b600554811015611b1957816001600160a01b031660058281548110611a9b57611a9b612510565b60009182526020909120600590910201546001600160a01b031603611b07576000611ae960058381548110611ad257611ad2612510565b906000526020600020906005020160040185611fbb565b9050611b0160058381548110610b1957610b19612510565b50611b19565b80611b1181612526565b915050611a74565b5050600090815260096020526040902080546001600160a01b0319169055565b611b41611f61565b60008111611b8c5760405162461bcd60e51b815260206004820152601860248201527720b6b7bab73a1036bab9ba103132903837b9b4ba34bb329760411b604482015260640161061b565b611b94610783565b811115611be35760405162461bcd60e51b815260206004820152601860248201527f4e6f7420656e6f75676820555344432062616c616e63652e0000000000000000604482015260640161061b565b600a5460405163a9059cbb60e01b8152336004820152602481018390526001600160a01b039091169063a9059cbb906044016020604051808303816000875af1158015611c34573d6000803e3d6000fd5b505050506040513d601f19601f82011682018060405250810190611c589190612670565b611cd85760405162461bcd60e51b815260206004820152604560248201527f4572726f72207768696c65207472616e7366657272696e67205553444320667260448201527f6f6d2074686520636f6e747261637420746f207468652061646d696e6973747260648201526430ba37b91760d91b608482015260a40161061b565b50565b611ce3611f61565b600355565b611cf0611f61565b600654829082908210611d155760405162461bcd60e51b815260040161061b90612558565b806001600160a01b031660068381548110611d3257611d32612510565b6000918252602090912001546001600160a01b031614611d645760405162461bcd60e51b815260040161061b906125b5565b611d6d84612183565b6006546005546040805160608082526033908201527f41646d696e6973747261746f722072656a6563747320757365722773207265716080820152723ab2b9ba103a379031329030b7103432b4b91760691b60a082015260208101939093528201526001600160a01b038416907f05541b3bb46c30ee5aea95b57d7a1d3949da67ba8e09c865da2318f2fb2738579060c00160405180910390a250505050565b611e15611f61565b6001600160a01b038116611e7a5760405162461bcd60e51b815260206004820152602660248201527f4f776e61626c653a206e6577206f776e657220697320746865207a65726f206160448201526564647265737360d01b606482015260840161061b565b611cd881612133565b60055460609060009067ffffffffffffffff811115611ea457611ea4612692565b604051908082528060200260200182016040528015611ecd578160200160208202803683370190505b5090506000805b600554811015611f595760058181548110611ef157611ef1612510565b600091825260209091206005909102015483516001600160a01b0390911690849084908110611f2257611f22612510565b6001600160a01b0390921660209283029190910190910152611f45600183612624565b915080611f5181612526565b915050611ed4565b509092915050565b6000546001600160a01b03163314610ece5760405162461bcd60e51b815260206004820181905260248201527f4f776e61626c653a2063616c6c6572206973206e6f7420746865206f776e6572604482015260640161061b565b6000805b83548110156120045782848281548110611fdb57611fdb612510565b906000526020600020015403611ff257905061204d565b80611ffc81612526565b915050611fbf565b5060405162461bcd60e51b815260206004820152601960248201527f546f6b656e206e6f7420666f756e6420696e2061727261792e00000000000000604482015260640161061b565b92915050565b8154811061209a5760405162461bcd60e51b815260206004820152601460248201527324b73232bc1037baba1037b3103137bab732399760611b604482015260640161061b565b805b82546120aa906001906124fd565b81101561210857826120bd826001612624565b815481106120cd576120cd612510565b90600052602060002001548382815481106120ea576120ea612510565b6000918252602090912001558061210081612526565b91505061209c565b5081805480612119576121196126a8565b600190038181906000526020600020016000905590555050565b600080546001600160a01b038381166001600160a01b0319831681178455604051919092169283917f8be0079c531659141344cd1fd0a4f28419497f9722a3daafe3b4186f6b6457e09190a35050565b60065481106121a45760405162461bcd60e51b815260040161061b90612558565b805b6006546121b5906001906124fd565b8110156122405760066121c9826001612624565b815481106121d9576121d9612510565b600091825260209091200154600680546001600160a01b03909216918390811061220557612205612510565b600091825260209091200180546001600160a01b0319166001600160a01b03929092169190911790558061223881612526565b9150506121a6565b506006805480612252576122526126a8565b600082815260209020810160001990810180546001600160a01b031916905501905550565b8280548282559060005260206000209081019282156122b2579160200282015b828111156122b2578251825591602001919060010190612297565b506122be9291506122c2565b5090565b5b808211156122be57600081556001016122c3565b6020808252825182820181905260009190848201906040850190845b818110156123185783516001600160a01b0316835292840192918401916001016122f3565b50909695505050505050565b60006020828403121561233657600080fd5b5035919050565b80356001600160a01b038116811461097e57600080fd5b60006020828403121561236657600080fd5b61236f8261233d565b9392505050565b600081518084526020808501945080840160005b838110156123a65781518752958201959082019060010161238a565b509495945050505050565b60208152600061236f6020830184612376565b60018060a01b0381511682526020810151602083015260408101516040830152606081015160608301526000608082015160a0608085015261240960a0850182612376565b949350505050565b60208152600061236f60208301846123c4565b6000602080830181845280855180835260408601915060408160051b870101925083870160005b8281101561247957603f198886030184526124678583516123c4565b9450928501929085019060010161244b565b5092979650505050505050565b6000806040838503121561249957600080fd5b823591506124a96020840161233d565b90509250929050565b6000806000606084860312156124c757600080fd5b833592506124d76020850161233d565b9150604084013590509250925092565b634e487b7160e01b600052601160045260246000fd5b8181038181111561204d5761204d6124e7565b634e487b7160e01b600052603260045260246000fd5b600060018201612538576125386124e7565b5060010190565b60006020828403121561255157600080fd5b5051919050565b60208082526038908201527f54686520696e6465782073656e7420697320626967676572207468616e20746860408201527f65207265717565737473206172726179206c656e6774682e0000000000000000606082015260800190565b60208082526049908201527f416464726573732073656e7420646f65736e2774206d6174636820776974682060408201527f74686520616464726573732073746f72656420696e20746865207265717565736060820152683a399030b93930bc9760b91b608082015260a00190565b8082018082111561204d5761204d6124e7565b808202811582820484141761204d5761204d6124e7565b60008261266b57634e487b7160e01b600052601260045260246000fd5b500490565b60006020828403121561268257600080fd5b8151801515811461236f57600080fd5b634e487b7160e01b600052604160045260246000fd5b634e487b7160e01b600052603160045260246000fdfea2646970667358221220fe6f1810f7f07828546242d203fd9eba4a2e5d7dd0eeecaf09660eb8bd3c9ee664736f6c63430008130033","opcodes":"PUSH1 0x80 PUSH1 0x40 MSTORE CALLVALUE DUP1 ISZERO PUSH3 0x11 JUMPI PUSH1 0x0 DUP1 REVERT JUMPDEST POP PUSH1 0x40 MLOAD PUSH3 0x2939 CODESIZE SUB DUP1 PUSH3 0x2939 DUP4 CODECOPY DUP2 ADD PUSH1 0x40 DUP2 SWAP1 MSTORE PUSH3 0x34 SWAP2 PUSH3 0x1F4 JUMP JUMPDEST PUSH3 0x3F CALLER PUSH3 0xA6 JUMP JUMPDEST PUSH1 0xA DUP1 SLOAD PUSH1 0x1 PUSH1 0x1 PUSH1 0xA0 SHL SUB NOT AND PUSH1 0x1 PUSH1 0x1 PUSH1 0xA0 SHL SUB DUP4 AND OR SWAP1 SSTORE PUSH3 0x65 DUP4 PUSH3 0xF6 JUMP JUMPDEST POP PUSH1 0x3 SSTORE PUSH1 0x40 DUP1 MLOAD DUP1 DUP3 ADD SWAP1 SWAP2 MSTORE PUSH1 0x1 PUSH1 0x1 PUSH1 0xA0 SHL SUB SWAP1 SWAP2 AND DUP1 DUP3 MSTORE TIMESTAMP PUSH1 0x20 SWAP1 SWAP3 ADD DUP3 SWAP1 MSTORE PUSH1 0x1 DUP1 SLOAD PUSH1 0x1 PUSH1 0x1 PUSH1 0xA0 SHL SUB NOT AND SWAP1 SWAP2 OR SWAP1 SSTORE PUSH1 0x2 SSTORE PUSH3 0x235 JUMP JUMPDEST PUSH1 0x0 DUP1 SLOAD PUSH1 0x1 PUSH1 0x1 PUSH1 0xA0 SHL SUB DUP4 DUP2 AND PUSH1 0x1 PUSH1 0x1 PUSH1 0xA0 SHL SUB NOT DUP4 AND DUP2 OR DUP5 SSTORE PUSH1 0x40 MLOAD SWAP2 SWAP1 SWAP3 AND SWAP3 DUP4 SWAP2 PUSH32 0x8BE0079C531659141344CD1FD0A4F28419497F9722A3DAAFE3B4186F6B6457E0 SWAP2 SWAP1 LOG3 POP POP JUMP JUMPDEST PUSH3 0x100 PUSH3 0x179 JUMP JUMPDEST PUSH1 0x1 PUSH1 0x1 PUSH1 0xA0 SHL SUB DUP2 AND PUSH3 0x16B JUMPI PUSH1 0x40 MLOAD PUSH3 0x461BCD PUSH1 0xE5 SHL DUP2 MSTORE PUSH1 0x20 PUSH1 0x4 DUP3 ADD MSTORE PUSH1 0x26 PUSH1 0x24 DUP3 ADD MSTORE PUSH32 0x4F776E61626C653A206E6577206F776E657220697320746865207A65726F2061 PUSH1 0x44 DUP3 ADD MSTORE PUSH6 0x646472657373 PUSH1 0xD0 SHL PUSH1 0x64 DUP3 ADD MSTORE PUSH1 0x84 ADD JUMPDEST PUSH1 0x40 MLOAD DUP1 SWAP2 SUB SWAP1 REVERT JUMPDEST PUSH3 0x176 DUP2 PUSH3 0xA6 JUMP JUMPDEST POP JUMP JUMPDEST PUSH1 0x0 SLOAD PUSH1 0x1 PUSH1 0x1 PUSH1 0xA0 SHL SUB AND CALLER EQ PUSH3 0x1D5 JUMPI PUSH1 0x40 MLOAD PUSH3 0x461BCD PUSH1 0xE5 SHL DUP2 MSTORE PUSH1 0x20 PUSH1 0x4 DUP3 ADD DUP2 SWAP1 MSTORE PUSH1 0x24 DUP3 ADD MSTORE PUSH32 0x4F776E61626C653A2063616C6C6572206973206E6F7420746865206F776E6572 PUSH1 0x44 DUP3 ADD MSTORE PUSH1 0x64 ADD PUSH3 0x162 JUMP JUMPDEST JUMP JUMPDEST DUP1 MLOAD PUSH1 0x1 PUSH1 0x1 PUSH1 0xA0 SHL SUB DUP2 AND DUP2 EQ PUSH3 0x1EF JUMPI PUSH1 0x0 DUP1 REVERT JUMPDEST SWAP2 SWAP1 POP JUMP JUMPDEST PUSH1 0x0 DUP1 PUSH1 0x0 PUSH1 0x60 DUP5 DUP7 SUB SLT ISZERO PUSH3 0x20A JUMPI PUSH1 0x0 DUP1 REVERT JUMPDEST PUSH3 0x215 DUP5 PUSH3 0x1D7 JUMP JUMPDEST SWAP3 POP PUSH1 0x20 DUP5 ADD MLOAD SWAP2 POP PUSH3 0x22C PUSH1 0x40 DUP6 ADD PUSH3 0x1D7 JUMP JUMPDEST SWAP1 POP SWAP3 POP SWAP3 POP SWAP3 JUMP JUMPDEST PUSH2 0x26F4 DUP1 PUSH3 0x245 PUSH1 0x0 CODECOPY PUSH1 0x0 RETURN INVALID PUSH1 0x80 PUSH1 0x40 MSTORE PUSH1 0x4 CALLDATASIZE LT PUSH2 0x1B7 JUMPI PUSH1 0x0 CALLDATALOAD PUSH1 0xE0 SHR DUP1 PUSH4 0x8DA5CB5B GT PUSH2 0xEC JUMPI DUP1 PUSH4 0xDB81F99B GT PUSH2 0x8A JUMPI DUP1 PUSH4 0xEA46193E GT PUSH2 0x64 JUMPI DUP1 PUSH4 0xEA46193E EQ PUSH2 0x4B3 JUMPI DUP1 PUSH4 0xF2FDE38B EQ PUSH2 0x4C6 JUMPI DUP1 PUSH4 0xF53D0A8E EQ PUSH2 0x4E6 JUMPI DUP1 PUSH4 0xFFC15B7C EQ PUSH2 0x529 JUMPI PUSH1 0x0 DUP1 REVERT JUMPDEST DUP1 PUSH4 0xDB81F99B EQ PUSH2 0x453 JUMPI DUP1 PUSH4 0xDE35F376 EQ PUSH2 0x473 JUMPI DUP1 PUSH4 0xE92DF2B0 EQ PUSH2 0x493 JUMPI PUSH1 0x0 DUP1 REVERT JUMPDEST DUP1 PUSH4 0xC1B640DB GT PUSH2 0xC6 JUMPI DUP1 PUSH4 0xC1B640DB EQ PUSH2 0x401 JUMPI DUP1 PUSH4 0xD0E30DB0 EQ PUSH2 0x416 JUMPI DUP1 PUSH4 0xD5002F2E EQ PUSH2 0x41E JUMPI DUP1 PUSH4 0xDAA67756 EQ PUSH2 0x433 JUMPI PUSH1 0x0 DUP1 REVERT JUMPDEST DUP1 PUSH4 0x8DA5CB5B EQ PUSH2 0x3B9 JUMPI DUP1 PUSH4 0x9F3C4416 EQ PUSH2 0x3D7 JUMPI DUP1 PUSH4 0xA37FC5CF EQ PUSH2 0x3EC JUMPI PUSH1 0x0 DUP1 REVERT JUMPDEST DUP1 PUSH4 0x4EAE51F4 GT PUSH2 0x159 JUMPI DUP1 PUSH4 0x66416DD3 GT PUSH2 0x133 JUMPI DUP1 PUSH4 0x66416DD3 EQ PUSH2 0x34C JUMPI DUP1 PUSH4 0x715018A6 EQ PUSH2 0x36C JUMPI DUP1 PUSH4 0x7C1D3A01 EQ PUSH2 0x381 JUMPI DUP1 PUSH4 0x7EF665E9 EQ PUSH2 0x3A1 JUMPI PUSH1 0x0 DUP1 REVERT JUMPDEST DUP1 PUSH4 0x4EAE51F4 EQ PUSH2 0x2BC JUMPI DUP1 PUSH4 0x4F3B972D EQ PUSH2 0x2DE JUMPI DUP1 PUSH4 0x59E82BD7 EQ PUSH2 0x32C JUMPI PUSH1 0x0 DUP1 REVERT JUMPDEST DUP1 PUSH4 0x2E1A7D4D GT PUSH2 0x195 JUMPI DUP1 PUSH4 0x2E1A7D4D EQ PUSH2 0x22B JUMPI DUP1 PUSH4 0x35D6F873 EQ PUSH2 0x24D JUMPI DUP1 PUSH4 0x3CFD1CCC EQ PUSH2 0x27A JUMPI DUP1 PUSH4 0x4DA2F2F9 EQ PUSH2 0x28F JUMPI PUSH1 0x0 DUP1 REVERT JUMPDEST DUP1 PUSH4 0x51EA68F EQ PUSH2 0x1BC JUMPI DUP1 PUSH4 0x64AC578 EQ PUSH2 0x1E6 JUMPI DUP1 PUSH4 0x25CFECBE EQ PUSH2 0x208 JUMPI JUMPDEST PUSH1 0x0 DUP1 REVERT JUMPDEST CALLVALUE DUP1 ISZERO PUSH2 0x1C8 JUMPI PUSH1 0x0 DUP1 REVERT JUMPDEST POP PUSH2 0x1D1 PUSH2 0x53E JUMP JUMPDEST PUSH1 0x40 MLOAD SWAP1 ISZERO ISZERO DUP2 MSTORE PUSH1 0x20 ADD JUMPDEST PUSH1 0x40 MLOAD DUP1 SWAP2 SUB SWAP1 RETURN JUMPDEST CALLVALUE DUP1 ISZERO PUSH2 0x1F2 JUMPI PUSH1 0x0 DUP1 REVERT JUMPDEST POP PUSH2 0x1FB PUSH2 0x559 JUMP JUMPDEST PUSH1 0x40 MLOAD PUSH2 0x1DD SWAP2 SWAP1 PUSH2 0x22D7 JUMP JUMPDEST CALLVALUE DUP1 ISZERO PUSH2 0x214 JUMPI PUSH1 0x0 DUP1 REVERT JUMPDEST POP PUSH2 0x21D PUSH2 0x5BB JUMP JUMPDEST PUSH1 0x40 MLOAD SWAP1 DUP2 MSTORE PUSH1 0x20 ADD PUSH2 0x1DD JUMP JUMPDEST CALLVALUE DUP1 ISZERO PUSH2 0x237 JUMPI PUSH1 0x0 DUP1 REVERT JUMPDEST POP PUSH2 0x24B PUSH2 0x246 CALLDATASIZE PUSH1 0x4 PUSH2 0x2324 JUMP JUMPDEST PUSH2 0x5CC JUMP JUMPDEST STOP JUMPDEST CALLVALUE DUP1 ISZERO PUSH2 0x259 JUMPI PUSH1 0x0 DUP1 REVERT JUMPDEST POP PUSH2 0x26D PUSH2 0x268 CALLDATASIZE PUSH1 0x4 PUSH2 0x2354 JUMP JUMPDEST PUSH2 0x6A5 JUMP JUMPDEST PUSH1 0x40 MLOAD PUSH2 0x1DD SWAP2 SWAP1 PUSH2 0x23B1 JUMP JUMPDEST CALLVALUE DUP1 ISZERO PUSH2 0x286 JUMPI PUSH1 0x0 DUP1 REVERT JUMPDEST POP PUSH2 0x21D PUSH2 0x783 JUMP JUMPDEST CALLVALUE DUP1 ISZERO PUSH2 0x29B JUMPI PUSH1 0x0 DUP1 REVERT JUMPDEST POP PUSH2 0x2AF PUSH2 0x2AA CALLDATASIZE PUSH1 0x4 PUSH2 0x2354 JUMP JUMPDEST PUSH2 0x7F5 JUMP JUMPDEST PUSH1 0x40 MLOAD PUSH2 0x1DD SWAP2 SWAP1 PUSH2 0x2411 JUMP JUMPDEST CALLVALUE DUP1 ISZERO PUSH2 0x2C8 JUMPI PUSH1 0x0 DUP1 REVERT JUMPDEST POP PUSH2 0x2D1 PUSH2 0x983 JUMP JUMPDEST PUSH1 0x40 MLOAD PUSH2 0x1DD SWAP2 SWAP1 PUSH2 0x2424 JUMP JUMPDEST CALLVALUE DUP1 ISZERO PUSH2 0x2EA JUMPI PUSH1 0x0 DUP1 REVERT JUMPDEST POP PUSH2 0x314 PUSH2 0x2F9 CALLDATASIZE PUSH1 0x4 PUSH2 0x2324 JUMP JUMPDEST PUSH1 0x9 PUSH1 0x20 MSTORE PUSH1 0x0 SWAP1 DUP2 MSTORE PUSH1 0x40 SWAP1 KECCAK256 SLOAD PUSH1 0x1 PUSH1 0x1 PUSH1 0xA0 SHL SUB AND DUP2 JUMP JUMPDEST PUSH1 0x40 MLOAD PUSH1 0x1 PUSH1 0x1 PUSH1 0xA0 SHL SUB SWAP1 SWAP2 AND DUP2 MSTORE PUSH1 0x20 ADD PUSH2 0x1DD JUMP JUMPDEST CALLVALUE DUP1 ISZERO PUSH2 0x338 JUMPI PUSH1 0x0 DUP1 REVERT JUMPDEST POP PUSH2 0x24B PUSH2 0x347 CALLDATASIZE PUSH1 0x4 PUSH2 0x2486 JUMP JUMPDEST PUSH2 0xA63 JUMP JUMPDEST CALLVALUE DUP1 ISZERO PUSH2 0x358 JUMPI PUSH1 0x0 DUP1 REVERT JUMPDEST POP PUSH2 0x24B PUSH2 0x367 CALLDATASIZE PUSH1 0x4 PUSH2 0x2354 JUMP JUMPDEST PUSH2 0xC65 JUMP JUMPDEST CALLVALUE DUP1 ISZERO PUSH2 0x378 JUMPI PUSH1 0x0 DUP1 REVERT JUMPDEST POP PUSH2 0x24B PUSH2 0xEBC JUMP JUMPDEST CALLVALUE DUP1 ISZERO PUSH2 0x38D JUMPI PUSH1 0x0 DUP1 REVERT JUMPDEST POP PUSH2 0x24B PUSH2 0x39C CALLDATASIZE PUSH1 0x4 PUSH2 0x24B2 JUMP JUMPDEST PUSH2 0xED0 JUMP JUMPDEST CALLVALUE DUP1 ISZERO PUSH2 0x3AD JUMPI PUSH1 0x0 DUP1 REVERT JUMPDEST POP PUSH1 0x4 SLOAD PUSH1 0xFF AND PUSH2 0x1D1 JUMP JUMPDEST CALLVALUE DUP1 ISZERO PUSH2 0x3C5 JUMPI PUSH1 0x0 DUP1 REVERT JUMPDEST POP PUSH1 0x0 SLOAD PUSH1 0x1 PUSH1 0x1 PUSH1 0xA0 SHL SUB AND PUSH2 0x314 JUMP JUMPDEST CALLVALUE DUP1 ISZERO PUSH2 0x3E3 JUMPI PUSH1 0x0 DUP1 REVERT JUMPDEST POP PUSH2 0x24B PUSH2 0x12AF JUMP JUMPDEST CALLVALUE DUP1 ISZERO PUSH2 0x3F8 JUMPI PUSH1 0x0 DUP1 REVERT JUMPDEST POP PUSH2 0x21D PUSH2 0x183D JUMP JUMPDEST CALLVALUE DUP1 ISZERO PUSH2 0x40D JUMPI PUSH1 0x0 DUP1 REVERT JUMPDEST POP PUSH2 0x24B PUSH2 0x184E JUMP JUMPDEST PUSH2 0x24B PUSH2 0x18F2 JUMP JUMPDEST CALLVALUE DUP1 ISZERO PUSH2 0x42A JUMPI PUSH1 0x0 DUP1 REVERT JUMPDEST POP PUSH2 0x21D PUSH2 0x19B1 JUMP JUMPDEST CALLVALUE DUP1 ISZERO PUSH2 0x43F JUMPI PUSH1 0x0 DUP1 REVERT JUMPDEST POP PUSH2 0x24B PUSH2 0x44E CALLDATASIZE PUSH1 0x4 PUSH2 0x2324 JUMP JUMPDEST PUSH2 0x1A04 JUMP JUMPDEST CALLVALUE DUP1 ISZERO PUSH2 0x45F JUMPI PUSH1 0x0 DUP1 REVERT JUMPDEST POP PUSH2 0x24B PUSH2 0x46E CALLDATASIZE PUSH1 0x4 PUSH2 0x2324 JUMP JUMPDEST PUSH2 0x1B39 JUMP JUMPDEST CALLVALUE DUP1 ISZERO PUSH2 0x47F JUMPI PUSH1 0x0 DUP1 REVERT JUMPDEST POP PUSH2 0x24B PUSH2 0x48E CALLDATASIZE PUSH1 0x4 PUSH2 0x2324 JUMP JUMPDEST PUSH2 0x1CDB JUMP JUMPDEST CALLVALUE DUP1 ISZERO PUSH2 0x49F JUMPI PUSH1 0x0 DUP1 REVERT JUMPDEST POP PUSH2 0x24B PUSH2 0x4AE CALLDATASIZE PUSH1 0x4 PUSH2 0x2486 JUMP JUMPDEST PUSH2 0x1CE8 JUMP JUMPDEST CALLVALUE DUP1 ISZERO PUSH2 0x4BF JUMPI PUSH1 0x0 DUP1 REVERT JUMPDEST POP SELFBALANCE PUSH2 0x21D JUMP JUMPDEST CALLVALUE DUP1 ISZERO PUSH2 0x4D2 JUMPI PUSH1 0x0 DUP1 REVERT JUMPDEST POP PUSH2 0x24B PUSH2 0x4E1 CALLDATASIZE PUSH1 0x4 PUSH2 0x2354 JUMP JUMPDEST PUSH2 0x1E0D JUMP JUMPDEST CALLVALUE DUP1 ISZERO PUSH2 0x4F2 JUMPI PUSH1 0x0 DUP1 REVERT JUMPDEST POP PUSH1 0x1 SLOAD PUSH1 0x2 SLOAD PUSH2 0x50A SWAP2 PUSH1 0x1 PUSH1 0x1 PUSH1 0xA0 SHL SUB AND SWAP1 DUP3 JUMP JUMPDEST PUSH1 0x40 DUP1 MLOAD PUSH1 0x1 PUSH1 0x1 PUSH1 0xA0 SHL SUB SWAP1 SWAP4 AND DUP4 MSTORE PUSH1 0x20 DUP4 ADD SWAP2 SWAP1 SWAP2 MSTORE ADD PUSH2 0x1DD JUMP JUMPDEST CALLVALUE DUP1 ISZERO PUSH2 0x535 JUMPI PUSH1 0x0 DUP1 REVERT JUMPDEST POP PUSH2 0x1FB PUSH2 0x1E83 JUMP JUMPDEST PUSH1 0x3 SLOAD PUSH1 0x2 SLOAD PUSH1 0x0 SWAP2 SWAP1 PUSH2 0x552 SWAP1 TIMESTAMP PUSH2 0x24FD JUMP JUMPDEST LT ISZERO SWAP1 POP SWAP1 JUMP JUMPDEST PUSH1 0x60 PUSH1 0x6 DUP1 SLOAD DUP1 PUSH1 0x20 MUL PUSH1 0x20 ADD PUSH1 0x40 MLOAD SWAP1 DUP2 ADD PUSH1 0x40 MSTORE DUP1 SWAP3 SWAP2 SWAP1 DUP2 DUP2 MSTORE PUSH1 0x20 ADD DUP3 DUP1 SLOAD DUP1 ISZERO PUSH2 0x5B1 JUMPI PUSH1 0x20 MUL DUP3 ADD SWAP2 SWAP1 PUSH1 0x0 MSTORE PUSH1 0x20 PUSH1 0x0 KECCAK256 SWAP1 JUMPDEST DUP2 SLOAD PUSH1 0x1 PUSH1 0x1 PUSH1 0xA0 SHL SUB AND DUP2 MSTORE PUSH1 0x1 SWAP1 SWAP2 ADD SWAP1 PUSH1 0x20 ADD DUP1 DUP4 GT PUSH2 0x593 JUMPI JUMPDEST POP POP POP POP POP SWAP1 POP SWAP1 JUMP JUMPDEST PUSH1 0x0 PUSH2 0x5C5 PUSH2 0x1F61 JUMP JUMPDEST POP PUSH1 0x2 SLOAD SWAP1 JUMP JUMPDEST PUSH2 0x5D4 PUSH2 0x1F61 JUMP JUMPDEST PUSH1 0x0 DUP2 GT PUSH2 0x624 JUMPI PUSH1 0x40 MLOAD PUSH3 0x461BCD PUSH1 0xE5 SHL DUP2 MSTORE PUSH1 0x20 PUSH1 0x4 DUP3 ADD MSTORE PUSH1 0x18 PUSH1 0x24 DUP3 ADD MSTORE PUSH24 0x20B6B7BAB73A1036BAB9BA103132903837B9B4BA34BB3297 PUSH1 0x41 SHL PUSH1 0x44 DUP3 ADD MSTORE PUSH1 0x64 ADD JUMPDEST PUSH1 0x40 MLOAD DUP1 SWAP2 SUB SWAP1 REVERT JUMPDEST SELFBALANCE DUP2 GT ISZERO PUSH2 0x674 JUMPI PUSH1 0x40 MLOAD PUSH3 0x461BCD PUSH1 0xE5 SHL DUP2 MSTORE PUSH1 0x20 PUSH1 0x4 DUP3 ADD MSTORE PUSH1 0x17 PUSH1 0x24 DUP3 ADD MSTORE PUSH32 0x4E6F7420656E6F756768204554482062616C616E63652E000000000000000000 PUSH1 0x44 DUP3 ADD MSTORE PUSH1 0x64 ADD PUSH2 0x61B JUMP JUMPDEST PUSH1 0x40 MLOAD CALLER SWAP1 DUP3 ISZERO PUSH2 0x8FC MUL SWAP1 DUP4 SWAP1 PUSH1 0x0 DUP2 DUP2 DUP2 DUP6 DUP9 DUP9 CALL SWAP4 POP POP POP POP ISZERO DUP1 ISZERO PUSH2 0x6A1 JUMPI RETURNDATASIZE PUSH1 0x0 DUP1 RETURNDATACOPY RETURNDATASIZE PUSH1 0x0 REVERT JUMPDEST POP POP JUMP JUMPDEST PUSH1 0x60 PUSH1 0x0 JUMPDEST PUSH1 0x5 SLOAD DUP2 LT ISZERO PUSH2 0x77D JUMPI DUP3 PUSH1 0x1 PUSH1 0x1 PUSH1 0xA0 SHL SUB AND PUSH1 0x5 DUP3 DUP2 SLOAD DUP2 LT PUSH2 0x6D1 JUMPI PUSH2 0x6D1 PUSH2 0x2510 JUMP JUMPDEST PUSH1 0x0 SWAP2 DUP3 MSTORE PUSH1 0x20 SWAP1 SWAP2 KECCAK256 PUSH1 0x5 SWAP1 SWAP2 MUL ADD SLOAD PUSH1 0x1 PUSH1 0x1 PUSH1 0xA0 SHL SUB AND SUB PUSH2 0x76B JUMPI PUSH1 0x5 DUP2 DUP2 SLOAD DUP2 LT PUSH2 0x703 JUMPI PUSH2 0x703 PUSH2 0x2510 JUMP JUMPDEST SWAP1 PUSH1 0x0 MSTORE PUSH1 0x20 PUSH1 0x0 KECCAK256 SWAP1 PUSH1 0x5 MUL ADD PUSH1 0x4 ADD DUP1 SLOAD DUP1 PUSH1 0x20 MUL PUSH1 0x20 ADD PUSH1 0x40 MLOAD SWAP1 DUP2 ADD PUSH1 0x40 MSTORE DUP1 SWAP3 SWAP2 SWAP1 DUP2 DUP2 MSTORE PUSH1 0x20 ADD DUP3 DUP1 SLOAD DUP1 ISZERO PUSH2 0x75E JUMPI PUSH1 0x20 MUL DUP3 ADD SWAP2 SWAP1 PUSH1 0x0 MSTORE PUSH1 0x20 PUSH1 0x0 KECCAK256 SWAP1 JUMPDEST DUP2 SLOAD DUP2 MSTORE PUSH1 0x20 ADD SWAP1 PUSH1 0x1 ADD SWAP1 DUP1 DUP4 GT PUSH2 0x74A JUMPI JUMPDEST POP POP POP POP POP SWAP2 POP POP SWAP2 SWAP1 POP JUMP JUMPDEST DUP1 PUSH2 0x775 DUP2 PUSH2 0x2526 JUMP JUMPDEST SWAP2 POP POP PUSH2 0x6AA JUMP JUMPDEST POP SWAP2 SWAP1 POP JUMP JUMPDEST PUSH1 0xA SLOAD PUSH1 0x40 MLOAD PUSH4 0x70A08231 PUSH1 0xE0 SHL DUP2 MSTORE ADDRESS PUSH1 0x4 DUP3 ADD MSTORE PUSH1 0x0 SWAP2 PUSH1 0x1 PUSH1 0x1 PUSH1 0xA0 SHL SUB AND SWAP1 PUSH4 0x70A08231 SWAP1 PUSH1 0x24 ADD PUSH1 0x20 PUSH1 0x40 MLOAD DUP1 DUP4 SUB DUP2 DUP7 GAS STATICCALL ISZERO DUP1 ISZERO PUSH2 0x7CC JUMPI RETURNDATASIZE PUSH1 0x0 DUP1 RETURNDATACOPY RETURNDATASIZE PUSH1 0x0 REVERT JUMPDEST POP POP POP POP PUSH1 0x40 MLOAD RETURNDATASIZE PUSH1 0x1F NOT PUSH1 0x1F DUP3 ADD AND DUP3 ADD DUP1 PUSH1 0x40 MSTORE POP DUP2 ADD SWAP1 PUSH2 0x7F0 SWAP2 SWAP1 PUSH2 0x253F JUMP JUMPDEST SWAP1 POP SWAP1 JUMP JUMPDEST PUSH2 0x830 PUSH1 0x40 MLOAD DUP1 PUSH1 0xA0 ADD PUSH1 0x40 MSTORE DUP1 PUSH1 0x0 PUSH1 0x1 PUSH1 0x1 PUSH1 0xA0 SHL SUB AND DUP2 MSTORE PUSH1 0x20 ADD PUSH1 0x0 DUP2 MSTORE PUSH1 0x20 ADD PUSH1 0x0 DUP2 MSTORE PUSH1 0x20 ADD PUSH1 0x0 DUP2 MSTORE PUSH1 0x20 ADD PUSH1 0x60 DUP2 MSTORE POP SWAP1 JUMP JUMPDEST PUSH1 0x0 JUMPDEST PUSH1 0x5 SLOAD DUP2 LT ISZERO PUSH2 0x943 JUMPI DUP3 PUSH1 0x1 PUSH1 0x1 PUSH1 0xA0 SHL SUB AND PUSH1 0x5 DUP3 DUP2 SLOAD DUP2 LT PUSH2 0x85A JUMPI PUSH2 0x85A PUSH2 0x2510 JUMP JUMPDEST PUSH1 0x0 SWAP2 DUP3 MSTORE PUSH1 0x20 SWAP1 SWAP2 KECCAK256 PUSH1 0x5 SWAP1 SWAP2 MUL ADD SLOAD PUSH1 0x1 PUSH1 0x1 PUSH1 0xA0 SHL SUB AND SUB PUSH2 0x931 JUMPI PUSH1 0x5 DUP2 DUP2 SLOAD DUP2 LT PUSH2 0x88C JUMPI PUSH2 0x88C PUSH2 0x2510 JUMP JUMPDEST PUSH1 0x0 SWAP2 DUP3 MSTORE PUSH1 0x20 SWAP2 DUP3 SWAP1 KECCAK256 PUSH1 0x40 DUP1 MLOAD PUSH1 0xA0 DUP2 ADD DUP3 MSTORE PUSH1 0x5 SWAP1 SWAP4 MUL SWAP1 SWAP2 ADD DUP1 SLOAD PUSH1 0x1 PUSH1 0x1 PUSH1 0xA0 SHL SUB AND DUP4 MSTORE PUSH1 0x1 DUP2 ADD SLOAD DUP4 DUP6 ADD MSTORE PUSH1 0x2 DUP2 ADD SLOAD DUP4 DUP4 ADD MSTORE PUSH1 0x3 DUP2 ADD SLOAD PUSH1 0x60 DUP5 ADD MSTORE PUSH1 0x4 DUP2 ADD DUP1 SLOAD DUP4 MLOAD DUP2 DUP8 MUL DUP2 ADD DUP8 ADD SWAP1 SWAP5 MSTORE DUP1 DUP5 MSTORE SWAP4 SWAP5 SWAP2 SWAP4 PUSH1 0x80 DUP7 ADD SWAP4 SWAP3 DUP4 ADD DUP3 DUP3 DUP1 ISZERO PUSH2 0x920 JUMPI PUSH1 0x20 MUL DUP3 ADD SWAP2 SWAP1 PUSH1 0x0 MSTORE PUSH1 0x20 PUSH1 0x0 KECCAK256 SWAP1 JUMPDEST DUP2 SLOAD DUP2 MSTORE PUSH1 0x20 ADD SWAP1 PUSH1 0x1 ADD SWAP1 DUP1 DUP4 GT PUSH2 0x90C JUMPI JUMPDEST POP POP POP POP POP DUP2 MSTORE POP POP SWAP2 POP POP SWAP2 SWAP1 POP JUMP JUMPDEST DUP1 PUSH2 0x93B DUP2 PUSH2 0x2526 JUMP JUMPDEST SWAP2 POP POP PUSH2 0x833 JUMP JUMPDEST POP PUSH1 0x40 MLOAD PUSH3 0x461BCD PUSH1 0xE5 SHL DUP2 MSTORE PUSH1 0x20 PUSH1 0x4 DUP3 ADD MSTORE PUSH1 0xF PUSH1 0x24 DUP3 ADD MSTORE PUSH15 0x2432B4B9103737BA103337BAB73217 PUSH1 0x89 SHL PUSH1 0x44 DUP3 ADD MSTORE PUSH1 0x64 ADD PUSH2 0x61B JUMP JUMPDEST SWAP2 SWAP1 POP JUMP JUMPDEST PUSH1 0x60 PUSH1 0x5 DUP1 SLOAD DUP1 PUSH1 0x20 MUL PUSH1 0x20 ADD PUSH1 0x40 MLOAD SWAP1 DUP2 ADD PUSH1 0x40 MSTORE DUP1 SWAP3 SWAP2 SWAP1 DUP2 DUP2 MSTORE PUSH1 0x20 ADD PUSH1 0x0 SWAP1 JUMPDEST DUP3 DUP3 LT ISZERO PUSH2 0xA5A JUMPI PUSH1 0x0 DUP5 DUP2 MSTORE PUSH1 0x20 SWAP1 DUP2 SWAP1 KECCAK256 PUSH1 0x40 DUP1 MLOAD PUSH1 0xA0 DUP2 ADD DUP3 MSTORE PUSH1 0x5 DUP7 MUL SWAP1 SWAP3 ADD DUP1 SLOAD PUSH1 0x1 PUSH1 0x1 PUSH1 0xA0 SHL SUB AND DUP4 MSTORE PUSH1 0x1 DUP2 ADD SLOAD DUP4 DUP6 ADD MSTORE PUSH1 0x2 DUP2 ADD SLOAD DUP4 DUP4 ADD MSTORE PUSH1 0x3 DUP2 ADD SLOAD PUSH1 0x60 DUP5 ADD MSTORE PUSH1 0x4 DUP2 ADD DUP1 SLOAD DUP4 MLOAD DUP2 DUP8 MUL DUP2 ADD DUP8 ADD SWAP1 SWAP5 MSTORE DUP1 DUP5 MSTORE SWAP4 SWAP5 SWAP2 SWAP4 PUSH1 0x80 DUP7 ADD SWAP4 SWAP3 DUP4 ADD DUP3 DUP3 DUP1 ISZERO PUSH2 0xA42 JUMPI PUSH1 0x20 MUL DUP3 ADD SWAP2 SWAP1 PUSH1 0x0 MSTORE PUSH1 0x20 PUSH1 0x0 KECCAK256 SWAP1 JUMPDEST DUP2 SLOAD DUP2 MSTORE PUSH1 0x20 ADD SWAP1 PUSH1 0x1 ADD SWAP1 DUP1 DUP4 GT PUSH2 0xA2E JUMPI JUMPDEST POP POP POP POP POP DUP2 MSTORE POP POP DUP2 MSTORE PUSH1 0x20 ADD SWAP1 PUSH1 0x1 ADD SWAP1 PUSH2 0x9A7 JUMP JUMPDEST POP POP POP POP SWAP1 POP SWAP1 JUMP JUMPDEST PUSH2 0xA6B PUSH2 0x1F61 JUMP JUMPDEST PUSH1 0x0 DUP3 DUP2 MSTORE PUSH1 0x9 PUSH1 0x20 MSTORE PUSH1 0x40 SWAP1 KECCAK256 SLOAD PUSH1 0x1 PUSH1 0x1 PUSH1 0xA0 SHL SUB AND DUP1 ISZERO PUSH2 0xB4A JUMPI PUSH1 0x0 JUMPDEST PUSH1 0x5 SLOAD DUP2 LT ISZERO PUSH2 0xB48 JUMPI DUP2 PUSH1 0x1 PUSH1 0x1 PUSH1 0xA0 SHL SUB AND PUSH1 0x5 DUP3 DUP2 SLOAD DUP2 LT PUSH2 0xAB3 JUMPI PUSH2 0xAB3 PUSH2 0x2510 JUMP JUMPDEST PUSH1 0x0 SWAP2 DUP3 MSTORE PUSH1 0x20 SWAP1 SWAP2 KECCAK256 PUSH1 0x5 SWAP1 SWAP2 MUL ADD SLOAD PUSH1 0x1 PUSH1 0x1 PUSH1 0xA0 SHL SUB AND SUB PUSH2 0xB36 JUMPI PUSH1 0x0 PUSH2 0xB01 PUSH1 0x5 DUP4 DUP2 SLOAD DUP2 LT PUSH2 0xAEA JUMPI PUSH2 0xAEA PUSH2 0x2510 JUMP JUMPDEST SWAP1 PUSH1 0x0 MSTORE PUSH1 0x20 PUSH1 0x0 KECCAK256 SWAP1 PUSH1 0x5 MUL ADD PUSH1 0x4 ADD DUP7 PUSH2 0x1FBB JUMP JUMPDEST SWAP1 POP PUSH2 0xB30 PUSH1 0x5 DUP4 DUP2 SLOAD DUP2 LT PUSH2 0xB19 JUMPI PUSH2 0xB19 PUSH2 0x2510 JUMP JUMPDEST SWAP1 PUSH1 0x0 MSTORE PUSH1 0x20 PUSH1 0x0 KECCAK256 SWAP1 PUSH1 0x5 MUL ADD PUSH1 0x4 ADD DUP3 PUSH2 0x2053 JUMP JUMPDEST POP PUSH2 0xB48 JUMP JUMPDEST DUP1 PUSH2 0xB40 DUP2 PUSH2 0x2526 JUMP JUMPDEST SWAP2 POP POP PUSH2 0xA8C JUMP JUMPDEST POP JUMPDEST PUSH1 0x0 JUMPDEST PUSH1 0x5 SLOAD DUP2 LT ISZERO PUSH2 0xC0C JUMPI DUP3 PUSH1 0x1 PUSH1 0x1 PUSH1 0xA0 SHL SUB AND PUSH1 0x5 DUP3 DUP2 SLOAD DUP2 LT PUSH2 0xB74 JUMPI PUSH2 0xB74 PUSH2 0x2510 JUMP JUMPDEST PUSH1 0x0 SWAP2 DUP3 MSTORE PUSH1 0x20 SWAP1 SWAP2 KECCAK256 PUSH1 0x5 SWAP1 SWAP2 MUL ADD SLOAD PUSH1 0x1 PUSH1 0x1 PUSH1 0xA0 SHL SUB AND SUB PUSH2 0xBFA JUMPI PUSH1 0x5 DUP2 DUP2 SLOAD DUP2 LT PUSH2 0xBA6 JUMPI PUSH2 0xBA6 PUSH2 0x2510 JUMP JUMPDEST PUSH1 0x0 SWAP2 DUP3 MSTORE PUSH1 0x20 DUP1 DUP4 KECCAK256 PUSH1 0x5 SWAP3 SWAP1 SWAP3 MUL SWAP1 SWAP2 ADD PUSH1 0x4 ADD DUP1 SLOAD PUSH1 0x1 DUP2 ADD DUP3 SSTORE SWAP1 DUP4 MSTORE DUP2 DUP4 KECCAK256 ADD DUP7 SWAP1 SSTORE DUP6 DUP3 MSTORE PUSH1 0x9 SWAP1 MSTORE PUSH1 0x40 SWAP1 KECCAK256 DUP1 SLOAD PUSH1 0x1 PUSH1 0x1 PUSH1 0xA0 SHL SUB NOT AND PUSH1 0x1 PUSH1 0x1 PUSH1 0xA0 SHL SUB DUP6 AND OR SWAP1 SSTORE POP PUSH2 0x6A1 SWAP1 POP JUMP JUMPDEST DUP1 PUSH2 0xC04 DUP2 PUSH2 0x2526 JUMP JUMPDEST SWAP2 POP POP PUSH2 0xB4D JUMP JUMPDEST POP PUSH1 0x40 MLOAD PUSH3 0x461BCD PUSH1 0xE5 SHL DUP2 MSTORE PUSH1 0x20 PUSH1 0x4 DUP3 ADD MSTORE PUSH1 0x27 PUSH1 0x24 DUP3 ADD MSTORE PUSH32 0x4E657720686569722061646472657373206E6F7420666F756E6420616D6F6E67 PUSH1 0x44 DUP3 ADD MSTORE PUSH7 0x103432B4B93997 PUSH1 0xC9 SHL PUSH1 0x64 DUP3 ADD MSTORE PUSH1 0x84 ADD PUSH2 0x61B JUMP JUMPDEST PUSH1 0x5 SLOAD DUP2 SWAP1 PUSH1 0x64 GT PUSH2 0xCC9 JUMPI PUSH1 0x40 MLOAD PUSH3 0x461BCD PUSH1 0xE5 SHL DUP2 MSTORE PUSH1 0x20 PUSH1 0x4 DUP3 ADD MSTORE PUSH1 0x27 PUSH1 0x24 DUP3 ADD MSTORE PUSH32 0x416C7265616479207265616368656420746865206C696D6974206F6620313030 PUSH1 0x44 DUP3 ADD MSTORE PUSH7 0x103432B4B93997 PUSH1 0xC9 SHL PUSH1 0x64 DUP3 ADD MSTORE PUSH1 0x84 ADD PUSH2 0x61B JUMP JUMPDEST PUSH1 0x6 SLOAD PUSH1 0x64 GT PUSH2 0xD3A JUMPI PUSH1 0x40 MLOAD PUSH3 0x461BCD PUSH1 0xE5 SHL DUP2 MSTORE PUSH1 0x20 PUSH1 0x4 DUP3 ADD MSTORE PUSH1 0x36 PUSH1 0x24 DUP3 ADD MSTORE PUSH32 0x416C7265616479207265616368656420746865206C696D6974206F6620313030 PUSH1 0x44 DUP3 ADD MSTORE PUSH22 0x1034B73432B934BA30B731B2903932B8BAB2B9BA3997 PUSH1 0x51 SHL PUSH1 0x64 DUP3 ADD MSTORE PUSH1 0x84 ADD PUSH2 0x61B JUMP JUMPDEST PUSH1 0x0 JUMPDEST PUSH1 0x6 SLOAD DUP2 LT ISZERO PUSH2 0xDEA JUMPI DUP2 PUSH1 0x1 PUSH1 0x1 PUSH1 0xA0 SHL SUB AND PUSH1 0x6 DUP3 DUP2 SLOAD DUP2 LT PUSH2 0xD64 JUMPI PUSH2 0xD64 PUSH2 0x2510 JUMP JUMPDEST PUSH1 0x0 SWAP2 DUP3 MSTORE PUSH1 0x20 SWAP1 SWAP2 KECCAK256 ADD SLOAD PUSH1 0x1 PUSH1 0x1 PUSH1 0xA0 SHL SUB AND SUB PUSH2 0xDD8 JUMPI PUSH1 0x40 MLOAD PUSH3 0x461BCD PUSH1 0xE5 SHL DUP2 MSTORE PUSH1 0x20 PUSH1 0x4 DUP3 ADD MSTORE PUSH1 0x29 PUSH1 0x24 DUP3 ADD MSTORE PUSH32 0x4164647265737320616C72656164792065786973747320696E20726571756573 PUSH1 0x44 DUP3 ADD MSTORE PUSH9 0x3A399030B93930BC97 PUSH1 0xB9 SHL PUSH1 0x64 DUP3 ADD MSTORE PUSH1 0x84 ADD PUSH2 0x61B JUMP JUMPDEST DUP1 PUSH2 0xDE2 DUP2 PUSH2 0x2526 JUMP JUMPDEST SWAP2 POP POP PUSH2 0xD3D JUMP JUMPDEST POP PUSH1 0x6 DUP1 SLOAD PUSH1 0x1 DUP2 ADD DUP3 SSTORE PUSH1 0x0 DUP3 SWAP1 MSTORE PUSH32 0xF652222313E28459528D920B65115C16C04F3EFC82AAEDC97BE59F3F377C0D3F ADD DUP1 SLOAD PUSH1 0x1 PUSH1 0x1 PUSH1 0xA0 SHL SUB NOT AND PUSH1 0x1 PUSH1 0x1 PUSH1 0xA0 SHL SUB DUP6 AND SWAP1 DUP2 OR SWAP1 SWAP2 SSTORE SWAP1 SLOAD PUSH1 0x5 SLOAD PUSH1 0x40 DUP1 MLOAD PUSH1 0x60 DUP1 DUP3 MSTORE PUSH1 0x25 SWAP1 DUP3 ADD MSTORE PUSH32 0x5573657220726571756573747320746F20626520616464656420617320616E20 PUSH1 0x80 DUP3 ADD MSTORE PUSH5 0x3432B4B917 PUSH1 0xD9 SHL PUSH1 0xA0 DUP3 ADD MSTORE PUSH1 0x20 DUP2 ADD SWAP4 SWAP1 SWAP4 MSTORE DUP3 ADD MSTORE PUSH32 0xE6096EBFC672773AE3076E8AE873CB450789130E8C0D87B2B933210ACDC08F66 SWAP1 PUSH1 0xC0 ADD PUSH1 0x40 MLOAD DUP1 SWAP2 SUB SWAP1 LOG2 POP POP JUMP JUMPDEST PUSH2 0xEC4 PUSH2 0x1F61 JUMP JUMPDEST PUSH2 0xECE PUSH1 0x0 PUSH2 0x2133 JUMP JUMPDEST JUMP JUMPDEST PUSH2 0xED8 PUSH2 0x1F61 JUMP JUMPDEST DUP3 DUP3 DUP3 PUSH1 0x6 DUP1 SLOAD SWAP1 POP DUP4 LT PUSH2 0xEFF JUMPI PUSH1 0x40 MLOAD PUSH3 0x461BCD PUSH1 0xE5 SHL DUP2 MSTORE PUSH1 0x4 ADD PUSH2 0x61B SWAP1 PUSH2 0x2558 JUMP JUMPDEST DUP2 PUSH1 0x1 PUSH1 0x1 PUSH1 0xA0 SHL SUB AND PUSH1 0x6 DUP5 DUP2 SLOAD DUP2 LT PUSH2 0xF1C JUMPI PUSH2 0xF1C PUSH2 0x2510 JUMP JUMPDEST PUSH1 0x0 SWAP2 DUP3 MSTORE PUSH1 0x20 SWAP1 SWAP2 KECCAK256 ADD SLOAD PUSH1 0x1 PUSH1 0x1 PUSH1 0xA0 SHL SUB AND EQ PUSH2 0xF4E JUMPI PUSH1 0x40 MLOAD PUSH3 0x461BCD PUSH1 0xE5 SHL DUP2 MSTORE PUSH1 0x4 ADD PUSH2 0x61B SWAP1 PUSH2 0x25B5 JUMP JUMPDEST PUSH1 0x0 DUP1 JUMPDEST PUSH1 0x5 SLOAD DUP2 LT ISZERO PUSH2 0x1033 JUMPI DUP4 PUSH1 0x1 PUSH1 0x1 PUSH1 0xA0 SHL SUB AND PUSH1 0x5 DUP3 DUP2 SLOAD DUP2 LT PUSH2 0xF79 JUMPI PUSH2 0xF79 PUSH2 0x2510 JUMP JUMPDEST PUSH1 0x0 SWAP2 DUP3 MSTORE PUSH1 0x20 SWAP1 SWAP2 KECCAK256 PUSH1 0x5 SWAP1 SWAP2 MUL ADD SLOAD PUSH1 0x1 PUSH1 0x1 PUSH1 0xA0 SHL SUB AND SUB PUSH2 0xFEF JUMPI PUSH1 0x40 MLOAD PUSH3 0x461BCD PUSH1 0xE5 SHL DUP2 MSTORE PUSH1 0x20 PUSH1 0x4 DUP3 ADD MSTORE PUSH1 0x26 PUSH1 0x24 DUP3 ADD MSTORE PUSH32 0x4164647265737320616C72656164792065786973747320696E20686569727320 PUSH1 0x44 DUP3 ADD MSTORE PUSH6 0x30B93930BC97 PUSH1 0xD1 SHL PUSH1 0x64 DUP3 ADD MSTORE PUSH1 0x84 ADD PUSH2 0x61B JUMP JUMPDEST PUSH1 0x5 DUP2 DUP2 SLOAD DUP2 LT PUSH2 0x1002 JUMPI PUSH2 0x1002 PUSH2 0x2510 JUMP JUMPDEST SWAP1 PUSH1 0x0 MSTORE PUSH1 0x20 PUSH1 0x0 KECCAK256 SWAP1 PUSH1 0x5 MUL ADD PUSH1 0x1 ADD SLOAD DUP3 PUSH2 0x101F SWAP2 SWAP1 PUSH2 0x2624 JUMP JUMPDEST SWAP2 POP DUP1 PUSH2 0x102B DUP2 PUSH2 0x2526 JUMP JUMPDEST SWAP2 POP POP PUSH2 0xF52 JUMP JUMPDEST POP PUSH1 0x64 PUSH2 0x1040 DUP4 DUP4 PUSH2 0x2624 JUMP JUMPDEST GT ISZERO PUSH2 0x10DA JUMPI PUSH1 0x40 MLOAD PUSH3 0x461BCD PUSH1 0xE5 SHL DUP2 MSTORE PUSH1 0x20 PUSH1 0x4 DUP3 ADD MSTORE PUSH1 0x5C PUSH1 0x24 DUP3 ADD MSTORE PUSH32 0x74686520616D6F756E74206F6620736861726573206578636565642074686520 PUSH1 0x44 DUP3 ADD MSTORE PUSH32 0x31303025206F662074686520496E6865726974616E63652C2074727920776974 PUSH1 0x64 DUP3 ADD MSTORE PUSH32 0x68206120736D616C6C657220616D6F756E74206F662073686172652E00000000 PUSH1 0x84 DUP3 ADD MSTORE PUSH1 0xA4 ADD PUSH2 0x61B JUMP JUMPDEST PUSH1 0x40 DUP1 MLOAD PUSH1 0xA0 DUP2 ADD DUP3 MSTORE PUSH1 0x1 PUSH1 0x1 PUSH1 0xA0 SHL SUB DUP9 DUP2 AND DUP3 MSTORE PUSH1 0x20 DUP1 DUP4 ADD DUP10 DUP2 MSTORE PUSH1 0x0 SWAP5 DUP5 ADD DUP6 DUP2 MSTORE PUSH1 0x60 DUP1 DUP7 ADD DUP8 DUP2 MSTORE PUSH1 0x80 DUP8 ADD DUP3 DUP2 MSTORE PUSH1 0x5 DUP1 SLOAD PUSH1 0x1 DUP2 ADD DUP3 SSTORE SWAP10 DUP2 SWAP1 MSTORE DUP9 MLOAD PUSH32 0x36B6384B5ECA791C62761152D0C79BB0604C104A5FB6F4EB0703F3154BB3DB0 SWAP11 SWAP1 SWAP2 MUL SWAP10 DUP11 ADD DUP1 SLOAD PUSH1 0x1 PUSH1 0x1 PUSH1 0xA0 SHL SUB NOT AND SWAP2 SWAP1 SWAP9 AND OR DUP8 SSTORE SWAP4 MLOAD PUSH32 0x36B6384B5ECA791C62761152D0C79BB0604C104A5FB6F4EB0703F3154BB3DB1 DUP10 ADD SSTORE SWAP2 MLOAD PUSH32 0x36B6384B5ECA791C62761152D0C79BB0604C104A5FB6F4EB0703F3154BB3DB2 DUP9 ADD SSTORE SWAP1 MLOAD PUSH32 0x36B6384B5ECA791C62761152D0C79BB0604C104A5FB6F4EB0703F3154BB3DB3 DUP8 ADD SSTORE SWAP1 MLOAD DUP1 MLOAD SWAP2 SWAP6 PUSH2 0x1204 SWAP4 PUSH32 0x36B6384B5ECA791C62761152D0C79BB0604C104A5FB6F4EB0703F3154BB3DB4 SWAP1 SWAP2 ADD SWAP3 SWAP2 ADD SWAP1 PUSH2 0x2277 JUMP JUMPDEST POP POP POP PUSH2 0x1210 DUP9 PUSH2 0x2183 JUMP JUMPDEST PUSH1 0x6 SLOAD PUSH1 0x5 SLOAD PUSH1 0x40 DUP1 MLOAD PUSH1 0x80 DUP1 DUP3 MSTORE PUSH1 0x26 SWAP1 DUP3 ADD MSTORE PUSH32 0x41646D696E6973747261746F722061636365707473207573657220617320616E PUSH1 0xA0 DUP3 ADD MSTORE PUSH6 0x103432B4B917 PUSH1 0xD1 SHL PUSH1 0xC0 DUP3 ADD MSTORE PUSH1 0x20 DUP2 ADD DUP11 SWAP1 MSTORE SWAP1 DUP2 ADD SWAP3 SWAP1 SWAP3 MSTORE PUSH1 0x60 DUP3 ADD MSTORE PUSH1 0x1 PUSH1 0x1 PUSH1 0xA0 SHL SUB DUP9 AND SWAP1 PUSH32 0x14AA904C12FA948B33E901E688A79D46FE3D46A383A5B181C26475CEC40D67EC SWAP1 PUSH1 0xE0 ADD PUSH1 0x40 MLOAD DUP1 SWAP2 SUB SWAP1 LOG2 POP POP POP POP POP POP POP POP JUMP JUMPDEST CALLER PUSH1 0x0 DUP1 JUMPDEST PUSH1 0x5 SLOAD DUP2 LT ISZERO PUSH2 0x1311 JUMPI DUP3 PUSH1 0x1 PUSH1 0x1 PUSH1 0xA0 SHL SUB AND PUSH1 0x5 DUP3 DUP2 SLOAD DUP2 LT PUSH2 0x12DB JUMPI PUSH2 0x12DB PUSH2 0x2510 JUMP JUMPDEST PUSH1 0x0 SWAP2 DUP3 MSTORE PUSH1 0x20 SWAP1 SWAP2 KECCAK256 PUSH1 0x5 SWAP1 SWAP2 MUL ADD SLOAD PUSH1 0x1 PUSH1 0x1 PUSH1 0xA0 SHL SUB AND SUB PUSH2 0x12FF JUMPI PUSH1 0x1 SWAP2 POP JUMPDEST DUP1 PUSH2 0x1309 DUP2 PUSH2 0x2526 JUMP JUMPDEST SWAP2 POP POP PUSH2 0x12B4 JUMP JUMPDEST POP PUSH1 0x1 DUP2 ISZERO ISZERO EQ PUSH2 0x1380 JUMPI PUSH1 0x40 MLOAD PUSH3 0x461BCD PUSH1 0xE5 SHL DUP2 MSTORE PUSH1 0x20 PUSH1 0x4 DUP3 ADD MSTORE PUSH1 0x33 PUSH1 0x24 DUP3 ADD MSTORE PUSH32 0x546865206164647265737320636C61696D696E672074686520696E6865726974 PUSH1 0x44 DUP3 ADD MSTORE PUSH19 0x30B731B29034B9903737BA1030902432B4B917 PUSH1 0x69 SHL PUSH1 0x64 DUP3 ADD MSTORE PUSH1 0x84 ADD PUSH2 0x61B JUMP JUMPDEST PUSH2 0x1388 PUSH2 0x53E JUMP JUMPDEST ISZERO PUSH2 0x6A1 JUMPI PUSH1 0x0 PUSH2 0x1397 PUSH2 0x783 JUMP JUMPDEST SWAP1 POP SELFBALANCE PUSH1 0x0 JUMPDEST PUSH1 0x5 SLOAD DUP2 LT ISZERO PUSH2 0x14B7 JUMPI PUSH1 0x64 DUP4 PUSH1 0x5 DUP4 DUP2 SLOAD DUP2 LT PUSH2 0x13BD JUMPI PUSH2 0x13BD PUSH2 0x2510 JUMP JUMPDEST SWAP1 PUSH1 0x0 MSTORE PUSH1 0x20 PUSH1 0x0 KECCAK256 SWAP1 PUSH1 0x5 MUL ADD PUSH1 0x1 ADD SLOAD PUSH2 0x13D9 SWAP2 SWAP1 PUSH2 0x2637 JUMP JUMPDEST PUSH2 0x13E3 SWAP2 SWAP1 PUSH2 0x264E JUMP JUMPDEST PUSH1 0x7 PUSH1 0x0 PUSH1 0x5 DUP5 DUP2 SLOAD DUP2 LT PUSH2 0x13FA JUMPI PUSH2 0x13FA PUSH2 0x2510 JUMP JUMPDEST PUSH1 0x0 SWAP2 DUP3 MSTORE PUSH1 0x20 DUP1 DUP4 KECCAK256 PUSH1 0x5 SWAP3 DUP4 MUL ADD SLOAD PUSH1 0x1 PUSH1 0x1 PUSH1 0xA0 SHL SUB AND DUP5 MSTORE DUP4 ADD SWAP4 SWAP1 SWAP4 MSTORE PUSH1 0x40 SWAP1 SWAP2 ADD SWAP1 KECCAK256 SWAP2 SWAP1 SWAP2 SSTORE DUP1 SLOAD PUSH1 0x64 SWAP2 DUP5 SWAP2 DUP5 SWAP1 DUP2 LT PUSH2 0x143E JUMPI PUSH2 0x143E PUSH2 0x2510 JUMP JUMPDEST SWAP1 PUSH1 0x0 MSTORE PUSH1 0x20 PUSH1 0x0 KECCAK256 SWAP1 PUSH1 0x5 MUL ADD PUSH1 0x1 ADD SLOAD PUSH2 0x145A SWAP2 SWAP1 PUSH2 0x2637 JUMP JUMPDEST PUSH2 0x1464 SWAP2 SWAP1 PUSH2 0x264E JUMP JUMPDEST PUSH1 0x8 PUSH1 0x0 PUSH1 0x5 DUP5 DUP2 SLOAD DUP2 LT PUSH2 0x147B JUMPI PUSH2 0x147B PUSH2 0x2510 JUMP JUMPDEST PUSH1 0x0 SWAP2 DUP3 MSTORE PUSH1 0x20 DUP1 DUP4 KECCAK256 PUSH1 0x5 SWAP1 SWAP3 MUL SWAP1 SWAP2 ADD SLOAD PUSH1 0x1 PUSH1 0x1 PUSH1 0xA0 SHL SUB AND DUP4 MSTORE DUP3 ADD SWAP3 SWAP1 SWAP3 MSTORE PUSH1 0x40 ADD SWAP1 KECCAK256 SSTORE DUP1 PUSH2 0x14AF DUP2 PUSH2 0x2526 JUMP JUMPDEST SWAP2 POP POP PUSH2 0x139D JUMP JUMPDEST POP PUSH1 0x0 DUP1 JUMPDEST PUSH1 0x5 SLOAD DUP2 LT ISZERO PUSH2 0x1828 JUMPI PUSH1 0x5 DUP2 DUP2 SLOAD DUP2 LT PUSH2 0x14D9 JUMPI PUSH2 0x14D9 PUSH2 0x2510 JUMP JUMPDEST PUSH1 0x0 SWAP2 DUP3 MSTORE PUSH1 0x20 DUP1 DUP4 KECCAK256 PUSH1 0x5 SWAP1 SWAP3 MUL SWAP1 SWAP2 ADD SLOAD PUSH1 0x1 PUSH1 0x1 PUSH1 0xA0 SHL SUB AND DUP1 DUP4 MSTORE PUSH1 0x8 SWAP1 SWAP2 MSTORE PUSH1 0x40 DUP1 DUP4 KECCAK256 SLOAD SWAP1 MLOAD SWAP2 SWAP5 POP DUP5 SWAP3 DUP2 ISZERO PUSH2 0x8FC MUL SWAP3 SWAP1 DUP2 DUP2 DUP2 DUP6 DUP9 DUP9 CALL SWAP4 POP POP POP POP ISZERO DUP1 ISZERO PUSH2 0x152F JUMPI RETURNDATASIZE PUSH1 0x0 DUP1 RETURNDATACOPY RETURNDATASIZE PUSH1 0x0 REVERT JUMPDEST POP PUSH1 0x1 PUSH1 0x1 PUSH1 0xA0 SHL SUB DUP3 AND PUSH1 0x0 SWAP1 DUP2 MSTORE PUSH1 0x8 PUSH1 0x20 MSTORE PUSH1 0x40 SWAP1 KECCAK256 SLOAD PUSH1 0x5 DUP1 SLOAD DUP4 SWAP1 DUP2 LT PUSH2 0x155D JUMPI PUSH2 0x155D PUSH2 0x2510 JUMP JUMPDEST PUSH1 0x0 SWAP2 DUP3 MSTORE PUSH1 0x20 DUP1 DUP4 KECCAK256 PUSH1 0x5 SWAP3 SWAP1 SWAP3 MUL SWAP1 SWAP2 ADD PUSH1 0x2 ADD SWAP3 SWAP1 SWAP3 SSTORE PUSH1 0xA SLOAD PUSH1 0x1 PUSH1 0x1 PUSH1 0xA0 SHL SUB DUP6 DUP2 AND DUP1 DUP5 MSTORE PUSH1 0x7 SWAP1 SWAP5 MSTORE PUSH1 0x40 SWAP3 DUP4 SWAP1 KECCAK256 SLOAD SWAP3 MLOAD PUSH4 0xA9059CBB PUSH1 0xE0 SHL DUP2 MSTORE PUSH1 0x4 DUP2 ADD SWAP5 SWAP1 SWAP5 MSTORE PUSH1 0x24 DUP5 ADD SWAP3 SWAP1 SWAP3 MSTORE AND SWAP1 PUSH4 0xA9059CBB SWAP1 PUSH1 0x44 ADD PUSH1 0x20 PUSH1 0x40 MLOAD DUP1 DUP4 SUB DUP2 PUSH1 0x0 DUP8 GAS CALL ISZERO DUP1 ISZERO PUSH2 0x15DA JUMPI RETURNDATASIZE PUSH1 0x0 DUP1 RETURNDATACOPY RETURNDATASIZE PUSH1 0x0 REVERT JUMPDEST POP POP POP POP PUSH1 0x40 MLOAD RETURNDATASIZE PUSH1 0x1F NOT PUSH1 0x1F DUP3 ADD AND DUP3 ADD DUP1 PUSH1 0x40 MSTORE POP DUP2 ADD SWAP1 PUSH2 0x15FE SWAP2 SWAP1 PUSH2 0x2670 JUMP JUMPDEST PUSH2 0x1670 JUMPI PUSH1 0x40 MLOAD PUSH3 0x461BCD PUSH1 0xE5 SHL DUP2 MSTORE PUSH1 0x20 PUSH1 0x4 DUP3 ADD MSTORE PUSH1 0x38 PUSH1 0x24 DUP3 ADD MSTORE PUSH32 0x4572726F72207768696C65207472616E7366657272696E672055534443206672 PUSH1 0x44 DUP3 ADD MSTORE PUSH32 0x6F6D2074686520636F6E747261637420746F20686569722E0000000000000000 PUSH1 0x64 DUP3 ADD MSTORE PUSH1 0x84 ADD PUSH2 0x61B JUMP JUMPDEST PUSH1 0x1 PUSH1 0x1 PUSH1 0xA0 SHL SUB DUP3 AND PUSH1 0x0 SWAP1 DUP2 MSTORE PUSH1 0x7 PUSH1 0x20 MSTORE PUSH1 0x40 SWAP1 KECCAK256 SLOAD PUSH1 0x5 DUP1 SLOAD DUP4 SWAP1 DUP2 LT PUSH2 0x169D JUMPI PUSH2 0x169D PUSH2 0x2510 JUMP JUMPDEST SWAP1 PUSH1 0x0 MSTORE PUSH1 0x20 PUSH1 0x0 KECCAK256 SWAP1 PUSH1 0x5 MUL ADD PUSH1 0x3 ADD DUP2 SWAP1 SSTORE POP DUP2 PUSH1 0x1 PUSH1 0x1 PUSH1 0xA0 SHL SUB AND PUSH32 0x34E2B4EFDA0968BD3C419ECD901876F712F93CD5FDA9303AB16021C3535F5593 PUSH1 0x5 DUP4 DUP2 SLOAD DUP2 LT PUSH2 0x16F0 JUMPI PUSH2 0x16F0 PUSH2 0x2510 JUMP JUMPDEST SWAP1 PUSH1 0x0 MSTORE PUSH1 0x20 PUSH1 0x0 KECCAK256 SWAP1 PUSH1 0x5 MUL ADD PUSH1 0x1 ADD SLOAD PUSH1 0x8 PUSH1 0x0 DUP7 PUSH1 0x1 PUSH1 0x1 PUSH1 0xA0 SHL SUB AND PUSH1 0x1 PUSH1 0x1 PUSH1 0xA0 SHL SUB AND DUP2 MSTORE PUSH1 0x20 ADD SWAP1 DUP2 MSTORE PUSH1 0x20 ADD PUSH1 0x0 KECCAK256 SLOAD PUSH1 0x5 DUP6 DUP2 SLOAD DUP2 LT PUSH2 0x173B JUMPI PUSH2 0x173B PUSH2 0x2510 JUMP JUMPDEST SWAP1 PUSH1 0x0 MSTORE PUSH1 0x20 PUSH1 0x0 KECCAK256 SWAP1 PUSH1 0x5 MUL ADD PUSH1 0x2 ADD SLOAD PUSH1 0x7 PUSH1 0x0 DUP9 PUSH1 0x1 PUSH1 0x1 PUSH1 0xA0 SHL SUB AND PUSH1 0x1 PUSH1 0x1 PUSH1 0xA0 SHL SUB AND DUP2 MSTORE PUSH1 0x20 ADD SWAP1 DUP2 MSTORE PUSH1 0x20 ADD PUSH1 0x0 KECCAK256 SLOAD PUSH1 0x5 DUP8 DUP2 SLOAD DUP2 LT PUSH2 0x1786 JUMPI PUSH2 0x1786 PUSH2 0x2510 JUMP JUMPDEST SWAP1 PUSH1 0x0 MSTORE PUSH1 0x20 PUSH1 0x0 KECCAK256 SWAP1 PUSH1 0x5 MUL ADD PUSH1 0x3 ADD SLOAD PUSH1 0x40 MLOAD PUSH2 0x180E SWAP6 SWAP5 SWAP4 SWAP3 SWAP2 SWAP1 PUSH1 0xC0 DUP1 DUP3 MSTORE PUSH1 0x26 SWAP1 DUP3 ADD MSTORE PUSH32 0x457468657220616E642055534443206D6F6E65792073656E7420746F20746865 PUSH1 0xE0 DUP3 ADD MSTORE PUSH6 0x103432B4B917 PUSH1 0xD1 SHL PUSH2 0x100 DUP3 ADD MSTORE PUSH1 0x20 DUP2 ADD SWAP6 SWAP1 SWAP6 MSTORE PUSH1 0x40 DUP6 ADD SWAP4 SWAP1 SWAP4 MSTORE PUSH1 0x60 DUP5 ADD SWAP2 SWAP1 SWAP2 MSTORE PUSH1 0x80 DUP4 ADD MSTORE PUSH1 0xA0 DUP3 ADD MSTORE PUSH2 0x120 ADD SWAP1 JUMP JUMPDEST PUSH1 0x40 MLOAD DUP1 SWAP2 SUB SWAP1 LOG2 DUP1 PUSH2 0x1820 DUP2 PUSH2 0x2526 JUMP JUMPDEST SWAP2 POP POP PUSH2 0x14BC JUMP JUMPDEST POP POP PUSH1 0x4 DUP1 SLOAD PUSH1 0xFF NOT AND PUSH1 0x1 OR SWAP1 SSTORE POP POP POP POP JUMP JUMPDEST PUSH1 0x0 PUSH2 0x1847 PUSH2 0x1F61 JUMP JUMPDEST POP PUSH1 0x3 SLOAD SWAP1 JUMP JUMPDEST PUSH2 0x1856 PUSH2 0x1F61 JUMP JUMPDEST TIMESTAMP PUSH1 0x2 DUP2 SWAP1 SSTORE PUSH1 0x3 SLOAD PUSH1 0x40 DUP1 MLOAD PUSH1 0x80 DUP1 DUP3 MSTORE PUSH1 0x31 SWAP1 DUP3 ADD MSTORE PUSH32 0x41646D696E6973747261746F722073656E64732061207369676E616C20746F20 PUSH1 0xA0 DUP3 ADD MSTORE PUSH17 0x39B437BB9034329034B99030B634BB3297 PUSH1 0x79 SHL PUSH1 0xC0 DUP3 ADD MSTORE PUSH1 0x20 DUP2 ADD DUP5 SWAP1 MSTORE SWAP1 DUP2 ADD SWAP3 SWAP1 SWAP3 MSTORE PUSH1 0x60 DUP3 ADD MSTORE CALLER SWAP1 PUSH32 0x5F1AA2875B7B1DF0CD72A6EE708C6AFF6432288001C47518BC91BE4599FDF6E6 SWAP1 PUSH1 0xE0 ADD PUSH1 0x40 MLOAD DUP1 SWAP2 SUB SWAP1 LOG2 JUMP JUMPDEST PUSH1 0x1 SLOAD PUSH1 0x40 DUP1 MLOAD PUSH1 0x80 DUP1 DUP3 MSTORE PUSH1 0x4F SWAP1 DUP3 ADD MSTORE PUSH32 0x4C6F6720616C6C207468652076616C7565733A2041646D696E6973747261746F PUSH1 0xA0 DUP3 ADD MSTORE PUSH32 0x7220616464726573732C20416D6F756E742073656E742C20436F6E7472616374 PUSH1 0xC0 DUP3 ADD MSTORE PUSH15 0x1032BA3432B9103130B630B731B297 PUSH1 0x89 SHL PUSH1 0xE0 DUP3 ADD MSTORE PUSH1 0x1 PUSH1 0x1 PUSH1 0xA0 SHL SUB SWAP1 SWAP3 AND PUSH1 0x20 DUP4 ADD MSTORE CALLVALUE DUP3 DUP3 ADD MSTORE SELFBALANCE PUSH1 0x60 DUP4 ADD MSTORE MLOAD PUSH32 0xE329D93CFDA1BD6EAD1003E3AE53461617C8D120014DFAEA03D2FB42EC55B07 SWAP2 DUP2 SWAP1 SUB PUSH2 0x100 ADD SWAP1 LOG1 JUMP JUMPDEST PUSH1 0x0 DUP1 DUP1 JUMPDEST PUSH1 0x5 SLOAD DUP2 LT ISZERO PUSH2 0x77D JUMPI PUSH1 0x5 DUP2 DUP2 SLOAD DUP2 LT PUSH2 0x19D3 JUMPI PUSH2 0x19D3 PUSH2 0x2510 JUMP JUMPDEST SWAP1 PUSH1 0x0 MSTORE PUSH1 0x20 PUSH1 0x0 KECCAK256 SWAP1 PUSH1 0x5 MUL ADD PUSH1 0x1 ADD SLOAD DUP3 PUSH2 0x19F0 SWAP2 SWAP1 PUSH2 0x2624 JUMP JUMPDEST SWAP2 POP DUP1 PUSH2 0x19FC DUP2 PUSH2 0x2526 JUMP JUMPDEST SWAP2 POP POP PUSH2 0x19B6 JUMP JUMPDEST PUSH2 0x1A0C PUSH2 0x1F61 JUMP JUMPDEST PUSH1 0x0 DUP2 DUP2 MSTORE PUSH1 0x9 PUSH1 0x20 MSTORE PUSH1 0x40 SWAP1 KECCAK256 SLOAD PUSH1 0x1 PUSH1 0x1 PUSH1 0xA0 SHL SUB AND DUP1 PUSH2 0x1A71 JUMPI PUSH1 0x40 MLOAD PUSH3 0x461BCD PUSH1 0xE5 SHL DUP2 MSTORE PUSH1 0x20 PUSH1 0x4 DUP3 ADD MSTORE PUSH1 0x1F PUSH1 0x24 DUP3 ADD MSTORE PUSH32 0x546F6B656E206E6F742061737369676E656420746F20616E7920686569722E00 PUSH1 0x44 DUP3 ADD MSTORE PUSH1 0x64 ADD PUSH2 0x61B JUMP JUMPDEST PUSH1 0x0 JUMPDEST PUSH1 0x5 SLOAD DUP2 LT ISZERO PUSH2 0x1B19 JUMPI DUP2 PUSH1 0x1 PUSH1 0x1 PUSH1 0xA0 SHL SUB AND PUSH1 0x5 DUP3 DUP2 SLOAD DUP2 LT PUSH2 0x1A9B JUMPI PUSH2 0x1A9B PUSH2 0x2510 JUMP JUMPDEST PUSH1 0x0 SWAP2 DUP3 MSTORE PUSH1 0x20 SWAP1 SWAP2 KECCAK256 PUSH1 0x5 SWAP1 SWAP2 MUL ADD SLOAD PUSH1 0x1 PUSH1 0x1 PUSH1 0xA0 SHL SUB AND SUB PUSH2 0x1B07 JUMPI PUSH1 0x0 PUSH2 0x1AE9 PUSH1 0x5 DUP4 DUP2 SLOAD DUP2 LT PUSH2 0x1AD2 JUMPI PUSH2 0x1AD2 PUSH2 0x2510 JUMP JUMPDEST SWAP1 PUSH1 0x0 MSTORE PUSH1 0x20 PUSH1 0x0 KECCAK256 SWAP1 PUSH1 0x5 MUL ADD PUSH1 0x4 ADD DUP6 PUSH2 0x1FBB JUMP JUMPDEST SWAP1 POP PUSH2 0x1B01 PUSH1 0x5 DUP4 DUP2 SLOAD DUP2 LT PUSH2 0xB19 JUMPI PUSH2 0xB19 PUSH2 0x2510 JUMP JUMPDEST POP PUSH2 0x1B19 JUMP JUMPDEST DUP1 PUSH2 0x1B11 DUP2 PUSH2 0x2526 JUMP JUMPDEST SWAP2 POP POP PUSH2 0x1A74 JUMP JUMPDEST POP POP PUSH1 0x0 SWAP1 DUP2 MSTORE PUSH1 0x9 PUSH1 0x20 MSTORE PUSH1 0x40 SWAP1 KECCAK256 DUP1 SLOAD PUSH1 0x1 PUSH1 0x1 PUSH1 0xA0 SHL SUB NOT AND SWAP1 SSTORE JUMP JUMPDEST PUSH2 0x1B41 PUSH2 0x1F61 JUMP JUMPDEST PUSH1 0x0 DUP2 GT PUSH2 0x1B8C JUMPI PUSH1 0x40 MLOAD PUSH3 0x461BCD PUSH1 0xE5 SHL DUP2 MSTORE PUSH1 0x20 PUSH1 0x4 DUP3 ADD MSTORE PUSH1 0x18 PUSH1 0x24 DUP3 ADD MSTORE PUSH24 0x20B6B7BAB73A1036BAB9BA103132903837B9B4BA34BB3297 PUSH1 0x41 SHL PUSH1 0x44 DUP3 ADD MSTORE PUSH1 0x64 ADD PUSH2 0x61B JUMP JUMPDEST PUSH2 0x1B94 PUSH2 0x783 JUMP JUMPDEST DUP2 GT ISZERO PUSH2 0x1BE3 JUMPI PUSH1 0x40 MLOAD PUSH3 0x461BCD PUSH1 0xE5 SHL DUP2 MSTORE PUSH1 0x20 PUSH1 0x4 DUP3 ADD MSTORE PUSH1 0x18 PUSH1 0x24 DUP3 ADD MSTORE PUSH32 0x4E6F7420656E6F75676820555344432062616C616E63652E0000000000000000 PUSH1 0x44 DUP3 ADD MSTORE PUSH1 0x64 ADD PUSH2 0x61B JUMP JUMPDEST PUSH1 0xA SLOAD PUSH1 0x40 MLOAD PUSH4 0xA9059CBB PUSH1 0xE0 SHL DUP2 MSTORE CALLER PUSH1 0x4 DUP3 ADD MSTORE PUSH1 0x24 DUP2 ADD DUP4 SWAP1 MSTORE PUSH1 0x1 PUSH1 0x1 PUSH1 0xA0 SHL SUB SWAP1 SWAP2 AND SWAP1 PUSH4 0xA9059CBB SWAP1 PUSH1 0x44 ADD PUSH1 0x20 PUSH1 0x40 MLOAD DUP1 DUP4 SUB DUP2 PUSH1 0x0 DUP8 GAS CALL ISZERO DUP1 ISZERO PUSH2 0x1C34 JUMPI RETURNDATASIZE PUSH1 0x0 DUP1 RETURNDATACOPY RETURNDATASIZE PUSH1 0x0 REVERT JUMPDEST POP POP POP POP PUSH1 0x40 MLOAD RETURNDATASIZE PUSH1 0x1F NOT PUSH1 0x1F DUP3 ADD AND DUP3 ADD DUP1 PUSH1 0x40 MSTORE POP DUP2 ADD SWAP1 PUSH2 0x1C58 SWAP2 SWAP1 PUSH2 0x2670 JUMP JUMPDEST PUSH2 0x1CD8 JUMPI PUSH1 0x40 MLOAD PUSH3 0x461BCD PUSH1 0xE5 SHL DUP2 MSTORE PUSH1 0x20 PUSH1 0x4 DUP3 ADD MSTORE PUSH1 0x45 PUSH1 0x24 DUP3 ADD MSTORE PUSH32 0x4572726F72207768696C65207472616E7366657272696E672055534443206672 PUSH1 0x44 DUP3 ADD MSTORE PUSH32 0x6F6D2074686520636F6E747261637420746F207468652061646D696E69737472 PUSH1 0x64 DUP3 ADD MSTORE PUSH5 0x30BA37B917 PUSH1 0xD9 SHL PUSH1 0x84 DUP3 ADD MSTORE PUSH1 0xA4 ADD PUSH2 0x61B JUMP JUMPDEST POP JUMP JUMPDEST PUSH2 0x1CE3 PUSH2 0x1F61 JUMP JUMPDEST PUSH1 0x3 SSTORE JUMP JUMPDEST PUSH2 0x1CF0 PUSH2 0x1F61 JUMP JUMPDEST PUSH1 0x6 SLOAD DUP3 SWAP1 DUP3 SWAP1 DUP3 LT PUSH2 0x1D15 JUMPI PUSH1 0x40 MLOAD PUSH3 0x461BCD PUSH1 0xE5 SHL DUP2 MSTORE PUSH1 0x4 ADD PUSH2 0x61B SWAP1 PUSH2 0x2558 JUMP JUMPDEST DUP1 PUSH1 0x1 PUSH1 0x1 PUSH1 0xA0 SHL SUB AND PUSH1 0x6 DUP4 DUP2 SLOAD DUP2 LT PUSH2 0x1D32 JUMPI PUSH2 0x1D32 PUSH2 0x2510 JUMP JUMPDEST PUSH1 0x0 SWAP2 DUP3 MSTORE PUSH1 0x20 SWAP1 SWAP2 KECCAK256 ADD SLOAD PUSH1 0x1 PUSH1 0x1 PUSH1 0xA0 SHL SUB AND EQ PUSH2 0x1D64 JUMPI PUSH1 0x40 MLOAD PUSH3 0x461BCD PUSH1 0xE5 SHL DUP2 MSTORE PUSH1 0x4 ADD PUSH2 0x61B SWAP1 PUSH2 0x25B5 JUMP JUMPDEST PUSH2 0x1D6D DUP5 PUSH2 0x2183 JUMP JUMPDEST PUSH1 0x6 SLOAD PUSH1 0x5 SLOAD PUSH1 0x40 DUP1 MLOAD PUSH1 0x60 DUP1 DUP3 MSTORE PUSH1 0x33 SWAP1 DUP3 ADD MSTORE PUSH32 0x41646D696E6973747261746F722072656A656374732075736572277320726571 PUSH1 0x80 DUP3 ADD MSTORE PUSH19 0x3AB2B9BA103A379031329030B7103432B4B917 PUSH1 0x69 SHL PUSH1 0xA0 DUP3 ADD MSTORE PUSH1 0x20 DUP2 ADD SWAP4 SWAP1 SWAP4 MSTORE DUP3 ADD MSTORE PUSH1 0x1 PUSH1 0x1 PUSH1 0xA0 SHL SUB DUP5 AND SWAP1 PUSH32 0x5541B3BB46C30EE5AEA95B57D7A1D3949DA67BA8E09C865DA2318F2FB273857 SWAP1 PUSH1 0xC0 ADD PUSH1 0x40 MLOAD DUP1 SWAP2 SUB SWAP1 LOG2 POP POP POP POP JUMP JUMPDEST PUSH2 0x1E15 PUSH2 0x1F61 JUMP JUMPDEST PUSH1 0x1 PUSH1 0x1 PUSH1 0xA0 SHL SUB DUP2 AND PUSH2 0x1E7A JUMPI PUSH1 0x40 MLOAD PUSH3 0x461BCD PUSH1 0xE5 SHL DUP2 MSTORE PUSH1 0x20 PUSH1 0x4 DUP3 ADD MSTORE PUSH1 0x26 PUSH1 0x24 DUP3 ADD MSTORE PUSH32 0x4F776E61626C653A206E6577206F776E657220697320746865207A65726F2061 PUSH1 0x44 DUP3 ADD MSTORE PUSH6 0x646472657373 PUSH1 0xD0 SHL PUSH1 0x64 DUP3 ADD MSTORE PUSH1 0x84 ADD PUSH2 0x61B JUMP JUMPDEST PUSH2 0x1CD8 DUP2 PUSH2 0x2133 JUMP JUMPDEST PUSH1 0x5 SLOAD PUSH1 0x60 SWAP1 PUSH1 0x0 SWAP1 PUSH8 0xFFFFFFFFFFFFFFFF DUP2 GT ISZERO PUSH2 0x1EA4 JUMPI PUSH2 0x1EA4 PUSH2 0x2692 JUMP JUMPDEST PUSH1 0x40 MLOAD SWAP1 DUP1 DUP3 MSTORE DUP1 PUSH1 0x20 MUL PUSH1 0x20 ADD DUP3 ADD PUSH1 0x40 MSTORE DUP1 ISZERO PUSH2 0x1ECD JUMPI DUP2 PUSH1 0x20 ADD PUSH1 0x20 DUP3 MUL DUP1 CALLDATASIZE DUP4 CALLDATACOPY ADD SWAP1 POP JUMPDEST POP SWAP1 POP PUSH1 0x0 DUP1 JUMPDEST PUSH1 0x5 SLOAD DUP2 LT ISZERO PUSH2 0x1F59 JUMPI PUSH1 0x5 DUP2 DUP2 SLOAD DUP2 LT PUSH2 0x1EF1 JUMPI PUSH2 0x1EF1 PUSH2 0x2510 JUMP JUMPDEST PUSH1 0x0 SWAP2 DUP3 MSTORE PUSH1 0x20 SWAP1 SWAP2 KECCAK256 PUSH1 0x5 SWAP1 SWAP2 MUL ADD SLOAD DUP4 MLOAD PUSH1 0x1 PUSH1 0x1 PUSH1 0xA0 SHL SUB SWAP1 SWAP2 AND SWAP1 DUP5 SWAP1 DUP5 SWAP1 DUP2 LT PUSH2 0x1F22 JUMPI PUSH2 0x1F22 PUSH2 0x2510 JUMP JUMPDEST PUSH1 0x1 PUSH1 0x1 PUSH1 0xA0 SHL SUB SWAP1 SWAP3 AND PUSH1 0x20 SWAP3 DUP4 MUL SWAP2 SWAP1 SWAP2 ADD SWAP1 SWAP2 ADD MSTORE PUSH2 0x1F45 PUSH1 0x1 DUP4 PUSH2 0x2624 JUMP JUMPDEST SWAP2 POP DUP1 PUSH2 0x1F51 DUP2 PUSH2 0x2526 JUMP JUMPDEST SWAP2 POP POP PUSH2 0x1ED4 JUMP JUMPDEST POP SWAP1 SWAP3 SWAP2 POP POP JUMP JUMPDEST PUSH1 0x0 SLOAD PUSH1 0x1 PUSH1 0x1 PUSH1 0xA0 SHL SUB AND CALLER EQ PUSH2 0xECE JUMPI PUSH1 0x40 MLOAD PUSH3 0x461BCD PUSH1 0xE5 SHL DUP2 MSTORE PUSH1 0x20 PUSH1 0x4 DUP3 ADD DUP2 SWAP1 MSTORE PUSH1 0x24 DUP3 ADD MSTORE PUSH32 0x4F776E61626C653A2063616C6C6572206973206E6F7420746865206F776E6572 PUSH1 0x44 DUP3 ADD MSTORE PUSH1 0x64 ADD PUSH2 0x61B JUMP JUMPDEST PUSH1 0x0 DUP1 JUMPDEST DUP4 SLOAD DUP2 LT ISZERO PUSH2 0x2004 JUMPI DUP3 DUP5 DUP3 DUP2 SLOAD DUP2 LT PUSH2 0x1FDB JUMPI PUSH2 0x1FDB PUSH2 0x2510 JUMP JUMPDEST SWAP1 PUSH1 0x0 MSTORE PUSH1 0x20 PUSH1 0x0 KECCAK256 ADD SLOAD SUB PUSH2 0x1FF2 JUMPI SWAP1 POP PUSH2 0x204D JUMP JUMPDEST DUP1 PUSH2 0x1FFC DUP2 PUSH2 0x2526 JUMP JUMPDEST SWAP2 POP POP PUSH2 0x1FBF JUMP JUMPDEST POP PUSH1 0x40 MLOAD PUSH3 0x461BCD PUSH1 0xE5 SHL DUP2 MSTORE PUSH1 0x20 PUSH1 0x4 DUP3 ADD MSTORE PUSH1 0x19 PUSH1 0x24 DUP3 ADD MSTORE PUSH32 0x546F6B656E206E6F7420666F756E6420696E2061727261792E00000000000000 PUSH1 0x44 DUP3 ADD MSTORE PUSH1 0x64 ADD PUSH2 0x61B JUMP JUMPDEST SWAP3 SWAP2 POP POP JUMP JUMPDEST DUP2 SLOAD DUP2 LT PUSH2 0x209A JUMPI PUSH1 0x40 MLOAD PUSH3 0x461BCD PUSH1 0xE5 SHL DUP2 MSTORE PUSH1 0x20 PUSH1 0x4 DUP3 ADD MSTORE PUSH1 0x14 PUSH1 0x24 DUP3 ADD MSTORE PUSH20 0x24B73232BC1037BABA1037B3103137BAB7323997 PUSH1 0x61 SHL PUSH1 0x44 DUP3 ADD MSTORE PUSH1 0x64 ADD PUSH2 0x61B JUMP JUMPDEST DUP1 JUMPDEST DUP3 SLOAD PUSH2 0x20AA SWAP1 PUSH1 0x1 SWAP1 PUSH2 0x24FD JUMP JUMPDEST DUP2 LT ISZERO PUSH2 0x2108 JUMPI DUP3 PUSH2 0x20BD DUP3 PUSH1 0x1 PUSH2 0x2624 JUMP JUMPDEST DUP2 SLOAD DUP2 LT PUSH2 0x20CD JUMPI PUSH2 0x20CD PUSH2 0x2510 JUMP JUMPDEST SWAP1 PUSH1 0x0 MSTORE PUSH1 0x20 PUSH1 0x0 KECCAK256 ADD SLOAD DUP4 DUP3 DUP2 SLOAD DUP2 LT PUSH2 0x20EA JUMPI PUSH2 0x20EA PUSH2 0x2510 JUMP JUMPDEST PUSH1 0x0 SWAP2 DUP3 MSTORE PUSH1 0x20 SWAP1 SWAP2 KECCAK256 ADD SSTORE DUP1 PUSH2 0x2100 DUP2 PUSH2 0x2526 JUMP JUMPDEST SWAP2 POP POP PUSH2 0x209C JUMP JUMPDEST POP DUP2 DUP1 SLOAD DUP1 PUSH2 0x2119 JUMPI PUSH2 0x2119 PUSH2 0x26A8 JUMP JUMPDEST PUSH1 0x1 SWAP1 SUB DUP2 DUP2 SWAP1 PUSH1 0x0 MSTORE PUSH1 0x20 PUSH1 0x0 KECCAK256 ADD PUSH1 0x0 SWAP1 SSTORE SWAP1 SSTORE POP POP JUMP JUMPDEST PUSH1 0x0 DUP1 SLOAD PUSH1 0x1 PUSH1 0x1 PUSH1 0xA0 SHL SUB DUP4 DUP2 AND PUSH1 0x1 PUSH1 0x1 PUSH1 0xA0 SHL SUB NOT DUP4 AND DUP2 OR DUP5 SSTORE PUSH1 0x40 MLOAD SWAP2 SWAP1 SWAP3 AND SWAP3 DUP4 SWAP2 PUSH32 0x8BE0079C531659141344CD1FD0A4F28419497F9722A3DAAFE3B4186F6B6457E0 SWAP2 SWAP1 LOG3 POP POP JUMP JUMPDEST PUSH1 0x6 SLOAD DUP2 LT PUSH2 0x21A4 JUMPI PUSH1 0x40 MLOAD PUSH3 0x461BCD PUSH1 0xE5 SHL DUP2 MSTORE PUSH1 0x4 ADD PUSH2 0x61B SWAP1 PUSH2 0x2558 JUMP JUMPDEST DUP1 JUMPDEST PUSH1 0x6 SLOAD PUSH2 0x21B5 SWAP1 PUSH1 0x1 SWAP1 PUSH2 0x24FD JUMP JUMPDEST DUP2 LT ISZERO PUSH2 0x2240 JUMPI PUSH1 0x6 PUSH2 0x21C9 DUP3 PUSH1 0x1 PUSH2 0x2624 JUMP JUMPDEST DUP2 SLOAD DUP2 LT PUSH2 0x21D9 JUMPI PUSH2 0x21D9 PUSH2 0x2510 JUMP JUMPDEST PUSH1 0x0 SWAP2 DUP3 MSTORE PUSH1 0x20 SWAP1 SWAP2 KECCAK256 ADD SLOAD PUSH1 0x6 DUP1 SLOAD PUSH1 0x1 PUSH1 0x1 PUSH1 0xA0 SHL SUB SWAP1 SWAP3 AND SWAP2 DUP4 SWAP1 DUP2 LT PUSH2 0x2205 JUMPI PUSH2 0x2205 PUSH2 0x2510 JUMP JUMPDEST PUSH1 0x0 SWAP2 DUP3 MSTORE PUSH1 0x20 SWAP1 SWAP2 KECCAK256 ADD DUP1 SLOAD PUSH1 0x1 PUSH1 0x1 PUSH1 0xA0 SHL SUB NOT AND PUSH1 0x1 PUSH1 0x1 PUSH1 0xA0 SHL SUB SWAP3 SWAP1 SWAP3 AND SWAP2 SWAP1 SWAP2 OR SWAP1 SSTORE DUP1 PUSH2 0x2238 DUP2 PUSH2 0x2526 JUMP JUMPDEST SWAP2 POP POP PUSH2 0x21A6 JUMP JUMPDEST POP PUSH1 0x6 DUP1 SLOAD DUP1 PUSH2 0x2252 JUMPI PUSH2 0x2252 PUSH2 0x26A8 JUMP JUMPDEST PUSH1 0x0 DUP3 DUP2 MSTORE PUSH1 0x20 SWAP1 KECCAK256 DUP2 ADD PUSH1 0x0 NOT SWAP1 DUP2 ADD DUP1 SLOAD PUSH1 0x1 PUSH1 0x1 PUSH1 0xA0 SHL SUB NOT AND SWAP1 SSTORE ADD SWAP1 SSTORE POP JUMP JUMPDEST DUP3 DUP1 SLOAD DUP3 DUP3 SSTORE SWAP1 PUSH1 0x0 MSTORE PUSH1 0x20 PUSH1 0x0 KECCAK256 SWAP1 DUP2 ADD SWAP3 DUP3 ISZERO PUSH2 0x22B2 JUMPI SWAP2 PUSH1 0x20 MUL DUP3 ADD JUMPDEST DUP3 DUP2 GT ISZERO PUSH2 0x22B2 JUMPI DUP3 MLOAD DUP3 SSTORE SWAP2 PUSH1 0x20 ADD SWAP2 SWAP1 PUSH1 0x1 ADD SWAP1 PUSH2 0x2297 JUMP JUMPDEST POP PUSH2 0x22BE SWAP3 SWAP2 POP PUSH2 0x22C2 JUMP JUMPDEST POP SWAP1 JUMP JUMPDEST JUMPDEST DUP1 DUP3 GT ISZERO PUSH2 0x22BE JUMPI PUSH1 0x0 DUP2 SSTORE PUSH1 0x1 ADD PUSH2 0x22C3 JUMP JUMPDEST PUSH1 0x20 DUP1 DUP3 MSTORE DUP3 MLOAD DUP3 DUP3 ADD DUP2 SWAP1 MSTORE PUSH1 0x0 SWAP2 SWAP1 DUP5 DUP3 ADD SWAP1 PUSH1 0x40 DUP6 ADD SWAP1 DUP5 JUMPDEST DUP2 DUP2 LT ISZERO PUSH2 0x2318 JUMPI DUP4 MLOAD PUSH1 0x1 PUSH1 0x1 PUSH1 0xA0 SHL SUB AND DUP4 MSTORE SWAP3 DUP5 ADD SWAP3 SWAP2 DUP5 ADD SWAP2 PUSH1 0x1 ADD PUSH2 0x22F3 JUMP JUMPDEST POP SWAP1 SWAP7 SWAP6 POP POP POP POP POP POP JUMP JUMPDEST PUSH1 0x0 PUSH1 0x20 DUP3 DUP5 SUB SLT ISZERO PUSH2 0x2336 JUMPI PUSH1 0x0 DUP1 REVERT JUMPDEST POP CALLDATALOAD SWAP2 SWAP1 POP JUMP JUMPDEST DUP1 CALLDATALOAD PUSH1 0x1 PUSH1 0x1 PUSH1 0xA0 SHL SUB DUP2 AND DUP2 EQ PUSH2 0x97E JUMPI PUSH1 0x0 DUP1 REVERT JUMPDEST PUSH1 0x0 PUSH1 0x20 DUP3 DUP5 SUB SLT ISZERO PUSH2 0x2366 JUMPI PUSH1 0x0 DUP1 REVERT JUMPDEST PUSH2 0x236F DUP3 PUSH2 0x233D JUMP JUMPDEST SWAP4 SWAP3 POP POP POP JUMP JUMPDEST PUSH1 0x0 DUP2 MLOAD DUP1 DUP5 MSTORE PUSH1 0x20 DUP1 DUP6 ADD SWAP5 POP DUP1 DUP5 ADD PUSH1 0x0 JUMPDEST DUP4 DUP2 LT ISZERO PUSH2 0x23A6 JUMPI DUP2 MLOAD DUP8 MSTORE SWAP6 DUP3 ADD SWAP6 SWAP1 DUP3 ADD SWAP1 PUSH1 0x1 ADD PUSH2 0x238A JUMP JUMPDEST POP SWAP5 SWAP6 SWAP5 POP POP POP POP POP JUMP JUMPDEST PUSH1 0x20 DUP2 MSTORE PUSH1 0x0 PUSH2 0x236F PUSH1 0x20 DUP4 ADD DUP5 PUSH2 0x2376 JUMP JUMPDEST PUSH1 0x1 DUP1 PUSH1 0xA0 SHL SUB DUP2 MLOAD AND DUP3 MSTORE PUSH1 0x20 DUP2 ADD MLOAD PUSH1 0x20 DUP4 ADD MSTORE PUSH1 0x40 DUP2 ADD MLOAD PUSH1 0x40 DUP4 ADD MSTORE PUSH1 0x60 DUP2 ADD MLOAD PUSH1 0x60 DUP4 ADD MSTORE PUSH1 0x0 PUSH1 0x80 DUP3 ADD MLOAD PUSH1 0xA0 PUSH1 0x80 DUP6 ADD MSTORE PUSH2 0x2409 PUSH1 0xA0 DUP6 ADD DUP3 PUSH2 0x2376 JUMP JUMPDEST SWAP5 SWAP4 POP POP POP POP JUMP JUMPDEST PUSH1 0x20 DUP2 MSTORE PUSH1 0x0 PUSH2 0x236F PUSH1 0x20 DUP4 ADD DUP5 PUSH2 0x23C4 JUMP JUMPDEST PUSH1 0x0 PUSH1 0x20 DUP1 DUP4 ADD DUP2 DUP5 MSTORE DUP1 DUP6 MLOAD DUP1 DUP4 MSTORE PUSH1 0x40 DUP7 ADD SWAP2 POP PUSH1 0x40 DUP2 PUSH1 0x5 SHL DUP8 ADD ADD SWAP3 POP DUP4 DUP8 ADD PUSH1 0x0 JUMPDEST DUP3 DUP2 LT ISZERO PUSH2 0x2479 JUMPI PUSH1 0x3F NOT DUP9 DUP7 SUB ADD DUP5 MSTORE PUSH2 0x2467 DUP6 DUP4 MLOAD PUSH2 0x23C4 JUMP JUMPDEST SWAP5 POP SWAP3 DUP6 ADD SWAP3 SWAP1 DUP6 ADD SWAP1 PUSH1 0x1 ADD PUSH2 0x244B JUMP JUMPDEST POP SWAP3 SWAP8 SWAP7 POP POP POP POP POP POP POP JUMP JUMPDEST PUSH1 0x0 DUP1 PUSH1 0x40 DUP4 DUP6 SUB SLT ISZERO PUSH2 0x2499 JUMPI PUSH1 0x0 DUP1 REVERT JUMPDEST DUP3 CALLDATALOAD SWAP2 POP PUSH2 0x24A9 PUSH1 0x20 DUP5 ADD PUSH2 0x233D JUMP JUMPDEST SWAP1 POP SWAP3 POP SWAP3 SWAP1 POP JUMP JUMPDEST PUSH1 0x0 DUP1 PUSH1 0x0 PUSH1 0x60 DUP5 DUP7 SUB SLT ISZERO PUSH2 0x24C7 JUMPI PUSH1 0x0 DUP1 REVERT JUMPDEST DUP4 CALLDATALOAD SWAP3 POP PUSH2 0x24D7 PUSH1 0x20 DUP6 ADD PUSH2 0x233D JUMP JUMPDEST SWAP2 POP PUSH1 0x40 DUP5 ADD CALLDATALOAD SWAP1 POP SWAP3 POP SWAP3 POP SWAP3 JUMP JUMPDEST PUSH4 0x4E487B71 PUSH1 0xE0 SHL PUSH1 0x0 MSTORE PUSH1 0x11 PUSH1 0x4 MSTORE PUSH1 0x24 PUSH1 0x0 REVERT JUMPDEST DUP2 DUP2 SUB DUP2 DUP2 GT ISZERO PUSH2 0x204D JUMPI PUSH2 0x204D PUSH2 0x24E7 JUMP JUMPDEST PUSH4 0x4E487B71 PUSH1 0xE0 SHL PUSH1 0x0 MSTORE PUSH1 0x32 PUSH1 0x4 MSTORE PUSH1 0x24 PUSH1 0x0 REVERT JUMPDEST PUSH1 0x0 PUSH1 0x1 DUP3 ADD PUSH2 0x2538 JUMPI PUSH2 0x2538 PUSH2 0x24E7 JUMP JUMPDEST POP PUSH1 0x1 ADD SWAP1 JUMP JUMPDEST PUSH1 0x0 PUSH1 0x20 DUP3 DUP5 SUB SLT ISZERO PUSH2 0x2551 JUMPI PUSH1 0x0 DUP1 REVERT JUMPDEST POP MLOAD SWAP2 SWAP1 POP JUMP JUMPDEST PUSH1 0x20 DUP1 DUP3 MSTORE PUSH1 0x38 SWAP1 DUP3 ADD MSTORE PUSH32 0x54686520696E6465782073656E7420697320626967676572207468616E207468 PUSH1 0x40 DUP3 ADD MSTORE PUSH32 0x65207265717565737473206172726179206C656E6774682E0000000000000000 PUSH1 0x60 DUP3 ADD MSTORE PUSH1 0x80 ADD SWAP1 JUMP JUMPDEST PUSH1 0x20 DUP1 DUP3 MSTORE PUSH1 0x49 SWAP1 DUP3 ADD MSTORE PUSH32 0x416464726573732073656E7420646F65736E2774206D61746368207769746820 PUSH1 0x40 DUP3 ADD MSTORE PUSH32 0x74686520616464726573732073746F72656420696E2074686520726571756573 PUSH1 0x60 DUP3 ADD MSTORE PUSH9 0x3A399030B93930BC97 PUSH1 0xB9 SHL PUSH1 0x80 DUP3 ADD MSTORE PUSH1 0xA0 ADD SWAP1 JUMP JUMPDEST DUP1 DUP3 ADD DUP1 DUP3 GT ISZERO PUSH2 0x204D JUMPI PUSH2 0x204D PUSH2 0x24E7 JUMP JUMPDEST DUP1 DUP3 MUL DUP2 ISZERO DUP3 DUP3 DIV DUP5 EQ OR PUSH2 0x204D JUMPI PUSH2 0x204D PUSH2 0x24E7 JUMP JUMPDEST PUSH1 0x0 DUP3 PUSH2 0x266B JUMPI PUSH4 0x4E487B71 PUSH1 0xE0 SHL PUSH1 0x0 MSTORE PUSH1 0x12 PUSH1 0x4 MSTORE PUSH1 0x24 PUSH1 0x0 REVERT JUMPDEST POP DIV SWAP1 JUMP JUMPDEST PUSH1 0x0 PUSH1 0x20 DUP3 DUP5 SUB SLT ISZERO PUSH2 0x2682 JUMPI PUSH1 0x0 DUP1 REVERT JUMPDEST DUP2 MLOAD DUP1 ISZERO ISZERO DUP2 EQ PUSH2 0x236F JUMPI PUSH1 0x0 DUP1 REVERT JUMPDEST PUSH4 0x4E487B71 PUSH1 0xE0 SHL PUSH1 0x0 MSTORE PUSH1 0x41 PUSH1 0x4 MSTORE PUSH1 0x24 PUSH1 0x0 REVERT JUMPDEST PUSH4 0x4E487B71 PUSH1 0xE0 SHL PUSH1 0x0 MSTORE PUSH1 0x31 PUSH1 0x4 MSTORE PUSH1 0x24 PUSH1 0x0 REVERT INVALID LOG2 PUSH5 0x6970667358 0x22 SLT KECCAK256 INVALID PUSH16 0x1810F7F07828546242D203FD9EBA4A2E 0x5D PUSH30 0xD0EEECAF09660EB8BD3C9EE664736F6C6343000813003300000000000000 "},"gasEstimates":{"creation":{"codeDepositCost":"1994400","executionCost":"infinite","totalCost":"infinite"},"external":{"acceptInheritanceRequest(uint256,address,uint256)":"infinite","addNFTDeed(uint256,address)":"infinite","administrator()":"4555","claimInheritance()":"infinite","deposit()":"5296","getAliveTimeOut()":"4566","getEtherBalance()":"238","getHeirByAddress(address)":"infinite","getHeirs()":"infinite","getHeirsAddresses()":"infinite","getInheritanceRequests()":"infinite","getIsInheritanceClaimed()":"2404","getLastAlive()":"4567","getNFTDeedsByHeirAddress(address)":"infinite","getTotalShares()":"infinite","getUSDCBalance()":"infinite","isAdministratorDead()":"4546","nftHeirs(uint256)":"2545","owner()":"2377","rejectInheritanceRequest(uint256,address)":"infinite","removeNFTDeed(uint256)":"infinite","renounceOwnership()":"infinite","requestInheritance(address)":"infinite","signalAlive()":"29666","transferOwnership(address)":"28399","updateAliveTimeOut(uint256)":"24555","withdraw(uint256)":"infinite","withdrawUSDC(uint256)":"infinite"},"internal":{"indexOfToken(uint256[] storage pointer,uint256)":"infinite","removeRequest(uint256)":"infinite","removeTokenAtIndex(uint256[] storage pointer,uint256)":"infinite"}},"methodIdentifiers":{"acceptInheritanceRequest(uint256,address,uint256)":"7c1d3a01","addNFTDeed(uint256,address)":"59e82bd7","administrator()":"f53d0a8e","claimInheritance()":"9f3c4416","deposit()":"d0e30db0","getAliveTimeOut()":"a37fc5cf","getEtherBalance()":"ea46193e","getHeirByAddress(address)":"4da2f2f9","getHeirs()":"4eae51f4","getHeirsAddresses()":"ffc15b7c","getInheritanceRequests()":"064ac578","getIsInheritanceClaimed()":"7ef665e9","getLastAlive()":"25cfecbe","getNFTDeedsByHeirAddress(address)":"35d6f873","getTotalShares()":"d5002f2e","getUSDCBalance()":"3cfd1ccc","isAdministratorDead()":"051ea68f","nftHeirs(uint256)":"4f3b972d","owner()":"8da5cb5b","rejectInheritanceRequest(uint256,address)":"e92df2b0","removeNFTDeed(uint256)":"daa67756","renounceOwnership()":"715018a6","requestInheritance(address)":"66416dd3","signalAlive()":"c1b640db","transferOwnership(address)":"f2fde38b","updateAliveTimeOut(uint256)":"de35f376","withdraw(uint256)":"2e1a7d4d","withdrawUSDC(uint256)":"db81f99b"}},"storageLayout":{"storage":[{"astId":2208,"contract":"Inheritance.sol:Inheritance","label":"_owner","offset":0,"slot":"0","type":"t_address"},{"astId":582,"contract":"Inheritance.sol:Inheritance","label":"administrator","offset":0,"slot":"1","type":"t_struct(Administrator)567_storage"},{"astId":584,"contract":"Inheritance.sol:Inheritance","label":"aliveTimeOut","offset":0,"slot":"3","type":"t_uint256"},{"astId":586,"contract":"Inheritance.sol:Inheritance","label":"isInheritanceClaimed","offset":0,"slot":"4","type":"t_bool"},{"astId":590,"contract":"Inheritance.sol:Inheritance","label":"heirs","offset":0,"slot":"5","type":"t_array(t_struct(Heir)579_storage)dyn_storage"},{"astId":593,"contract":"Inheritance.sol:Inheritance","label":"inheritanceRequests","offset":0,"slot":"6","type":"t_array(t_address)dyn_storage"},{"astId":597,"contract":"Inheritance.sol:Inheritance","label":"heirsUSDC","offset":0,"slot":"7","type":"t_mapping(t_address,t_uint256)"},{"astId":601,"contract":"Inheritance.sol:Inheritance","label":"heirsEther","offset":0,"slot":"8","type":"t_mapping(t_address,t_uint256)"},{"astId":605,"contract":"Inheritance.sol:Inheritance","label":"nftHeirs","offset":0,"slot":"9","type":"t_mapping(t_uint256,t_address)"},{"astId":608,"contract":"Inheritance.sol:Inheritance","label":"token","offset":0,"slot":"10","type":"t_contract(IERC20)2391"}],"types":{"t_address":{"encoding":"inplace","label":"address","numberOfBytes":"20"},"t_array(t_address)dyn_storage":{"base":"t_address","encoding":"dynamic_array","label":"address[]","numberOfBytes":"32"},"t_array(t_struct(Heir)579_storage)dyn_storage":{"base":"t_struct(Heir)579_storage","encoding":"dynamic_array","label":"struct Inheritance.Heir[]","numberOfBytes":"32"},"t_array(t_uint256)dyn_storage":{"base":"t_uint256","encoding":"dynamic_array","label":"uint256[]","numberOfBytes":"32"},"t_bool":{"encoding":"inplace","label":"bool","numberOfBytes":"1"},"t_contract(IERC20)2391":{"encoding":"inplace","label":"contract IERC20","numberOfBytes":"20"},"t_mapping(t_address,t_uint256)":{"encoding":"mapping","key":"t_address","label":"mapping(address => uint256)","numberOfBytes":"32","value":"t_uint256"},"t_mapping(t_uint256,t_address)":{"encoding":"mapping","key":"t_uint256","label":"mapping(uint256 => address)","numberOfBytes":"32","value":"t_address"},"t_struct(Administrator)567_storage":{"encoding":"inplace","label":"struct Inheritance.Administrator","members":[{"astId":564,"contract":"Inheritance.sol:Inheritance","label":"administratorAddress","offset":0,"slot":"0","type":"t_address"},{"astId":566,"contract":"Inheritance.sol:Inheritance","label":"lastAlive","offset":0,"slot":"1","type":"t_uint256"}],"numberOfBytes":"64"},"t_struct(Heir)579_storage":{"encoding":"inplace","label":"struct Inheritance.Heir","members":[{"astId":569,"contract":"Inheritance.sol:Inheritance","label":"heir","offset":0,"slot":"0","type":"t_address"},{"astId":571,"contract":"Inheritance.sol:Inheritance","label":"share","offset":0,"slot":"1","type":"t_uint256"},{"astId":573,"contract":"Inheritance.sol:Inheritance","label":"etherBalance","offset":0,"slot":"2","type":"t_uint256"},{"astId":575,"contract":"Inheritance.sol:Inheritance","label":"usdcBalance","offset":0,"slot":"3","type":"t_uint256"},{"astId":578,"contract":"Inheritance.sol:Inheritance","label":"NFTDeedIds","offset":0,"slot":"4","type":"t_array(t_uint256)dyn_storage"}],"numberOfBytes":"160"},"t_uint256":{"encoding":"inplace","label":"uint256","numberOfBytes":"32"}}},"userdoc":{"kind":"user","methods":{},"version":1}}