{"abi":[{"anonymous":false,"inputs":[{"indexed":false,"internalType":"string","name":"message","type":"string"},{"indexed":true,"internalType":"address","name":"administrator","type":"address"},{"indexed":true,"internalType":"address","name":"inheritance","type":"address"},{"indexed":false,"internalType":"uint256","name":"deployedInheritancesCount","type":"uint256"}],"name":"LogInheritanceCreated","type":"event"},{"inputs":[{"internalType":"uint256","name":"aliveTimeOut","type":"uint256"},{"internalType":"address","name":"usdcTokenAddress","type":"address"}],"name":"createInheritance","outputs":[],"stateMutability":"nonpayable","type":"function"},{"inputs":[],"name":"getDeployedInheritancesCount","outputs":[{"internalType":"uint256","name":"","type":"uint256"}],"stateMutability":"view","type":"function"},{"inputs":[{"internalType":"address","name":"","type":"address"}],"name":"inheritances","outputs":[{"internalType":"address","name":"","type":"address"}],"stateMutability":"view","type":"function"},{"inputs":[],"name":"isAdmin","outputs":[{"internalType":"bool","name":"","type":"bool"}],"stateMutability":"view","type":"function"}],"devdoc":{"kind":"dev","methods":{},"version":1},"evm":{"assembly":"    /* \"Inheritance.sol\":169:1375  contract InheritanceFactory {... */\n  mstore(0x40, 0x80)\n  callvalue\n  dup1\n  iszero\n  tag_1\n  jumpi\n  0x00\n  dup1\n  revert\ntag_1:\n  pop\n  dataSize(sub_0)\n  dup1\n  dataOffset(sub_0)\n  0x00\n  codecopy\n  0x00\n  return\nstop\n\nsub_0: assembly {\n        /* \"Inheritance.sol\":169:1375  contract InheritanceFactory {... */\n      mstore(0x40, 0x80)\n      callvalue\n      dup1\n      iszero\n      tag_1\n      jumpi\n      0x00\n      dup1\n      revert\n    tag_1:\n      pop\n      jumpi(tag_2, lt(calldatasize, 0x04))\n      shr(0xe0, calldataload(0x00))\n      dup1\n      0x21b6e8f5\n      eq\n      tag_3\n      jumpi\n      dup1\n      0x6122fed5\n      eq\n      tag_4\n      jumpi\n      dup1\n      0x65a4c281\n      eq\n      tag_5\n      jumpi\n      dup1\n      0xb6db75a0\n      eq\n      tag_6\n      jumpi\n    tag_2:\n      0x00\n      dup1\n      revert\n        /* \"Inheritance.sol\":1143:1259  function getDeployedInheritancesCount() public view returns (uint) {... */\n    tag_3:\n        /* \"Inheritance.sol\":1204:1208  uint */\n      0x00\n        /* \"Inheritance.sol\":1227:1252  deployedInheritancesCount */\n      sload\n        /* \"Inheritance.sol\":1143:1259  function getDeployedInheritancesCount() public view returns (uint) {... */\n      mload(0x40)\n        /* \"#utility.yul\":160:185   */\n      swap1\n      dup2\n      mstore\n        /* \"#utility.yul\":148:150   */\n      0x20\n        /* \"#utility.yul\":133:151   */\n      add\n        /* \"Inheritance.sol\":1143:1259  function getDeployedInheritancesCount() public view returns (uint) {... */\n    tag_9:\n      mload(0x40)\n      dup1\n      swap2\n      sub\n      swap1\n      return\n        /* \"Inheritance.sol\":251:299  mapping (address => address) public inheritances */\n    tag_4:\n      tag_11\n      tag_12\n      calldatasize\n      0x04\n      tag_13\n      jump\t// in\n    tag_12:\n      mstore(0x20, 0x01)\n      0x00\n      swap1\n      dup2\n      mstore\n      0x40\n      swap1\n      keccak256\n      sload\n      sub(shl(0xa0, 0x01), 0x01)\n      and\n      dup2\n      jump\n    tag_11:\n      mload(0x40)\n      sub(shl(0xa0, 0x01), 0x01)\n        /* \"#utility.yul\":729:761   */\n      swap1\n      swap2\n      and\n        /* \"#utility.yul\":711:762   */\n      dup2\n      mstore\n        /* \"#utility.yul\":699:701   */\n      0x20\n        /* \"#utility.yul\":684:702   */\n      add\n        /* \"Inheritance.sol\":251:299  mapping (address => address) public inheritances */\n      tag_9\n        /* \"#utility.yul\":565:768   */\n      jump\n        /* \"Inheritance.sol\":514:1137  function createInheritance(uint256 aliveTimeOut, address usdcTokenAddress) public {... */\n    tag_5:\n      tag_17\n      tag_18\n      calldatasize\n      0x04\n      tag_19\n      jump\t// in\n    tag_18:\n      tag_20\n      jump\t// in\n    tag_17:\n      stop\n        /* \"Inheritance.sol\":1265:1373  function isAdmin() public view returns (bool) {... */\n    tag_6:\n        /* \"Inheritance.sol\":1341:1351  msg.sender */\n      caller\n        /* \"Inheritance.sol\":1305:1309  bool */\n      0x00\n        /* \"Inheritance.sol\":1328:1352  inheritances[msg.sender] */\n      swap1\n      dup2\n      mstore\n        /* \"Inheritance.sol\":1328:1340  inheritances */\n      0x01\n        /* \"Inheritance.sol\":1328:1352  inheritances[msg.sender] */\n      0x20\n      mstore\n      0x40\n      swap1\n      keccak256\n      sload\n      sub(shl(0xa0, 0x01), 0x01)\n      and\n        /* \"Inheritance.sol\":1328:1366  inheritances[msg.sender] != address(0) */\n      iszero\n      iszero\n        /* \"Inheritance.sol\":1265:1373  function isAdmin() public view returns (bool) {... */\n      mload(0x40)\n        /* \"#utility.yul\":1197:1211   */\n      swap1\n      iszero\n        /* \"#utility.yul\":1190:1212   */\n      iszero\n        /* \"#utility.yul\":1172:1213   */\n      dup2\n      mstore\n        /* \"#utility.yul\":1160:1162   */\n      0x20\n        /* \"#utility.yul\":1145:1163   */\n      add\n        /* \"Inheritance.sol\":1265:1373  function isAdmin() public view returns (bool) {... */\n      tag_9\n        /* \"#utility.yul\":1032:1219   */\n      jump\n        /* \"Inheritance.sol\":514:1137  function createInheritance(uint256 aliveTimeOut, address usdcTokenAddress) public {... */\n    tag_20:\n        /* \"Inheritance.sol\":627:637  msg.sender */\n      caller\n        /* \"Inheritance.sol\":650:651  0 */\n      0x00\n        /* \"Inheritance.sol\":614:638  inheritances[msg.sender] */\n      swap1\n      dup2\n      mstore\n        /* \"Inheritance.sol\":614:626  inheritances */\n      0x01\n        /* \"Inheritance.sol\":614:638  inheritances[msg.sender] */\n      0x20\n      mstore\n      0x40\n      swap1\n      keccak256\n      sload\n      sub(shl(0xa0, 0x01), 0x01)\n      and\n        /* \"Inheritance.sol\":614:652  inheritances[msg.sender] == address(0) */\n      iszero\n        /* \"Inheritance.sol\":606:718  require(inheritances[msg.sender] == address(0), \"You have already one inheritance created, you can't have two.\") */\n      tag_27\n      jumpi\n      mload(0x40)\n      shl(0xe5, 0x461bcd)\n      dup2\n      mstore\n        /* \"#utility.yul\":1426:1428   */\n      0x20\n        /* \"Inheritance.sol\":606:718  require(inheritances[msg.sender] == address(0), \"You have already one inheritance created, you can't have two.\") */\n      0x04\n      dup3\n      add\n        /* \"#utility.yul\":1408:1429   */\n      mstore\n        /* \"#utility.yul\":1465:1467   */\n      0x3d\n        /* \"#utility.yul\":1445:1463   */\n      0x24\n      dup3\n      add\n        /* \"#utility.yul\":1438:1468   */\n      mstore\n        /* \"#utility.yul\":1504:1538   */\n      0x596f75206861766520616c7265616479206f6e6520696e6865726974616e6365\n        /* \"#utility.yul\":1484:1502   */\n      0x44\n      dup3\n      add\n        /* \"#utility.yul\":1477:1539   */\n      mstore\n        /* \"#utility.yul\":1575:1606   */\n      0x20637265617465642c20796f752063616e277420686176652074776f2e000000\n        /* \"#utility.yul\":1555:1573   */\n      0x64\n      dup3\n      add\n        /* \"#utility.yul\":1548:1607   */\n      mstore\n        /* \"#utility.yul\":1624:1643   */\n      0x84\n      add\n        /* \"Inheritance.sol\":606:718  require(inheritances[msg.sender] == address(0), \"You have already one inheritance created, you can't have two.\") */\n      mload(0x40)\n      dup1\n      swap2\n      sub\n      swap1\n      revert\n    tag_27:\n        /* \"Inheritance.sol\":826:836  msg.sender */\n      caller\n        /* \"Inheritance.sol\":838:850  aliveTimeOut */\n      dup3\n        /* \"Inheritance.sol\":852:868  usdcTokenAddress */\n      dup3\n        /* \"Inheritance.sol\":810:869  new Inheritance(msg.sender, aliveTimeOut, usdcTokenAddress) */\n      mload(0x40)\n      tag_30\n      swap1\n      tag_31\n      jump\t// in\n    tag_30:\n      sub(shl(0xa0, 0x01), 0x01)\n        /* \"#utility.yul\":1912:1927   */\n      swap4\n      dup5\n      and\n        /* \"#utility.yul\":1894:1928   */\n      dup2\n      mstore\n        /* \"#utility.yul\":1959:1961   */\n      0x20\n        /* \"#utility.yul\":1944:1962   */\n      dup2\n      add\n        /* \"#utility.yul\":1937:1971   */\n      swap3\n      swap1\n      swap3\n      mstore\n        /* \"#utility.yul\":2007:2022   */\n      swap1\n      swap2\n      and\n        /* \"#utility.yul\":2002:2004   */\n      0x40\n        /* \"#utility.yul\":1987:2005   */\n      dup3\n      add\n        /* \"#utility.yul\":1980:2023   */\n      mstore\n        /* \"#utility.yul\":1844:1846   */\n      0x60\n        /* \"#utility.yul\":1829:1847   */\n      add\n        /* \"Inheritance.sol\":810:869  new Inheritance(msg.sender, aliveTimeOut, usdcTokenAddress) */\n      mload(0x40)\n      dup1\n      swap2\n      sub\n      swap1\n      0x00\n      create\n      dup1\n      iszero\n      dup1\n      iszero\n      tag_34\n      jumpi\n      returndatasize\n      0x00\n      dup1\n      returndatacopy\n      revert(0x00, returndatasize)\n    tag_34:\n      pop\n        /* \"Inheritance.sol\":788:798  msg.sender */\n      caller\n        /* \"Inheritance.sol\":775:799  inheritances[msg.sender] */\n      0x00\n      swap1\n      dup2\n      mstore\n        /* \"Inheritance.sol\":775:787  inheritances */\n      0x01\n        /* \"Inheritance.sol\":775:799  inheritances[msg.sender] */\n      0x20\n      mstore\n      0x40\n      dup2\n      keccak256\n        /* \"Inheritance.sol\":775:870  inheritances[msg.sender] = address(new Inheritance(msg.sender, aliveTimeOut, usdcTokenAddress)) */\n      dup1\n      sload\n      not(sub(shl(0xa0, 0x01), 0x01))\n      and\n      sub(shl(0xa0, 0x01), 0x01)\n      swap4\n      swap1\n      swap4\n      and\n      swap3\n      swap1\n      swap3\n      or\n      swap1\n      swap2\n      sstore\n        /* \"Inheritance.sol\":880:907  deployedInheritancesCount++ */\n      dup1\n      sload\n      swap1\n        /* \"Inheritance.sol\":775:799  inheritances[msg.sender] */\n      dup1\n        /* \"Inheritance.sol\":880:907  deployedInheritancesCount++ */\n      tag_35\n      dup4\n      tag_36\n      jump\t// in\n    tag_35:\n      swap1\n      swap2\n      sstore\n      pop\n      pop\n        /* \"Inheritance.sol\":1091:1101  msg.sender */\n      caller\n        /* \"Inheritance.sol\":1078:1102  inheritances[msg.sender] */\n      0x00\n      dup2\n      dup2\n      mstore\n        /* \"Inheritance.sol\":1078:1090  inheritances */\n      0x01\n        /* \"Inheritance.sol\":1078:1102  inheritances[msg.sender] */\n      0x20\n      mstore\n      0x40\n      dup1\n      dup3\n      keccak256\n      sload\n        /* \"Inheritance.sol\":1104:1129  deployedInheritancesCount */\n      swap2\n      sload\n        /* \"Inheritance.sol\":923:1130  LogInheritanceCreated(\"Log all the values: Administrator address, Inheritance contract address, Number of inheritances deployed.\",... */\n      swap1\n      mload\n      sub(shl(0xa0, 0x01), 0x01)\n        /* \"Inheritance.sol\":1078:1102  inheritances[msg.sender] */\n      swap3\n      swap1\n      swap3\n      and\n      swap3\n        /* \"Inheritance.sol\":1091:1101  msg.sender */\n      swap2\n        /* \"Inheritance.sol\":923:1130  LogInheritanceCreated(\"Log all the values: Administrator address, Inheritance contract address, Number of inheritances deployed.\",... */\n      0x246b027e5b424dae3d402e972e3f8e400056fe836431cbe048d9553826bb2e11\n      swap2\n      tag_37\n      swap2\n        /* \"#utility.yul\":2501:2503   */\n      0x40\n        /* \"#utility.yul\":2483:2504   */\n      dup1\n      dup3\n      mstore\n        /* \"#utility.yul\":2540:2543   */\n      0x69\n        /* \"#utility.yul\":2520:2538   */\n      swap1\n      dup3\n      add\n        /* \"#utility.yul\":2513:2544   */\n      mstore\n        /* \"#utility.yul\":2580:2614   */\n      0x4c6f6720616c6c207468652076616c7565733a2041646d696e6973747261746f\n        /* \"#utility.yul\":2575:2577   */\n      0x60\n        /* \"#utility.yul\":2560:2578   */\n      dup3\n      add\n        /* \"#utility.yul\":2553:2615   */\n      mstore\n        /* \"#utility.yul\":2652:2686   */\n      0x7220616464726573732c20496e6865726974616e636520636f6e747261637420\n        /* \"#utility.yul\":2646:2649   */\n      0x80\n        /* \"#utility.yul\":2631:2650   */\n      dup3\n      add\n        /* \"#utility.yul\":2624:2687   */\n      mstore\n        /* \"#utility.yul\":2724:2758   */\n      0x616464726573732c204e756d626572206f6620696e6865726974616e63657320\n        /* \"#utility.yul\":2718:2721   */\n      0xa0\n        /* \"#utility.yul\":2703:2722   */\n      dup3\n      add\n        /* \"#utility.yul\":2696:2759   */\n      mstore\n      shl(0xb9, 0x3232b83637bcb2b217)\n        /* \"#utility.yul\":2790:2793   */\n      0xc0\n        /* \"#utility.yul\":2775:2794   */\n      dup3\n      add\n        /* \"#utility.yul\":2768:2808   */\n      mstore\n        /* \"#utility.yul\":2875:2879   */\n      0x20\n        /* \"#utility.yul\":2860:2880   */\n      dup2\n      add\n        /* \"#utility.yul\":2853:2889   */\n      swap2\n      swap1\n      swap2\n      mstore\n        /* \"#utility.yul\":2840:2843   */\n      0xe0\n        /* \"#utility.yul\":2825:2844   */\n      add\n      swap1\n        /* \"#utility.yul\":2271:2895   */\n      jump\n        /* \"Inheritance.sol\":923:1130  LogInheritanceCreated(\"Log all the values: Administrator address, Inheritance contract address, Number of inheritances deployed.\",... */\n    tag_37:\n      mload(0x40)\n      dup1\n      swap2\n      sub\n      swap1\n      log3\n        /* \"Inheritance.sol\":514:1137  function createInheritance(uint256 aliveTimeOut, address usdcTokenAddress) public {... */\n      pop\n      pop\n      jump\t// out\n    tag_31:\n      dataSize(sub_0)\n      dup1\n      dataOffset(sub_0)\n      dup4\n      codecopy\n      add\n      swap1\n      jump\t// out\n        /* \"#utility.yul\":196:369   */\n    tag_40:\n        /* \"#utility.yul\":264:284   */\n      dup1\n      calldataload\n      sub(shl(0xa0, 0x01), 0x01)\n        /* \"#utility.yul\":313:344   */\n      dup2\n      and\n        /* \"#utility.yul\":303:345   */\n      dup2\n      eq\n        /* \"#utility.yul\":293:363   */\n      tag_44\n      jumpi\n        /* \"#utility.yul\":359:360   */\n      0x00\n        /* \"#utility.yul\":356:357   */\n      dup1\n        /* \"#utility.yul\":349:361   */\n      revert\n        /* \"#utility.yul\":293:363   */\n    tag_44:\n        /* \"#utility.yul\":196:369   */\n      swap2\n      swap1\n      pop\n      jump\t// out\n        /* \"#utility.yul\":374:560   */\n    tag_13:\n        /* \"#utility.yul\":433:439   */\n      0x00\n        /* \"#utility.yul\":486:488   */\n      0x20\n        /* \"#utility.yul\":474:483   */\n      dup3\n        /* \"#utility.yul\":465:472   */\n      dup5\n        /* \"#utility.yul\":461:484   */\n      sub\n        /* \"#utility.yul\":457:489   */\n      slt\n        /* \"#utility.yul\":454:506   */\n      iszero\n      tag_46\n      jumpi\n        /* \"#utility.yul\":502:503   */\n      0x00\n        /* \"#utility.yul\":499:500   */\n      dup1\n        /* \"#utility.yul\":492:504   */\n      revert\n        /* \"#utility.yul\":454:506   */\n    tag_46:\n        /* \"#utility.yul\":525:554   */\n      tag_47\n        /* \"#utility.yul\":544:553   */\n      dup3\n        /* \"#utility.yul\":525:554   */\n      tag_40\n      jump\t// in\n    tag_47:\n        /* \"#utility.yul\":515:554   */\n      swap4\n        /* \"#utility.yul\":374:560   */\n      swap3\n      pop\n      pop\n      pop\n      jump\t// out\n        /* \"#utility.yul\":773:1027   */\n    tag_19:\n        /* \"#utility.yul\":841:847   */\n      0x00\n        /* \"#utility.yul\":849:855   */\n      dup1\n        /* \"#utility.yul\":902:904   */\n      0x40\n        /* \"#utility.yul\":890:899   */\n      dup4\n        /* \"#utility.yul\":881:888   */\n      dup6\n        /* \"#utility.yul\":877:900   */\n      sub\n        /* \"#utility.yul\":873:905   */\n      slt\n        /* \"#utility.yul\":870:922   */\n      iszero\n      tag_50\n      jumpi\n        /* \"#utility.yul\":918:919   */\n      0x00\n        /* \"#utility.yul\":915:916   */\n      dup1\n        /* \"#utility.yul\":908:920   */\n      revert\n        /* \"#utility.yul\":870:922   */\n    tag_50:\n        /* \"#utility.yul\":954:963   */\n      dup3\n        /* \"#utility.yul\":941:964   */\n      calldataload\n        /* \"#utility.yul\":931:964   */\n      swap2\n      pop\n        /* \"#utility.yul\":983:1021   */\n      tag_51\n        /* \"#utility.yul\":1017:1019   */\n      0x20\n        /* \"#utility.yul\":1006:1015   */\n      dup5\n        /* \"#utility.yul\":1002:1020   */\n      add\n        /* \"#utility.yul\":983:1021   */\n      tag_40\n      jump\t// in\n    tag_51:\n        /* \"#utility.yul\":973:1021   */\n      swap1\n      pop\n        /* \"#utility.yul\":773:1027   */\n      swap3\n      pop\n      swap3\n      swap1\n      pop\n      jump\t// out\n        /* \"#utility.yul\":2034:2266   */\n    tag_36:\n        /* \"#utility.yul\":2073:2076   */\n      0x00\n        /* \"#utility.yul\":2094:2111   */\n      0x01\n      dup3\n      add\n        /* \"#utility.yul\":2091:2231   */\n      tag_56\n      jumpi\n        /* \"#utility.yul\":2153:2163   */\n      0x4e487b71\n        /* \"#utility.yul\":2148:2151   */\n      0xe0\n        /* \"#utility.yul\":2144:2164   */\n      shl\n        /* \"#utility.yul\":2141:2142   */\n      0x00\n        /* \"#utility.yul\":2134:2165   */\n      mstore\n        /* \"#utility.yul\":2188:2192   */\n      0x11\n        /* \"#utility.yul\":2185:2186   */\n      0x04\n        /* \"#utility.yul\":2178:2193   */\n      mstore\n        /* \"#utility.yul\":2216:2220   */\n      0x24\n        /* \"#utility.yul\":2213:2214   */\n      0x00\n        /* \"#utility.yul\":2206:2221   */\n      revert\n        /* \"#utility.yul\":2091:2231   */\n    tag_56:\n      pop\n        /* \"#utility.yul\":2258:2259   */\n      0x01\n        /* \"#utility.yul\":2247:2260   */\n      add\n      swap1\n        /* \"#utility.yul\":2034:2266   */\n      jump\t// out\n    stop\n\n    sub_0: assembly {\n            /* \"Inheritance.sol\":1377:11357  contract Inheritance is Ownable {... */\n          mstore(0x40, 0x80)\n            /* \"Inheritance.sol\":3184:3631  constructor (address _administratorAddress, uint256 _aliveTimeOut, address _tokenAddress) {... */\n          callvalue\n          dup1\n          iszero\n          tag_1\n          jumpi\n          0x00\n          dup1\n          revert\n        tag_1:\n          pop\n          mload(0x40)\n          sub(codesize, bytecodeSize)\n          dup1\n          bytecodeSize\n          dup4\n          codecopy\n          dup2\n          add\n          0x40\n          dup2\n          swap1\n          mstore\n          tag_2\n          swap2\n          tag_3\n          jump\t// in\n        tag_2:\n            /* \"@openzeppelin/contracts/access/Ownable.sol\":936:968   */\n          tag_7\n            /* \"@openzeppelin/contracts/utils/Context.sol\":719:729   */\n          caller\n            /* \"@openzeppelin/contracts/access/Ownable.sol\":936:954   */\n          tag_10\n            /* \"@openzeppelin/contracts/access/Ownable.sol\":936:968   */\n          jump\t// in\n        tag_7:\n            /* \"Inheritance.sol\":3284:3289  token */\n          0x08\n            /* \"Inheritance.sol\":3284:3313  token = IERC20(_tokenAddress) */\n          dup1\n          sload\n          not(sub(shl(0xa0, 0x01), 0x01))\n          and\n          sub(shl(0xa0, 0x01), 0x01)\n          dup4\n          and\n          or\n          swap1\n          sstore\n            /* \"Inheritance.sol\":3324:3364  transferOwnership(_administratorAddress) */\n          tag_12\n            /* \"Inheritance.sol\":3342:3363  _administratorAddress */\n          dup4\n            /* \"Inheritance.sol\":3324:3341  transferOwnership */\n          tag_13\n            /* \"Inheritance.sol\":3324:3364  transferOwnership(_administratorAddress) */\n          jump\t// in\n        tag_12:\n          pop\n            /* \"Inheritance.sol\":3447:3459  aliveTimeOut */\n          0x03\n            /* \"Inheritance.sol\":3447:3475  aliveTimeOut = _aliveTimeOut */\n          sstore\n            /* \"Inheritance.sol\":3502:3624  Administrator({... */\n          0x40\n          dup1\n          mload\n          dup1\n          dup3\n          add\n          swap1\n          swap2\n          mstore\n          sub(shl(0xa0, 0x01), 0x01)\n          swap1\n          swap2\n          and\n          dup1\n          dup3\n          mstore\n            /* \"Inheritance.sol\":3598:3613  block.timestamp */\n          timestamp\n            /* \"Inheritance.sol\":3502:3624  Administrator({... */\n          0x20\n          swap1\n          swap3\n          add\n          dup3\n          swap1\n          mstore\n            /* \"Inheritance.sol\":3486:3499  administrator */\n          0x01\n            /* \"Inheritance.sol\":3486:3624  administrator = Administrator({... */\n          dup1\n          sload\n          not(sub(shl(0xa0, 0x01), 0x01))\n          and\n          swap1\n          swap2\n          or\n          swap1\n          sstore\n          0x02\n          sstore\n            /* \"Inheritance.sol\":1377:11357  contract Inheritance is Ownable {... */\n          jump(tag_34)\n            /* \"@openzeppelin/contracts/access/Ownable.sol\":2433:2620   */\n        tag_10:\n            /* \"@openzeppelin/contracts/access/Ownable.sol\":2506:2522   */\n          0x00\n            /* \"@openzeppelin/contracts/access/Ownable.sol\":2525:2531   */\n          dup1\n          sload\n          sub(shl(0xa0, 0x01), 0x01)\n            /* \"@openzeppelin/contracts/access/Ownable.sol\":2541:2558   */\n          dup4\n          dup2\n          and\n          not(sub(shl(0xa0, 0x01), 0x01))\n          dup4\n          and\n          dup2\n          or\n          dup5\n          sstore\n            /* \"@openzeppelin/contracts/access/Ownable.sol\":2573:2613   */\n          mload(0x40)\n            /* \"@openzeppelin/contracts/access/Ownable.sol\":2525:2531   */\n          swap2\n          swap1\n          swap3\n          and\n          swap3\n          dup4\n          swap2\n            /* \"@openzeppelin/contracts/access/Ownable.sol\":2573:2613   */\n          0x8be0079c531659141344cd1fd0a4f28419497f9722a3daafe3b4186f6b6457e0\n          swap2\n            /* \"@openzeppelin/contracts/access/Ownable.sol\":2506:2522   */\n          swap1\n            /* \"@openzeppelin/contracts/access/Ownable.sol\":2573:2613   */\n          log3\n            /* \"@openzeppelin/contracts/access/Ownable.sol\":2496:2620   */\n          pop\n            /* \"@openzeppelin/contracts/access/Ownable.sol\":2433:2620   */\n          pop\n          jump\t// out\n            /* \"@openzeppelin/contracts/access/Ownable.sol\":2081:2279   */\n        tag_13:\n            /* \"@openzeppelin/contracts/access/Ownable.sol\":1094:1107   */\n          tag_18\n            /* \"@openzeppelin/contracts/access/Ownable.sol\":1094:1105   */\n          tag_19\n            /* \"@openzeppelin/contracts/access/Ownable.sol\":1094:1107   */\n          jump\t// in\n        tag_18:\n          sub(shl(0xa0, 0x01), 0x01)\n            /* \"@openzeppelin/contracts/access/Ownable.sol\":2169:2191   */\n          dup2\n          and\n            /* \"@openzeppelin/contracts/access/Ownable.sol\":2161:2234   */\n          tag_21\n          jumpi\n          mload(0x40)\n          shl(0xe5, 0x461bcd)\n          dup2\n          mstore\n            /* \"#utility.yul\":757:759   */\n          0x20\n            /* \"@openzeppelin/contracts/access/Ownable.sol\":2161:2234   */\n          0x04\n          dup3\n          add\n            /* \"#utility.yul\":739:760   */\n          mstore\n            /* \"#utility.yul\":796:798   */\n          0x26\n            /* \"#utility.yul\":776:794   */\n          0x24\n          dup3\n          add\n            /* \"#utility.yul\":769:799   */\n          mstore\n            /* \"#utility.yul\":835:869   */\n          0x4f776e61626c653a206e6577206f776e657220697320746865207a65726f2061\n            /* \"#utility.yul\":815:833   */\n          0x44\n          dup3\n          add\n            /* \"#utility.yul\":808:870   */\n          mstore\n          shl(0xd0, 0x646472657373)\n            /* \"#utility.yul\":886:904   */\n          0x64\n          dup3\n          add\n            /* \"#utility.yul\":879:915   */\n          mstore\n            /* \"#utility.yul\":932:951   */\n          0x84\n          add\n            /* \"@openzeppelin/contracts/access/Ownable.sol\":2161:2234   */\n        tag_22:\n          mload(0x40)\n          dup1\n          swap2\n          sub\n          swap1\n          revert\n        tag_21:\n            /* \"@openzeppelin/contracts/access/Ownable.sol\":2244:2272   */\n          tag_24\n            /* \"@openzeppelin/contracts/access/Ownable.sol\":2263:2271   */\n          dup2\n            /* \"@openzeppelin/contracts/access/Ownable.sol\":2244:2262   */\n          tag_10\n            /* \"@openzeppelin/contracts/access/Ownable.sol\":2244:2272   */\n          jump\t// in\n        tag_24:\n            /* \"@openzeppelin/contracts/access/Ownable.sol\":2081:2279   */\n          pop\n          jump\t// out\n            /* \"@openzeppelin/contracts/access/Ownable.sol\":1359:1489   */\n        tag_19:\n            /* \"@openzeppelin/contracts/access/Ownable.sol\":1247:1254   */\n          0x00\n            /* \"@openzeppelin/contracts/access/Ownable.sol\":1273:1279   */\n          sload\n          sub(shl(0xa0, 0x01), 0x01)\n          and\n            /* \"@openzeppelin/contracts/utils/Context.sol\":719:729   */\n          caller\n            /* \"@openzeppelin/contracts/access/Ownable.sol\":1422:1445   */\n          eq\n            /* \"@openzeppelin/contracts/access/Ownable.sol\":1414:1482   */\n          tag_29\n          jumpi\n          mload(0x40)\n          shl(0xe5, 0x461bcd)\n          dup2\n          mstore\n            /* \"#utility.yul\":1164:1166   */\n          0x20\n            /* \"@openzeppelin/contracts/access/Ownable.sol\":1414:1482   */\n          0x04\n          dup3\n          add\n            /* \"#utility.yul\":1146:1167   */\n          dup2\n          swap1\n          mstore\n            /* \"#utility.yul\":1183:1201   */\n          0x24\n          dup3\n          add\n            /* \"#utility.yul\":1176:1206   */\n          mstore\n            /* \"#utility.yul\":1242:1276   */\n          0x4f776e61626c653a2063616c6c6572206973206e6f7420746865206f776e6572\n            /* \"#utility.yul\":1222:1240   */\n          0x44\n          dup3\n          add\n            /* \"#utility.yul\":1215:1277   */\n          mstore\n            /* \"#utility.yul\":1294:1312   */\n          0x64\n          add\n            /* \"@openzeppelin/contracts/access/Ownable.sol\":1414:1482   */\n          tag_22\n            /* \"#utility.yul\":962:1318   */\n          jump\n            /* \"@openzeppelin/contracts/access/Ownable.sol\":1414:1482   */\n        tag_29:\n            /* \"@openzeppelin/contracts/access/Ownable.sol\":1359:1489   */\n          jump\t// out\n            /* \"#utility.yul\":14:191   */\n        tag_33:\n            /* \"#utility.yul\":93:106   */\n          dup1\n          mload\n          sub(shl(0xa0, 0x01), 0x01)\n            /* \"#utility.yul\":135:166   */\n          dup2\n          and\n            /* \"#utility.yul\":125:167   */\n          dup2\n          eq\n            /* \"#utility.yul\":115:185   */\n          tag_36\n          jumpi\n            /* \"#utility.yul\":181:182   */\n          0x00\n            /* \"#utility.yul\":178:179   */\n          dup1\n            /* \"#utility.yul\":171:183   */\n          revert\n            /* \"#utility.yul\":115:185   */\n        tag_36:\n            /* \"#utility.yul\":14:191   */\n          swap2\n          swap1\n          pop\n          jump\t// out\n            /* \"#utility.yul\":196:550   */\n        tag_3:\n            /* \"#utility.yul\":284:290   */\n          0x00\n            /* \"#utility.yul\":292:298   */\n          dup1\n            /* \"#utility.yul\":300:306   */\n          0x00\n            /* \"#utility.yul\":353:355   */\n          0x60\n            /* \"#utility.yul\":341:350   */\n          dup5\n            /* \"#utility.yul\":332:339   */\n          dup7\n            /* \"#utility.yul\":328:351   */\n          sub\n            /* \"#utility.yul\":324:356   */\n          slt\n            /* \"#utility.yul\":321:373   */\n          iszero\n          tag_38\n          jumpi\n            /* \"#utility.yul\":369:370   */\n          0x00\n            /* \"#utility.yul\":366:367   */\n          dup1\n            /* \"#utility.yul\":359:371   */\n          revert\n            /* \"#utility.yul\":321:373   */\n        tag_38:\n            /* \"#utility.yul\":392:432   */\n          tag_39\n            /* \"#utility.yul\":422:431   */\n          dup5\n            /* \"#utility.yul\":392:432   */\n          tag_33\n          jump\t// in\n        tag_39:\n            /* \"#utility.yul\":382:432   */\n          swap3\n          pop\n            /* \"#utility.yul\":472:474   */\n          0x20\n            /* \"#utility.yul\":461:470   */\n          dup5\n            /* \"#utility.yul\":457:475   */\n          add\n            /* \"#utility.yul\":451:476   */\n          mload\n            /* \"#utility.yul\":441:476   */\n          swap2\n          pop\n            /* \"#utility.yul\":495:544   */\n          tag_40\n            /* \"#utility.yul\":540:542   */\n          0x40\n            /* \"#utility.yul\":529:538   */\n          dup6\n            /* \"#utility.yul\":525:543   */\n          add\n            /* \"#utility.yul\":495:544   */\n          tag_33\n          jump\t// in\n        tag_40:\n            /* \"#utility.yul\":485:544   */\n          swap1\n          pop\n            /* \"#utility.yul\":196:550   */\n          swap3\n          pop\n          swap3\n          pop\n          swap3\n          jump\t// out\n            /* \"#utility.yul\":962:1318   */\n        tag_34:\n            /* \"Inheritance.sol\":1377:11357  contract Inheritance is Ownable {... */\n          dataSize(sub_0)\n          dup1\n          dataOffset(sub_0)\n          0x00\n          codecopy\n          0x00\n          return\n        stop\n\n        sub_0: assembly {\n                /* \"Inheritance.sol\":1377:11357  contract Inheritance is Ownable {... */\n              mstore(0x40, 0x80)\n              jumpi(tag_1, lt(calldatasize, 0x04))\n              shr(0xe0, calldataload(0x00))\n              dup1\n              0x9f3c4416\n              gt\n              tag_25\n              jumpi\n              dup1\n              0xde35f376\n              gt\n              tag_26\n              jumpi\n              dup1\n              0xde35f376\n              eq\n              tag_19\n              jumpi\n              dup1\n              0xe92df2b0\n              eq\n              tag_20\n              jumpi\n              dup1\n              0xea46193e\n              eq\n              tag_21\n              jumpi\n              dup1\n              0xf2fde38b\n              eq\n              tag_22\n              jumpi\n              dup1\n              0xf53d0a8e\n              eq\n              tag_23\n              jumpi\n              dup1\n              0xffc15b7c\n              eq\n              tag_24\n              jumpi\n              0x00\n              dup1\n              revert\n            tag_26:\n              dup1\n              0x9f3c4416\n              eq\n              tag_13\n              jumpi\n              dup1\n              0xa37fc5cf\n              eq\n              tag_14\n              jumpi\n              dup1\n              0xc1b640db\n              eq\n              tag_15\n              jumpi\n              dup1\n              0xd0e30db0\n              eq\n              tag_16\n              jumpi\n              dup1\n              0xd5002f2e\n              eq\n              tag_17\n              jumpi\n              dup1\n              0xdb81f99b\n              eq\n              tag_18\n              jumpi\n              0x00\n              dup1\n              revert\n            tag_25:\n              dup1\n              0x3cfd1ccc\n              gt\n              tag_27\n              jumpi\n              dup1\n              0x3cfd1ccc\n              eq\n              tag_7\n              jumpi\n              dup1\n              0x44690153\n              eq\n              tag_8\n              jumpi\n              dup1\n              0x4eae51f4\n              eq\n              tag_9\n              jumpi\n              dup1\n              0x715018a6\n              eq\n              tag_10\n              jumpi\n              dup1\n              0x7c1d3a01\n              eq\n              tag_11\n              jumpi\n              dup1\n              0x8da5cb5b\n              eq\n              tag_12\n              jumpi\n              0x00\n              dup1\n              revert\n            tag_27:\n              dup1\n              0x051ea68f\n              eq\n              tag_2\n              jumpi\n              dup1\n              0x064ac578\n              eq\n              tag_3\n              jumpi\n              dup1\n              0x0b6946da\n              eq\n              tag_4\n              jumpi\n              dup1\n              0x2e1a7d4d\n              eq\n              tag_5\n              jumpi\n              dup1\n              0x35d6f873\n              eq\n              tag_6\n              jumpi\n            tag_1:\n              0x00\n              dup1\n              revert\n                /* \"Inheritance.sol\":5909:6137  function isAdministratorDead() public view returns (bool) { // Shows if the aliveTimeOut has been reached, and the Heirs can redeem the Inheritance.... */\n            tag_2:\n              callvalue\n              dup1\n              iszero\n              tag_28\n              jumpi\n              0x00\n              dup1\n              revert\n            tag_28:\n              pop\n              tag_29\n              tag_30\n              jump\t// in\n            tag_29:\n              mload(0x40)\n                /* \"#utility.yul\":179:193   */\n              swap1\n              iszero\n                /* \"#utility.yul\":172:194   */\n              iszero\n                /* \"#utility.yul\":154:195   */\n              dup2\n              mstore\n                /* \"#utility.yul\":142:144   */\n              0x20\n                /* \"#utility.yul\":127:145   */\n              add\n                /* \"Inheritance.sol\":5909:6137  function isAdministratorDead() public view returns (bool) { // Shows if the aliveTimeOut has been reached, and the Heirs can redeem the Inheritance.... */\n            tag_31:\n              mload(0x40)\n              dup1\n              swap2\n              sub\n              swap1\n              return\n                /* \"Inheritance.sol\":8098:8224  function getInheritanceRequests() public view onlyOwner returns (address[] memory) {... */\n            tag_3:\n              callvalue\n              dup1\n              iszero\n              tag_33\n              jumpi\n              0x00\n              dup1\n              revert\n            tag_33:\n              pop\n              tag_34\n              tag_35\n              jump\t// in\n            tag_34:\n              mload(0x40)\n              tag_31\n              swap2\n              swap1\n              tag_37\n              jump\t// in\n                /* \"Inheritance.sol\":4901:5161  function requestInheritance() public requestInheritanceValidations(msg.sender) {... */\n            tag_4:\n              callvalue\n              dup1\n              iszero\n              tag_38\n              jumpi\n              0x00\n              dup1\n              revert\n            tag_38:\n              pop\n              tag_39\n              tag_40\n              jump\t// in\n            tag_39:\n              stop\n                /* \"Inheritance.sol\":4249:4487  function withdraw(uint256 amount) public onlyOwner {... */\n            tag_5:\n              callvalue\n              dup1\n              iszero\n              tag_41\n              jumpi\n              0x00\n              dup1\n              revert\n            tag_41:\n              pop\n              tag_39\n              tag_43\n              calldatasize\n              0x04\n              tag_44\n              jump\t// in\n            tag_43:\n              tag_45\n              jump\t// in\n                /* \"Inheritance.sol\":8900:9179  function getNFTDeedsByHeirAddress(address heirAddress) public view returns (uint256[] memory nftDeedIds) {... */\n            tag_6:\n              callvalue\n              dup1\n              iszero\n              tag_46\n              jumpi\n              0x00\n              dup1\n              revert\n            tag_46:\n              pop\n              tag_47\n              tag_48\n              calldatasize\n              0x04\n              tag_49\n              jump\t// in\n            tag_48:\n              tag_50\n              jump\t// in\n            tag_47:\n              mload(0x40)\n              tag_31\n              swap2\n              swap1\n              tag_52\n              jump\t// in\n                /* \"Inheritance.sol\":7982:8092  function getUSDCBalance() public view returns (uint256) {... */\n            tag_7:\n              callvalue\n              dup1\n              iszero\n              tag_53\n              jumpi\n              0x00\n              dup1\n              revert\n            tag_53:\n              pop\n              tag_54\n              tag_55\n              jump\t// in\n            tag_54:\n              mload(0x40)\n                /* \"#utility.yul\":2275:2300   */\n              swap1\n              dup2\n              mstore\n                /* \"#utility.yul\":2263:2265   */\n              0x20\n                /* \"#utility.yul\":2248:2266   */\n              add\n                /* \"Inheritance.sol\":7982:8092  function getUSDCBalance() public view returns (uint256) {... */\n              tag_31\n                /* \"#utility.yul\":2129:2306   */\n              jump\n                /* \"Inheritance.sol\":7390:7739  function addNFTDeed(address heirAddress, uint256 tokenId) public onlyOwner {... */\n            tag_8:\n              callvalue\n              dup1\n              iszero\n              tag_58\n              jumpi\n              0x00\n              dup1\n              revert\n            tag_58:\n              pop\n              tag_39\n              tag_60\n              calldatasize\n              0x04\n              tag_61\n              jump\t// in\n            tag_60:\n              tag_62\n              jump\t// in\n                /* \"Inheritance.sol\":8230:8315  function getHeirs() public view returns (Heir[] memory) {... */\n            tag_9:\n              callvalue\n              dup1\n              iszero\n              tag_63\n              jumpi\n              0x00\n              dup1\n              revert\n            tag_63:\n              pop\n              tag_64\n              tag_65\n              jump\t// in\n            tag_64:\n              mload(0x40)\n              tag_31\n              swap2\n              swap1\n              tag_67\n              jump\t// in\n                /* \"@openzeppelin/contracts/access/Ownable.sol\":1831:1932   */\n            tag_10:\n              callvalue\n              dup1\n              iszero\n              tag_68\n              jumpi\n              0x00\n              dup1\n              revert\n            tag_68:\n              pop\n              tag_39\n              tag_70\n              jump\t// in\n                /* \"Inheritance.sol\":5167:5586  function acceptInheritanceRequest(uint index, address requester, uint256 share) public onlyOwner acceptInheritanceValidations(index, requester, share) {... */\n            tag_11:\n              callvalue\n              dup1\n              iszero\n              tag_71\n              jumpi\n              0x00\n              dup1\n              revert\n            tag_71:\n              pop\n              tag_39\n              tag_73\n              calldatasize\n              0x04\n              tag_74\n              jump\t// in\n            tag_73:\n              tag_75\n              jump\t// in\n                /* \"@openzeppelin/contracts/access/Ownable.sol\":1201:1286   */\n            tag_12:\n              callvalue\n              dup1\n              iszero\n              tag_76\n              jumpi\n              0x00\n              dup1\n              revert\n            tag_76:\n              pop\n                /* \"@openzeppelin/contracts/access/Ownable.sol\":1247:1254   */\n              0x00\n                /* \"@openzeppelin/contracts/access/Ownable.sol\":1273:1279   */\n              sload\n                /* \"@openzeppelin/contracts/access/Ownable.sol\":1201:1286   */\n              mload(0x40)\n              sub(shl(0xa0, 0x01), 0x01)\n                /* \"@openzeppelin/contracts/access/Ownable.sol\":1273:1279   */\n              swap1\n              swap2\n              and\n                /* \"#utility.yul\":4353:4404   */\n              dup2\n              mstore\n                /* \"#utility.yul\":4341:4343   */\n              0x20\n                /* \"#utility.yul\":4326:4344   */\n              add\n                /* \"@openzeppelin/contracts/access/Ownable.sol\":1201:1286   */\n              tag_31\n                /* \"#utility.yul\":4207:4410   */\n              jump\n                /* \"Inheritance.sol\":6143:7384  function claimInheritance() public isHeir(msg.sender) {... */\n            tag_13:\n              callvalue\n              dup1\n              iszero\n              tag_81\n              jumpi\n              0x00\n              dup1\n              revert\n            tag_81:\n              pop\n              tag_39\n              tag_83\n              jump\t// in\n                /* \"Inheritance.sol\":7765:7868  function getAliveTimeOut() public view onlyOwner returns (uint256) {... */\n            tag_14:\n              callvalue\n              dup1\n              iszero\n              tag_84\n              jumpi\n              0x00\n              dup1\n              revert\n            tag_84:\n              pop\n              tag_54\n              tag_86\n              jump\t// in\n                /* \"Inheritance.sol\":4640:4895  function signalAlive() public onlyOwner {... */\n            tag_15:\n              callvalue\n              dup1\n              iszero\n              tag_88\n              jumpi\n              0x00\n              dup1\n              revert\n            tag_88:\n              pop\n              tag_39\n              tag_90\n              jump\t// in\n                /* \"Inheritance.sol\":3661:3893  function deposit() public payable {... */\n            tag_16:\n              tag_39\n              tag_92\n              jump\t// in\n                /* \"Inheritance.sol\":8321:8548  function getTotalShares() public view returns (uint256) {... */\n            tag_17:\n              callvalue\n              dup1\n              iszero\n              tag_93\n              jumpi\n              0x00\n              dup1\n              revert\n            tag_93:\n              pop\n              tag_54\n              tag_95\n              jump\t// in\n                /* \"Inheritance.sol\":3924:4243  function withdrawUSDC(uint256 amount) public onlyOwner {... */\n            tag_18:\n              callvalue\n              dup1\n              iszero\n              tag_97\n              jumpi\n              0x00\n              dup1\n              revert\n            tag_97:\n              pop\n              tag_39\n              tag_99\n              calldatasize\n              0x04\n              tag_44\n              jump\t// in\n            tag_99:\n              tag_100\n              jump\t// in\n                /* \"Inheritance.sol\":4521:4634  function updateAliveTimeOut(uint256 _aliveTimeOut) public onlyOwner {... */\n            tag_19:\n              callvalue\n              dup1\n              iszero\n              tag_101\n              jumpi\n              0x00\n              dup1\n              revert\n            tag_101:\n              pop\n              tag_39\n              tag_103\n              calldatasize\n              0x04\n              tag_44\n              jump\t// in\n            tag_103:\n              tag_104\n              jump\t// in\n                /* \"Inheritance.sol\":5592:5903  function rejectInheritanceRequest(uint index, address requester) public onlyOwner rejectInheritanceRequestValidations(index, requester) {... */\n            tag_20:\n              callvalue\n              dup1\n              iszero\n              tag_105\n              jumpi\n              0x00\n              dup1\n              revert\n            tag_105:\n              pop\n              tag_39\n              tag_107\n              calldatasize\n              0x04\n              tag_108\n              jump\t// in\n            tag_107:\n              tag_109\n              jump\t// in\n                /* \"Inheritance.sol\":7874:7976  function getEtherBalance() public view returns (uint256) {... */\n            tag_21:\n              callvalue\n              dup1\n              iszero\n              tag_110\n              jumpi\n              0x00\n              dup1\n              revert\n            tag_110:\n              pop\n                /* \"Inheritance.sol\":7948:7969  address(this).balance */\n              selfbalance\n                /* \"Inheritance.sol\":7874:7976  function getEtherBalance() public view returns (uint256) {... */\n              jump(tag_54)\n                /* \"@openzeppelin/contracts/access/Ownable.sol\":2081:2279   */\n            tag_22:\n              callvalue\n              dup1\n              iszero\n              tag_114\n              jumpi\n              0x00\n              dup1\n              revert\n            tag_114:\n              pop\n              tag_39\n              tag_116\n              calldatasize\n              0x04\n              tag_49\n              jump\t// in\n            tag_116:\n              tag_117\n              jump\t// in\n                /* \"Inheritance.sol\":1703:1737  Administrator public administrator */\n            tag_23:\n              callvalue\n              dup1\n              iszero\n              tag_118\n              jumpi\n              0x00\n              dup1\n              revert\n            tag_118:\n              pop\n              sload(0x01)\n              sload(0x02)\n              tag_119\n              swap2\n              sub(shl(0xa0, 0x01), 0x01)\n              and\n              swap1\n              dup3\n              jump\n            tag_119:\n              0x40\n              dup1\n              mload\n              sub(shl(0xa0, 0x01), 0x01)\n                /* \"#utility.yul\":4866:4898   */\n              swap1\n              swap4\n              and\n                /* \"#utility.yul\":4848:4899   */\n              dup4\n              mstore\n                /* \"#utility.yul\":4930:4932   */\n              0x20\n                /* \"#utility.yul\":4915:4933   */\n              dup4\n              add\n                /* \"#utility.yul\":4908:4942   */\n              swap2\n              swap1\n              swap2\n              mstore\n                /* \"#utility.yul\":4821:4839   */\n              add\n                /* \"Inheritance.sol\":1703:1737  Administrator public administrator */\n              tag_31\n                /* \"#utility.yul\":4674:4948   */\n              jump\n                /* \"Inheritance.sol\":8554:8894  function getHeirsAddresses() public view returns (address[] memory) {... */\n            tag_24:\n              callvalue\n              dup1\n              iszero\n              tag_123\n              jumpi\n              0x00\n              dup1\n              revert\n            tag_123:\n              pop\n              tag_34\n              tag_125\n              jump\t// in\n                /* \"Inheritance.sol\":5909:6137  function isAdministratorDead() public view returns (bool) { // Shows if the aliveTimeOut has been reached, and the Heirs can redeem the Inheritance.... */\n            tag_30:\n                /* \"Inheritance.sol\":6118:6130  aliveTimeOut */\n              sload(0x03)\n                /* \"Inheritance.sol\":6091:6114  administrator.lastAlive */\n              sload(0x02)\n                /* \"Inheritance.sol\":5961:5965  bool */\n              0x00\n              swap2\n                /* \"Inheritance.sol\":6118:6130  aliveTimeOut */\n              swap1\n                /* \"Inheritance.sol\":6073:6114  block.timestamp - administrator.lastAlive */\n              tag_128\n              swap1\n                /* \"Inheritance.sol\":6073:6088  block.timestamp */\n              timestamp\n                /* \"Inheritance.sol\":6073:6114  block.timestamp - administrator.lastAlive */\n              tag_129\n              jump\t// in\n            tag_128:\n                /* \"Inheritance.sol\":6073:6130  block.timestamp - administrator.lastAlive >= aliveTimeOut */\n              lt\n              iszero\n                /* \"Inheritance.sol\":6066:6130  return block.timestamp - administrator.lastAlive >= aliveTimeOut */\n              swap1\n              pop\n                /* \"Inheritance.sol\":5909:6137  function isAdministratorDead() public view returns (bool) { // Shows if the aliveTimeOut has been reached, and the Heirs can redeem the Inheritance.... */\n              swap1\n              jump\t// out\n                /* \"Inheritance.sol\":8098:8224  function getInheritanceRequests() public view onlyOwner returns (address[] memory) {... */\n            tag_35:\n                /* \"Inheritance.sol\":8163:8179  address[] memory */\n              0x60\n                /* \"@openzeppelin/contracts/access/Ownable.sol\":1094:1107   */\n              tag_131\n                /* \"@openzeppelin/contracts/access/Ownable.sol\":1094:1105   */\n              tag_132\n                /* \"@openzeppelin/contracts/access/Ownable.sol\":1094:1107   */\n              jump\t// in\n            tag_131:\n                /* \"Inheritance.sol\":8198:8217  inheritanceRequests */\n              0x05\n                /* \"Inheritance.sol\":8191:8217  return inheritanceRequests */\n              dup1\n              sload\n              dup1\n              0x20\n              mul\n              0x20\n              add\n              mload(0x40)\n              swap1\n              dup2\n              add\n              0x40\n              mstore\n              dup1\n              swap3\n              swap2\n              swap1\n              dup2\n              dup2\n              mstore\n              0x20\n              add\n              dup3\n              dup1\n              sload\n              dup1\n              iszero\n              tag_134\n              jumpi\n              0x20\n              mul\n              dup3\n              add\n              swap2\n              swap1\n              0x00\n              mstore\n              keccak256(0x00, 0x20)\n              swap1\n            tag_135:\n              dup2\n              sload\n              sub(shl(0xa0, 0x01), 0x01)\n              and\n              dup2\n              mstore\n              0x01\n              swap1\n              swap2\n              add\n              swap1\n              0x20\n              add\n              dup1\n              dup4\n              gt\n              tag_135\n              jumpi\n            tag_134:\n              pop\n              pop\n              pop\n              pop\n              pop\n              swap1\n              pop\n                /* \"Inheritance.sol\":8098:8224  function getInheritanceRequests() public view onlyOwner returns (address[] memory) {... */\n              swap1\n              jump\t// out\n                /* \"Inheritance.sol\":4901:5161  function requestInheritance() public requestInheritanceValidations(msg.sender) {... */\n            tag_40:\n                /* \"Inheritance.sol\":9272:9277  heirs */\n              0x04\n                /* \"Inheritance.sol\":9272:9284  heirs.length */\n              sload\n                /* \"Inheritance.sol\":4968:4978  msg.sender */\n              caller\n              swap1\n                /* \"Inheritance.sol\":9287:9290  100 */\n              0x64\n              gt\n                /* \"Inheritance.sol\":9264:9334  require(heirs.length < 100, \"Already reached the limit of 100 heirs.\") */\n              tag_137\n              jumpi\n              mload(0x40)\n              shl(0xe5, 0x461bcd)\n              dup2\n              mstore\n                /* \"#utility.yul\":5420:5422   */\n              0x20\n                /* \"Inheritance.sol\":9264:9334  require(heirs.length < 100, \"Already reached the limit of 100 heirs.\") */\n              0x04\n              dup3\n              add\n                /* \"#utility.yul\":5402:5423   */\n              mstore\n                /* \"#utility.yul\":5459:5461   */\n              0x27\n                /* \"#utility.yul\":5439:5457   */\n              0x24\n              dup3\n              add\n                /* \"#utility.yul\":5432:5462   */\n              mstore\n                /* \"#utility.yul\":5498:5532   */\n              0x416c7265616479207265616368656420746865206c696d6974206f6620313030\n                /* \"#utility.yul\":5478:5496   */\n              0x44\n              dup3\n              add\n                /* \"#utility.yul\":5471:5533   */\n              mstore\n              shl(0xc9, 0x103432b4b93997)\n                /* \"#utility.yul\":5549:5567   */\n              0x64\n              dup3\n              add\n                /* \"#utility.yul\":5542:5579   */\n              mstore\n                /* \"#utility.yul\":5596:5615   */\n              0x84\n              add\n                /* \"Inheritance.sol\":9264:9334  require(heirs.length < 100, \"Already reached the limit of 100 heirs.\") */\n            tag_138:\n              mload(0x40)\n              dup1\n              swap2\n              sub\n              swap1\n              revert\n            tag_137:\n                /* \"Inheritance.sol\":9352:9371  inheritanceRequests */\n              0x05\n                /* \"Inheritance.sol\":9352:9378  inheritanceRequests.length */\n              sload\n                /* \"Inheritance.sol\":9381:9384  100 */\n              0x64\n              gt\n                /* \"Inheritance.sol\":9344:9443  require(inheritanceRequests.length < 100, \"Already reached the limit of 100 inheritance requests.\") */\n              tag_140\n              jumpi\n              mload(0x40)\n              shl(0xe5, 0x461bcd)\n              dup2\n              mstore\n                /* \"#utility.yul\":5828:5830   */\n              0x20\n                /* \"Inheritance.sol\":9344:9443  require(inheritanceRequests.length < 100, \"Already reached the limit of 100 inheritance requests.\") */\n              0x04\n              dup3\n              add\n                /* \"#utility.yul\":5810:5831   */\n              mstore\n                /* \"#utility.yul\":5867:5869   */\n              0x36\n                /* \"#utility.yul\":5847:5865   */\n              0x24\n              dup3\n              add\n                /* \"#utility.yul\":5840:5870   */\n              mstore\n                /* \"#utility.yul\":5906:5940   */\n              0x416c7265616479207265616368656420746865206c696d6974206f6620313030\n                /* \"#utility.yul\":5886:5904   */\n              0x44\n              dup3\n              add\n                /* \"#utility.yul\":5879:5941   */\n              mstore\n              shl(0x51, 0x1034b73432b934ba30b731b2903932b8bab2b9ba3997)\n                /* \"#utility.yul\":5957:5975   */\n              0x64\n              dup3\n              add\n                /* \"#utility.yul\":5950:6002   */\n              mstore\n                /* \"#utility.yul\":6019:6038   */\n              0x84\n              add\n                /* \"Inheritance.sol\":9344:9443  require(inheritanceRequests.length < 100, \"Already reached the limit of 100 inheritance requests.\") */\n              tag_138\n                /* \"#utility.yul\":5626:6044   */\n              jump\n                /* \"Inheritance.sol\":9344:9443  require(inheritanceRequests.length < 100, \"Already reached the limit of 100 inheritance requests.\") */\n            tag_140:\n                /* \"Inheritance.sol\":9458:9464  uint i */\n              0x00\n                /* \"Inheritance.sol\":9454:9616  for(uint i = 0; i < inheritanceRequests.length; i++) {... */\n            tag_143:\n                /* \"Inheritance.sol\":9474:9493  inheritanceRequests */\n              0x05\n                /* \"Inheritance.sol\":9474:9500  inheritanceRequests.length */\n              sload\n                /* \"Inheritance.sol\":9470:9500  i < inheritanceRequests.length */\n              dup2\n              lt\n                /* \"Inheritance.sol\":9454:9616  for(uint i = 0; i < inheritanceRequests.length; i++) {... */\n              iszero\n              tag_144\n              jumpi\n                /* \"Inheritance.sol\":9555:9559  addr */\n              dup2\n              sub(shl(0xa0, 0x01), 0x01)\n                /* \"Inheritance.sol\":9529:9559  inheritanceRequests[i] != addr */\n              and\n                /* \"Inheritance.sol\":9529:9548  inheritanceRequests */\n              0x05\n                /* \"Inheritance.sol\":9549:9550  i */\n              dup3\n                /* \"Inheritance.sol\":9529:9551  inheritanceRequests[i] */\n              dup2\n              sload\n              dup2\n              lt\n              tag_147\n              jumpi\n              tag_147\n              tag_148\n              jump\t// in\n            tag_147:\n              0x00\n              swap2\n              dup3\n              mstore\n              0x20\n              swap1\n              swap2\n              keccak256\n              add\n              sload\n              sub(shl(0xa0, 0x01), 0x01)\n              and\n                /* \"Inheritance.sol\":9529:9559  inheritanceRequests[i] != addr */\n              sub\n                /* \"Inheritance.sol\":9521:9605  require(inheritanceRequests[i] != addr, \"Address already exists in requests array.\") */\n              tag_150\n              jumpi\n              mload(0x40)\n              shl(0xe5, 0x461bcd)\n              dup2\n              mstore\n                /* \"#utility.yul\":6383:6385   */\n              0x20\n                /* \"Inheritance.sol\":9521:9605  require(inheritanceRequests[i] != addr, \"Address already exists in requests array.\") */\n              0x04\n              dup3\n              add\n                /* \"#utility.yul\":6365:6386   */\n              mstore\n                /* \"#utility.yul\":6422:6424   */\n              0x29\n                /* \"#utility.yul\":6402:6420   */\n              0x24\n              dup3\n              add\n                /* \"#utility.yul\":6395:6425   */\n              mstore\n                /* \"#utility.yul\":6461:6495   */\n              0x4164647265737320616c72656164792065786973747320696e20726571756573\n                /* \"#utility.yul\":6441:6459   */\n              0x44\n              dup3\n              add\n                /* \"#utility.yul\":6434:6496   */\n              mstore\n              shl(0xb9, 0x3a399030b93930bc97)\n                /* \"#utility.yul\":6512:6530   */\n              0x64\n              dup3\n              add\n                /* \"#utility.yul\":6505:6544   */\n              mstore\n                /* \"#utility.yul\":6561:6580   */\n              0x84\n              add\n                /* \"Inheritance.sol\":9521:9605  require(inheritanceRequests[i] != addr, \"Address already exists in requests array.\") */\n              tag_138\n                /* \"#utility.yul\":6181:6586   */\n              jump\n                /* \"Inheritance.sol\":9521:9605  require(inheritanceRequests[i] != addr, \"Address already exists in requests array.\") */\n            tag_150:\n                /* \"Inheritance.sol\":9502:9505  i++ */\n              dup1\n              tag_153\n              dup2\n              tag_154\n              jump\t// in\n            tag_153:\n              swap2\n              pop\n              pop\n                /* \"Inheritance.sol\":9454:9616  for(uint i = 0; i < inheritanceRequests.length; i++) {... */\n              jump(tag_143)\n            tag_144:\n              pop\n                /* \"Inheritance.sol\":4990:5009  inheritanceRequests */\n              0x05\n                /* \"Inheritance.sol\":4990:5026  inheritanceRequests.push(msg.sender) */\n              dup1\n              sload\n              0x01\n              dup2\n              add\n              dup3\n              sstore\n              0x00\n              dup3\n              swap1\n              mstore\n              0x036b6384b5eca791c62761152d0c79bb0604c104a5fb6f4eb0703f3154bb3db0\n              add\n              dup1\n              sload\n              not(sub(shl(0xa0, 0x01), 0x01))\n              and\n                /* \"Inheritance.sol\":5015:5025  msg.sender */\n              caller\n                /* \"Inheritance.sol\":4990:5026  inheritanceRequests.push(msg.sender) */\n              swap1\n              dup2\n              or\n              swap1\n              swap2\n              sstore\n                /* \"Inheritance.sol\":5113:5139  inheritanceRequests.length */\n              swap1\n              sload\n                /* \"Inheritance.sol\":5141:5146  heirs */\n              0x04\n                /* \"Inheritance.sol\":5141:5153  heirs.length */\n              sload\n                /* \"Inheritance.sol\":5041:5154  LogRequestToBeHeir(\"User requests to be added as an heir.\", msg.sender, inheritanceRequests.length, heirs.length) */\n              0x40\n              dup1\n              mload\n                /* \"#utility.yul\":6989:6991   */\n              0x60\n                /* \"#utility.yul\":6971:6992   */\n              dup1\n              dup3\n              mstore\n                /* \"#utility.yul\":7028:7030   */\n              0x25\n                /* \"#utility.yul\":7008:7026   */\n              swap1\n              dup3\n              add\n                /* \"#utility.yul\":7001:7031   */\n              mstore\n                /* \"#utility.yul\":7068:7102   */\n              0x5573657220726571756573747320746f20626520616464656420617320616e20\n                /* \"#utility.yul\":7062:7065   */\n              0x80\n                /* \"#utility.yul\":7047:7066   */\n              dup3\n              add\n                /* \"#utility.yul\":7040:7103   */\n              mstore\n              shl(0xd9, 0x3432b4b917)\n                /* \"#utility.yul\":7134:7137   */\n              0xa0\n                /* \"#utility.yul\":7119:7138   */\n              dup3\n              add\n                /* \"#utility.yul\":7112:7148   */\n              mstore\n                /* \"#utility.yul\":7215:7219   */\n              0x20\n                /* \"#utility.yul\":7200:7220   */\n              dup2\n              add\n                /* \"#utility.yul\":7193:7229   */\n              swap4\n              swap1\n              swap4\n              mstore\n                /* \"#utility.yul\":7245:7263   */\n              dup3\n              add\n                /* \"#utility.yul\":7238:7272   */\n              mstore\n                /* \"Inheritance.sol\":5041:5154  LogRequestToBeHeir(\"User requests to be added as an heir.\", msg.sender, inheritanceRequests.length, heirs.length) */\n              0xe6096ebfc672773ae3076e8ae873cb450789130e8c0d87b2b933210acdc08f66\n              swap1\n                /* \"#utility.yul\":7180:7183   */\n              0xc0\n                /* \"#utility.yul\":7165:7184   */\n              add\n                /* \"Inheritance.sol\":5041:5154  LogRequestToBeHeir(\"User requests to be added as an heir.\", msg.sender, inheritanceRequests.length, heirs.length) */\n              mload(0x40)\n              dup1\n              swap2\n              sub\n              swap1\n              log2\n                /* \"Inheritance.sol\":4901:5161  function requestInheritance() public requestInheritanceValidations(msg.sender) {... */\n              pop\n              jump\t// out\n                /* \"Inheritance.sol\":4249:4487  function withdraw(uint256 amount) public onlyOwner {... */\n            tag_45:\n                /* \"@openzeppelin/contracts/access/Ownable.sol\":1094:1107   */\n              tag_160\n                /* \"@openzeppelin/contracts/access/Ownable.sol\":1094:1105   */\n              tag_132\n                /* \"@openzeppelin/contracts/access/Ownable.sol\":1094:1107   */\n              jump\t// in\n            tag_160:\n                /* \"Inheritance.sol\":4327:4328  0 */\n              0x00\n                /* \"Inheritance.sol\":4318:4324  amount */\n              dup2\n                /* \"Inheritance.sol\":4318:4328  amount > 0 */\n              gt\n                /* \"Inheritance.sol\":4310:4357  require(amount > 0, \"Amount must be positive.\") */\n              tag_162\n              jumpi\n              mload(0x40)\n              shl(0xe5, 0x461bcd)\n              dup2\n              mstore\n                /* \"#utility.yul\":7485:7487   */\n              0x20\n                /* \"Inheritance.sol\":4310:4357  require(amount > 0, \"Amount must be positive.\") */\n              0x04\n              dup3\n              add\n                /* \"#utility.yul\":7467:7488   */\n              mstore\n                /* \"#utility.yul\":7524:7526   */\n              0x18\n                /* \"#utility.yul\":7504:7522   */\n              0x24\n              dup3\n              add\n                /* \"#utility.yul\":7497:7527   */\n              mstore\n              shl(0x41, 0x20b6b7bab73a1036bab9ba103132903837b9b4ba34bb3297)\n                /* \"#utility.yul\":7543:7561   */\n              0x44\n              dup3\n              add\n                /* \"#utility.yul\":7536:7590   */\n              mstore\n                /* \"#utility.yul\":7607:7625   */\n              0x64\n              add\n                /* \"Inheritance.sol\":4310:4357  require(amount > 0, \"Amount must be positive.\") */\n              tag_138\n                /* \"#utility.yul\":7283:7631   */\n              jump\n                /* \"Inheritance.sol\":4310:4357  require(amount > 0, \"Amount must be positive.\") */\n            tag_162:\n                /* \"Inheritance.sol\":4385:4406  address(this).balance */\n              selfbalance\n                /* \"Inheritance.sol\":4375:4381  amount */\n              dup2\n                /* \"Inheritance.sol\":4375:4406  amount <= address(this).balance */\n              gt\n              iszero\n                /* \"Inheritance.sol\":4367:4434  require(amount <= address(this).balance, \"Not enough ETH balance.\") */\n              tag_165\n              jumpi\n              mload(0x40)\n              shl(0xe5, 0x461bcd)\n              dup2\n              mstore\n                /* \"#utility.yul\":7838:7840   */\n              0x20\n                /* \"Inheritance.sol\":4367:4434  require(amount <= address(this).balance, \"Not enough ETH balance.\") */\n              0x04\n              dup3\n              add\n                /* \"#utility.yul\":7820:7841   */\n              mstore\n                /* \"#utility.yul\":7877:7879   */\n              0x17\n                /* \"#utility.yul\":7857:7875   */\n              0x24\n              dup3\n              add\n                /* \"#utility.yul\":7850:7880   */\n              mstore\n                /* \"#utility.yul\":7916:7941   */\n              0x4e6f7420656e6f756768204554482062616c616e63652e000000000000000000\n                /* \"#utility.yul\":7896:7914   */\n              0x44\n              dup3\n              add\n                /* \"#utility.yul\":7889:7942   */\n              mstore\n                /* \"#utility.yul\":7959:7977   */\n              0x64\n              add\n                /* \"Inheritance.sol\":4367:4434  require(amount <= address(this).balance, \"Not enough ETH balance.\") */\n              tag_138\n                /* \"#utility.yul\":7636:7983   */\n              jump\n                /* \"Inheritance.sol\":4367:4434  require(amount <= address(this).balance, \"Not enough ETH balance.\") */\n            tag_165:\n                /* \"Inheritance.sol\":4444:4480  payable(msg.sender).transfer(amount) */\n              mload(0x40)\n                /* \"Inheritance.sol\":4452:4462  msg.sender */\n              caller\n              swap1\n                /* \"Inheritance.sol\":4444:4480  payable(msg.sender).transfer(amount) */\n              dup3\n              iszero\n              0x08fc\n              mul\n              swap1\n                /* \"Inheritance.sol\":4473:4479  amount */\n              dup4\n              swap1\n                /* \"Inheritance.sol\":4444:4480  payable(msg.sender).transfer(amount) */\n              0x00\n              dup2\n              dup2\n              dup2\n                /* \"Inheritance.sol\":4473:4479  amount */\n              dup6\n                /* \"Inheritance.sol\":4452:4462  msg.sender */\n              dup9\n                /* \"Inheritance.sol\":4444:4480  payable(msg.sender).transfer(amount) */\n              dup9\n              call\n              swap4\n              pop\n              pop\n              pop\n              pop\n              iszero\n              dup1\n              iszero\n              tag_169\n              jumpi\n              returndatasize\n              0x00\n              dup1\n              returndatacopy\n              revert(0x00, returndatasize)\n            tag_169:\n              pop\n                /* \"Inheritance.sol\":4249:4487  function withdraw(uint256 amount) public onlyOwner {... */\n              pop\n              jump\t// out\n                /* \"Inheritance.sol\":8900:9179  function getNFTDeedsByHeirAddress(address heirAddress) public view returns (uint256[] memory nftDeedIds) {... */\n            tag_50:\n                /* \"Inheritance.sol\":8976:9003  uint256[] memory nftDeedIds */\n              0x60\n                /* \"Inheritance.sol\":9019:9028  uint256 i */\n              0x00\n                /* \"Inheritance.sol\":9015:9173  for(uint256 i = 0; i < heirs.length; i++) {... */\n            tag_171:\n                /* \"Inheritance.sol\":9038:9043  heirs */\n              0x04\n                /* \"Inheritance.sol\":9038:9050  heirs.length */\n              sload\n                /* \"Inheritance.sol\":9034:9050  i < heirs.length */\n              dup2\n              lt\n                /* \"Inheritance.sol\":9015:9173  for(uint256 i = 0; i < heirs.length; i++) {... */\n              iszero\n              tag_172\n              jumpi\n                /* \"Inheritance.sol\":9091:9102  heirAddress */\n              dup3\n              sub(shl(0xa0, 0x01), 0x01)\n                /* \"Inheritance.sol\":9074:9102  heirs[i].heir == heirAddress */\n              and\n                /* \"Inheritance.sol\":9074:9079  heirs */\n              0x04\n                /* \"Inheritance.sol\":9080:9081  i */\n              dup3\n                /* \"Inheritance.sol\":9074:9082  heirs[i] */\n              dup2\n              sload\n              dup2\n              lt\n              tag_175\n              jumpi\n              tag_175\n              tag_148\n              jump\t// in\n            tag_175:\n              0x00\n              swap2\n              dup3\n              mstore\n              0x20\n              swap1\n              swap2\n              keccak256\n              0x05\n              swap1\n              swap2\n              mul\n              add\n                /* \"Inheritance.sol\":9074:9087  heirs[i].heir */\n              sload\n              sub(shl(0xa0, 0x01), 0x01)\n              and\n                /* \"Inheritance.sol\":9074:9102  heirs[i].heir == heirAddress */\n              sub\n                /* \"Inheritance.sol\":9071:9163  if(heirs[i].heir == heirAddress) {... */\n              tag_177\n              jumpi\n                /* \"Inheritance.sol\":9129:9134  heirs */\n              0x04\n                /* \"Inheritance.sol\":9135:9136  i */\n              dup2\n                /* \"Inheritance.sol\":9129:9137  heirs[i] */\n              dup2\n              sload\n              dup2\n              lt\n              tag_179\n              jumpi\n              tag_179\n              tag_148\n              jump\t// in\n            tag_179:\n              swap1\n              0x00\n              mstore\n              keccak256(0x00, 0x20)\n              swap1\n              0x05\n              mul\n              add\n                /* \"Inheritance.sol\":9129:9148  heirs[i].NFTDeedIds */\n              0x04\n              add\n                /* \"Inheritance.sol\":9122:9148  return heirs[i].NFTDeedIds */\n              dup1\n              sload\n              dup1\n              0x20\n              mul\n              0x20\n              add\n              mload(0x40)\n              swap1\n              dup2\n              add\n              0x40\n              mstore\n              dup1\n              swap3\n              swap2\n              swap1\n              dup2\n              dup2\n              mstore\n              0x20\n              add\n              dup3\n              dup1\n              sload\n              dup1\n              iszero\n              tag_181\n              jumpi\n              0x20\n              mul\n              dup3\n              add\n              swap2\n              swap1\n              0x00\n              mstore\n              keccak256(0x00, 0x20)\n              swap1\n            tag_182:\n              dup2\n              sload\n              dup2\n              mstore\n              0x20\n              add\n              swap1\n              0x01\n              add\n              swap1\n              dup1\n              dup4\n              gt\n              tag_182\n              jumpi\n            tag_181:\n              pop\n              pop\n              pop\n              pop\n              pop\n              swap2\n              pop\n              pop\n                /* \"Inheritance.sol\":8900:9179  function getNFTDeedsByHeirAddress(address heirAddress) public view returns (uint256[] memory nftDeedIds) {... */\n              swap2\n              swap1\n              pop\n              jump\t// out\n                /* \"Inheritance.sol\":9071:9163  if(heirs[i].heir == heirAddress) {... */\n            tag_177:\n                /* \"Inheritance.sol\":9052:9055  i++ */\n              dup1\n              tag_183\n              dup2\n              tag_154\n              jump\t// in\n            tag_183:\n              swap2\n              pop\n              pop\n                /* \"Inheritance.sol\":9015:9173  for(uint256 i = 0; i < heirs.length; i++) {... */\n              jump(tag_171)\n            tag_172:\n              pop\n                /* \"Inheritance.sol\":8900:9179  function getNFTDeedsByHeirAddress(address heirAddress) public view returns (uint256[] memory nftDeedIds) {... */\n              swap2\n              swap1\n              pop\n              jump\t// out\n                /* \"Inheritance.sol\":7982:8092  function getUSDCBalance() public view returns (uint256) {... */\n            tag_55:\n                /* \"Inheritance.sol\":8055:8060  token */\n              sload(0x08)\n                /* \"Inheritance.sol\":8055:8085  token.balanceOf(address(this)) */\n              mload(0x40)\n              shl(0xe0, 0x70a08231)\n              dup2\n              mstore\n                /* \"Inheritance.sol\":8079:8083  this */\n              address\n                /* \"Inheritance.sol\":8055:8085  token.balanceOf(address(this)) */\n              0x04\n              dup3\n              add\n                /* \"#utility.yul\":4353:4404   */\n              mstore\n                /* \"Inheritance.sol\":8029:8036  uint256 */\n              0x00\n              swap2\n              sub(shl(0xa0, 0x01), 0x01)\n                /* \"Inheritance.sol\":8055:8060  token */\n              and\n              swap1\n                /* \"Inheritance.sol\":8055:8070  token.balanceOf */\n              0x70a08231\n              swap1\n                /* \"#utility.yul\":4326:4344   */\n              0x24\n              add\n                /* \"Inheritance.sol\":8055:8085  token.balanceOf(address(this)) */\n              0x20\n              mload(0x40)\n              dup1\n              dup4\n              sub\n              dup2\n              dup7\n              gas\n              staticcall\n              iszero\n              dup1\n              iszero\n              tag_187\n              jumpi\n              returndatasize\n              0x00\n              dup1\n              returndatacopy\n              revert(0x00, returndatasize)\n            tag_187:\n              pop\n              pop\n              pop\n              pop\n              mload(0x40)\n              returndatasize\n              not(0x1f)\n              0x1f\n              dup3\n              add\n              and\n              dup3\n              add\n              dup1\n              0x40\n              mstore\n              pop\n              dup2\n              add\n              swap1\n              tag_188\n              swap2\n              swap1\n              tag_189\n              jump\t// in\n            tag_188:\n                /* \"Inheritance.sol\":8048:8085  return token.balanceOf(address(this)) */\n              swap1\n              pop\n                /* \"Inheritance.sol\":7982:8092  function getUSDCBalance() public view returns (uint256) {... */\n              swap1\n              jump\t// out\n                /* \"Inheritance.sol\":7390:7739  function addNFTDeed(address heirAddress, uint256 tokenId) public onlyOwner {... */\n            tag_62:\n                /* \"@openzeppelin/contracts/access/Ownable.sol\":1094:1107   */\n              tag_191\n                /* \"@openzeppelin/contracts/access/Ownable.sol\":1094:1105   */\n              tag_132\n                /* \"@openzeppelin/contracts/access/Ownable.sol\":1094:1107   */\n              jump\t// in\n            tag_191:\n                /* \"Inheritance.sol\":7479:7488  uint256 i */\n              0x00\n                /* \"Inheritance.sol\":7475:7664  for(uint256 i = 0; i < heirs.length; i++) {... */\n            tag_193:\n                /* \"Inheritance.sol\":7498:7503  heirs */\n              0x04\n                /* \"Inheritance.sol\":7498:7510  heirs.length */\n              sload\n                /* \"Inheritance.sol\":7494:7510  i < heirs.length */\n              dup2\n              lt\n                /* \"Inheritance.sol\":7475:7664  for(uint256 i = 0; i < heirs.length; i++) {... */\n              iszero\n              tag_194\n              jumpi\n                /* \"Inheritance.sol\":7551:7562  heirAddress */\n              dup3\n              sub(shl(0xa0, 0x01), 0x01)\n                /* \"Inheritance.sol\":7534:7562  heirs[i].heir == heirAddress */\n              and\n                /* \"Inheritance.sol\":7534:7539  heirs */\n              0x04\n                /* \"Inheritance.sol\":7540:7541  i */\n              dup3\n                /* \"Inheritance.sol\":7534:7542  heirs[i] */\n              dup2\n              sload\n              dup2\n              lt\n              tag_197\n              jumpi\n              tag_197\n              tag_148\n              jump\t// in\n            tag_197:\n              0x00\n              swap2\n              dup3\n              mstore\n              0x20\n              swap1\n              swap2\n              keccak256\n              0x05\n              swap1\n              swap2\n              mul\n              add\n                /* \"Inheritance.sol\":7534:7547  heirs[i].heir */\n              sload\n              sub(shl(0xa0, 0x01), 0x01)\n              and\n                /* \"Inheritance.sol\":7534:7562  heirs[i].heir == heirAddress */\n              sub\n                /* \"Inheritance.sol\":7531:7654  if(heirs[i].heir == heirAddress) {... */\n              tag_199\n              jumpi\n                /* \"Inheritance.sol\":7582:7587  heirs */\n              0x04\n                /* \"Inheritance.sol\":7588:7589  i */\n              dup2\n                /* \"Inheritance.sol\":7582:7590  heirs[i] */\n              dup2\n              sload\n              dup2\n              lt\n              tag_201\n              jumpi\n              tag_201\n              tag_148\n              jump\t// in\n            tag_201:\n              0x00\n              swap2\n              dup3\n              mstore\n              0x20\n              dup1\n              dup4\n              keccak256\n                /* \"Inheritance.sol\":7582:7601  heirs[i].NFTDeedIds */\n              0x04\n                /* \"Inheritance.sol\":7582:7590  heirs[i] */\n              0x05\n              swap1\n              swap4\n              mul\n              add\n                /* \"Inheritance.sol\":7582:7601  heirs[i].NFTDeedIds */\n              swap2\n              swap1\n              swap2\n              add\n                /* \"Inheritance.sol\":7582:7615  heirs[i].NFTDeedIds.push(tokenId) */\n              dup1\n              sload\n              0x01\n              dup2\n              add\n              dup3\n              sstore\n              swap1\n              dup4\n              mstore\n              swap2\n              keccak256\n              add\n              dup3\n              swap1\n              sstore\n              pop\n                /* \"Inheritance.sol\":4444:4480  payable(msg.sender).transfer(amount) */\n              pop\n                /* \"Inheritance.sol\":4249:4487  function withdraw(uint256 amount) public onlyOwner {... */\n              pop\n              jump\t// out\n                /* \"Inheritance.sol\":7531:7654  if(heirs[i].heir == heirAddress) {... */\n            tag_199:\n                /* \"Inheritance.sol\":7512:7515  i++ */\n              dup1\n              tag_204\n              dup2\n              tag_154\n              jump\t// in\n            tag_204:\n              swap2\n              pop\n              pop\n                /* \"Inheritance.sol\":7475:7664  for(uint256 i = 0; i < heirs.length; i++) {... */\n              jump(tag_193)\n            tag_194:\n              pop\n                /* \"Inheritance.sol\":7673:7732  require(false, \"Not heir address matched to the one sent.\") */\n              mload(0x40)\n              shl(0xe5, 0x461bcd)\n              dup2\n              mstore\n                /* \"#utility.yul\":8379:8381   */\n              0x20\n                /* \"Inheritance.sol\":7673:7732  require(false, \"Not heir address matched to the one sent.\") */\n              0x04\n              dup3\n              add\n                /* \"#utility.yul\":8361:8382   */\n              mstore\n                /* \"#utility.yul\":8418:8420   */\n              0x29\n                /* \"#utility.yul\":8398:8416   */\n              0x24\n              dup3\n              add\n                /* \"#utility.yul\":8391:8421   */\n              mstore\n                /* \"#utility.yul\":8457:8491   */\n              0x4e6f7420686569722061646472657373206d61746368656420746f2074686520\n                /* \"#utility.yul\":8437:8455   */\n              0x44\n              dup3\n              add\n                /* \"#utility.yul\":8430:8492   */\n              mstore\n              shl(0xb9, 0x37b7329039b2b73a17)\n                /* \"#utility.yul\":8508:8526   */\n              0x64\n              dup3\n              add\n                /* \"#utility.yul\":8501:8540   */\n              mstore\n                /* \"#utility.yul\":8557:8576   */\n              0x84\n              add\n                /* \"Inheritance.sol\":7673:7732  require(false, \"Not heir address matched to the one sent.\") */\n              tag_138\n                /* \"#utility.yul\":8177:8582   */\n              jump\n                /* \"Inheritance.sol\":8230:8315  function getHeirs() public view returns (Heir[] memory) {... */\n            tag_65:\n                /* \"Inheritance.sol\":8271:8284  Heir[] memory */\n              0x60\n                /* \"Inheritance.sol\":8303:8308  heirs */\n              0x04\n                /* \"Inheritance.sol\":8296:8308  return heirs */\n              dup1\n              sload\n              dup1\n              0x20\n              mul\n              0x20\n              add\n              mload(0x40)\n              swap1\n              dup2\n              add\n              0x40\n              mstore\n              dup1\n              swap3\n              swap2\n              swap1\n              dup2\n              dup2\n              mstore\n              0x20\n              add\n              0x00\n              swap1\n            tag_209:\n              dup3\n              dup3\n              lt\n              iszero\n              tag_210\n              jumpi\n              0x00\n              dup5\n              dup2\n              mstore\n              0x20\n              swap1\n              dup2\n              swap1\n              keccak256\n              0x40\n              dup1\n              mload\n              0xa0\n              dup2\n              add\n              dup3\n              mstore\n              0x05\n              dup7\n              mul\n              swap1\n              swap3\n              add\n              dup1\n              sload\n              sub(shl(0xa0, 0x01), 0x01)\n              and\n              dup4\n              mstore\n              0x01\n              dup2\n              add\n              sload\n              dup4\n              dup6\n              add\n              mstore\n              0x02\n              dup2\n              add\n              sload\n              dup4\n              dup4\n              add\n              mstore\n              0x03\n              dup2\n              add\n              sload\n              0x60\n              dup5\n              add\n              mstore\n              0x04\n              dup2\n              add\n              dup1\n              sload\n              dup4\n              mload\n              dup2\n              dup8\n              mul\n              dup2\n              add\n              dup8\n              add\n              swap1\n              swap5\n              mstore\n              dup1\n              dup5\n              mstore\n              swap4\n              swap5\n              swap2\n              swap4\n              0x80\n              dup7\n              add\n              swap4\n              swap3\n              dup4\n              add\n              dup3\n              dup3\n              dup1\n              iszero\n              tag_212\n              jumpi\n              0x20\n              mul\n              dup3\n              add\n              swap2\n              swap1\n              0x00\n              mstore\n              keccak256(0x00, 0x20)\n              swap1\n            tag_213:\n              dup2\n              sload\n              dup2\n              mstore\n              0x20\n              add\n              swap1\n              0x01\n              add\n              swap1\n              dup1\n              dup4\n              gt\n              tag_213\n              jumpi\n            tag_212:\n              pop\n              pop\n              pop\n              pop\n              pop\n              dup2\n              mstore\n              pop\n              pop\n              dup2\n              mstore\n              0x20\n              add\n              swap1\n              0x01\n              add\n              swap1\n              jump(tag_209)\n            tag_210:\n              pop\n              pop\n              pop\n              pop\n              swap1\n              pop\n                /* \"Inheritance.sol\":8230:8315  function getHeirs() public view returns (Heir[] memory) {... */\n              swap1\n              jump\t// out\n                /* \"@openzeppelin/contracts/access/Ownable.sol\":1831:1932   */\n            tag_70:\n                /* \"@openzeppelin/contracts/access/Ownable.sol\":1094:1107   */\n              tag_215\n                /* \"@openzeppelin/contracts/access/Ownable.sol\":1094:1105   */\n              tag_132\n                /* \"@openzeppelin/contracts/access/Ownable.sol\":1094:1107   */\n              jump\t// in\n            tag_215:\n                /* \"@openzeppelin/contracts/access/Ownable.sol\":1895:1925   */\n              tag_217\n                /* \"@openzeppelin/contracts/access/Ownable.sol\":1922:1923   */\n              0x00\n                /* \"@openzeppelin/contracts/access/Ownable.sol\":1895:1913   */\n              tag_218\n                /* \"@openzeppelin/contracts/access/Ownable.sol\":1895:1925   */\n              jump\t// in\n            tag_217:\n                /* \"@openzeppelin/contracts/access/Ownable.sol\":1831:1932   */\n              jump\t// out\n                /* \"Inheritance.sol\":5167:5586  function acceptInheritanceRequest(uint index, address requester, uint256 share) public onlyOwner acceptInheritanceValidations(index, requester, share) {... */\n            tag_75:\n                /* \"@openzeppelin/contracts/access/Ownable.sol\":1094:1107   */\n              tag_220\n                /* \"@openzeppelin/contracts/access/Ownable.sol\":1094:1105   */\n              tag_132\n                /* \"@openzeppelin/contracts/access/Ownable.sol\":1094:1107   */\n              jump\t// in\n            tag_220:\n                /* \"Inheritance.sol\":5293:5298  index */\n              dup3\n                /* \"Inheritance.sol\":5300:5309  requester */\n              dup3\n                /* \"Inheritance.sol\":5311:5316  share */\n              dup3\n                /* \"Inheritance.sol\":9744:9763  inheritanceRequests */\n              0x05\n                /* \"Inheritance.sol\":9744:9770  inheritanceRequests.length */\n              dup1\n              sload\n              swap1\n              pop\n                /* \"Inheritance.sol\":9736:9741  index */\n              dup4\n                /* \"Inheritance.sol\":9736:9770  index < inheritanceRequests.length */\n              lt\n                /* \"Inheritance.sol\":9728:9831  require(index < inheritanceRequests.length, \"The index sent is bigger than the requests array length.\") */\n              tag_222\n              jumpi\n              mload(0x40)\n              shl(0xe5, 0x461bcd)\n              dup2\n              mstore\n              0x04\n              add\n              tag_138\n              swap1\n              tag_224\n              jump\t// in\n            tag_222:\n                /* \"Inheritance.sol\":9879:9883  addr */\n              dup2\n              sub(shl(0xa0, 0x01), 0x01)\n                /* \"Inheritance.sol\":9849:9883  inheritanceRequests[index] == addr */\n              and\n                /* \"Inheritance.sol\":9849:9868  inheritanceRequests */\n              0x05\n                /* \"Inheritance.sol\":9869:9874  index */\n              dup5\n                /* \"Inheritance.sol\":9849:9875  inheritanceRequests[index] */\n              dup2\n              sload\n              dup2\n              lt\n              tag_226\n              jumpi\n              tag_226\n              tag_148\n              jump\t// in\n            tag_226:\n              0x00\n              swap2\n              dup3\n              mstore\n              0x20\n              swap1\n              swap2\n              keccak256\n              add\n              sload\n              sub(shl(0xa0, 0x01), 0x01)\n              and\n                /* \"Inheritance.sol\":9849:9883  inheritanceRequests[index] == addr */\n              eq\n                /* \"Inheritance.sol\":9841:9961  require(inheritanceRequests[index] == addr, \"Address sent doesn't match with the address stored in the requests array.\") */\n              tag_228\n              jumpi\n              mload(0x40)\n              shl(0xe5, 0x461bcd)\n              dup2\n              mstore\n              0x04\n              add\n              tag_138\n              swap1\n              tag_230\n              jump\t// in\n            tag_228:\n                /* \"Inheritance.sol\":9972:9991  uint256 totalShares */\n              0x00\n                /* \"Inheritance.sol\":10009:10015  uint i */\n              dup1\n                /* \"Inheritance.sol\":10005:10184  for(uint i = 0; i < heirs.length; i++) {... */\n            tag_231:\n                /* \"Inheritance.sol\":10025:10030  heirs */\n              0x04\n                /* \"Inheritance.sol\":10025:10037  heirs.length */\n              sload\n                /* \"Inheritance.sol\":10021:10037  i < heirs.length */\n              dup2\n              lt\n                /* \"Inheritance.sol\":10005:10184  for(uint i = 0; i < heirs.length; i++) {... */\n              iszero\n              tag_232\n              jumpi\n                /* \"Inheritance.sol\":10083:10087  addr */\n              dup4\n              sub(shl(0xa0, 0x01), 0x01)\n                /* \"Inheritance.sol\":10066:10087  heirs[i].heir != addr */\n              and\n                /* \"Inheritance.sol\":10066:10071  heirs */\n              0x04\n                /* \"Inheritance.sol\":10072:10073  i */\n              dup3\n                /* \"Inheritance.sol\":10066:10074  heirs[i] */\n              dup2\n              sload\n              dup2\n              lt\n              tag_235\n              jumpi\n              tag_235\n              tag_148\n              jump\t// in\n            tag_235:\n              0x00\n              swap2\n              dup3\n              mstore\n              0x20\n              swap1\n              swap2\n              keccak256\n              0x05\n              swap1\n              swap2\n              mul\n              add\n                /* \"Inheritance.sol\":10066:10079  heirs[i].heir */\n              sload\n              sub(shl(0xa0, 0x01), 0x01)\n              and\n                /* \"Inheritance.sol\":10066:10087  heirs[i].heir != addr */\n              sub\n                /* \"Inheritance.sol\":10058:10130  require(heirs[i].heir != addr, \"Address already exists in heirs array.\") */\n              tag_237\n              jumpi\n              mload(0x40)\n              shl(0xe5, 0x461bcd)\n              dup2\n              mstore\n                /* \"#utility.yul\":9696:9698   */\n              0x20\n                /* \"Inheritance.sol\":10058:10130  require(heirs[i].heir != addr, \"Address already exists in heirs array.\") */\n              0x04\n              dup3\n              add\n                /* \"#utility.yul\":9678:9699   */\n              mstore\n                /* \"#utility.yul\":9735:9737   */\n              0x26\n                /* \"#utility.yul\":9715:9733   */\n              0x24\n              dup3\n              add\n                /* \"#utility.yul\":9708:9738   */\n              mstore\n                /* \"#utility.yul\":9774:9808   */\n              0x4164647265737320616c72656164792065786973747320696e20686569727320\n                /* \"#utility.yul\":9754:9772   */\n              0x44\n              dup3\n              add\n                /* \"#utility.yul\":9747:9809   */\n              mstore\n              shl(0xd1, 0x30b93930bc97)\n                /* \"#utility.yul\":9825:9843   */\n              0x64\n              dup3\n              add\n                /* \"#utility.yul\":9818:9854   */\n              mstore\n                /* \"#utility.yul\":9871:9890   */\n              0x84\n              add\n                /* \"Inheritance.sol\":10058:10130  require(heirs[i].heir != addr, \"Address already exists in heirs array.\") */\n              tag_138\n                /* \"#utility.yul\":9494:9896   */\n              jump\n                /* \"Inheritance.sol\":10058:10130  require(heirs[i].heir != addr, \"Address already exists in heirs array.\") */\n            tag_237:\n                /* \"Inheritance.sol\":10159:10164  heirs */\n              0x04\n                /* \"Inheritance.sol\":10165:10166  i */\n              dup2\n                /* \"Inheritance.sol\":10159:10167  heirs[i] */\n              dup2\n              sload\n              dup2\n              lt\n              tag_241\n              jumpi\n              tag_241\n              tag_148\n              jump\t// in\n            tag_241:\n              swap1\n              0x00\n              mstore\n              keccak256(0x00, 0x20)\n              swap1\n              0x05\n              mul\n              add\n                /* \"Inheritance.sol\":10159:10173  heirs[i].share */\n              0x01\n              add\n              sload\n                /* \"Inheritance.sol\":10144:10173  totalShares += heirs[i].share */\n              dup3\n              tag_243\n              swap2\n              swap1\n              tag_244\n              jump\t// in\n            tag_243:\n              swap2\n              pop\n                /* \"Inheritance.sol\":10039:10042  i++ */\n              dup1\n              tag_245\n              dup2\n              tag_154\n              jump\t// in\n            tag_245:\n              swap2\n              pop\n              pop\n                /* \"Inheritance.sol\":10005:10184  for(uint i = 0; i < heirs.length; i++) {... */\n              jump(tag_231)\n            tag_232:\n              pop\n                /* \"Inheritance.sol\":10227:10230  100 */\n              0x64\n                /* \"Inheritance.sol\":10203:10222  totalShares + share */\n              tag_246\n                /* \"Inheritance.sol\":10217:10222  share */\n              dup4\n                /* \"Inheritance.sol\":10203:10214  totalShares */\n              dup4\n                /* \"Inheritance.sol\":10203:10222  totalShares + share */\n              tag_244\n              jump\t// in\n            tag_246:\n                /* \"Inheritance.sol\":10202:10230  (totalShares + share) <= 100 */\n              gt\n              iszero\n                /* \"Inheritance.sol\":10194:10327  require((totalShares + share) <= 100, \"the amount of shares exceed the 100% of the Inheritance, try with a smaller amount of share.\") */\n              tag_247\n              jumpi\n              mload(0x40)\n              shl(0xe5, 0x461bcd)\n              dup2\n              mstore\n                /* \"#utility.yul\":10233:10235   */\n              0x20\n                /* \"Inheritance.sol\":10194:10327  require((totalShares + share) <= 100, \"the amount of shares exceed the 100% of the Inheritance, try with a smaller amount of share.\") */\n              0x04\n              dup3\n              add\n                /* \"#utility.yul\":10215:10236   */\n              mstore\n                /* \"#utility.yul\":10272:10274   */\n              0x5c\n                /* \"#utility.yul\":10252:10270   */\n              0x24\n              dup3\n              add\n                /* \"#utility.yul\":10245:10275   */\n              mstore\n                /* \"#utility.yul\":10311:10345   */\n              0x74686520616d6f756e74206f6620736861726573206578636565642074686520\n                /* \"#utility.yul\":10291:10309   */\n              0x44\n              dup3\n              add\n                /* \"#utility.yul\":10284:10346   */\n              mstore\n                /* \"#utility.yul\":10382:10416   */\n              0x31303025206f662074686520496e6865726974616e63652c2074727920776974\n                /* \"#utility.yul\":10362:10380   */\n              0x64\n              dup3\n              add\n                /* \"#utility.yul\":10355:10417   */\n              mstore\n                /* \"#utility.yul\":10454:10484   */\n              0x68206120736d616c6c657220616d6f756e74206f662073686172652e00000000\n                /* \"#utility.yul\":10433:10452   */\n              0x84\n              dup3\n              add\n                /* \"#utility.yul\":10426:10485   */\n              mstore\n                /* \"#utility.yul\":10502:10521   */\n              0xa4\n              add\n                /* \"Inheritance.sol\":10194:10327  require((totalShares + share) <= 100, \"the amount of shares exceed the 100% of the Inheritance, try with a smaller amount of share.\") */\n              tag_138\n                /* \"#utility.yul\":10031:10527   */\n              jump\n                /* \"Inheritance.sol\":10194:10327  require((totalShares + share) <= 100, \"the amount of shares exceed the 100% of the Inheritance, try with a smaller amount of share.\") */\n            tag_247:\n                /* \"Inheritance.sol\":5376:5416  Heir(requester, share, 0, 0, emptyArray) */\n              0x40\n              dup1\n              mload\n              0xa0\n              dup2\n              add\n              dup3\n              mstore\n              sub(shl(0xa0, 0x01), 0x01)\n              dup9\n              dup2\n              and\n              dup3\n              mstore\n              0x20\n              dup1\n              dup4\n              add\n              dup10\n              dup2\n              mstore\n              0x00\n              swap5\n              dup5\n              add\n              dup6\n              dup2\n              mstore\n                /* \"Inheritance.sol\":5328:5355  uint256[] memory emptyArray */\n              0x60\n                /* \"Inheritance.sol\":5376:5416  Heir(requester, share, 0, 0, emptyArray) */\n              dup1\n              dup7\n              add\n              dup8\n              dup2\n              mstore\n              0x80\n              dup8\n              add\n              dup3\n              dup2\n              mstore\n                /* \"Inheritance.sol\":5365:5370  heirs */\n              0x04\n                /* \"Inheritance.sol\":5365:5417  heirs.push(Heir(requester, share, 0, 0, emptyArray)) */\n              dup1\n              sload\n              0x01\n              dup2\n              add\n              dup3\n              sstore\n              swap10\n              mstore\n              dup8\n              mload\n              0x8a35acfbc15ff81a39ae7d344fd709f28e8600b4aa8c65c6b64bfe7fe36bd19b\n              0x05\n              swap1\n              swap11\n              mul\n              swap10\n              dup11\n              add\n              dup1\n              sload\n              not(sub(shl(0xa0, 0x01), 0x01))\n              and\n              swap2\n              swap1\n              swap9\n              and\n              or\n              dup8\n              sstore\n              swap4\n              mload\n              0x8a35acfbc15ff81a39ae7d344fd709f28e8600b4aa8c65c6b64bfe7fe36bd19c\n              dup10\n              add\n              sstore\n              swap2\n              mload\n              0x8a35acfbc15ff81a39ae7d344fd709f28e8600b4aa8c65c6b64bfe7fe36bd19d\n              dup9\n              add\n              sstore\n              swap1\n              mload\n              0x8a35acfbc15ff81a39ae7d344fd709f28e8600b4aa8c65c6b64bfe7fe36bd19e\n              dup8\n              add\n              sstore\n              swap1\n              mload\n              dup1\n              mload\n                /* \"Inheritance.sol\":5328:5355  uint256[] memory emptyArray */\n              swap2\n              swap6\n                /* \"Inheritance.sol\":5365:5417  heirs.push(Heir(requester, share, 0, 0, emptyArray)) */\n              tag_252\n              swap4\n              0x8a35acfbc15ff81a39ae7d344fd709f28e8600b4aa8c65c6b64bfe7fe36bd19f\n              swap1\n              swap2\n              add\n              swap3\n              swap2\n              add\n              swap1\n              tag_253\n              jump\t// in\n            tag_252:\n              pop\n              pop\n              pop\n                /* \"Inheritance.sol\":5427:5447  removeRequest(index) */\n              tag_254\n                /* \"Inheritance.sol\":5441:5446  index */\n              dup9\n                /* \"Inheritance.sol\":5427:5440  removeRequest */\n              tag_255\n                /* \"Inheritance.sol\":5427:5447  removeRequest(index) */\n              jump\t// in\n            tag_254:\n                /* \"Inheritance.sol\":5538:5557  inheritanceRequests */\n              0x05\n                /* \"Inheritance.sol\":5538:5564  inheritanceRequests.length */\n              sload\n                /* \"Inheritance.sol\":5566:5571  heirs */\n              0x04\n                /* \"Inheritance.sol\":5566:5578  heirs.length */\n              sload\n                /* \"Inheritance.sol\":5462:5579  LogHeirAccepted(\"Administrator accepts user as an heir.\", requester, share, inheritanceRequests.length, heirs.length) */\n              0x40\n              dup1\n              mload\n                /* \"#utility.yul\":10818:10821   */\n              0x80\n                /* \"#utility.yul\":10800:10822   */\n              dup1\n              dup3\n              mstore\n                /* \"#utility.yul\":10859:10861   */\n              0x26\n                /* \"#utility.yul\":10838:10857   */\n              swap1\n              dup3\n              add\n                /* \"#utility.yul\":10831:10862   */\n              mstore\n                /* \"#utility.yul\":10899:10933   */\n              0x41646d696e6973747261746f722061636365707473207573657220617320616e\n                /* \"#utility.yul\":10893:10896   */\n              0xa0\n                /* \"#utility.yul\":10878:10897   */\n              dup3\n              add\n                /* \"#utility.yul\":10871:10934   */\n              mstore\n              shl(0xd1, 0x103432b4b917)\n                /* \"#utility.yul\":10965:10968   */\n              0xc0\n                /* \"#utility.yul\":10950:10969   */\n              dup3\n              add\n                /* \"#utility.yul\":10943:10980   */\n              mstore\n                /* \"#utility.yul\":11047:11051   */\n              0x20\n                /* \"#utility.yul\":11032:11052   */\n              dup2\n              add\n                /* \"#utility.yul\":11025:11061   */\n              dup11\n              swap1\n              mstore\n                /* \"#utility.yul\":11077:11095   */\n              swap1\n              dup2\n              add\n                /* \"#utility.yul\":11070:11104   */\n              swap3\n              swap1\n              swap3\n              mstore\n              0x60\n                /* \"#utility.yul\":11120:11138   */\n              dup3\n              add\n                /* \"#utility.yul\":11113:11147   */\n              mstore\n              sub(shl(0xa0, 0x01), 0x01)\n                /* \"Inheritance.sol\":5462:5579  LogHeirAccepted(\"Administrator accepts user as an heir.\", requester, share, inheritanceRequests.length, heirs.length) */\n              dup9\n              and\n              swap1\n              0x14aa904c12fa948b33e901e688a79d46fe3d46a383a5b181c26475cec40d67ec\n              swap1\n                /* \"#utility.yul\":11012:11015   */\n              0xe0\n                /* \"#utility.yul\":10997:11016   */\n              add\n                /* \"Inheritance.sol\":5462:5579  LogHeirAccepted(\"Administrator accepts user as an heir.\", requester, share, inheritanceRequests.length, heirs.length) */\n              mload(0x40)\n              dup1\n              swap2\n              sub\n              swap1\n              log2\n                /* \"Inheritance.sol\":5318:5586  {... */\n              pop\n                /* \"Inheritance.sol\":9718:10345  {... */\n              pop\n                /* \"@openzeppelin/contracts/access/Ownable.sol\":1117:1118   */\n              pop\n              pop\n              pop\n                /* \"Inheritance.sol\":5167:5586  function acceptInheritanceRequest(uint index, address requester, uint256 share) public onlyOwner acceptInheritanceValidations(index, requester, share) {... */\n              pop\n              pop\n              pop\n              jump\t// out\n                /* \"Inheritance.sol\":6143:7384  function claimInheritance() public isHeir(msg.sender) {... */\n            tag_83:\n                /* \"Inheritance.sol\":6185:6195  msg.sender */\n              caller\n                /* \"Inheritance.sol\":10729:10743  bool isPresent */\n              0x00\n                /* \"Inheritance.sol\":10765:10771  uint i */\n              dup1\n                /* \"Inheritance.sol\":10761:10899  for(uint i = 0; i < heirs.length; i++) {... */\n            tag_260:\n                /* \"Inheritance.sol\":10781:10786  heirs */\n              0x04\n                /* \"Inheritance.sol\":10781:10793  heirs.length */\n              sload\n                /* \"Inheritance.sol\":10777:10793  i < heirs.length */\n              dup2\n              lt\n                /* \"Inheritance.sol\":10761:10899  for(uint i = 0; i < heirs.length; i++) {... */\n              iszero\n              tag_261\n              jumpi\n                /* \"Inheritance.sol\":10834:10838  addr */\n              dup3\n              sub(shl(0xa0, 0x01), 0x01)\n                /* \"Inheritance.sol\":10817:10838  heirs[i].heir == addr */\n              and\n                /* \"Inheritance.sol\":10817:10822  heirs */\n              0x04\n                /* \"Inheritance.sol\":10823:10824  i */\n              dup3\n                /* \"Inheritance.sol\":10817:10825  heirs[i] */\n              dup2\n              sload\n              dup2\n              lt\n              tag_264\n              jumpi\n              tag_264\n              tag_148\n              jump\t// in\n            tag_264:\n              0x00\n              swap2\n              dup3\n              mstore\n              0x20\n              swap1\n              swap2\n              keccak256\n              0x05\n              swap1\n              swap2\n              mul\n              add\n                /* \"Inheritance.sol\":10817:10830  heirs[i].heir */\n              sload\n              sub(shl(0xa0, 0x01), 0x01)\n              and\n                /* \"Inheritance.sol\":10817:10838  heirs[i].heir == addr */\n              sub\n                /* \"Inheritance.sol\":10814:10889  if(heirs[i].heir == addr) {... */\n              tag_266\n              jumpi\n                /* \"Inheritance.sol\":10870:10874  true */\n              0x01\n                /* \"Inheritance.sol\":10858:10874  isPresent = true */\n              swap2\n              pop\n                /* \"Inheritance.sol\":10814:10889  if(heirs[i].heir == addr) {... */\n            tag_266:\n                /* \"Inheritance.sol\":10795:10798  i++ */\n              dup1\n              tag_267\n              dup2\n              tag_154\n              jump\t// in\n            tag_267:\n              swap2\n              pop\n              pop\n                /* \"Inheritance.sol\":10761:10899  for(uint i = 0; i < heirs.length; i++) {... */\n              jump(tag_260)\n            tag_261:\n              pop\n                /* \"Inheritance.sol\":10929:10933  true */\n              0x01\n                /* \"Inheritance.sol\":10916:10933  isPresent == true */\n              dup2\n              iszero\n              iszero\n              eq\n                /* \"Inheritance.sol\":10908:10989  require(isPresent == true, \"The address claiming the inheritance is not a Heir.\") */\n              tag_268\n              jumpi\n              mload(0x40)\n              shl(0xe5, 0x461bcd)\n              dup2\n              mstore\n                /* \"#utility.yul\":11360:11362   */\n              0x20\n                /* \"Inheritance.sol\":10908:10989  require(isPresent == true, \"The address claiming the inheritance is not a Heir.\") */\n              0x04\n              dup3\n              add\n                /* \"#utility.yul\":11342:11363   */\n              mstore\n                /* \"#utility.yul\":11399:11401   */\n              0x33\n                /* \"#utility.yul\":11379:11397   */\n              0x24\n              dup3\n              add\n                /* \"#utility.yul\":11372:11402   */\n              mstore\n                /* \"#utility.yul\":11438:11472   */\n              0x546865206164647265737320636c61696d696e672074686520696e6865726974\n                /* \"#utility.yul\":11418:11436   */\n              0x44\n              dup3\n              add\n                /* \"#utility.yul\":11411:11473   */\n              mstore\n              shl(0x69, 0x30b731b29034b9903737ba1030902432b4b917)\n                /* \"#utility.yul\":11489:11507   */\n              0x64\n              dup3\n              add\n                /* \"#utility.yul\":11482:11531   */\n              mstore\n                /* \"#utility.yul\":11548:11567   */\n              0x84\n              add\n                /* \"Inheritance.sol\":10908:10989  require(isPresent == true, \"The address claiming the inheritance is not a Heir.\") */\n              tag_138\n                /* \"#utility.yul\":11158:11573   */\n              jump\n                /* \"Inheritance.sol\":10908:10989  require(isPresent == true, \"The address claiming the inheritance is not a Heir.\") */\n            tag_268:\n                /* \"Inheritance.sol\":6212:6233  isAdministratorDead() */\n              tag_272\n                /* \"Inheritance.sol\":6212:6231  isAdministratorDead */\n              tag_30\n                /* \"Inheritance.sol\":6212:6233  isAdministratorDead() */\n              jump\t// in\n            tag_272:\n                /* \"Inheritance.sol\":6208:7378  if (isAdministratorDead()) {... */\n              iszero\n              tag_169\n              jumpi\n                /* \"Inheritance.sol\":6249:6272  uint256 usdcInheritance */\n              0x00\n                /* \"Inheritance.sol\":6275:6291  getUSDCBalance() */\n              tag_274\n                /* \"Inheritance.sol\":6275:6289  getUSDCBalance */\n              tag_55\n                /* \"Inheritance.sol\":6275:6291  getUSDCBalance() */\n              jump\t// in\n            tag_274:\n                /* \"Inheritance.sol\":6249:6291  uint256 usdcInheritance = getUSDCBalance() */\n              swap1\n              pop\n                /* \"Inheritance.sol\":7948:7969  address(this).balance */\n              selfbalance\n                /* \"Inheritance.sol\":6305:6329  uint256 etherInheritance */\n              0x00\n                /* \"Inheritance.sol\":6386:6402  getTotalShares() */\n              tag_276\n                /* \"Inheritance.sol\":6386:6400  getTotalShares */\n              tag_95\n                /* \"Inheritance.sol\":6386:6402  getTotalShares() */\n              jump\t// in\n            tag_276:\n                /* \"Inheritance.sol\":6364:6402  uint256 totalShares = getTotalShares() */\n              swap1\n              pop\n                /* \"Inheritance.sol\":6422:6428  uint i */\n              0x00\n                /* \"Inheritance.sol\":6417:6660  for (uint i = 0; i < heirs.length; i++) {... */\n            tag_277:\n                /* \"Inheritance.sol\":6438:6443  heirs */\n              0x04\n                /* \"Inheritance.sol\":6438:6450  heirs.length */\n              sload\n                /* \"Inheritance.sol\":6434:6450  i < heirs.length */\n              dup2\n              lt\n                /* \"Inheritance.sol\":6417:6660  for (uint i = 0; i < heirs.length; i++) {... */\n              iszero\n              tag_278\n              jumpi\n                /* \"Inheritance.sol\":6539:6550  totalShares */\n              dup2\n                /* \"Inheritance.sol\":6520:6535  usdcInheritance */\n              dup5\n                /* \"Inheritance.sol\":6503:6508  heirs */\n              0x04\n                /* \"Inheritance.sol\":6509:6510  i */\n              dup4\n                /* \"Inheritance.sol\":6503:6511  heirs[i] */\n              dup2\n              sload\n              dup2\n              lt\n              tag_281\n              jumpi\n              tag_281\n              tag_148\n              jump\t// in\n            tag_281:\n              swap1\n              0x00\n              mstore\n              keccak256(0x00, 0x20)\n              swap1\n              0x05\n              mul\n              add\n                /* \"Inheritance.sol\":6503:6517  heirs[i].share */\n              0x01\n              add\n              sload\n                /* \"Inheritance.sol\":6503:6535  heirs[i].share * usdcInheritance */\n              tag_283\n              swap2\n              swap1\n              tag_284\n              jump\t// in\n            tag_283:\n                /* \"Inheritance.sol\":6502:6550  (heirs[i].share * usdcInheritance) / totalShares */\n              tag_285\n              swap2\n              swap1\n              tag_286\n              jump\t// in\n            tag_285:\n                /* \"Inheritance.sol\":6475:6484  heirsUSDC */\n              0x06\n                /* \"Inheritance.sol\":6475:6499  heirsUSDC[heirs[i].heir] */\n              0x00\n                /* \"Inheritance.sol\":6485:6490  heirs */\n              0x04\n                /* \"Inheritance.sol\":6491:6492  i */\n              dup5\n                /* \"Inheritance.sol\":6485:6493  heirs[i] */\n              dup2\n              sload\n              dup2\n              lt\n              tag_288\n              jumpi\n              tag_288\n              tag_148\n              jump\t// in\n            tag_288:\n              0x00\n              swap2\n              dup3\n              mstore\n              0x20\n              dup1\n              dup4\n              keccak256\n              0x05\n              swap1\n              swap3\n              mul\n              swap1\n              swap2\n              add\n                /* \"Inheritance.sol\":6485:6498  heirs[i].heir */\n              sload\n              sub(shl(0xa0, 0x01), 0x01)\n              and\n                /* \"Inheritance.sol\":6475:6499  heirsUSDC[heirs[i].heir] */\n              dup4\n              mstore\n              dup3\n              add\n              swap3\n              swap1\n              swap3\n              mstore\n              0x40\n              add\n              swap1\n              keccak256\n                /* \"Inheritance.sol\":6475:6550  heirsUSDC[heirs[i].heir] = (heirs[i].share * usdcInheritance) / totalShares */\n              sstore\n                /* \"Inheritance.sol\":6597:6602  heirs */\n              0x04\n                /* \"Inheritance.sol\":6597:6605  heirs[i] */\n              dup1\n              sload\n                /* \"Inheritance.sol\":6634:6645  totalShares */\n              dup4\n              swap2\n                /* \"Inheritance.sol\":6614:6630  etherInheritance */\n              dup6\n              swap2\n                /* \"Inheritance.sol\":6603:6604  i */\n              dup5\n              swap1\n                /* \"Inheritance.sol\":6597:6605  heirs[i] */\n              dup2\n              lt\n              tag_291\n              jumpi\n              tag_291\n              tag_148\n              jump\t// in\n            tag_291:\n              swap1\n              0x00\n              mstore\n              keccak256(0x00, 0x20)\n              swap1\n              0x05\n              mul\n              add\n                /* \"Inheritance.sol\":6597:6611  heirs[i].share */\n              0x01\n              add\n              sload\n                /* \"Inheritance.sol\":6597:6630  heirs[i].share * etherInheritance */\n              tag_293\n              swap2\n              swap1\n              tag_284\n              jump\t// in\n            tag_293:\n                /* \"Inheritance.sol\":6596:6645  (heirs[i].share * etherInheritance) / totalShares */\n              tag_294\n              swap2\n              swap1\n              tag_286\n              jump\t// in\n            tag_294:\n                /* \"Inheritance.sol\":6568:6578  heirsEther */\n              0x07\n                /* \"Inheritance.sol\":6568:6593  heirsEther[heirs[i].heir] */\n              0x00\n                /* \"Inheritance.sol\":6579:6584  heirs */\n              0x04\n                /* \"Inheritance.sol\":6585:6586  i */\n              dup5\n                /* \"Inheritance.sol\":6579:6587  heirs[i] */\n              dup2\n              sload\n              dup2\n              lt\n              tag_296\n              jumpi\n              tag_296\n              tag_148\n              jump\t// in\n            tag_296:\n              0x00\n              swap2\n              dup3\n              mstore\n              0x20\n              dup1\n              dup4\n              keccak256\n              0x05\n              swap1\n              swap3\n              mul\n              swap1\n              swap2\n              add\n                /* \"Inheritance.sol\":6579:6592  heirs[i].heir */\n              sload\n              sub(shl(0xa0, 0x01), 0x01)\n              and\n                /* \"Inheritance.sol\":6568:6593  heirsEther[heirs[i].heir] */\n              dup4\n              mstore\n              dup3\n              add\n              swap3\n              swap1\n              swap3\n              mstore\n              0x40\n              add\n              swap1\n              keccak256\n                /* \"Inheritance.sol\":6568:6645  heirsEther[heirs[i].heir] = (heirs[i].share * etherInheritance) / totalShares */\n              sstore\n                /* \"Inheritance.sol\":6452:6455  i++ */\n              dup1\n              tag_298\n              dup2\n              tag_154\n              jump\t// in\n            tag_298:\n              swap2\n              pop\n              pop\n                /* \"Inheritance.sol\":6417:6660  for (uint i = 0; i < heirs.length; i++) {... */\n              jump(tag_277)\n            tag_278:\n              pop\n                /* \"Inheritance.sol\":6674:6693  address heirAddress */\n              0x00\n              dup1\n                /* \"Inheritance.sol\":6707:7368  for (uint i = 0; i < heirs.length; i++) {... */\n            tag_299:\n                /* \"Inheritance.sol\":6728:6733  heirs */\n              0x04\n                /* \"Inheritance.sol\":6728:6740  heirs.length */\n              sload\n                /* \"Inheritance.sol\":6724:6740  i < heirs.length */\n              dup2\n              lt\n                /* \"Inheritance.sol\":6707:7368  for (uint i = 0; i < heirs.length; i++) {... */\n              iszero\n              tag_300\n              jumpi\n                /* \"Inheritance.sol\":6779:6784  heirs */\n              0x04\n                /* \"Inheritance.sol\":6785:6786  i */\n              dup2\n                /* \"Inheritance.sol\":6779:6787  heirs[i] */\n              dup2\n              sload\n              dup2\n              lt\n              tag_303\n              jumpi\n              tag_303\n              tag_148\n              jump\t// in\n            tag_303:\n              0x00\n              swap2\n              dup3\n              mstore\n              0x20\n              dup1\n              dup4\n              keccak256\n              0x05\n              swap1\n              swap3\n              mul\n              swap1\n              swap2\n              add\n                /* \"Inheritance.sol\":6779:6792  heirs[i].heir */\n              sload\n              sub(shl(0xa0, 0x01), 0x01)\n              and\n                /* \"Inheritance.sol\":6841:6864  heirsEther[heirAddress] */\n              dup1\n              dup4\n              mstore\n                /* \"Inheritance.sol\":6841:6851  heirsEther */\n              0x07\n                /* \"Inheritance.sol\":6841:6864  heirsEther[heirAddress] */\n              swap1\n              swap2\n              mstore\n              0x40\n              dup1\n              dup4\n              keccak256\n              sload\n                /* \"Inheritance.sol\":6811:6865  payable(heirAddress).transfer(heirsEther[heirAddress]) */\n              swap1\n              mload\n                /* \"Inheritance.sol\":6779:6792  heirs[i].heir */\n              swap2\n              swap5\n              pop\n              dup5\n              swap3\n                /* \"Inheritance.sol\":6811:6865  payable(heirAddress).transfer(heirsEther[heirAddress]) */\n              dup2\n              iszero\n              0x08fc\n              mul\n              swap3\n              swap1\n              dup2\n                /* \"Inheritance.sol\":6779:6787  heirs[i] */\n              dup2\n                /* \"Inheritance.sol\":6811:6865  payable(heirAddress).transfer(heirsEther[heirAddress]) */\n              dup2\n                /* \"Inheritance.sol\":6841:6864  heirsEther[heirAddress] */\n              dup6\n                /* \"Inheritance.sol\":6779:6792  heirs[i].heir */\n              dup9\n                /* \"Inheritance.sol\":6811:6865  payable(heirAddress).transfer(heirsEther[heirAddress]) */\n              dup9\n              call\n              swap4\n              pop\n              pop\n              pop\n              pop\n              iszero\n              dup1\n              iszero\n              tag_306\n              jumpi\n              returndatasize\n              0x00\n              dup1\n              returndatacopy\n              revert(0x00, returndatasize)\n            tag_306:\n              pop\n              sub(shl(0xa0, 0x01), 0x01)\n                /* \"Inheritance.sol\":6907:6930  heirsEther[heirAddress] */\n              dup3\n              and\n              0x00\n              swap1\n              dup2\n              mstore\n                /* \"Inheritance.sol\":6907:6917  heirsEther */\n              0x07\n                /* \"Inheritance.sol\":6907:6930  heirsEther[heirAddress] */\n              0x20\n              mstore\n              0x40\n              swap1\n              keccak256\n              sload\n                /* \"Inheritance.sol\":6883:6888  heirs */\n              0x04\n                /* \"Inheritance.sol\":6883:6891  heirs[i] */\n              dup1\n              sload\n                /* \"Inheritance.sol\":6889:6890  i */\n              dup4\n              swap1\n                /* \"Inheritance.sol\":6883:6891  heirs[i] */\n              dup2\n              lt\n              tag_308\n              jumpi\n              tag_308\n              tag_148\n              jump\t// in\n            tag_308:\n              0x00\n              swap2\n              dup3\n              mstore\n              0x20\n              dup1\n              dup4\n              keccak256\n              0x05\n              swap3\n              swap1\n              swap3\n              mul\n              swap1\n              swap2\n              add\n                /* \"Inheritance.sol\":6883:6904  heirs[i].etherBalance */\n              0x02\n              add\n                /* \"Inheritance.sol\":6883:6930  heirs[i].etherBalance = heirsEther[heirAddress] */\n              swap3\n              swap1\n              swap3\n              sstore\n                /* \"Inheritance.sol\":6957:6962  token */\n              sload(0x08)\n              sub(shl(0xa0, 0x01), 0x01)\n                /* \"Inheritance.sol\":6985:7007  heirsUSDC[heirAddress] */\n              dup6\n              dup2\n              and\n              dup1\n              dup5\n              mstore\n                /* \"Inheritance.sol\":6985:6994  heirsUSDC */\n              0x06\n                /* \"Inheritance.sol\":6985:7007  heirsUSDC[heirAddress] */\n              swap1\n              swap5\n              mstore\n              0x40\n              swap3\n              dup4\n              swap1\n              keccak256\n              sload\n                /* \"Inheritance.sol\":6957:7008  token.transfer(heirAddress, heirsUSDC[heirAddress]) */\n              swap3\n              mload\n              shl(0xe0, 0xa9059cbb)\n              dup2\n              mstore\n              0x04\n              dup2\n              add\n                /* \"#utility.yul\":4848:4899   */\n              swap5\n              swap1\n              swap5\n              mstore\n                /* \"#utility.yul\":4915:4933   */\n              0x24\n              dup5\n              add\n                /* \"#utility.yul\":4908:4942   */\n              swap3\n              swap1\n              swap3\n              mstore\n                /* \"Inheritance.sol\":6957:6962  token */\n              and\n              swap1\n                /* \"Inheritance.sol\":6957:6971  token.transfer */\n              0xa9059cbb\n              swap1\n                /* \"#utility.yul\":4821:4839   */\n              0x44\n              add\n                /* \"Inheritance.sol\":6957:7008  token.transfer(heirAddress, heirsUSDC[heirAddress]) */\n              0x20\n              mload(0x40)\n              dup1\n              dup4\n              sub\n              dup2\n              0x00\n              dup8\n              gas\n              call\n              iszero\n              dup1\n              iszero\n              tag_312\n              jumpi\n              returndatasize\n              0x00\n              dup1\n              returndatacopy\n              revert(0x00, returndatasize)\n            tag_312:\n              pop\n              pop\n              pop\n              pop\n              mload(0x40)\n              returndatasize\n              not(0x1f)\n              0x1f\n              dup3\n              add\n              and\n              dup3\n              add\n              dup1\n              0x40\n              mstore\n              pop\n              dup2\n              add\n              swap1\n              tag_313\n              swap2\n              swap1\n              tag_314\n              jump\t// in\n            tag_313:\n                /* \"Inheritance.sol\":6949:7069  require(token.transfer(heirAddress, heirsUSDC[heirAddress]), \"Error while transferring USDC from the contract to heir.\") */\n              tag_315\n              jumpi\n              mload(0x40)\n              shl(0xe5, 0x461bcd)\n              dup2\n              mstore\n                /* \"#utility.yul\":12457:12459   */\n              0x20\n                /* \"Inheritance.sol\":6949:7069  require(token.transfer(heirAddress, heirsUSDC[heirAddress]), \"Error while transferring USDC from the contract to heir.\") */\n              0x04\n              dup3\n              add\n                /* \"#utility.yul\":12439:12460   */\n              mstore\n                /* \"#utility.yul\":12496:12498   */\n              0x38\n                /* \"#utility.yul\":12476:12494   */\n              0x24\n              dup3\n              add\n                /* \"#utility.yul\":12469:12499   */\n              mstore\n                /* \"#utility.yul\":12535:12569   */\n              0x4572726f72207768696c65207472616e7366657272696e672055534443206672\n                /* \"#utility.yul\":12515:12533   */\n              0x44\n              dup3\n              add\n                /* \"#utility.yul\":12508:12570   */\n              mstore\n                /* \"#utility.yul\":12606:12632   */\n              0x6f6d2074686520636f6e747261637420746f20686569722e0000000000000000\n                /* \"#utility.yul\":12586:12604   */\n              0x64\n              dup3\n              add\n                /* \"#utility.yul\":12579:12633   */\n              mstore\n                /* \"#utility.yul\":12650:12669   */\n              0x84\n              add\n                /* \"Inheritance.sol\":6949:7069  require(token.transfer(heirAddress, heirsUSDC[heirAddress]), \"Error while transferring USDC from the contract to heir.\") */\n              tag_138\n                /* \"#utility.yul\":12255:12675   */\n              jump\n                /* \"Inheritance.sol\":6949:7069  require(token.transfer(heirAddress, heirsUSDC[heirAddress]), \"Error while transferring USDC from the contract to heir.\") */\n            tag_315:\n              sub(shl(0xa0, 0x01), 0x01)\n                /* \"Inheritance.sol\":7110:7132  heirsUSDC[heirAddress] */\n              dup3\n              and\n              0x00\n              swap1\n              dup2\n              mstore\n                /* \"Inheritance.sol\":7110:7119  heirsUSDC */\n              0x06\n                /* \"Inheritance.sol\":7110:7132  heirsUSDC[heirAddress] */\n              0x20\n              mstore\n              0x40\n              swap1\n              keccak256\n              sload\n                /* \"Inheritance.sol\":7087:7092  heirs */\n              0x04\n                /* \"Inheritance.sol\":7087:7095  heirs[i] */\n              dup1\n              sload\n                /* \"Inheritance.sol\":7093:7094  i */\n              dup4\n              swap1\n                /* \"Inheritance.sol\":7087:7095  heirs[i] */\n              dup2\n              lt\n              tag_319\n              jumpi\n              tag_319\n              tag_148\n              jump\t// in\n            tag_319:\n              swap1\n              0x00\n              mstore\n              keccak256(0x00, 0x20)\n              swap1\n              0x05\n              mul\n              add\n                /* \"Inheritance.sol\":7087:7107  heirs[i].usdcBalance */\n              0x03\n              add\n                /* \"Inheritance.sol\":7087:7132  heirs[i].usdcBalance = heirsUSDC[heirAddress] */\n              dup2\n              swap1\n              sstore\n              pop\n                /* \"Inheritance.sol\":7214:7225  heirAddress */\n              dup2\n              sub(shl(0xa0, 0x01), 0x01)\n                /* \"Inheritance.sol\":7156:7353  LogHeirClaiming(\"Ether and USDC money sent to the heir.\", heirAddress, heirs[i].share, heirsEther[heirAddress], ... */\n              and\n              0x34e2b4efda0968bd3c419ecd901876f712f93cd5fda9303ab16021c3535f5593\n                /* \"Inheritance.sol\":7227:7232  heirs */\n              0x04\n                /* \"Inheritance.sol\":7233:7234  i */\n              dup4\n                /* \"Inheritance.sol\":7227:7235  heirs[i] */\n              dup2\n              sload\n              dup2\n              lt\n              tag_322\n              jumpi\n              tag_322\n              tag_148\n              jump\t// in\n            tag_322:\n              swap1\n              0x00\n              mstore\n              keccak256(0x00, 0x20)\n              swap1\n              0x05\n              mul\n              add\n                /* \"Inheritance.sol\":7227:7241  heirs[i].share */\n              0x01\n              add\n              sload\n                /* \"Inheritance.sol\":7243:7253  heirsEther */\n              0x07\n                /* \"Inheritance.sol\":7243:7266  heirsEther[heirAddress] */\n              0x00\n                /* \"Inheritance.sol\":7254:7265  heirAddress */\n              dup7\n              sub(shl(0xa0, 0x01), 0x01)\n                /* \"Inheritance.sol\":7243:7266  heirsEther[heirAddress] */\n              and\n              sub(shl(0xa0, 0x01), 0x01)\n              and\n              dup2\n              mstore\n              0x20\n              add\n              swap1\n              dup2\n              mstore\n              0x20\n              add\n              0x00\n              keccak256\n              sload\n                /* \"Inheritance.sol\":7285:7290  heirs */\n              0x04\n                /* \"Inheritance.sol\":7291:7292  i */\n              dup6\n                /* \"Inheritance.sol\":7285:7293  heirs[i] */\n              dup2\n              sload\n              dup2\n              lt\n              tag_325\n              jumpi\n              tag_325\n              tag_148\n              jump\t// in\n            tag_325:\n              swap1\n              0x00\n              mstore\n              keccak256(0x00, 0x20)\n              swap1\n              0x05\n              mul\n              add\n                /* \"Inheritance.sol\":7285:7306  heirs[i].etherBalance */\n              0x02\n              add\n              sload\n                /* \"Inheritance.sol\":7308:7317  heirsUSDC */\n              0x06\n                /* \"Inheritance.sol\":7308:7330  heirsUSDC[heirAddress] */\n              0x00\n                /* \"Inheritance.sol\":7318:7329  heirAddress */\n              dup9\n              sub(shl(0xa0, 0x01), 0x01)\n                /* \"Inheritance.sol\":7308:7330  heirsUSDC[heirAddress] */\n              and\n              sub(shl(0xa0, 0x01), 0x01)\n              and\n              dup2\n              mstore\n              0x20\n              add\n              swap1\n              dup2\n              mstore\n              0x20\n              add\n              0x00\n              keccak256\n              sload\n                /* \"Inheritance.sol\":7332:7337  heirs */\n              0x04\n                /* \"Inheritance.sol\":7338:7339  i */\n              dup8\n                /* \"Inheritance.sol\":7332:7340  heirs[i] */\n              dup2\n              sload\n              dup2\n              lt\n              tag_328\n              jumpi\n              tag_328\n              tag_148\n              jump\t// in\n            tag_328:\n              swap1\n              0x00\n              mstore\n              keccak256(0x00, 0x20)\n              swap1\n              0x05\n              mul\n              add\n                /* \"Inheritance.sol\":7332:7352  heirs[i].usdcBalance */\n              0x03\n              add\n              sload\n                /* \"Inheritance.sol\":7156:7353  LogHeirClaiming(\"Ether and USDC money sent to the heir.\", heirAddress, heirs[i].share, heirsEther[heirAddress], ... */\n              mload(0x40)\n              tag_330\n              swap6\n              swap5\n              swap4\n              swap3\n              swap2\n              swap1\n                /* \"#utility.yul\":13022:13025   */\n              0xc0\n                /* \"#utility.yul\":13004:13026   */\n              dup1\n              dup3\n              mstore\n                /* \"#utility.yul\":13063:13065   */\n              0x26\n                /* \"#utility.yul\":13042:13061   */\n              swap1\n              dup3\n              add\n                /* \"#utility.yul\":13035:13066   */\n              mstore\n                /* \"#utility.yul\":13103:13137   */\n              0x457468657220616e642055534443206d6f6e65792073656e7420746f20746865\n                /* \"#utility.yul\":13097:13100   */\n              0xe0\n                /* \"#utility.yul\":13082:13101   */\n              dup3\n              add\n                /* \"#utility.yul\":13075:13138   */\n              mstore\n              shl(0xd1, 0x103432b4b917)\n                /* \"#utility.yul\":13169:13172   */\n              0x0100\n                /* \"#utility.yul\":13154:13173   */\n              dup3\n              add\n                /* \"#utility.yul\":13147:13184   */\n              mstore\n                /* \"#utility.yul\":13251:13255   */\n              0x20\n                /* \"#utility.yul\":13236:13256   */\n              dup2\n              add\n                /* \"#utility.yul\":13229:13265   */\n              swap6\n              swap1\n              swap6\n              mstore\n                /* \"#utility.yul\":13296:13298   */\n              0x40\n                /* \"#utility.yul\":13281:13299   */\n              dup6\n              add\n                /* \"#utility.yul\":13274:13308   */\n              swap4\n              swap1\n              swap4\n              mstore\n                /* \"#utility.yul\":13339:13341   */\n              0x60\n                /* \"#utility.yul\":13324:13342   */\n              dup5\n              add\n                /* \"#utility.yul\":13317:13351   */\n              swap2\n              swap1\n              swap2\n              mstore\n              0x80\n                /* \"#utility.yul\":13367:13386   */\n              dup4\n              add\n                /* \"#utility.yul\":13360:13395   */\n              mstore\n              0xa0\n                /* \"#utility.yul\":13411:13430   */\n              dup3\n              add\n                /* \"#utility.yul\":13404:13439   */\n              mstore\n                /* \"#utility.yul\":13216:13219   */\n              0x0120\n                /* \"#utility.yul\":13201:13220   */\n              add\n              swap1\n                /* \"#utility.yul\":12680:13445   */\n              jump\n                /* \"Inheritance.sol\":7156:7353  LogHeirClaiming(\"Ether and USDC money sent to the heir.\", heirAddress, heirs[i].share, heirsEther[heirAddress], ... */\n            tag_330:\n              mload(0x40)\n              dup1\n              swap2\n              sub\n              swap1\n              log2\n                /* \"Inheritance.sol\":6742:6745  i++ */\n              dup1\n              tag_332\n              dup2\n              tag_154\n              jump\t// in\n            tag_332:\n              swap2\n              pop\n              pop\n                /* \"Inheritance.sol\":6707:7368  for (uint i = 0; i < heirs.length; i++) {... */\n              jump(tag_299)\n            tag_300:\n              pop\n                /* \"Inheritance.sol\":6235:7378  {... */\n              pop\n              pop\n              pop\n              pop\n                /* \"Inheritance.sol\":10719:11007  {... */\n              pop\n                /* \"Inheritance.sol\":6143:7384  function claimInheritance() public isHeir(msg.sender) {... */\n              pop\n              jump\t// out\n                /* \"Inheritance.sol\":7765:7868  function getAliveTimeOut() public view onlyOwner returns (uint256) {... */\n            tag_86:\n                /* \"Inheritance.sol\":7823:7830  uint256 */\n              0x00\n                /* \"@openzeppelin/contracts/access/Ownable.sol\":1094:1107   */\n              tag_334\n                /* \"@openzeppelin/contracts/access/Ownable.sol\":1094:1105   */\n              tag_132\n                /* \"@openzeppelin/contracts/access/Ownable.sol\":1094:1107   */\n              jump\t// in\n            tag_334:\n              pop\n                /* \"Inheritance.sol\":7849:7861  aliveTimeOut */\n              sload(0x03)\n                /* \"Inheritance.sol\":7765:7868  function getAliveTimeOut() public view onlyOwner returns (uint256) {... */\n              swap1\n              jump\t// out\n                /* \"Inheritance.sol\":4640:4895  function signalAlive() public onlyOwner {... */\n            tag_90:\n                /* \"@openzeppelin/contracts/access/Ownable.sol\":1094:1107   */\n              tag_337\n                /* \"@openzeppelin/contracts/access/Ownable.sol\":1094:1105   */\n              tag_132\n                /* \"@openzeppelin/contracts/access/Ownable.sol\":1094:1107   */\n              jump\t// in\n            tag_337:\n                /* \"Inheritance.sol\":4716:4731  block.timestamp */\n              timestamp\n                /* \"Inheritance.sol\":4690:4713  administrator.lastAlive */\n              0x02\n                /* \"Inheritance.sol\":4690:4731  administrator.lastAlive = block.timestamp */\n              dup2\n              swap1\n              sstore\n                /* \"Inheritance.sol\":4875:4887  aliveTimeOut */\n              sload(0x03)\n                /* \"Inheritance.sol\":4746:4888  LogAdministratorAlive(\"Administrator sends a signal to show he is alive.\", msg.sender, administrator.lastAlive, block.timestamp, aliveTimeOut) */\n              0x40\n              dup1\n              mload\n                /* \"#utility.yul\":13736:13739   */\n              0x80\n                /* \"#utility.yul\":13718:13740   */\n              dup1\n              dup3\n              mstore\n                /* \"#utility.yul\":13777:13779   */\n              0x31\n                /* \"#utility.yul\":13756:13775   */\n              swap1\n              dup3\n              add\n                /* \"#utility.yul\":13749:13780   */\n              mstore\n                /* \"#utility.yul\":13817:13851   */\n              0x41646d696e6973747261746f722073656e64732061207369676e616c20746f20\n                /* \"#utility.yul\":13811:13814   */\n              0xa0\n                /* \"#utility.yul\":13796:13815   */\n              dup3\n              add\n                /* \"#utility.yul\":13789:13852   */\n              mstore\n              shl(0x79, 0x39b437bb9034329034b99030b634bb3297)\n                /* \"#utility.yul\":13883:13886   */\n              0xc0\n                /* \"#utility.yul\":13868:13887   */\n              dup3\n              add\n                /* \"#utility.yul\":13861:13909   */\n              mstore\n                /* \"#utility.yul\":13976:13980   */\n              0x20\n                /* \"#utility.yul\":13961:13981   */\n              dup2\n              add\n                /* \"#utility.yul\":13954:13990   */\n              dup5\n              swap1\n              mstore\n                /* \"#utility.yul\":14006:14024   */\n              swap1\n              dup2\n              add\n                /* \"#utility.yul\":13999:14033   */\n              swap3\n              swap1\n              swap3\n              mstore\n              0x60\n                /* \"#utility.yul\":14049:14067   */\n              dup3\n              add\n                /* \"#utility.yul\":14042:14076   */\n              mstore\n                /* \"Inheritance.sol\":4821:4831  msg.sender */\n              caller\n              swap1\n                /* \"Inheritance.sol\":4746:4888  LogAdministratorAlive(\"Administrator sends a signal to show he is alive.\", msg.sender, administrator.lastAlive, block.timestamp, aliveTimeOut) */\n              0x5f1aa2875b7b1df0cd72a6ee708c6aff6432288001c47518bc91be4599fdf6e6\n              swap1\n                /* \"#utility.yul\":13941:13944   */\n              0xe0\n                /* \"#utility.yul\":13926:13945   */\n              add\n                /* \"Inheritance.sol\":4746:4888  LogAdministratorAlive(\"Administrator sends a signal to show he is alive.\", msg.sender, administrator.lastAlive, block.timestamp, aliveTimeOut) */\n              mload(0x40)\n              dup1\n              swap2\n              sub\n              swap1\n              log2\n                /* \"Inheritance.sol\":4640:4895  function signalAlive() public onlyOwner {... */\n              jump\t// out\n                /* \"Inheritance.sol\":3661:3893  function deposit() public payable {... */\n            tag_92:\n                /* \"Inheritance.sol\":3816:3829  administrator */\n              0x01\n                /* \"Inheritance.sol\":3816:3850  administrator.administratorAddress */\n              sload\n                /* \"Inheritance.sol\":3710:3886  LogDeposit(\"Log all the values: Administrator address, Amount sent, Contract ether balance.\",... */\n              0x40\n              dup1\n              mload\n                /* \"#utility.yul\":14373:14376   */\n              0x80\n                /* \"#utility.yul\":14355:14377   */\n              dup1\n              dup3\n              mstore\n                /* \"#utility.yul\":14414:14416   */\n              0x4f\n                /* \"#utility.yul\":14393:14412   */\n              swap1\n              dup3\n              add\n                /* \"#utility.yul\":14386:14417   */\n              mstore\n                /* \"#utility.yul\":14454:14488   */\n              0x4c6f6720616c6c207468652076616c7565733a2041646d696e6973747261746f\n                /* \"#utility.yul\":14448:14451   */\n              0xa0\n                /* \"#utility.yul\":14433:14452   */\n              dup3\n              add\n                /* \"#utility.yul\":14426:14489   */\n              mstore\n                /* \"#utility.yul\":14526:14560   */\n              0x7220616464726573732c20416d6f756e742073656e742c20436f6e7472616374\n                /* \"#utility.yul\":14520:14523   */\n              0xc0\n                /* \"#utility.yul\":14505:14524   */\n              dup3\n              add\n                /* \"#utility.yul\":14498:14561   */\n              mstore\n              shl(0x89, 0x1032ba3432b9103130b630b731b297)\n                /* \"#utility.yul\":14592:14595   */\n              0xe0\n                /* \"#utility.yul\":14577:14596   */\n              dup3\n              add\n                /* \"#utility.yul\":14570:14616   */\n              mstore\n              sub(shl(0xa0, 0x01), 0x01)\n                /* \"Inheritance.sol\":3816:3850  administrator.administratorAddress */\n              swap1\n              swap3\n              and\n                /* \"#utility.yul\":14683:14687   */\n              0x20\n                /* \"#utility.yul\":14668:14688   */\n              dup4\n              add\n                /* \"#utility.yul\":14661:14723   */\n              mstore\n                /* \"Inheritance.sol\":3853:3862  msg.value */\n              callvalue\n                /* \"#utility.yul\":14739:14757   */\n              dup3\n              dup3\n              add\n                /* \"#utility.yul\":14732:14766   */\n              mstore\n                /* \"Inheritance.sol\":3864:3885  address(this).balance */\n              selfbalance\n              0x60\n                /* \"#utility.yul\":14782:14800   */\n              dup4\n              add\n                /* \"#utility.yul\":14775:14809   */\n              mstore\n                /* \"Inheritance.sol\":3710:3886  LogDeposit(\"Log all the values: Administrator address, Amount sent, Contract ether balance.\",... */\n              mload\n              0x0e329d93cfda1bd6ead1003e3ae53461617c8d120014dfaea03d2fb42ec55b07\n              swap2\n              dup2\n              swap1\n              sub\n                /* \"#utility.yul\":14648:14651   */\n              0x0100\n                /* \"Inheritance.sol\":3710:3886  LogDeposit(\"Log all the values: Administrator address, Amount sent, Contract ether balance.\",... */\n              add\n              swap1\n              log1\n                /* \"Inheritance.sol\":3661:3893  function deposit() public payable {... */\n              jump\t// out\n                /* \"Inheritance.sol\":8321:8548  function getTotalShares() public view returns (uint256) {... */\n            tag_95:\n                /* \"Inheritance.sol\":8368:8375  uint256 */\n              0x00\n              dup1\n              dup1\n                /* \"Inheritance.sol\":8420:8514  for (uint i = 0; i < heirs.length; i++) {... */\n            tag_345:\n                /* \"Inheritance.sol\":8441:8446  heirs */\n              0x04\n                /* \"Inheritance.sol\":8441:8453  heirs.length */\n              sload\n                /* \"Inheritance.sol\":8437:8453  i < heirs.length */\n              dup2\n              lt\n                /* \"Inheritance.sol\":8420:8514  for (uint i = 0; i < heirs.length; i++) {... */\n              iszero\n              tag_172\n              jumpi\n                /* \"Inheritance.sol\":8489:8494  heirs */\n              0x04\n                /* \"Inheritance.sol\":8495:8496  i */\n              dup2\n                /* \"Inheritance.sol\":8489:8497  heirs[i] */\n              dup2\n              sload\n              dup2\n              lt\n              tag_349\n              jumpi\n              tag_349\n              tag_148\n              jump\t// in\n            tag_349:\n              swap1\n              0x00\n              mstore\n              keccak256(0x00, 0x20)\n              swap1\n              0x05\n              mul\n              add\n                /* \"Inheritance.sol\":8489:8503  heirs[i].share */\n              0x01\n              add\n              sload\n                /* \"Inheritance.sol\":8474:8503  totalShares += heirs[i].share */\n              dup3\n              tag_351\n              swap2\n              swap1\n              tag_244\n              jump\t// in\n            tag_351:\n              swap2\n              pop\n                /* \"Inheritance.sol\":8455:8458  i++ */\n              dup1\n              tag_352\n              dup2\n              tag_154\n              jump\t// in\n            tag_352:\n              swap2\n              pop\n              pop\n                /* \"Inheritance.sol\":8420:8514  for (uint i = 0; i < heirs.length; i++) {... */\n              jump(tag_345)\n                /* \"Inheritance.sol\":3924:4243  function withdrawUSDC(uint256 amount) public onlyOwner {... */\n            tag_100:\n                /* \"@openzeppelin/contracts/access/Ownable.sol\":1094:1107   */\n              tag_354\n                /* \"@openzeppelin/contracts/access/Ownable.sol\":1094:1105   */\n              tag_132\n                /* \"@openzeppelin/contracts/access/Ownable.sol\":1094:1107   */\n              jump\t// in\n            tag_354:\n                /* \"Inheritance.sol\":4006:4007  0 */\n              0x00\n                /* \"Inheritance.sol\":3997:4003  amount */\n              dup2\n                /* \"Inheritance.sol\":3997:4007  amount > 0 */\n              gt\n                /* \"Inheritance.sol\":3989:4036  require(amount > 0, \"Amount must be positive.\") */\n              tag_356\n              jumpi\n              mload(0x40)\n              shl(0xe5, 0x461bcd)\n              dup2\n              mstore\n                /* \"#utility.yul\":7485:7487   */\n              0x20\n                /* \"Inheritance.sol\":3989:4036  require(amount > 0, \"Amount must be positive.\") */\n              0x04\n              dup3\n              add\n                /* \"#utility.yul\":7467:7488   */\n              mstore\n                /* \"#utility.yul\":7524:7526   */\n              0x18\n                /* \"#utility.yul\":7504:7522   */\n              0x24\n              dup3\n              add\n                /* \"#utility.yul\":7497:7527   */\n              mstore\n              shl(0x41, 0x20b6b7bab73a1036bab9ba103132903837b9b4ba34bb3297)\n                /* \"#utility.yul\":7543:7561   */\n              0x44\n              dup3\n              add\n                /* \"#utility.yul\":7536:7590   */\n              mstore\n                /* \"#utility.yul\":7607:7625   */\n              0x64\n              add\n                /* \"Inheritance.sol\":3989:4036  require(amount > 0, \"Amount must be positive.\") */\n              tag_138\n                /* \"#utility.yul\":7283:7631   */\n              jump\n                /* \"Inheritance.sol\":3989:4036  require(amount > 0, \"Amount must be positive.\") */\n            tag_356:\n                /* \"Inheritance.sol\":4064:4080  getUSDCBalance() */\n              tag_358\n                /* \"Inheritance.sol\":4064:4078  getUSDCBalance */\n              tag_55\n                /* \"Inheritance.sol\":4064:4080  getUSDCBalance() */\n              jump\t// in\n            tag_358:\n                /* \"Inheritance.sol\":4054:4060  amount */\n              dup2\n                /* \"Inheritance.sol\":4054:4080  amount <= getUSDCBalance() */\n              gt\n              iszero\n                /* \"Inheritance.sol\":4046:4109  require(amount <= getUSDCBalance(), \"Not enough USDC balance.\") */\n              tag_359\n              jumpi\n              mload(0x40)\n              shl(0xe5, 0x461bcd)\n              dup2\n              mstore\n                /* \"#utility.yul\":15022:15024   */\n              0x20\n                /* \"Inheritance.sol\":4046:4109  require(amount <= getUSDCBalance(), \"Not enough USDC balance.\") */\n              0x04\n              dup3\n              add\n                /* \"#utility.yul\":15004:15025   */\n              mstore\n                /* \"#utility.yul\":15061:15063   */\n              0x18\n                /* \"#utility.yul\":15041:15059   */\n              0x24\n              dup3\n              add\n                /* \"#utility.yul\":15034:15064   */\n              mstore\n                /* \"#utility.yul\":15100:15126   */\n              0x4e6f7420656e6f75676820555344432062616c616e63652e0000000000000000\n                /* \"#utility.yul\":15080:15098   */\n              0x44\n              dup3\n              add\n                /* \"#utility.yul\":15073:15127   */\n              mstore\n                /* \"#utility.yul\":15144:15162   */\n              0x64\n              add\n                /* \"Inheritance.sol\":4046:4109  require(amount <= getUSDCBalance(), \"Not enough USDC balance.\") */\n              tag_138\n                /* \"#utility.yul\":14820:15168   */\n              jump\n                /* \"Inheritance.sol\":4046:4109  require(amount <= getUSDCBalance(), \"Not enough USDC balance.\") */\n            tag_359:\n                /* \"Inheritance.sol\":4128:4133  token */\n              sload(0x08)\n                /* \"Inheritance.sol\":4128:4162  token.transfer(msg.sender, amount) */\n              mload(0x40)\n              shl(0xe0, 0xa9059cbb)\n              dup2\n              mstore\n                /* \"Inheritance.sol\":4143:4153  msg.sender */\n              caller\n                /* \"Inheritance.sol\":4128:4162  token.transfer(msg.sender, amount) */\n              0x04\n              dup3\n              add\n                /* \"#utility.yul\":4848:4899   */\n              mstore\n                /* \"#utility.yul\":4915:4933   */\n              0x24\n              dup2\n              add\n                /* \"#utility.yul\":4908:4942   */\n              dup4\n              swap1\n              mstore\n              sub(shl(0xa0, 0x01), 0x01)\n                /* \"Inheritance.sol\":4128:4133  token */\n              swap1\n              swap2\n              and\n              swap1\n                /* \"Inheritance.sol\":4128:4142  token.transfer */\n              0xa9059cbb\n              swap1\n                /* \"#utility.yul\":4821:4839   */\n              0x44\n              add\n                /* \"Inheritance.sol\":4128:4162  token.transfer(msg.sender, amount) */\n              0x20\n              mload(0x40)\n              dup1\n              dup4\n              sub\n              dup2\n              0x00\n              dup8\n              gas\n              call\n              iszero\n              dup1\n              iszero\n              tag_364\n              jumpi\n              returndatasize\n              0x00\n              dup1\n              returndatacopy\n              revert(0x00, returndatasize)\n            tag_364:\n              pop\n              pop\n              pop\n              pop\n              mload(0x40)\n              returndatasize\n              not(0x1f)\n              0x1f\n              dup3\n              add\n              and\n              dup3\n              add\n              dup1\n              0x40\n              mstore\n              pop\n              dup2\n              add\n              swap1\n              tag_365\n              swap2\n              swap1\n              tag_314\n              jump\t// in\n            tag_365:\n                /* \"Inheritance.sol\":4120:4236  require(token.transfer(msg.sender, amount), \"Error while transferring USDC from the contract to the administrator.\") */\n              tag_366\n              jumpi\n              mload(0x40)\n              shl(0xe5, 0x461bcd)\n              dup2\n              mstore\n                /* \"#utility.yul\":15375:15377   */\n              0x20\n                /* \"Inheritance.sol\":4120:4236  require(token.transfer(msg.sender, amount), \"Error while transferring USDC from the contract to the administrator.\") */\n              0x04\n              dup3\n              add\n                /* \"#utility.yul\":15357:15378   */\n              mstore\n                /* \"#utility.yul\":15414:15416   */\n              0x45\n                /* \"#utility.yul\":15394:15412   */\n              0x24\n              dup3\n              add\n                /* \"#utility.yul\":15387:15417   */\n              mstore\n                /* \"#utility.yul\":15453:15487   */\n              0x4572726f72207768696c65207472616e7366657272696e672055534443206672\n                /* \"#utility.yul\":15433:15451   */\n              0x44\n              dup3\n              add\n                /* \"#utility.yul\":15426:15488   */\n              mstore\n                /* \"#utility.yul\":15524:15558   */\n              0x6f6d2074686520636f6e747261637420746f207468652061646d696e69737472\n                /* \"#utility.yul\":15504:15522   */\n              0x64\n              dup3\n              add\n                /* \"#utility.yul\":15497:15559   */\n              mstore\n              shl(0xd9, 0x30ba37b917)\n                /* \"#utility.yul\":15575:15594   */\n              0x84\n              dup3\n              add\n                /* \"#utility.yul\":15568:15604   */\n              mstore\n                /* \"#utility.yul\":15621:15640   */\n              0xa4\n              add\n                /* \"Inheritance.sol\":4120:4236  require(token.transfer(msg.sender, amount), \"Error while transferring USDC from the contract to the administrator.\") */\n              tag_138\n                /* \"#utility.yul\":15173:15646   */\n              jump\n                /* \"Inheritance.sol\":4120:4236  require(token.transfer(msg.sender, amount), \"Error while transferring USDC from the contract to the administrator.\") */\n            tag_366:\n                /* \"Inheritance.sol\":3924:4243  function withdrawUSDC(uint256 amount) public onlyOwner {... */\n              pop\n              jump\t// out\n                /* \"Inheritance.sol\":4521:4634  function updateAliveTimeOut(uint256 _aliveTimeOut) public onlyOwner {... */\n            tag_104:\n                /* \"@openzeppelin/contracts/access/Ownable.sol\":1094:1107   */\n              tag_370\n                /* \"@openzeppelin/contracts/access/Ownable.sol\":1094:1105   */\n              tag_132\n                /* \"@openzeppelin/contracts/access/Ownable.sol\":1094:1107   */\n              jump\t// in\n            tag_370:\n                /* \"Inheritance.sol\":4599:4611  aliveTimeOut */\n              0x03\n                /* \"Inheritance.sol\":4599:4627  aliveTimeOut = _aliveTimeOut */\n              sstore\n                /* \"Inheritance.sol\":4521:4634  function updateAliveTimeOut(uint256 _aliveTimeOut) public onlyOwner {... */\n              jump\t// out\n                /* \"Inheritance.sol\":5592:5903  function rejectInheritanceRequest(uint index, address requester) public onlyOwner rejectInheritanceRequestValidations(index, requester) {... */\n            tag_109:\n                /* \"@openzeppelin/contracts/access/Ownable.sol\":1094:1107   */\n              tag_373\n                /* \"@openzeppelin/contracts/access/Ownable.sol\":1094:1105   */\n              tag_132\n                /* \"@openzeppelin/contracts/access/Ownable.sol\":1094:1107   */\n              jump\t// in\n            tag_373:\n                /* \"Inheritance.sol\":10448:10467  inheritanceRequests */\n              0x05\n                /* \"Inheritance.sol\":10448:10474  inheritanceRequests.length */\n              sload\n                /* \"Inheritance.sol\":5710:5715  index */\n              dup3\n              swap1\n                /* \"Inheritance.sol\":5717:5726  requester */\n              dup3\n              swap1\n                /* \"Inheritance.sol\":10440:10474  index < inheritanceRequests.length */\n              dup3\n              lt\n                /* \"Inheritance.sol\":10432:10535  require(index < inheritanceRequests.length, \"The index sent is bigger than the requests array length.\") */\n              tag_375\n              jumpi\n              mload(0x40)\n              shl(0xe5, 0x461bcd)\n              dup2\n              mstore\n              0x04\n              add\n              tag_138\n              swap1\n              tag_224\n              jump\t// in\n            tag_375:\n                /* \"Inheritance.sol\":10583:10587  addr */\n              dup1\n              sub(shl(0xa0, 0x01), 0x01)\n                /* \"Inheritance.sol\":10553:10587  inheritanceRequests[index] == addr */\n              and\n                /* \"Inheritance.sol\":10553:10572  inheritanceRequests */\n              0x05\n                /* \"Inheritance.sol\":10573:10578  index */\n              dup4\n                /* \"Inheritance.sol\":10553:10579  inheritanceRequests[index] */\n              dup2\n              sload\n              dup2\n              lt\n              tag_378\n              jumpi\n              tag_378\n              tag_148\n              jump\t// in\n            tag_378:\n              0x00\n              swap2\n              dup3\n              mstore\n              0x20\n              swap1\n              swap2\n              keccak256\n              add\n              sload\n              sub(shl(0xa0, 0x01), 0x01)\n              and\n                /* \"Inheritance.sol\":10553:10587  inheritanceRequests[index] == addr */\n              eq\n                /* \"Inheritance.sol\":10545:10665  require(inheritanceRequests[index] == addr, \"Address sent doesn't match with the address stored in the requests array.\") */\n              tag_380\n              jumpi\n              mload(0x40)\n              shl(0xe5, 0x461bcd)\n              dup2\n              mstore\n              0x04\n              add\n              tag_138\n              swap1\n              tag_230\n              jump\t// in\n            tag_380:\n                /* \"Inheritance.sol\":5738:5758  removeRequest(index) */\n              tag_383\n                /* \"Inheritance.sol\":5752:5757  index */\n              dup5\n                /* \"Inheritance.sol\":5738:5751  removeRequest */\n              tag_255\n                /* \"Inheritance.sol\":5738:5758  removeRequest(index) */\n              jump\t// in\n            tag_383:\n                /* \"Inheritance.sol\":5855:5874  inheritanceRequests */\n              0x05\n                /* \"Inheritance.sol\":5855:5881  inheritanceRequests.length */\n              sload\n                /* \"Inheritance.sol\":5883:5888  heirs */\n              0x04\n                /* \"Inheritance.sol\":5883:5895  heirs.length */\n              sload\n                /* \"Inheritance.sol\":5773:5896  LogHeirRejected(\"Administrator rejects user's request to be an heir.\", requester, inheritanceRequests.length, heirs.length) */\n              0x40\n              dup1\n              mload\n                /* \"#utility.yul\":15909:15911   */\n              0x60\n                /* \"#utility.yul\":15891:15912   */\n              dup1\n              dup3\n              mstore\n                /* \"#utility.yul\":15948:15950   */\n              0x33\n                /* \"#utility.yul\":15928:15946   */\n              swap1\n              dup3\n              add\n                /* \"#utility.yul\":15921:15951   */\n              mstore\n                /* \"#utility.yul\":15988:16022   */\n              0x41646d696e6973747261746f722072656a656374732075736572277320726571\n                /* \"#utility.yul\":15982:15985   */\n              0x80\n                /* \"#utility.yul\":15967:15986   */\n              dup3\n              add\n                /* \"#utility.yul\":15960:16023   */\n              mstore\n              shl(0x69, 0x3ab2b9ba103a379031329030b7103432b4b917)\n                /* \"#utility.yul\":16054:16057   */\n              0xa0\n                /* \"#utility.yul\":16039:16058   */\n              dup3\n              add\n                /* \"#utility.yul\":16032:16082   */\n              mstore\n                /* \"#utility.yul\":16149:16153   */\n              0x20\n                /* \"#utility.yul\":16134:16154   */\n              dup2\n              add\n                /* \"#utility.yul\":16127:16163   */\n              swap4\n              swap1\n              swap4\n              mstore\n                /* \"#utility.yul\":16179:16197   */\n              dup3\n              add\n                /* \"#utility.yul\":16172:16206   */\n              mstore\n              sub(shl(0xa0, 0x01), 0x01)\n                /* \"Inheritance.sol\":5773:5896  LogHeirRejected(\"Administrator rejects user's request to be an heir.\", requester, inheritanceRequests.length, heirs.length) */\n              dup5\n              and\n              swap1\n              0x05541b3bb46c30ee5aea95b57d7a1d3949da67ba8e09c865da2318f2fb273857\n              swap1\n                /* \"#utility.yul\":16114:16117   */\n              0xc0\n                /* \"#utility.yul\":16099:16118   */\n              add\n                /* \"Inheritance.sol\":5773:5896  LogHeirRejected(\"Administrator rejects user's request to be an heir.\", requester, inheritanceRequests.length, heirs.length) */\n              mload(0x40)\n              dup1\n              swap2\n              sub\n              swap1\n              log2\n                /* \"@openzeppelin/contracts/access/Ownable.sol\":1117:1118   */\n              pop\n              pop\n                /* \"Inheritance.sol\":5592:5903  function rejectInheritanceRequest(uint index, address requester) public onlyOwner rejectInheritanceRequestValidations(index, requester) {... */\n              pop\n              pop\n              jump\t// out\n                /* \"@openzeppelin/contracts/access/Ownable.sol\":2081:2279   */\n            tag_117:\n                /* \"@openzeppelin/contracts/access/Ownable.sol\":1094:1107   */\n              tag_388\n                /* \"@openzeppelin/contracts/access/Ownable.sol\":1094:1105   */\n              tag_132\n                /* \"@openzeppelin/contracts/access/Ownable.sol\":1094:1107   */\n              jump\t// in\n            tag_388:\n              sub(shl(0xa0, 0x01), 0x01)\n                /* \"@openzeppelin/contracts/access/Ownable.sol\":2169:2191   */\n              dup2\n              and\n                /* \"@openzeppelin/contracts/access/Ownable.sol\":2161:2234   */\n              tag_390\n              jumpi\n              mload(0x40)\n              shl(0xe5, 0x461bcd)\n              dup2\n              mstore\n                /* \"#utility.yul\":16419:16421   */\n              0x20\n                /* \"@openzeppelin/contracts/access/Ownable.sol\":2161:2234   */\n              0x04\n              dup3\n              add\n                /* \"#utility.yul\":16401:16422   */\n              mstore\n                /* \"#utility.yul\":16458:16460   */\n              0x26\n                /* \"#utility.yul\":16438:16456   */\n              0x24\n              dup3\n              add\n                /* \"#utility.yul\":16431:16461   */\n              mstore\n                /* \"#utility.yul\":16497:16531   */\n              0x4f776e61626c653a206e6577206f776e657220697320746865207a65726f2061\n                /* \"#utility.yul\":16477:16495   */\n              0x44\n              dup3\n              add\n                /* \"#utility.yul\":16470:16532   */\n              mstore\n              shl(0xd0, 0x646472657373)\n                /* \"#utility.yul\":16548:16566   */\n              0x64\n              dup3\n              add\n                /* \"#utility.yul\":16541:16577   */\n              mstore\n                /* \"#utility.yul\":16594:16613   */\n              0x84\n              add\n                /* \"@openzeppelin/contracts/access/Ownable.sol\":2161:2234   */\n              tag_138\n                /* \"#utility.yul\":16217:16619   */\n              jump\n                /* \"@openzeppelin/contracts/access/Ownable.sol\":2161:2234   */\n            tag_390:\n                /* \"@openzeppelin/contracts/access/Ownable.sol\":2244:2272   */\n              tag_366\n                /* \"@openzeppelin/contracts/access/Ownable.sol\":2263:2271   */\n              dup2\n                /* \"@openzeppelin/contracts/access/Ownable.sol\":2244:2262   */\n              tag_218\n                /* \"@openzeppelin/contracts/access/Ownable.sol\":2244:2272   */\n              jump\t// in\n                /* \"Inheritance.sol\":8554:8894  function getHeirsAddresses() public view returns (address[] memory) {... */\n            tag_125:\n                /* \"Inheritance.sol\":8679:8684  heirs */\n              0x04\n                /* \"Inheritance.sol\":8679:8691  heirs.length */\n              sload\n                /* \"Inheritance.sol\":8604:8620  address[] memory */\n              0x60\n              swap1\n                /* \"Inheritance.sol\":8632:8662  address[] memory heirAddresses */\n              0x00\n              swap1\n                /* \"Inheritance.sol\":8665:8692  new address[](heirs.length) */\n              0xffffffffffffffff\n              dup2\n              gt\n              iszero\n              tag_396\n              jumpi\n              tag_396\n              tag_397\n              jump\t// in\n            tag_396:\n              mload(0x40)\n              swap1\n              dup1\n              dup3\n              mstore\n              dup1\n              0x20\n              mul\n              0x20\n              add\n              dup3\n              add\n              0x40\n              mstore\n              dup1\n              iszero\n              tag_398\n              jumpi\n              dup2\n              0x20\n              add\n              0x20\n              dup3\n              mul\n              dup1\n              calldatasize\n              dup4\n              calldatacopy\n              add\n              swap1\n              pop\n            tag_398:\n              pop\n                /* \"Inheritance.sol\":8632:8692  address[] memory heirAddresses = new address[](heirs.length) */\n              swap1\n              pop\n                /* \"Inheritance.sol\":8702:8715  uint256 index */\n              0x00\n                /* \"Inheritance.sol\":8734:8743  uint256 i */\n              dup1\n                /* \"Inheritance.sol\":8730:8857  for(uint256 i = 0; i < heirs.length; i++) {... */\n            tag_399:\n                /* \"Inheritance.sol\":8753:8758  heirs */\n              0x04\n                /* \"Inheritance.sol\":8753:8765  heirs.length */\n              sload\n                /* \"Inheritance.sol\":8749:8765  i < heirs.length */\n              dup2\n              lt\n                /* \"Inheritance.sol\":8730:8857  for(uint256 i = 0; i < heirs.length; i++) {... */\n              iszero\n              tag_400\n              jumpi\n                /* \"Inheritance.sol\":8809:8814  heirs */\n              0x04\n                /* \"Inheritance.sol\":8815:8816  i */\n              dup2\n                /* \"Inheritance.sol\":8809:8817  heirs[i] */\n              dup2\n              sload\n              dup2\n              lt\n              tag_403\n              jumpi\n              tag_403\n              tag_148\n              jump\t// in\n            tag_403:\n              0x00\n              swap2\n              dup3\n              mstore\n              0x20\n              swap1\n              swap2\n              keccak256\n              0x05\n              swap1\n              swap2\n              mul\n              add\n                /* \"Inheritance.sol\":8809:8822  heirs[i].heir */\n              sload\n                /* \"Inheritance.sol\":8786:8806  heirAddresses[index] */\n              dup4\n              mload\n              sub(shl(0xa0, 0x01), 0x01)\n                /* \"Inheritance.sol\":8809:8822  heirs[i].heir */\n              swap1\n              swap2\n              and\n              swap1\n                /* \"Inheritance.sol\":8786:8799  heirAddresses */\n              dup5\n              swap1\n                /* \"Inheritance.sol\":8800:8805  index */\n              dup5\n              swap1\n                /* \"Inheritance.sol\":8786:8806  heirAddresses[index] */\n              dup2\n              lt\n              tag_406\n              jumpi\n              tag_406\n              tag_148\n              jump\t// in\n            tag_406:\n              sub(shl(0xa0, 0x01), 0x01)\n                /* \"Inheritance.sol\":8786:8822  heirAddresses[index] = heirs[i].heir */\n              swap1\n              swap3\n              and\n                /* \"Inheritance.sol\":8786:8806  heirAddresses[index] */\n              0x20\n              swap3\n              dup4\n              mul\n              swap2\n              swap1\n              swap2\n              add\n              swap1\n              swap2\n              add\n                /* \"Inheritance.sol\":8786:8822  heirAddresses[index] = heirs[i].heir */\n              mstore\n                /* \"Inheritance.sol\":8836:8846  index += 1 */\n              tag_407\n                /* \"Inheritance.sol\":8845:8846  1 */\n              0x01\n                /* \"Inheritance.sol\":8836:8846  index += 1 */\n              dup4\n              tag_244\n              jump\t// in\n            tag_407:\n              swap2\n              pop\n                /* \"Inheritance.sol\":8767:8770  i++ */\n              dup1\n              tag_408\n              dup2\n              tag_154\n              jump\t// in\n            tag_408:\n              swap2\n              pop\n              pop\n                /* \"Inheritance.sol\":8730:8857  for(uint256 i = 0; i < heirs.length; i++) {... */\n              jump(tag_399)\n            tag_400:\n              pop\n                /* \"Inheritance.sol\":8874:8887  heirAddresses */\n              swap1\n              swap3\n                /* \"Inheritance.sol\":8554:8894  function getHeirsAddresses() public view returns (address[] memory) {... */\n              swap2\n              pop\n              pop\n              jump\t// out\n                /* \"@openzeppelin/contracts/access/Ownable.sol\":1359:1489   */\n            tag_132:\n                /* \"@openzeppelin/contracts/access/Ownable.sol\":1247:1254   */\n              0x00\n                /* \"@openzeppelin/contracts/access/Ownable.sol\":1273:1279   */\n              sload\n              sub(shl(0xa0, 0x01), 0x01)\n              and\n                /* \"@openzeppelin/contracts/utils/Context.sol\":719:729   */\n              caller\n                /* \"@openzeppelin/contracts/access/Ownable.sol\":1422:1445   */\n              eq\n                /* \"@openzeppelin/contracts/access/Ownable.sol\":1414:1482   */\n              tag_217\n              jumpi\n              mload(0x40)\n              shl(0xe5, 0x461bcd)\n              dup2\n              mstore\n                /* \"#utility.yul\":16958:16960   */\n              0x20\n                /* \"@openzeppelin/contracts/access/Ownable.sol\":1414:1482   */\n              0x04\n              dup3\n              add\n                /* \"#utility.yul\":16940:16961   */\n              dup2\n              swap1\n              mstore\n                /* \"#utility.yul\":16977:16995   */\n              0x24\n              dup3\n              add\n                /* \"#utility.yul\":16970:17000   */\n              mstore\n                /* \"#utility.yul\":17036:17070   */\n              0x4f776e61626c653a2063616c6c6572206973206e6f7420746865206f776e6572\n                /* \"#utility.yul\":17016:17034   */\n              0x44\n              dup3\n              add\n                /* \"#utility.yul\":17009:17071   */\n              mstore\n                /* \"#utility.yul\":17088:17106   */\n              0x64\n              add\n                /* \"@openzeppelin/contracts/access/Ownable.sol\":1414:1482   */\n              tag_138\n                /* \"#utility.yul\":16756:17112   */\n              jump\n                /* \"@openzeppelin/contracts/access/Ownable.sol\":2433:2620   */\n            tag_218:\n                /* \"@openzeppelin/contracts/access/Ownable.sol\":2506:2522   */\n              0x00\n                /* \"@openzeppelin/contracts/access/Ownable.sol\":2525:2531   */\n              dup1\n              sload\n              sub(shl(0xa0, 0x01), 0x01)\n                /* \"@openzeppelin/contracts/access/Ownable.sol\":2541:2558   */\n              dup4\n              dup2\n              and\n              not(sub(shl(0xa0, 0x01), 0x01))\n              dup4\n              and\n              dup2\n              or\n              dup5\n              sstore\n                /* \"@openzeppelin/contracts/access/Ownable.sol\":2573:2613   */\n              mload(0x40)\n                /* \"@openzeppelin/contracts/access/Ownable.sol\":2525:2531   */\n              swap2\n              swap1\n              swap3\n              and\n              swap3\n              dup4\n              swap2\n                /* \"@openzeppelin/contracts/access/Ownable.sol\":2573:2613   */\n              0x8be0079c531659141344cd1fd0a4f28419497f9722a3daafe3b4186f6b6457e0\n              swap2\n                /* \"@openzeppelin/contracts/access/Ownable.sol\":2506:2522   */\n              swap1\n                /* \"@openzeppelin/contracts/access/Ownable.sol\":2573:2613   */\n              log3\n                /* \"@openzeppelin/contracts/access/Ownable.sol\":2496:2620   */\n              pop\n                /* \"@openzeppelin/contracts/access/Ownable.sol\":2433:2620   */\n              pop\n              jump\t// out\n                /* \"Inheritance.sol\":11013:11355  function removeRequest(uint index) internal {... */\n            tag_255:\n                /* \"Inheritance.sol\":11083:11102  inheritanceRequests */\n              0x05\n                /* \"Inheritance.sol\":11083:11109  inheritanceRequests.length */\n              sload\n                /* \"Inheritance.sol\":11075:11109  index < inheritanceRequests.length */\n              dup2\n              lt\n                /* \"Inheritance.sol\":11067:11170  require(index < inheritanceRequests.length, \"The index sent is bigger than the requests array length.\") */\n              tag_418\n              jumpi\n              mload(0x40)\n              shl(0xe5, 0x461bcd)\n              dup2\n              mstore\n              0x04\n              add\n              tag_138\n              swap1\n              tag_224\n              jump\t// in\n            tag_418:\n                /* \"Inheritance.sol\":11195:11200  index */\n              dup1\n                /* \"Inheritance.sol\":11181:11314  for (uint i = index; i < inheritanceRequests.length-1; i++){... */\n            tag_420:\n                /* \"Inheritance.sol\":11206:11225  inheritanceRequests */\n              0x05\n                /* \"Inheritance.sol\":11206:11232  inheritanceRequests.length */\n              sload\n                /* \"Inheritance.sol\":11206:11234  inheritanceRequests.length-1 */\n              tag_423\n              swap1\n                /* \"Inheritance.sol\":11233:11234  1 */\n              0x01\n              swap1\n                /* \"Inheritance.sol\":11206:11234  inheritanceRequests.length-1 */\n              tag_129\n              jump\t// in\n            tag_423:\n                /* \"Inheritance.sol\":11202:11203  i */\n              dup2\n                /* \"Inheritance.sol\":11202:11234  i < inheritanceRequests.length-1 */\n              lt\n                /* \"Inheritance.sol\":11181:11314  for (uint i = index; i < inheritanceRequests.length-1; i++){... */\n              iszero\n              tag_421\n              jumpi\n                /* \"Inheritance.sol\":11279:11298  inheritanceRequests */\n              0x05\n                /* \"Inheritance.sol\":11299:11302  i+1 */\n              tag_424\n                /* \"Inheritance.sol\":11299:11300  i */\n              dup3\n                /* \"Inheritance.sol\":11301:11302  1 */\n              0x01\n                /* \"Inheritance.sol\":11299:11302  i+1 */\n              tag_244\n              jump\t// in\n            tag_424:\n                /* \"Inheritance.sol\":11279:11303  inheritanceRequests[i+1] */\n              dup2\n              sload\n              dup2\n              lt\n              tag_426\n              jumpi\n              tag_426\n              tag_148\n              jump\t// in\n            tag_426:\n              0x00\n              swap2\n              dup3\n              mstore\n              0x20\n              swap1\n              swap2\n              keccak256\n              add\n              sload\n                /* \"Inheritance.sol\":11254:11273  inheritanceRequests */\n              0x05\n                /* \"Inheritance.sol\":11254:11276  inheritanceRequests[i] */\n              dup1\n              sload\n              sub(shl(0xa0, 0x01), 0x01)\n                /* \"Inheritance.sol\":11279:11303  inheritanceRequests[i+1] */\n              swap1\n              swap3\n              and\n              swap2\n                /* \"Inheritance.sol\":11274:11275  i */\n              dup4\n              swap1\n                /* \"Inheritance.sol\":11254:11276  inheritanceRequests[i] */\n              dup2\n              lt\n              tag_429\n              jumpi\n              tag_429\n              tag_148\n              jump\t// in\n            tag_429:\n              0x00\n              swap2\n              dup3\n              mstore\n              0x20\n              swap1\n              swap2\n              keccak256\n              add\n                /* \"Inheritance.sol\":11254:11303  inheritanceRequests[i] = inheritanceRequests[i+1] */\n              dup1\n              sload\n              not(sub(shl(0xa0, 0x01), 0x01))\n              and\n              sub(shl(0xa0, 0x01), 0x01)\n              swap3\n              swap1\n              swap3\n              and\n              swap2\n              swap1\n              swap2\n              or\n              swap1\n              sstore\n                /* \"Inheritance.sol\":11236:11239  i++ */\n              dup1\n              tag_431\n              dup2\n              tag_154\n              jump\t// in\n            tag_431:\n              swap2\n              pop\n              pop\n                /* \"Inheritance.sol\":11181:11314  for (uint i = index; i < inheritanceRequests.length-1; i++){... */\n              jump(tag_420)\n            tag_421:\n              pop\n                /* \"Inheritance.sol\":11323:11342  inheritanceRequests */\n              0x05\n                /* \"Inheritance.sol\":11323:11348  inheritanceRequests.pop() */\n              dup1\n              sload\n              dup1\n              tag_433\n              jumpi\n              tag_433\n              tag_434\n              jump\t// in\n            tag_433:\n              0x00\n              dup3\n              dup2\n              mstore\n              0x20\n              swap1\n              keccak256\n              dup2\n              add\n              not(0x00)\n              swap1\n              dup2\n              add\n              dup1\n              sload\n              not(sub(shl(0xa0, 0x01), 0x01))\n              and\n              swap1\n              sstore\n              add\n              swap1\n              sstore\n              pop\n                /* \"Inheritance.sol\":11013:11355  function removeRequest(uint index) internal {... */\n              jump\t// out\n            tag_253:\n              dup3\n              dup1\n              sload\n              dup3\n              dup3\n              sstore\n              swap1\n              0x00\n              mstore\n              keccak256(0x00, 0x20)\n              swap1\n              dup2\n              add\n              swap3\n              dup3\n              iszero\n              tag_439\n              jumpi\n              swap2\n              0x20\n              mul\n              dup3\n              add\n            tag_438:\n              dup3\n              dup2\n              gt\n              iszero\n              tag_439\n              jumpi\n              dup3\n              mload\n              dup3\n              sstore\n              swap2\n              0x20\n              add\n              swap2\n              swap1\n              0x01\n              add\n              swap1\n              jump(tag_438)\n            tag_439:\n              pop\n              tag_440\n              swap3\n              swap2\n              pop\n              tag_441\n              jump\t// in\n            tag_440:\n              pop\n              swap1\n              jump\t// out\n            tag_441:\n            tag_442:\n              dup1\n              dup3\n              gt\n              iszero\n              tag_440\n              jumpi\n              0x00\n              dup2\n              sstore\n              0x01\n              add\n              jump(tag_442)\n                /* \"#utility.yul\":206:864   */\n            tag_37:\n                /* \"#utility.yul\":377:379   */\n              0x20\n                /* \"#utility.yul\":429:450   */\n              dup1\n              dup3\n              mstore\n                /* \"#utility.yul\":499:512   */\n              dup3\n              mload\n                /* \"#utility.yul\":402:420   */\n              dup3\n              dup3\n              add\n                /* \"#utility.yul\":521:543   */\n              dup2\n              swap1\n              mstore\n                /* \"#utility.yul\":348:352   */\n              0x00\n              swap2\n                /* \"#utility.yul\":377:379   */\n              swap1\n                /* \"#utility.yul\":600:615   */\n              dup5\n              dup3\n              add\n              swap1\n                /* \"#utility.yul\":574:576   */\n              0x40\n                /* \"#utility.yul\":559:577   */\n              dup6\n              add\n              swap1\n                /* \"#utility.yul\":348:352   */\n              dup5\n                /* \"#utility.yul\":643:838   */\n            tag_450:\n                /* \"#utility.yul\":657:663   */\n              dup2\n                /* \"#utility.yul\":654:655   */\n              dup2\n                /* \"#utility.yul\":651:664   */\n              lt\n                /* \"#utility.yul\":643:838   */\n              iszero\n              tag_452\n              jumpi\n                /* \"#utility.yul\":722:735   */\n              dup4\n              mload\n              sub(shl(0xa0, 0x01), 0x01)\n                /* \"#utility.yul\":718:757   */\n              and\n                /* \"#utility.yul\":706:758   */\n              dup4\n              mstore\n                /* \"#utility.yul\":813:828   */\n              swap3\n              dup5\n              add\n              swap3\n                /* \"#utility.yul\":778:790   */\n              swap2\n              dup5\n              add\n              swap2\n                /* \"#utility.yul\":754:755   */\n              0x01\n                /* \"#utility.yul\":672:681   */\n              add\n                /* \"#utility.yul\":643:838   */\n              jump(tag_450)\n            tag_452:\n              pop\n                /* \"#utility.yul\":855:858   */\n              swap1\n              swap7\n                /* \"#utility.yul\":206:864   */\n              swap6\n              pop\n              pop\n              pop\n              pop\n              pop\n              pop\n              jump\t// out\n                /* \"#utility.yul\":869:1049   */\n            tag_44:\n                /* \"#utility.yul\":928:934   */\n              0x00\n                /* \"#utility.yul\":981:983   */\n              0x20\n                /* \"#utility.yul\":969:978   */\n              dup3\n                /* \"#utility.yul\":960:967   */\n              dup5\n                /* \"#utility.yul\":956:979   */\n              sub\n                /* \"#utility.yul\":952:984   */\n              slt\n                /* \"#utility.yul\":949:1001   */\n              iszero\n              tag_454\n              jumpi\n                /* \"#utility.yul\":997:998   */\n              0x00\n                /* \"#utility.yul\":994:995   */\n              dup1\n                /* \"#utility.yul\":987:999   */\n              revert\n                /* \"#utility.yul\":949:1001   */\n            tag_454:\n              pop\n                /* \"#utility.yul\":1020:1043   */\n              calldataload\n              swap2\n                /* \"#utility.yul\":869:1049   */\n              swap1\n              pop\n              jump\t// out\n                /* \"#utility.yul\":1054:1227   */\n            tag_444:\n                /* \"#utility.yul\":1122:1142   */\n              dup1\n              calldataload\n              sub(shl(0xa0, 0x01), 0x01)\n                /* \"#utility.yul\":1171:1202   */\n              dup2\n              and\n                /* \"#utility.yul\":1161:1203   */\n              dup2\n              eq\n                /* \"#utility.yul\":1151:1221   */\n              tag_456\n              jumpi\n                /* \"#utility.yul\":1217:1218   */\n              0x00\n                /* \"#utility.yul\":1214:1215   */\n              dup1\n                /* \"#utility.yul\":1207:1219   */\n              revert\n                /* \"#utility.yul\":1151:1221   */\n            tag_456:\n                /* \"#utility.yul\":1054:1227   */\n              swap2\n              swap1\n              pop\n              jump\t// out\n                /* \"#utility.yul\":1232:1418   */\n            tag_49:\n                /* \"#utility.yul\":1291:1297   */\n              0x00\n                /* \"#utility.yul\":1344:1346   */\n              0x20\n                /* \"#utility.yul\":1332:1341   */\n              dup3\n                /* \"#utility.yul\":1323:1330   */\n              dup5\n                /* \"#utility.yul\":1319:1342   */\n              sub\n                /* \"#utility.yul\":1315:1347   */\n              slt\n                /* \"#utility.yul\":1312:1364   */\n              iszero\n              tag_458\n              jumpi\n                /* \"#utility.yul\":1360:1361   */\n              0x00\n                /* \"#utility.yul\":1357:1358   */\n              dup1\n                /* \"#utility.yul\":1350:1362   */\n              revert\n                /* \"#utility.yul\":1312:1364   */\n            tag_458:\n                /* \"#utility.yul\":1383:1412   */\n              tag_459\n                /* \"#utility.yul\":1402:1411   */\n              dup3\n                /* \"#utility.yul\":1383:1412   */\n              tag_444\n              jump\t// in\n            tag_459:\n                /* \"#utility.yul\":1373:1412   */\n              swap4\n                /* \"#utility.yul\":1232:1418   */\n              swap3\n              pop\n              pop\n              pop\n              jump\t// out\n                /* \"#utility.yul\":1423:1858   */\n            tag_445:\n                /* \"#utility.yul\":1476:1479   */\n              0x00\n                /* \"#utility.yul\":1514:1519   */\n              dup2\n                /* \"#utility.yul\":1508:1520   */\n              mload\n                /* \"#utility.yul\":1541:1547   */\n              dup1\n                /* \"#utility.yul\":1536:1539   */\n              dup5\n                /* \"#utility.yul\":1529:1548   */\n              mstore\n                /* \"#utility.yul\":1567:1571   */\n              0x20\n                /* \"#utility.yul\":1596:1598   */\n              dup1\n                /* \"#utility.yul\":1591:1594   */\n              dup6\n                /* \"#utility.yul\":1587:1599   */\n              add\n                /* \"#utility.yul\":1580:1599   */\n              swap5\n              pop\n                /* \"#utility.yul\":1633:1635   */\n              dup1\n                /* \"#utility.yul\":1626:1631   */\n              dup5\n                /* \"#utility.yul\":1622:1636   */\n              add\n                /* \"#utility.yul\":1654:1655   */\n              0x00\n                /* \"#utility.yul\":1664:1833   */\n            tag_461:\n                /* \"#utility.yul\":1678:1684   */\n              dup4\n                /* \"#utility.yul\":1675:1676   */\n              dup2\n                /* \"#utility.yul\":1672:1685   */\n              lt\n                /* \"#utility.yul\":1664:1833   */\n              iszero\n              tag_463\n              jumpi\n                /* \"#utility.yul\":1739:1752   */\n              dup2\n              mload\n                /* \"#utility.yul\":1727:1753   */\n              dup8\n              mstore\n                /* \"#utility.yul\":1773:1785   */\n              swap6\n              dup3\n              add\n              swap6\n                /* \"#utility.yul\":1808:1823   */\n              swap1\n              dup3\n              add\n              swap1\n                /* \"#utility.yul\":1700:1701   */\n              0x01\n                /* \"#utility.yul\":1693:1702   */\n              add\n                /* \"#utility.yul\":1664:1833   */\n              jump(tag_461)\n            tag_463:\n              pop\n                /* \"#utility.yul\":1849:1852   */\n              swap5\n              swap6\n                /* \"#utility.yul\":1423:1858   */\n              swap5\n              pop\n              pop\n              pop\n              pop\n              pop\n              jump\t// out\n                /* \"#utility.yul\":1863:2124   */\n            tag_52:\n                /* \"#utility.yul\":2042:2044   */\n              0x20\n                /* \"#utility.yul\":2031:2040   */\n              dup2\n                /* \"#utility.yul\":2024:2045   */\n              mstore\n                /* \"#utility.yul\":2005:2009   */\n              0x00\n                /* \"#utility.yul\":2062:2118   */\n              tag_459\n                /* \"#utility.yul\":2114:2116   */\n              0x20\n                /* \"#utility.yul\":2103:2112   */\n              dup4\n                /* \"#utility.yul\":2099:2117   */\n              add\n                /* \"#utility.yul\":2091:2097   */\n              dup5\n                /* \"#utility.yul\":2062:2118   */\n              tag_445\n              jump\t// in\n                /* \"#utility.yul\":2311:2565   */\n            tag_61:\n                /* \"#utility.yul\":2379:2385   */\n              0x00\n                /* \"#utility.yul\":2387:2393   */\n              dup1\n                /* \"#utility.yul\":2440:2442   */\n              0x40\n                /* \"#utility.yul\":2428:2437   */\n              dup4\n                /* \"#utility.yul\":2419:2426   */\n              dup6\n                /* \"#utility.yul\":2415:2438   */\n              sub\n                /* \"#utility.yul\":2411:2443   */\n              slt\n                /* \"#utility.yul\":2408:2460   */\n              iszero\n              tag_468\n              jumpi\n                /* \"#utility.yul\":2456:2457   */\n              0x00\n                /* \"#utility.yul\":2453:2454   */\n              dup1\n                /* \"#utility.yul\":2446:2458   */\n              revert\n                /* \"#utility.yul\":2408:2460   */\n            tag_468:\n                /* \"#utility.yul\":2479:2508   */\n              tag_469\n                /* \"#utility.yul\":2498:2507   */\n              dup4\n                /* \"#utility.yul\":2479:2508   */\n              tag_444\n              jump\t// in\n            tag_469:\n                /* \"#utility.yul\":2469:2508   */\n              swap5\n                /* \"#utility.yul\":2555:2557   */\n              0x20\n                /* \"#utility.yul\":2540:2558   */\n              swap4\n              swap1\n              swap4\n              add\n                /* \"#utility.yul\":2527:2559   */\n              calldataload\n              swap4\n              pop\n              pop\n              pop\n                /* \"#utility.yul\":2311:2565   */\n              jump\t// out\n                /* \"#utility.yul\":2570:3875   */\n            tag_67:\n                /* \"#utility.yul\":2754:2758   */\n              0x00\n                /* \"#utility.yul\":2783:2785   */\n              0x20\n                /* \"#utility.yul\":2823:2825   */\n              dup1\n                /* \"#utility.yul\":2812:2821   */\n              dup4\n                /* \"#utility.yul\":2808:2826   */\n              add\n                /* \"#utility.yul\":2853:2855   */\n              dup2\n                /* \"#utility.yul\":2842:2851   */\n              dup5\n                /* \"#utility.yul\":2835:2856   */\n              mstore\n                /* \"#utility.yul\":2876:2882   */\n              dup1\n                /* \"#utility.yul\":2911:2917   */\n              dup6\n                /* \"#utility.yul\":2905:2918   */\n              mload\n                /* \"#utility.yul\":2942:2948   */\n              dup1\n                /* \"#utility.yul\":2934:2940   */\n              dup4\n                /* \"#utility.yul\":2927:2949   */\n              mstore\n                /* \"#utility.yul\":2968:2970   */\n              0x40\n                /* \"#utility.yul\":2958:2970   */\n              swap3\n              pop\n                /* \"#utility.yul\":3001:3003   */\n              dup3\n                /* \"#utility.yul\":2990:2999   */\n              dup7\n                /* \"#utility.yul\":2986:3004   */\n              add\n                /* \"#utility.yul\":2979:3004   */\n              swap2\n              pop\n                /* \"#utility.yul\":3063:3065   */\n              dup3\n                /* \"#utility.yul\":3053:3059   */\n              dup2\n                /* \"#utility.yul\":3050:3051   */\n              0x05\n                /* \"#utility.yul\":3046:3060   */\n              shl\n                /* \"#utility.yul\":3035:3044   */\n              dup8\n                /* \"#utility.yul\":3031:3061   */\n              add\n                /* \"#utility.yul\":3027:3066   */\n              add\n                /* \"#utility.yul\":3101:3103   */\n              dup5\n                /* \"#utility.yul\":3093:3099   */\n              dup9\n                /* \"#utility.yul\":3089:3104   */\n              add\n                /* \"#utility.yul\":3122:3123   */\n              0x00\n                /* \"#utility.yul\":3132:3846   */\n            tag_471:\n                /* \"#utility.yul\":3146:3152   */\n              dup4\n                /* \"#utility.yul\":3143:3144   */\n              dup2\n                /* \"#utility.yul\":3140:3153   */\n              lt\n                /* \"#utility.yul\":3132:3846   */\n              iszero\n              tag_473\n              jumpi\n                /* \"#utility.yul\":3211:3233   */\n              dup9\n              dup4\n              sub\n              not(0x3f)\n                /* \"#utility.yul\":3207:3243   */\n              add\n                /* \"#utility.yul\":3195:3244   */\n              dup6\n              mstore\n                /* \"#utility.yul\":3267:3280   */\n              dup2\n              mload\n                /* \"#utility.yul\":3339:3348   */\n              dup1\n              mload\n              sub(shl(0xa0, 0x01), 0x01)\n                /* \"#utility.yul\":3335:3370   */\n              and\n                /* \"#utility.yul\":3320:3371   */\n              dup5\n              mstore\n                /* \"#utility.yul\":3414:3425   */\n              dup8\n              dup2\n              add\n                /* \"#utility.yul\":3408:3426   */\n              mload\n                /* \"#utility.yul\":3391:3406   */\n              dup9\n              dup6\n              add\n                /* \"#utility.yul\":3384:3427   */\n              mstore\n                /* \"#utility.yul\":3470:3481   */\n              dup7\n              dup2\n              add\n                /* \"#utility.yul\":3464:3482   */\n              mload\n                /* \"#utility.yul\":3447:3462   */\n              dup8\n              dup6\n              add\n                /* \"#utility.yul\":3440:3483   */\n              mstore\n                /* \"#utility.yul\":3506:3510   */\n              0x60\n                /* \"#utility.yul\":3553:3564   */\n              dup1\n              dup3\n              add\n                /* \"#utility.yul\":3547:3565   */\n              mload\n                /* \"#utility.yul\":3530:3545   */\n              swap1\n              dup6\n              add\n                /* \"#utility.yul\":3523:3566   */\n              mstore\n                /* \"#utility.yul\":3589:3593   */\n              0x80\n                /* \"#utility.yul\":3632:3643   */\n              swap1\n              dup2\n              add\n                /* \"#utility.yul\":3626:3644   */\n              mload\n                /* \"#utility.yul\":3303:3307   */\n              0xa0\n                /* \"#utility.yul\":3664:3679   */\n              swap2\n              dup6\n              add\n                /* \"#utility.yul\":3657:3684   */\n              dup3\n              swap1\n              mstore\n                /* \"#utility.yul\":3626:3644   */\n              swap1\n                /* \"#utility.yul\":3707:3766   */\n              tag_474\n                /* \"#utility.yul\":3750:3765   */\n              dup2\n              dup7\n              add\n                /* \"#utility.yul\":3626:3644   */\n              dup4\n                /* \"#utility.yul\":3707:3766   */\n              tag_445\n              jump\t// in\n            tag_474:\n                /* \"#utility.yul\":3824:3836   */\n              swap7\n              dup10\n              add\n              swap7\n                /* \"#utility.yul\":3697:3766   */\n              swap5\n              pop\n              pop\n              pop\n                /* \"#utility.yul\":3789:3804   */\n              swap1\n              dup7\n              add\n              swap1\n                /* \"#utility.yul\":3168:3169   */\n              0x01\n                /* \"#utility.yul\":3161:3170   */\n              add\n                /* \"#utility.yul\":3132:3846   */\n              jump(tag_471)\n            tag_473:\n              pop\n                /* \"#utility.yul\":3863:3869   */\n              swap1\n              swap9\n                /* \"#utility.yul\":2570:3875   */\n              swap8\n              pop\n              pop\n              pop\n              pop\n              pop\n              pop\n              pop\n              pop\n              jump\t// out\n                /* \"#utility.yul\":3880:4202   */\n            tag_74:\n                /* \"#utility.yul\":3957:3963   */\n              0x00\n                /* \"#utility.yul\":3965:3971   */\n              dup1\n                /* \"#utility.yul\":3973:3979   */\n              0x00\n                /* \"#utility.yul\":4026:4028   */\n              0x60\n                /* \"#utility.yul\":4014:4023   */\n              dup5\n                /* \"#utility.yul\":4005:4012   */\n              dup7\n                /* \"#utility.yul\":4001:4024   */\n              sub\n                /* \"#utility.yul\":3997:4029   */\n              slt\n                /* \"#utility.yul\":3994:4046   */\n              iszero\n              tag_476\n              jumpi\n                /* \"#utility.yul\":4042:4043   */\n              0x00\n                /* \"#utility.yul\":4039:4040   */\n              dup1\n                /* \"#utility.yul\":4032:4044   */\n              revert\n                /* \"#utility.yul\":3994:4046   */\n            tag_476:\n                /* \"#utility.yul\":4078:4087   */\n              dup4\n                /* \"#utility.yul\":4065:4088   */\n              calldataload\n                /* \"#utility.yul\":4055:4088   */\n              swap3\n              pop\n                /* \"#utility.yul\":4107:4145   */\n              tag_477\n                /* \"#utility.yul\":4141:4143   */\n              0x20\n                /* \"#utility.yul\":4130:4139   */\n              dup6\n                /* \"#utility.yul\":4126:4144   */\n              add\n                /* \"#utility.yul\":4107:4145   */\n              tag_444\n              jump\t// in\n            tag_477:\n                /* \"#utility.yul\":4097:4145   */\n              swap2\n              pop\n                /* \"#utility.yul\":4192:4194   */\n              0x40\n                /* \"#utility.yul\":4181:4190   */\n              dup5\n                /* \"#utility.yul\":4177:4195   */\n              add\n                /* \"#utility.yul\":4164:4196   */\n              calldataload\n                /* \"#utility.yul\":4154:4196   */\n              swap1\n              pop\n                /* \"#utility.yul\":3880:4202   */\n              swap3\n              pop\n              swap3\n              pop\n              swap3\n              jump\t// out\n                /* \"#utility.yul\":4415:4669   */\n            tag_108:\n                /* \"#utility.yul\":4483:4489   */\n              0x00\n                /* \"#utility.yul\":4491:4497   */\n              dup1\n                /* \"#utility.yul\":4544:4546   */\n              0x40\n                /* \"#utility.yul\":4532:4541   */\n              dup4\n                /* \"#utility.yul\":4523:4530   */\n              dup6\n                /* \"#utility.yul\":4519:4542   */\n              sub\n                /* \"#utility.yul\":4515:4547   */\n              slt\n                /* \"#utility.yul\":4512:4564   */\n              iszero\n              tag_480\n              jumpi\n                /* \"#utility.yul\":4560:4561   */\n              0x00\n                /* \"#utility.yul\":4557:4558   */\n              dup1\n                /* \"#utility.yul\":4550:4562   */\n              revert\n                /* \"#utility.yul\":4512:4564   */\n            tag_480:\n                /* \"#utility.yul\":4596:4605   */\n              dup3\n                /* \"#utility.yul\":4583:4606   */\n              calldataload\n                /* \"#utility.yul\":4573:4606   */\n              swap2\n              pop\n                /* \"#utility.yul\":4625:4663   */\n              tag_481\n                /* \"#utility.yul\":4659:4661   */\n              0x20\n                /* \"#utility.yul\":4648:4657   */\n              dup5\n                /* \"#utility.yul\":4644:4662   */\n              add\n                /* \"#utility.yul\":4625:4663   */\n              tag_444\n              jump\t// in\n            tag_481:\n                /* \"#utility.yul\":4615:4663   */\n              swap1\n              pop\n                /* \"#utility.yul\":4415:4669   */\n              swap3\n              pop\n              swap3\n              swap1\n              pop\n              jump\t// out\n                /* \"#utility.yul\":4953:5080   */\n            tag_446:\n                /* \"#utility.yul\":5014:5024   */\n              0x4e487b71\n                /* \"#utility.yul\":5009:5012   */\n              0xe0\n                /* \"#utility.yul\":5005:5025   */\n              shl\n                /* \"#utility.yul\":5002:5003   */\n              0x00\n                /* \"#utility.yul\":4995:5026   */\n              mstore\n                /* \"#utility.yul\":5045:5049   */\n              0x11\n                /* \"#utility.yul\":5042:5043   */\n              0x04\n                /* \"#utility.yul\":5035:5050   */\n              mstore\n                /* \"#utility.yul\":5069:5073   */\n              0x24\n                /* \"#utility.yul\":5066:5067   */\n              0x00\n                /* \"#utility.yul\":5059:5074   */\n              revert\n                /* \"#utility.yul\":5085:5213   */\n            tag_129:\n                /* \"#utility.yul\":5152:5161   */\n              dup2\n              dup2\n              sub\n                /* \"#utility.yul\":5173:5184   */\n              dup2\n              dup2\n              gt\n                /* \"#utility.yul\":5170:5207   */\n              iszero\n              tag_486\n              jumpi\n                /* \"#utility.yul\":5187:5205   */\n              tag_486\n              tag_446\n              jump\t// in\n            tag_486:\n                /* \"#utility.yul\":5085:5213   */\n              swap3\n              swap2\n              pop\n              pop\n              jump\t// out\n                /* \"#utility.yul\":6049:6176   */\n            tag_148:\n                /* \"#utility.yul\":6110:6120   */\n              0x4e487b71\n                /* \"#utility.yul\":6105:6108   */\n              0xe0\n                /* \"#utility.yul\":6101:6121   */\n              shl\n                /* \"#utility.yul\":6098:6099   */\n              0x00\n                /* \"#utility.yul\":6091:6122   */\n              mstore\n                /* \"#utility.yul\":6141:6145   */\n              0x32\n                /* \"#utility.yul\":6138:6139   */\n              0x04\n                /* \"#utility.yul\":6131:6146   */\n              mstore\n                /* \"#utility.yul\":6165:6169   */\n              0x24\n                /* \"#utility.yul\":6162:6163   */\n              0x00\n                /* \"#utility.yul\":6155:6170   */\n              revert\n                /* \"#utility.yul\":6591:6726   */\n            tag_154:\n                /* \"#utility.yul\":6630:6633   */\n              0x00\n                /* \"#utility.yul\":6651:6668   */\n              0x01\n              dup3\n              add\n                /* \"#utility.yul\":6648:6691   */\n              tag_493\n              jumpi\n                /* \"#utility.yul\":6671:6689   */\n              tag_493\n              tag_446\n              jump\t// in\n            tag_493:\n              pop\n                /* \"#utility.yul\":6718:6719   */\n              0x01\n                /* \"#utility.yul\":6707:6720   */\n              add\n              swap1\n                /* \"#utility.yul\":6591:6726   */\n              jump\t// out\n                /* \"#utility.yul\":7988:8172   */\n            tag_189:\n                /* \"#utility.yul\":8058:8064   */\n              0x00\n                /* \"#utility.yul\":8111:8113   */\n              0x20\n                /* \"#utility.yul\":8099:8108   */\n              dup3\n                /* \"#utility.yul\":8090:8097   */\n              dup5\n                /* \"#utility.yul\":8086:8109   */\n              sub\n                /* \"#utility.yul\":8082:8114   */\n              slt\n                /* \"#utility.yul\":8079:8131   */\n              iszero\n              tag_498\n              jumpi\n                /* \"#utility.yul\":8127:8128   */\n              0x00\n                /* \"#utility.yul\":8124:8125   */\n              dup1\n                /* \"#utility.yul\":8117:8129   */\n              revert\n                /* \"#utility.yul\":8079:8131   */\n            tag_498:\n              pop\n                /* \"#utility.yul\":8150:8166   */\n              mload\n              swap2\n                /* \"#utility.yul\":7988:8172   */\n              swap1\n              pop\n              jump\t// out\n                /* \"#utility.yul\":8587:9007   */\n            tag_224:\n                /* \"#utility.yul\":8789:8791   */\n              0x20\n                /* \"#utility.yul\":8771:8792   */\n              dup1\n              dup3\n              mstore\n                /* \"#utility.yul\":8828:8830   */\n              0x38\n                /* \"#utility.yul\":8808:8826   */\n              swap1\n              dup3\n              add\n                /* \"#utility.yul\":8801:8831   */\n              mstore\n                /* \"#utility.yul\":8867:8901   */\n              0x54686520696e6465782073656e7420697320626967676572207468616e207468\n                /* \"#utility.yul\":8862:8864   */\n              0x40\n                /* \"#utility.yul\":8847:8865   */\n              dup3\n              add\n                /* \"#utility.yul\":8840:8902   */\n              mstore\n                /* \"#utility.yul\":8938:8964   */\n              0x65207265717565737473206172726179206c656e6774682e0000000000000000\n                /* \"#utility.yul\":8933:8935   */\n              0x60\n                /* \"#utility.yul\":8918:8936   */\n              dup3\n              add\n                /* \"#utility.yul\":8911:8965   */\n              mstore\n                /* \"#utility.yul\":8997:9000   */\n              0x80\n                /* \"#utility.yul\":8982:9001   */\n              add\n              swap1\n                /* \"#utility.yul\":8587:9007   */\n              jump\t// out\n                /* \"#utility.yul\":9012:9489   */\n            tag_230:\n                /* \"#utility.yul\":9214:9216   */\n              0x20\n                /* \"#utility.yul\":9196:9217   */\n              dup1\n              dup3\n              mstore\n                /* \"#utility.yul\":9253:9255   */\n              0x49\n                /* \"#utility.yul\":9233:9251   */\n              swap1\n              dup3\n              add\n                /* \"#utility.yul\":9226:9256   */\n              mstore\n                /* \"#utility.yul\":9292:9326   */\n              0x416464726573732073656e7420646f65736e2774206d61746368207769746820\n                /* \"#utility.yul\":9287:9289   */\n              0x40\n                /* \"#utility.yul\":9272:9290   */\n              dup3\n              add\n                /* \"#utility.yul\":9265:9327   */\n              mstore\n                /* \"#utility.yul\":9363:9397   */\n              0x74686520616464726573732073746f72656420696e2074686520726571756573\n                /* \"#utility.yul\":9358:9360   */\n              0x60\n                /* \"#utility.yul\":9343:9361   */\n              dup3\n              add\n                /* \"#utility.yul\":9336:9398   */\n              mstore\n              shl(0xb9, 0x3a399030b93930bc97)\n                /* \"#utility.yul\":9429:9432   */\n              0x80\n                /* \"#utility.yul\":9414:9433   */\n              dup3\n              add\n                /* \"#utility.yul\":9407:9447   */\n              mstore\n                /* \"#utility.yul\":9479:9482   */\n              0xa0\n                /* \"#utility.yul\":9464:9483   */\n              add\n              swap1\n                /* \"#utility.yul\":9012:9489   */\n              jump\t// out\n                /* \"#utility.yul\":9901:10026   */\n            tag_244:\n                /* \"#utility.yul\":9966:9975   */\n              dup1\n              dup3\n              add\n                /* \"#utility.yul\":9987:9997   */\n              dup1\n              dup3\n              gt\n                /* \"#utility.yul\":9984:10020   */\n              iszero\n              tag_486\n              jumpi\n                /* \"#utility.yul\":10000:10018   */\n              tag_486\n              tag_446\n              jump\t// in\n                /* \"#utility.yul\":11578:11746   */\n            tag_284:\n                /* \"#utility.yul\":11651:11660   */\n              dup1\n              dup3\n              mul\n                /* \"#utility.yul\":11682:11691   */\n              dup2\n              iszero\n                /* \"#utility.yul\":11699:11714   */\n              dup3\n              dup3\n              div\n                /* \"#utility.yul\":11693:11715   */\n              dup5\n              eq\n                /* \"#utility.yul\":11679:11716   */\n              or\n                /* \"#utility.yul\":11669:11740   */\n              tag_486\n              jumpi\n                /* \"#utility.yul\":11720:11738   */\n              tag_486\n              tag_446\n              jump\t// in\n                /* \"#utility.yul\":11751:11968   */\n            tag_286:\n                /* \"#utility.yul\":11791:11792   */\n              0x00\n                /* \"#utility.yul\":11817:11818   */\n              dup3\n                /* \"#utility.yul\":11807:11939   */\n              tag_513\n              jumpi\n                /* \"#utility.yul\":11861:11871   */\n              0x4e487b71\n                /* \"#utility.yul\":11856:11859   */\n              0xe0\n                /* \"#utility.yul\":11852:11872   */\n              shl\n                /* \"#utility.yul\":11849:11850   */\n              0x00\n                /* \"#utility.yul\":11842:11873   */\n              mstore\n                /* \"#utility.yul\":11896:11900   */\n              0x12\n                /* \"#utility.yul\":11893:11894   */\n              0x04\n                /* \"#utility.yul\":11886:11901   */\n              mstore\n                /* \"#utility.yul\":11924:11928   */\n              0x24\n                /* \"#utility.yul\":11921:11922   */\n              0x00\n                /* \"#utility.yul\":11914:11929   */\n              revert\n                /* \"#utility.yul\":11807:11939   */\n            tag_513:\n              pop\n                /* \"#utility.yul\":11953:11962   */\n              div\n              swap1\n                /* \"#utility.yul\":11751:11968   */\n              jump\t// out\n                /* \"#utility.yul\":11973:12250   */\n            tag_314:\n                /* \"#utility.yul\":12040:12046   */\n              0x00\n                /* \"#utility.yul\":12093:12095   */\n              0x20\n                /* \"#utility.yul\":12081:12090   */\n              dup3\n                /* \"#utility.yul\":12072:12079   */\n              dup5\n                /* \"#utility.yul\":12068:12091   */\n              sub\n                /* \"#utility.yul\":12064:12096   */\n              slt\n                /* \"#utility.yul\":12061:12113   */\n              iszero\n              tag_515\n              jumpi\n                /* \"#utility.yul\":12109:12110   */\n              0x00\n                /* \"#utility.yul\":12106:12107   */\n              dup1\n                /* \"#utility.yul\":12099:12111   */\n              revert\n                /* \"#utility.yul\":12061:12113   */\n            tag_515:\n                /* \"#utility.yul\":12141:12150   */\n              dup2\n                /* \"#utility.yul\":12135:12151   */\n              mload\n                /* \"#utility.yul\":12194:12199   */\n              dup1\n                /* \"#utility.yul\":12187:12200   */\n              iszero\n                /* \"#utility.yul\":12180:12201   */\n              iszero\n                /* \"#utility.yul\":12173:12178   */\n              dup2\n                /* \"#utility.yul\":12170:12202   */\n              eq\n                /* \"#utility.yul\":12160:12220   */\n              tag_459\n              jumpi\n                /* \"#utility.yul\":12216:12217   */\n              0x00\n                /* \"#utility.yul\":12213:12214   */\n              dup1\n                /* \"#utility.yul\":12206:12218   */\n              revert\n                /* \"#utility.yul\":16624:16751   */\n            tag_397:\n                /* \"#utility.yul\":16685:16695   */\n              0x4e487b71\n                /* \"#utility.yul\":16680:16683   */\n              0xe0\n                /* \"#utility.yul\":16676:16696   */\n              shl\n                /* \"#utility.yul\":16673:16674   */\n              0x00\n                /* \"#utility.yul\":16666:16697   */\n              mstore\n                /* \"#utility.yul\":16716:16720   */\n              0x41\n                /* \"#utility.yul\":16713:16714   */\n              0x04\n                /* \"#utility.yul\":16706:16721   */\n              mstore\n                /* \"#utility.yul\":16740:16744   */\n              0x24\n                /* \"#utility.yul\":16737:16738   */\n              0x00\n                /* \"#utility.yul\":16730:16745   */\n              revert\n                /* \"#utility.yul\":17117:17244   */\n            tag_434:\n                /* \"#utility.yul\":17178:17188   */\n              0x4e487b71\n                /* \"#utility.yul\":17173:17176   */\n              0xe0\n                /* \"#utility.yul\":17169:17189   */\n              shl\n                /* \"#utility.yul\":17166:17167   */\n              0x00\n                /* \"#utility.yul\":17159:17190   */\n              mstore\n                /* \"#utility.yul\":17209:17213   */\n              0x31\n                /* \"#utility.yul\":17206:17207   */\n              0x04\n                /* \"#utility.yul\":17199:17214   */\n              mstore\n                /* \"#utility.yul\":17233:17237   */\n              0x24\n                /* \"#utility.yul\":17230:17231   */\n              0x00\n                /* \"#utility.yul\":17223:17238   */\n              revert\n\n            auxdata: 0xa264697066735822122040086d6ffeb786ae1d39472cdca560e647d23c1547887947d2a1fa28c6c5cd9664736f6c63430008130033\n        }\n    }\n\n    auxdata: 0xa264697066735822122084deb02ff0c483e9eff53e5e2c1ed1ade93064807d920b6c76a275874afc876664736f6c63430008130033\n}\n","bytecode":{"linkReferences":{},"object":"608060405234801561001057600080fd5b5061267d806100206000396000f3fe608060405234801561001057600080fd5b506004361061004c5760003560e01c806321b6e8f5146100515780636122fed51461006757806365a4c281146100a8578063b6db75a0146100bd575b600080fd5b6000546040519081526020015b60405180910390f35b61009061007536600461031f565b6001602052600090815260409020546001600160a01b031681565b6040516001600160a01b03909116815260200161005e565b6100bb6100b6366004610341565b6100e8565b005b336000908152600160205260409020546001600160a01b03161515604051901515815260200161005e565b336000908152600160205260409020546001600160a01b0316156101785760405162461bcd60e51b815260206004820152603d60248201527f596f75206861766520616c7265616479206f6e6520696e6865726974616e636560448201527f20637265617465642c20796f752063616e277420686176652074776f2e000000606482015260840160405180910390fd5b338282604051610187906102f6565b6001600160a01b03938416815260208101929092529091166040820152606001604051809103906000f0801580156101c3573d6000803e3d6000fd5b5033600090815260016020526040812080546001600160a01b0319166001600160a01b039390931692909217909155805490806101ff8361036d565b90915550503360008181526001602052604080822054915490516001600160a01b039290921692917f246b027e5b424dae3d402e972e3f8e400056fe836431cbe048d9553826bb2e11916102ea9160408082526069908201527f4c6f6720616c6c207468652076616c7565733a2041646d696e6973747261746f60608201527f7220616464726573732c20496e6865726974616e636520636f6e74726163742060808201527f616464726573732c204e756d626572206f6620696e6865726974616e6365732060a0820152683232b83637bcb2b21760b91b60c0820152602081019190915260e00190565b60405180910390a35050565b6122b38061039583390190565b80356001600160a01b038116811461031a57600080fd5b919050565b60006020828403121561033157600080fd5b61033a82610303565b9392505050565b6000806040838503121561035457600080fd5b8235915061036460208401610303565b90509250929050565b60006001820161038d57634e487b7160e01b600052601160045260246000fd5b506001019056fe60806040523480156200001157600080fd5b50604051620022b3380380620022b38339810160408190526200003491620001f4565b6200003f33620000a6565b600880546001600160a01b0319166001600160a01b0383161790556200006583620000f6565b50600355604080518082019091526001600160a01b03909116808252426020909201829052600180546001600160a01b031916909117905560025562000235565b600080546001600160a01b038381166001600160a01b0319831681178455604051919092169283917f8be0079c531659141344cd1fd0a4f28419497f9722a3daafe3b4186f6b6457e09190a35050565b6200010062000179565b6001600160a01b0381166200016b5760405162461bcd60e51b815260206004820152602660248201527f4f776e61626c653a206e6577206f776e657220697320746865207a65726f206160448201526564647265737360d01b60648201526084015b60405180910390fd5b6200017681620000a6565b50565b6000546001600160a01b03163314620001d55760405162461bcd60e51b815260206004820181905260248201527f4f776e61626c653a2063616c6c6572206973206e6f7420746865206f776e6572604482015260640162000162565b565b80516001600160a01b0381168114620001ef57600080fd5b919050565b6000806000606084860312156200020a57600080fd5b6200021584620001d7565b9250602084015191506200022c60408501620001d7565b90509250925092565b61206e80620002456000396000f3fe6080604052600436106101405760003560e01c80639f3c4416116100b6578063de35f3761161006f578063de35f37614610333578063e92df2b014610353578063ea46193e14610373578063f2fde38b14610386578063f53d0a8e146103a6578063ffc15b7c146103e957600080fd5b80639f3c4416146102b7578063a37fc5cf146102cc578063c1b640db146102e1578063d0e30db0146102f6578063d5002f2e146102fe578063db81f99b1461031357600080fd5b80633cfd1ccc116101085780633cfd1ccc146101f557806344690153146102185780634eae51f414610238578063715018a61461025a5780637c1d3a011461026f5780638da5cb5b1461028f57600080fd5b8063051ea68f14610145578063064ac5781461016f5780630b6946da146101915780632e1a7d4d146101a857806335d6f873146101c8575b600080fd5b34801561015157600080fd5b5061015a6103fe565b60405190151581526020015b60405180910390f35b34801561017b57600080fd5b50610184610419565b6040516101669190611c40565b34801561019d57600080fd5b506101a6610483565b005b3480156101b457600080fd5b506101a66101c3366004611c8d565b6106d5565b3480156101d457600080fd5b506101e86101e3366004611cc2565b6107a9565b6040516101669190611d1f565b34801561020157600080fd5b5061020a610887565b604051908152602001610166565b34801561022457600080fd5b506101a6610233366004611d32565b6108f9565b34801561024457600080fd5b5061024d6109f6565b6040516101669190611d5c565b34801561026657600080fd5b506101a6610ad6565b34801561027b57600080fd5b506101a661028a366004611dfa565b610aea565b34801561029b57600080fd5b506000546040516001600160a01b039091168152602001610166565b3480156102c357600080fd5b506101a6610ec8565b3480156102d857600080fd5b5061020a611453565b3480156102ed57600080fd5b506101a6611464565b6101a6611508565b34801561030a57600080fd5b5061020a6115c7565b34801561031f57600080fd5b506101a661032e366004611c8d565b61161a565b34801561033f57600080fd5b506101a661034e366004611c8d565b6117bc565b34801561035f57600080fd5b506101a661036e366004611e2f565b6117c9565b34801561037f57600080fd5b504761020a565b34801561039257600080fd5b506101a66103a1366004611cc2565b6118ee565b3480156103b257600080fd5b506001546002546103ca916001600160a01b03169082565b604080516001600160a01b039093168352602083019190915201610166565b3480156103f557600080fd5b50610184611964565b600354600254600091906104129042611e71565b1015905090565b6060610423611a42565b600580548060200260200160405190810160405280929190818152602001828054801561047957602002820191906000526020600020905b81546001600160a01b0316815260019091019060200180831161045b575b5050505050905090565b60045433906064116104ec5760405162461bcd60e51b815260206004820152602760248201527f416c7265616479207265616368656420746865206c696d6974206f6620313030604482015266103432b4b9399760c91b60648201526084015b60405180910390fd5b60055460641161055d5760405162461bcd60e51b815260206004820152603660248201527f416c7265616479207265616368656420746865206c696d6974206f66203130306044820152751034b73432b934ba30b731b2903932b8bab2b9ba399760511b60648201526084016104e3565b60005b60055481101561060d57816001600160a01b03166005828154811061058757610587611e8a565b6000918252602090912001546001600160a01b0316036105fb5760405162461bcd60e51b815260206004820152602960248201527f4164647265737320616c72656164792065786973747320696e207265717565736044820152683a399030b93930bc9760b91b60648201526084016104e3565b8061060581611ea0565b915050610560565b506005805460018101825560008290527f036b6384b5eca791c62761152d0c79bb0604c104a5fb6f4eb0703f3154bb3db00180546001600160a01b0319163390811790915590546004546040805160608082526025908201527f5573657220726571756573747320746f20626520616464656420617320616e206080820152643432b4b91760d91b60a082015260208101939093528201527fe6096ebfc672773ae3076e8ae873cb450789130e8c0d87b2b933210acdc08f669060c00160405180910390a250565b6106dd611a42565b600081116107285760405162461bcd60e51b815260206004820152601860248201527720b6b7bab73a1036bab9ba103132903837b9b4ba34bb329760411b60448201526064016104e3565b478111156107785760405162461bcd60e51b815260206004820152601760248201527f4e6f7420656e6f756768204554482062616c616e63652e00000000000000000060448201526064016104e3565b604051339082156108fc029083906000818181858888f193505050501580156107a5573d6000803e3d6000fd5b5050565b606060005b60045481101561088157826001600160a01b0316600482815481106107d5576107d5611e8a565b60009182526020909120600590910201546001600160a01b03160361086f576004818154811061080757610807611e8a565b906000526020600020906005020160040180548060200260200160405190810160405280929190818152602001828054801561086257602002820191906000526020600020905b81548152602001906001019080831161084e575b5050505050915050919050565b8061087981611ea0565b9150506107ae565b50919050565b6008546040516370a0823160e01b81523060048201526000916001600160a01b0316906370a0823190602401602060405180830381865afa1580156108d0573d6000803e3d6000fd5b505050506040513d601f19601f820116820180604052508101906108f49190611eb9565b905090565b610901611a42565b60005b60045481101561099b57826001600160a01b03166004828154811061092b5761092b611e8a565b60009182526020909120600590910201546001600160a01b031603610989576004818154811061095d5761095d611e8a565b600091825260208083206004600590930201919091018054600181018255908352912001829055505050565b8061099381611ea0565b915050610904565b5060405162461bcd60e51b815260206004820152602960248201527f4e6f7420686569722061646472657373206d61746368656420746f207468652060448201526837b7329039b2b73a1760b91b60648201526084016104e3565b60606004805480602002602001604051908101604052809291908181526020016000905b82821015610acd5760008481526020908190206040805160a0810182526005860290920180546001600160a01b031683526001810154838501526002810154838301526003810154606084015260048101805483518187028101870190945280845293949193608086019392830182828015610ab557602002820191906000526020600020905b815481526020019060010190808311610aa1575b50505050508152505081526020019060010190610a1a565b50505050905090565b610ade611a42565b610ae86000611a9c565b565b610af2611a42565b8282826005805490508310610b195760405162461bcd60e51b81526004016104e390611ed2565b816001600160a01b031660058481548110610b3657610b36611e8a565b6000918252602090912001546001600160a01b031614610b685760405162461bcd60e51b81526004016104e390611f2f565b6000805b600454811015610c4d57836001600160a01b031660048281548110610b9357610b93611e8a565b60009182526020909120600590910201546001600160a01b031603610c095760405162461bcd60e51b815260206004820152602660248201527f4164647265737320616c72656164792065786973747320696e2068656972732060448201526530b93930bc9760d11b60648201526084016104e3565b60048181548110610c1c57610c1c611e8a565b90600052602060002090600502016001015482610c399190611f9e565b915080610c4581611ea0565b915050610b6c565b506064610c5a8383611f9e565b1115610cf45760405162461bcd60e51b815260206004820152605c60248201527f74686520616d6f756e74206f662073686172657320657863656564207468652060448201527f31303025206f662074686520496e6865726974616e63652c207472792077697460648201527f68206120736d616c6c657220616d6f756e74206f662073686172652e00000000608482015260a4016104e3565b6040805160a0810182526001600160a01b0388811682526020808301898152600094840185815260608086018781526080870182815260048054600181018255995287517f8a35acfbc15ff81a39ae7d344fd709f28e8600b4aa8c65c6b64bfe7fe36bd19b6005909a02998a0180546001600160a01b0319169190981617875593517f8a35acfbc15ff81a39ae7d344fd709f28e8600b4aa8c65c6b64bfe7fe36bd19c89015591517f8a35acfbc15ff81a39ae7d344fd709f28e8600b4aa8c65c6b64bfe7fe36bd19d88015590517f8a35acfbc15ff81a39ae7d344fd709f28e8600b4aa8c65c6b64bfe7fe36bd19e870155905180519195610e1d937f8a35acfbc15ff81a39ae7d344fd709f28e8600b4aa8c65c6b64bfe7fe36bd19f90910192910190611be0565b505050610e2988611aec565b6005546004546040805160808082526026908201527f41646d696e6973747261746f722061636365707473207573657220617320616e60a082015265103432b4b91760d11b60c0820152602081018a90529081019290925260608201526001600160a01b038816907f14aa904c12fa948b33e901e688a79d46fe3d46a383a5b181c26475cec40d67ec9060e00160405180910390a25050505050505050565b336000805b600454811015610f2a57826001600160a01b031660048281548110610ef457610ef4611e8a565b60009182526020909120600590910201546001600160a01b031603610f1857600191505b80610f2281611ea0565b915050610ecd565b50600181151514610f995760405162461bcd60e51b815260206004820152603360248201527f546865206164647265737320636c61696d696e672074686520696e686572697460448201527230b731b29034b9903737ba1030902432b4b91760691b60648201526084016104e3565b610fa16103fe565b156107a5576000610fb0610887565b9050476000610fbd6115c7565b905060005b6004548110156110d957818460048381548110610fe157610fe1611e8a565b906000526020600020906005020160010154610ffd9190611fb1565b6110079190611fc8565b600660006004848154811061101e5761101e611e8a565b600091825260208083206005909202909101546001600160a01b0316835282019290925260400190205560048054839185918490811061106057611060611e8a565b90600052602060002090600502016001015461107c9190611fb1565b6110869190611fc8565b600760006004848154811061109d5761109d611e8a565b600091825260208083206005909202909101546001600160a01b03168352820192909252604001902055806110d181611ea0565b915050610fc2565b506000805b60045481101561144a57600481815481106110fb576110fb611e8a565b600091825260208083206005909202909101546001600160a01b031680835260079091526040808320549051919450849281156108fc029290818181858888f19350505050158015611151573d6000803e3d6000fd5b506001600160a01b038216600090815260076020526040902054600480548390811061117f5761117f611e8a565b60009182526020808320600592909202909101600201929092556008546001600160a01b03858116808452600690945260409283902054925163a9059cbb60e01b815260048101949094526024840192909252169063a9059cbb906044016020604051808303816000875af11580156111fc573d6000803e3d6000fd5b505050506040513d601f19601f820116820180604052508101906112209190611fea565b6112925760405162461bcd60e51b815260206004820152603860248201527f4572726f72207768696c65207472616e7366657272696e67205553444320667260448201527f6f6d2074686520636f6e747261637420746f20686569722e000000000000000060648201526084016104e3565b6001600160a01b03821660009081526006602052604090205460048054839081106112bf576112bf611e8a565b906000526020600020906005020160030181905550816001600160a01b03167f34e2b4efda0968bd3c419ecd901876f712f93cd5fda9303ab16021c3535f55936004838154811061131257611312611e8a565b90600052602060002090600502016001015460076000866001600160a01b03166001600160a01b03168152602001908152602001600020546004858154811061135d5761135d611e8a565b90600052602060002090600502016002015460066000886001600160a01b03166001600160a01b0316815260200190815260200160002054600487815481106113a8576113a8611e8a565b90600052602060002090600502016003015460405161143095949392919060c08082526026908201527f457468657220616e642055534443206d6f6e65792073656e7420746f2074686560e082015265103432b4b91760d11b610100820152602081019590955260408501939093526060840191909152608083015260a08201526101200190565b60405180910390a28061144281611ea0565b9150506110de565b50505050505050565b600061145d611a42565b5060035490565b61146c611a42565b4260028190556003546040805160808082526031908201527f41646d696e6973747261746f722073656e64732061207369676e616c20746f2060a08201527039b437bb9034329034b99030b634bb329760791b60c08201526020810184905290810192909252606082015233907f5f1aa2875b7b1df0cd72a6ee708c6aff6432288001c47518bc91be4599fdf6e69060e00160405180910390a2565b600154604080516080808252604f908201527f4c6f6720616c6c207468652076616c7565733a2041646d696e6973747261746f60a08201527f7220616464726573732c20416d6f756e742073656e742c20436f6e747261637460c08201526e1032ba3432b9103130b630b731b29760891b60e08201526001600160a01b0390921660208301523482820152476060830152517f0e329d93cfda1bd6ead1003e3ae53461617c8d120014dfaea03d2fb42ec55b07918190036101000190a1565b600080805b60045481101561088157600481815481106115e9576115e9611e8a565b906000526020600020906005020160010154826116069190611f9e565b91508061161281611ea0565b9150506115cc565b611622611a42565b6000811161166d5760405162461bcd60e51b815260206004820152601860248201527720b6b7bab73a1036bab9ba103132903837b9b4ba34bb329760411b60448201526064016104e3565b611675610887565b8111156116c45760405162461bcd60e51b815260206004820152601860248201527f4e6f7420656e6f75676820555344432062616c616e63652e000000000000000060448201526064016104e3565b60085460405163a9059cbb60e01b8152336004820152602481018390526001600160a01b039091169063a9059cbb906044016020604051808303816000875af1158015611715573d6000803e3d6000fd5b505050506040513d601f19601f820116820180604052508101906117399190611fea565b6117b95760405162461bcd60e51b815260206004820152604560248201527f4572726f72207768696c65207472616e7366657272696e67205553444320667260448201527f6f6d2074686520636f6e747261637420746f207468652061646d696e6973747260648201526430ba37b91760d91b608482015260a4016104e3565b50565b6117c4611a42565b600355565b6117d1611a42565b6005548290829082106117f65760405162461bcd60e51b81526004016104e390611ed2565b806001600160a01b03166005838154811061181357611813611e8a565b6000918252602090912001546001600160a01b0316146118455760405162461bcd60e51b81526004016104e390611f2f565b61184e84611aec565b6005546004546040805160608082526033908201527f41646d696e6973747261746f722072656a6563747320757365722773207265716080820152723ab2b9ba103a379031329030b7103432b4b91760691b60a082015260208101939093528201526001600160a01b038416907f05541b3bb46c30ee5aea95b57d7a1d3949da67ba8e09c865da2318f2fb2738579060c00160405180910390a250505050565b6118f6611a42565b6001600160a01b03811661195b5760405162461bcd60e51b815260206004820152602660248201527f4f776e61626c653a206e6577206f776e657220697320746865207a65726f206160448201526564647265737360d01b60648201526084016104e3565b6117b981611a9c565b60045460609060009067ffffffffffffffff8111156119855761198561200c565b6040519080825280602002602001820160405280156119ae578160200160208202803683370190505b5090506000805b600454811015611a3a57600481815481106119d2576119d2611e8a565b600091825260209091206005909102015483516001600160a01b0390911690849084908110611a0357611a03611e8a565b6001600160a01b0390921660209283029190910190910152611a26600183611f9e565b915080611a3281611ea0565b9150506119b5565b509092915050565b6000546001600160a01b03163314610ae85760405162461bcd60e51b815260206004820181905260248201527f4f776e61626c653a2063616c6c6572206973206e6f7420746865206f776e657260448201526064016104e3565b600080546001600160a01b038381166001600160a01b0319831681178455604051919092169283917f8be0079c531659141344cd1fd0a4f28419497f9722a3daafe3b4186f6b6457e09190a35050565b6005548110611b0d5760405162461bcd60e51b81526004016104e390611ed2565b805b600554611b1e90600190611e71565b811015611ba9576005611b32826001611f9e565b81548110611b4257611b42611e8a565b600091825260209091200154600580546001600160a01b039092169183908110611b6e57611b6e611e8a565b600091825260209091200180546001600160a01b0319166001600160a01b039290921691909117905580611ba181611ea0565b915050611b0f565b506005805480611bbb57611bbb612022565b600082815260209020810160001990810180546001600160a01b031916905501905550565b828054828255906000526020600020908101928215611c1b579160200282015b82811115611c1b578251825591602001919060010190611c00565b50611c27929150611c2b565b5090565b5b80821115611c275760008155600101611c2c565b6020808252825182820181905260009190848201906040850190845b81811015611c815783516001600160a01b031683529284019291840191600101611c5c565b50909695505050505050565b600060208284031215611c9f57600080fd5b5035919050565b80356001600160a01b0381168114611cbd57600080fd5b919050565b600060208284031215611cd457600080fd5b611cdd82611ca6565b9392505050565b600081518084526020808501945080840160005b83811015611d1457815187529582019590820190600101611cf8565b509495945050505050565b602081526000611cdd6020830184611ce4565b60008060408385031215611d4557600080fd5b611d4e83611ca6565b946020939093013593505050565b60006020808301818452808551808352604092508286019150828160051b87010184880160005b83811015611dec57888303603f19018552815180516001600160a01b03168452878101518885015286810151878501526060808201519085015260809081015160a091850182905290611dd881860183611ce4565b968901969450505090860190600101611d83565b509098975050505050505050565b600080600060608486031215611e0f57600080fd5b83359250611e1f60208501611ca6565b9150604084013590509250925092565b60008060408385031215611e4257600080fd5b82359150611e5260208401611ca6565b90509250929050565b634e487b7160e01b600052601160045260246000fd5b81810381811115611e8457611e84611e5b565b92915050565b634e487b7160e01b600052603260045260246000fd5b600060018201611eb257611eb2611e5b565b5060010190565b600060208284031215611ecb57600080fd5b5051919050565b60208082526038908201527f54686520696e6465782073656e7420697320626967676572207468616e20746860408201527f65207265717565737473206172726179206c656e6774682e0000000000000000606082015260800190565b60208082526049908201527f416464726573732073656e7420646f65736e2774206d6174636820776974682060408201527f74686520616464726573732073746f72656420696e20746865207265717565736060820152683a399030b93930bc9760b91b608082015260a00190565b80820180821115611e8457611e84611e5b565b8082028115828204841417611e8457611e84611e5b565b600082611fe557634e487b7160e01b600052601260045260246000fd5b500490565b600060208284031215611ffc57600080fd5b81518015158114611cdd57600080fd5b634e487b7160e01b600052604160045260246000fd5b634e487b7160e01b600052603160045260246000fdfea264697066735822122040086d6ffeb786ae1d39472cdca560e647d23c1547887947d2a1fa28c6c5cd9664736f6c63430008130033a264697066735822122084deb02ff0c483e9eff53e5e2c1ed1ade93064807d920b6c76a275874afc876664736f6c63430008130033","opcodes":"PUSH1 0x80 PUSH1 0x40 MSTORE CALLVALUE DUP1 ISZERO PUSH2 0x10 JUMPI PUSH1 0x0 DUP1 REVERT JUMPDEST POP PUSH2 0x267D DUP1 PUSH2 0x20 PUSH1 0x0 CODECOPY PUSH1 0x0 RETURN INVALID PUSH1 0x80 PUSH1 0x40 MSTORE CALLVALUE DUP1 ISZERO PUSH2 0x10 JUMPI PUSH1 0x0 DUP1 REVERT JUMPDEST POP PUSH1 0x4 CALLDATASIZE LT PUSH2 0x4C JUMPI PUSH1 0x0 CALLDATALOAD PUSH1 0xE0 SHR DUP1 PUSH4 0x21B6E8F5 EQ PUSH2 0x51 JUMPI DUP1 PUSH4 0x6122FED5 EQ PUSH2 0x67 JUMPI DUP1 PUSH4 0x65A4C281 EQ PUSH2 0xA8 JUMPI DUP1 PUSH4 0xB6DB75A0 EQ PUSH2 0xBD JUMPI JUMPDEST PUSH1 0x0 DUP1 REVERT JUMPDEST PUSH1 0x0 SLOAD PUSH1 0x40 MLOAD SWAP1 DUP2 MSTORE PUSH1 0x20 ADD JUMPDEST PUSH1 0x40 MLOAD DUP1 SWAP2 SUB SWAP1 RETURN JUMPDEST PUSH2 0x90 PUSH2 0x75 CALLDATASIZE PUSH1 0x4 PUSH2 0x31F JUMP JUMPDEST PUSH1 0x1 PUSH1 0x20 MSTORE PUSH1 0x0 SWAP1 DUP2 MSTORE PUSH1 0x40 SWAP1 KECCAK256 SLOAD PUSH1 0x1 PUSH1 0x1 PUSH1 0xA0 SHL SUB AND DUP2 JUMP JUMPDEST PUSH1 0x40 MLOAD PUSH1 0x1 PUSH1 0x1 PUSH1 0xA0 SHL SUB SWAP1 SWAP2 AND DUP2 MSTORE PUSH1 0x20 ADD PUSH2 0x5E JUMP JUMPDEST PUSH2 0xBB PUSH2 0xB6 CALLDATASIZE PUSH1 0x4 PUSH2 0x341 JUMP JUMPDEST PUSH2 0xE8 JUMP JUMPDEST STOP JUMPDEST CALLER PUSH1 0x0 SWAP1 DUP2 MSTORE PUSH1 0x1 PUSH1 0x20 MSTORE PUSH1 0x40 SWAP1 KECCAK256 SLOAD PUSH1 0x1 PUSH1 0x1 PUSH1 0xA0 SHL SUB AND ISZERO ISZERO PUSH1 0x40 MLOAD SWAP1 ISZERO ISZERO DUP2 MSTORE PUSH1 0x20 ADD PUSH2 0x5E JUMP JUMPDEST CALLER PUSH1 0x0 SWAP1 DUP2 MSTORE PUSH1 0x1 PUSH1 0x20 MSTORE PUSH1 0x40 SWAP1 KECCAK256 SLOAD PUSH1 0x1 PUSH1 0x1 PUSH1 0xA0 SHL SUB AND ISZERO PUSH2 0x178 JUMPI PUSH1 0x40 MLOAD PUSH3 0x461BCD PUSH1 0xE5 SHL DUP2 MSTORE PUSH1 0x20 PUSH1 0x4 DUP3 ADD MSTORE PUSH1 0x3D PUSH1 0x24 DUP3 ADD MSTORE PUSH32 0x596F75206861766520616C7265616479206F6E6520696E6865726974616E6365 PUSH1 0x44 DUP3 ADD MSTORE PUSH32 0x20637265617465642C20796F752063616E277420686176652074776F2E000000 PUSH1 0x64 DUP3 ADD MSTORE PUSH1 0x84 ADD PUSH1 0x40 MLOAD DUP1 SWAP2 SUB SWAP1 REVERT JUMPDEST CALLER DUP3 DUP3 PUSH1 0x40 MLOAD PUSH2 0x187 SWAP1 PUSH2 0x2F6 JUMP JUMPDEST PUSH1 0x1 PUSH1 0x1 PUSH1 0xA0 SHL SUB SWAP4 DUP5 AND DUP2 MSTORE PUSH1 0x20 DUP2 ADD SWAP3 SWAP1 SWAP3 MSTORE SWAP1 SWAP2 AND PUSH1 0x40 DUP3 ADD MSTORE PUSH1 0x60 ADD PUSH1 0x40 MLOAD DUP1 SWAP2 SUB SWAP1 PUSH1 0x0 CREATE DUP1 ISZERO DUP1 ISZERO PUSH2 0x1C3 JUMPI RETURNDATASIZE PUSH1 0x0 DUP1 RETURNDATACOPY RETURNDATASIZE PUSH1 0x0 REVERT JUMPDEST POP CALLER PUSH1 0x0 SWAP1 DUP2 MSTORE PUSH1 0x1 PUSH1 0x20 MSTORE PUSH1 0x40 DUP2 KECCAK256 DUP1 SLOAD PUSH1 0x1 PUSH1 0x1 PUSH1 0xA0 SHL SUB NOT AND PUSH1 0x1 PUSH1 0x1 PUSH1 0xA0 SHL SUB SWAP4 SWAP1 SWAP4 AND SWAP3 SWAP1 SWAP3 OR SWAP1 SWAP2 SSTORE DUP1 SLOAD SWAP1 DUP1 PUSH2 0x1FF DUP4 PUSH2 0x36D JUMP JUMPDEST SWAP1 SWAP2 SSTORE POP POP CALLER PUSH1 0x0 DUP2 DUP2 MSTORE PUSH1 0x1 PUSH1 0x20 MSTORE PUSH1 0x40 DUP1 DUP3 KECCAK256 SLOAD SWAP2 SLOAD SWAP1 MLOAD PUSH1 0x1 PUSH1 0x1 PUSH1 0xA0 SHL SUB SWAP3 SWAP1 SWAP3 AND SWAP3 SWAP2 PUSH32 0x246B027E5B424DAE3D402E972E3F8E400056FE836431CBE048D9553826BB2E11 SWAP2 PUSH2 0x2EA SWAP2 PUSH1 0x40 DUP1 DUP3 MSTORE PUSH1 0x69 SWAP1 DUP3 ADD MSTORE PUSH32 0x4C6F6720616C6C207468652076616C7565733A2041646D696E6973747261746F PUSH1 0x60 DUP3 ADD MSTORE PUSH32 0x7220616464726573732C20496E6865726974616E636520636F6E747261637420 PUSH1 0x80 DUP3 ADD MSTORE PUSH32 0x616464726573732C204E756D626572206F6620696E6865726974616E63657320 PUSH1 0xA0 DUP3 ADD MSTORE PUSH9 0x3232B83637BCB2B217 PUSH1 0xB9 SHL PUSH1 0xC0 DUP3 ADD MSTORE PUSH1 0x20 DUP2 ADD SWAP2 SWAP1 SWAP2 MSTORE PUSH1 0xE0 ADD SWAP1 JUMP JUMPDEST PUSH1 0x40 MLOAD DUP1 SWAP2 SUB SWAP1 LOG3 POP POP JUMP JUMPDEST PUSH2 0x22B3 DUP1 PUSH2 0x395 DUP4 CODECOPY ADD SWAP1 JUMP JUMPDEST DUP1 CALLDATALOAD PUSH1 0x1 PUSH1 0x1 PUSH1 0xA0 SHL SUB DUP2 AND DUP2 EQ PUSH2 0x31A JUMPI PUSH1 0x0 DUP1 REVERT JUMPDEST SWAP2 SWAP1 POP JUMP JUMPDEST PUSH1 0x0 PUSH1 0x20 DUP3 DUP5 SUB SLT ISZERO PUSH2 0x331 JUMPI PUSH1 0x0 DUP1 REVERT JUMPDEST PUSH2 0x33A DUP3 PUSH2 0x303 JUMP JUMPDEST SWAP4 SWAP3 POP POP POP JUMP JUMPDEST PUSH1 0x0 DUP1 PUSH1 0x40 DUP4 DUP6 SUB SLT ISZERO PUSH2 0x354 JUMPI PUSH1 0x0 DUP1 REVERT JUMPDEST DUP3 CALLDATALOAD SWAP2 POP PUSH2 0x364 PUSH1 0x20 DUP5 ADD PUSH2 0x303 JUMP JUMPDEST SWAP1 POP SWAP3 POP SWAP3 SWAP1 POP JUMP JUMPDEST PUSH1 0x0 PUSH1 0x1 DUP3 ADD PUSH2 0x38D JUMPI PUSH4 0x4E487B71 PUSH1 0xE0 SHL PUSH1 0x0 MSTORE PUSH1 0x11 PUSH1 0x4 MSTORE PUSH1 0x24 PUSH1 0x0 REVERT JUMPDEST POP PUSH1 0x1 ADD SWAP1 JUMP INVALID PUSH1 0x80 PUSH1 0x40 MSTORE CALLVALUE DUP1 ISZERO PUSH3 0x11 JUMPI PUSH1 0x0 DUP1 REVERT JUMPDEST POP PUSH1 0x40 MLOAD PUSH3 0x22B3 CODESIZE SUB DUP1 PUSH3 0x22B3 DUP4 CODECOPY DUP2 ADD PUSH1 0x40 DUP2 SWAP1 MSTORE PUSH3 0x34 SWAP2 PUSH3 0x1F4 JUMP JUMPDEST PUSH3 0x3F CALLER PUSH3 0xA6 JUMP JUMPDEST PUSH1 0x8 DUP1 SLOAD PUSH1 0x1 PUSH1 0x1 PUSH1 0xA0 SHL SUB NOT AND PUSH1 0x1 PUSH1 0x1 PUSH1 0xA0 SHL SUB DUP4 AND OR SWAP1 SSTORE PUSH3 0x65 DUP4 PUSH3 0xF6 JUMP JUMPDEST POP PUSH1 0x3 SSTORE PUSH1 0x40 DUP1 MLOAD DUP1 DUP3 ADD SWAP1 SWAP2 MSTORE PUSH1 0x1 PUSH1 0x1 PUSH1 0xA0 SHL SUB SWAP1 SWAP2 AND DUP1 DUP3 MSTORE TIMESTAMP PUSH1 0x20 SWAP1 SWAP3 ADD DUP3 SWAP1 MSTORE PUSH1 0x1 DUP1 SLOAD PUSH1 0x1 PUSH1 0x1 PUSH1 0xA0 SHL SUB NOT AND SWAP1 SWAP2 OR SWAP1 SSTORE PUSH1 0x2 SSTORE PUSH3 0x235 JUMP JUMPDEST PUSH1 0x0 DUP1 SLOAD PUSH1 0x1 PUSH1 0x1 PUSH1 0xA0 SHL SUB DUP4 DUP2 AND PUSH1 0x1 PUSH1 0x1 PUSH1 0xA0 SHL SUB NOT DUP4 AND DUP2 OR DUP5 SSTORE PUSH1 0x40 MLOAD SWAP2 SWAP1 SWAP3 AND SWAP3 DUP4 SWAP2 PUSH32 0x8BE0079C531659141344CD1FD0A4F28419497F9722A3DAAFE3B4186F6B6457E0 SWAP2 SWAP1 LOG3 POP POP JUMP JUMPDEST PUSH3 0x100 PUSH3 0x179 JUMP JUMPDEST PUSH1 0x1 PUSH1 0x1 PUSH1 0xA0 SHL SUB DUP2 AND PUSH3 0x16B JUMPI PUSH1 0x40 MLOAD PUSH3 0x461BCD PUSH1 0xE5 SHL DUP2 MSTORE PUSH1 0x20 PUSH1 0x4 DUP3 ADD MSTORE PUSH1 0x26 PUSH1 0x24 DUP3 ADD MSTORE PUSH32 0x4F776E61626C653A206E6577206F776E657220697320746865207A65726F2061 PUSH1 0x44 DUP3 ADD MSTORE PUSH6 0x646472657373 PUSH1 0xD0 SHL PUSH1 0x64 DUP3 ADD MSTORE PUSH1 0x84 ADD JUMPDEST PUSH1 0x40 MLOAD DUP1 SWAP2 SUB SWAP1 REVERT JUMPDEST PUSH3 0x176 DUP2 PUSH3 0xA6 JUMP JUMPDEST POP JUMP JUMPDEST PUSH1 0x0 SLOAD PUSH1 0x1 PUSH1 0x1 PUSH1 0xA0 SHL SUB AND CALLER EQ PUSH3 0x1D5 JUMPI PUSH1 0x40 MLOAD PUSH3 0x461BCD PUSH1 0xE5 SHL DUP2 MSTORE PUSH1 0x20 PUSH1 0x4 DUP3 ADD DUP2 SWAP1 MSTORE PUSH1 0x24 DUP3 ADD MSTORE PUSH32 0x4F776E61626C653A2063616C6C6572206973206E6F7420746865206F776E6572 PUSH1 0x44 DUP3 ADD MSTORE PUSH1 0x64 ADD PUSH3 0x162 JUMP JUMPDEST JUMP JUMPDEST DUP1 MLOAD PUSH1 0x1 PUSH1 0x1 PUSH1 0xA0 SHL SUB DUP2 AND DUP2 EQ PUSH3 0x1EF JUMPI PUSH1 0x0 DUP1 REVERT JUMPDEST SWAP2 SWAP1 POP JUMP JUMPDEST PUSH1 0x0 DUP1 PUSH1 0x0 PUSH1 0x60 DUP5 DUP7 SUB SLT ISZERO PUSH3 0x20A JUMPI PUSH1 0x0 DUP1 REVERT JUMPDEST PUSH3 0x215 DUP5 PUSH3 0x1D7 JUMP JUMPDEST SWAP3 POP PUSH1 0x20 DUP5 ADD MLOAD SWAP2 POP PUSH3 0x22C PUSH1 0x40 DUP6 ADD PUSH3 0x1D7 JUMP JUMPDEST SWAP1 POP SWAP3 POP SWAP3 POP SWAP3 JUMP JUMPDEST PUSH2 0x206E DUP1 PUSH3 0x245 PUSH1 0x0 CODECOPY PUSH1 0x0 RETURN INVALID PUSH1 0x80 PUSH1 0x40 MSTORE PUSH1 0x4 CALLDATASIZE LT PUSH2 0x140 JUMPI PUSH1 0x0 CALLDATALOAD PUSH1 0xE0 SHR DUP1 PUSH4 0x9F3C4416 GT PUSH2 0xB6 JUMPI DUP1 PUSH4 0xDE35F376 GT PUSH2 0x6F JUMPI DUP1 PUSH4 0xDE35F376 EQ PUSH2 0x333 JUMPI DUP1 PUSH4 0xE92DF2B0 EQ PUSH2 0x353 JUMPI DUP1 PUSH4 0xEA46193E EQ PUSH2 0x373 JUMPI DUP1 PUSH4 0xF2FDE38B EQ PUSH2 0x386 JUMPI DUP1 PUSH4 0xF53D0A8E EQ PUSH2 0x3A6 JUMPI DUP1 PUSH4 0xFFC15B7C EQ PUSH2 0x3E9 JUMPI PUSH1 0x0 DUP1 REVERT JUMPDEST DUP1 PUSH4 0x9F3C4416 EQ PUSH2 0x2B7 JUMPI DUP1 PUSH4 0xA37FC5CF EQ PUSH2 0x2CC JUMPI DUP1 PUSH4 0xC1B640DB EQ PUSH2 0x2E1 JUMPI DUP1 PUSH4 0xD0E30DB0 EQ PUSH2 0x2F6 JUMPI DUP1 PUSH4 0xD5002F2E EQ PUSH2 0x2FE JUMPI DUP1 PUSH4 0xDB81F99B EQ PUSH2 0x313 JUMPI PUSH1 0x0 DUP1 REVERT JUMPDEST DUP1 PUSH4 0x3CFD1CCC GT PUSH2 0x108 JUMPI DUP1 PUSH4 0x3CFD1CCC EQ PUSH2 0x1F5 JUMPI DUP1 PUSH4 0x44690153 EQ PUSH2 0x218 JUMPI DUP1 PUSH4 0x4EAE51F4 EQ PUSH2 0x238 JUMPI DUP1 PUSH4 0x715018A6 EQ PUSH2 0x25A JUMPI DUP1 PUSH4 0x7C1D3A01 EQ PUSH2 0x26F JUMPI DUP1 PUSH4 0x8DA5CB5B EQ PUSH2 0x28F JUMPI PUSH1 0x0 DUP1 REVERT JUMPDEST DUP1 PUSH4 0x51EA68F EQ PUSH2 0x145 JUMPI DUP1 PUSH4 0x64AC578 EQ PUSH2 0x16F JUMPI DUP1 PUSH4 0xB6946DA EQ PUSH2 0x191 JUMPI DUP1 PUSH4 0x2E1A7D4D EQ PUSH2 0x1A8 JUMPI DUP1 PUSH4 0x35D6F873 EQ PUSH2 0x1C8 JUMPI JUMPDEST PUSH1 0x0 DUP1 REVERT JUMPDEST CALLVALUE DUP1 ISZERO PUSH2 0x151 JUMPI PUSH1 0x0 DUP1 REVERT JUMPDEST POP PUSH2 0x15A PUSH2 0x3FE JUMP JUMPDEST PUSH1 0x40 MLOAD SWAP1 ISZERO ISZERO DUP2 MSTORE PUSH1 0x20 ADD JUMPDEST PUSH1 0x40 MLOAD DUP1 SWAP2 SUB SWAP1 RETURN JUMPDEST CALLVALUE DUP1 ISZERO PUSH2 0x17B JUMPI PUSH1 0x0 DUP1 REVERT JUMPDEST POP PUSH2 0x184 PUSH2 0x419 JUMP JUMPDEST PUSH1 0x40 MLOAD PUSH2 0x166 SWAP2 SWAP1 PUSH2 0x1C40 JUMP JUMPDEST CALLVALUE DUP1 ISZERO PUSH2 0x19D JUMPI PUSH1 0x0 DUP1 REVERT JUMPDEST POP PUSH2 0x1A6 PUSH2 0x483 JUMP JUMPDEST STOP JUMPDEST CALLVALUE DUP1 ISZERO PUSH2 0x1B4 JUMPI PUSH1 0x0 DUP1 REVERT JUMPDEST POP PUSH2 0x1A6 PUSH2 0x1C3 CALLDATASIZE PUSH1 0x4 PUSH2 0x1C8D JUMP JUMPDEST PUSH2 0x6D5 JUMP JUMPDEST CALLVALUE DUP1 ISZERO PUSH2 0x1D4 JUMPI PUSH1 0x0 DUP1 REVERT JUMPDEST POP PUSH2 0x1E8 PUSH2 0x1E3 CALLDATASIZE PUSH1 0x4 PUSH2 0x1CC2 JUMP JUMPDEST PUSH2 0x7A9 JUMP JUMPDEST PUSH1 0x40 MLOAD PUSH2 0x166 SWAP2 SWAP1 PUSH2 0x1D1F JUMP JUMPDEST CALLVALUE DUP1 ISZERO PUSH2 0x201 JUMPI PUSH1 0x0 DUP1 REVERT JUMPDEST POP PUSH2 0x20A PUSH2 0x887 JUMP JUMPDEST PUSH1 0x40 MLOAD SWAP1 DUP2 MSTORE PUSH1 0x20 ADD PUSH2 0x166 JUMP JUMPDEST CALLVALUE DUP1 ISZERO PUSH2 0x224 JUMPI PUSH1 0x0 DUP1 REVERT JUMPDEST POP PUSH2 0x1A6 PUSH2 0x233 CALLDATASIZE PUSH1 0x4 PUSH2 0x1D32 JUMP JUMPDEST PUSH2 0x8F9 JUMP JUMPDEST CALLVALUE DUP1 ISZERO PUSH2 0x244 JUMPI PUSH1 0x0 DUP1 REVERT JUMPDEST POP PUSH2 0x24D PUSH2 0x9F6 JUMP JUMPDEST PUSH1 0x40 MLOAD PUSH2 0x166 SWAP2 SWAP1 PUSH2 0x1D5C JUMP JUMPDEST CALLVALUE DUP1 ISZERO PUSH2 0x266 JUMPI PUSH1 0x0 DUP1 REVERT JUMPDEST POP PUSH2 0x1A6 PUSH2 0xAD6 JUMP JUMPDEST CALLVALUE DUP1 ISZERO PUSH2 0x27B JUMPI PUSH1 0x0 DUP1 REVERT JUMPDEST POP PUSH2 0x1A6 PUSH2 0x28A CALLDATASIZE PUSH1 0x4 PUSH2 0x1DFA JUMP JUMPDEST PUSH2 0xAEA JUMP JUMPDEST CALLVALUE DUP1 ISZERO PUSH2 0x29B JUMPI PUSH1 0x0 DUP1 REVERT JUMPDEST POP PUSH1 0x0 SLOAD PUSH1 0x40 MLOAD PUSH1 0x1 PUSH1 0x1 PUSH1 0xA0 SHL SUB SWAP1 SWAP2 AND DUP2 MSTORE PUSH1 0x20 ADD PUSH2 0x166 JUMP JUMPDEST CALLVALUE DUP1 ISZERO PUSH2 0x2C3 JUMPI PUSH1 0x0 DUP1 REVERT JUMPDEST POP PUSH2 0x1A6 PUSH2 0xEC8 JUMP JUMPDEST CALLVALUE DUP1 ISZERO PUSH2 0x2D8 JUMPI PUSH1 0x0 DUP1 REVERT JUMPDEST POP PUSH2 0x20A PUSH2 0x1453 JUMP JUMPDEST CALLVALUE DUP1 ISZERO PUSH2 0x2ED JUMPI PUSH1 0x0 DUP1 REVERT JUMPDEST POP PUSH2 0x1A6 PUSH2 0x1464 JUMP JUMPDEST PUSH2 0x1A6 PUSH2 0x1508 JUMP JUMPDEST CALLVALUE DUP1 ISZERO PUSH2 0x30A JUMPI PUSH1 0x0 DUP1 REVERT JUMPDEST POP PUSH2 0x20A PUSH2 0x15C7 JUMP JUMPDEST CALLVALUE DUP1 ISZERO PUSH2 0x31F JUMPI PUSH1 0x0 DUP1 REVERT JUMPDEST POP PUSH2 0x1A6 PUSH2 0x32E CALLDATASIZE PUSH1 0x4 PUSH2 0x1C8D JUMP JUMPDEST PUSH2 0x161A JUMP JUMPDEST CALLVALUE DUP1 ISZERO PUSH2 0x33F JUMPI PUSH1 0x0 DUP1 REVERT JUMPDEST POP PUSH2 0x1A6 PUSH2 0x34E CALLDATASIZE PUSH1 0x4 PUSH2 0x1C8D JUMP JUMPDEST PUSH2 0x17BC JUMP JUMPDEST CALLVALUE DUP1 ISZERO PUSH2 0x35F JUMPI PUSH1 0x0 DUP1 REVERT JUMPDEST POP PUSH2 0x1A6 PUSH2 0x36E CALLDATASIZE PUSH1 0x4 PUSH2 0x1E2F JUMP JUMPDEST PUSH2 0x17C9 JUMP JUMPDEST CALLVALUE DUP1 ISZERO PUSH2 0x37F JUMPI PUSH1 0x0 DUP1 REVERT JUMPDEST POP SELFBALANCE PUSH2 0x20A JUMP JUMPDEST CALLVALUE DUP1 ISZERO PUSH2 0x392 JUMPI PUSH1 0x0 DUP1 REVERT JUMPDEST POP PUSH2 0x1A6 PUSH2 0x3A1 CALLDATASIZE PUSH1 0x4 PUSH2 0x1CC2 JUMP JUMPDEST PUSH2 0x18EE JUMP JUMPDEST CALLVALUE DUP1 ISZERO PUSH2 0x3B2 JUMPI PUSH1 0x0 DUP1 REVERT JUMPDEST POP PUSH1 0x1 SLOAD PUSH1 0x2 SLOAD PUSH2 0x3CA SWAP2 PUSH1 0x1 PUSH1 0x1 PUSH1 0xA0 SHL SUB AND SWAP1 DUP3 JUMP JUMPDEST PUSH1 0x40 DUP1 MLOAD PUSH1 0x1 PUSH1 0x1 PUSH1 0xA0 SHL SUB SWAP1 SWAP4 AND DUP4 MSTORE PUSH1 0x20 DUP4 ADD SWAP2 SWAP1 SWAP2 MSTORE ADD PUSH2 0x166 JUMP JUMPDEST CALLVALUE DUP1 ISZERO PUSH2 0x3F5 JUMPI PUSH1 0x0 DUP1 REVERT JUMPDEST POP PUSH2 0x184 PUSH2 0x1964 JUMP JUMPDEST PUSH1 0x3 SLOAD PUSH1 0x2 SLOAD PUSH1 0x0 SWAP2 SWAP1 PUSH2 0x412 SWAP1 TIMESTAMP PUSH2 0x1E71 JUMP JUMPDEST LT ISZERO SWAP1 POP SWAP1 JUMP JUMPDEST PUSH1 0x60 PUSH2 0x423 PUSH2 0x1A42 JUMP JUMPDEST PUSH1 0x5 DUP1 SLOAD DUP1 PUSH1 0x20 MUL PUSH1 0x20 ADD PUSH1 0x40 MLOAD SWAP1 DUP2 ADD PUSH1 0x40 MSTORE DUP1 SWAP3 SWAP2 SWAP1 DUP2 DUP2 MSTORE PUSH1 0x20 ADD DUP3 DUP1 SLOAD DUP1 ISZERO PUSH2 0x479 JUMPI PUSH1 0x20 MUL DUP3 ADD SWAP2 SWAP1 PUSH1 0x0 MSTORE PUSH1 0x20 PUSH1 0x0 KECCAK256 SWAP1 JUMPDEST DUP2 SLOAD PUSH1 0x1 PUSH1 0x1 PUSH1 0xA0 SHL SUB AND DUP2 MSTORE PUSH1 0x1 SWAP1 SWAP2 ADD SWAP1 PUSH1 0x20 ADD DUP1 DUP4 GT PUSH2 0x45B JUMPI JUMPDEST POP POP POP POP POP SWAP1 POP SWAP1 JUMP JUMPDEST PUSH1 0x4 SLOAD CALLER SWAP1 PUSH1 0x64 GT PUSH2 0x4EC JUMPI PUSH1 0x40 MLOAD PUSH3 0x461BCD PUSH1 0xE5 SHL DUP2 MSTORE PUSH1 0x20 PUSH1 0x4 DUP3 ADD MSTORE PUSH1 0x27 PUSH1 0x24 DUP3 ADD MSTORE PUSH32 0x416C7265616479207265616368656420746865206C696D6974206F6620313030 PUSH1 0x44 DUP3 ADD MSTORE PUSH7 0x103432B4B93997 PUSH1 0xC9 SHL PUSH1 0x64 DUP3 ADD MSTORE PUSH1 0x84 ADD JUMPDEST PUSH1 0x40 MLOAD DUP1 SWAP2 SUB SWAP1 REVERT JUMPDEST PUSH1 0x5 SLOAD PUSH1 0x64 GT PUSH2 0x55D JUMPI PUSH1 0x40 MLOAD PUSH3 0x461BCD PUSH1 0xE5 SHL DUP2 MSTORE PUSH1 0x20 PUSH1 0x4 DUP3 ADD MSTORE PUSH1 0x36 PUSH1 0x24 DUP3 ADD MSTORE PUSH32 0x416C7265616479207265616368656420746865206C696D6974206F6620313030 PUSH1 0x44 DUP3 ADD MSTORE PUSH22 0x1034B73432B934BA30B731B2903932B8BAB2B9BA3997 PUSH1 0x51 SHL PUSH1 0x64 DUP3 ADD MSTORE PUSH1 0x84 ADD PUSH2 0x4E3 JUMP JUMPDEST PUSH1 0x0 JUMPDEST PUSH1 0x5 SLOAD DUP2 LT ISZERO PUSH2 0x60D JUMPI DUP2 PUSH1 0x1 PUSH1 0x1 PUSH1 0xA0 SHL SUB AND PUSH1 0x5 DUP3 DUP2 SLOAD DUP2 LT PUSH2 0x587 JUMPI PUSH2 0x587 PUSH2 0x1E8A JUMP JUMPDEST PUSH1 0x0 SWAP2 DUP3 MSTORE PUSH1 0x20 SWAP1 SWAP2 KECCAK256 ADD SLOAD PUSH1 0x1 PUSH1 0x1 PUSH1 0xA0 SHL SUB AND SUB PUSH2 0x5FB JUMPI PUSH1 0x40 MLOAD PUSH3 0x461BCD PUSH1 0xE5 SHL DUP2 MSTORE PUSH1 0x20 PUSH1 0x4 DUP3 ADD MSTORE PUSH1 0x29 PUSH1 0x24 DUP3 ADD MSTORE PUSH32 0x4164647265737320616C72656164792065786973747320696E20726571756573 PUSH1 0x44 DUP3 ADD MSTORE PUSH9 0x3A399030B93930BC97 PUSH1 0xB9 SHL PUSH1 0x64 DUP3 ADD MSTORE PUSH1 0x84 ADD PUSH2 0x4E3 JUMP JUMPDEST DUP1 PUSH2 0x605 DUP2 PUSH2 0x1EA0 JUMP JUMPDEST SWAP2 POP POP PUSH2 0x560 JUMP JUMPDEST POP PUSH1 0x5 DUP1 SLOAD PUSH1 0x1 DUP2 ADD DUP3 SSTORE PUSH1 0x0 DUP3 SWAP1 MSTORE PUSH32 0x36B6384B5ECA791C62761152D0C79BB0604C104A5FB6F4EB0703F3154BB3DB0 ADD DUP1 SLOAD PUSH1 0x1 PUSH1 0x1 PUSH1 0xA0 SHL SUB NOT AND CALLER SWAP1 DUP2 OR SWAP1 SWAP2 SSTORE SWAP1 SLOAD PUSH1 0x4 SLOAD PUSH1 0x40 DUP1 MLOAD PUSH1 0x60 DUP1 DUP3 MSTORE PUSH1 0x25 SWAP1 DUP3 ADD MSTORE PUSH32 0x5573657220726571756573747320746F20626520616464656420617320616E20 PUSH1 0x80 DUP3 ADD MSTORE PUSH5 0x3432B4B917 PUSH1 0xD9 SHL PUSH1 0xA0 DUP3 ADD MSTORE PUSH1 0x20 DUP2 ADD SWAP4 SWAP1 SWAP4 MSTORE DUP3 ADD MSTORE PUSH32 0xE6096EBFC672773AE3076E8AE873CB450789130E8C0D87B2B933210ACDC08F66 SWAP1 PUSH1 0xC0 ADD PUSH1 0x40 MLOAD DUP1 SWAP2 SUB SWAP1 LOG2 POP JUMP JUMPDEST PUSH2 0x6DD PUSH2 0x1A42 JUMP JUMPDEST PUSH1 0x0 DUP2 GT PUSH2 0x728 JUMPI PUSH1 0x40 MLOAD PUSH3 0x461BCD PUSH1 0xE5 SHL DUP2 MSTORE PUSH1 0x20 PUSH1 0x4 DUP3 ADD MSTORE PUSH1 0x18 PUSH1 0x24 DUP3 ADD MSTORE PUSH24 0x20B6B7BAB73A1036BAB9BA103132903837B9B4BA34BB3297 PUSH1 0x41 SHL PUSH1 0x44 DUP3 ADD MSTORE PUSH1 0x64 ADD PUSH2 0x4E3 JUMP JUMPDEST SELFBALANCE DUP2 GT ISZERO PUSH2 0x778 JUMPI PUSH1 0x40 MLOAD PUSH3 0x461BCD PUSH1 0xE5 SHL DUP2 MSTORE PUSH1 0x20 PUSH1 0x4 DUP3 ADD MSTORE PUSH1 0x17 PUSH1 0x24 DUP3 ADD MSTORE PUSH32 0x4E6F7420656E6F756768204554482062616C616E63652E000000000000000000 PUSH1 0x44 DUP3 ADD MSTORE PUSH1 0x64 ADD PUSH2 0x4E3 JUMP JUMPDEST PUSH1 0x40 MLOAD CALLER SWAP1 DUP3 ISZERO PUSH2 0x8FC MUL SWAP1 DUP4 SWAP1 PUSH1 0x0 DUP2 DUP2 DUP2 DUP6 DUP9 DUP9 CALL SWAP4 POP POP POP POP ISZERO DUP1 ISZERO PUSH2 0x7A5 JUMPI RETURNDATASIZE PUSH1 0x0 DUP1 RETURNDATACOPY RETURNDATASIZE PUSH1 0x0 REVERT JUMPDEST POP POP JUMP JUMPDEST PUSH1 0x60 PUSH1 0x0 JUMPDEST PUSH1 0x4 SLOAD DUP2 LT ISZERO PUSH2 0x881 JUMPI DUP3 PUSH1 0x1 PUSH1 0x1 PUSH1 0xA0 SHL SUB AND PUSH1 0x4 DUP3 DUP2 SLOAD DUP2 LT PUSH2 0x7D5 JUMPI PUSH2 0x7D5 PUSH2 0x1E8A JUMP JUMPDEST PUSH1 0x0 SWAP2 DUP3 MSTORE PUSH1 0x20 SWAP1 SWAP2 KECCAK256 PUSH1 0x5 SWAP1 SWAP2 MUL ADD SLOAD PUSH1 0x1 PUSH1 0x1 PUSH1 0xA0 SHL SUB AND SUB PUSH2 0x86F JUMPI PUSH1 0x4 DUP2 DUP2 SLOAD DUP2 LT PUSH2 0x807 JUMPI PUSH2 0x807 PUSH2 0x1E8A JUMP JUMPDEST SWAP1 PUSH1 0x0 MSTORE PUSH1 0x20 PUSH1 0x0 KECCAK256 SWAP1 PUSH1 0x5 MUL ADD PUSH1 0x4 ADD DUP1 SLOAD DUP1 PUSH1 0x20 MUL PUSH1 0x20 ADD PUSH1 0x40 MLOAD SWAP1 DUP2 ADD PUSH1 0x40 MSTORE DUP1 SWAP3 SWAP2 SWAP1 DUP2 DUP2 MSTORE PUSH1 0x20 ADD DUP3 DUP1 SLOAD DUP1 ISZERO PUSH2 0x862 JUMPI PUSH1 0x20 MUL DUP3 ADD SWAP2 SWAP1 PUSH1 0x0 MSTORE PUSH1 0x20 PUSH1 0x0 KECCAK256 SWAP1 JUMPDEST DUP2 SLOAD DUP2 MSTORE PUSH1 0x20 ADD SWAP1 PUSH1 0x1 ADD SWAP1 DUP1 DUP4 GT PUSH2 0x84E JUMPI JUMPDEST POP POP POP POP POP SWAP2 POP POP SWAP2 SWAP1 POP JUMP JUMPDEST DUP1 PUSH2 0x879 DUP2 PUSH2 0x1EA0 JUMP JUMPDEST SWAP2 POP POP PUSH2 0x7AE JUMP JUMPDEST POP SWAP2 SWAP1 POP JUMP JUMPDEST PUSH1 0x8 SLOAD PUSH1 0x40 MLOAD PUSH4 0x70A08231 PUSH1 0xE0 SHL DUP2 MSTORE ADDRESS PUSH1 0x4 DUP3 ADD MSTORE PUSH1 0x0 SWAP2 PUSH1 0x1 PUSH1 0x1 PUSH1 0xA0 SHL SUB AND SWAP1 PUSH4 0x70A08231 SWAP1 PUSH1 0x24 ADD PUSH1 0x20 PUSH1 0x40 MLOAD DUP1 DUP4 SUB DUP2 DUP7 GAS STATICCALL ISZERO DUP1 ISZERO PUSH2 0x8D0 JUMPI RETURNDATASIZE PUSH1 0x0 DUP1 RETURNDATACOPY RETURNDATASIZE PUSH1 0x0 REVERT JUMPDEST POP POP POP POP PUSH1 0x40 MLOAD RETURNDATASIZE PUSH1 0x1F NOT PUSH1 0x1F DUP3 ADD AND DUP3 ADD DUP1 PUSH1 0x40 MSTORE POP DUP2 ADD SWAP1 PUSH2 0x8F4 SWAP2 SWAP1 PUSH2 0x1EB9 JUMP JUMPDEST SWAP1 POP SWAP1 JUMP JUMPDEST PUSH2 0x901 PUSH2 0x1A42 JUMP JUMPDEST PUSH1 0x0 JUMPDEST PUSH1 0x4 SLOAD DUP2 LT ISZERO PUSH2 0x99B JUMPI DUP3 PUSH1 0x1 PUSH1 0x1 PUSH1 0xA0 SHL SUB AND PUSH1 0x4 DUP3 DUP2 SLOAD DUP2 LT PUSH2 0x92B JUMPI PUSH2 0x92B PUSH2 0x1E8A JUMP JUMPDEST PUSH1 0x0 SWAP2 DUP3 MSTORE PUSH1 0x20 SWAP1 SWAP2 KECCAK256 PUSH1 0x5 SWAP1 SWAP2 MUL ADD SLOAD PUSH1 0x1 PUSH1 0x1 PUSH1 0xA0 SHL SUB AND SUB PUSH2 0x989 JUMPI PUSH1 0x4 DUP2 DUP2 SLOAD DUP2 LT PUSH2 0x95D JUMPI PUSH2 0x95D PUSH2 0x1E8A JUMP JUMPDEST PUSH1 0x0 SWAP2 DUP3 MSTORE PUSH1 0x20 DUP1 DUP4 KECCAK256 PUSH1 0x4 PUSH1 0x5 SWAP1 SWAP4 MUL ADD SWAP2 SWAP1 SWAP2 ADD DUP1 SLOAD PUSH1 0x1 DUP2 ADD DUP3 SSTORE SWAP1 DUP4 MSTORE SWAP2 KECCAK256 ADD DUP3 SWAP1 SSTORE POP POP POP JUMP JUMPDEST DUP1 PUSH2 0x993 DUP2 PUSH2 0x1EA0 JUMP JUMPDEST SWAP2 POP POP PUSH2 0x904 JUMP JUMPDEST POP PUSH1 0x40 MLOAD PUSH3 0x461BCD PUSH1 0xE5 SHL DUP2 MSTORE PUSH1 0x20 PUSH1 0x4 DUP3 ADD MSTORE PUSH1 0x29 PUSH1 0x24 DUP3 ADD MSTORE PUSH32 0x4E6F7420686569722061646472657373206D61746368656420746F2074686520 PUSH1 0x44 DUP3 ADD MSTORE PUSH9 0x37B7329039B2B73A17 PUSH1 0xB9 SHL PUSH1 0x64 DUP3 ADD MSTORE PUSH1 0x84 ADD PUSH2 0x4E3 JUMP JUMPDEST PUSH1 0x60 PUSH1 0x4 DUP1 SLOAD DUP1 PUSH1 0x20 MUL PUSH1 0x20 ADD PUSH1 0x40 MLOAD SWAP1 DUP2 ADD PUSH1 0x40 MSTORE DUP1 SWAP3 SWAP2 SWAP1 DUP2 DUP2 MSTORE PUSH1 0x20 ADD PUSH1 0x0 SWAP1 JUMPDEST DUP3 DUP3 LT ISZERO PUSH2 0xACD JUMPI PUSH1 0x0 DUP5 DUP2 MSTORE PUSH1 0x20 SWAP1 DUP2 SWAP1 KECCAK256 PUSH1 0x40 DUP1 MLOAD PUSH1 0xA0 DUP2 ADD DUP3 MSTORE PUSH1 0x5 DUP7 MUL SWAP1 SWAP3 ADD DUP1 SLOAD PUSH1 0x1 PUSH1 0x1 PUSH1 0xA0 SHL SUB AND DUP4 MSTORE PUSH1 0x1 DUP2 ADD SLOAD DUP4 DUP6 ADD MSTORE PUSH1 0x2 DUP2 ADD SLOAD DUP4 DUP4 ADD MSTORE PUSH1 0x3 DUP2 ADD SLOAD PUSH1 0x60 DUP5 ADD MSTORE PUSH1 0x4 DUP2 ADD DUP1 SLOAD DUP4 MLOAD DUP2 DUP8 MUL DUP2 ADD DUP8 ADD SWAP1 SWAP5 MSTORE DUP1 DUP5 MSTORE SWAP4 SWAP5 SWAP2 SWAP4 PUSH1 0x80 DUP7 ADD SWAP4 SWAP3 DUP4 ADD DUP3 DUP3 DUP1 ISZERO PUSH2 0xAB5 JUMPI PUSH1 0x20 MUL DUP3 ADD SWAP2 SWAP1 PUSH1 0x0 MSTORE PUSH1 0x20 PUSH1 0x0 KECCAK256 SWAP1 JUMPDEST DUP2 SLOAD DUP2 MSTORE PUSH1 0x20 ADD SWAP1 PUSH1 0x1 ADD SWAP1 DUP1 DUP4 GT PUSH2 0xAA1 JUMPI JUMPDEST POP POP POP POP POP DUP2 MSTORE POP POP DUP2 MSTORE PUSH1 0x20 ADD SWAP1 PUSH1 0x1 ADD SWAP1 PUSH2 0xA1A JUMP JUMPDEST POP POP POP POP SWAP1 POP SWAP1 JUMP JUMPDEST PUSH2 0xADE PUSH2 0x1A42 JUMP JUMPDEST PUSH2 0xAE8 PUSH1 0x0 PUSH2 0x1A9C JUMP JUMPDEST JUMP JUMPDEST PUSH2 0xAF2 PUSH2 0x1A42 JUMP JUMPDEST DUP3 DUP3 DUP3 PUSH1 0x5 DUP1 SLOAD SWAP1 POP DUP4 LT PUSH2 0xB19 JUMPI PUSH1 0x40 MLOAD PUSH3 0x461BCD PUSH1 0xE5 SHL DUP2 MSTORE PUSH1 0x4 ADD PUSH2 0x4E3 SWAP1 PUSH2 0x1ED2 JUMP JUMPDEST DUP2 PUSH1 0x1 PUSH1 0x1 PUSH1 0xA0 SHL SUB AND PUSH1 0x5 DUP5 DUP2 SLOAD DUP2 LT PUSH2 0xB36 JUMPI PUSH2 0xB36 PUSH2 0x1E8A JUMP JUMPDEST PUSH1 0x0 SWAP2 DUP3 MSTORE PUSH1 0x20 SWAP1 SWAP2 KECCAK256 ADD SLOAD PUSH1 0x1 PUSH1 0x1 PUSH1 0xA0 SHL SUB AND EQ PUSH2 0xB68 JUMPI PUSH1 0x40 MLOAD PUSH3 0x461BCD PUSH1 0xE5 SHL DUP2 MSTORE PUSH1 0x4 ADD PUSH2 0x4E3 SWAP1 PUSH2 0x1F2F JUMP JUMPDEST PUSH1 0x0 DUP1 JUMPDEST PUSH1 0x4 SLOAD DUP2 LT ISZERO PUSH2 0xC4D JUMPI DUP4 PUSH1 0x1 PUSH1 0x1 PUSH1 0xA0 SHL SUB AND PUSH1 0x4 DUP3 DUP2 SLOAD DUP2 LT PUSH2 0xB93 JUMPI PUSH2 0xB93 PUSH2 0x1E8A JUMP JUMPDEST PUSH1 0x0 SWAP2 DUP3 MSTORE PUSH1 0x20 SWAP1 SWAP2 KECCAK256 PUSH1 0x5 SWAP1 SWAP2 MUL ADD SLOAD PUSH1 0x1 PUSH1 0x1 PUSH1 0xA0 SHL SUB AND SUB PUSH2 0xC09 JUMPI PUSH1 0x40 MLOAD PUSH3 0x461BCD PUSH1 0xE5 SHL DUP2 MSTORE PUSH1 0x20 PUSH1 0x4 DUP3 ADD MSTORE PUSH1 0x26 PUSH1 0x24 DUP3 ADD MSTORE PUSH32 0x4164647265737320616C72656164792065786973747320696E20686569727320 PUSH1 0x44 DUP3 ADD MSTORE PUSH6 0x30B93930BC97 PUSH1 0xD1 SHL PUSH1 0x64 DUP3 ADD MSTORE PUSH1 0x84 ADD PUSH2 0x4E3 JUMP JUMPDEST PUSH1 0x4 DUP2 DUP2 SLOAD DUP2 LT PUSH2 0xC1C JUMPI PUSH2 0xC1C PUSH2 0x1E8A JUMP JUMPDEST SWAP1 PUSH1 0x0 MSTORE PUSH1 0x20 PUSH1 0x0 KECCAK256 SWAP1 PUSH1 0x5 MUL ADD PUSH1 0x1 ADD SLOAD DUP3 PUSH2 0xC39 SWAP2 SWAP1 PUSH2 0x1F9E JUMP JUMPDEST SWAP2 POP DUP1 PUSH2 0xC45 DUP2 PUSH2 0x1EA0 JUMP JUMPDEST SWAP2 POP POP PUSH2 0xB6C JUMP JUMPDEST POP PUSH1 0x64 PUSH2 0xC5A DUP4 DUP4 PUSH2 0x1F9E JUMP JUMPDEST GT ISZERO PUSH2 0xCF4 JUMPI PUSH1 0x40 MLOAD PUSH3 0x461BCD PUSH1 0xE5 SHL DUP2 MSTORE PUSH1 0x20 PUSH1 0x4 DUP3 ADD MSTORE PUSH1 0x5C PUSH1 0x24 DUP3 ADD MSTORE PUSH32 0x74686520616D6F756E74206F6620736861726573206578636565642074686520 PUSH1 0x44 DUP3 ADD MSTORE PUSH32 0x31303025206F662074686520496E6865726974616E63652C2074727920776974 PUSH1 0x64 DUP3 ADD MSTORE PUSH32 0x68206120736D616C6C657220616D6F756E74206F662073686172652E00000000 PUSH1 0x84 DUP3 ADD MSTORE PUSH1 0xA4 ADD PUSH2 0x4E3 JUMP JUMPDEST PUSH1 0x40 DUP1 MLOAD PUSH1 0xA0 DUP2 ADD DUP3 MSTORE PUSH1 0x1 PUSH1 0x1 PUSH1 0xA0 SHL SUB DUP9 DUP2 AND DUP3 MSTORE PUSH1 0x20 DUP1 DUP4 ADD DUP10 DUP2 MSTORE PUSH1 0x0 SWAP5 DUP5 ADD DUP6 DUP2 MSTORE PUSH1 0x60 DUP1 DUP7 ADD DUP8 DUP2 MSTORE PUSH1 0x80 DUP8 ADD DUP3 DUP2 MSTORE PUSH1 0x4 DUP1 SLOAD PUSH1 0x1 DUP2 ADD DUP3 SSTORE SWAP10 MSTORE DUP8 MLOAD PUSH32 0x8A35ACFBC15FF81A39AE7D344FD709F28E8600B4AA8C65C6B64BFE7FE36BD19B PUSH1 0x5 SWAP1 SWAP11 MUL SWAP10 DUP11 ADD DUP1 SLOAD PUSH1 0x1 PUSH1 0x1 PUSH1 0xA0 SHL SUB NOT AND SWAP2 SWAP1 SWAP9 AND OR DUP8 SSTORE SWAP4 MLOAD PUSH32 0x8A35ACFBC15FF81A39AE7D344FD709F28E8600B4AA8C65C6B64BFE7FE36BD19C DUP10 ADD SSTORE SWAP2 MLOAD PUSH32 0x8A35ACFBC15FF81A39AE7D344FD709F28E8600B4AA8C65C6B64BFE7FE36BD19D DUP9 ADD SSTORE SWAP1 MLOAD PUSH32 0x8A35ACFBC15FF81A39AE7D344FD709F28E8600B4AA8C65C6B64BFE7FE36BD19E DUP8 ADD SSTORE SWAP1 MLOAD DUP1 MLOAD SWAP2 SWAP6 PUSH2 0xE1D SWAP4 PUSH32 0x8A35ACFBC15FF81A39AE7D344FD709F28E8600B4AA8C65C6B64BFE7FE36BD19F SWAP1 SWAP2 ADD SWAP3 SWAP2 ADD SWAP1 PUSH2 0x1BE0 JUMP JUMPDEST POP POP POP PUSH2 0xE29 DUP9 PUSH2 0x1AEC JUMP JUMPDEST PUSH1 0x5 SLOAD PUSH1 0x4 SLOAD PUSH1 0x40 DUP1 MLOAD PUSH1 0x80 DUP1 DUP3 MSTORE PUSH1 0x26 SWAP1 DUP3 ADD MSTORE PUSH32 0x41646D696E6973747261746F722061636365707473207573657220617320616E PUSH1 0xA0 DUP3 ADD MSTORE PUSH6 0x103432B4B917 PUSH1 0xD1 SHL PUSH1 0xC0 DUP3 ADD MSTORE PUSH1 0x20 DUP2 ADD DUP11 SWAP1 MSTORE SWAP1 DUP2 ADD SWAP3 SWAP1 SWAP3 MSTORE PUSH1 0x60 DUP3 ADD MSTORE PUSH1 0x1 PUSH1 0x1 PUSH1 0xA0 SHL SUB DUP9 AND SWAP1 PUSH32 0x14AA904C12FA948B33E901E688A79D46FE3D46A383A5B181C26475CEC40D67EC SWAP1 PUSH1 0xE0 ADD PUSH1 0x40 MLOAD DUP1 SWAP2 SUB SWAP1 LOG2 POP POP POP POP POP POP POP POP JUMP JUMPDEST CALLER PUSH1 0x0 DUP1 JUMPDEST PUSH1 0x4 SLOAD DUP2 LT ISZERO PUSH2 0xF2A JUMPI DUP3 PUSH1 0x1 PUSH1 0x1 PUSH1 0xA0 SHL SUB AND PUSH1 0x4 DUP3 DUP2 SLOAD DUP2 LT PUSH2 0xEF4 JUMPI PUSH2 0xEF4 PUSH2 0x1E8A JUMP JUMPDEST PUSH1 0x0 SWAP2 DUP3 MSTORE PUSH1 0x20 SWAP1 SWAP2 KECCAK256 PUSH1 0x5 SWAP1 SWAP2 MUL ADD SLOAD PUSH1 0x1 PUSH1 0x1 PUSH1 0xA0 SHL SUB AND SUB PUSH2 0xF18 JUMPI PUSH1 0x1 SWAP2 POP JUMPDEST DUP1 PUSH2 0xF22 DUP2 PUSH2 0x1EA0 JUMP JUMPDEST SWAP2 POP POP PUSH2 0xECD JUMP JUMPDEST POP PUSH1 0x1 DUP2 ISZERO ISZERO EQ PUSH2 0xF99 JUMPI PUSH1 0x40 MLOAD PUSH3 0x461BCD PUSH1 0xE5 SHL DUP2 MSTORE PUSH1 0x20 PUSH1 0x4 DUP3 ADD MSTORE PUSH1 0x33 PUSH1 0x24 DUP3 ADD MSTORE PUSH32 0x546865206164647265737320636C61696D696E672074686520696E6865726974 PUSH1 0x44 DUP3 ADD MSTORE PUSH19 0x30B731B29034B9903737BA1030902432B4B917 PUSH1 0x69 SHL PUSH1 0x64 DUP3 ADD MSTORE PUSH1 0x84 ADD PUSH2 0x4E3 JUMP JUMPDEST PUSH2 0xFA1 PUSH2 0x3FE JUMP JUMPDEST ISZERO PUSH2 0x7A5 JUMPI PUSH1 0x0 PUSH2 0xFB0 PUSH2 0x887 JUMP JUMPDEST SWAP1 POP SELFBALANCE PUSH1 0x0 PUSH2 0xFBD PUSH2 0x15C7 JUMP JUMPDEST SWAP1 POP PUSH1 0x0 JUMPDEST PUSH1 0x4 SLOAD DUP2 LT ISZERO PUSH2 0x10D9 JUMPI DUP2 DUP5 PUSH1 0x4 DUP4 DUP2 SLOAD DUP2 LT PUSH2 0xFE1 JUMPI PUSH2 0xFE1 PUSH2 0x1E8A JUMP JUMPDEST SWAP1 PUSH1 0x0 MSTORE PUSH1 0x20 PUSH1 0x0 KECCAK256 SWAP1 PUSH1 0x5 MUL ADD PUSH1 0x1 ADD SLOAD PUSH2 0xFFD SWAP2 SWAP1 PUSH2 0x1FB1 JUMP JUMPDEST PUSH2 0x1007 SWAP2 SWAP1 PUSH2 0x1FC8 JUMP JUMPDEST PUSH1 0x6 PUSH1 0x0 PUSH1 0x4 DUP5 DUP2 SLOAD DUP2 LT PUSH2 0x101E JUMPI PUSH2 0x101E PUSH2 0x1E8A JUMP JUMPDEST PUSH1 0x0 SWAP2 DUP3 MSTORE PUSH1 0x20 DUP1 DUP4 KECCAK256 PUSH1 0x5 SWAP1 SWAP3 MUL SWAP1 SWAP2 ADD SLOAD PUSH1 0x1 PUSH1 0x1 PUSH1 0xA0 SHL SUB AND DUP4 MSTORE DUP3 ADD SWAP3 SWAP1 SWAP3 MSTORE PUSH1 0x40 ADD SWAP1 KECCAK256 SSTORE PUSH1 0x4 DUP1 SLOAD DUP4 SWAP2 DUP6 SWAP2 DUP5 SWAP1 DUP2 LT PUSH2 0x1060 JUMPI PUSH2 0x1060 PUSH2 0x1E8A JUMP JUMPDEST SWAP1 PUSH1 0x0 MSTORE PUSH1 0x20 PUSH1 0x0 KECCAK256 SWAP1 PUSH1 0x5 MUL ADD PUSH1 0x1 ADD SLOAD PUSH2 0x107C SWAP2 SWAP1 PUSH2 0x1FB1 JUMP JUMPDEST PUSH2 0x1086 SWAP2 SWAP1 PUSH2 0x1FC8 JUMP JUMPDEST PUSH1 0x7 PUSH1 0x0 PUSH1 0x4 DUP5 DUP2 SLOAD DUP2 LT PUSH2 0x109D JUMPI PUSH2 0x109D PUSH2 0x1E8A JUMP JUMPDEST PUSH1 0x0 SWAP2 DUP3 MSTORE PUSH1 0x20 DUP1 DUP4 KECCAK256 PUSH1 0x5 SWAP1 SWAP3 MUL SWAP1 SWAP2 ADD SLOAD PUSH1 0x1 PUSH1 0x1 PUSH1 0xA0 SHL SUB AND DUP4 MSTORE DUP3 ADD SWAP3 SWAP1 SWAP3 MSTORE PUSH1 0x40 ADD SWAP1 KECCAK256 SSTORE DUP1 PUSH2 0x10D1 DUP2 PUSH2 0x1EA0 JUMP JUMPDEST SWAP2 POP POP PUSH2 0xFC2 JUMP JUMPDEST POP PUSH1 0x0 DUP1 JUMPDEST PUSH1 0x4 SLOAD DUP2 LT ISZERO PUSH2 0x144A JUMPI PUSH1 0x4 DUP2 DUP2 SLOAD DUP2 LT PUSH2 0x10FB JUMPI PUSH2 0x10FB PUSH2 0x1E8A JUMP JUMPDEST PUSH1 0x0 SWAP2 DUP3 MSTORE PUSH1 0x20 DUP1 DUP4 KECCAK256 PUSH1 0x5 SWAP1 SWAP3 MUL SWAP1 SWAP2 ADD SLOAD PUSH1 0x1 PUSH1 0x1 PUSH1 0xA0 SHL SUB AND DUP1 DUP4 MSTORE PUSH1 0x7 SWAP1 SWAP2 MSTORE PUSH1 0x40 DUP1 DUP4 KECCAK256 SLOAD SWAP1 MLOAD SWAP2 SWAP5 POP DUP5 SWAP3 DUP2 ISZERO PUSH2 0x8FC MUL SWAP3 SWAP1 DUP2 DUP2 DUP2 DUP6 DUP9 DUP9 CALL SWAP4 POP POP POP POP ISZERO DUP1 ISZERO PUSH2 0x1151 JUMPI RETURNDATASIZE PUSH1 0x0 DUP1 RETURNDATACOPY RETURNDATASIZE PUSH1 0x0 REVERT JUMPDEST POP PUSH1 0x1 PUSH1 0x1 PUSH1 0xA0 SHL SUB DUP3 AND PUSH1 0x0 SWAP1 DUP2 MSTORE PUSH1 0x7 PUSH1 0x20 MSTORE PUSH1 0x40 SWAP1 KECCAK256 SLOAD PUSH1 0x4 DUP1 SLOAD DUP4 SWAP1 DUP2 LT PUSH2 0x117F JUMPI PUSH2 0x117F PUSH2 0x1E8A JUMP JUMPDEST PUSH1 0x0 SWAP2 DUP3 MSTORE PUSH1 0x20 DUP1 DUP4 KECCAK256 PUSH1 0x5 SWAP3 SWAP1 SWAP3 MUL SWAP1 SWAP2 ADD PUSH1 0x2 ADD SWAP3 SWAP1 SWAP3 SSTORE PUSH1 0x8 SLOAD PUSH1 0x1 PUSH1 0x1 PUSH1 0xA0 SHL SUB DUP6 DUP2 AND DUP1 DUP5 MSTORE PUSH1 0x6 SWAP1 SWAP5 MSTORE PUSH1 0x40 SWAP3 DUP4 SWAP1 KECCAK256 SLOAD SWAP3 MLOAD PUSH4 0xA9059CBB PUSH1 0xE0 SHL DUP2 MSTORE PUSH1 0x4 DUP2 ADD SWAP5 SWAP1 SWAP5 MSTORE PUSH1 0x24 DUP5 ADD SWAP3 SWAP1 SWAP3 MSTORE AND SWAP1 PUSH4 0xA9059CBB SWAP1 PUSH1 0x44 ADD PUSH1 0x20 PUSH1 0x40 MLOAD DUP1 DUP4 SUB DUP2 PUSH1 0x0 DUP8 GAS CALL ISZERO DUP1 ISZERO PUSH2 0x11FC JUMPI RETURNDATASIZE PUSH1 0x0 DUP1 RETURNDATACOPY RETURNDATASIZE PUSH1 0x0 REVERT JUMPDEST POP POP POP POP PUSH1 0x40 MLOAD RETURNDATASIZE PUSH1 0x1F NOT PUSH1 0x1F DUP3 ADD AND DUP3 ADD DUP1 PUSH1 0x40 MSTORE POP DUP2 ADD SWAP1 PUSH2 0x1220 SWAP2 SWAP1 PUSH2 0x1FEA JUMP JUMPDEST PUSH2 0x1292 JUMPI PUSH1 0x40 MLOAD PUSH3 0x461BCD PUSH1 0xE5 SHL DUP2 MSTORE PUSH1 0x20 PUSH1 0x4 DUP3 ADD MSTORE PUSH1 0x38 PUSH1 0x24 DUP3 ADD MSTORE PUSH32 0x4572726F72207768696C65207472616E7366657272696E672055534443206672 PUSH1 0x44 DUP3 ADD MSTORE PUSH32 0x6F6D2074686520636F6E747261637420746F20686569722E0000000000000000 PUSH1 0x64 DUP3 ADD MSTORE PUSH1 0x84 ADD PUSH2 0x4E3 JUMP JUMPDEST PUSH1 0x1 PUSH1 0x1 PUSH1 0xA0 SHL SUB DUP3 AND PUSH1 0x0 SWAP1 DUP2 MSTORE PUSH1 0x6 PUSH1 0x20 MSTORE PUSH1 0x40 SWAP1 KECCAK256 SLOAD PUSH1 0x4 DUP1 SLOAD DUP4 SWAP1 DUP2 LT PUSH2 0x12BF JUMPI PUSH2 0x12BF PUSH2 0x1E8A JUMP JUMPDEST SWAP1 PUSH1 0x0 MSTORE PUSH1 0x20 PUSH1 0x0 KECCAK256 SWAP1 PUSH1 0x5 MUL ADD PUSH1 0x3 ADD DUP2 SWAP1 SSTORE POP DUP2 PUSH1 0x1 PUSH1 0x1 PUSH1 0xA0 SHL SUB AND PUSH32 0x34E2B4EFDA0968BD3C419ECD901876F712F93CD5FDA9303AB16021C3535F5593 PUSH1 0x4 DUP4 DUP2 SLOAD DUP2 LT PUSH2 0x1312 JUMPI PUSH2 0x1312 PUSH2 0x1E8A JUMP JUMPDEST SWAP1 PUSH1 0x0 MSTORE PUSH1 0x20 PUSH1 0x0 KECCAK256 SWAP1 PUSH1 0x5 MUL ADD PUSH1 0x1 ADD SLOAD PUSH1 0x7 PUSH1 0x0 DUP7 PUSH1 0x1 PUSH1 0x1 PUSH1 0xA0 SHL SUB AND PUSH1 0x1 PUSH1 0x1 PUSH1 0xA0 SHL SUB AND DUP2 MSTORE PUSH1 0x20 ADD SWAP1 DUP2 MSTORE PUSH1 0x20 ADD PUSH1 0x0 KECCAK256 SLOAD PUSH1 0x4 DUP6 DUP2 SLOAD DUP2 LT PUSH2 0x135D JUMPI PUSH2 0x135D PUSH2 0x1E8A JUMP JUMPDEST SWAP1 PUSH1 0x0 MSTORE PUSH1 0x20 PUSH1 0x0 KECCAK256 SWAP1 PUSH1 0x5 MUL ADD PUSH1 0x2 ADD SLOAD PUSH1 0x6 PUSH1 0x0 DUP9 PUSH1 0x1 PUSH1 0x1 PUSH1 0xA0 SHL SUB AND PUSH1 0x1 PUSH1 0x1 PUSH1 0xA0 SHL SUB AND DUP2 MSTORE PUSH1 0x20 ADD SWAP1 DUP2 MSTORE PUSH1 0x20 ADD PUSH1 0x0 KECCAK256 SLOAD PUSH1 0x4 DUP8 DUP2 SLOAD DUP2 LT PUSH2 0x13A8 JUMPI PUSH2 0x13A8 PUSH2 0x1E8A JUMP JUMPDEST SWAP1 PUSH1 0x0 MSTORE PUSH1 0x20 PUSH1 0x0 KECCAK256 SWAP1 PUSH1 0x5 MUL ADD PUSH1 0x3 ADD SLOAD PUSH1 0x40 MLOAD PUSH2 0x1430 SWAP6 SWAP5 SWAP4 SWAP3 SWAP2 SWAP1 PUSH1 0xC0 DUP1 DUP3 MSTORE PUSH1 0x26 SWAP1 DUP3 ADD MSTORE PUSH32 0x457468657220616E642055534443206D6F6E65792073656E7420746F20746865 PUSH1 0xE0 DUP3 ADD MSTORE PUSH6 0x103432B4B917 PUSH1 0xD1 SHL PUSH2 0x100 DUP3 ADD MSTORE PUSH1 0x20 DUP2 ADD SWAP6 SWAP1 SWAP6 MSTORE PUSH1 0x40 DUP6 ADD SWAP4 SWAP1 SWAP4 MSTORE PUSH1 0x60 DUP5 ADD SWAP2 SWAP1 SWAP2 MSTORE PUSH1 0x80 DUP4 ADD MSTORE PUSH1 0xA0 DUP3 ADD MSTORE PUSH2 0x120 ADD SWAP1 JUMP JUMPDEST PUSH1 0x40 MLOAD DUP1 SWAP2 SUB SWAP1 LOG2 DUP1 PUSH2 0x1442 DUP2 PUSH2 0x1EA0 JUMP JUMPDEST SWAP2 POP POP PUSH2 0x10DE JUMP JUMPDEST POP POP POP POP POP POP POP JUMP JUMPDEST PUSH1 0x0 PUSH2 0x145D PUSH2 0x1A42 JUMP JUMPDEST POP PUSH1 0x3 SLOAD SWAP1 JUMP JUMPDEST PUSH2 0x146C PUSH2 0x1A42 JUMP JUMPDEST TIMESTAMP PUSH1 0x2 DUP2 SWAP1 SSTORE PUSH1 0x3 SLOAD PUSH1 0x40 DUP1 MLOAD PUSH1 0x80 DUP1 DUP3 MSTORE PUSH1 0x31 SWAP1 DUP3 ADD MSTORE PUSH32 0x41646D696E6973747261746F722073656E64732061207369676E616C20746F20 PUSH1 0xA0 DUP3 ADD MSTORE PUSH17 0x39B437BB9034329034B99030B634BB3297 PUSH1 0x79 SHL PUSH1 0xC0 DUP3 ADD MSTORE PUSH1 0x20 DUP2 ADD DUP5 SWAP1 MSTORE SWAP1 DUP2 ADD SWAP3 SWAP1 SWAP3 MSTORE PUSH1 0x60 DUP3 ADD MSTORE CALLER SWAP1 PUSH32 0x5F1AA2875B7B1DF0CD72A6EE708C6AFF6432288001C47518BC91BE4599FDF6E6 SWAP1 PUSH1 0xE0 ADD PUSH1 0x40 MLOAD DUP1 SWAP2 SUB SWAP1 LOG2 JUMP JUMPDEST PUSH1 0x1 SLOAD PUSH1 0x40 DUP1 MLOAD PUSH1 0x80 DUP1 DUP3 MSTORE PUSH1 0x4F SWAP1 DUP3 ADD MSTORE PUSH32 0x4C6F6720616C6C207468652076616C7565733A2041646D696E6973747261746F PUSH1 0xA0 DUP3 ADD MSTORE PUSH32 0x7220616464726573732C20416D6F756E742073656E742C20436F6E7472616374 PUSH1 0xC0 DUP3 ADD MSTORE PUSH15 0x1032BA3432B9103130B630B731B297 PUSH1 0x89 SHL PUSH1 0xE0 DUP3 ADD MSTORE PUSH1 0x1 PUSH1 0x1 PUSH1 0xA0 SHL SUB SWAP1 SWAP3 AND PUSH1 0x20 DUP4 ADD MSTORE CALLVALUE DUP3 DUP3 ADD MSTORE SELFBALANCE PUSH1 0x60 DUP4 ADD MSTORE MLOAD PUSH32 0xE329D93CFDA1BD6EAD1003E3AE53461617C8D120014DFAEA03D2FB42EC55B07 SWAP2 DUP2 SWAP1 SUB PUSH2 0x100 ADD SWAP1 LOG1 JUMP JUMPDEST PUSH1 0x0 DUP1 DUP1 JUMPDEST PUSH1 0x4 SLOAD DUP2 LT ISZERO PUSH2 0x881 JUMPI PUSH1 0x4 DUP2 DUP2 SLOAD DUP2 LT PUSH2 0x15E9 JUMPI PUSH2 0x15E9 PUSH2 0x1E8A JUMP JUMPDEST SWAP1 PUSH1 0x0 MSTORE PUSH1 0x20 PUSH1 0x0 KECCAK256 SWAP1 PUSH1 0x5 MUL ADD PUSH1 0x1 ADD SLOAD DUP3 PUSH2 0x1606 SWAP2 SWAP1 PUSH2 0x1F9E JUMP JUMPDEST SWAP2 POP DUP1 PUSH2 0x1612 DUP2 PUSH2 0x1EA0 JUMP JUMPDEST SWAP2 POP POP PUSH2 0x15CC JUMP JUMPDEST PUSH2 0x1622 PUSH2 0x1A42 JUMP JUMPDEST PUSH1 0x0 DUP2 GT PUSH2 0x166D JUMPI PUSH1 0x40 MLOAD PUSH3 0x461BCD PUSH1 0xE5 SHL DUP2 MSTORE PUSH1 0x20 PUSH1 0x4 DUP3 ADD MSTORE PUSH1 0x18 PUSH1 0x24 DUP3 ADD MSTORE PUSH24 0x20B6B7BAB73A1036BAB9BA103132903837B9B4BA34BB3297 PUSH1 0x41 SHL PUSH1 0x44 DUP3 ADD MSTORE PUSH1 0x64 ADD PUSH2 0x4E3 JUMP JUMPDEST PUSH2 0x1675 PUSH2 0x887 JUMP JUMPDEST DUP2 GT ISZERO PUSH2 0x16C4 JUMPI PUSH1 0x40 MLOAD PUSH3 0x461BCD PUSH1 0xE5 SHL DUP2 MSTORE PUSH1 0x20 PUSH1 0x4 DUP3 ADD MSTORE PUSH1 0x18 PUSH1 0x24 DUP3 ADD MSTORE PUSH32 0x4E6F7420656E6F75676820555344432062616C616E63652E0000000000000000 PUSH1 0x44 DUP3 ADD MSTORE PUSH1 0x64 ADD PUSH2 0x4E3 JUMP JUMPDEST PUSH1 0x8 SLOAD PUSH1 0x40 MLOAD PUSH4 0xA9059CBB PUSH1 0xE0 SHL DUP2 MSTORE CALLER PUSH1 0x4 DUP3 ADD MSTORE PUSH1 0x24 DUP2 ADD DUP4 SWAP1 MSTORE PUSH1 0x1 PUSH1 0x1 PUSH1 0xA0 SHL SUB SWAP1 SWAP2 AND SWAP1 PUSH4 0xA9059CBB SWAP1 PUSH1 0x44 ADD PUSH1 0x20 PUSH1 0x40 MLOAD DUP1 DUP4 SUB DUP2 PUSH1 0x0 DUP8 GAS CALL ISZERO DUP1 ISZERO PUSH2 0x1715 JUMPI RETURNDATASIZE PUSH1 0x0 DUP1 RETURNDATACOPY RETURNDATASIZE PUSH1 0x0 REVERT JUMPDEST POP POP POP POP PUSH1 0x40 MLOAD RETURNDATASIZE PUSH1 0x1F NOT PUSH1 0x1F DUP3 ADD AND DUP3 ADD DUP1 PUSH1 0x40 MSTORE POP DUP2 ADD SWAP1 PUSH2 0x1739 SWAP2 SWAP1 PUSH2 0x1FEA JUMP JUMPDEST PUSH2 0x17B9 JUMPI PUSH1 0x40 MLOAD PUSH3 0x461BCD PUSH1 0xE5 SHL DUP2 MSTORE PUSH1 0x20 PUSH1 0x4 DUP3 ADD MSTORE PUSH1 0x45 PUSH1 0x24 DUP3 ADD MSTORE PUSH32 0x4572726F72207768696C65207472616E7366657272696E672055534443206672 PUSH1 0x44 DUP3 ADD MSTORE PUSH32 0x6F6D2074686520636F6E747261637420746F207468652061646D696E69737472 PUSH1 0x64 DUP3 ADD MSTORE PUSH5 0x30BA37B917 PUSH1 0xD9 SHL PUSH1 0x84 DUP3 ADD MSTORE PUSH1 0xA4 ADD PUSH2 0x4E3 JUMP JUMPDEST POP JUMP JUMPDEST PUSH2 0x17C4 PUSH2 0x1A42 JUMP JUMPDEST PUSH1 0x3 SSTORE JUMP JUMPDEST PUSH2 0x17D1 PUSH2 0x1A42 JUMP JUMPDEST PUSH1 0x5 SLOAD DUP3 SWAP1 DUP3 SWAP1 DUP3 LT PUSH2 0x17F6 JUMPI PUSH1 0x40 MLOAD PUSH3 0x461BCD PUSH1 0xE5 SHL DUP2 MSTORE PUSH1 0x4 ADD PUSH2 0x4E3 SWAP1 PUSH2 0x1ED2 JUMP JUMPDEST DUP1 PUSH1 0x1 PUSH1 0x1 PUSH1 0xA0 SHL SUB AND PUSH1 0x5 DUP4 DUP2 SLOAD DUP2 LT PUSH2 0x1813 JUMPI PUSH2 0x1813 PUSH2 0x1E8A JUMP JUMPDEST PUSH1 0x0 SWAP2 DUP3 MSTORE PUSH1 0x20 SWAP1 SWAP2 KECCAK256 ADD SLOAD PUSH1 0x1 PUSH1 0x1 PUSH1 0xA0 SHL SUB AND EQ PUSH2 0x1845 JUMPI PUSH1 0x40 MLOAD PUSH3 0x461BCD PUSH1 0xE5 SHL DUP2 MSTORE PUSH1 0x4 ADD PUSH2 0x4E3 SWAP1 PUSH2 0x1F2F JUMP JUMPDEST PUSH2 0x184E DUP5 PUSH2 0x1AEC JUMP JUMPDEST PUSH1 0x5 SLOAD PUSH1 0x4 SLOAD PUSH1 0x40 DUP1 MLOAD PUSH1 0x60 DUP1 DUP3 MSTORE PUSH1 0x33 SWAP1 DUP3 ADD MSTORE PUSH32 0x41646D696E6973747261746F722072656A656374732075736572277320726571 PUSH1 0x80 DUP3 ADD MSTORE PUSH19 0x3AB2B9BA103A379031329030B7103432B4B917 PUSH1 0x69 SHL PUSH1 0xA0 DUP3 ADD MSTORE PUSH1 0x20 DUP2 ADD SWAP4 SWAP1 SWAP4 MSTORE DUP3 ADD MSTORE PUSH1 0x1 PUSH1 0x1 PUSH1 0xA0 SHL SUB DUP5 AND SWAP1 PUSH32 0x5541B3BB46C30EE5AEA95B57D7A1D3949DA67BA8E09C865DA2318F2FB273857 SWAP1 PUSH1 0xC0 ADD PUSH1 0x40 MLOAD DUP1 SWAP2 SUB SWAP1 LOG2 POP POP POP POP JUMP JUMPDEST PUSH2 0x18F6 PUSH2 0x1A42 JUMP JUMPDEST PUSH1 0x1 PUSH1 0x1 PUSH1 0xA0 SHL SUB DUP2 AND PUSH2 0x195B JUMPI PUSH1 0x40 MLOAD PUSH3 0x461BCD PUSH1 0xE5 SHL DUP2 MSTORE PUSH1 0x20 PUSH1 0x4 DUP3 ADD MSTORE PUSH1 0x26 PUSH1 0x24 DUP3 ADD MSTORE PUSH32 0x4F776E61626C653A206E6577206F776E657220697320746865207A65726F2061 PUSH1 0x44 DUP3 ADD MSTORE PUSH6 0x646472657373 PUSH1 0xD0 SHL PUSH1 0x64 DUP3 ADD MSTORE PUSH1 0x84 ADD PUSH2 0x4E3 JUMP JUMPDEST PUSH2 0x17B9 DUP2 PUSH2 0x1A9C JUMP JUMPDEST PUSH1 0x4 SLOAD PUSH1 0x60 SWAP1 PUSH1 0x0 SWAP1 PUSH8 0xFFFFFFFFFFFFFFFF DUP2 GT ISZERO PUSH2 0x1985 JUMPI PUSH2 0x1985 PUSH2 0x200C JUMP JUMPDEST PUSH1 0x40 MLOAD SWAP1 DUP1 DUP3 MSTORE DUP1 PUSH1 0x20 MUL PUSH1 0x20 ADD DUP3 ADD PUSH1 0x40 MSTORE DUP1 ISZERO PUSH2 0x19AE JUMPI DUP2 PUSH1 0x20 ADD PUSH1 0x20 DUP3 MUL DUP1 CALLDATASIZE DUP4 CALLDATACOPY ADD SWAP1 POP JUMPDEST POP SWAP1 POP PUSH1 0x0 DUP1 JUMPDEST PUSH1 0x4 SLOAD DUP2 LT ISZERO PUSH2 0x1A3A JUMPI PUSH1 0x4 DUP2 DUP2 SLOAD DUP2 LT PUSH2 0x19D2 JUMPI PUSH2 0x19D2 PUSH2 0x1E8A JUMP JUMPDEST PUSH1 0x0 SWAP2 DUP3 MSTORE PUSH1 0x20 SWAP1 SWAP2 KECCAK256 PUSH1 0x5 SWAP1 SWAP2 MUL ADD SLOAD DUP4 MLOAD PUSH1 0x1 PUSH1 0x1 PUSH1 0xA0 SHL SUB SWAP1 SWAP2 AND SWAP1 DUP5 SWAP1 DUP5 SWAP1 DUP2 LT PUSH2 0x1A03 JUMPI PUSH2 0x1A03 PUSH2 0x1E8A JUMP JUMPDEST PUSH1 0x1 PUSH1 0x1 PUSH1 0xA0 SHL SUB SWAP1 SWAP3 AND PUSH1 0x20 SWAP3 DUP4 MUL SWAP2 SWAP1 SWAP2 ADD SWAP1 SWAP2 ADD MSTORE PUSH2 0x1A26 PUSH1 0x1 DUP4 PUSH2 0x1F9E JUMP JUMPDEST SWAP2 POP DUP1 PUSH2 0x1A32 DUP2 PUSH2 0x1EA0 JUMP JUMPDEST SWAP2 POP POP PUSH2 0x19B5 JUMP JUMPDEST POP SWAP1 SWAP3 SWAP2 POP POP JUMP JUMPDEST PUSH1 0x0 SLOAD PUSH1 0x1 PUSH1 0x1 PUSH1 0xA0 SHL SUB AND CALLER EQ PUSH2 0xAE8 JUMPI PUSH1 0x40 MLOAD PUSH3 0x461BCD PUSH1 0xE5 SHL DUP2 MSTORE PUSH1 0x20 PUSH1 0x4 DUP3 ADD DUP2 SWAP1 MSTORE PUSH1 0x24 DUP3 ADD MSTORE PUSH32 0x4F776E61626C653A2063616C6C6572206973206E6F7420746865206F776E6572 PUSH1 0x44 DUP3 ADD MSTORE PUSH1 0x64 ADD PUSH2 0x4E3 JUMP JUMPDEST PUSH1 0x0 DUP1 SLOAD PUSH1 0x1 PUSH1 0x1 PUSH1 0xA0 SHL SUB DUP4 DUP2 AND PUSH1 0x1 PUSH1 0x1 PUSH1 0xA0 SHL SUB NOT DUP4 AND DUP2 OR DUP5 SSTORE PUSH1 0x40 MLOAD SWAP2 SWAP1 SWAP3 AND SWAP3 DUP4 SWAP2 PUSH32 0x8BE0079C531659141344CD1FD0A4F28419497F9722A3DAAFE3B4186F6B6457E0 SWAP2 SWAP1 LOG3 POP POP JUMP JUMPDEST PUSH1 0x5 SLOAD DUP2 LT PUSH2 0x1B0D JUMPI PUSH1 0x40 MLOAD PUSH3 0x461BCD PUSH1 0xE5 SHL DUP2 MSTORE PUSH1 0x4 ADD PUSH2 0x4E3 SWAP1 PUSH2 0x1ED2 JUMP JUMPDEST DUP1 JUMPDEST PUSH1 0x5 SLOAD PUSH2 0x1B1E SWAP1 PUSH1 0x1 SWAP1 PUSH2 0x1E71 JUMP JUMPDEST DUP2 LT ISZERO PUSH2 0x1BA9 JUMPI PUSH1 0x5 PUSH2 0x1B32 DUP3 PUSH1 0x1 PUSH2 0x1F9E JUMP JUMPDEST DUP2 SLOAD DUP2 LT PUSH2 0x1B42 JUMPI PUSH2 0x1B42 PUSH2 0x1E8A JUMP JUMPDEST PUSH1 0x0 SWAP2 DUP3 MSTORE PUSH1 0x20 SWAP1 SWAP2 KECCAK256 ADD SLOAD PUSH1 0x5 DUP1 SLOAD PUSH1 0x1 PUSH1 0x1 PUSH1 0xA0 SHL SUB SWAP1 SWAP3 AND SWAP2 DUP4 SWAP1 DUP2 LT PUSH2 0x1B6E JUMPI PUSH2 0x1B6E PUSH2 0x1E8A JUMP JUMPDEST PUSH1 0x0 SWAP2 DUP3 MSTORE PUSH1 0x20 SWAP1 SWAP2 KECCAK256 ADD DUP1 SLOAD PUSH1 0x1 PUSH1 0x1 PUSH1 0xA0 SHL SUB NOT AND PUSH1 0x1 PUSH1 0x1 PUSH1 0xA0 SHL SUB SWAP3 SWAP1 SWAP3 AND SWAP2 SWAP1 SWAP2 OR SWAP1 SSTORE DUP1 PUSH2 0x1BA1 DUP2 PUSH2 0x1EA0 JUMP JUMPDEST SWAP2 POP POP PUSH2 0x1B0F JUMP JUMPDEST POP PUSH1 0x5 DUP1 SLOAD DUP1 PUSH2 0x1BBB JUMPI PUSH2 0x1BBB PUSH2 0x2022 JUMP JUMPDEST PUSH1 0x0 DUP3 DUP2 MSTORE PUSH1 0x20 SWAP1 KECCAK256 DUP2 ADD PUSH1 0x0 NOT SWAP1 DUP2 ADD DUP1 SLOAD PUSH1 0x1 PUSH1 0x1 PUSH1 0xA0 SHL SUB NOT AND SWAP1 SSTORE ADD SWAP1 SSTORE POP JUMP JUMPDEST DUP3 DUP1 SLOAD DUP3 DUP3 SSTORE SWAP1 PUSH1 0x0 MSTORE PUSH1 0x20 PUSH1 0x0 KECCAK256 SWAP1 DUP2 ADD SWAP3 DUP3 ISZERO PUSH2 0x1C1B JUMPI SWAP2 PUSH1 0x20 MUL DUP3 ADD JUMPDEST DUP3 DUP2 GT ISZERO PUSH2 0x1C1B JUMPI DUP3 MLOAD DUP3 SSTORE SWAP2 PUSH1 0x20 ADD SWAP2 SWAP1 PUSH1 0x1 ADD SWAP1 PUSH2 0x1C00 JUMP JUMPDEST POP PUSH2 0x1C27 SWAP3 SWAP2 POP PUSH2 0x1C2B JUMP JUMPDEST POP SWAP1 JUMP JUMPDEST JUMPDEST DUP1 DUP3 GT ISZERO PUSH2 0x1C27 JUMPI PUSH1 0x0 DUP2 SSTORE PUSH1 0x1 ADD PUSH2 0x1C2C JUMP JUMPDEST PUSH1 0x20 DUP1 DUP3 MSTORE DUP3 MLOAD DUP3 DUP3 ADD DUP2 SWAP1 MSTORE PUSH1 0x0 SWAP2 SWAP1 DUP5 DUP3 ADD SWAP1 PUSH1 0x40 DUP6 ADD SWAP1 DUP5 JUMPDEST DUP2 DUP2 LT ISZERO PUSH2 0x1C81 JUMPI DUP4 MLOAD PUSH1 0x1 PUSH1 0x1 PUSH1 0xA0 SHL SUB AND DUP4 MSTORE SWAP3 DUP5 ADD SWAP3 SWAP2 DUP5 ADD SWAP2 PUSH1 0x1 ADD PUSH2 0x1C5C JUMP JUMPDEST POP SWAP1 SWAP7 SWAP6 POP POP POP POP POP POP JUMP JUMPDEST PUSH1 0x0 PUSH1 0x20 DUP3 DUP5 SUB SLT ISZERO PUSH2 0x1C9F JUMPI PUSH1 0x0 DUP1 REVERT JUMPDEST POP CALLDATALOAD SWAP2 SWAP1 POP JUMP JUMPDEST DUP1 CALLDATALOAD PUSH1 0x1 PUSH1 0x1 PUSH1 0xA0 SHL SUB DUP2 AND DUP2 EQ PUSH2 0x1CBD JUMPI PUSH1 0x0 DUP1 REVERT JUMPDEST SWAP2 SWAP1 POP JUMP JUMPDEST PUSH1 0x0 PUSH1 0x20 DUP3 DUP5 SUB SLT ISZERO PUSH2 0x1CD4 JUMPI PUSH1 0x0 DUP1 REVERT JUMPDEST PUSH2 0x1CDD DUP3 PUSH2 0x1CA6 JUMP JUMPDEST SWAP4 SWAP3 POP POP POP JUMP JUMPDEST PUSH1 0x0 DUP2 MLOAD DUP1 DUP5 MSTORE PUSH1 0x20 DUP1 DUP6 ADD SWAP5 POP DUP1 DUP5 ADD PUSH1 0x0 JUMPDEST DUP4 DUP2 LT ISZERO PUSH2 0x1D14 JUMPI DUP2 MLOAD DUP8 MSTORE SWAP6 DUP3 ADD SWAP6 SWAP1 DUP3 ADD SWAP1 PUSH1 0x1 ADD PUSH2 0x1CF8 JUMP JUMPDEST POP SWAP5 SWAP6 SWAP5 POP POP POP POP POP JUMP JUMPDEST PUSH1 0x20 DUP2 MSTORE PUSH1 0x0 PUSH2 0x1CDD PUSH1 0x20 DUP4 ADD DUP5 PUSH2 0x1CE4 JUMP JUMPDEST PUSH1 0x0 DUP1 PUSH1 0x40 DUP4 DUP6 SUB SLT ISZERO PUSH2 0x1D45 JUMPI PUSH1 0x0 DUP1 REVERT JUMPDEST PUSH2 0x1D4E DUP4 PUSH2 0x1CA6 JUMP JUMPDEST SWAP5 PUSH1 0x20 SWAP4 SWAP1 SWAP4 ADD CALLDATALOAD SWAP4 POP POP POP JUMP JUMPDEST PUSH1 0x0 PUSH1 0x20 DUP1 DUP4 ADD DUP2 DUP5 MSTORE DUP1 DUP6 MLOAD DUP1 DUP4 MSTORE PUSH1 0x40 SWAP3 POP DUP3 DUP7 ADD SWAP2 POP DUP3 DUP2 PUSH1 0x5 SHL DUP8 ADD ADD DUP5 DUP9 ADD PUSH1 0x0 JUMPDEST DUP4 DUP2 LT ISZERO PUSH2 0x1DEC JUMPI DUP9 DUP4 SUB PUSH1 0x3F NOT ADD DUP6 MSTORE DUP2 MLOAD DUP1 MLOAD PUSH1 0x1 PUSH1 0x1 PUSH1 0xA0 SHL SUB AND DUP5 MSTORE DUP8 DUP2 ADD MLOAD DUP9 DUP6 ADD MSTORE DUP7 DUP2 ADD MLOAD DUP8 DUP6 ADD MSTORE PUSH1 0x60 DUP1 DUP3 ADD MLOAD SWAP1 DUP6 ADD MSTORE PUSH1 0x80 SWAP1 DUP2 ADD MLOAD PUSH1 0xA0 SWAP2 DUP6 ADD DUP3 SWAP1 MSTORE SWAP1 PUSH2 0x1DD8 DUP2 DUP7 ADD DUP4 PUSH2 0x1CE4 JUMP JUMPDEST SWAP7 DUP10 ADD SWAP7 SWAP5 POP POP POP SWAP1 DUP7 ADD SWAP1 PUSH1 0x1 ADD PUSH2 0x1D83 JUMP JUMPDEST POP SWAP1 SWAP9 SWAP8 POP POP POP POP POP POP POP POP JUMP JUMPDEST PUSH1 0x0 DUP1 PUSH1 0x0 PUSH1 0x60 DUP5 DUP7 SUB SLT ISZERO PUSH2 0x1E0F JUMPI PUSH1 0x0 DUP1 REVERT JUMPDEST DUP4 CALLDATALOAD SWAP3 POP PUSH2 0x1E1F PUSH1 0x20 DUP6 ADD PUSH2 0x1CA6 JUMP JUMPDEST SWAP2 POP PUSH1 0x40 DUP5 ADD CALLDATALOAD SWAP1 POP SWAP3 POP SWAP3 POP SWAP3 JUMP JUMPDEST PUSH1 0x0 DUP1 PUSH1 0x40 DUP4 DUP6 SUB SLT ISZERO PUSH2 0x1E42 JUMPI PUSH1 0x0 DUP1 REVERT JUMPDEST DUP3 CALLDATALOAD SWAP2 POP PUSH2 0x1E52 PUSH1 0x20 DUP5 ADD PUSH2 0x1CA6 JUMP JUMPDEST SWAP1 POP SWAP3 POP SWAP3 SWAP1 POP JUMP JUMPDEST PUSH4 0x4E487B71 PUSH1 0xE0 SHL PUSH1 0x0 MSTORE PUSH1 0x11 PUSH1 0x4 MSTORE PUSH1 0x24 PUSH1 0x0 REVERT JUMPDEST DUP2 DUP2 SUB DUP2 DUP2 GT ISZERO PUSH2 0x1E84 JUMPI PUSH2 0x1E84 PUSH2 0x1E5B JUMP JUMPDEST SWAP3 SWAP2 POP POP JUMP JUMPDEST PUSH4 0x4E487B71 PUSH1 0xE0 SHL PUSH1 0x0 MSTORE PUSH1 0x32 PUSH1 0x4 MSTORE PUSH1 0x24 PUSH1 0x0 REVERT JUMPDEST PUSH1 0x0 PUSH1 0x1 DUP3 ADD PUSH2 0x1EB2 JUMPI PUSH2 0x1EB2 PUSH2 0x1E5B JUMP JUMPDEST POP PUSH1 0x1 ADD SWAP1 JUMP JUMPDEST PUSH1 0x0 PUSH1 0x20 DUP3 DUP5 SUB SLT ISZERO PUSH2 0x1ECB JUMPI PUSH1 0x0 DUP1 REVERT JUMPDEST POP MLOAD SWAP2 SWAP1 POP JUMP JUMPDEST PUSH1 0x20 DUP1 DUP3 MSTORE PUSH1 0x38 SWAP1 DUP3 ADD MSTORE PUSH32 0x54686520696E6465782073656E7420697320626967676572207468616E207468 PUSH1 0x40 DUP3 ADD MSTORE PUSH32 0x65207265717565737473206172726179206C656E6774682E0000000000000000 PUSH1 0x60 DUP3 ADD MSTORE PUSH1 0x80 ADD SWAP1 JUMP JUMPDEST PUSH1 0x20 DUP1 DUP3 MSTORE PUSH1 0x49 SWAP1 DUP3 ADD MSTORE PUSH32 0x416464726573732073656E7420646F65736E2774206D61746368207769746820 PUSH1 0x40 DUP3 ADD MSTORE PUSH32 0x74686520616464726573732073746F72656420696E2074686520726571756573 PUSH1 0x60 DUP3 ADD MSTORE PUSH9 0x3A399030B93930BC97 PUSH1 0xB9 SHL PUSH1 0x80 DUP3 ADD MSTORE PUSH1 0xA0 ADD SWAP1 JUMP JUMPDEST DUP1 DUP3 ADD DUP1 DUP3 GT ISZERO PUSH2 0x1E84 JUMPI PUSH2 0x1E84 PUSH2 0x1E5B JUMP JUMPDEST DUP1 DUP3 MUL DUP2 ISZERO DUP3 DUP3 DIV DUP5 EQ OR PUSH2 0x1E84 JUMPI PUSH2 0x1E84 PUSH2 0x1E5B JUMP JUMPDEST PUSH1 0x0 DUP3 PUSH2 0x1FE5 JUMPI PUSH4 0x4E487B71 PUSH1 0xE0 SHL PUSH1 0x0 MSTORE PUSH1 0x12 PUSH1 0x4 MSTORE PUSH1 0x24 PUSH1 0x0 REVERT JUMPDEST POP DIV SWAP1 JUMP JUMPDEST PUSH1 0x0 PUSH1 0x20 DUP3 DUP5 SUB SLT ISZERO PUSH2 0x1FFC JUMPI PUSH1 0x0 DUP1 REVERT JUMPDEST DUP2 MLOAD DUP1 ISZERO ISZERO DUP2 EQ PUSH2 0x1CDD JUMPI PUSH1 0x0 DUP1 REVERT JUMPDEST PUSH4 0x4E487B71 PUSH1 0xE0 SHL PUSH1 0x0 MSTORE PUSH1 0x41 PUSH1 0x4 MSTORE PUSH1 0x24 PUSH1 0x0 REVERT JUMPDEST PUSH4 0x4E487B71 PUSH1 0xE0 SHL PUSH1 0x0 MSTORE PUSH1 0x31 PUSH1 0x4 MSTORE PUSH1 0x24 PUSH1 0x0 REVERT INVALID LOG2 PUSH5 0x6970667358 0x22 SLT KECCAK256 BLOCKHASH ADDMOD PUSH14 0x6FFEB786AE1D39472CDCA560E647 0xD2 EXTCODECOPY ISZERO SELFBALANCE DUP9 PUSH26 0x47D2A1FA28C6C5CD9664736F6C63430008130033A26469706673 PC 0x22 SLT KECCAK256 DUP5 0xDE 0xB0 0x2F CREATE 0xC4 DUP4 0xE9 0xEF CREATE2 RETURNDATACOPY 0x5E 0x2C 0x1E 0xD1 0xAD 0xE9 ADDRESS PUSH5 0x807D920B6C PUSH23 0xA275874AFC876664736F6C634300081300330000000000 "},"gasEstimates":{"creation":{"codeDepositCost":"1970600","executionCost":"2084","totalCost":"1972684"},"external":{"createInheritance(uint256,address)":"infinite","getDeployedInheritancesCount()":"2247","inheritances(address)":"2558","isAdmin()":"2422"}},"methodIdentifiers":{"createInheritance(uint256,address)":"65a4c281","getDeployedInheritancesCount()":"21b6e8f5","inheritances(address)":"6122fed5","isAdmin()":"b6db75a0"}},"storageLayout":{"storage":[{"astId":156,"contract":"Inheritance.sol:InheritanceFactory","label":"deployedInheritancesCount","offset":0,"slot":"0","type":"t_uint256"},{"astId":160,"contract":"Inheritance.sol:InheritanceFactory","label":"inheritances","offset":0,"slot":"1","type":"t_mapping(t_address,t_address)"}],"types":{"t_address":{"encoding":"inplace","label":"address","numberOfBytes":"20"},"t_mapping(t_address,t_address)":{"encoding":"mapping","key":"t_address","label":"mapping(address => address)","numberOfBytes":"32","value":"t_address"},"t_uint256":{"encoding":"inplace","label":"uint256","numberOfBytes":"32"}}},"userdoc":{"kind":"user","methods":{},"version":1}}