{"abi":[{"anonymous":false,"inputs":[{"indexed":false,"internalType":"string","name":"message","type":"string"},{"indexed":true,"internalType":"address","name":"administrator","type":"address"},{"indexed":true,"internalType":"address","name":"inheritance","type":"address"},{"indexed":false,"internalType":"uint256","name":"deployedInheritancesCount","type":"uint256"}],"name":"LogInheritanceCreated","type":"event"},{"inputs":[{"internalType":"uint256","name":"aliveTimeOut","type":"uint256"},{"internalType":"address","name":"usdcTokenAddress","type":"address"}],"name":"createInheritance","outputs":[],"stateMutability":"nonpayable","type":"function"},{"inputs":[],"name":"getDeployedInheritancesCount","outputs":[{"internalType":"uint256","name":"","type":"uint256"}],"stateMutability":"view","type":"function"},{"inputs":[{"internalType":"address","name":"","type":"address"}],"name":"inheritances","outputs":[{"internalType":"address","name":"","type":"address"}],"stateMutability":"view","type":"function"}],"devdoc":{"kind":"dev","methods":{},"version":1},"evm":{"assembly":"    /* \"Inheritance.sol\":169:1261  contract InheritanceFactory {... */\n  mstore(0x40, 0x80)\n  callvalue\n  dup1\n  iszero\n  tag_1\n  jumpi\n  0x00\n  dup1\n  revert\ntag_1:\n  pop\n  dataSize(sub_0)\n  dup1\n  dataOffset(sub_0)\n  0x00\n  codecopy\n  0x00\n  return\nstop\n\nsub_0: assembly {\n        /* \"Inheritance.sol\":169:1261  contract InheritanceFactory {... */\n      mstore(0x40, 0x80)\n      callvalue\n      dup1\n      iszero\n      tag_1\n      jumpi\n      0x00\n      dup1\n      revert\n    tag_1:\n      pop\n      jumpi(tag_2, lt(calldatasize, 0x04))\n      shr(0xe0, calldataload(0x00))\n      dup1\n      0x21b6e8f5\n      eq\n      tag_3\n      jumpi\n      dup1\n      0x6122fed5\n      eq\n      tag_4\n      jumpi\n      dup1\n      0x65a4c281\n      eq\n      tag_5\n      jumpi\n    tag_2:\n      0x00\n      dup1\n      revert\n        /* \"Inheritance.sol\":1143:1259  function getDeployedInheritancesCount() public view returns (uint) {... */\n    tag_3:\n        /* \"Inheritance.sol\":1204:1208  uint */\n      0x00\n        /* \"Inheritance.sol\":1227:1252  deployedInheritancesCount */\n      sload\n        /* \"Inheritance.sol\":1143:1259  function getDeployedInheritancesCount() public view returns (uint) {... */\n      mload(0x40)\n        /* \"#utility.yul\":160:185   */\n      swap1\n      dup2\n      mstore\n        /* \"#utility.yul\":148:150   */\n      0x20\n        /* \"#utility.yul\":133:151   */\n      add\n        /* \"Inheritance.sol\":1143:1259  function getDeployedInheritancesCount() public view returns (uint) {... */\n    tag_8:\n      mload(0x40)\n      dup1\n      swap2\n      sub\n      swap1\n      return\n        /* \"Inheritance.sol\":251:299  mapping (address => address) public inheritances */\n    tag_4:\n      tag_10\n      tag_11\n      calldatasize\n      0x04\n      tag_12\n      jump\t// in\n    tag_11:\n      mstore(0x20, 0x01)\n      0x00\n      swap1\n      dup2\n      mstore\n      0x40\n      swap1\n      keccak256\n      sload\n      sub(shl(0xa0, 0x01), 0x01)\n      and\n      dup2\n      jump\n    tag_10:\n      mload(0x40)\n      sub(shl(0xa0, 0x01), 0x01)\n        /* \"#utility.yul\":729:761   */\n      swap1\n      swap2\n      and\n        /* \"#utility.yul\":711:762   */\n      dup2\n      mstore\n        /* \"#utility.yul\":699:701   */\n      0x20\n        /* \"#utility.yul\":684:702   */\n      add\n        /* \"Inheritance.sol\":251:299  mapping (address => address) public inheritances */\n      tag_8\n        /* \"#utility.yul\":565:768   */\n      jump\n        /* \"Inheritance.sol\":514:1137  function createInheritance(uint256 aliveTimeOut, address usdcTokenAddress) public {... */\n    tag_5:\n      tag_16\n      tag_17\n      calldatasize\n      0x04\n      tag_18\n      jump\t// in\n    tag_17:\n      tag_19\n      jump\t// in\n    tag_16:\n      stop\n    tag_19:\n        /* \"Inheritance.sol\":627:637  msg.sender */\n      caller\n        /* \"Inheritance.sol\":650:651  0 */\n      0x00\n        /* \"Inheritance.sol\":614:638  inheritances[msg.sender] */\n      swap1\n      dup2\n      mstore\n        /* \"Inheritance.sol\":614:626  inheritances */\n      0x01\n        /* \"Inheritance.sol\":614:638  inheritances[msg.sender] */\n      0x20\n      mstore\n      0x40\n      swap1\n      keccak256\n      sload\n      sub(shl(0xa0, 0x01), 0x01)\n      and\n        /* \"Inheritance.sol\":614:652  inheritances[msg.sender] == address(0) */\n      iszero\n        /* \"Inheritance.sol\":606:718  require(inheritances[msg.sender] == address(0), \"You have already one inheritance created, you can't have two.\") */\n      tag_22\n      jumpi\n      mload(0x40)\n      shl(0xe5, 0x461bcd)\n      dup2\n      mstore\n        /* \"#utility.yul\":1234:1236   */\n      0x20\n        /* \"Inheritance.sol\":606:718  require(inheritances[msg.sender] == address(0), \"You have already one inheritance created, you can't have two.\") */\n      0x04\n      dup3\n      add\n        /* \"#utility.yul\":1216:1237   */\n      mstore\n        /* \"#utility.yul\":1273:1275   */\n      0x3d\n        /* \"#utility.yul\":1253:1271   */\n      0x24\n      dup3\n      add\n        /* \"#utility.yul\":1246:1276   */\n      mstore\n        /* \"#utility.yul\":1312:1346   */\n      0x596f75206861766520616c7265616479206f6e6520696e6865726974616e6365\n        /* \"#utility.yul\":1292:1310   */\n      0x44\n      dup3\n      add\n        /* \"#utility.yul\":1285:1347   */\n      mstore\n        /* \"#utility.yul\":1383:1414   */\n      0x20637265617465642c20796f752063616e277420686176652074776f2e000000\n        /* \"#utility.yul\":1363:1381   */\n      0x64\n      dup3\n      add\n        /* \"#utility.yul\":1356:1415   */\n      mstore\n        /* \"#utility.yul\":1432:1451   */\n      0x84\n      add\n        /* \"Inheritance.sol\":606:718  require(inheritances[msg.sender] == address(0), \"You have already one inheritance created, you can't have two.\") */\n      mload(0x40)\n      dup1\n      swap2\n      sub\n      swap1\n      revert\n    tag_22:\n        /* \"Inheritance.sol\":826:836  msg.sender */\n      caller\n        /* \"Inheritance.sol\":838:850  aliveTimeOut */\n      dup3\n        /* \"Inheritance.sol\":852:868  usdcTokenAddress */\n      dup3\n        /* \"Inheritance.sol\":810:869  new Inheritance(msg.sender, aliveTimeOut, usdcTokenAddress) */\n      mload(0x40)\n      tag_25\n      swap1\n      tag_26\n      jump\t// in\n    tag_25:\n      sub(shl(0xa0, 0x01), 0x01)\n        /* \"#utility.yul\":1720:1735   */\n      swap4\n      dup5\n      and\n        /* \"#utility.yul\":1702:1736   */\n      dup2\n      mstore\n        /* \"#utility.yul\":1767:1769   */\n      0x20\n        /* \"#utility.yul\":1752:1770   */\n      dup2\n      add\n        /* \"#utility.yul\":1745:1779   */\n      swap3\n      swap1\n      swap3\n      mstore\n        /* \"#utility.yul\":1815:1830   */\n      swap1\n      swap2\n      and\n        /* \"#utility.yul\":1810:1812   */\n      0x40\n        /* \"#utility.yul\":1795:1813   */\n      dup3\n      add\n        /* \"#utility.yul\":1788:1831   */\n      mstore\n        /* \"#utility.yul\":1652:1654   */\n      0x60\n        /* \"#utility.yul\":1637:1655   */\n      add\n        /* \"Inheritance.sol\":810:869  new Inheritance(msg.sender, aliveTimeOut, usdcTokenAddress) */\n      mload(0x40)\n      dup1\n      swap2\n      sub\n      swap1\n      0x00\n      create\n      dup1\n      iszero\n      dup1\n      iszero\n      tag_29\n      jumpi\n      returndatasize\n      0x00\n      dup1\n      returndatacopy\n      revert(0x00, returndatasize)\n    tag_29:\n      pop\n        /* \"Inheritance.sol\":788:798  msg.sender */\n      caller\n        /* \"Inheritance.sol\":775:799  inheritances[msg.sender] */\n      0x00\n      swap1\n      dup2\n      mstore\n        /* \"Inheritance.sol\":775:787  inheritances */\n      0x01\n        /* \"Inheritance.sol\":775:799  inheritances[msg.sender] */\n      0x20\n      mstore\n      0x40\n      dup2\n      keccak256\n        /* \"Inheritance.sol\":775:870  inheritances[msg.sender] = address(new Inheritance(msg.sender, aliveTimeOut, usdcTokenAddress)) */\n      dup1\n      sload\n      not(sub(shl(0xa0, 0x01), 0x01))\n      and\n      sub(shl(0xa0, 0x01), 0x01)\n      swap4\n      swap1\n      swap4\n      and\n      swap3\n      swap1\n      swap3\n      or\n      swap1\n      swap2\n      sstore\n        /* \"Inheritance.sol\":880:907  deployedInheritancesCount++ */\n      dup1\n      sload\n      swap1\n        /* \"Inheritance.sol\":775:799  inheritances[msg.sender] */\n      dup1\n        /* \"Inheritance.sol\":880:907  deployedInheritancesCount++ */\n      tag_30\n      dup4\n      tag_31\n      jump\t// in\n    tag_30:\n      swap1\n      swap2\n      sstore\n      pop\n      pop\n        /* \"Inheritance.sol\":1091:1101  msg.sender */\n      caller\n        /* \"Inheritance.sol\":1078:1102  inheritances[msg.sender] */\n      0x00\n      dup2\n      dup2\n      mstore\n        /* \"Inheritance.sol\":1078:1090  inheritances */\n      0x01\n        /* \"Inheritance.sol\":1078:1102  inheritances[msg.sender] */\n      0x20\n      mstore\n      0x40\n      dup1\n      dup3\n      keccak256\n      sload\n        /* \"Inheritance.sol\":1104:1129  deployedInheritancesCount */\n      swap2\n      sload\n        /* \"Inheritance.sol\":923:1130  LogInheritanceCreated(\"Log all the values: Administrator address, Inheritance contract address, Number of inheritances deployed.\",... */\n      swap1\n      mload\n      sub(shl(0xa0, 0x01), 0x01)\n        /* \"Inheritance.sol\":1078:1102  inheritances[msg.sender] */\n      swap3\n      swap1\n      swap3\n      and\n      swap3\n        /* \"Inheritance.sol\":1091:1101  msg.sender */\n      swap2\n        /* \"Inheritance.sol\":923:1130  LogInheritanceCreated(\"Log all the values: Administrator address, Inheritance contract address, Number of inheritances deployed.\",... */\n      0x246b027e5b424dae3d402e972e3f8e400056fe836431cbe048d9553826bb2e11\n      swap2\n      tag_32\n      swap2\n        /* \"#utility.yul\":2309:2311   */\n      0x40\n        /* \"#utility.yul\":2291:2312   */\n      dup1\n      dup3\n      mstore\n        /* \"#utility.yul\":2348:2351   */\n      0x69\n        /* \"#utility.yul\":2328:2346   */\n      swap1\n      dup3\n      add\n        /* \"#utility.yul\":2321:2352   */\n      mstore\n        /* \"#utility.yul\":2388:2422   */\n      0x4c6f6720616c6c207468652076616c7565733a2041646d696e6973747261746f\n        /* \"#utility.yul\":2383:2385   */\n      0x60\n        /* \"#utility.yul\":2368:2386   */\n      dup3\n      add\n        /* \"#utility.yul\":2361:2423   */\n      mstore\n        /* \"#utility.yul\":2460:2494   */\n      0x7220616464726573732c20496e6865726974616e636520636f6e747261637420\n        /* \"#utility.yul\":2454:2457   */\n      0x80\n        /* \"#utility.yul\":2439:2458   */\n      dup3\n      add\n        /* \"#utility.yul\":2432:2495   */\n      mstore\n        /* \"#utility.yul\":2532:2566   */\n      0x616464726573732c204e756d626572206f6620696e6865726974616e63657320\n        /* \"#utility.yul\":2526:2529   */\n      0xa0\n        /* \"#utility.yul\":2511:2530   */\n      dup3\n      add\n        /* \"#utility.yul\":2504:2567   */\n      mstore\n      shl(0xb9, 0x3232b83637bcb2b217)\n        /* \"#utility.yul\":2598:2601   */\n      0xc0\n        /* \"#utility.yul\":2583:2602   */\n      dup3\n      add\n        /* \"#utility.yul\":2576:2616   */\n      mstore\n        /* \"#utility.yul\":2683:2687   */\n      0x20\n        /* \"#utility.yul\":2668:2688   */\n      dup2\n      add\n        /* \"#utility.yul\":2661:2697   */\n      swap2\n      swap1\n      swap2\n      mstore\n        /* \"#utility.yul\":2648:2651   */\n      0xe0\n        /* \"#utility.yul\":2633:2652   */\n      add\n      swap1\n        /* \"#utility.yul\":2079:2703   */\n      jump\n        /* \"Inheritance.sol\":923:1130  LogInheritanceCreated(\"Log all the values: Administrator address, Inheritance contract address, Number of inheritances deployed.\",... */\n    tag_32:\n      mload(0x40)\n      dup1\n      swap2\n      sub\n      swap1\n      log3\n        /* \"Inheritance.sol\":514:1137  function createInheritance(uint256 aliveTimeOut, address usdcTokenAddress) public {... */\n      pop\n      pop\n      jump\t// out\n    tag_26:\n      dataSize(sub_0)\n      dup1\n      dataOffset(sub_0)\n      dup4\n      codecopy\n      add\n      swap1\n      jump\t// out\n        /* \"#utility.yul\":196:369   */\n    tag_34:\n        /* \"#utility.yul\":264:284   */\n      dup1\n      calldataload\n      sub(shl(0xa0, 0x01), 0x01)\n        /* \"#utility.yul\":313:344   */\n      dup2\n      and\n        /* \"#utility.yul\":303:345   */\n      dup2\n      eq\n        /* \"#utility.yul\":293:363   */\n      tag_38\n      jumpi\n        /* \"#utility.yul\":359:360   */\n      0x00\n        /* \"#utility.yul\":356:357   */\n      dup1\n        /* \"#utility.yul\":349:361   */\n      revert\n        /* \"#utility.yul\":293:363   */\n    tag_38:\n        /* \"#utility.yul\":196:369   */\n      swap2\n      swap1\n      pop\n      jump\t// out\n        /* \"#utility.yul\":374:560   */\n    tag_12:\n        /* \"#utility.yul\":433:439   */\n      0x00\n        /* \"#utility.yul\":486:488   */\n      0x20\n        /* \"#utility.yul\":474:483   */\n      dup3\n        /* \"#utility.yul\":465:472   */\n      dup5\n        /* \"#utility.yul\":461:484   */\n      sub\n        /* \"#utility.yul\":457:489   */\n      slt\n        /* \"#utility.yul\":454:506   */\n      iszero\n      tag_40\n      jumpi\n        /* \"#utility.yul\":502:503   */\n      0x00\n        /* \"#utility.yul\":499:500   */\n      dup1\n        /* \"#utility.yul\":492:504   */\n      revert\n        /* \"#utility.yul\":454:506   */\n    tag_40:\n        /* \"#utility.yul\":525:554   */\n      tag_41\n        /* \"#utility.yul\":544:553   */\n      dup3\n        /* \"#utility.yul\":525:554   */\n      tag_34\n      jump\t// in\n    tag_41:\n        /* \"#utility.yul\":515:554   */\n      swap4\n        /* \"#utility.yul\":374:560   */\n      swap3\n      pop\n      pop\n      pop\n      jump\t// out\n        /* \"#utility.yul\":773:1027   */\n    tag_18:\n        /* \"#utility.yul\":841:847   */\n      0x00\n        /* \"#utility.yul\":849:855   */\n      dup1\n        /* \"#utility.yul\":902:904   */\n      0x40\n        /* \"#utility.yul\":890:899   */\n      dup4\n        /* \"#utility.yul\":881:888   */\n      dup6\n        /* \"#utility.yul\":877:900   */\n      sub\n        /* \"#utility.yul\":873:905   */\n      slt\n        /* \"#utility.yul\":870:922   */\n      iszero\n      tag_44\n      jumpi\n        /* \"#utility.yul\":918:919   */\n      0x00\n        /* \"#utility.yul\":915:916   */\n      dup1\n        /* \"#utility.yul\":908:920   */\n      revert\n        /* \"#utility.yul\":870:922   */\n    tag_44:\n        /* \"#utility.yul\":954:963   */\n      dup3\n        /* \"#utility.yul\":941:964   */\n      calldataload\n        /* \"#utility.yul\":931:964   */\n      swap2\n      pop\n        /* \"#utility.yul\":983:1021   */\n      tag_45\n        /* \"#utility.yul\":1017:1019   */\n      0x20\n        /* \"#utility.yul\":1006:1015   */\n      dup5\n        /* \"#utility.yul\":1002:1020   */\n      add\n        /* \"#utility.yul\":983:1021   */\n      tag_34\n      jump\t// in\n    tag_45:\n        /* \"#utility.yul\":973:1021   */\n      swap1\n      pop\n        /* \"#utility.yul\":773:1027   */\n      swap3\n      pop\n      swap3\n      swap1\n      pop\n      jump\t// out\n        /* \"#utility.yul\":1842:2074   */\n    tag_31:\n        /* \"#utility.yul\":1881:1884   */\n      0x00\n        /* \"#utility.yul\":1902:1919   */\n      0x01\n      dup3\n      add\n        /* \"#utility.yul\":1899:2039   */\n      tag_49\n      jumpi\n        /* \"#utility.yul\":1961:1971   */\n      0x4e487b71\n        /* \"#utility.yul\":1956:1959   */\n      0xe0\n        /* \"#utility.yul\":1952:1972   */\n      shl\n        /* \"#utility.yul\":1949:1950   */\n      0x00\n        /* \"#utility.yul\":1942:1973   */\n      mstore\n        /* \"#utility.yul\":1996:2000   */\n      0x11\n        /* \"#utility.yul\":1993:1994   */\n      0x04\n        /* \"#utility.yul\":1986:2001   */\n      mstore\n        /* \"#utility.yul\":2024:2028   */\n      0x24\n        /* \"#utility.yul\":2021:2022   */\n      0x00\n        /* \"#utility.yul\":2014:2029   */\n      revert\n        /* \"#utility.yul\":1899:2039   */\n    tag_49:\n      pop\n        /* \"#utility.yul\":2066:2067   */\n      0x01\n        /* \"#utility.yul\":2055:2068   */\n      add\n      swap1\n        /* \"#utility.yul\":1842:2074   */\n      jump\t// out\n    stop\n\n    sub_0: assembly {\n            /* \"Inheritance.sol\":1263:11243  contract Inheritance is Ownable {... */\n          mstore(0x40, 0x80)\n            /* \"Inheritance.sol\":3070:3517  constructor (address _administratorAddress, uint256 _aliveTimeOut, address _tokenAddress) {... */\n          callvalue\n          dup1\n          iszero\n          tag_1\n          jumpi\n          0x00\n          dup1\n          revert\n        tag_1:\n          pop\n          mload(0x40)\n          sub(codesize, bytecodeSize)\n          dup1\n          bytecodeSize\n          dup4\n          codecopy\n          dup2\n          add\n          0x40\n          dup2\n          swap1\n          mstore\n          tag_2\n          swap2\n          tag_3\n          jump\t// in\n        tag_2:\n            /* \"@openzeppelin/contracts/access/Ownable.sol\":936:968   */\n          tag_7\n            /* \"@openzeppelin/contracts/utils/Context.sol\":719:729   */\n          caller\n            /* \"@openzeppelin/contracts/access/Ownable.sol\":936:954   */\n          tag_10\n            /* \"@openzeppelin/contracts/access/Ownable.sol\":936:968   */\n          jump\t// in\n        tag_7:\n            /* \"Inheritance.sol\":3170:3175  token */\n          0x08\n            /* \"Inheritance.sol\":3170:3199  token = IERC20(_tokenAddress) */\n          dup1\n          sload\n          not(sub(shl(0xa0, 0x01), 0x01))\n          and\n          sub(shl(0xa0, 0x01), 0x01)\n          dup4\n          and\n          or\n          swap1\n          sstore\n            /* \"Inheritance.sol\":3210:3250  transferOwnership(_administratorAddress) */\n          tag_12\n            /* \"Inheritance.sol\":3228:3249  _administratorAddress */\n          dup4\n            /* \"Inheritance.sol\":3210:3227  transferOwnership */\n          tag_13\n            /* \"Inheritance.sol\":3210:3250  transferOwnership(_administratorAddress) */\n          jump\t// in\n        tag_12:\n          pop\n            /* \"Inheritance.sol\":3333:3345  aliveTimeOut */\n          0x03\n            /* \"Inheritance.sol\":3333:3361  aliveTimeOut = _aliveTimeOut */\n          sstore\n            /* \"Inheritance.sol\":3388:3510  Administrator({... */\n          0x40\n          dup1\n          mload\n          dup1\n          dup3\n          add\n          swap1\n          swap2\n          mstore\n          sub(shl(0xa0, 0x01), 0x01)\n          swap1\n          swap2\n          and\n          dup1\n          dup3\n          mstore\n            /* \"Inheritance.sol\":3484:3499  block.timestamp */\n          timestamp\n            /* \"Inheritance.sol\":3388:3510  Administrator({... */\n          0x20\n          swap1\n          swap3\n          add\n          dup3\n          swap1\n          mstore\n            /* \"Inheritance.sol\":3372:3385  administrator */\n          0x01\n            /* \"Inheritance.sol\":3372:3510  administrator = Administrator({... */\n          dup1\n          sload\n          not(sub(shl(0xa0, 0x01), 0x01))\n          and\n          swap1\n          swap2\n          or\n          swap1\n          sstore\n          0x02\n          sstore\n            /* \"Inheritance.sol\":1263:11243  contract Inheritance is Ownable {... */\n          jump(tag_34)\n            /* \"@openzeppelin/contracts/access/Ownable.sol\":2433:2620   */\n        tag_10:\n            /* \"@openzeppelin/contracts/access/Ownable.sol\":2506:2522   */\n          0x00\n            /* \"@openzeppelin/contracts/access/Ownable.sol\":2525:2531   */\n          dup1\n          sload\n          sub(shl(0xa0, 0x01), 0x01)\n            /* \"@openzeppelin/contracts/access/Ownable.sol\":2541:2558   */\n          dup4\n          dup2\n          and\n          not(sub(shl(0xa0, 0x01), 0x01))\n          dup4\n          and\n          dup2\n          or\n          dup5\n          sstore\n            /* \"@openzeppelin/contracts/access/Ownable.sol\":2573:2613   */\n          mload(0x40)\n            /* \"@openzeppelin/contracts/access/Ownable.sol\":2525:2531   */\n          swap2\n          swap1\n          swap3\n          and\n          swap3\n          dup4\n          swap2\n            /* \"@openzeppelin/contracts/access/Ownable.sol\":2573:2613   */\n          0x8be0079c531659141344cd1fd0a4f28419497f9722a3daafe3b4186f6b6457e0\n          swap2\n            /* \"@openzeppelin/contracts/access/Ownable.sol\":2506:2522   */\n          swap1\n            /* \"@openzeppelin/contracts/access/Ownable.sol\":2573:2613   */\n          log3\n            /* \"@openzeppelin/contracts/access/Ownable.sol\":2496:2620   */\n          pop\n            /* \"@openzeppelin/contracts/access/Ownable.sol\":2433:2620   */\n          pop\n          jump\t// out\n            /* \"@openzeppelin/contracts/access/Ownable.sol\":2081:2279   */\n        tag_13:\n            /* \"@openzeppelin/contracts/access/Ownable.sol\":1094:1107   */\n          tag_18\n            /* \"@openzeppelin/contracts/access/Ownable.sol\":1094:1105   */\n          tag_19\n            /* \"@openzeppelin/contracts/access/Ownable.sol\":1094:1107   */\n          jump\t// in\n        tag_18:\n          sub(shl(0xa0, 0x01), 0x01)\n            /* \"@openzeppelin/contracts/access/Ownable.sol\":2169:2191   */\n          dup2\n          and\n            /* \"@openzeppelin/contracts/access/Ownable.sol\":2161:2234   */\n          tag_21\n          jumpi\n          mload(0x40)\n          shl(0xe5, 0x461bcd)\n          dup2\n          mstore\n            /* \"#utility.yul\":757:759   */\n          0x20\n            /* \"@openzeppelin/contracts/access/Ownable.sol\":2161:2234   */\n          0x04\n          dup3\n          add\n            /* \"#utility.yul\":739:760   */\n          mstore\n            /* \"#utility.yul\":796:798   */\n          0x26\n            /* \"#utility.yul\":776:794   */\n          0x24\n          dup3\n          add\n            /* \"#utility.yul\":769:799   */\n          mstore\n            /* \"#utility.yul\":835:869   */\n          0x4f776e61626c653a206e6577206f776e657220697320746865207a65726f2061\n            /* \"#utility.yul\":815:833   */\n          0x44\n          dup3\n          add\n            /* \"#utility.yul\":808:870   */\n          mstore\n          shl(0xd0, 0x646472657373)\n            /* \"#utility.yul\":886:904   */\n          0x64\n          dup3\n          add\n            /* \"#utility.yul\":879:915   */\n          mstore\n            /* \"#utility.yul\":932:951   */\n          0x84\n          add\n            /* \"@openzeppelin/contracts/access/Ownable.sol\":2161:2234   */\n        tag_22:\n          mload(0x40)\n          dup1\n          swap2\n          sub\n          swap1\n          revert\n        tag_21:\n            /* \"@openzeppelin/contracts/access/Ownable.sol\":2244:2272   */\n          tag_24\n            /* \"@openzeppelin/contracts/access/Ownable.sol\":2263:2271   */\n          dup2\n            /* \"@openzeppelin/contracts/access/Ownable.sol\":2244:2262   */\n          tag_10\n            /* \"@openzeppelin/contracts/access/Ownable.sol\":2244:2272   */\n          jump\t// in\n        tag_24:\n            /* \"@openzeppelin/contracts/access/Ownable.sol\":2081:2279   */\n          pop\n          jump\t// out\n            /* \"@openzeppelin/contracts/access/Ownable.sol\":1359:1489   */\n        tag_19:\n            /* \"@openzeppelin/contracts/access/Ownable.sol\":1247:1254   */\n          0x00\n            /* \"@openzeppelin/contracts/access/Ownable.sol\":1273:1279   */\n          sload\n          sub(shl(0xa0, 0x01), 0x01)\n          and\n            /* \"@openzeppelin/contracts/utils/Context.sol\":719:729   */\n          caller\n            /* \"@openzeppelin/contracts/access/Ownable.sol\":1422:1445   */\n          eq\n            /* \"@openzeppelin/contracts/access/Ownable.sol\":1414:1482   */\n          tag_29\n          jumpi\n          mload(0x40)\n          shl(0xe5, 0x461bcd)\n          dup2\n          mstore\n            /* \"#utility.yul\":1164:1166   */\n          0x20\n            /* \"@openzeppelin/contracts/access/Ownable.sol\":1414:1482   */\n          0x04\n          dup3\n          add\n            /* \"#utility.yul\":1146:1167   */\n          dup2\n          swap1\n          mstore\n            /* \"#utility.yul\":1183:1201   */\n          0x24\n          dup3\n          add\n            /* \"#utility.yul\":1176:1206   */\n          mstore\n            /* \"#utility.yul\":1242:1276   */\n          0x4f776e61626c653a2063616c6c6572206973206e6f7420746865206f776e6572\n            /* \"#utility.yul\":1222:1240   */\n          0x44\n          dup3\n          add\n            /* \"#utility.yul\":1215:1277   */\n          mstore\n            /* \"#utility.yul\":1294:1312   */\n          0x64\n          add\n            /* \"@openzeppelin/contracts/access/Ownable.sol\":1414:1482   */\n          tag_22\n            /* \"#utility.yul\":962:1318   */\n          jump\n            /* \"@openzeppelin/contracts/access/Ownable.sol\":1414:1482   */\n        tag_29:\n            /* \"@openzeppelin/contracts/access/Ownable.sol\":1359:1489   */\n          jump\t// out\n            /* \"#utility.yul\":14:191   */\n        tag_33:\n            /* \"#utility.yul\":93:106   */\n          dup1\n          mload\n          sub(shl(0xa0, 0x01), 0x01)\n            /* \"#utility.yul\":135:166   */\n          dup2\n          and\n            /* \"#utility.yul\":125:167   */\n          dup2\n          eq\n            /* \"#utility.yul\":115:185   */\n          tag_36\n          jumpi\n            /* \"#utility.yul\":181:182   */\n          0x00\n            /* \"#utility.yul\":178:179   */\n          dup1\n            /* \"#utility.yul\":171:183   */\n          revert\n            /* \"#utility.yul\":115:185   */\n        tag_36:\n            /* \"#utility.yul\":14:191   */\n          swap2\n          swap1\n          pop\n          jump\t// out\n            /* \"#utility.yul\":196:550   */\n        tag_3:\n            /* \"#utility.yul\":284:290   */\n          0x00\n            /* \"#utility.yul\":292:298   */\n          dup1\n            /* \"#utility.yul\":300:306   */\n          0x00\n            /* \"#utility.yul\":353:355   */\n          0x60\n            /* \"#utility.yul\":341:350   */\n          dup5\n            /* \"#utility.yul\":332:339   */\n          dup7\n            /* \"#utility.yul\":328:351   */\n          sub\n            /* \"#utility.yul\":324:356   */\n          slt\n            /* \"#utility.yul\":321:373   */\n          iszero\n          tag_38\n          jumpi\n            /* \"#utility.yul\":369:370   */\n          0x00\n            /* \"#utility.yul\":366:367   */\n          dup1\n            /* \"#utility.yul\":359:371   */\n          revert\n            /* \"#utility.yul\":321:373   */\n        tag_38:\n            /* \"#utility.yul\":392:432   */\n          tag_39\n            /* \"#utility.yul\":422:431   */\n          dup5\n            /* \"#utility.yul\":392:432   */\n          tag_33\n          jump\t// in\n        tag_39:\n            /* \"#utility.yul\":382:432   */\n          swap3\n          pop\n            /* \"#utility.yul\":472:474   */\n          0x20\n            /* \"#utility.yul\":461:470   */\n          dup5\n            /* \"#utility.yul\":457:475   */\n          add\n            /* \"#utility.yul\":451:476   */\n          mload\n            /* \"#utility.yul\":441:476   */\n          swap2\n          pop\n            /* \"#utility.yul\":495:544   */\n          tag_40\n            /* \"#utility.yul\":540:542   */\n          0x40\n            /* \"#utility.yul\":529:538   */\n          dup6\n            /* \"#utility.yul\":525:543   */\n          add\n            /* \"#utility.yul\":495:544   */\n          tag_33\n          jump\t// in\n        tag_40:\n            /* \"#utility.yul\":485:544   */\n          swap1\n          pop\n            /* \"#utility.yul\":196:550   */\n          swap3\n          pop\n          swap3\n          pop\n          swap3\n          jump\t// out\n            /* \"#utility.yul\":962:1318   */\n        tag_34:\n            /* \"Inheritance.sol\":1263:11243  contract Inheritance is Ownable {... */\n          dataSize(sub_0)\n          dup1\n          dataOffset(sub_0)\n          0x00\n          codecopy\n          0x00\n          return\n        stop\n\n        sub_0: assembly {\n                /* \"Inheritance.sol\":1263:11243  contract Inheritance is Ownable {... */\n              mstore(0x40, 0x80)\n              jumpi(tag_1, lt(calldatasize, 0x04))\n              shr(0xe0, calldataload(0x00))\n              dup1\n              0x9f3c4416\n              gt\n              tag_25\n              jumpi\n              dup1\n              0xde35f376\n              gt\n              tag_26\n              jumpi\n              dup1\n              0xde35f376\n              eq\n              tag_19\n              jumpi\n              dup1\n              0xe92df2b0\n              eq\n              tag_20\n              jumpi\n              dup1\n              0xea46193e\n              eq\n              tag_21\n              jumpi\n              dup1\n              0xf2fde38b\n              eq\n              tag_22\n              jumpi\n              dup1\n              0xf53d0a8e\n              eq\n              tag_23\n              jumpi\n              dup1\n              0xffc15b7c\n              eq\n              tag_24\n              jumpi\n              0x00\n              dup1\n              revert\n            tag_26:\n              dup1\n              0x9f3c4416\n              eq\n              tag_13\n              jumpi\n              dup1\n              0xa37fc5cf\n              eq\n              tag_14\n              jumpi\n              dup1\n              0xc1b640db\n              eq\n              tag_15\n              jumpi\n              dup1\n              0xd0e30db0\n              eq\n              tag_16\n              jumpi\n              dup1\n              0xd5002f2e\n              eq\n              tag_17\n              jumpi\n              dup1\n              0xdb81f99b\n              eq\n              tag_18\n              jumpi\n              0x00\n              dup1\n              revert\n            tag_25:\n              dup1\n              0x3cfd1ccc\n              gt\n              tag_27\n              jumpi\n              dup1\n              0x3cfd1ccc\n              eq\n              tag_7\n              jumpi\n              dup1\n              0x44690153\n              eq\n              tag_8\n              jumpi\n              dup1\n              0x4eae51f4\n              eq\n              tag_9\n              jumpi\n              dup1\n              0x715018a6\n              eq\n              tag_10\n              jumpi\n              dup1\n              0x7c1d3a01\n              eq\n              tag_11\n              jumpi\n              dup1\n              0x8da5cb5b\n              eq\n              tag_12\n              jumpi\n              0x00\n              dup1\n              revert\n            tag_27:\n              dup1\n              0x051ea68f\n              eq\n              tag_2\n              jumpi\n              dup1\n              0x064ac578\n              eq\n              tag_3\n              jumpi\n              dup1\n              0x0b6946da\n              eq\n              tag_4\n              jumpi\n              dup1\n              0x2e1a7d4d\n              eq\n              tag_5\n              jumpi\n              dup1\n              0x35d6f873\n              eq\n              tag_6\n              jumpi\n            tag_1:\n              0x00\n              dup1\n              revert\n                /* \"Inheritance.sol\":5795:6023  function isAdministratorDead() public view returns (bool) { // Shows if the aliveTimeOut has been reached, and the Heirs can redeem the Inheritance.... */\n            tag_2:\n              callvalue\n              dup1\n              iszero\n              tag_28\n              jumpi\n              0x00\n              dup1\n              revert\n            tag_28:\n              pop\n              tag_29\n              tag_30\n              jump\t// in\n            tag_29:\n              mload(0x40)\n                /* \"#utility.yul\":179:193   */\n              swap1\n              iszero\n                /* \"#utility.yul\":172:194   */\n              iszero\n                /* \"#utility.yul\":154:195   */\n              dup2\n              mstore\n                /* \"#utility.yul\":142:144   */\n              0x20\n                /* \"#utility.yul\":127:145   */\n              add\n                /* \"Inheritance.sol\":5795:6023  function isAdministratorDead() public view returns (bool) { // Shows if the aliveTimeOut has been reached, and the Heirs can redeem the Inheritance.... */\n            tag_31:\n              mload(0x40)\n              dup1\n              swap2\n              sub\n              swap1\n              return\n                /* \"Inheritance.sol\":7984:8110  function getInheritanceRequests() public view onlyOwner returns (address[] memory) {... */\n            tag_3:\n              callvalue\n              dup1\n              iszero\n              tag_33\n              jumpi\n              0x00\n              dup1\n              revert\n            tag_33:\n              pop\n              tag_34\n              tag_35\n              jump\t// in\n            tag_34:\n              mload(0x40)\n              tag_31\n              swap2\n              swap1\n              tag_37\n              jump\t// in\n                /* \"Inheritance.sol\":4787:5047  function requestInheritance() public requestInheritanceValidations(msg.sender) {... */\n            tag_4:\n              callvalue\n              dup1\n              iszero\n              tag_38\n              jumpi\n              0x00\n              dup1\n              revert\n            tag_38:\n              pop\n              tag_39\n              tag_40\n              jump\t// in\n            tag_39:\n              stop\n                /* \"Inheritance.sol\":4135:4373  function withdraw(uint256 amount) public onlyOwner {... */\n            tag_5:\n              callvalue\n              dup1\n              iszero\n              tag_41\n              jumpi\n              0x00\n              dup1\n              revert\n            tag_41:\n              pop\n              tag_39\n              tag_43\n              calldatasize\n              0x04\n              tag_44\n              jump\t// in\n            tag_43:\n              tag_45\n              jump\t// in\n                /* \"Inheritance.sol\":8786:9065  function getNFTDeedsByHeirAddress(address heirAddress) public view returns (uint256[] memory nftDeedIds) {... */\n            tag_6:\n              callvalue\n              dup1\n              iszero\n              tag_46\n              jumpi\n              0x00\n              dup1\n              revert\n            tag_46:\n              pop\n              tag_47\n              tag_48\n              calldatasize\n              0x04\n              tag_49\n              jump\t// in\n            tag_48:\n              tag_50\n              jump\t// in\n            tag_47:\n              mload(0x40)\n              tag_31\n              swap2\n              swap1\n              tag_52\n              jump\t// in\n                /* \"Inheritance.sol\":7868:7978  function getUSDCBalance() public view returns (uint256) {... */\n            tag_7:\n              callvalue\n              dup1\n              iszero\n              tag_53\n              jumpi\n              0x00\n              dup1\n              revert\n            tag_53:\n              pop\n              tag_54\n              tag_55\n              jump\t// in\n            tag_54:\n              mload(0x40)\n                /* \"#utility.yul\":2275:2300   */\n              swap1\n              dup2\n              mstore\n                /* \"#utility.yul\":2263:2265   */\n              0x20\n                /* \"#utility.yul\":2248:2266   */\n              add\n                /* \"Inheritance.sol\":7868:7978  function getUSDCBalance() public view returns (uint256) {... */\n              tag_31\n                /* \"#utility.yul\":2129:2306   */\n              jump\n                /* \"Inheritance.sol\":7276:7625  function addNFTDeed(address heirAddress, uint256 tokenId) public onlyOwner {... */\n            tag_8:\n              callvalue\n              dup1\n              iszero\n              tag_58\n              jumpi\n              0x00\n              dup1\n              revert\n            tag_58:\n              pop\n              tag_39\n              tag_60\n              calldatasize\n              0x04\n              tag_61\n              jump\t// in\n            tag_60:\n              tag_62\n              jump\t// in\n                /* \"Inheritance.sol\":8116:8201  function getHeirs() public view returns (Heir[] memory) {... */\n            tag_9:\n              callvalue\n              dup1\n              iszero\n              tag_63\n              jumpi\n              0x00\n              dup1\n              revert\n            tag_63:\n              pop\n              tag_64\n              tag_65\n              jump\t// in\n            tag_64:\n              mload(0x40)\n              tag_31\n              swap2\n              swap1\n              tag_67\n              jump\t// in\n                /* \"@openzeppelin/contracts/access/Ownable.sol\":1831:1932   */\n            tag_10:\n              callvalue\n              dup1\n              iszero\n              tag_68\n              jumpi\n              0x00\n              dup1\n              revert\n            tag_68:\n              pop\n              tag_39\n              tag_70\n              jump\t// in\n                /* \"Inheritance.sol\":5053:5472  function acceptInheritanceRequest(uint index, address requester, uint256 share) public onlyOwner acceptInheritanceValidations(index, requester, share) {... */\n            tag_11:\n              callvalue\n              dup1\n              iszero\n              tag_71\n              jumpi\n              0x00\n              dup1\n              revert\n            tag_71:\n              pop\n              tag_39\n              tag_73\n              calldatasize\n              0x04\n              tag_74\n              jump\t// in\n            tag_73:\n              tag_75\n              jump\t// in\n                /* \"@openzeppelin/contracts/access/Ownable.sol\":1201:1286   */\n            tag_12:\n              callvalue\n              dup1\n              iszero\n              tag_76\n              jumpi\n              0x00\n              dup1\n              revert\n            tag_76:\n              pop\n                /* \"@openzeppelin/contracts/access/Ownable.sol\":1247:1254   */\n              0x00\n                /* \"@openzeppelin/contracts/access/Ownable.sol\":1273:1279   */\n              sload\n                /* \"@openzeppelin/contracts/access/Ownable.sol\":1201:1286   */\n              mload(0x40)\n              sub(shl(0xa0, 0x01), 0x01)\n                /* \"@openzeppelin/contracts/access/Ownable.sol\":1273:1279   */\n              swap1\n              swap2\n              and\n                /* \"#utility.yul\":4351:4402   */\n              dup2\n              mstore\n                /* \"#utility.yul\":4339:4341   */\n              0x20\n                /* \"#utility.yul\":4324:4342   */\n              add\n                /* \"@openzeppelin/contracts/access/Ownable.sol\":1201:1286   */\n              tag_31\n                /* \"#utility.yul\":4205:4408   */\n              jump\n                /* \"Inheritance.sol\":6029:7270  function claimInheritance() public isHeir(msg.sender) {... */\n            tag_13:\n              callvalue\n              dup1\n              iszero\n              tag_81\n              jumpi\n              0x00\n              dup1\n              revert\n            tag_81:\n              pop\n              tag_39\n              tag_83\n              jump\t// in\n                /* \"Inheritance.sol\":7651:7754  function getAliveTimeOut() public view onlyOwner returns (uint256) {... */\n            tag_14:\n              callvalue\n              dup1\n              iszero\n              tag_84\n              jumpi\n              0x00\n              dup1\n              revert\n            tag_84:\n              pop\n              tag_54\n              tag_86\n              jump\t// in\n                /* \"Inheritance.sol\":4526:4781  function signalAlive() public onlyOwner {... */\n            tag_15:\n              callvalue\n              dup1\n              iszero\n              tag_88\n              jumpi\n              0x00\n              dup1\n              revert\n            tag_88:\n              pop\n              tag_39\n              tag_90\n              jump\t// in\n                /* \"Inheritance.sol\":3547:3779  function deposit() public payable {... */\n            tag_16:\n              tag_39\n              tag_92\n              jump\t// in\n                /* \"Inheritance.sol\":8207:8434  function getTotalShares() public view returns (uint256) {... */\n            tag_17:\n              callvalue\n              dup1\n              iszero\n              tag_93\n              jumpi\n              0x00\n              dup1\n              revert\n            tag_93:\n              pop\n              tag_54\n              tag_95\n              jump\t// in\n                /* \"Inheritance.sol\":3810:4129  function withdrawUSDC(uint256 amount) public onlyOwner {... */\n            tag_18:\n              callvalue\n              dup1\n              iszero\n              tag_97\n              jumpi\n              0x00\n              dup1\n              revert\n            tag_97:\n              pop\n              tag_39\n              tag_99\n              calldatasize\n              0x04\n              tag_44\n              jump\t// in\n            tag_99:\n              tag_100\n              jump\t// in\n                /* \"Inheritance.sol\":4407:4520  function updateAliveTimeOut(uint256 _aliveTimeOut) public onlyOwner {... */\n            tag_19:\n              callvalue\n              dup1\n              iszero\n              tag_101\n              jumpi\n              0x00\n              dup1\n              revert\n            tag_101:\n              pop\n              tag_39\n              tag_103\n              calldatasize\n              0x04\n              tag_44\n              jump\t// in\n            tag_103:\n              tag_104\n              jump\t// in\n                /* \"Inheritance.sol\":5478:5789  function rejectInheritanceRequest(uint index, address requester) public onlyOwner rejectInheritanceRequestValidations(index, requester) {... */\n            tag_20:\n              callvalue\n              dup1\n              iszero\n              tag_105\n              jumpi\n              0x00\n              dup1\n              revert\n            tag_105:\n              pop\n              tag_39\n              tag_107\n              calldatasize\n              0x04\n              tag_108\n              jump\t// in\n            tag_107:\n              tag_109\n              jump\t// in\n                /* \"Inheritance.sol\":7760:7862  function getEtherBalance() public view returns (uint256) {... */\n            tag_21:\n              callvalue\n              dup1\n              iszero\n              tag_110\n              jumpi\n              0x00\n              dup1\n              revert\n            tag_110:\n              pop\n                /* \"Inheritance.sol\":7834:7855  address(this).balance */\n              selfbalance\n                /* \"Inheritance.sol\":7760:7862  function getEtherBalance() public view returns (uint256) {... */\n              jump(tag_54)\n                /* \"@openzeppelin/contracts/access/Ownable.sol\":2081:2279   */\n            tag_22:\n              callvalue\n              dup1\n              iszero\n              tag_114\n              jumpi\n              0x00\n              dup1\n              revert\n            tag_114:\n              pop\n              tag_39\n              tag_116\n              calldatasize\n              0x04\n              tag_49\n              jump\t// in\n            tag_116:\n              tag_117\n              jump\t// in\n                /* \"Inheritance.sol\":1589:1623  Administrator public administrator */\n            tag_23:\n              callvalue\n              dup1\n              iszero\n              tag_118\n              jumpi\n              0x00\n              dup1\n              revert\n            tag_118:\n              pop\n              sload(0x01)\n              sload(0x02)\n              tag_119\n              swap2\n              sub(shl(0xa0, 0x01), 0x01)\n              and\n              swap1\n              dup3\n              jump\n            tag_119:\n              0x40\n              dup1\n              mload\n              sub(shl(0xa0, 0x01), 0x01)\n                /* \"#utility.yul\":4864:4896   */\n              swap1\n              swap4\n              and\n                /* \"#utility.yul\":4846:4897   */\n              dup4\n              mstore\n                /* \"#utility.yul\":4928:4930   */\n              0x20\n                /* \"#utility.yul\":4913:4931   */\n              dup4\n              add\n                /* \"#utility.yul\":4906:4940   */\n              swap2\n              swap1\n              swap2\n              mstore\n                /* \"#utility.yul\":4819:4837   */\n              add\n                /* \"Inheritance.sol\":1589:1623  Administrator public administrator */\n              tag_31\n                /* \"#utility.yul\":4672:4946   */\n              jump\n                /* \"Inheritance.sol\":8440:8780  function getHeirsAddresses() public view returns (address[] memory) {... */\n            tag_24:\n              callvalue\n              dup1\n              iszero\n              tag_123\n              jumpi\n              0x00\n              dup1\n              revert\n            tag_123:\n              pop\n              tag_34\n              tag_125\n              jump\t// in\n                /* \"Inheritance.sol\":5795:6023  function isAdministratorDead() public view returns (bool) { // Shows if the aliveTimeOut has been reached, and the Heirs can redeem the Inheritance.... */\n            tag_30:\n                /* \"Inheritance.sol\":6004:6016  aliveTimeOut */\n              sload(0x03)\n                /* \"Inheritance.sol\":5977:6000  administrator.lastAlive */\n              sload(0x02)\n                /* \"Inheritance.sol\":5847:5851  bool */\n              0x00\n              swap2\n                /* \"Inheritance.sol\":6004:6016  aliveTimeOut */\n              swap1\n                /* \"Inheritance.sol\":5959:6000  block.timestamp - administrator.lastAlive */\n              tag_128\n              swap1\n                /* \"Inheritance.sol\":5959:5974  block.timestamp */\n              timestamp\n                /* \"Inheritance.sol\":5959:6000  block.timestamp - administrator.lastAlive */\n              tag_129\n              jump\t// in\n            tag_128:\n                /* \"Inheritance.sol\":5959:6016  block.timestamp - administrator.lastAlive >= aliveTimeOut */\n              lt\n              iszero\n                /* \"Inheritance.sol\":5952:6016  return block.timestamp - administrator.lastAlive >= aliveTimeOut */\n              swap1\n              pop\n                /* \"Inheritance.sol\":5795:6023  function isAdministratorDead() public view returns (bool) { // Shows if the aliveTimeOut has been reached, and the Heirs can redeem the Inheritance.... */\n              swap1\n              jump\t// out\n                /* \"Inheritance.sol\":7984:8110  function getInheritanceRequests() public view onlyOwner returns (address[] memory) {... */\n            tag_35:\n                /* \"Inheritance.sol\":8049:8065  address[] memory */\n              0x60\n                /* \"@openzeppelin/contracts/access/Ownable.sol\":1094:1107   */\n              tag_131\n                /* \"@openzeppelin/contracts/access/Ownable.sol\":1094:1105   */\n              tag_132\n                /* \"@openzeppelin/contracts/access/Ownable.sol\":1094:1107   */\n              jump\t// in\n            tag_131:\n                /* \"Inheritance.sol\":8084:8103  inheritanceRequests */\n              0x05\n                /* \"Inheritance.sol\":8077:8103  return inheritanceRequests */\n              dup1\n              sload\n              dup1\n              0x20\n              mul\n              0x20\n              add\n              mload(0x40)\n              swap1\n              dup2\n              add\n              0x40\n              mstore\n              dup1\n              swap3\n              swap2\n              swap1\n              dup2\n              dup2\n              mstore\n              0x20\n              add\n              dup3\n              dup1\n              sload\n              dup1\n              iszero\n              tag_134\n              jumpi\n              0x20\n              mul\n              dup3\n              add\n              swap2\n              swap1\n              0x00\n              mstore\n              keccak256(0x00, 0x20)\n              swap1\n            tag_135:\n              dup2\n              sload\n              sub(shl(0xa0, 0x01), 0x01)\n              and\n              dup2\n              mstore\n              0x01\n              swap1\n              swap2\n              add\n              swap1\n              0x20\n              add\n              dup1\n              dup4\n              gt\n              tag_135\n              jumpi\n            tag_134:\n              pop\n              pop\n              pop\n              pop\n              pop\n              swap1\n              pop\n                /* \"Inheritance.sol\":7984:8110  function getInheritanceRequests() public view onlyOwner returns (address[] memory) {... */\n              swap1\n              jump\t// out\n                /* \"Inheritance.sol\":4787:5047  function requestInheritance() public requestInheritanceValidations(msg.sender) {... */\n            tag_40:\n                /* \"Inheritance.sol\":9158:9163  heirs */\n              0x04\n                /* \"Inheritance.sol\":9158:9170  heirs.length */\n              sload\n                /* \"Inheritance.sol\":4854:4864  msg.sender */\n              caller\n              swap1\n                /* \"Inheritance.sol\":9173:9176  100 */\n              0x64\n              gt\n                /* \"Inheritance.sol\":9150:9220  require(heirs.length < 100, \"Already reached the limit of 100 heirs.\") */\n              tag_137\n              jumpi\n              mload(0x40)\n              shl(0xe5, 0x461bcd)\n              dup2\n              mstore\n                /* \"#utility.yul\":5418:5420   */\n              0x20\n                /* \"Inheritance.sol\":9150:9220  require(heirs.length < 100, \"Already reached the limit of 100 heirs.\") */\n              0x04\n              dup3\n              add\n                /* \"#utility.yul\":5400:5421   */\n              mstore\n                /* \"#utility.yul\":5457:5459   */\n              0x27\n                /* \"#utility.yul\":5437:5455   */\n              0x24\n              dup3\n              add\n                /* \"#utility.yul\":5430:5460   */\n              mstore\n                /* \"#utility.yul\":5496:5530   */\n              0x416c7265616479207265616368656420746865206c696d6974206f6620313030\n                /* \"#utility.yul\":5476:5494   */\n              0x44\n              dup3\n              add\n                /* \"#utility.yul\":5469:5531   */\n              mstore\n              shl(0xc9, 0x103432b4b93997)\n                /* \"#utility.yul\":5547:5565   */\n              0x64\n              dup3\n              add\n                /* \"#utility.yul\":5540:5577   */\n              mstore\n                /* \"#utility.yul\":5594:5613   */\n              0x84\n              add\n                /* \"Inheritance.sol\":9150:9220  require(heirs.length < 100, \"Already reached the limit of 100 heirs.\") */\n            tag_138:\n              mload(0x40)\n              dup1\n              swap2\n              sub\n              swap1\n              revert\n            tag_137:\n                /* \"Inheritance.sol\":9238:9257  inheritanceRequests */\n              0x05\n                /* \"Inheritance.sol\":9238:9264  inheritanceRequests.length */\n              sload\n                /* \"Inheritance.sol\":9267:9270  100 */\n              0x64\n              gt\n                /* \"Inheritance.sol\":9230:9329  require(inheritanceRequests.length < 100, \"Already reached the limit of 100 inheritance requests.\") */\n              tag_140\n              jumpi\n              mload(0x40)\n              shl(0xe5, 0x461bcd)\n              dup2\n              mstore\n                /* \"#utility.yul\":5826:5828   */\n              0x20\n                /* \"Inheritance.sol\":9230:9329  require(inheritanceRequests.length < 100, \"Already reached the limit of 100 inheritance requests.\") */\n              0x04\n              dup3\n              add\n                /* \"#utility.yul\":5808:5829   */\n              mstore\n                /* \"#utility.yul\":5865:5867   */\n              0x36\n                /* \"#utility.yul\":5845:5863   */\n              0x24\n              dup3\n              add\n                /* \"#utility.yul\":5838:5868   */\n              mstore\n                /* \"#utility.yul\":5904:5938   */\n              0x416c7265616479207265616368656420746865206c696d6974206f6620313030\n                /* \"#utility.yul\":5884:5902   */\n              0x44\n              dup3\n              add\n                /* \"#utility.yul\":5877:5939   */\n              mstore\n              shl(0x51, 0x1034b73432b934ba30b731b2903932b8bab2b9ba3997)\n                /* \"#utility.yul\":5955:5973   */\n              0x64\n              dup3\n              add\n                /* \"#utility.yul\":5948:6000   */\n              mstore\n                /* \"#utility.yul\":6017:6036   */\n              0x84\n              add\n                /* \"Inheritance.sol\":9230:9329  require(inheritanceRequests.length < 100, \"Already reached the limit of 100 inheritance requests.\") */\n              tag_138\n                /* \"#utility.yul\":5624:6042   */\n              jump\n                /* \"Inheritance.sol\":9230:9329  require(inheritanceRequests.length < 100, \"Already reached the limit of 100 inheritance requests.\") */\n            tag_140:\n                /* \"Inheritance.sol\":9344:9350  uint i */\n              0x00\n                /* \"Inheritance.sol\":9340:9502  for(uint i = 0; i < inheritanceRequests.length; i++) {... */\n            tag_143:\n                /* \"Inheritance.sol\":9360:9379  inheritanceRequests */\n              0x05\n                /* \"Inheritance.sol\":9360:9386  inheritanceRequests.length */\n              sload\n                /* \"Inheritance.sol\":9356:9386  i < inheritanceRequests.length */\n              dup2\n              lt\n                /* \"Inheritance.sol\":9340:9502  for(uint i = 0; i < inheritanceRequests.length; i++) {... */\n              iszero\n              tag_144\n              jumpi\n                /* \"Inheritance.sol\":9441:9445  addr */\n              dup2\n              sub(shl(0xa0, 0x01), 0x01)\n                /* \"Inheritance.sol\":9415:9445  inheritanceRequests[i] != addr */\n              and\n                /* \"Inheritance.sol\":9415:9434  inheritanceRequests */\n              0x05\n                /* \"Inheritance.sol\":9435:9436  i */\n              dup3\n                /* \"Inheritance.sol\":9415:9437  inheritanceRequests[i] */\n              dup2\n              sload\n              dup2\n              lt\n              tag_147\n              jumpi\n              tag_147\n              tag_148\n              jump\t// in\n            tag_147:\n              0x00\n              swap2\n              dup3\n              mstore\n              0x20\n              swap1\n              swap2\n              keccak256\n              add\n              sload\n              sub(shl(0xa0, 0x01), 0x01)\n              and\n                /* \"Inheritance.sol\":9415:9445  inheritanceRequests[i] != addr */\n              sub\n                /* \"Inheritance.sol\":9407:9491  require(inheritanceRequests[i] != addr, \"Address already exists in requests array.\") */\n              tag_150\n              jumpi\n              mload(0x40)\n              shl(0xe5, 0x461bcd)\n              dup2\n              mstore\n                /* \"#utility.yul\":6381:6383   */\n              0x20\n                /* \"Inheritance.sol\":9407:9491  require(inheritanceRequests[i] != addr, \"Address already exists in requests array.\") */\n              0x04\n              dup3\n              add\n                /* \"#utility.yul\":6363:6384   */\n              mstore\n                /* \"#utility.yul\":6420:6422   */\n              0x29\n                /* \"#utility.yul\":6400:6418   */\n              0x24\n              dup3\n              add\n                /* \"#utility.yul\":6393:6423   */\n              mstore\n                /* \"#utility.yul\":6459:6493   */\n              0x4164647265737320616c72656164792065786973747320696e20726571756573\n                /* \"#utility.yul\":6439:6457   */\n              0x44\n              dup3\n              add\n                /* \"#utility.yul\":6432:6494   */\n              mstore\n              shl(0xb9, 0x3a399030b93930bc97)\n                /* \"#utility.yul\":6510:6528   */\n              0x64\n              dup3\n              add\n                /* \"#utility.yul\":6503:6542   */\n              mstore\n                /* \"#utility.yul\":6559:6578   */\n              0x84\n              add\n                /* \"Inheritance.sol\":9407:9491  require(inheritanceRequests[i] != addr, \"Address already exists in requests array.\") */\n              tag_138\n                /* \"#utility.yul\":6179:6584   */\n              jump\n                /* \"Inheritance.sol\":9407:9491  require(inheritanceRequests[i] != addr, \"Address already exists in requests array.\") */\n            tag_150:\n                /* \"Inheritance.sol\":9388:9391  i++ */\n              dup1\n              tag_153\n              dup2\n              tag_154\n              jump\t// in\n            tag_153:\n              swap2\n              pop\n              pop\n                /* \"Inheritance.sol\":9340:9502  for(uint i = 0; i < inheritanceRequests.length; i++) {... */\n              jump(tag_143)\n            tag_144:\n              pop\n                /* \"Inheritance.sol\":4876:4895  inheritanceRequests */\n              0x05\n                /* \"Inheritance.sol\":4876:4912  inheritanceRequests.push(msg.sender) */\n              dup1\n              sload\n              0x01\n              dup2\n              add\n              dup3\n              sstore\n              0x00\n              dup3\n              swap1\n              mstore\n              0x036b6384b5eca791c62761152d0c79bb0604c104a5fb6f4eb0703f3154bb3db0\n              add\n              dup1\n              sload\n              not(sub(shl(0xa0, 0x01), 0x01))\n              and\n                /* \"Inheritance.sol\":4901:4911  msg.sender */\n              caller\n                /* \"Inheritance.sol\":4876:4912  inheritanceRequests.push(msg.sender) */\n              swap1\n              dup2\n              or\n              swap1\n              swap2\n              sstore\n                /* \"Inheritance.sol\":4999:5025  inheritanceRequests.length */\n              swap1\n              sload\n                /* \"Inheritance.sol\":5027:5032  heirs */\n              0x04\n                /* \"Inheritance.sol\":5027:5039  heirs.length */\n              sload\n                /* \"Inheritance.sol\":4927:5040  LogRequestToBeHeir(\"User requests to be added as an heir.\", msg.sender, inheritanceRequests.length, heirs.length) */\n              0x40\n              dup1\n              mload\n                /* \"#utility.yul\":6987:6989   */\n              0x60\n                /* \"#utility.yul\":6969:6990   */\n              dup1\n              dup3\n              mstore\n                /* \"#utility.yul\":7026:7028   */\n              0x25\n                /* \"#utility.yul\":7006:7024   */\n              swap1\n              dup3\n              add\n                /* \"#utility.yul\":6999:7029   */\n              mstore\n                /* \"#utility.yul\":7066:7100   */\n              0x5573657220726571756573747320746f20626520616464656420617320616e20\n                /* \"#utility.yul\":7060:7063   */\n              0x80\n                /* \"#utility.yul\":7045:7064   */\n              dup3\n              add\n                /* \"#utility.yul\":7038:7101   */\n              mstore\n              shl(0xd9, 0x3432b4b917)\n                /* \"#utility.yul\":7132:7135   */\n              0xa0\n                /* \"#utility.yul\":7117:7136   */\n              dup3\n              add\n                /* \"#utility.yul\":7110:7146   */\n              mstore\n                /* \"#utility.yul\":7213:7217   */\n              0x20\n                /* \"#utility.yul\":7198:7218   */\n              dup2\n              add\n                /* \"#utility.yul\":7191:7227   */\n              swap4\n              swap1\n              swap4\n              mstore\n                /* \"#utility.yul\":7243:7261   */\n              dup3\n              add\n                /* \"#utility.yul\":7236:7270   */\n              mstore\n                /* \"Inheritance.sol\":4927:5040  LogRequestToBeHeir(\"User requests to be added as an heir.\", msg.sender, inheritanceRequests.length, heirs.length) */\n              0xe6096ebfc672773ae3076e8ae873cb450789130e8c0d87b2b933210acdc08f66\n              swap1\n                /* \"#utility.yul\":7178:7181   */\n              0xc0\n                /* \"#utility.yul\":7163:7182   */\n              add\n                /* \"Inheritance.sol\":4927:5040  LogRequestToBeHeir(\"User requests to be added as an heir.\", msg.sender, inheritanceRequests.length, heirs.length) */\n              mload(0x40)\n              dup1\n              swap2\n              sub\n              swap1\n              log2\n                /* \"Inheritance.sol\":4787:5047  function requestInheritance() public requestInheritanceValidations(msg.sender) {... */\n              pop\n              jump\t// out\n                /* \"Inheritance.sol\":4135:4373  function withdraw(uint256 amount) public onlyOwner {... */\n            tag_45:\n                /* \"@openzeppelin/contracts/access/Ownable.sol\":1094:1107   */\n              tag_160\n                /* \"@openzeppelin/contracts/access/Ownable.sol\":1094:1105   */\n              tag_132\n                /* \"@openzeppelin/contracts/access/Ownable.sol\":1094:1107   */\n              jump\t// in\n            tag_160:\n                /* \"Inheritance.sol\":4213:4214  0 */\n              0x00\n                /* \"Inheritance.sol\":4204:4210  amount */\n              dup2\n                /* \"Inheritance.sol\":4204:4214  amount > 0 */\n              gt\n                /* \"Inheritance.sol\":4196:4243  require(amount > 0, \"Amount must be positive.\") */\n              tag_162\n              jumpi\n              mload(0x40)\n              shl(0xe5, 0x461bcd)\n              dup2\n              mstore\n                /* \"#utility.yul\":7483:7485   */\n              0x20\n                /* \"Inheritance.sol\":4196:4243  require(amount > 0, \"Amount must be positive.\") */\n              0x04\n              dup3\n              add\n                /* \"#utility.yul\":7465:7486   */\n              mstore\n                /* \"#utility.yul\":7522:7524   */\n              0x18\n                /* \"#utility.yul\":7502:7520   */\n              0x24\n              dup3\n              add\n                /* \"#utility.yul\":7495:7525   */\n              mstore\n              shl(0x41, 0x20b6b7bab73a1036bab9ba103132903837b9b4ba34bb3297)\n                /* \"#utility.yul\":7541:7559   */\n              0x44\n              dup3\n              add\n                /* \"#utility.yul\":7534:7588   */\n              mstore\n                /* \"#utility.yul\":7605:7623   */\n              0x64\n              add\n                /* \"Inheritance.sol\":4196:4243  require(amount > 0, \"Amount must be positive.\") */\n              tag_138\n                /* \"#utility.yul\":7281:7629   */\n              jump\n                /* \"Inheritance.sol\":4196:4243  require(amount > 0, \"Amount must be positive.\") */\n            tag_162:\n                /* \"Inheritance.sol\":4271:4292  address(this).balance */\n              selfbalance\n                /* \"Inheritance.sol\":4261:4267  amount */\n              dup2\n                /* \"Inheritance.sol\":4261:4292  amount <= address(this).balance */\n              gt\n              iszero\n                /* \"Inheritance.sol\":4253:4320  require(amount <= address(this).balance, \"Not enough ETH balance.\") */\n              tag_165\n              jumpi\n              mload(0x40)\n              shl(0xe5, 0x461bcd)\n              dup2\n              mstore\n                /* \"#utility.yul\":7836:7838   */\n              0x20\n                /* \"Inheritance.sol\":4253:4320  require(amount <= address(this).balance, \"Not enough ETH balance.\") */\n              0x04\n              dup3\n              add\n                /* \"#utility.yul\":7818:7839   */\n              mstore\n                /* \"#utility.yul\":7875:7877   */\n              0x17\n                /* \"#utility.yul\":7855:7873   */\n              0x24\n              dup3\n              add\n                /* \"#utility.yul\":7848:7878   */\n              mstore\n                /* \"#utility.yul\":7914:7939   */\n              0x4e6f7420656e6f756768204554482062616c616e63652e000000000000000000\n                /* \"#utility.yul\":7894:7912   */\n              0x44\n              dup3\n              add\n                /* \"#utility.yul\":7887:7940   */\n              mstore\n                /* \"#utility.yul\":7957:7975   */\n              0x64\n              add\n                /* \"Inheritance.sol\":4253:4320  require(amount <= address(this).balance, \"Not enough ETH balance.\") */\n              tag_138\n                /* \"#utility.yul\":7634:7981   */\n              jump\n                /* \"Inheritance.sol\":4253:4320  require(amount <= address(this).balance, \"Not enough ETH balance.\") */\n            tag_165:\n                /* \"Inheritance.sol\":4330:4366  payable(msg.sender).transfer(amount) */\n              mload(0x40)\n                /* \"Inheritance.sol\":4338:4348  msg.sender */\n              caller\n              swap1\n                /* \"Inheritance.sol\":4330:4366  payable(msg.sender).transfer(amount) */\n              dup3\n              iszero\n              0x08fc\n              mul\n              swap1\n                /* \"Inheritance.sol\":4359:4365  amount */\n              dup4\n              swap1\n                /* \"Inheritance.sol\":4330:4366  payable(msg.sender).transfer(amount) */\n              0x00\n              dup2\n              dup2\n              dup2\n                /* \"Inheritance.sol\":4359:4365  amount */\n              dup6\n                /* \"Inheritance.sol\":4338:4348  msg.sender */\n              dup9\n                /* \"Inheritance.sol\":4330:4366  payable(msg.sender).transfer(amount) */\n              dup9\n              call\n              swap4\n              pop\n              pop\n              pop\n              pop\n              iszero\n              dup1\n              iszero\n              tag_169\n              jumpi\n              returndatasize\n              0x00\n              dup1\n              returndatacopy\n              revert(0x00, returndatasize)\n            tag_169:\n              pop\n                /* \"Inheritance.sol\":4135:4373  function withdraw(uint256 amount) public onlyOwner {... */\n              pop\n              jump\t// out\n                /* \"Inheritance.sol\":8786:9065  function getNFTDeedsByHeirAddress(address heirAddress) public view returns (uint256[] memory nftDeedIds) {... */\n            tag_50:\n                /* \"Inheritance.sol\":8862:8889  uint256[] memory nftDeedIds */\n              0x60\n                /* \"Inheritance.sol\":8905:8914  uint256 i */\n              0x00\n                /* \"Inheritance.sol\":8901:9059  for(uint256 i = 0; i < heirs.length; i++) {... */\n            tag_171:\n                /* \"Inheritance.sol\":8924:8929  heirs */\n              0x04\n                /* \"Inheritance.sol\":8924:8936  heirs.length */\n              sload\n                /* \"Inheritance.sol\":8920:8936  i < heirs.length */\n              dup2\n              lt\n                /* \"Inheritance.sol\":8901:9059  for(uint256 i = 0; i < heirs.length; i++) {... */\n              iszero\n              tag_172\n              jumpi\n                /* \"Inheritance.sol\":8977:8988  heirAddress */\n              dup3\n              sub(shl(0xa0, 0x01), 0x01)\n                /* \"Inheritance.sol\":8960:8988  heirs[i].heir == heirAddress */\n              and\n                /* \"Inheritance.sol\":8960:8965  heirs */\n              0x04\n                /* \"Inheritance.sol\":8966:8967  i */\n              dup3\n                /* \"Inheritance.sol\":8960:8968  heirs[i] */\n              dup2\n              sload\n              dup2\n              lt\n              tag_175\n              jumpi\n              tag_175\n              tag_148\n              jump\t// in\n            tag_175:\n              0x00\n              swap2\n              dup3\n              mstore\n              0x20\n              swap1\n              swap2\n              keccak256\n              0x05\n              swap1\n              swap2\n              mul\n              add\n                /* \"Inheritance.sol\":8960:8973  heirs[i].heir */\n              sload\n              sub(shl(0xa0, 0x01), 0x01)\n              and\n                /* \"Inheritance.sol\":8960:8988  heirs[i].heir == heirAddress */\n              sub\n                /* \"Inheritance.sol\":8957:9049  if(heirs[i].heir == heirAddress) {... */\n              tag_177\n              jumpi\n                /* \"Inheritance.sol\":9015:9020  heirs */\n              0x04\n                /* \"Inheritance.sol\":9021:9022  i */\n              dup2\n                /* \"Inheritance.sol\":9015:9023  heirs[i] */\n              dup2\n              sload\n              dup2\n              lt\n              tag_179\n              jumpi\n              tag_179\n              tag_148\n              jump\t// in\n            tag_179:\n              swap1\n              0x00\n              mstore\n              keccak256(0x00, 0x20)\n              swap1\n              0x05\n              mul\n              add\n                /* \"Inheritance.sol\":9015:9034  heirs[i].NFTDeedIds */\n              0x04\n              add\n                /* \"Inheritance.sol\":9008:9034  return heirs[i].NFTDeedIds */\n              dup1\n              sload\n              dup1\n              0x20\n              mul\n              0x20\n              add\n              mload(0x40)\n              swap1\n              dup2\n              add\n              0x40\n              mstore\n              dup1\n              swap3\n              swap2\n              swap1\n              dup2\n              dup2\n              mstore\n              0x20\n              add\n              dup3\n              dup1\n              sload\n              dup1\n              iszero\n              tag_181\n              jumpi\n              0x20\n              mul\n              dup3\n              add\n              swap2\n              swap1\n              0x00\n              mstore\n              keccak256(0x00, 0x20)\n              swap1\n            tag_182:\n              dup2\n              sload\n              dup2\n              mstore\n              0x20\n              add\n              swap1\n              0x01\n              add\n              swap1\n              dup1\n              dup4\n              gt\n              tag_182\n              jumpi\n            tag_181:\n              pop\n              pop\n              pop\n              pop\n              pop\n              swap2\n              pop\n              pop\n                /* \"Inheritance.sol\":8786:9065  function getNFTDeedsByHeirAddress(address heirAddress) public view returns (uint256[] memory nftDeedIds) {... */\n              swap2\n              swap1\n              pop\n              jump\t// out\n                /* \"Inheritance.sol\":8957:9049  if(heirs[i].heir == heirAddress) {... */\n            tag_177:\n                /* \"Inheritance.sol\":8938:8941  i++ */\n              dup1\n              tag_183\n              dup2\n              tag_154\n              jump\t// in\n            tag_183:\n              swap2\n              pop\n              pop\n                /* \"Inheritance.sol\":8901:9059  for(uint256 i = 0; i < heirs.length; i++) {... */\n              jump(tag_171)\n            tag_172:\n              pop\n                /* \"Inheritance.sol\":8786:9065  function getNFTDeedsByHeirAddress(address heirAddress) public view returns (uint256[] memory nftDeedIds) {... */\n              swap2\n              swap1\n              pop\n              jump\t// out\n                /* \"Inheritance.sol\":7868:7978  function getUSDCBalance() public view returns (uint256) {... */\n            tag_55:\n                /* \"Inheritance.sol\":7941:7946  token */\n              sload(0x08)\n                /* \"Inheritance.sol\":7941:7971  token.balanceOf(address(this)) */\n              mload(0x40)\n              shl(0xe0, 0x70a08231)\n              dup2\n              mstore\n                /* \"Inheritance.sol\":7965:7969  this */\n              address\n                /* \"Inheritance.sol\":7941:7971  token.balanceOf(address(this)) */\n              0x04\n              dup3\n              add\n                /* \"#utility.yul\":4351:4402   */\n              mstore\n                /* \"Inheritance.sol\":7915:7922  uint256 */\n              0x00\n              swap2\n              sub(shl(0xa0, 0x01), 0x01)\n                /* \"Inheritance.sol\":7941:7946  token */\n              and\n              swap1\n                /* \"Inheritance.sol\":7941:7956  token.balanceOf */\n              0x70a08231\n              swap1\n                /* \"#utility.yul\":4324:4342   */\n              0x24\n              add\n                /* \"Inheritance.sol\":7941:7971  token.balanceOf(address(this)) */\n              0x20\n              mload(0x40)\n              dup1\n              dup4\n              sub\n              dup2\n              dup7\n              gas\n              staticcall\n              iszero\n              dup1\n              iszero\n              tag_187\n              jumpi\n              returndatasize\n              0x00\n              dup1\n              returndatacopy\n              revert(0x00, returndatasize)\n            tag_187:\n              pop\n              pop\n              pop\n              pop\n              mload(0x40)\n              returndatasize\n              not(0x1f)\n              0x1f\n              dup3\n              add\n              and\n              dup3\n              add\n              dup1\n              0x40\n              mstore\n              pop\n              dup2\n              add\n              swap1\n              tag_188\n              swap2\n              swap1\n              tag_189\n              jump\t// in\n            tag_188:\n                /* \"Inheritance.sol\":7934:7971  return token.balanceOf(address(this)) */\n              swap1\n              pop\n                /* \"Inheritance.sol\":7868:7978  function getUSDCBalance() public view returns (uint256) {... */\n              swap1\n              jump\t// out\n                /* \"Inheritance.sol\":7276:7625  function addNFTDeed(address heirAddress, uint256 tokenId) public onlyOwner {... */\n            tag_62:\n                /* \"@openzeppelin/contracts/access/Ownable.sol\":1094:1107   */\n              tag_191\n                /* \"@openzeppelin/contracts/access/Ownable.sol\":1094:1105   */\n              tag_132\n                /* \"@openzeppelin/contracts/access/Ownable.sol\":1094:1107   */\n              jump\t// in\n            tag_191:\n                /* \"Inheritance.sol\":7365:7374  uint256 i */\n              0x00\n                /* \"Inheritance.sol\":7361:7550  for(uint256 i = 0; i < heirs.length; i++) {... */\n            tag_193:\n                /* \"Inheritance.sol\":7384:7389  heirs */\n              0x04\n                /* \"Inheritance.sol\":7384:7396  heirs.length */\n              sload\n                /* \"Inheritance.sol\":7380:7396  i < heirs.length */\n              dup2\n              lt\n                /* \"Inheritance.sol\":7361:7550  for(uint256 i = 0; i < heirs.length; i++) {... */\n              iszero\n              tag_194\n              jumpi\n                /* \"Inheritance.sol\":7437:7448  heirAddress */\n              dup3\n              sub(shl(0xa0, 0x01), 0x01)\n                /* \"Inheritance.sol\":7420:7448  heirs[i].heir == heirAddress */\n              and\n                /* \"Inheritance.sol\":7420:7425  heirs */\n              0x04\n                /* \"Inheritance.sol\":7426:7427  i */\n              dup3\n                /* \"Inheritance.sol\":7420:7428  heirs[i] */\n              dup2\n              sload\n              dup2\n              lt\n              tag_197\n              jumpi\n              tag_197\n              tag_148\n              jump\t// in\n            tag_197:\n              0x00\n              swap2\n              dup3\n              mstore\n              0x20\n              swap1\n              swap2\n              keccak256\n              0x05\n              swap1\n              swap2\n              mul\n              add\n                /* \"Inheritance.sol\":7420:7433  heirs[i].heir */\n              sload\n              sub(shl(0xa0, 0x01), 0x01)\n              and\n                /* \"Inheritance.sol\":7420:7448  heirs[i].heir == heirAddress */\n              sub\n                /* \"Inheritance.sol\":7417:7540  if(heirs[i].heir == heirAddress) {... */\n              tag_199\n              jumpi\n                /* \"Inheritance.sol\":7468:7473  heirs */\n              0x04\n                /* \"Inheritance.sol\":7474:7475  i */\n              dup2\n                /* \"Inheritance.sol\":7468:7476  heirs[i] */\n              dup2\n              sload\n              dup2\n              lt\n              tag_201\n              jumpi\n              tag_201\n              tag_148\n              jump\t// in\n            tag_201:\n              0x00\n              swap2\n              dup3\n              mstore\n              0x20\n              dup1\n              dup4\n              keccak256\n                /* \"Inheritance.sol\":7468:7487  heirs[i].NFTDeedIds */\n              0x04\n                /* \"Inheritance.sol\":7468:7476  heirs[i] */\n              0x05\n              swap1\n              swap4\n              mul\n              add\n                /* \"Inheritance.sol\":7468:7487  heirs[i].NFTDeedIds */\n              swap2\n              swap1\n              swap2\n              add\n                /* \"Inheritance.sol\":7468:7501  heirs[i].NFTDeedIds.push(tokenId) */\n              dup1\n              sload\n              0x01\n              dup2\n              add\n              dup3\n              sstore\n              swap1\n              dup4\n              mstore\n              swap2\n              keccak256\n              add\n              dup3\n              swap1\n              sstore\n              pop\n                /* \"Inheritance.sol\":4330:4366  payable(msg.sender).transfer(amount) */\n              pop\n                /* \"Inheritance.sol\":4135:4373  function withdraw(uint256 amount) public onlyOwner {... */\n              pop\n              jump\t// out\n                /* \"Inheritance.sol\":7417:7540  if(heirs[i].heir == heirAddress) {... */\n            tag_199:\n                /* \"Inheritance.sol\":7398:7401  i++ */\n              dup1\n              tag_204\n              dup2\n              tag_154\n              jump\t// in\n            tag_204:\n              swap2\n              pop\n              pop\n                /* \"Inheritance.sol\":7361:7550  for(uint256 i = 0; i < heirs.length; i++) {... */\n              jump(tag_193)\n            tag_194:\n              pop\n                /* \"Inheritance.sol\":7559:7618  require(false, \"Not heir address matched to the one sent.\") */\n              mload(0x40)\n              shl(0xe5, 0x461bcd)\n              dup2\n              mstore\n                /* \"#utility.yul\":8377:8379   */\n              0x20\n                /* \"Inheritance.sol\":7559:7618  require(false, \"Not heir address matched to the one sent.\") */\n              0x04\n              dup3\n              add\n                /* \"#utility.yul\":8359:8380   */\n              mstore\n                /* \"#utility.yul\":8416:8418   */\n              0x29\n                /* \"#utility.yul\":8396:8414   */\n              0x24\n              dup3\n              add\n                /* \"#utility.yul\":8389:8419   */\n              mstore\n                /* \"#utility.yul\":8455:8489   */\n              0x4e6f7420686569722061646472657373206d61746368656420746f2074686520\n                /* \"#utility.yul\":8435:8453   */\n              0x44\n              dup3\n              add\n                /* \"#utility.yul\":8428:8490   */\n              mstore\n              shl(0xb9, 0x37b7329039b2b73a17)\n                /* \"#utility.yul\":8506:8524   */\n              0x64\n              dup3\n              add\n                /* \"#utility.yul\":8499:8538   */\n              mstore\n                /* \"#utility.yul\":8555:8574   */\n              0x84\n              add\n                /* \"Inheritance.sol\":7559:7618  require(false, \"Not heir address matched to the one sent.\") */\n              tag_138\n                /* \"#utility.yul\":8175:8580   */\n              jump\n                /* \"Inheritance.sol\":8116:8201  function getHeirs() public view returns (Heir[] memory) {... */\n            tag_65:\n                /* \"Inheritance.sol\":8157:8170  Heir[] memory */\n              0x60\n                /* \"Inheritance.sol\":8189:8194  heirs */\n              0x04\n                /* \"Inheritance.sol\":8182:8194  return heirs */\n              dup1\n              sload\n              dup1\n              0x20\n              mul\n              0x20\n              add\n              mload(0x40)\n              swap1\n              dup2\n              add\n              0x40\n              mstore\n              dup1\n              swap3\n              swap2\n              swap1\n              dup2\n              dup2\n              mstore\n              0x20\n              add\n              0x00\n              swap1\n            tag_209:\n              dup3\n              dup3\n              lt\n              iszero\n              tag_210\n              jumpi\n              0x00\n              dup5\n              dup2\n              mstore\n              0x20\n              swap1\n              dup2\n              swap1\n              keccak256\n              0x40\n              dup1\n              mload\n              0xa0\n              dup2\n              add\n              dup3\n              mstore\n              0x05\n              dup7\n              mul\n              swap1\n              swap3\n              add\n              dup1\n              sload\n              sub(shl(0xa0, 0x01), 0x01)\n              and\n              dup4\n              mstore\n              0x01\n              dup2\n              add\n              sload\n              dup4\n              dup6\n              add\n              mstore\n              0x02\n              dup2\n              add\n              sload\n              dup4\n              dup4\n              add\n              mstore\n              0x03\n              dup2\n              add\n              sload\n              0x60\n              dup5\n              add\n              mstore\n              0x04\n              dup2\n              add\n              dup1\n              sload\n              dup4\n              mload\n              dup2\n              dup8\n              mul\n              dup2\n              add\n              dup8\n              add\n              swap1\n              swap5\n              mstore\n              dup1\n              dup5\n              mstore\n              swap4\n              swap5\n              swap2\n              swap4\n              0x80\n              dup7\n              add\n              swap4\n              swap3\n              dup4\n              add\n              dup3\n              dup3\n              dup1\n              iszero\n              tag_212\n              jumpi\n              0x20\n              mul\n              dup3\n              add\n              swap2\n              swap1\n              0x00\n              mstore\n              keccak256(0x00, 0x20)\n              swap1\n            tag_213:\n              dup2\n              sload\n              dup2\n              mstore\n              0x20\n              add\n              swap1\n              0x01\n              add\n              swap1\n              dup1\n              dup4\n              gt\n              tag_213\n              jumpi\n            tag_212:\n              pop\n              pop\n              pop\n              pop\n              pop\n              dup2\n              mstore\n              pop\n              pop\n              dup2\n              mstore\n              0x20\n              add\n              swap1\n              0x01\n              add\n              swap1\n              jump(tag_209)\n            tag_210:\n              pop\n              pop\n              pop\n              pop\n              swap1\n              pop\n                /* \"Inheritance.sol\":8116:8201  function getHeirs() public view returns (Heir[] memory) {... */\n              swap1\n              jump\t// out\n                /* \"@openzeppelin/contracts/access/Ownable.sol\":1831:1932   */\n            tag_70:\n                /* \"@openzeppelin/contracts/access/Ownable.sol\":1094:1107   */\n              tag_215\n                /* \"@openzeppelin/contracts/access/Ownable.sol\":1094:1105   */\n              tag_132\n                /* \"@openzeppelin/contracts/access/Ownable.sol\":1094:1107   */\n              jump\t// in\n            tag_215:\n                /* \"@openzeppelin/contracts/access/Ownable.sol\":1895:1925   */\n              tag_217\n                /* \"@openzeppelin/contracts/access/Ownable.sol\":1922:1923   */\n              0x00\n                /* \"@openzeppelin/contracts/access/Ownable.sol\":1895:1913   */\n              tag_218\n                /* \"@openzeppelin/contracts/access/Ownable.sol\":1895:1925   */\n              jump\t// in\n            tag_217:\n                /* \"@openzeppelin/contracts/access/Ownable.sol\":1831:1932   */\n              jump\t// out\n                /* \"Inheritance.sol\":5053:5472  function acceptInheritanceRequest(uint index, address requester, uint256 share) public onlyOwner acceptInheritanceValidations(index, requester, share) {... */\n            tag_75:\n                /* \"@openzeppelin/contracts/access/Ownable.sol\":1094:1107   */\n              tag_220\n                /* \"@openzeppelin/contracts/access/Ownable.sol\":1094:1105   */\n              tag_132\n                /* \"@openzeppelin/contracts/access/Ownable.sol\":1094:1107   */\n              jump\t// in\n            tag_220:\n                /* \"Inheritance.sol\":5179:5184  index */\n              dup3\n                /* \"Inheritance.sol\":5186:5195  requester */\n              dup3\n                /* \"Inheritance.sol\":5197:5202  share */\n              dup3\n                /* \"Inheritance.sol\":9630:9649  inheritanceRequests */\n              0x05\n                /* \"Inheritance.sol\":9630:9656  inheritanceRequests.length */\n              dup1\n              sload\n              swap1\n              pop\n                /* \"Inheritance.sol\":9622:9627  index */\n              dup4\n                /* \"Inheritance.sol\":9622:9656  index < inheritanceRequests.length */\n              lt\n                /* \"Inheritance.sol\":9614:9717  require(index < inheritanceRequests.length, \"The index sent is bigger than the requests array length.\") */\n              tag_222\n              jumpi\n              mload(0x40)\n              shl(0xe5, 0x461bcd)\n              dup2\n              mstore\n              0x04\n              add\n              tag_138\n              swap1\n              tag_224\n              jump\t// in\n            tag_222:\n                /* \"Inheritance.sol\":9765:9769  addr */\n              dup2\n              sub(shl(0xa0, 0x01), 0x01)\n                /* \"Inheritance.sol\":9735:9769  inheritanceRequests[index] == addr */\n              and\n                /* \"Inheritance.sol\":9735:9754  inheritanceRequests */\n              0x05\n                /* \"Inheritance.sol\":9755:9760  index */\n              dup5\n                /* \"Inheritance.sol\":9735:9761  inheritanceRequests[index] */\n              dup2\n              sload\n              dup2\n              lt\n              tag_226\n              jumpi\n              tag_226\n              tag_148\n              jump\t// in\n            tag_226:\n              0x00\n              swap2\n              dup3\n              mstore\n              0x20\n              swap1\n              swap2\n              keccak256\n              add\n              sload\n              sub(shl(0xa0, 0x01), 0x01)\n              and\n                /* \"Inheritance.sol\":9735:9769  inheritanceRequests[index] == addr */\n              eq\n                /* \"Inheritance.sol\":9727:9847  require(inheritanceRequests[index] == addr, \"Address sent doesn't match with the address stored in the requests array.\") */\n              tag_228\n              jumpi\n              mload(0x40)\n              shl(0xe5, 0x461bcd)\n              dup2\n              mstore\n              0x04\n              add\n              tag_138\n              swap1\n              tag_230\n              jump\t// in\n            tag_228:\n                /* \"Inheritance.sol\":9858:9877  uint256 totalShares */\n              0x00\n                /* \"Inheritance.sol\":9895:9901  uint i */\n              dup1\n                /* \"Inheritance.sol\":9891:10070  for(uint i = 0; i < heirs.length; i++) {... */\n            tag_231:\n                /* \"Inheritance.sol\":9911:9916  heirs */\n              0x04\n                /* \"Inheritance.sol\":9911:9923  heirs.length */\n              sload\n                /* \"Inheritance.sol\":9907:9923  i < heirs.length */\n              dup2\n              lt\n                /* \"Inheritance.sol\":9891:10070  for(uint i = 0; i < heirs.length; i++) {... */\n              iszero\n              tag_232\n              jumpi\n                /* \"Inheritance.sol\":9969:9973  addr */\n              dup4\n              sub(shl(0xa0, 0x01), 0x01)\n                /* \"Inheritance.sol\":9952:9973  heirs[i].heir != addr */\n              and\n                /* \"Inheritance.sol\":9952:9957  heirs */\n              0x04\n                /* \"Inheritance.sol\":9958:9959  i */\n              dup3\n                /* \"Inheritance.sol\":9952:9960  heirs[i] */\n              dup2\n              sload\n              dup2\n              lt\n              tag_235\n              jumpi\n              tag_235\n              tag_148\n              jump\t// in\n            tag_235:\n              0x00\n              swap2\n              dup3\n              mstore\n              0x20\n              swap1\n              swap2\n              keccak256\n              0x05\n              swap1\n              swap2\n              mul\n              add\n                /* \"Inheritance.sol\":9952:9965  heirs[i].heir */\n              sload\n              sub(shl(0xa0, 0x01), 0x01)\n              and\n                /* \"Inheritance.sol\":9952:9973  heirs[i].heir != addr */\n              sub\n                /* \"Inheritance.sol\":9944:10016  require(heirs[i].heir != addr, \"Address already exists in heirs array.\") */\n              tag_237\n              jumpi\n              mload(0x40)\n              shl(0xe5, 0x461bcd)\n              dup2\n              mstore\n                /* \"#utility.yul\":9694:9696   */\n              0x20\n                /* \"Inheritance.sol\":9944:10016  require(heirs[i].heir != addr, \"Address already exists in heirs array.\") */\n              0x04\n              dup3\n              add\n                /* \"#utility.yul\":9676:9697   */\n              mstore\n                /* \"#utility.yul\":9733:9735   */\n              0x26\n                /* \"#utility.yul\":9713:9731   */\n              0x24\n              dup3\n              add\n                /* \"#utility.yul\":9706:9736   */\n              mstore\n                /* \"#utility.yul\":9772:9806   */\n              0x4164647265737320616c72656164792065786973747320696e20686569727320\n                /* \"#utility.yul\":9752:9770   */\n              0x44\n              dup3\n              add\n                /* \"#utility.yul\":9745:9807   */\n              mstore\n              shl(0xd1, 0x30b93930bc97)\n                /* \"#utility.yul\":9823:9841   */\n              0x64\n              dup3\n              add\n                /* \"#utility.yul\":9816:9852   */\n              mstore\n                /* \"#utility.yul\":9869:9888   */\n              0x84\n              add\n                /* \"Inheritance.sol\":9944:10016  require(heirs[i].heir != addr, \"Address already exists in heirs array.\") */\n              tag_138\n                /* \"#utility.yul\":9492:9894   */\n              jump\n                /* \"Inheritance.sol\":9944:10016  require(heirs[i].heir != addr, \"Address already exists in heirs array.\") */\n            tag_237:\n                /* \"Inheritance.sol\":10045:10050  heirs */\n              0x04\n                /* \"Inheritance.sol\":10051:10052  i */\n              dup2\n                /* \"Inheritance.sol\":10045:10053  heirs[i] */\n              dup2\n              sload\n              dup2\n              lt\n              tag_241\n              jumpi\n              tag_241\n              tag_148\n              jump\t// in\n            tag_241:\n              swap1\n              0x00\n              mstore\n              keccak256(0x00, 0x20)\n              swap1\n              0x05\n              mul\n              add\n                /* \"Inheritance.sol\":10045:10059  heirs[i].share */\n              0x01\n              add\n              sload\n                /* \"Inheritance.sol\":10030:10059  totalShares += heirs[i].share */\n              dup3\n              tag_243\n              swap2\n              swap1\n              tag_244\n              jump\t// in\n            tag_243:\n              swap2\n              pop\n                /* \"Inheritance.sol\":9925:9928  i++ */\n              dup1\n              tag_245\n              dup2\n              tag_154\n              jump\t// in\n            tag_245:\n              swap2\n              pop\n              pop\n                /* \"Inheritance.sol\":9891:10070  for(uint i = 0; i < heirs.length; i++) {... */\n              jump(tag_231)\n            tag_232:\n              pop\n                /* \"Inheritance.sol\":10113:10116  100 */\n              0x64\n                /* \"Inheritance.sol\":10089:10108  totalShares + share */\n              tag_246\n                /* \"Inheritance.sol\":10103:10108  share */\n              dup4\n                /* \"Inheritance.sol\":10089:10100  totalShares */\n              dup4\n                /* \"Inheritance.sol\":10089:10108  totalShares + share */\n              tag_244\n              jump\t// in\n            tag_246:\n                /* \"Inheritance.sol\":10088:10116  (totalShares + share) <= 100 */\n              gt\n              iszero\n                /* \"Inheritance.sol\":10080:10213  require((totalShares + share) <= 100, \"the amount of shares exceed the 100% of the Inheritance, try with a smaller amount of share.\") */\n              tag_247\n              jumpi\n              mload(0x40)\n              shl(0xe5, 0x461bcd)\n              dup2\n              mstore\n                /* \"#utility.yul\":10231:10233   */\n              0x20\n                /* \"Inheritance.sol\":10080:10213  require((totalShares + share) <= 100, \"the amount of shares exceed the 100% of the Inheritance, try with a smaller amount of share.\") */\n              0x04\n              dup3\n              add\n                /* \"#utility.yul\":10213:10234   */\n              mstore\n                /* \"#utility.yul\":10270:10272   */\n              0x5c\n                /* \"#utility.yul\":10250:10268   */\n              0x24\n              dup3\n              add\n                /* \"#utility.yul\":10243:10273   */\n              mstore\n                /* \"#utility.yul\":10309:10343   */\n              0x74686520616d6f756e74206f6620736861726573206578636565642074686520\n                /* \"#utility.yul\":10289:10307   */\n              0x44\n              dup3\n              add\n                /* \"#utility.yul\":10282:10344   */\n              mstore\n                /* \"#utility.yul\":10380:10414   */\n              0x31303025206f662074686520496e6865726974616e63652c2074727920776974\n                /* \"#utility.yul\":10360:10378   */\n              0x64\n              dup3\n              add\n                /* \"#utility.yul\":10353:10415   */\n              mstore\n                /* \"#utility.yul\":10452:10482   */\n              0x68206120736d616c6c657220616d6f756e74206f662073686172652e00000000\n                /* \"#utility.yul\":10431:10450   */\n              0x84\n              dup3\n              add\n                /* \"#utility.yul\":10424:10483   */\n              mstore\n                /* \"#utility.yul\":10500:10519   */\n              0xa4\n              add\n                /* \"Inheritance.sol\":10080:10213  require((totalShares + share) <= 100, \"the amount of shares exceed the 100% of the Inheritance, try with a smaller amount of share.\") */\n              tag_138\n                /* \"#utility.yul\":10029:10525   */\n              jump\n                /* \"Inheritance.sol\":10080:10213  require((totalShares + share) <= 100, \"the amount of shares exceed the 100% of the Inheritance, try with a smaller amount of share.\") */\n            tag_247:\n                /* \"Inheritance.sol\":5262:5302  Heir(requester, share, 0, 0, emptyArray) */\n              0x40\n              dup1\n              mload\n              0xa0\n              dup2\n              add\n              dup3\n              mstore\n              sub(shl(0xa0, 0x01), 0x01)\n              dup9\n              dup2\n              and\n              dup3\n              mstore\n              0x20\n              dup1\n              dup4\n              add\n              dup10\n              dup2\n              mstore\n              0x00\n              swap5\n              dup5\n              add\n              dup6\n              dup2\n              mstore\n                /* \"Inheritance.sol\":5214:5241  uint256[] memory emptyArray */\n              0x60\n                /* \"Inheritance.sol\":5262:5302  Heir(requester, share, 0, 0, emptyArray) */\n              dup1\n              dup7\n              add\n              dup8\n              dup2\n              mstore\n              0x80\n              dup8\n              add\n              dup3\n              dup2\n              mstore\n                /* \"Inheritance.sol\":5251:5256  heirs */\n              0x04\n                /* \"Inheritance.sol\":5251:5303  heirs.push(Heir(requester, share, 0, 0, emptyArray)) */\n              dup1\n              sload\n              0x01\n              dup2\n              add\n              dup3\n              sstore\n              swap10\n              mstore\n              dup8\n              mload\n              0x8a35acfbc15ff81a39ae7d344fd709f28e8600b4aa8c65c6b64bfe7fe36bd19b\n              0x05\n              swap1\n              swap11\n              mul\n              swap10\n              dup11\n              add\n              dup1\n              sload\n              not(sub(shl(0xa0, 0x01), 0x01))\n              and\n              swap2\n              swap1\n              swap9\n              and\n              or\n              dup8\n              sstore\n              swap4\n              mload\n              0x8a35acfbc15ff81a39ae7d344fd709f28e8600b4aa8c65c6b64bfe7fe36bd19c\n              dup10\n              add\n              sstore\n              swap2\n              mload\n              0x8a35acfbc15ff81a39ae7d344fd709f28e8600b4aa8c65c6b64bfe7fe36bd19d\n              dup9\n              add\n              sstore\n              swap1\n              mload\n              0x8a35acfbc15ff81a39ae7d344fd709f28e8600b4aa8c65c6b64bfe7fe36bd19e\n              dup8\n              add\n              sstore\n              swap1\n              mload\n              dup1\n              mload\n                /* \"Inheritance.sol\":5214:5241  uint256[] memory emptyArray */\n              swap2\n              swap6\n                /* \"Inheritance.sol\":5251:5303  heirs.push(Heir(requester, share, 0, 0, emptyArray)) */\n              tag_252\n              swap4\n              0x8a35acfbc15ff81a39ae7d344fd709f28e8600b4aa8c65c6b64bfe7fe36bd19f\n              swap1\n              swap2\n              add\n              swap3\n              swap2\n              add\n              swap1\n              tag_253\n              jump\t// in\n            tag_252:\n              pop\n              pop\n              pop\n                /* \"Inheritance.sol\":5313:5333  removeRequest(index) */\n              tag_254\n                /* \"Inheritance.sol\":5327:5332  index */\n              dup9\n                /* \"Inheritance.sol\":5313:5326  removeRequest */\n              tag_255\n                /* \"Inheritance.sol\":5313:5333  removeRequest(index) */\n              jump\t// in\n            tag_254:\n                /* \"Inheritance.sol\":5424:5443  inheritanceRequests */\n              0x05\n                /* \"Inheritance.sol\":5424:5450  inheritanceRequests.length */\n              sload\n                /* \"Inheritance.sol\":5452:5457  heirs */\n              0x04\n                /* \"Inheritance.sol\":5452:5464  heirs.length */\n              sload\n                /* \"Inheritance.sol\":5348:5465  LogHeirAccepted(\"Administrator accepts user as an heir.\", requester, share, inheritanceRequests.length, heirs.length) */\n              0x40\n              dup1\n              mload\n                /* \"#utility.yul\":10816:10819   */\n              0x80\n                /* \"#utility.yul\":10798:10820   */\n              dup1\n              dup3\n              mstore\n                /* \"#utility.yul\":10857:10859   */\n              0x26\n                /* \"#utility.yul\":10836:10855   */\n              swap1\n              dup3\n              add\n                /* \"#utility.yul\":10829:10860   */\n              mstore\n                /* \"#utility.yul\":10897:10931   */\n              0x41646d696e6973747261746f722061636365707473207573657220617320616e\n                /* \"#utility.yul\":10891:10894   */\n              0xa0\n                /* \"#utility.yul\":10876:10895   */\n              dup3\n              add\n                /* \"#utility.yul\":10869:10932   */\n              mstore\n              shl(0xd1, 0x103432b4b917)\n                /* \"#utility.yul\":10963:10966   */\n              0xc0\n                /* \"#utility.yul\":10948:10967   */\n              dup3\n              add\n                /* \"#utility.yul\":10941:10978   */\n              mstore\n                /* \"#utility.yul\":11045:11049   */\n              0x20\n                /* \"#utility.yul\":11030:11050   */\n              dup2\n              add\n                /* \"#utility.yul\":11023:11059   */\n              dup11\n              swap1\n              mstore\n                /* \"#utility.yul\":11075:11093   */\n              swap1\n              dup2\n              add\n                /* \"#utility.yul\":11068:11102   */\n              swap3\n              swap1\n              swap3\n              mstore\n              0x60\n                /* \"#utility.yul\":11118:11136   */\n              dup3\n              add\n                /* \"#utility.yul\":11111:11145   */\n              mstore\n              sub(shl(0xa0, 0x01), 0x01)\n                /* \"Inheritance.sol\":5348:5465  LogHeirAccepted(\"Administrator accepts user as an heir.\", requester, share, inheritanceRequests.length, heirs.length) */\n              dup9\n              and\n              swap1\n              0x14aa904c12fa948b33e901e688a79d46fe3d46a383a5b181c26475cec40d67ec\n              swap1\n                /* \"#utility.yul\":11010:11013   */\n              0xe0\n                /* \"#utility.yul\":10995:11014   */\n              add\n                /* \"Inheritance.sol\":5348:5465  LogHeirAccepted(\"Administrator accepts user as an heir.\", requester, share, inheritanceRequests.length, heirs.length) */\n              mload(0x40)\n              dup1\n              swap2\n              sub\n              swap1\n              log2\n                /* \"Inheritance.sol\":5204:5472  {... */\n              pop\n                /* \"Inheritance.sol\":9604:10231  {... */\n              pop\n                /* \"@openzeppelin/contracts/access/Ownable.sol\":1117:1118   */\n              pop\n              pop\n              pop\n                /* \"Inheritance.sol\":5053:5472  function acceptInheritanceRequest(uint index, address requester, uint256 share) public onlyOwner acceptInheritanceValidations(index, requester, share) {... */\n              pop\n              pop\n              pop\n              jump\t// out\n                /* \"Inheritance.sol\":6029:7270  function claimInheritance() public isHeir(msg.sender) {... */\n            tag_83:\n                /* \"Inheritance.sol\":6071:6081  msg.sender */\n              caller\n                /* \"Inheritance.sol\":10615:10629  bool isPresent */\n              0x00\n                /* \"Inheritance.sol\":10651:10657  uint i */\n              dup1\n                /* \"Inheritance.sol\":10647:10785  for(uint i = 0; i < heirs.length; i++) {... */\n            tag_260:\n                /* \"Inheritance.sol\":10667:10672  heirs */\n              0x04\n                /* \"Inheritance.sol\":10667:10679  heirs.length */\n              sload\n                /* \"Inheritance.sol\":10663:10679  i < heirs.length */\n              dup2\n              lt\n                /* \"Inheritance.sol\":10647:10785  for(uint i = 0; i < heirs.length; i++) {... */\n              iszero\n              tag_261\n              jumpi\n                /* \"Inheritance.sol\":10720:10724  addr */\n              dup3\n              sub(shl(0xa0, 0x01), 0x01)\n                /* \"Inheritance.sol\":10703:10724  heirs[i].heir == addr */\n              and\n                /* \"Inheritance.sol\":10703:10708  heirs */\n              0x04\n                /* \"Inheritance.sol\":10709:10710  i */\n              dup3\n                /* \"Inheritance.sol\":10703:10711  heirs[i] */\n              dup2\n              sload\n              dup2\n              lt\n              tag_264\n              jumpi\n              tag_264\n              tag_148\n              jump\t// in\n            tag_264:\n              0x00\n              swap2\n              dup3\n              mstore\n              0x20\n              swap1\n              swap2\n              keccak256\n              0x05\n              swap1\n              swap2\n              mul\n              add\n                /* \"Inheritance.sol\":10703:10716  heirs[i].heir */\n              sload\n              sub(shl(0xa0, 0x01), 0x01)\n              and\n                /* \"Inheritance.sol\":10703:10724  heirs[i].heir == addr */\n              sub\n                /* \"Inheritance.sol\":10700:10775  if(heirs[i].heir == addr) {... */\n              tag_266\n              jumpi\n                /* \"Inheritance.sol\":10756:10760  true */\n              0x01\n                /* \"Inheritance.sol\":10744:10760  isPresent = true */\n              swap2\n              pop\n                /* \"Inheritance.sol\":10700:10775  if(heirs[i].heir == addr) {... */\n            tag_266:\n                /* \"Inheritance.sol\":10681:10684  i++ */\n              dup1\n              tag_267\n              dup2\n              tag_154\n              jump\t// in\n            tag_267:\n              swap2\n              pop\n              pop\n                /* \"Inheritance.sol\":10647:10785  for(uint i = 0; i < heirs.length; i++) {... */\n              jump(tag_260)\n            tag_261:\n              pop\n                /* \"Inheritance.sol\":10815:10819  true */\n              0x01\n                /* \"Inheritance.sol\":10802:10819  isPresent == true */\n              dup2\n              iszero\n              iszero\n              eq\n                /* \"Inheritance.sol\":10794:10875  require(isPresent == true, \"The address claiming the inheritance is not a Heir.\") */\n              tag_268\n              jumpi\n              mload(0x40)\n              shl(0xe5, 0x461bcd)\n              dup2\n              mstore\n                /* \"#utility.yul\":11358:11360   */\n              0x20\n                /* \"Inheritance.sol\":10794:10875  require(isPresent == true, \"The address claiming the inheritance is not a Heir.\") */\n              0x04\n              dup3\n              add\n                /* \"#utility.yul\":11340:11361   */\n              mstore\n                /* \"#utility.yul\":11397:11399   */\n              0x33\n                /* \"#utility.yul\":11377:11395   */\n              0x24\n              dup3\n              add\n                /* \"#utility.yul\":11370:11400   */\n              mstore\n                /* \"#utility.yul\":11436:11470   */\n              0x546865206164647265737320636c61696d696e672074686520696e6865726974\n                /* \"#utility.yul\":11416:11434   */\n              0x44\n              dup3\n              add\n                /* \"#utility.yul\":11409:11471   */\n              mstore\n              shl(0x69, 0x30b731b29034b9903737ba1030902432b4b917)\n                /* \"#utility.yul\":11487:11505   */\n              0x64\n              dup3\n              add\n                /* \"#utility.yul\":11480:11529   */\n              mstore\n                /* \"#utility.yul\":11546:11565   */\n              0x84\n              add\n                /* \"Inheritance.sol\":10794:10875  require(isPresent == true, \"The address claiming the inheritance is not a Heir.\") */\n              tag_138\n                /* \"#utility.yul\":11156:11571   */\n              jump\n                /* \"Inheritance.sol\":10794:10875  require(isPresent == true, \"The address claiming the inheritance is not a Heir.\") */\n            tag_268:\n                /* \"Inheritance.sol\":6098:6119  isAdministratorDead() */\n              tag_272\n                /* \"Inheritance.sol\":6098:6117  isAdministratorDead */\n              tag_30\n                /* \"Inheritance.sol\":6098:6119  isAdministratorDead() */\n              jump\t// in\n            tag_272:\n                /* \"Inheritance.sol\":6094:7264  if (isAdministratorDead()) {... */\n              iszero\n              tag_169\n              jumpi\n                /* \"Inheritance.sol\":6135:6158  uint256 usdcInheritance */\n              0x00\n                /* \"Inheritance.sol\":6161:6177  getUSDCBalance() */\n              tag_274\n                /* \"Inheritance.sol\":6161:6175  getUSDCBalance */\n              tag_55\n                /* \"Inheritance.sol\":6161:6177  getUSDCBalance() */\n              jump\t// in\n            tag_274:\n                /* \"Inheritance.sol\":6135:6177  uint256 usdcInheritance = getUSDCBalance() */\n              swap1\n              pop\n                /* \"Inheritance.sol\":7834:7855  address(this).balance */\n              selfbalance\n                /* \"Inheritance.sol\":6191:6215  uint256 etherInheritance */\n              0x00\n                /* \"Inheritance.sol\":6272:6288  getTotalShares() */\n              tag_276\n                /* \"Inheritance.sol\":6272:6286  getTotalShares */\n              tag_95\n                /* \"Inheritance.sol\":6272:6288  getTotalShares() */\n              jump\t// in\n            tag_276:\n                /* \"Inheritance.sol\":6250:6288  uint256 totalShares = getTotalShares() */\n              swap1\n              pop\n                /* \"Inheritance.sol\":6308:6314  uint i */\n              0x00\n                /* \"Inheritance.sol\":6303:6546  for (uint i = 0; i < heirs.length; i++) {... */\n            tag_277:\n                /* \"Inheritance.sol\":6324:6329  heirs */\n              0x04\n                /* \"Inheritance.sol\":6324:6336  heirs.length */\n              sload\n                /* \"Inheritance.sol\":6320:6336  i < heirs.length */\n              dup2\n              lt\n                /* \"Inheritance.sol\":6303:6546  for (uint i = 0; i < heirs.length; i++) {... */\n              iszero\n              tag_278\n              jumpi\n                /* \"Inheritance.sol\":6425:6436  totalShares */\n              dup2\n                /* \"Inheritance.sol\":6406:6421  usdcInheritance */\n              dup5\n                /* \"Inheritance.sol\":6389:6394  heirs */\n              0x04\n                /* \"Inheritance.sol\":6395:6396  i */\n              dup4\n                /* \"Inheritance.sol\":6389:6397  heirs[i] */\n              dup2\n              sload\n              dup2\n              lt\n              tag_281\n              jumpi\n              tag_281\n              tag_148\n              jump\t// in\n            tag_281:\n              swap1\n              0x00\n              mstore\n              keccak256(0x00, 0x20)\n              swap1\n              0x05\n              mul\n              add\n                /* \"Inheritance.sol\":6389:6403  heirs[i].share */\n              0x01\n              add\n              sload\n                /* \"Inheritance.sol\":6389:6421  heirs[i].share * usdcInheritance */\n              tag_283\n              swap2\n              swap1\n              tag_284\n              jump\t// in\n            tag_283:\n                /* \"Inheritance.sol\":6388:6436  (heirs[i].share * usdcInheritance) / totalShares */\n              tag_285\n              swap2\n              swap1\n              tag_286\n              jump\t// in\n            tag_285:\n                /* \"Inheritance.sol\":6361:6370  heirsUSDC */\n              0x06\n                /* \"Inheritance.sol\":6361:6385  heirsUSDC[heirs[i].heir] */\n              0x00\n                /* \"Inheritance.sol\":6371:6376  heirs */\n              0x04\n                /* \"Inheritance.sol\":6377:6378  i */\n              dup5\n                /* \"Inheritance.sol\":6371:6379  heirs[i] */\n              dup2\n              sload\n              dup2\n              lt\n              tag_288\n              jumpi\n              tag_288\n              tag_148\n              jump\t// in\n            tag_288:\n              0x00\n              swap2\n              dup3\n              mstore\n              0x20\n              dup1\n              dup4\n              keccak256\n              0x05\n              swap1\n              swap3\n              mul\n              swap1\n              swap2\n              add\n                /* \"Inheritance.sol\":6371:6384  heirs[i].heir */\n              sload\n              sub(shl(0xa0, 0x01), 0x01)\n              and\n                /* \"Inheritance.sol\":6361:6385  heirsUSDC[heirs[i].heir] */\n              dup4\n              mstore\n              dup3\n              add\n              swap3\n              swap1\n              swap3\n              mstore\n              0x40\n              add\n              swap1\n              keccak256\n                /* \"Inheritance.sol\":6361:6436  heirsUSDC[heirs[i].heir] = (heirs[i].share * usdcInheritance) / totalShares */\n              sstore\n                /* \"Inheritance.sol\":6483:6488  heirs */\n              0x04\n                /* \"Inheritance.sol\":6483:6491  heirs[i] */\n              dup1\n              sload\n                /* \"Inheritance.sol\":6520:6531  totalShares */\n              dup4\n              swap2\n                /* \"Inheritance.sol\":6500:6516  etherInheritance */\n              dup6\n              swap2\n                /* \"Inheritance.sol\":6489:6490  i */\n              dup5\n              swap1\n                /* \"Inheritance.sol\":6483:6491  heirs[i] */\n              dup2\n              lt\n              tag_291\n              jumpi\n              tag_291\n              tag_148\n              jump\t// in\n            tag_291:\n              swap1\n              0x00\n              mstore\n              keccak256(0x00, 0x20)\n              swap1\n              0x05\n              mul\n              add\n                /* \"Inheritance.sol\":6483:6497  heirs[i].share */\n              0x01\n              add\n              sload\n                /* \"Inheritance.sol\":6483:6516  heirs[i].share * etherInheritance */\n              tag_293\n              swap2\n              swap1\n              tag_284\n              jump\t// in\n            tag_293:\n                /* \"Inheritance.sol\":6482:6531  (heirs[i].share * etherInheritance) / totalShares */\n              tag_294\n              swap2\n              swap1\n              tag_286\n              jump\t// in\n            tag_294:\n                /* \"Inheritance.sol\":6454:6464  heirsEther */\n              0x07\n                /* \"Inheritance.sol\":6454:6479  heirsEther[heirs[i].heir] */\n              0x00\n                /* \"Inheritance.sol\":6465:6470  heirs */\n              0x04\n                /* \"Inheritance.sol\":6471:6472  i */\n              dup5\n                /* \"Inheritance.sol\":6465:6473  heirs[i] */\n              dup2\n              sload\n              dup2\n              lt\n              tag_296\n              jumpi\n              tag_296\n              tag_148\n              jump\t// in\n            tag_296:\n              0x00\n              swap2\n              dup3\n              mstore\n              0x20\n              dup1\n              dup4\n              keccak256\n              0x05\n              swap1\n              swap3\n              mul\n              swap1\n              swap2\n              add\n                /* \"Inheritance.sol\":6465:6478  heirs[i].heir */\n              sload\n              sub(shl(0xa0, 0x01), 0x01)\n              and\n                /* \"Inheritance.sol\":6454:6479  heirsEther[heirs[i].heir] */\n              dup4\n              mstore\n              dup3\n              add\n              swap3\n              swap1\n              swap3\n              mstore\n              0x40\n              add\n              swap1\n              keccak256\n                /* \"Inheritance.sol\":6454:6531  heirsEther[heirs[i].heir] = (heirs[i].share * etherInheritance) / totalShares */\n              sstore\n                /* \"Inheritance.sol\":6338:6341  i++ */\n              dup1\n              tag_298\n              dup2\n              tag_154\n              jump\t// in\n            tag_298:\n              swap2\n              pop\n              pop\n                /* \"Inheritance.sol\":6303:6546  for (uint i = 0; i < heirs.length; i++) {... */\n              jump(tag_277)\n            tag_278:\n              pop\n                /* \"Inheritance.sol\":6560:6579  address heirAddress */\n              0x00\n              dup1\n                /* \"Inheritance.sol\":6593:7254  for (uint i = 0; i < heirs.length; i++) {... */\n            tag_299:\n                /* \"Inheritance.sol\":6614:6619  heirs */\n              0x04\n                /* \"Inheritance.sol\":6614:6626  heirs.length */\n              sload\n                /* \"Inheritance.sol\":6610:6626  i < heirs.length */\n              dup2\n              lt\n                /* \"Inheritance.sol\":6593:7254  for (uint i = 0; i < heirs.length; i++) {... */\n              iszero\n              tag_300\n              jumpi\n                /* \"Inheritance.sol\":6665:6670  heirs */\n              0x04\n                /* \"Inheritance.sol\":6671:6672  i */\n              dup2\n                /* \"Inheritance.sol\":6665:6673  heirs[i] */\n              dup2\n              sload\n              dup2\n              lt\n              tag_303\n              jumpi\n              tag_303\n              tag_148\n              jump\t// in\n            tag_303:\n              0x00\n              swap2\n              dup3\n              mstore\n              0x20\n              dup1\n              dup4\n              keccak256\n              0x05\n              swap1\n              swap3\n              mul\n              swap1\n              swap2\n              add\n                /* \"Inheritance.sol\":6665:6678  heirs[i].heir */\n              sload\n              sub(shl(0xa0, 0x01), 0x01)\n              and\n                /* \"Inheritance.sol\":6727:6750  heirsEther[heirAddress] */\n              dup1\n              dup4\n              mstore\n                /* \"Inheritance.sol\":6727:6737  heirsEther */\n              0x07\n                /* \"Inheritance.sol\":6727:6750  heirsEther[heirAddress] */\n              swap1\n              swap2\n              mstore\n              0x40\n              dup1\n              dup4\n              keccak256\n              sload\n                /* \"Inheritance.sol\":6697:6751  payable(heirAddress).transfer(heirsEther[heirAddress]) */\n              swap1\n              mload\n                /* \"Inheritance.sol\":6665:6678  heirs[i].heir */\n              swap2\n              swap5\n              pop\n              dup5\n              swap3\n                /* \"Inheritance.sol\":6697:6751  payable(heirAddress).transfer(heirsEther[heirAddress]) */\n              dup2\n              iszero\n              0x08fc\n              mul\n              swap3\n              swap1\n              dup2\n                /* \"Inheritance.sol\":6665:6673  heirs[i] */\n              dup2\n                /* \"Inheritance.sol\":6697:6751  payable(heirAddress).transfer(heirsEther[heirAddress]) */\n              dup2\n                /* \"Inheritance.sol\":6727:6750  heirsEther[heirAddress] */\n              dup6\n                /* \"Inheritance.sol\":6665:6678  heirs[i].heir */\n              dup9\n                /* \"Inheritance.sol\":6697:6751  payable(heirAddress).transfer(heirsEther[heirAddress]) */\n              dup9\n              call\n              swap4\n              pop\n              pop\n              pop\n              pop\n              iszero\n              dup1\n              iszero\n              tag_306\n              jumpi\n              returndatasize\n              0x00\n              dup1\n              returndatacopy\n              revert(0x00, returndatasize)\n            tag_306:\n              pop\n              sub(shl(0xa0, 0x01), 0x01)\n                /* \"Inheritance.sol\":6793:6816  heirsEther[heirAddress] */\n              dup3\n              and\n              0x00\n              swap1\n              dup2\n              mstore\n                /* \"Inheritance.sol\":6793:6803  heirsEther */\n              0x07\n                /* \"Inheritance.sol\":6793:6816  heirsEther[heirAddress] */\n              0x20\n              mstore\n              0x40\n              swap1\n              keccak256\n              sload\n                /* \"Inheritance.sol\":6769:6774  heirs */\n              0x04\n                /* \"Inheritance.sol\":6769:6777  heirs[i] */\n              dup1\n              sload\n                /* \"Inheritance.sol\":6775:6776  i */\n              dup4\n              swap1\n                /* \"Inheritance.sol\":6769:6777  heirs[i] */\n              dup2\n              lt\n              tag_308\n              jumpi\n              tag_308\n              tag_148\n              jump\t// in\n            tag_308:\n              0x00\n              swap2\n              dup3\n              mstore\n              0x20\n              dup1\n              dup4\n              keccak256\n              0x05\n              swap3\n              swap1\n              swap3\n              mul\n              swap1\n              swap2\n              add\n                /* \"Inheritance.sol\":6769:6790  heirs[i].etherBalance */\n              0x02\n              add\n                /* \"Inheritance.sol\":6769:6816  heirs[i].etherBalance = heirsEther[heirAddress] */\n              swap3\n              swap1\n              swap3\n              sstore\n                /* \"Inheritance.sol\":6843:6848  token */\n              sload(0x08)\n              sub(shl(0xa0, 0x01), 0x01)\n                /* \"Inheritance.sol\":6871:6893  heirsUSDC[heirAddress] */\n              dup6\n              dup2\n              and\n              dup1\n              dup5\n              mstore\n                /* \"Inheritance.sol\":6871:6880  heirsUSDC */\n              0x06\n                /* \"Inheritance.sol\":6871:6893  heirsUSDC[heirAddress] */\n              swap1\n              swap5\n              mstore\n              0x40\n              swap3\n              dup4\n              swap1\n              keccak256\n              sload\n                /* \"Inheritance.sol\":6843:6894  token.transfer(heirAddress, heirsUSDC[heirAddress]) */\n              swap3\n              mload\n              shl(0xe0, 0xa9059cbb)\n              dup2\n              mstore\n              0x04\n              dup2\n              add\n                /* \"#utility.yul\":4846:4897   */\n              swap5\n              swap1\n              swap5\n              mstore\n                /* \"#utility.yul\":4913:4931   */\n              0x24\n              dup5\n              add\n                /* \"#utility.yul\":4906:4940   */\n              swap3\n              swap1\n              swap3\n              mstore\n                /* \"Inheritance.sol\":6843:6848  token */\n              and\n              swap1\n                /* \"Inheritance.sol\":6843:6857  token.transfer */\n              0xa9059cbb\n              swap1\n                /* \"#utility.yul\":4819:4837   */\n              0x44\n              add\n                /* \"Inheritance.sol\":6843:6894  token.transfer(heirAddress, heirsUSDC[heirAddress]) */\n              0x20\n              mload(0x40)\n              dup1\n              dup4\n              sub\n              dup2\n              0x00\n              dup8\n              gas\n              call\n              iszero\n              dup1\n              iszero\n              tag_312\n              jumpi\n              returndatasize\n              0x00\n              dup1\n              returndatacopy\n              revert(0x00, returndatasize)\n            tag_312:\n              pop\n              pop\n              pop\n              pop\n              mload(0x40)\n              returndatasize\n              not(0x1f)\n              0x1f\n              dup3\n              add\n              and\n              dup3\n              add\n              dup1\n              0x40\n              mstore\n              pop\n              dup2\n              add\n              swap1\n              tag_313\n              swap2\n              swap1\n              tag_314\n              jump\t// in\n            tag_313:\n                /* \"Inheritance.sol\":6835:6955  require(token.transfer(heirAddress, heirsUSDC[heirAddress]), \"Error while transferring USDC from the contract to heir.\") */\n              tag_315\n              jumpi\n              mload(0x40)\n              shl(0xe5, 0x461bcd)\n              dup2\n              mstore\n                /* \"#utility.yul\":12455:12457   */\n              0x20\n                /* \"Inheritance.sol\":6835:6955  require(token.transfer(heirAddress, heirsUSDC[heirAddress]), \"Error while transferring USDC from the contract to heir.\") */\n              0x04\n              dup3\n              add\n                /* \"#utility.yul\":12437:12458   */\n              mstore\n                /* \"#utility.yul\":12494:12496   */\n              0x38\n                /* \"#utility.yul\":12474:12492   */\n              0x24\n              dup3\n              add\n                /* \"#utility.yul\":12467:12497   */\n              mstore\n                /* \"#utility.yul\":12533:12567   */\n              0x4572726f72207768696c65207472616e7366657272696e672055534443206672\n                /* \"#utility.yul\":12513:12531   */\n              0x44\n              dup3\n              add\n                /* \"#utility.yul\":12506:12568   */\n              mstore\n                /* \"#utility.yul\":12604:12630   */\n              0x6f6d2074686520636f6e747261637420746f20686569722e0000000000000000\n                /* \"#utility.yul\":12584:12602   */\n              0x64\n              dup3\n              add\n                /* \"#utility.yul\":12577:12631   */\n              mstore\n                /* \"#utility.yul\":12648:12667   */\n              0x84\n              add\n                /* \"Inheritance.sol\":6835:6955  require(token.transfer(heirAddress, heirsUSDC[heirAddress]), \"Error while transferring USDC from the contract to heir.\") */\n              tag_138\n                /* \"#utility.yul\":12253:12673   */\n              jump\n                /* \"Inheritance.sol\":6835:6955  require(token.transfer(heirAddress, heirsUSDC[heirAddress]), \"Error while transferring USDC from the contract to heir.\") */\n            tag_315:\n              sub(shl(0xa0, 0x01), 0x01)\n                /* \"Inheritance.sol\":6996:7018  heirsUSDC[heirAddress] */\n              dup3\n              and\n              0x00\n              swap1\n              dup2\n              mstore\n                /* \"Inheritance.sol\":6996:7005  heirsUSDC */\n              0x06\n                /* \"Inheritance.sol\":6996:7018  heirsUSDC[heirAddress] */\n              0x20\n              mstore\n              0x40\n              swap1\n              keccak256\n              sload\n                /* \"Inheritance.sol\":6973:6978  heirs */\n              0x04\n                /* \"Inheritance.sol\":6973:6981  heirs[i] */\n              dup1\n              sload\n                /* \"Inheritance.sol\":6979:6980  i */\n              dup4\n              swap1\n                /* \"Inheritance.sol\":6973:6981  heirs[i] */\n              dup2\n              lt\n              tag_319\n              jumpi\n              tag_319\n              tag_148\n              jump\t// in\n            tag_319:\n              swap1\n              0x00\n              mstore\n              keccak256(0x00, 0x20)\n              swap1\n              0x05\n              mul\n              add\n                /* \"Inheritance.sol\":6973:6993  heirs[i].usdcBalance */\n              0x03\n              add\n                /* \"Inheritance.sol\":6973:7018  heirs[i].usdcBalance = heirsUSDC[heirAddress] */\n              dup2\n              swap1\n              sstore\n              pop\n                /* \"Inheritance.sol\":7100:7111  heirAddress */\n              dup2\n              sub(shl(0xa0, 0x01), 0x01)\n                /* \"Inheritance.sol\":7042:7239  LogHeirClaiming(\"Ether and USDC money sent to the heir.\", heirAddress, heirs[i].share, heirsEther[heirAddress], ... */\n              and\n              0x34e2b4efda0968bd3c419ecd901876f712f93cd5fda9303ab16021c3535f5593\n                /* \"Inheritance.sol\":7113:7118  heirs */\n              0x04\n                /* \"Inheritance.sol\":7119:7120  i */\n              dup4\n                /* \"Inheritance.sol\":7113:7121  heirs[i] */\n              dup2\n              sload\n              dup2\n              lt\n              tag_322\n              jumpi\n              tag_322\n              tag_148\n              jump\t// in\n            tag_322:\n              swap1\n              0x00\n              mstore\n              keccak256(0x00, 0x20)\n              swap1\n              0x05\n              mul\n              add\n                /* \"Inheritance.sol\":7113:7127  heirs[i].share */\n              0x01\n              add\n              sload\n                /* \"Inheritance.sol\":7129:7139  heirsEther */\n              0x07\n                /* \"Inheritance.sol\":7129:7152  heirsEther[heirAddress] */\n              0x00\n                /* \"Inheritance.sol\":7140:7151  heirAddress */\n              dup7\n              sub(shl(0xa0, 0x01), 0x01)\n                /* \"Inheritance.sol\":7129:7152  heirsEther[heirAddress] */\n              and\n              sub(shl(0xa0, 0x01), 0x01)\n              and\n              dup2\n              mstore\n              0x20\n              add\n              swap1\n              dup2\n              mstore\n              0x20\n              add\n              0x00\n              keccak256\n              sload\n                /* \"Inheritance.sol\":7171:7176  heirs */\n              0x04\n                /* \"Inheritance.sol\":7177:7178  i */\n              dup6\n                /* \"Inheritance.sol\":7171:7179  heirs[i] */\n              dup2\n              sload\n              dup2\n              lt\n              tag_325\n              jumpi\n              tag_325\n              tag_148\n              jump\t// in\n            tag_325:\n              swap1\n              0x00\n              mstore\n              keccak256(0x00, 0x20)\n              swap1\n              0x05\n              mul\n              add\n                /* \"Inheritance.sol\":7171:7192  heirs[i].etherBalance */\n              0x02\n              add\n              sload\n                /* \"Inheritance.sol\":7194:7203  heirsUSDC */\n              0x06\n                /* \"Inheritance.sol\":7194:7216  heirsUSDC[heirAddress] */\n              0x00\n                /* \"Inheritance.sol\":7204:7215  heirAddress */\n              dup9\n              sub(shl(0xa0, 0x01), 0x01)\n                /* \"Inheritance.sol\":7194:7216  heirsUSDC[heirAddress] */\n              and\n              sub(shl(0xa0, 0x01), 0x01)\n              and\n              dup2\n              mstore\n              0x20\n              add\n              swap1\n              dup2\n              mstore\n              0x20\n              add\n              0x00\n              keccak256\n              sload\n                /* \"Inheritance.sol\":7218:7223  heirs */\n              0x04\n                /* \"Inheritance.sol\":7224:7225  i */\n              dup8\n                /* \"Inheritance.sol\":7218:7226  heirs[i] */\n              dup2\n              sload\n              dup2\n              lt\n              tag_328\n              jumpi\n              tag_328\n              tag_148\n              jump\t// in\n            tag_328:\n              swap1\n              0x00\n              mstore\n              keccak256(0x00, 0x20)\n              swap1\n              0x05\n              mul\n              add\n                /* \"Inheritance.sol\":7218:7238  heirs[i].usdcBalance */\n              0x03\n              add\n              sload\n                /* \"Inheritance.sol\":7042:7239  LogHeirClaiming(\"Ether and USDC money sent to the heir.\", heirAddress, heirs[i].share, heirsEther[heirAddress], ... */\n              mload(0x40)\n              tag_330\n              swap6\n              swap5\n              swap4\n              swap3\n              swap2\n              swap1\n                /* \"#utility.yul\":13020:13023   */\n              0xc0\n                /* \"#utility.yul\":13002:13024   */\n              dup1\n              dup3\n              mstore\n                /* \"#utility.yul\":13061:13063   */\n              0x26\n                /* \"#utility.yul\":13040:13059   */\n              swap1\n              dup3\n              add\n                /* \"#utility.yul\":13033:13064   */\n              mstore\n                /* \"#utility.yul\":13101:13135   */\n              0x457468657220616e642055534443206d6f6e65792073656e7420746f20746865\n                /* \"#utility.yul\":13095:13098   */\n              0xe0\n                /* \"#utility.yul\":13080:13099   */\n              dup3\n              add\n                /* \"#utility.yul\":13073:13136   */\n              mstore\n              shl(0xd1, 0x103432b4b917)\n                /* \"#utility.yul\":13167:13170   */\n              0x0100\n                /* \"#utility.yul\":13152:13171   */\n              dup3\n              add\n                /* \"#utility.yul\":13145:13182   */\n              mstore\n                /* \"#utility.yul\":13249:13253   */\n              0x20\n                /* \"#utility.yul\":13234:13254   */\n              dup2\n              add\n                /* \"#utility.yul\":13227:13263   */\n              swap6\n              swap1\n              swap6\n              mstore\n                /* \"#utility.yul\":13294:13296   */\n              0x40\n                /* \"#utility.yul\":13279:13297   */\n              dup6\n              add\n                /* \"#utility.yul\":13272:13306   */\n              swap4\n              swap1\n              swap4\n              mstore\n                /* \"#utility.yul\":13337:13339   */\n              0x60\n                /* \"#utility.yul\":13322:13340   */\n              dup5\n              add\n                /* \"#utility.yul\":13315:13349   */\n              swap2\n              swap1\n              swap2\n              mstore\n              0x80\n                /* \"#utility.yul\":13365:13384   */\n              dup4\n              add\n                /* \"#utility.yul\":13358:13393   */\n              mstore\n              0xa0\n                /* \"#utility.yul\":13409:13428   */\n              dup3\n              add\n                /* \"#utility.yul\":13402:13437   */\n              mstore\n                /* \"#utility.yul\":13214:13217   */\n              0x0120\n                /* \"#utility.yul\":13199:13218   */\n              add\n              swap1\n                /* \"#utility.yul\":12678:13443   */\n              jump\n                /* \"Inheritance.sol\":7042:7239  LogHeirClaiming(\"Ether and USDC money sent to the heir.\", heirAddress, heirs[i].share, heirsEther[heirAddress], ... */\n            tag_330:\n              mload(0x40)\n              dup1\n              swap2\n              sub\n              swap1\n              log2\n                /* \"Inheritance.sol\":6628:6631  i++ */\n              dup1\n              tag_332\n              dup2\n              tag_154\n              jump\t// in\n            tag_332:\n              swap2\n              pop\n              pop\n                /* \"Inheritance.sol\":6593:7254  for (uint i = 0; i < heirs.length; i++) {... */\n              jump(tag_299)\n            tag_300:\n              pop\n                /* \"Inheritance.sol\":6121:7264  {... */\n              pop\n              pop\n              pop\n              pop\n                /* \"Inheritance.sol\":10605:10893  {... */\n              pop\n                /* \"Inheritance.sol\":6029:7270  function claimInheritance() public isHeir(msg.sender) {... */\n              pop\n              jump\t// out\n                /* \"Inheritance.sol\":7651:7754  function getAliveTimeOut() public view onlyOwner returns (uint256) {... */\n            tag_86:\n                /* \"Inheritance.sol\":7709:7716  uint256 */\n              0x00\n                /* \"@openzeppelin/contracts/access/Ownable.sol\":1094:1107   */\n              tag_334\n                /* \"@openzeppelin/contracts/access/Ownable.sol\":1094:1105   */\n              tag_132\n                /* \"@openzeppelin/contracts/access/Ownable.sol\":1094:1107   */\n              jump\t// in\n            tag_334:\n              pop\n                /* \"Inheritance.sol\":7735:7747  aliveTimeOut */\n              sload(0x03)\n                /* \"Inheritance.sol\":7651:7754  function getAliveTimeOut() public view onlyOwner returns (uint256) {... */\n              swap1\n              jump\t// out\n                /* \"Inheritance.sol\":4526:4781  function signalAlive() public onlyOwner {... */\n            tag_90:\n                /* \"@openzeppelin/contracts/access/Ownable.sol\":1094:1107   */\n              tag_337\n                /* \"@openzeppelin/contracts/access/Ownable.sol\":1094:1105   */\n              tag_132\n                /* \"@openzeppelin/contracts/access/Ownable.sol\":1094:1107   */\n              jump\t// in\n            tag_337:\n                /* \"Inheritance.sol\":4602:4617  block.timestamp */\n              timestamp\n                /* \"Inheritance.sol\":4576:4599  administrator.lastAlive */\n              0x02\n                /* \"Inheritance.sol\":4576:4617  administrator.lastAlive = block.timestamp */\n              dup2\n              swap1\n              sstore\n                /* \"Inheritance.sol\":4761:4773  aliveTimeOut */\n              sload(0x03)\n                /* \"Inheritance.sol\":4632:4774  LogAdministratorAlive(\"Administrator sends a signal to show he is alive.\", msg.sender, administrator.lastAlive, block.timestamp, aliveTimeOut) */\n              0x40\n              dup1\n              mload\n                /* \"#utility.yul\":13734:13737   */\n              0x80\n                /* \"#utility.yul\":13716:13738   */\n              dup1\n              dup3\n              mstore\n                /* \"#utility.yul\":13775:13777   */\n              0x31\n                /* \"#utility.yul\":13754:13773   */\n              swap1\n              dup3\n              add\n                /* \"#utility.yul\":13747:13778   */\n              mstore\n                /* \"#utility.yul\":13815:13849   */\n              0x41646d696e6973747261746f722073656e64732061207369676e616c20746f20\n                /* \"#utility.yul\":13809:13812   */\n              0xa0\n                /* \"#utility.yul\":13794:13813   */\n              dup3\n              add\n                /* \"#utility.yul\":13787:13850   */\n              mstore\n              shl(0x79, 0x39b437bb9034329034b99030b634bb3297)\n                /* \"#utility.yul\":13881:13884   */\n              0xc0\n                /* \"#utility.yul\":13866:13885   */\n              dup3\n              add\n                /* \"#utility.yul\":13859:13907   */\n              mstore\n                /* \"#utility.yul\":13974:13978   */\n              0x20\n                /* \"#utility.yul\":13959:13979   */\n              dup2\n              add\n                /* \"#utility.yul\":13952:13988   */\n              dup5\n              swap1\n              mstore\n                /* \"#utility.yul\":14004:14022   */\n              swap1\n              dup2\n              add\n                /* \"#utility.yul\":13997:14031   */\n              swap3\n              swap1\n              swap3\n              mstore\n              0x60\n                /* \"#utility.yul\":14047:14065   */\n              dup3\n              add\n                /* \"#utility.yul\":14040:14074   */\n              mstore\n                /* \"Inheritance.sol\":4707:4717  msg.sender */\n              caller\n              swap1\n                /* \"Inheritance.sol\":4632:4774  LogAdministratorAlive(\"Administrator sends a signal to show he is alive.\", msg.sender, administrator.lastAlive, block.timestamp, aliveTimeOut) */\n              0x5f1aa2875b7b1df0cd72a6ee708c6aff6432288001c47518bc91be4599fdf6e6\n              swap1\n                /* \"#utility.yul\":13939:13942   */\n              0xe0\n                /* \"#utility.yul\":13924:13943   */\n              add\n                /* \"Inheritance.sol\":4632:4774  LogAdministratorAlive(\"Administrator sends a signal to show he is alive.\", msg.sender, administrator.lastAlive, block.timestamp, aliveTimeOut) */\n              mload(0x40)\n              dup1\n              swap2\n              sub\n              swap1\n              log2\n                /* \"Inheritance.sol\":4526:4781  function signalAlive() public onlyOwner {... */\n              jump\t// out\n                /* \"Inheritance.sol\":3547:3779  function deposit() public payable {... */\n            tag_92:\n                /* \"Inheritance.sol\":3702:3715  administrator */\n              0x01\n                /* \"Inheritance.sol\":3702:3736  administrator.administratorAddress */\n              sload\n                /* \"Inheritance.sol\":3596:3772  LogDeposit(\"Log all the values: Administrator address, Amount sent, Contract ether balance.\",... */\n              0x40\n              dup1\n              mload\n                /* \"#utility.yul\":14371:14374   */\n              0x80\n                /* \"#utility.yul\":14353:14375   */\n              dup1\n              dup3\n              mstore\n                /* \"#utility.yul\":14412:14414   */\n              0x4f\n                /* \"#utility.yul\":14391:14410   */\n              swap1\n              dup3\n              add\n                /* \"#utility.yul\":14384:14415   */\n              mstore\n                /* \"#utility.yul\":14452:14486   */\n              0x4c6f6720616c6c207468652076616c7565733a2041646d696e6973747261746f\n                /* \"#utility.yul\":14446:14449   */\n              0xa0\n                /* \"#utility.yul\":14431:14450   */\n              dup3\n              add\n                /* \"#utility.yul\":14424:14487   */\n              mstore\n                /* \"#utility.yul\":14524:14558   */\n              0x7220616464726573732c20416d6f756e742073656e742c20436f6e7472616374\n                /* \"#utility.yul\":14518:14521   */\n              0xc0\n                /* \"#utility.yul\":14503:14522   */\n              dup3\n              add\n                /* \"#utility.yul\":14496:14559   */\n              mstore\n              shl(0x89, 0x1032ba3432b9103130b630b731b297)\n                /* \"#utility.yul\":14590:14593   */\n              0xe0\n                /* \"#utility.yul\":14575:14594   */\n              dup3\n              add\n                /* \"#utility.yul\":14568:14614   */\n              mstore\n              sub(shl(0xa0, 0x01), 0x01)\n                /* \"Inheritance.sol\":3702:3736  administrator.administratorAddress */\n              swap1\n              swap3\n              and\n                /* \"#utility.yul\":14681:14685   */\n              0x20\n                /* \"#utility.yul\":14666:14686   */\n              dup4\n              add\n                /* \"#utility.yul\":14659:14721   */\n              mstore\n                /* \"Inheritance.sol\":3739:3748  msg.value */\n              callvalue\n                /* \"#utility.yul\":14737:14755   */\n              dup3\n              dup3\n              add\n                /* \"#utility.yul\":14730:14764   */\n              mstore\n                /* \"Inheritance.sol\":3750:3771  address(this).balance */\n              selfbalance\n              0x60\n                /* \"#utility.yul\":14780:14798   */\n              dup4\n              add\n                /* \"#utility.yul\":14773:14807   */\n              mstore\n                /* \"Inheritance.sol\":3596:3772  LogDeposit(\"Log all the values: Administrator address, Amount sent, Contract ether balance.\",... */\n              mload\n              0x0e329d93cfda1bd6ead1003e3ae53461617c8d120014dfaea03d2fb42ec55b07\n              swap2\n              dup2\n              swap1\n              sub\n                /* \"#utility.yul\":14646:14649   */\n              0x0100\n                /* \"Inheritance.sol\":3596:3772  LogDeposit(\"Log all the values: Administrator address, Amount sent, Contract ether balance.\",... */\n              add\n              swap1\n              log1\n                /* \"Inheritance.sol\":3547:3779  function deposit() public payable {... */\n              jump\t// out\n                /* \"Inheritance.sol\":8207:8434  function getTotalShares() public view returns (uint256) {... */\n            tag_95:\n                /* \"Inheritance.sol\":8254:8261  uint256 */\n              0x00\n              dup1\n              dup1\n                /* \"Inheritance.sol\":8306:8400  for (uint i = 0; i < heirs.length; i++) {... */\n            tag_345:\n                /* \"Inheritance.sol\":8327:8332  heirs */\n              0x04\n                /* \"Inheritance.sol\":8327:8339  heirs.length */\n              sload\n                /* \"Inheritance.sol\":8323:8339  i < heirs.length */\n              dup2\n              lt\n                /* \"Inheritance.sol\":8306:8400  for (uint i = 0; i < heirs.length; i++) {... */\n              iszero\n              tag_172\n              jumpi\n                /* \"Inheritance.sol\":8375:8380  heirs */\n              0x04\n                /* \"Inheritance.sol\":8381:8382  i */\n              dup2\n                /* \"Inheritance.sol\":8375:8383  heirs[i] */\n              dup2\n              sload\n              dup2\n              lt\n              tag_349\n              jumpi\n              tag_349\n              tag_148\n              jump\t// in\n            tag_349:\n              swap1\n              0x00\n              mstore\n              keccak256(0x00, 0x20)\n              swap1\n              0x05\n              mul\n              add\n                /* \"Inheritance.sol\":8375:8389  heirs[i].share */\n              0x01\n              add\n              sload\n                /* \"Inheritance.sol\":8360:8389  totalShares += heirs[i].share */\n              dup3\n              tag_351\n              swap2\n              swap1\n              tag_244\n              jump\t// in\n            tag_351:\n              swap2\n              pop\n                /* \"Inheritance.sol\":8341:8344  i++ */\n              dup1\n              tag_352\n              dup2\n              tag_154\n              jump\t// in\n            tag_352:\n              swap2\n              pop\n              pop\n                /* \"Inheritance.sol\":8306:8400  for (uint i = 0; i < heirs.length; i++) {... */\n              jump(tag_345)\n                /* \"Inheritance.sol\":3810:4129  function withdrawUSDC(uint256 amount) public onlyOwner {... */\n            tag_100:\n                /* \"@openzeppelin/contracts/access/Ownable.sol\":1094:1107   */\n              tag_354\n                /* \"@openzeppelin/contracts/access/Ownable.sol\":1094:1105   */\n              tag_132\n                /* \"@openzeppelin/contracts/access/Ownable.sol\":1094:1107   */\n              jump\t// in\n            tag_354:\n                /* \"Inheritance.sol\":3892:3893  0 */\n              0x00\n                /* \"Inheritance.sol\":3883:3889  amount */\n              dup2\n                /* \"Inheritance.sol\":3883:3893  amount > 0 */\n              gt\n                /* \"Inheritance.sol\":3875:3922  require(amount > 0, \"Amount must be positive.\") */\n              tag_356\n              jumpi\n              mload(0x40)\n              shl(0xe5, 0x461bcd)\n              dup2\n              mstore\n                /* \"#utility.yul\":7483:7485   */\n              0x20\n                /* \"Inheritance.sol\":3875:3922  require(amount > 0, \"Amount must be positive.\") */\n              0x04\n              dup3\n              add\n                /* \"#utility.yul\":7465:7486   */\n              mstore\n                /* \"#utility.yul\":7522:7524   */\n              0x18\n                /* \"#utility.yul\":7502:7520   */\n              0x24\n              dup3\n              add\n                /* \"#utility.yul\":7495:7525   */\n              mstore\n              shl(0x41, 0x20b6b7bab73a1036bab9ba103132903837b9b4ba34bb3297)\n                /* \"#utility.yul\":7541:7559   */\n              0x44\n              dup3\n              add\n                /* \"#utility.yul\":7534:7588   */\n              mstore\n                /* \"#utility.yul\":7605:7623   */\n              0x64\n              add\n                /* \"Inheritance.sol\":3875:3922  require(amount > 0, \"Amount must be positive.\") */\n              tag_138\n                /* \"#utility.yul\":7281:7629   */\n              jump\n                /* \"Inheritance.sol\":3875:3922  require(amount > 0, \"Amount must be positive.\") */\n            tag_356:\n                /* \"Inheritance.sol\":3950:3966  getUSDCBalance() */\n              tag_358\n                /* \"Inheritance.sol\":3950:3964  getUSDCBalance */\n              tag_55\n                /* \"Inheritance.sol\":3950:3966  getUSDCBalance() */\n              jump\t// in\n            tag_358:\n                /* \"Inheritance.sol\":3940:3946  amount */\n              dup2\n                /* \"Inheritance.sol\":3940:3966  amount <= getUSDCBalance() */\n              gt\n              iszero\n                /* \"Inheritance.sol\":3932:3995  require(amount <= getUSDCBalance(), \"Not enough USDC balance.\") */\n              tag_359\n              jumpi\n              mload(0x40)\n              shl(0xe5, 0x461bcd)\n              dup2\n              mstore\n                /* \"#utility.yul\":15020:15022   */\n              0x20\n                /* \"Inheritance.sol\":3932:3995  require(amount <= getUSDCBalance(), \"Not enough USDC balance.\") */\n              0x04\n              dup3\n              add\n                /* \"#utility.yul\":15002:15023   */\n              mstore\n                /* \"#utility.yul\":15059:15061   */\n              0x18\n                /* \"#utility.yul\":15039:15057   */\n              0x24\n              dup3\n              add\n                /* \"#utility.yul\":15032:15062   */\n              mstore\n                /* \"#utility.yul\":15098:15124   */\n              0x4e6f7420656e6f75676820555344432062616c616e63652e0000000000000000\n                /* \"#utility.yul\":15078:15096   */\n              0x44\n              dup3\n              add\n                /* \"#utility.yul\":15071:15125   */\n              mstore\n                /* \"#utility.yul\":15142:15160   */\n              0x64\n              add\n                /* \"Inheritance.sol\":3932:3995  require(amount <= getUSDCBalance(), \"Not enough USDC balance.\") */\n              tag_138\n                /* \"#utility.yul\":14818:15166   */\n              jump\n                /* \"Inheritance.sol\":3932:3995  require(amount <= getUSDCBalance(), \"Not enough USDC balance.\") */\n            tag_359:\n                /* \"Inheritance.sol\":4014:4019  token */\n              sload(0x08)\n                /* \"Inheritance.sol\":4014:4048  token.transfer(msg.sender, amount) */\n              mload(0x40)\n              shl(0xe0, 0xa9059cbb)\n              dup2\n              mstore\n                /* \"Inheritance.sol\":4029:4039  msg.sender */\n              caller\n                /* \"Inheritance.sol\":4014:4048  token.transfer(msg.sender, amount) */\n              0x04\n              dup3\n              add\n                /* \"#utility.yul\":4846:4897   */\n              mstore\n                /* \"#utility.yul\":4913:4931   */\n              0x24\n              dup2\n              add\n                /* \"#utility.yul\":4906:4940   */\n              dup4\n              swap1\n              mstore\n              sub(shl(0xa0, 0x01), 0x01)\n                /* \"Inheritance.sol\":4014:4019  token */\n              swap1\n              swap2\n              and\n              swap1\n                /* \"Inheritance.sol\":4014:4028  token.transfer */\n              0xa9059cbb\n              swap1\n                /* \"#utility.yul\":4819:4837   */\n              0x44\n              add\n                /* \"Inheritance.sol\":4014:4048  token.transfer(msg.sender, amount) */\n              0x20\n              mload(0x40)\n              dup1\n              dup4\n              sub\n              dup2\n              0x00\n              dup8\n              gas\n              call\n              iszero\n              dup1\n              iszero\n              tag_364\n              jumpi\n              returndatasize\n              0x00\n              dup1\n              returndatacopy\n              revert(0x00, returndatasize)\n            tag_364:\n              pop\n              pop\n              pop\n              pop\n              mload(0x40)\n              returndatasize\n              not(0x1f)\n              0x1f\n              dup3\n              add\n              and\n              dup3\n              add\n              dup1\n              0x40\n              mstore\n              pop\n              dup2\n              add\n              swap1\n              tag_365\n              swap2\n              swap1\n              tag_314\n              jump\t// in\n            tag_365:\n                /* \"Inheritance.sol\":4006:4122  require(token.transfer(msg.sender, amount), \"Error while transferring USDC from the contract to the administrator.\") */\n              tag_366\n              jumpi\n              mload(0x40)\n              shl(0xe5, 0x461bcd)\n              dup2\n              mstore\n                /* \"#utility.yul\":15373:15375   */\n              0x20\n                /* \"Inheritance.sol\":4006:4122  require(token.transfer(msg.sender, amount), \"Error while transferring USDC from the contract to the administrator.\") */\n              0x04\n              dup3\n              add\n                /* \"#utility.yul\":15355:15376   */\n              mstore\n                /* \"#utility.yul\":15412:15414   */\n              0x45\n                /* \"#utility.yul\":15392:15410   */\n              0x24\n              dup3\n              add\n                /* \"#utility.yul\":15385:15415   */\n              mstore\n                /* \"#utility.yul\":15451:15485   */\n              0x4572726f72207768696c65207472616e7366657272696e672055534443206672\n                /* \"#utility.yul\":15431:15449   */\n              0x44\n              dup3\n              add\n                /* \"#utility.yul\":15424:15486   */\n              mstore\n                /* \"#utility.yul\":15522:15556   */\n              0x6f6d2074686520636f6e747261637420746f207468652061646d696e69737472\n                /* \"#utility.yul\":15502:15520   */\n              0x64\n              dup3\n              add\n                /* \"#utility.yul\":15495:15557   */\n              mstore\n              shl(0xd9, 0x30ba37b917)\n                /* \"#utility.yul\":15573:15592   */\n              0x84\n              dup3\n              add\n                /* \"#utility.yul\":15566:15602   */\n              mstore\n                /* \"#utility.yul\":15619:15638   */\n              0xa4\n              add\n                /* \"Inheritance.sol\":4006:4122  require(token.transfer(msg.sender, amount), \"Error while transferring USDC from the contract to the administrator.\") */\n              tag_138\n                /* \"#utility.yul\":15171:15644   */\n              jump\n                /* \"Inheritance.sol\":4006:4122  require(token.transfer(msg.sender, amount), \"Error while transferring USDC from the contract to the administrator.\") */\n            tag_366:\n                /* \"Inheritance.sol\":3810:4129  function withdrawUSDC(uint256 amount) public onlyOwner {... */\n              pop\n              jump\t// out\n                /* \"Inheritance.sol\":4407:4520  function updateAliveTimeOut(uint256 _aliveTimeOut) public onlyOwner {... */\n            tag_104:\n                /* \"@openzeppelin/contracts/access/Ownable.sol\":1094:1107   */\n              tag_370\n                /* \"@openzeppelin/contracts/access/Ownable.sol\":1094:1105   */\n              tag_132\n                /* \"@openzeppelin/contracts/access/Ownable.sol\":1094:1107   */\n              jump\t// in\n            tag_370:\n                /* \"Inheritance.sol\":4485:4497  aliveTimeOut */\n              0x03\n                /* \"Inheritance.sol\":4485:4513  aliveTimeOut = _aliveTimeOut */\n              sstore\n                /* \"Inheritance.sol\":4407:4520  function updateAliveTimeOut(uint256 _aliveTimeOut) public onlyOwner {... */\n              jump\t// out\n                /* \"Inheritance.sol\":5478:5789  function rejectInheritanceRequest(uint index, address requester) public onlyOwner rejectInheritanceRequestValidations(index, requester) {... */\n            tag_109:\n                /* \"@openzeppelin/contracts/access/Ownable.sol\":1094:1107   */\n              tag_373\n                /* \"@openzeppelin/contracts/access/Ownable.sol\":1094:1105   */\n              tag_132\n                /* \"@openzeppelin/contracts/access/Ownable.sol\":1094:1107   */\n              jump\t// in\n            tag_373:\n                /* \"Inheritance.sol\":10334:10353  inheritanceRequests */\n              0x05\n                /* \"Inheritance.sol\":10334:10360  inheritanceRequests.length */\n              sload\n                /* \"Inheritance.sol\":5596:5601  index */\n              dup3\n              swap1\n                /* \"Inheritance.sol\":5603:5612  requester */\n              dup3\n              swap1\n                /* \"Inheritance.sol\":10326:10360  index < inheritanceRequests.length */\n              dup3\n              lt\n                /* \"Inheritance.sol\":10318:10421  require(index < inheritanceRequests.length, \"The index sent is bigger than the requests array length.\") */\n              tag_375\n              jumpi\n              mload(0x40)\n              shl(0xe5, 0x461bcd)\n              dup2\n              mstore\n              0x04\n              add\n              tag_138\n              swap1\n              tag_224\n              jump\t// in\n            tag_375:\n                /* \"Inheritance.sol\":10469:10473  addr */\n              dup1\n              sub(shl(0xa0, 0x01), 0x01)\n                /* \"Inheritance.sol\":10439:10473  inheritanceRequests[index] == addr */\n              and\n                /* \"Inheritance.sol\":10439:10458  inheritanceRequests */\n              0x05\n                /* \"Inheritance.sol\":10459:10464  index */\n              dup4\n                /* \"Inheritance.sol\":10439:10465  inheritanceRequests[index] */\n              dup2\n              sload\n              dup2\n              lt\n              tag_378\n              jumpi\n              tag_378\n              tag_148\n              jump\t// in\n            tag_378:\n              0x00\n              swap2\n              dup3\n              mstore\n              0x20\n              swap1\n              swap2\n              keccak256\n              add\n              sload\n              sub(shl(0xa0, 0x01), 0x01)\n              and\n                /* \"Inheritance.sol\":10439:10473  inheritanceRequests[index] == addr */\n              eq\n                /* \"Inheritance.sol\":10431:10551  require(inheritanceRequests[index] == addr, \"Address sent doesn't match with the address stored in the requests array.\") */\n              tag_380\n              jumpi\n              mload(0x40)\n              shl(0xe5, 0x461bcd)\n              dup2\n              mstore\n              0x04\n              add\n              tag_138\n              swap1\n              tag_230\n              jump\t// in\n            tag_380:\n                /* \"Inheritance.sol\":5624:5644  removeRequest(index) */\n              tag_383\n                /* \"Inheritance.sol\":5638:5643  index */\n              dup5\n                /* \"Inheritance.sol\":5624:5637  removeRequest */\n              tag_255\n                /* \"Inheritance.sol\":5624:5644  removeRequest(index) */\n              jump\t// in\n            tag_383:\n                /* \"Inheritance.sol\":5741:5760  inheritanceRequests */\n              0x05\n                /* \"Inheritance.sol\":5741:5767  inheritanceRequests.length */\n              sload\n                /* \"Inheritance.sol\":5769:5774  heirs */\n              0x04\n                /* \"Inheritance.sol\":5769:5781  heirs.length */\n              sload\n                /* \"Inheritance.sol\":5659:5782  LogHeirRejected(\"Administrator rejects user's request to be an heir.\", requester, inheritanceRequests.length, heirs.length) */\n              0x40\n              dup1\n              mload\n                /* \"#utility.yul\":15907:15909   */\n              0x60\n                /* \"#utility.yul\":15889:15910   */\n              dup1\n              dup3\n              mstore\n                /* \"#utility.yul\":15946:15948   */\n              0x33\n                /* \"#utility.yul\":15926:15944   */\n              swap1\n              dup3\n              add\n                /* \"#utility.yul\":15919:15949   */\n              mstore\n                /* \"#utility.yul\":15986:16020   */\n              0x41646d696e6973747261746f722072656a656374732075736572277320726571\n                /* \"#utility.yul\":15980:15983   */\n              0x80\n                /* \"#utility.yul\":15965:15984   */\n              dup3\n              add\n                /* \"#utility.yul\":15958:16021   */\n              mstore\n              shl(0x69, 0x3ab2b9ba103a379031329030b7103432b4b917)\n                /* \"#utility.yul\":16052:16055   */\n              0xa0\n                /* \"#utility.yul\":16037:16056   */\n              dup3\n              add\n                /* \"#utility.yul\":16030:16080   */\n              mstore\n                /* \"#utility.yul\":16147:16151   */\n              0x20\n                /* \"#utility.yul\":16132:16152   */\n              dup2\n              add\n                /* \"#utility.yul\":16125:16161   */\n              swap4\n              swap1\n              swap4\n              mstore\n                /* \"#utility.yul\":16177:16195   */\n              dup3\n              add\n                /* \"#utility.yul\":16170:16204   */\n              mstore\n              sub(shl(0xa0, 0x01), 0x01)\n                /* \"Inheritance.sol\":5659:5782  LogHeirRejected(\"Administrator rejects user's request to be an heir.\", requester, inheritanceRequests.length, heirs.length) */\n              dup5\n              and\n              swap1\n              0x05541b3bb46c30ee5aea95b57d7a1d3949da67ba8e09c865da2318f2fb273857\n              swap1\n                /* \"#utility.yul\":16112:16115   */\n              0xc0\n                /* \"#utility.yul\":16097:16116   */\n              add\n                /* \"Inheritance.sol\":5659:5782  LogHeirRejected(\"Administrator rejects user's request to be an heir.\", requester, inheritanceRequests.length, heirs.length) */\n              mload(0x40)\n              dup1\n              swap2\n              sub\n              swap1\n              log2\n                /* \"@openzeppelin/contracts/access/Ownable.sol\":1117:1118   */\n              pop\n              pop\n                /* \"Inheritance.sol\":5478:5789  function rejectInheritanceRequest(uint index, address requester) public onlyOwner rejectInheritanceRequestValidations(index, requester) {... */\n              pop\n              pop\n              jump\t// out\n                /* \"@openzeppelin/contracts/access/Ownable.sol\":2081:2279   */\n            tag_117:\n                /* \"@openzeppelin/contracts/access/Ownable.sol\":1094:1107   */\n              tag_388\n                /* \"@openzeppelin/contracts/access/Ownable.sol\":1094:1105   */\n              tag_132\n                /* \"@openzeppelin/contracts/access/Ownable.sol\":1094:1107   */\n              jump\t// in\n            tag_388:\n              sub(shl(0xa0, 0x01), 0x01)\n                /* \"@openzeppelin/contracts/access/Ownable.sol\":2169:2191   */\n              dup2\n              and\n                /* \"@openzeppelin/contracts/access/Ownable.sol\":2161:2234   */\n              tag_390\n              jumpi\n              mload(0x40)\n              shl(0xe5, 0x461bcd)\n              dup2\n              mstore\n                /* \"#utility.yul\":16417:16419   */\n              0x20\n                /* \"@openzeppelin/contracts/access/Ownable.sol\":2161:2234   */\n              0x04\n              dup3\n              add\n                /* \"#utility.yul\":16399:16420   */\n              mstore\n                /* \"#utility.yul\":16456:16458   */\n              0x26\n                /* \"#utility.yul\":16436:16454   */\n              0x24\n              dup3\n              add\n                /* \"#utility.yul\":16429:16459   */\n              mstore\n                /* \"#utility.yul\":16495:16529   */\n              0x4f776e61626c653a206e6577206f776e657220697320746865207a65726f2061\n                /* \"#utility.yul\":16475:16493   */\n              0x44\n              dup3\n              add\n                /* \"#utility.yul\":16468:16530   */\n              mstore\n              shl(0xd0, 0x646472657373)\n                /* \"#utility.yul\":16546:16564   */\n              0x64\n              dup3\n              add\n                /* \"#utility.yul\":16539:16575   */\n              mstore\n                /* \"#utility.yul\":16592:16611   */\n              0x84\n              add\n                /* \"@openzeppelin/contracts/access/Ownable.sol\":2161:2234   */\n              tag_138\n                /* \"#utility.yul\":16215:16617   */\n              jump\n                /* \"@openzeppelin/contracts/access/Ownable.sol\":2161:2234   */\n            tag_390:\n                /* \"@openzeppelin/contracts/access/Ownable.sol\":2244:2272   */\n              tag_366\n                /* \"@openzeppelin/contracts/access/Ownable.sol\":2263:2271   */\n              dup2\n                /* \"@openzeppelin/contracts/access/Ownable.sol\":2244:2262   */\n              tag_218\n                /* \"@openzeppelin/contracts/access/Ownable.sol\":2244:2272   */\n              jump\t// in\n                /* \"Inheritance.sol\":8440:8780  function getHeirsAddresses() public view returns (address[] memory) {... */\n            tag_125:\n                /* \"Inheritance.sol\":8565:8570  heirs */\n              0x04\n                /* \"Inheritance.sol\":8565:8577  heirs.length */\n              sload\n                /* \"Inheritance.sol\":8490:8506  address[] memory */\n              0x60\n              swap1\n                /* \"Inheritance.sol\":8518:8548  address[] memory heirAddresses */\n              0x00\n              swap1\n                /* \"Inheritance.sol\":8551:8578  new address[](heirs.length) */\n              0xffffffffffffffff\n              dup2\n              gt\n              iszero\n              tag_396\n              jumpi\n              tag_396\n              tag_397\n              jump\t// in\n            tag_396:\n              mload(0x40)\n              swap1\n              dup1\n              dup3\n              mstore\n              dup1\n              0x20\n              mul\n              0x20\n              add\n              dup3\n              add\n              0x40\n              mstore\n              dup1\n              iszero\n              tag_398\n              jumpi\n              dup2\n              0x20\n              add\n              0x20\n              dup3\n              mul\n              dup1\n              calldatasize\n              dup4\n              calldatacopy\n              add\n              swap1\n              pop\n            tag_398:\n              pop\n                /* \"Inheritance.sol\":8518:8578  address[] memory heirAddresses = new address[](heirs.length) */\n              swap1\n              pop\n                /* \"Inheritance.sol\":8588:8601  uint256 index */\n              0x00\n                /* \"Inheritance.sol\":8620:8629  uint256 i */\n              dup1\n                /* \"Inheritance.sol\":8616:8743  for(uint256 i = 0; i < heirs.length; i++) {... */\n            tag_399:\n                /* \"Inheritance.sol\":8639:8644  heirs */\n              0x04\n                /* \"Inheritance.sol\":8639:8651  heirs.length */\n              sload\n                /* \"Inheritance.sol\":8635:8651  i < heirs.length */\n              dup2\n              lt\n                /* \"Inheritance.sol\":8616:8743  for(uint256 i = 0; i < heirs.length; i++) {... */\n              iszero\n              tag_400\n              jumpi\n                /* \"Inheritance.sol\":8695:8700  heirs */\n              0x04\n                /* \"Inheritance.sol\":8701:8702  i */\n              dup2\n                /* \"Inheritance.sol\":8695:8703  heirs[i] */\n              dup2\n              sload\n              dup2\n              lt\n              tag_403\n              jumpi\n              tag_403\n              tag_148\n              jump\t// in\n            tag_403:\n              0x00\n              swap2\n              dup3\n              mstore\n              0x20\n              swap1\n              swap2\n              keccak256\n              0x05\n              swap1\n              swap2\n              mul\n              add\n                /* \"Inheritance.sol\":8695:8708  heirs[i].heir */\n              sload\n                /* \"Inheritance.sol\":8672:8692  heirAddresses[index] */\n              dup4\n              mload\n              sub(shl(0xa0, 0x01), 0x01)\n                /* \"Inheritance.sol\":8695:8708  heirs[i].heir */\n              swap1\n              swap2\n              and\n              swap1\n                /* \"Inheritance.sol\":8672:8685  heirAddresses */\n              dup5\n              swap1\n                /* \"Inheritance.sol\":8686:8691  index */\n              dup5\n              swap1\n                /* \"Inheritance.sol\":8672:8692  heirAddresses[index] */\n              dup2\n              lt\n              tag_406\n              jumpi\n              tag_406\n              tag_148\n              jump\t// in\n            tag_406:\n              sub(shl(0xa0, 0x01), 0x01)\n                /* \"Inheritance.sol\":8672:8708  heirAddresses[index] = heirs[i].heir */\n              swap1\n              swap3\n              and\n                /* \"Inheritance.sol\":8672:8692  heirAddresses[index] */\n              0x20\n              swap3\n              dup4\n              mul\n              swap2\n              swap1\n              swap2\n              add\n              swap1\n              swap2\n              add\n                /* \"Inheritance.sol\":8672:8708  heirAddresses[index] = heirs[i].heir */\n              mstore\n                /* \"Inheritance.sol\":8722:8732  index += 1 */\n              tag_407\n                /* \"Inheritance.sol\":8731:8732  1 */\n              0x01\n                /* \"Inheritance.sol\":8722:8732  index += 1 */\n              dup4\n              tag_244\n              jump\t// in\n            tag_407:\n              swap2\n              pop\n                /* \"Inheritance.sol\":8653:8656  i++ */\n              dup1\n              tag_408\n              dup2\n              tag_154\n              jump\t// in\n            tag_408:\n              swap2\n              pop\n              pop\n                /* \"Inheritance.sol\":8616:8743  for(uint256 i = 0; i < heirs.length; i++) {... */\n              jump(tag_399)\n            tag_400:\n              pop\n                /* \"Inheritance.sol\":8760:8773  heirAddresses */\n              swap1\n              swap3\n                /* \"Inheritance.sol\":8440:8780  function getHeirsAddresses() public view returns (address[] memory) {... */\n              swap2\n              pop\n              pop\n              jump\t// out\n                /* \"@openzeppelin/contracts/access/Ownable.sol\":1359:1489   */\n            tag_132:\n                /* \"@openzeppelin/contracts/access/Ownable.sol\":1247:1254   */\n              0x00\n                /* \"@openzeppelin/contracts/access/Ownable.sol\":1273:1279   */\n              sload\n              sub(shl(0xa0, 0x01), 0x01)\n              and\n                /* \"@openzeppelin/contracts/utils/Context.sol\":719:729   */\n              caller\n                /* \"@openzeppelin/contracts/access/Ownable.sol\":1422:1445   */\n              eq\n                /* \"@openzeppelin/contracts/access/Ownable.sol\":1414:1482   */\n              tag_217\n              jumpi\n              mload(0x40)\n              shl(0xe5, 0x461bcd)\n              dup2\n              mstore\n                /* \"#utility.yul\":16956:16958   */\n              0x20\n                /* \"@openzeppelin/contracts/access/Ownable.sol\":1414:1482   */\n              0x04\n              dup3\n              add\n                /* \"#utility.yul\":16938:16959   */\n              dup2\n              swap1\n              mstore\n                /* \"#utility.yul\":16975:16993   */\n              0x24\n              dup3\n              add\n                /* \"#utility.yul\":16968:16998   */\n              mstore\n                /* \"#utility.yul\":17034:17068   */\n              0x4f776e61626c653a2063616c6c6572206973206e6f7420746865206f776e6572\n                /* \"#utility.yul\":17014:17032   */\n              0x44\n              dup3\n              add\n                /* \"#utility.yul\":17007:17069   */\n              mstore\n                /* \"#utility.yul\":17086:17104   */\n              0x64\n              add\n                /* \"@openzeppelin/contracts/access/Ownable.sol\":1414:1482   */\n              tag_138\n                /* \"#utility.yul\":16754:17110   */\n              jump\n                /* \"@openzeppelin/contracts/access/Ownable.sol\":2433:2620   */\n            tag_218:\n                /* \"@openzeppelin/contracts/access/Ownable.sol\":2506:2522   */\n              0x00\n                /* \"@openzeppelin/contracts/access/Ownable.sol\":2525:2531   */\n              dup1\n              sload\n              sub(shl(0xa0, 0x01), 0x01)\n                /* \"@openzeppelin/contracts/access/Ownable.sol\":2541:2558   */\n              dup4\n              dup2\n              and\n              not(sub(shl(0xa0, 0x01), 0x01))\n              dup4\n              and\n              dup2\n              or\n              dup5\n              sstore\n                /* \"@openzeppelin/contracts/access/Ownable.sol\":2573:2613   */\n              mload(0x40)\n                /* \"@openzeppelin/contracts/access/Ownable.sol\":2525:2531   */\n              swap2\n              swap1\n              swap3\n              and\n              swap3\n              dup4\n              swap2\n                /* \"@openzeppelin/contracts/access/Ownable.sol\":2573:2613   */\n              0x8be0079c531659141344cd1fd0a4f28419497f9722a3daafe3b4186f6b6457e0\n              swap2\n                /* \"@openzeppelin/contracts/access/Ownable.sol\":2506:2522   */\n              swap1\n                /* \"@openzeppelin/contracts/access/Ownable.sol\":2573:2613   */\n              log3\n                /* \"@openzeppelin/contracts/access/Ownable.sol\":2496:2620   */\n              pop\n                /* \"@openzeppelin/contracts/access/Ownable.sol\":2433:2620   */\n              pop\n              jump\t// out\n                /* \"Inheritance.sol\":10899:11241  function removeRequest(uint index) internal {... */\n            tag_255:\n                /* \"Inheritance.sol\":10969:10988  inheritanceRequests */\n              0x05\n                /* \"Inheritance.sol\":10969:10995  inheritanceRequests.length */\n              sload\n                /* \"Inheritance.sol\":10961:10995  index < inheritanceRequests.length */\n              dup2\n              lt\n                /* \"Inheritance.sol\":10953:11056  require(index < inheritanceRequests.length, \"The index sent is bigger than the requests array length.\") */\n              tag_418\n              jumpi\n              mload(0x40)\n              shl(0xe5, 0x461bcd)\n              dup2\n              mstore\n              0x04\n              add\n              tag_138\n              swap1\n              tag_224\n              jump\t// in\n            tag_418:\n                /* \"Inheritance.sol\":11081:11086  index */\n              dup1\n                /* \"Inheritance.sol\":11067:11200  for (uint i = index; i < inheritanceRequests.length-1; i++){... */\n            tag_420:\n                /* \"Inheritance.sol\":11092:11111  inheritanceRequests */\n              0x05\n                /* \"Inheritance.sol\":11092:11118  inheritanceRequests.length */\n              sload\n                /* \"Inheritance.sol\":11092:11120  inheritanceRequests.length-1 */\n              tag_423\n              swap1\n                /* \"Inheritance.sol\":11119:11120  1 */\n              0x01\n              swap1\n                /* \"Inheritance.sol\":11092:11120  inheritanceRequests.length-1 */\n              tag_129\n              jump\t// in\n            tag_423:\n                /* \"Inheritance.sol\":11088:11089  i */\n              dup2\n                /* \"Inheritance.sol\":11088:11120  i < inheritanceRequests.length-1 */\n              lt\n                /* \"Inheritance.sol\":11067:11200  for (uint i = index; i < inheritanceRequests.length-1; i++){... */\n              iszero\n              tag_421\n              jumpi\n                /* \"Inheritance.sol\":11165:11184  inheritanceRequests */\n              0x05\n                /* \"Inheritance.sol\":11185:11188  i+1 */\n              tag_424\n                /* \"Inheritance.sol\":11185:11186  i */\n              dup3\n                /* \"Inheritance.sol\":11187:11188  1 */\n              0x01\n                /* \"Inheritance.sol\":11185:11188  i+1 */\n              tag_244\n              jump\t// in\n            tag_424:\n                /* \"Inheritance.sol\":11165:11189  inheritanceRequests[i+1] */\n              dup2\n              sload\n              dup2\n              lt\n              tag_426\n              jumpi\n              tag_426\n              tag_148\n              jump\t// in\n            tag_426:\n              0x00\n              swap2\n              dup3\n              mstore\n              0x20\n              swap1\n              swap2\n              keccak256\n              add\n              sload\n                /* \"Inheritance.sol\":11140:11159  inheritanceRequests */\n              0x05\n                /* \"Inheritance.sol\":11140:11162  inheritanceRequests[i] */\n              dup1\n              sload\n              sub(shl(0xa0, 0x01), 0x01)\n                /* \"Inheritance.sol\":11165:11189  inheritanceRequests[i+1] */\n              swap1\n              swap3\n              and\n              swap2\n                /* \"Inheritance.sol\":11160:11161  i */\n              dup4\n              swap1\n                /* \"Inheritance.sol\":11140:11162  inheritanceRequests[i] */\n              dup2\n              lt\n              tag_429\n              jumpi\n              tag_429\n              tag_148\n              jump\t// in\n            tag_429:\n              0x00\n              swap2\n              dup3\n              mstore\n              0x20\n              swap1\n              swap2\n              keccak256\n              add\n                /* \"Inheritance.sol\":11140:11189  inheritanceRequests[i] = inheritanceRequests[i+1] */\n              dup1\n              sload\n              not(sub(shl(0xa0, 0x01), 0x01))\n              and\n              sub(shl(0xa0, 0x01), 0x01)\n              swap3\n              swap1\n              swap3\n              and\n              swap2\n              swap1\n              swap2\n              or\n              swap1\n              sstore\n                /* \"Inheritance.sol\":11122:11125  i++ */\n              dup1\n              tag_431\n              dup2\n              tag_154\n              jump\t// in\n            tag_431:\n              swap2\n              pop\n              pop\n                /* \"Inheritance.sol\":11067:11200  for (uint i = index; i < inheritanceRequests.length-1; i++){... */\n              jump(tag_420)\n            tag_421:\n              pop\n                /* \"Inheritance.sol\":11209:11228  inheritanceRequests */\n              0x05\n                /* \"Inheritance.sol\":11209:11234  inheritanceRequests.pop() */\n              dup1\n              sload\n              dup1\n              tag_433\n              jumpi\n              tag_433\n              tag_434\n              jump\t// in\n            tag_433:\n              0x00\n              dup3\n              dup2\n              mstore\n              0x20\n              swap1\n              keccak256\n              dup2\n              add\n              not(0x00)\n              swap1\n              dup2\n              add\n              dup1\n              sload\n              not(sub(shl(0xa0, 0x01), 0x01))\n              and\n              swap1\n              sstore\n              add\n              swap1\n              sstore\n              pop\n                /* \"Inheritance.sol\":10899:11241  function removeRequest(uint index) internal {... */\n              jump\t// out\n            tag_253:\n              dup3\n              dup1\n              sload\n              dup3\n              dup3\n              sstore\n              swap1\n              0x00\n              mstore\n              keccak256(0x00, 0x20)\n              swap1\n              dup2\n              add\n              swap3\n              dup3\n              iszero\n              tag_439\n              jumpi\n              swap2\n              0x20\n              mul\n              dup3\n              add\n            tag_438:\n              dup3\n              dup2\n              gt\n              iszero\n              tag_439\n              jumpi\n              dup3\n              mload\n              dup3\n              sstore\n              swap2\n              0x20\n              add\n              swap2\n              swap1\n              0x01\n              add\n              swap1\n              jump(tag_438)\n            tag_439:\n              pop\n              tag_440\n              swap3\n              swap2\n              pop\n              tag_441\n              jump\t// in\n            tag_440:\n              pop\n              swap1\n              jump\t// out\n            tag_441:\n            tag_442:\n              dup1\n              dup3\n              gt\n              iszero\n              tag_440\n              jumpi\n              0x00\n              dup2\n              sstore\n              0x01\n              add\n              jump(tag_442)\n                /* \"#utility.yul\":206:864   */\n            tag_37:\n                /* \"#utility.yul\":377:379   */\n              0x20\n                /* \"#utility.yul\":429:450   */\n              dup1\n              dup3\n              mstore\n                /* \"#utility.yul\":499:512   */\n              dup3\n              mload\n                /* \"#utility.yul\":402:420   */\n              dup3\n              dup3\n              add\n                /* \"#utility.yul\":521:543   */\n              dup2\n              swap1\n              mstore\n                /* \"#utility.yul\":348:352   */\n              0x00\n              swap2\n                /* \"#utility.yul\":377:379   */\n              swap1\n                /* \"#utility.yul\":600:615   */\n              dup5\n              dup3\n              add\n              swap1\n                /* \"#utility.yul\":574:576   */\n              0x40\n                /* \"#utility.yul\":559:577   */\n              dup6\n              add\n              swap1\n                /* \"#utility.yul\":348:352   */\n              dup5\n                /* \"#utility.yul\":643:838   */\n            tag_450:\n                /* \"#utility.yul\":657:663   */\n              dup2\n                /* \"#utility.yul\":654:655   */\n              dup2\n                /* \"#utility.yul\":651:664   */\n              lt\n                /* \"#utility.yul\":643:838   */\n              iszero\n              tag_452\n              jumpi\n                /* \"#utility.yul\":722:735   */\n              dup4\n              mload\n              sub(shl(0xa0, 0x01), 0x01)\n                /* \"#utility.yul\":718:757   */\n              and\n                /* \"#utility.yul\":706:758   */\n              dup4\n              mstore\n                /* \"#utility.yul\":813:828   */\n              swap3\n              dup5\n              add\n              swap3\n                /* \"#utility.yul\":778:790   */\n              swap2\n              dup5\n              add\n              swap2\n                /* \"#utility.yul\":754:755   */\n              0x01\n                /* \"#utility.yul\":672:681   */\n              add\n                /* \"#utility.yul\":643:838   */\n              jump(tag_450)\n            tag_452:\n              pop\n                /* \"#utility.yul\":855:858   */\n              swap1\n              swap7\n                /* \"#utility.yul\":206:864   */\n              swap6\n              pop\n              pop\n              pop\n              pop\n              pop\n              pop\n              jump\t// out\n                /* \"#utility.yul\":869:1049   */\n            tag_44:\n                /* \"#utility.yul\":928:934   */\n              0x00\n                /* \"#utility.yul\":981:983   */\n              0x20\n                /* \"#utility.yul\":969:978   */\n              dup3\n                /* \"#utility.yul\":960:967   */\n              dup5\n                /* \"#utility.yul\":956:979   */\n              sub\n                /* \"#utility.yul\":952:984   */\n              slt\n                /* \"#utility.yul\":949:1001   */\n              iszero\n              tag_454\n              jumpi\n                /* \"#utility.yul\":997:998   */\n              0x00\n                /* \"#utility.yul\":994:995   */\n              dup1\n                /* \"#utility.yul\":987:999   */\n              revert\n                /* \"#utility.yul\":949:1001   */\n            tag_454:\n              pop\n                /* \"#utility.yul\":1020:1043   */\n              calldataload\n              swap2\n                /* \"#utility.yul\":869:1049   */\n              swap1\n              pop\n              jump\t// out\n                /* \"#utility.yul\":1054:1227   */\n            tag_444:\n                /* \"#utility.yul\":1122:1142   */\n              dup1\n              calldataload\n              sub(shl(0xa0, 0x01), 0x01)\n                /* \"#utility.yul\":1171:1202   */\n              dup2\n              and\n                /* \"#utility.yul\":1161:1203   */\n              dup2\n              eq\n                /* \"#utility.yul\":1151:1221   */\n              tag_456\n              jumpi\n                /* \"#utility.yul\":1217:1218   */\n              0x00\n                /* \"#utility.yul\":1214:1215   */\n              dup1\n                /* \"#utility.yul\":1207:1219   */\n              revert\n                /* \"#utility.yul\":1151:1221   */\n            tag_456:\n                /* \"#utility.yul\":1054:1227   */\n              swap2\n              swap1\n              pop\n              jump\t// out\n                /* \"#utility.yul\":1232:1418   */\n            tag_49:\n                /* \"#utility.yul\":1291:1297   */\n              0x00\n                /* \"#utility.yul\":1344:1346   */\n              0x20\n                /* \"#utility.yul\":1332:1341   */\n              dup3\n                /* \"#utility.yul\":1323:1330   */\n              dup5\n                /* \"#utility.yul\":1319:1342   */\n              sub\n                /* \"#utility.yul\":1315:1347   */\n              slt\n                /* \"#utility.yul\":1312:1364   */\n              iszero\n              tag_458\n              jumpi\n                /* \"#utility.yul\":1360:1361   */\n              0x00\n                /* \"#utility.yul\":1357:1358   */\n              dup1\n                /* \"#utility.yul\":1350:1362   */\n              revert\n                /* \"#utility.yul\":1312:1364   */\n            tag_458:\n                /* \"#utility.yul\":1383:1412   */\n              tag_459\n                /* \"#utility.yul\":1402:1411   */\n              dup3\n                /* \"#utility.yul\":1383:1412   */\n              tag_444\n              jump\t// in\n            tag_459:\n                /* \"#utility.yul\":1373:1412   */\n              swap4\n                /* \"#utility.yul\":1232:1418   */\n              swap3\n              pop\n              pop\n              pop\n              jump\t// out\n                /* \"#utility.yul\":1423:1858   */\n            tag_445:\n                /* \"#utility.yul\":1476:1479   */\n              0x00\n                /* \"#utility.yul\":1514:1519   */\n              dup2\n                /* \"#utility.yul\":1508:1520   */\n              mload\n                /* \"#utility.yul\":1541:1547   */\n              dup1\n                /* \"#utility.yul\":1536:1539   */\n              dup5\n                /* \"#utility.yul\":1529:1548   */\n              mstore\n                /* \"#utility.yul\":1567:1571   */\n              0x20\n                /* \"#utility.yul\":1596:1598   */\n              dup1\n                /* \"#utility.yul\":1591:1594   */\n              dup6\n                /* \"#utility.yul\":1587:1599   */\n              add\n                /* \"#utility.yul\":1580:1599   */\n              swap5\n              pop\n                /* \"#utility.yul\":1633:1635   */\n              dup1\n                /* \"#utility.yul\":1626:1631   */\n              dup5\n                /* \"#utility.yul\":1622:1636   */\n              add\n                /* \"#utility.yul\":1654:1655   */\n              0x00\n                /* \"#utility.yul\":1664:1833   */\n            tag_461:\n                /* \"#utility.yul\":1678:1684   */\n              dup4\n                /* \"#utility.yul\":1675:1676   */\n              dup2\n                /* \"#utility.yul\":1672:1685   */\n              lt\n                /* \"#utility.yul\":1664:1833   */\n              iszero\n              tag_463\n              jumpi\n                /* \"#utility.yul\":1739:1752   */\n              dup2\n              mload\n                /* \"#utility.yul\":1727:1753   */\n              dup8\n              mstore\n                /* \"#utility.yul\":1773:1785   */\n              swap6\n              dup3\n              add\n              swap6\n                /* \"#utility.yul\":1808:1823   */\n              swap1\n              dup3\n              add\n              swap1\n                /* \"#utility.yul\":1700:1701   */\n              0x01\n                /* \"#utility.yul\":1693:1702   */\n              add\n                /* \"#utility.yul\":1664:1833   */\n              jump(tag_461)\n            tag_463:\n              pop\n                /* \"#utility.yul\":1849:1852   */\n              swap5\n              swap6\n                /* \"#utility.yul\":1423:1858   */\n              swap5\n              pop\n              pop\n              pop\n              pop\n              pop\n              jump\t// out\n                /* \"#utility.yul\":1863:2124   */\n            tag_52:\n                /* \"#utility.yul\":2042:2044   */\n              0x20\n                /* \"#utility.yul\":2031:2040   */\n              dup2\n                /* \"#utility.yul\":2024:2045   */\n              mstore\n                /* \"#utility.yul\":2005:2009   */\n              0x00\n                /* \"#utility.yul\":2062:2118   */\n              tag_459\n                /* \"#utility.yul\":2114:2116   */\n              0x20\n                /* \"#utility.yul\":2103:2112   */\n              dup4\n                /* \"#utility.yul\":2099:2117   */\n              add\n                /* \"#utility.yul\":2091:2097   */\n              dup5\n                /* \"#utility.yul\":2062:2118   */\n              tag_445\n              jump\t// in\n                /* \"#utility.yul\":2311:2565   */\n            tag_61:\n                /* \"#utility.yul\":2379:2385   */\n              0x00\n                /* \"#utility.yul\":2387:2393   */\n              dup1\n                /* \"#utility.yul\":2440:2442   */\n              0x40\n                /* \"#utility.yul\":2428:2437   */\n              dup4\n                /* \"#utility.yul\":2419:2426   */\n              dup6\n                /* \"#utility.yul\":2415:2438   */\n              sub\n                /* \"#utility.yul\":2411:2443   */\n              slt\n                /* \"#utility.yul\":2408:2460   */\n              iszero\n              tag_468\n              jumpi\n                /* \"#utility.yul\":2456:2457   */\n              0x00\n                /* \"#utility.yul\":2453:2454   */\n              dup1\n                /* \"#utility.yul\":2446:2458   */\n              revert\n                /* \"#utility.yul\":2408:2460   */\n            tag_468:\n                /* \"#utility.yul\":2479:2508   */\n              tag_469\n                /* \"#utility.yul\":2498:2507   */\n              dup4\n                /* \"#utility.yul\":2479:2508   */\n              tag_444\n              jump\t// in\n            tag_469:\n                /* \"#utility.yul\":2469:2508   */\n              swap5\n                /* \"#utility.yul\":2555:2557   */\n              0x20\n                /* \"#utility.yul\":2540:2558   */\n              swap4\n              swap1\n              swap4\n              add\n                /* \"#utility.yul\":2527:2559   */\n              calldataload\n              swap4\n              pop\n              pop\n              pop\n                /* \"#utility.yul\":2311:2565   */\n              jump\t// out\n                /* \"#utility.yul\":2570:3873   */\n            tag_67:\n                /* \"#utility.yul\":2752:2756   */\n              0x00\n                /* \"#utility.yul\":2781:2783   */\n              0x20\n                /* \"#utility.yul\":2821:2823   */\n              dup1\n                /* \"#utility.yul\":2810:2819   */\n              dup4\n                /* \"#utility.yul\":2806:2824   */\n              add\n                /* \"#utility.yul\":2851:2853   */\n              dup2\n                /* \"#utility.yul\":2840:2849   */\n              dup5\n                /* \"#utility.yul\":2833:2854   */\n              mstore\n                /* \"#utility.yul\":2874:2880   */\n              dup1\n                /* \"#utility.yul\":2909:2915   */\n              dup6\n                /* \"#utility.yul\":2903:2916   */\n              mload\n                /* \"#utility.yul\":2940:2946   */\n              dup1\n                /* \"#utility.yul\":2932:2938   */\n              dup4\n                /* \"#utility.yul\":2925:2947   */\n              mstore\n                /* \"#utility.yul\":2966:2968   */\n              0x40\n                /* \"#utility.yul\":2956:2968   */\n              swap3\n              pop\n                /* \"#utility.yul\":2999:3001   */\n              dup3\n                /* \"#utility.yul\":2988:2997   */\n              dup7\n                /* \"#utility.yul\":2984:3002   */\n              add\n                /* \"#utility.yul\":2977:3002   */\n              swap2\n              pop\n                /* \"#utility.yul\":3061:3063   */\n              dup3\n                /* \"#utility.yul\":3051:3057   */\n              dup2\n                /* \"#utility.yul\":3048:3049   */\n              0x05\n                /* \"#utility.yul\":3044:3058   */\n              shl\n                /* \"#utility.yul\":3033:3042   */\n              dup8\n                /* \"#utility.yul\":3029:3059   */\n              add\n                /* \"#utility.yul\":3025:3064   */\n              add\n                /* \"#utility.yul\":3099:3101   */\n              dup5\n                /* \"#utility.yul\":3091:3097   */\n              dup9\n                /* \"#utility.yul\":3087:3102   */\n              add\n                /* \"#utility.yul\":3120:3121   */\n              0x00\n                /* \"#utility.yul\":3130:3844   */\n            tag_471:\n                /* \"#utility.yul\":3144:3150   */\n              dup4\n                /* \"#utility.yul\":3141:3142   */\n              dup2\n                /* \"#utility.yul\":3138:3151   */\n              lt\n                /* \"#utility.yul\":3130:3844   */\n              iszero\n              tag_473\n              jumpi\n                /* \"#utility.yul\":3209:3231   */\n              dup9\n              dup4\n              sub\n              not(0x3f)\n                /* \"#utility.yul\":3205:3241   */\n              add\n                /* \"#utility.yul\":3193:3242   */\n              dup6\n              mstore\n                /* \"#utility.yul\":3265:3278   */\n              dup2\n              mload\n                /* \"#utility.yul\":3337:3346   */\n              dup1\n              mload\n              sub(shl(0xa0, 0x01), 0x01)\n                /* \"#utility.yul\":3333:3368   */\n              and\n                /* \"#utility.yul\":3318:3369   */\n              dup5\n              mstore\n                /* \"#utility.yul\":3412:3423   */\n              dup8\n              dup2\n              add\n                /* \"#utility.yul\":3406:3424   */\n              mload\n                /* \"#utility.yul\":3389:3404   */\n              dup9\n              dup6\n              add\n                /* \"#utility.yul\":3382:3425   */\n              mstore\n                /* \"#utility.yul\":3468:3479   */\n              dup7\n              dup2\n              add\n                /* \"#utility.yul\":3462:3480   */\n              mload\n                /* \"#utility.yul\":3445:3460   */\n              dup8\n              dup6\n              add\n                /* \"#utility.yul\":3438:3481   */\n              mstore\n                /* \"#utility.yul\":3504:3508   */\n              0x60\n                /* \"#utility.yul\":3551:3562   */\n              dup1\n              dup3\n              add\n                /* \"#utility.yul\":3545:3563   */\n              mload\n                /* \"#utility.yul\":3528:3543   */\n              swap1\n              dup6\n              add\n                /* \"#utility.yul\":3521:3564   */\n              mstore\n                /* \"#utility.yul\":3587:3591   */\n              0x80\n                /* \"#utility.yul\":3630:3641   */\n              swap1\n              dup2\n              add\n                /* \"#utility.yul\":3624:3642   */\n              mload\n                /* \"#utility.yul\":3301:3305   */\n              0xa0\n                /* \"#utility.yul\":3662:3677   */\n              swap2\n              dup6\n              add\n                /* \"#utility.yul\":3655:3682   */\n              dup3\n              swap1\n              mstore\n                /* \"#utility.yul\":3624:3642   */\n              swap1\n                /* \"#utility.yul\":3705:3764   */\n              tag_474\n                /* \"#utility.yul\":3748:3763   */\n              dup2\n              dup7\n              add\n                /* \"#utility.yul\":3624:3642   */\n              dup4\n                /* \"#utility.yul\":3705:3764   */\n              tag_445\n              jump\t// in\n            tag_474:\n                /* \"#utility.yul\":3822:3834   */\n              swap7\n              dup10\n              add\n              swap7\n                /* \"#utility.yul\":3695:3764   */\n              swap5\n              pop\n              pop\n              pop\n                /* \"#utility.yul\":3787:3802   */\n              swap1\n              dup7\n              add\n              swap1\n                /* \"#utility.yul\":3166:3167   */\n              0x01\n                /* \"#utility.yul\":3159:3168   */\n              add\n                /* \"#utility.yul\":3130:3844   */\n              jump(tag_471)\n            tag_473:\n              pop\n                /* \"#utility.yul\":3861:3867   */\n              swap1\n              swap9\n                /* \"#utility.yul\":2570:3873   */\n              swap8\n              pop\n              pop\n              pop\n              pop\n              pop\n              pop\n              pop\n              pop\n              jump\t// out\n                /* \"#utility.yul\":3878:4200   */\n            tag_74:\n                /* \"#utility.yul\":3955:3961   */\n              0x00\n                /* \"#utility.yul\":3963:3969   */\n              dup1\n                /* \"#utility.yul\":3971:3977   */\n              0x00\n                /* \"#utility.yul\":4024:4026   */\n              0x60\n                /* \"#utility.yul\":4012:4021   */\n              dup5\n                /* \"#utility.yul\":4003:4010   */\n              dup7\n                /* \"#utility.yul\":3999:4022   */\n              sub\n                /* \"#utility.yul\":3995:4027   */\n              slt\n                /* \"#utility.yul\":3992:4044   */\n              iszero\n              tag_476\n              jumpi\n                /* \"#utility.yul\":4040:4041   */\n              0x00\n                /* \"#utility.yul\":4037:4038   */\n              dup1\n                /* \"#utility.yul\":4030:4042   */\n              revert\n                /* \"#utility.yul\":3992:4044   */\n            tag_476:\n                /* \"#utility.yul\":4076:4085   */\n              dup4\n                /* \"#utility.yul\":4063:4086   */\n              calldataload\n                /* \"#utility.yul\":4053:4086   */\n              swap3\n              pop\n                /* \"#utility.yul\":4105:4143   */\n              tag_477\n                /* \"#utility.yul\":4139:4141   */\n              0x20\n                /* \"#utility.yul\":4128:4137   */\n              dup6\n                /* \"#utility.yul\":4124:4142   */\n              add\n                /* \"#utility.yul\":4105:4143   */\n              tag_444\n              jump\t// in\n            tag_477:\n                /* \"#utility.yul\":4095:4143   */\n              swap2\n              pop\n                /* \"#utility.yul\":4190:4192   */\n              0x40\n                /* \"#utility.yul\":4179:4188   */\n              dup5\n                /* \"#utility.yul\":4175:4193   */\n              add\n                /* \"#utility.yul\":4162:4194   */\n              calldataload\n                /* \"#utility.yul\":4152:4194   */\n              swap1\n              pop\n                /* \"#utility.yul\":3878:4200   */\n              swap3\n              pop\n              swap3\n              pop\n              swap3\n              jump\t// out\n                /* \"#utility.yul\":4413:4667   */\n            tag_108:\n                /* \"#utility.yul\":4481:4487   */\n              0x00\n                /* \"#utility.yul\":4489:4495   */\n              dup1\n                /* \"#utility.yul\":4542:4544   */\n              0x40\n                /* \"#utility.yul\":4530:4539   */\n              dup4\n                /* \"#utility.yul\":4521:4528   */\n              dup6\n                /* \"#utility.yul\":4517:4540   */\n              sub\n                /* \"#utility.yul\":4513:4545   */\n              slt\n                /* \"#utility.yul\":4510:4562   */\n              iszero\n              tag_480\n              jumpi\n                /* \"#utility.yul\":4558:4559   */\n              0x00\n                /* \"#utility.yul\":4555:4556   */\n              dup1\n                /* \"#utility.yul\":4548:4560   */\n              revert\n                /* \"#utility.yul\":4510:4562   */\n            tag_480:\n                /* \"#utility.yul\":4594:4603   */\n              dup3\n                /* \"#utility.yul\":4581:4604   */\n              calldataload\n                /* \"#utility.yul\":4571:4604   */\n              swap2\n              pop\n                /* \"#utility.yul\":4623:4661   */\n              tag_481\n                /* \"#utility.yul\":4657:4659   */\n              0x20\n                /* \"#utility.yul\":4646:4655   */\n              dup5\n                /* \"#utility.yul\":4642:4660   */\n              add\n                /* \"#utility.yul\":4623:4661   */\n              tag_444\n              jump\t// in\n            tag_481:\n                /* \"#utility.yul\":4613:4661   */\n              swap1\n              pop\n                /* \"#utility.yul\":4413:4667   */\n              swap3\n              pop\n              swap3\n              swap1\n              pop\n              jump\t// out\n                /* \"#utility.yul\":4951:5078   */\n            tag_446:\n                /* \"#utility.yul\":5012:5022   */\n              0x4e487b71\n                /* \"#utility.yul\":5007:5010   */\n              0xe0\n                /* \"#utility.yul\":5003:5023   */\n              shl\n                /* \"#utility.yul\":5000:5001   */\n              0x00\n                /* \"#utility.yul\":4993:5024   */\n              mstore\n                /* \"#utility.yul\":5043:5047   */\n              0x11\n                /* \"#utility.yul\":5040:5041   */\n              0x04\n                /* \"#utility.yul\":5033:5048   */\n              mstore\n                /* \"#utility.yul\":5067:5071   */\n              0x24\n                /* \"#utility.yul\":5064:5065   */\n              0x00\n                /* \"#utility.yul\":5057:5072   */\n              revert\n                /* \"#utility.yul\":5083:5211   */\n            tag_129:\n                /* \"#utility.yul\":5150:5159   */\n              dup2\n              dup2\n              sub\n                /* \"#utility.yul\":5171:5182   */\n              dup2\n              dup2\n              gt\n                /* \"#utility.yul\":5168:5205   */\n              iszero\n              tag_486\n              jumpi\n                /* \"#utility.yul\":5185:5203   */\n              tag_486\n              tag_446\n              jump\t// in\n            tag_486:\n                /* \"#utility.yul\":5083:5211   */\n              swap3\n              swap2\n              pop\n              pop\n              jump\t// out\n                /* \"#utility.yul\":6047:6174   */\n            tag_148:\n                /* \"#utility.yul\":6108:6118   */\n              0x4e487b71\n                /* \"#utility.yul\":6103:6106   */\n              0xe0\n                /* \"#utility.yul\":6099:6119   */\n              shl\n                /* \"#utility.yul\":6096:6097   */\n              0x00\n                /* \"#utility.yul\":6089:6120   */\n              mstore\n                /* \"#utility.yul\":6139:6143   */\n              0x32\n                /* \"#utility.yul\":6136:6137   */\n              0x04\n                /* \"#utility.yul\":6129:6144   */\n              mstore\n                /* \"#utility.yul\":6163:6167   */\n              0x24\n                /* \"#utility.yul\":6160:6161   */\n              0x00\n                /* \"#utility.yul\":6153:6168   */\n              revert\n                /* \"#utility.yul\":6589:6724   */\n            tag_154:\n                /* \"#utility.yul\":6628:6631   */\n              0x00\n                /* \"#utility.yul\":6649:6666   */\n              0x01\n              dup3\n              add\n                /* \"#utility.yul\":6646:6689   */\n              tag_493\n              jumpi\n                /* \"#utility.yul\":6669:6687   */\n              tag_493\n              tag_446\n              jump\t// in\n            tag_493:\n              pop\n                /* \"#utility.yul\":6716:6717   */\n              0x01\n                /* \"#utility.yul\":6705:6718   */\n              add\n              swap1\n                /* \"#utility.yul\":6589:6724   */\n              jump\t// out\n                /* \"#utility.yul\":7986:8170   */\n            tag_189:\n                /* \"#utility.yul\":8056:8062   */\n              0x00\n                /* \"#utility.yul\":8109:8111   */\n              0x20\n                /* \"#utility.yul\":8097:8106   */\n              dup3\n                /* \"#utility.yul\":8088:8095   */\n              dup5\n                /* \"#utility.yul\":8084:8107   */\n              sub\n                /* \"#utility.yul\":8080:8112   */\n              slt\n                /* \"#utility.yul\":8077:8129   */\n              iszero\n              tag_498\n              jumpi\n                /* \"#utility.yul\":8125:8126   */\n              0x00\n                /* \"#utility.yul\":8122:8123   */\n              dup1\n                /* \"#utility.yul\":8115:8127   */\n              revert\n                /* \"#utility.yul\":8077:8129   */\n            tag_498:\n              pop\n                /* \"#utility.yul\":8148:8164   */\n              mload\n              swap2\n                /* \"#utility.yul\":7986:8170   */\n              swap1\n              pop\n              jump\t// out\n                /* \"#utility.yul\":8585:9005   */\n            tag_224:\n                /* \"#utility.yul\":8787:8789   */\n              0x20\n                /* \"#utility.yul\":8769:8790   */\n              dup1\n              dup3\n              mstore\n                /* \"#utility.yul\":8826:8828   */\n              0x38\n                /* \"#utility.yul\":8806:8824   */\n              swap1\n              dup3\n              add\n                /* \"#utility.yul\":8799:8829   */\n              mstore\n                /* \"#utility.yul\":8865:8899   */\n              0x54686520696e6465782073656e7420697320626967676572207468616e207468\n                /* \"#utility.yul\":8860:8862   */\n              0x40\n                /* \"#utility.yul\":8845:8863   */\n              dup3\n              add\n                /* \"#utility.yul\":8838:8900   */\n              mstore\n                /* \"#utility.yul\":8936:8962   */\n              0x65207265717565737473206172726179206c656e6774682e0000000000000000\n                /* \"#utility.yul\":8931:8933   */\n              0x60\n                /* \"#utility.yul\":8916:8934   */\n              dup3\n              add\n                /* \"#utility.yul\":8909:8963   */\n              mstore\n                /* \"#utility.yul\":8995:8998   */\n              0x80\n                /* \"#utility.yul\":8980:8999   */\n              add\n              swap1\n                /* \"#utility.yul\":8585:9005   */\n              jump\t// out\n                /* \"#utility.yul\":9010:9487   */\n            tag_230:\n                /* \"#utility.yul\":9212:9214   */\n              0x20\n                /* \"#utility.yul\":9194:9215   */\n              dup1\n              dup3\n              mstore\n                /* \"#utility.yul\":9251:9253   */\n              0x49\n                /* \"#utility.yul\":9231:9249   */\n              swap1\n              dup3\n              add\n                /* \"#utility.yul\":9224:9254   */\n              mstore\n                /* \"#utility.yul\":9290:9324   */\n              0x416464726573732073656e7420646f65736e2774206d61746368207769746820\n                /* \"#utility.yul\":9285:9287   */\n              0x40\n                /* \"#utility.yul\":9270:9288   */\n              dup3\n              add\n                /* \"#utility.yul\":9263:9325   */\n              mstore\n                /* \"#utility.yul\":9361:9395   */\n              0x74686520616464726573732073746f72656420696e2074686520726571756573\n                /* \"#utility.yul\":9356:9358   */\n              0x60\n                /* \"#utility.yul\":9341:9359   */\n              dup3\n              add\n                /* \"#utility.yul\":9334:9396   */\n              mstore\n              shl(0xb9, 0x3a399030b93930bc97)\n                /* \"#utility.yul\":9427:9430   */\n              0x80\n                /* \"#utility.yul\":9412:9431   */\n              dup3\n              add\n                /* \"#utility.yul\":9405:9445   */\n              mstore\n                /* \"#utility.yul\":9477:9480   */\n              0xa0\n                /* \"#utility.yul\":9462:9481   */\n              add\n              swap1\n                /* \"#utility.yul\":9010:9487   */\n              jump\t// out\n                /* \"#utility.yul\":9899:10024   */\n            tag_244:\n                /* \"#utility.yul\":9964:9973   */\n              dup1\n              dup3\n              add\n                /* \"#utility.yul\":9985:9995   */\n              dup1\n              dup3\n              gt\n                /* \"#utility.yul\":9982:10018   */\n              iszero\n              tag_486\n              jumpi\n                /* \"#utility.yul\":9998:10016   */\n              tag_486\n              tag_446\n              jump\t// in\n                /* \"#utility.yul\":11576:11744   */\n            tag_284:\n                /* \"#utility.yul\":11649:11658   */\n              dup1\n              dup3\n              mul\n                /* \"#utility.yul\":11680:11689   */\n              dup2\n              iszero\n                /* \"#utility.yul\":11697:11712   */\n              dup3\n              dup3\n              div\n                /* \"#utility.yul\":11691:11713   */\n              dup5\n              eq\n                /* \"#utility.yul\":11677:11714   */\n              or\n                /* \"#utility.yul\":11667:11738   */\n              tag_486\n              jumpi\n                /* \"#utility.yul\":11718:11736   */\n              tag_486\n              tag_446\n              jump\t// in\n                /* \"#utility.yul\":11749:11966   */\n            tag_286:\n                /* \"#utility.yul\":11789:11790   */\n              0x00\n                /* \"#utility.yul\":11815:11816   */\n              dup3\n                /* \"#utility.yul\":11805:11937   */\n              tag_513\n              jumpi\n                /* \"#utility.yul\":11859:11869   */\n              0x4e487b71\n                /* \"#utility.yul\":11854:11857   */\n              0xe0\n                /* \"#utility.yul\":11850:11870   */\n              shl\n                /* \"#utility.yul\":11847:11848   */\n              0x00\n                /* \"#utility.yul\":11840:11871   */\n              mstore\n                /* \"#utility.yul\":11894:11898   */\n              0x12\n                /* \"#utility.yul\":11891:11892   */\n              0x04\n                /* \"#utility.yul\":11884:11899   */\n              mstore\n                /* \"#utility.yul\":11922:11926   */\n              0x24\n                /* \"#utility.yul\":11919:11920   */\n              0x00\n                /* \"#utility.yul\":11912:11927   */\n              revert\n                /* \"#utility.yul\":11805:11937   */\n            tag_513:\n              pop\n                /* \"#utility.yul\":11951:11960   */\n              div\n              swap1\n                /* \"#utility.yul\":11749:11966   */\n              jump\t// out\n                /* \"#utility.yul\":11971:12248   */\n            tag_314:\n                /* \"#utility.yul\":12038:12044   */\n              0x00\n                /* \"#utility.yul\":12091:12093   */\n              0x20\n                /* \"#utility.yul\":12079:12088   */\n              dup3\n                /* \"#utility.yul\":12070:12077   */\n              dup5\n                /* \"#utility.yul\":12066:12089   */\n              sub\n                /* \"#utility.yul\":12062:12094   */\n              slt\n                /* \"#utility.yul\":12059:12111   */\n              iszero\n              tag_515\n              jumpi\n                /* \"#utility.yul\":12107:12108   */\n              0x00\n                /* \"#utility.yul\":12104:12105   */\n              dup1\n                /* \"#utility.yul\":12097:12109   */\n              revert\n                /* \"#utility.yul\":12059:12111   */\n            tag_515:\n                /* \"#utility.yul\":12139:12148   */\n              dup2\n                /* \"#utility.yul\":12133:12149   */\n              mload\n                /* \"#utility.yul\":12192:12197   */\n              dup1\n                /* \"#utility.yul\":12185:12198   */\n              iszero\n                /* \"#utility.yul\":12178:12199   */\n              iszero\n                /* \"#utility.yul\":12171:12176   */\n              dup2\n                /* \"#utility.yul\":12168:12200   */\n              eq\n                /* \"#utility.yul\":12158:12218   */\n              tag_459\n              jumpi\n                /* \"#utility.yul\":12214:12215   */\n              0x00\n                /* \"#utility.yul\":12211:12212   */\n              dup1\n                /* \"#utility.yul\":12204:12216   */\n              revert\n                /* \"#utility.yul\":16622:16749   */\n            tag_397:\n                /* \"#utility.yul\":16683:16693   */\n              0x4e487b71\n                /* \"#utility.yul\":16678:16681   */\n              0xe0\n                /* \"#utility.yul\":16674:16694   */\n              shl\n                /* \"#utility.yul\":16671:16672   */\n              0x00\n                /* \"#utility.yul\":16664:16695   */\n              mstore\n                /* \"#utility.yul\":16714:16718   */\n              0x41\n                /* \"#utility.yul\":16711:16712   */\n              0x04\n                /* \"#utility.yul\":16704:16719   */\n              mstore\n                /* \"#utility.yul\":16738:16742   */\n              0x24\n                /* \"#utility.yul\":16735:16736   */\n              0x00\n                /* \"#utility.yul\":16728:16743   */\n              revert\n                /* \"#utility.yul\":17115:17242   */\n            tag_434:\n                /* \"#utility.yul\":17176:17186   */\n              0x4e487b71\n                /* \"#utility.yul\":17171:17174   */\n              0xe0\n                /* \"#utility.yul\":17167:17187   */\n              shl\n                /* \"#utility.yul\":17164:17165   */\n              0x00\n                /* \"#utility.yul\":17157:17188   */\n              mstore\n                /* \"#utility.yul\":17207:17211   */\n              0x31\n                /* \"#utility.yul\":17204:17205   */\n              0x04\n                /* \"#utility.yul\":17197:17212   */\n              mstore\n                /* \"#utility.yul\":17231:17235   */\n              0x24\n                /* \"#utility.yul\":17228:17229   */\n              0x00\n                /* \"#utility.yul\":17221:17236   */\n              revert\n\n            auxdata: 0xa2646970667358221220abd5dfda80b69f05a46ddcd2d5594744d2c3e501c6ca3c8e080416d164dc287d64736f6c63430008130033\n        }\n    }\n\n    auxdata: 0xa2646970667358221220c2bd7cba939ed82539edf9195672ea74d79800446fb78293bdc9db5fa7c444cd64736f6c63430008130033\n}\n","bytecode":{"linkReferences":{},"object":"608060405234801561001057600080fd5b50612647806100206000396000f3fe608060405234801561001057600080fd5b50600436106100415760003560e01c806321b6e8f5146100465780636122fed51461005c57806365a4c2811461009d575b600080fd5b6000546040519081526020015b60405180910390f35b61008561006a3660046102e9565b6001602052600090815260409020546001600160a01b031681565b6040516001600160a01b039091168152602001610053565b6100b06100ab36600461030b565b6100b2565b005b336000908152600160205260409020546001600160a01b0316156101425760405162461bcd60e51b815260206004820152603d60248201527f596f75206861766520616c7265616479206f6e6520696e6865726974616e636560448201527f20637265617465642c20796f752063616e277420686176652074776f2e000000606482015260840160405180910390fd5b338282604051610151906102c0565b6001600160a01b03938416815260208101929092529091166040820152606001604051809103906000f08015801561018d573d6000803e3d6000fd5b5033600090815260016020526040812080546001600160a01b0319166001600160a01b039390931692909217909155805490806101c983610337565b90915550503360008181526001602052604080822054915490516001600160a01b039290921692917f246b027e5b424dae3d402e972e3f8e400056fe836431cbe048d9553826bb2e11916102b49160408082526069908201527f4c6f6720616c6c207468652076616c7565733a2041646d696e6973747261746f60608201527f7220616464726573732c20496e6865726974616e636520636f6e74726163742060808201527f616464726573732c204e756d626572206f6620696e6865726974616e6365732060a0820152683232b83637bcb2b21760b91b60c0820152602081019190915260e00190565b60405180910390a35050565b6122b38061035f83390190565b80356001600160a01b03811681146102e457600080fd5b919050565b6000602082840312156102fb57600080fd5b610304826102cd565b9392505050565b6000806040838503121561031e57600080fd5b8235915061032e602084016102cd565b90509250929050565b60006001820161035757634e487b7160e01b600052601160045260246000fd5b506001019056fe60806040523480156200001157600080fd5b50604051620022b3380380620022b38339810160408190526200003491620001f4565b6200003f33620000a6565b600880546001600160a01b0319166001600160a01b0383161790556200006583620000f6565b50600355604080518082019091526001600160a01b03909116808252426020909201829052600180546001600160a01b031916909117905560025562000235565b600080546001600160a01b038381166001600160a01b0319831681178455604051919092169283917f8be0079c531659141344cd1fd0a4f28419497f9722a3daafe3b4186f6b6457e09190a35050565b6200010062000179565b6001600160a01b0381166200016b5760405162461bcd60e51b815260206004820152602660248201527f4f776e61626c653a206e6577206f776e657220697320746865207a65726f206160448201526564647265737360d01b60648201526084015b60405180910390fd5b6200017681620000a6565b50565b6000546001600160a01b03163314620001d55760405162461bcd60e51b815260206004820181905260248201527f4f776e61626c653a2063616c6c6572206973206e6f7420746865206f776e6572604482015260640162000162565b565b80516001600160a01b0381168114620001ef57600080fd5b919050565b6000806000606084860312156200020a57600080fd5b6200021584620001d7565b9250602084015191506200022c60408501620001d7565b90509250925092565b61206e80620002456000396000f3fe6080604052600436106101405760003560e01c80639f3c4416116100b6578063de35f3761161006f578063de35f37614610333578063e92df2b014610353578063ea46193e14610373578063f2fde38b14610386578063f53d0a8e146103a6578063ffc15b7c146103e957600080fd5b80639f3c4416146102b7578063a37fc5cf146102cc578063c1b640db146102e1578063d0e30db0146102f6578063d5002f2e146102fe578063db81f99b1461031357600080fd5b80633cfd1ccc116101085780633cfd1ccc146101f557806344690153146102185780634eae51f414610238578063715018a61461025a5780637c1d3a011461026f5780638da5cb5b1461028f57600080fd5b8063051ea68f14610145578063064ac5781461016f5780630b6946da146101915780632e1a7d4d146101a857806335d6f873146101c8575b600080fd5b34801561015157600080fd5b5061015a6103fe565b60405190151581526020015b60405180910390f35b34801561017b57600080fd5b50610184610419565b6040516101669190611c40565b34801561019d57600080fd5b506101a6610483565b005b3480156101b457600080fd5b506101a66101c3366004611c8d565b6106d5565b3480156101d457600080fd5b506101e86101e3366004611cc2565b6107a9565b6040516101669190611d1f565b34801561020157600080fd5b5061020a610887565b604051908152602001610166565b34801561022457600080fd5b506101a6610233366004611d32565b6108f9565b34801561024457600080fd5b5061024d6109f6565b6040516101669190611d5c565b34801561026657600080fd5b506101a6610ad6565b34801561027b57600080fd5b506101a661028a366004611dfa565b610aea565b34801561029b57600080fd5b506000546040516001600160a01b039091168152602001610166565b3480156102c357600080fd5b506101a6610ec8565b3480156102d857600080fd5b5061020a611453565b3480156102ed57600080fd5b506101a6611464565b6101a6611508565b34801561030a57600080fd5b5061020a6115c7565b34801561031f57600080fd5b506101a661032e366004611c8d565b61161a565b34801561033f57600080fd5b506101a661034e366004611c8d565b6117bc565b34801561035f57600080fd5b506101a661036e366004611e2f565b6117c9565b34801561037f57600080fd5b504761020a565b34801561039257600080fd5b506101a66103a1366004611cc2565b6118ee565b3480156103b257600080fd5b506001546002546103ca916001600160a01b03169082565b604080516001600160a01b039093168352602083019190915201610166565b3480156103f557600080fd5b50610184611964565b600354600254600091906104129042611e71565b1015905090565b6060610423611a42565b600580548060200260200160405190810160405280929190818152602001828054801561047957602002820191906000526020600020905b81546001600160a01b0316815260019091019060200180831161045b575b5050505050905090565b60045433906064116104ec5760405162461bcd60e51b815260206004820152602760248201527f416c7265616479207265616368656420746865206c696d6974206f6620313030604482015266103432b4b9399760c91b60648201526084015b60405180910390fd5b60055460641161055d5760405162461bcd60e51b815260206004820152603660248201527f416c7265616479207265616368656420746865206c696d6974206f66203130306044820152751034b73432b934ba30b731b2903932b8bab2b9ba399760511b60648201526084016104e3565b60005b60055481101561060d57816001600160a01b03166005828154811061058757610587611e8a565b6000918252602090912001546001600160a01b0316036105fb5760405162461bcd60e51b815260206004820152602960248201527f4164647265737320616c72656164792065786973747320696e207265717565736044820152683a399030b93930bc9760b91b60648201526084016104e3565b8061060581611ea0565b915050610560565b506005805460018101825560008290527f036b6384b5eca791c62761152d0c79bb0604c104a5fb6f4eb0703f3154bb3db00180546001600160a01b0319163390811790915590546004546040805160608082526025908201527f5573657220726571756573747320746f20626520616464656420617320616e206080820152643432b4b91760d91b60a082015260208101939093528201527fe6096ebfc672773ae3076e8ae873cb450789130e8c0d87b2b933210acdc08f669060c00160405180910390a250565b6106dd611a42565b600081116107285760405162461bcd60e51b815260206004820152601860248201527720b6b7bab73a1036bab9ba103132903837b9b4ba34bb329760411b60448201526064016104e3565b478111156107785760405162461bcd60e51b815260206004820152601760248201527f4e6f7420656e6f756768204554482062616c616e63652e00000000000000000060448201526064016104e3565b604051339082156108fc029083906000818181858888f193505050501580156107a5573d6000803e3d6000fd5b5050565b606060005b60045481101561088157826001600160a01b0316600482815481106107d5576107d5611e8a565b60009182526020909120600590910201546001600160a01b03160361086f576004818154811061080757610807611e8a565b906000526020600020906005020160040180548060200260200160405190810160405280929190818152602001828054801561086257602002820191906000526020600020905b81548152602001906001019080831161084e575b5050505050915050919050565b8061087981611ea0565b9150506107ae565b50919050565b6008546040516370a0823160e01b81523060048201526000916001600160a01b0316906370a0823190602401602060405180830381865afa1580156108d0573d6000803e3d6000fd5b505050506040513d601f19601f820116820180604052508101906108f49190611eb9565b905090565b610901611a42565b60005b60045481101561099b57826001600160a01b03166004828154811061092b5761092b611e8a565b60009182526020909120600590910201546001600160a01b031603610989576004818154811061095d5761095d611e8a565b600091825260208083206004600590930201919091018054600181018255908352912001829055505050565b8061099381611ea0565b915050610904565b5060405162461bcd60e51b815260206004820152602960248201527f4e6f7420686569722061646472657373206d61746368656420746f207468652060448201526837b7329039b2b73a1760b91b60648201526084016104e3565b60606004805480602002602001604051908101604052809291908181526020016000905b82821015610acd5760008481526020908190206040805160a0810182526005860290920180546001600160a01b031683526001810154838501526002810154838301526003810154606084015260048101805483518187028101870190945280845293949193608086019392830182828015610ab557602002820191906000526020600020905b815481526020019060010190808311610aa1575b50505050508152505081526020019060010190610a1a565b50505050905090565b610ade611a42565b610ae86000611a9c565b565b610af2611a42565b8282826005805490508310610b195760405162461bcd60e51b81526004016104e390611ed2565b816001600160a01b031660058481548110610b3657610b36611e8a565b6000918252602090912001546001600160a01b031614610b685760405162461bcd60e51b81526004016104e390611f2f565b6000805b600454811015610c4d57836001600160a01b031660048281548110610b9357610b93611e8a565b60009182526020909120600590910201546001600160a01b031603610c095760405162461bcd60e51b815260206004820152602660248201527f4164647265737320616c72656164792065786973747320696e2068656972732060448201526530b93930bc9760d11b60648201526084016104e3565b60048181548110610c1c57610c1c611e8a565b90600052602060002090600502016001015482610c399190611f9e565b915080610c4581611ea0565b915050610b6c565b506064610c5a8383611f9e565b1115610cf45760405162461bcd60e51b815260206004820152605c60248201527f74686520616d6f756e74206f662073686172657320657863656564207468652060448201527f31303025206f662074686520496e6865726974616e63652c207472792077697460648201527f68206120736d616c6c657220616d6f756e74206f662073686172652e00000000608482015260a4016104e3565b6040805160a0810182526001600160a01b0388811682526020808301898152600094840185815260608086018781526080870182815260048054600181018255995287517f8a35acfbc15ff81a39ae7d344fd709f28e8600b4aa8c65c6b64bfe7fe36bd19b6005909a02998a0180546001600160a01b0319169190981617875593517f8a35acfbc15ff81a39ae7d344fd709f28e8600b4aa8c65c6b64bfe7fe36bd19c89015591517f8a35acfbc15ff81a39ae7d344fd709f28e8600b4aa8c65c6b64bfe7fe36bd19d88015590517f8a35acfbc15ff81a39ae7d344fd709f28e8600b4aa8c65c6b64bfe7fe36bd19e870155905180519195610e1d937f8a35acfbc15ff81a39ae7d344fd709f28e8600b4aa8c65c6b64bfe7fe36bd19f90910192910190611be0565b505050610e2988611aec565b6005546004546040805160808082526026908201527f41646d696e6973747261746f722061636365707473207573657220617320616e60a082015265103432b4b91760d11b60c0820152602081018a90529081019290925260608201526001600160a01b038816907f14aa904c12fa948b33e901e688a79d46fe3d46a383a5b181c26475cec40d67ec9060e00160405180910390a25050505050505050565b336000805b600454811015610f2a57826001600160a01b031660048281548110610ef457610ef4611e8a565b60009182526020909120600590910201546001600160a01b031603610f1857600191505b80610f2281611ea0565b915050610ecd565b50600181151514610f995760405162461bcd60e51b815260206004820152603360248201527f546865206164647265737320636c61696d696e672074686520696e686572697460448201527230b731b29034b9903737ba1030902432b4b91760691b60648201526084016104e3565b610fa16103fe565b156107a5576000610fb0610887565b9050476000610fbd6115c7565b905060005b6004548110156110d957818460048381548110610fe157610fe1611e8a565b906000526020600020906005020160010154610ffd9190611fb1565b6110079190611fc8565b600660006004848154811061101e5761101e611e8a565b600091825260208083206005909202909101546001600160a01b0316835282019290925260400190205560048054839185918490811061106057611060611e8a565b90600052602060002090600502016001015461107c9190611fb1565b6110869190611fc8565b600760006004848154811061109d5761109d611e8a565b600091825260208083206005909202909101546001600160a01b03168352820192909252604001902055806110d181611ea0565b915050610fc2565b506000805b60045481101561144a57600481815481106110fb576110fb611e8a565b600091825260208083206005909202909101546001600160a01b031680835260079091526040808320549051919450849281156108fc029290818181858888f19350505050158015611151573d6000803e3d6000fd5b506001600160a01b038216600090815260076020526040902054600480548390811061117f5761117f611e8a565b60009182526020808320600592909202909101600201929092556008546001600160a01b03858116808452600690945260409283902054925163a9059cbb60e01b815260048101949094526024840192909252169063a9059cbb906044016020604051808303816000875af11580156111fc573d6000803e3d6000fd5b505050506040513d601f19601f820116820180604052508101906112209190611fea565b6112925760405162461bcd60e51b815260206004820152603860248201527f4572726f72207768696c65207472616e7366657272696e67205553444320667260448201527f6f6d2074686520636f6e747261637420746f20686569722e000000000000000060648201526084016104e3565b6001600160a01b03821660009081526006602052604090205460048054839081106112bf576112bf611e8a565b906000526020600020906005020160030181905550816001600160a01b03167f34e2b4efda0968bd3c419ecd901876f712f93cd5fda9303ab16021c3535f55936004838154811061131257611312611e8a565b90600052602060002090600502016001015460076000866001600160a01b03166001600160a01b03168152602001908152602001600020546004858154811061135d5761135d611e8a565b90600052602060002090600502016002015460066000886001600160a01b03166001600160a01b0316815260200190815260200160002054600487815481106113a8576113a8611e8a565b90600052602060002090600502016003015460405161143095949392919060c08082526026908201527f457468657220616e642055534443206d6f6e65792073656e7420746f2074686560e082015265103432b4b91760d11b610100820152602081019590955260408501939093526060840191909152608083015260a08201526101200190565b60405180910390a28061144281611ea0565b9150506110de565b50505050505050565b600061145d611a42565b5060035490565b61146c611a42565b4260028190556003546040805160808082526031908201527f41646d696e6973747261746f722073656e64732061207369676e616c20746f2060a08201527039b437bb9034329034b99030b634bb329760791b60c08201526020810184905290810192909252606082015233907f5f1aa2875b7b1df0cd72a6ee708c6aff6432288001c47518bc91be4599fdf6e69060e00160405180910390a2565b600154604080516080808252604f908201527f4c6f6720616c6c207468652076616c7565733a2041646d696e6973747261746f60a08201527f7220616464726573732c20416d6f756e742073656e742c20436f6e747261637460c08201526e1032ba3432b9103130b630b731b29760891b60e08201526001600160a01b0390921660208301523482820152476060830152517f0e329d93cfda1bd6ead1003e3ae53461617c8d120014dfaea03d2fb42ec55b07918190036101000190a1565b600080805b60045481101561088157600481815481106115e9576115e9611e8a565b906000526020600020906005020160010154826116069190611f9e565b91508061161281611ea0565b9150506115cc565b611622611a42565b6000811161166d5760405162461bcd60e51b815260206004820152601860248201527720b6b7bab73a1036bab9ba103132903837b9b4ba34bb329760411b60448201526064016104e3565b611675610887565b8111156116c45760405162461bcd60e51b815260206004820152601860248201527f4e6f7420656e6f75676820555344432062616c616e63652e000000000000000060448201526064016104e3565b60085460405163a9059cbb60e01b8152336004820152602481018390526001600160a01b039091169063a9059cbb906044016020604051808303816000875af1158015611715573d6000803e3d6000fd5b505050506040513d601f19601f820116820180604052508101906117399190611fea565b6117b95760405162461bcd60e51b815260206004820152604560248201527f4572726f72207768696c65207472616e7366657272696e67205553444320667260448201527f6f6d2074686520636f6e747261637420746f207468652061646d696e6973747260648201526430ba37b91760d91b608482015260a4016104e3565b50565b6117c4611a42565b600355565b6117d1611a42565b6005548290829082106117f65760405162461bcd60e51b81526004016104e390611ed2565b806001600160a01b03166005838154811061181357611813611e8a565b6000918252602090912001546001600160a01b0316146118455760405162461bcd60e51b81526004016104e390611f2f565b61184e84611aec565b6005546004546040805160608082526033908201527f41646d696e6973747261746f722072656a6563747320757365722773207265716080820152723ab2b9ba103a379031329030b7103432b4b91760691b60a082015260208101939093528201526001600160a01b038416907f05541b3bb46c30ee5aea95b57d7a1d3949da67ba8e09c865da2318f2fb2738579060c00160405180910390a250505050565b6118f6611a42565b6001600160a01b03811661195b5760405162461bcd60e51b815260206004820152602660248201527f4f776e61626c653a206e6577206f776e657220697320746865207a65726f206160448201526564647265737360d01b60648201526084016104e3565b6117b981611a9c565b60045460609060009067ffffffffffffffff8111156119855761198561200c565b6040519080825280602002602001820160405280156119ae578160200160208202803683370190505b5090506000805b600454811015611a3a57600481815481106119d2576119d2611e8a565b600091825260209091206005909102015483516001600160a01b0390911690849084908110611a0357611a03611e8a565b6001600160a01b0390921660209283029190910190910152611a26600183611f9e565b915080611a3281611ea0565b9150506119b5565b509092915050565b6000546001600160a01b03163314610ae85760405162461bcd60e51b815260206004820181905260248201527f4f776e61626c653a2063616c6c6572206973206e6f7420746865206f776e657260448201526064016104e3565b600080546001600160a01b038381166001600160a01b0319831681178455604051919092169283917f8be0079c531659141344cd1fd0a4f28419497f9722a3daafe3b4186f6b6457e09190a35050565b6005548110611b0d5760405162461bcd60e51b81526004016104e390611ed2565b805b600554611b1e90600190611e71565b811015611ba9576005611b32826001611f9e565b81548110611b4257611b42611e8a565b600091825260209091200154600580546001600160a01b039092169183908110611b6e57611b6e611e8a565b600091825260209091200180546001600160a01b0319166001600160a01b039290921691909117905580611ba181611ea0565b915050611b0f565b506005805480611bbb57611bbb612022565b600082815260209020810160001990810180546001600160a01b031916905501905550565b828054828255906000526020600020908101928215611c1b579160200282015b82811115611c1b578251825591602001919060010190611c00565b50611c27929150611c2b565b5090565b5b80821115611c275760008155600101611c2c565b6020808252825182820181905260009190848201906040850190845b81811015611c815783516001600160a01b031683529284019291840191600101611c5c565b50909695505050505050565b600060208284031215611c9f57600080fd5b5035919050565b80356001600160a01b0381168114611cbd57600080fd5b919050565b600060208284031215611cd457600080fd5b611cdd82611ca6565b9392505050565b600081518084526020808501945080840160005b83811015611d1457815187529582019590820190600101611cf8565b509495945050505050565b602081526000611cdd6020830184611ce4565b60008060408385031215611d4557600080fd5b611d4e83611ca6565b946020939093013593505050565b60006020808301818452808551808352604092508286019150828160051b87010184880160005b83811015611dec57888303603f19018552815180516001600160a01b03168452878101518885015286810151878501526060808201519085015260809081015160a091850182905290611dd881860183611ce4565b968901969450505090860190600101611d83565b509098975050505050505050565b600080600060608486031215611e0f57600080fd5b83359250611e1f60208501611ca6565b9150604084013590509250925092565b60008060408385031215611e4257600080fd5b82359150611e5260208401611ca6565b90509250929050565b634e487b7160e01b600052601160045260246000fd5b81810381811115611e8457611e84611e5b565b92915050565b634e487b7160e01b600052603260045260246000fd5b600060018201611eb257611eb2611e5b565b5060010190565b600060208284031215611ecb57600080fd5b5051919050565b60208082526038908201527f54686520696e6465782073656e7420697320626967676572207468616e20746860408201527f65207265717565737473206172726179206c656e6774682e0000000000000000606082015260800190565b60208082526049908201527f416464726573732073656e7420646f65736e2774206d6174636820776974682060408201527f74686520616464726573732073746f72656420696e20746865207265717565736060820152683a399030b93930bc9760b91b608082015260a00190565b80820180821115611e8457611e84611e5b565b8082028115828204841417611e8457611e84611e5b565b600082611fe557634e487b7160e01b600052601260045260246000fd5b500490565b600060208284031215611ffc57600080fd5b81518015158114611cdd57600080fd5b634e487b7160e01b600052604160045260246000fd5b634e487b7160e01b600052603160045260246000fdfea2646970667358221220abd5dfda80b69f05a46ddcd2d5594744d2c3e501c6ca3c8e080416d164dc287d64736f6c63430008130033a2646970667358221220c2bd7cba939ed82539edf9195672ea74d79800446fb78293bdc9db5fa7c444cd64736f6c63430008130033","opcodes":"PUSH1 0x80 PUSH1 0x40 MSTORE CALLVALUE DUP1 ISZERO PUSH2 0x10 JUMPI PUSH1 0x0 DUP1 REVERT JUMPDEST POP PUSH2 0x2647 DUP1 PUSH2 0x20 PUSH1 0x0 CODECOPY PUSH1 0x0 RETURN INVALID PUSH1 0x80 PUSH1 0x40 MSTORE CALLVALUE DUP1 ISZERO PUSH2 0x10 JUMPI PUSH1 0x0 DUP1 REVERT JUMPDEST POP PUSH1 0x4 CALLDATASIZE LT PUSH2 0x41 JUMPI PUSH1 0x0 CALLDATALOAD PUSH1 0xE0 SHR DUP1 PUSH4 0x21B6E8F5 EQ PUSH2 0x46 JUMPI DUP1 PUSH4 0x6122FED5 EQ PUSH2 0x5C JUMPI DUP1 PUSH4 0x65A4C281 EQ PUSH2 0x9D JUMPI JUMPDEST PUSH1 0x0 DUP1 REVERT JUMPDEST PUSH1 0x0 SLOAD PUSH1 0x40 MLOAD SWAP1 DUP2 MSTORE PUSH1 0x20 ADD JUMPDEST PUSH1 0x40 MLOAD DUP1 SWAP2 SUB SWAP1 RETURN JUMPDEST PUSH2 0x85 PUSH2 0x6A CALLDATASIZE PUSH1 0x4 PUSH2 0x2E9 JUMP JUMPDEST PUSH1 0x1 PUSH1 0x20 MSTORE PUSH1 0x0 SWAP1 DUP2 MSTORE PUSH1 0x40 SWAP1 KECCAK256 SLOAD PUSH1 0x1 PUSH1 0x1 PUSH1 0xA0 SHL SUB AND DUP2 JUMP JUMPDEST PUSH1 0x40 MLOAD PUSH1 0x1 PUSH1 0x1 PUSH1 0xA0 SHL SUB SWAP1 SWAP2 AND DUP2 MSTORE PUSH1 0x20 ADD PUSH2 0x53 JUMP JUMPDEST PUSH2 0xB0 PUSH2 0xAB CALLDATASIZE PUSH1 0x4 PUSH2 0x30B JUMP JUMPDEST PUSH2 0xB2 JUMP JUMPDEST STOP JUMPDEST CALLER PUSH1 0x0 SWAP1 DUP2 MSTORE PUSH1 0x1 PUSH1 0x20 MSTORE PUSH1 0x40 SWAP1 KECCAK256 SLOAD PUSH1 0x1 PUSH1 0x1 PUSH1 0xA0 SHL SUB AND ISZERO PUSH2 0x142 JUMPI PUSH1 0x40 MLOAD PUSH3 0x461BCD PUSH1 0xE5 SHL DUP2 MSTORE PUSH1 0x20 PUSH1 0x4 DUP3 ADD MSTORE PUSH1 0x3D PUSH1 0x24 DUP3 ADD MSTORE PUSH32 0x596F75206861766520616C7265616479206F6E6520696E6865726974616E6365 PUSH1 0x44 DUP3 ADD MSTORE PUSH32 0x20637265617465642C20796F752063616E277420686176652074776F2E000000 PUSH1 0x64 DUP3 ADD MSTORE PUSH1 0x84 ADD PUSH1 0x40 MLOAD DUP1 SWAP2 SUB SWAP1 REVERT JUMPDEST CALLER DUP3 DUP3 PUSH1 0x40 MLOAD PUSH2 0x151 SWAP1 PUSH2 0x2C0 JUMP JUMPDEST PUSH1 0x1 PUSH1 0x1 PUSH1 0xA0 SHL SUB SWAP4 DUP5 AND DUP2 MSTORE PUSH1 0x20 DUP2 ADD SWAP3 SWAP1 SWAP3 MSTORE SWAP1 SWAP2 AND PUSH1 0x40 DUP3 ADD MSTORE PUSH1 0x60 ADD PUSH1 0x40 MLOAD DUP1 SWAP2 SUB SWAP1 PUSH1 0x0 CREATE DUP1 ISZERO DUP1 ISZERO PUSH2 0x18D JUMPI RETURNDATASIZE PUSH1 0x0 DUP1 RETURNDATACOPY RETURNDATASIZE PUSH1 0x0 REVERT JUMPDEST POP CALLER PUSH1 0x0 SWAP1 DUP2 MSTORE PUSH1 0x1 PUSH1 0x20 MSTORE PUSH1 0x40 DUP2 KECCAK256 DUP1 SLOAD PUSH1 0x1 PUSH1 0x1 PUSH1 0xA0 SHL SUB NOT AND PUSH1 0x1 PUSH1 0x1 PUSH1 0xA0 SHL SUB SWAP4 SWAP1 SWAP4 AND SWAP3 SWAP1 SWAP3 OR SWAP1 SWAP2 SSTORE DUP1 SLOAD SWAP1 DUP1 PUSH2 0x1C9 DUP4 PUSH2 0x337 JUMP JUMPDEST SWAP1 SWAP2 SSTORE POP POP CALLER PUSH1 0x0 DUP2 DUP2 MSTORE PUSH1 0x1 PUSH1 0x20 MSTORE PUSH1 0x40 DUP1 DUP3 KECCAK256 SLOAD SWAP2 SLOAD SWAP1 MLOAD PUSH1 0x1 PUSH1 0x1 PUSH1 0xA0 SHL SUB SWAP3 SWAP1 SWAP3 AND SWAP3 SWAP2 PUSH32 0x246B027E5B424DAE3D402E972E3F8E400056FE836431CBE048D9553826BB2E11 SWAP2 PUSH2 0x2B4 SWAP2 PUSH1 0x40 DUP1 DUP3 MSTORE PUSH1 0x69 SWAP1 DUP3 ADD MSTORE PUSH32 0x4C6F6720616C6C207468652076616C7565733A2041646D696E6973747261746F PUSH1 0x60 DUP3 ADD MSTORE PUSH32 0x7220616464726573732C20496E6865726974616E636520636F6E747261637420 PUSH1 0x80 DUP3 ADD MSTORE PUSH32 0x616464726573732C204E756D626572206F6620696E6865726974616E63657320 PUSH1 0xA0 DUP3 ADD MSTORE PUSH9 0x3232B83637BCB2B217 PUSH1 0xB9 SHL PUSH1 0xC0 DUP3 ADD MSTORE PUSH1 0x20 DUP2 ADD SWAP2 SWAP1 SWAP2 MSTORE PUSH1 0xE0 ADD SWAP1 JUMP JUMPDEST PUSH1 0x40 MLOAD DUP1 SWAP2 SUB SWAP1 LOG3 POP POP JUMP JUMPDEST PUSH2 0x22B3 DUP1 PUSH2 0x35F DUP4 CODECOPY ADD SWAP1 JUMP JUMPDEST DUP1 CALLDATALOAD PUSH1 0x1 PUSH1 0x1 PUSH1 0xA0 SHL SUB DUP2 AND DUP2 EQ PUSH2 0x2E4 JUMPI PUSH1 0x0 DUP1 REVERT JUMPDEST SWAP2 SWAP1 POP JUMP JUMPDEST PUSH1 0x0 PUSH1 0x20 DUP3 DUP5 SUB SLT ISZERO PUSH2 0x2FB JUMPI PUSH1 0x0 DUP1 REVERT JUMPDEST PUSH2 0x304 DUP3 PUSH2 0x2CD JUMP JUMPDEST SWAP4 SWAP3 POP POP POP JUMP JUMPDEST PUSH1 0x0 DUP1 PUSH1 0x40 DUP4 DUP6 SUB SLT ISZERO PUSH2 0x31E JUMPI PUSH1 0x0 DUP1 REVERT JUMPDEST DUP3 CALLDATALOAD SWAP2 POP PUSH2 0x32E PUSH1 0x20 DUP5 ADD PUSH2 0x2CD JUMP JUMPDEST SWAP1 POP SWAP3 POP SWAP3 SWAP1 POP JUMP JUMPDEST PUSH1 0x0 PUSH1 0x1 DUP3 ADD PUSH2 0x357 JUMPI PUSH4 0x4E487B71 PUSH1 0xE0 SHL PUSH1 0x0 MSTORE PUSH1 0x11 PUSH1 0x4 MSTORE PUSH1 0x24 PUSH1 0x0 REVERT JUMPDEST POP PUSH1 0x1 ADD SWAP1 JUMP INVALID PUSH1 0x80 PUSH1 0x40 MSTORE CALLVALUE DUP1 ISZERO PUSH3 0x11 JUMPI PUSH1 0x0 DUP1 REVERT JUMPDEST POP PUSH1 0x40 MLOAD PUSH3 0x22B3 CODESIZE SUB DUP1 PUSH3 0x22B3 DUP4 CODECOPY DUP2 ADD PUSH1 0x40 DUP2 SWAP1 MSTORE PUSH3 0x34 SWAP2 PUSH3 0x1F4 JUMP JUMPDEST PUSH3 0x3F CALLER PUSH3 0xA6 JUMP JUMPDEST PUSH1 0x8 DUP1 SLOAD PUSH1 0x1 PUSH1 0x1 PUSH1 0xA0 SHL SUB NOT AND PUSH1 0x1 PUSH1 0x1 PUSH1 0xA0 SHL SUB DUP4 AND OR SWAP1 SSTORE PUSH3 0x65 DUP4 PUSH3 0xF6 JUMP JUMPDEST POP PUSH1 0x3 SSTORE PUSH1 0x40 DUP1 MLOAD DUP1 DUP3 ADD SWAP1 SWAP2 MSTORE PUSH1 0x1 PUSH1 0x1 PUSH1 0xA0 SHL SUB SWAP1 SWAP2 AND DUP1 DUP3 MSTORE TIMESTAMP PUSH1 0x20 SWAP1 SWAP3 ADD DUP3 SWAP1 MSTORE PUSH1 0x1 DUP1 SLOAD PUSH1 0x1 PUSH1 0x1 PUSH1 0xA0 SHL SUB NOT AND SWAP1 SWAP2 OR SWAP1 SSTORE PUSH1 0x2 SSTORE PUSH3 0x235 JUMP JUMPDEST PUSH1 0x0 DUP1 SLOAD PUSH1 0x1 PUSH1 0x1 PUSH1 0xA0 SHL SUB DUP4 DUP2 AND PUSH1 0x1 PUSH1 0x1 PUSH1 0xA0 SHL SUB NOT DUP4 AND DUP2 OR DUP5 SSTORE PUSH1 0x40 MLOAD SWAP2 SWAP1 SWAP3 AND SWAP3 DUP4 SWAP2 PUSH32 0x8BE0079C531659141344CD1FD0A4F28419497F9722A3DAAFE3B4186F6B6457E0 SWAP2 SWAP1 LOG3 POP POP JUMP JUMPDEST PUSH3 0x100 PUSH3 0x179 JUMP JUMPDEST PUSH1 0x1 PUSH1 0x1 PUSH1 0xA0 SHL SUB DUP2 AND PUSH3 0x16B JUMPI PUSH1 0x40 MLOAD PUSH3 0x461BCD PUSH1 0xE5 SHL DUP2 MSTORE PUSH1 0x20 PUSH1 0x4 DUP3 ADD MSTORE PUSH1 0x26 PUSH1 0x24 DUP3 ADD MSTORE PUSH32 0x4F776E61626C653A206E6577206F776E657220697320746865207A65726F2061 PUSH1 0x44 DUP3 ADD MSTORE PUSH6 0x646472657373 PUSH1 0xD0 SHL PUSH1 0x64 DUP3 ADD MSTORE PUSH1 0x84 ADD JUMPDEST PUSH1 0x40 MLOAD DUP1 SWAP2 SUB SWAP1 REVERT JUMPDEST PUSH3 0x176 DUP2 PUSH3 0xA6 JUMP JUMPDEST POP JUMP JUMPDEST PUSH1 0x0 SLOAD PUSH1 0x1 PUSH1 0x1 PUSH1 0xA0 SHL SUB AND CALLER EQ PUSH3 0x1D5 JUMPI PUSH1 0x40 MLOAD PUSH3 0x461BCD PUSH1 0xE5 SHL DUP2 MSTORE PUSH1 0x20 PUSH1 0x4 DUP3 ADD DUP2 SWAP1 MSTORE PUSH1 0x24 DUP3 ADD MSTORE PUSH32 0x4F776E61626C653A2063616C6C6572206973206E6F7420746865206F776E6572 PUSH1 0x44 DUP3 ADD MSTORE PUSH1 0x64 ADD PUSH3 0x162 JUMP JUMPDEST JUMP JUMPDEST DUP1 MLOAD PUSH1 0x1 PUSH1 0x1 PUSH1 0xA0 SHL SUB DUP2 AND DUP2 EQ PUSH3 0x1EF JUMPI PUSH1 0x0 DUP1 REVERT JUMPDEST SWAP2 SWAP1 POP JUMP JUMPDEST PUSH1 0x0 DUP1 PUSH1 0x0 PUSH1 0x60 DUP5 DUP7 SUB SLT ISZERO PUSH3 0x20A JUMPI PUSH1 0x0 DUP1 REVERT JUMPDEST PUSH3 0x215 DUP5 PUSH3 0x1D7 JUMP JUMPDEST SWAP3 POP PUSH1 0x20 DUP5 ADD MLOAD SWAP2 POP PUSH3 0x22C PUSH1 0x40 DUP6 ADD PUSH3 0x1D7 JUMP JUMPDEST SWAP1 POP SWAP3 POP SWAP3 POP SWAP3 JUMP JUMPDEST PUSH2 0x206E DUP1 PUSH3 0x245 PUSH1 0x0 CODECOPY PUSH1 0x0 RETURN INVALID PUSH1 0x80 PUSH1 0x40 MSTORE PUSH1 0x4 CALLDATASIZE LT PUSH2 0x140 JUMPI PUSH1 0x0 CALLDATALOAD PUSH1 0xE0 SHR DUP1 PUSH4 0x9F3C4416 GT PUSH2 0xB6 JUMPI DUP1 PUSH4 0xDE35F376 GT PUSH2 0x6F JUMPI DUP1 PUSH4 0xDE35F376 EQ PUSH2 0x333 JUMPI DUP1 PUSH4 0xE92DF2B0 EQ PUSH2 0x353 JUMPI DUP1 PUSH4 0xEA46193E EQ PUSH2 0x373 JUMPI DUP1 PUSH4 0xF2FDE38B EQ PUSH2 0x386 JUMPI DUP1 PUSH4 0xF53D0A8E EQ PUSH2 0x3A6 JUMPI DUP1 PUSH4 0xFFC15B7C EQ PUSH2 0x3E9 JUMPI PUSH1 0x0 DUP1 REVERT JUMPDEST DUP1 PUSH4 0x9F3C4416 EQ PUSH2 0x2B7 JUMPI DUP1 PUSH4 0xA37FC5CF EQ PUSH2 0x2CC JUMPI DUP1 PUSH4 0xC1B640DB EQ PUSH2 0x2E1 JUMPI DUP1 PUSH4 0xD0E30DB0 EQ PUSH2 0x2F6 JUMPI DUP1 PUSH4 0xD5002F2E EQ PUSH2 0x2FE JUMPI DUP1 PUSH4 0xDB81F99B EQ PUSH2 0x313 JUMPI PUSH1 0x0 DUP1 REVERT JUMPDEST DUP1 PUSH4 0x3CFD1CCC GT PUSH2 0x108 JUMPI DUP1 PUSH4 0x3CFD1CCC EQ PUSH2 0x1F5 JUMPI DUP1 PUSH4 0x44690153 EQ PUSH2 0x218 JUMPI DUP1 PUSH4 0x4EAE51F4 EQ PUSH2 0x238 JUMPI DUP1 PUSH4 0x715018A6 EQ PUSH2 0x25A JUMPI DUP1 PUSH4 0x7C1D3A01 EQ PUSH2 0x26F JUMPI DUP1 PUSH4 0x8DA5CB5B EQ PUSH2 0x28F JUMPI PUSH1 0x0 DUP1 REVERT JUMPDEST DUP1 PUSH4 0x51EA68F EQ PUSH2 0x145 JUMPI DUP1 PUSH4 0x64AC578 EQ PUSH2 0x16F JUMPI DUP1 PUSH4 0xB6946DA EQ PUSH2 0x191 JUMPI DUP1 PUSH4 0x2E1A7D4D EQ PUSH2 0x1A8 JUMPI DUP1 PUSH4 0x35D6F873 EQ PUSH2 0x1C8 JUMPI JUMPDEST PUSH1 0x0 DUP1 REVERT JUMPDEST CALLVALUE DUP1 ISZERO PUSH2 0x151 JUMPI PUSH1 0x0 DUP1 REVERT JUMPDEST POP PUSH2 0x15A PUSH2 0x3FE JUMP JUMPDEST PUSH1 0x40 MLOAD SWAP1 ISZERO ISZERO DUP2 MSTORE PUSH1 0x20 ADD JUMPDEST PUSH1 0x40 MLOAD DUP1 SWAP2 SUB SWAP1 RETURN JUMPDEST CALLVALUE DUP1 ISZERO PUSH2 0x17B JUMPI PUSH1 0x0 DUP1 REVERT JUMPDEST POP PUSH2 0x184 PUSH2 0x419 JUMP JUMPDEST PUSH1 0x40 MLOAD PUSH2 0x166 SWAP2 SWAP1 PUSH2 0x1C40 JUMP JUMPDEST CALLVALUE DUP1 ISZERO PUSH2 0x19D JUMPI PUSH1 0x0 DUP1 REVERT JUMPDEST POP PUSH2 0x1A6 PUSH2 0x483 JUMP JUMPDEST STOP JUMPDEST CALLVALUE DUP1 ISZERO PUSH2 0x1B4 JUMPI PUSH1 0x0 DUP1 REVERT JUMPDEST POP PUSH2 0x1A6 PUSH2 0x1C3 CALLDATASIZE PUSH1 0x4 PUSH2 0x1C8D JUMP JUMPDEST PUSH2 0x6D5 JUMP JUMPDEST CALLVALUE DUP1 ISZERO PUSH2 0x1D4 JUMPI PUSH1 0x0 DUP1 REVERT JUMPDEST POP PUSH2 0x1E8 PUSH2 0x1E3 CALLDATASIZE PUSH1 0x4 PUSH2 0x1CC2 JUMP JUMPDEST PUSH2 0x7A9 JUMP JUMPDEST PUSH1 0x40 MLOAD PUSH2 0x166 SWAP2 SWAP1 PUSH2 0x1D1F JUMP JUMPDEST CALLVALUE DUP1 ISZERO PUSH2 0x201 JUMPI PUSH1 0x0 DUP1 REVERT JUMPDEST POP PUSH2 0x20A PUSH2 0x887 JUMP JUMPDEST PUSH1 0x40 MLOAD SWAP1 DUP2 MSTORE PUSH1 0x20 ADD PUSH2 0x166 JUMP JUMPDEST CALLVALUE DUP1 ISZERO PUSH2 0x224 JUMPI PUSH1 0x0 DUP1 REVERT JUMPDEST POP PUSH2 0x1A6 PUSH2 0x233 CALLDATASIZE PUSH1 0x4 PUSH2 0x1D32 JUMP JUMPDEST PUSH2 0x8F9 JUMP JUMPDEST CALLVALUE DUP1 ISZERO PUSH2 0x244 JUMPI PUSH1 0x0 DUP1 REVERT JUMPDEST POP PUSH2 0x24D PUSH2 0x9F6 JUMP JUMPDEST PUSH1 0x40 MLOAD PUSH2 0x166 SWAP2 SWAP1 PUSH2 0x1D5C JUMP JUMPDEST CALLVALUE DUP1 ISZERO PUSH2 0x266 JUMPI PUSH1 0x0 DUP1 REVERT JUMPDEST POP PUSH2 0x1A6 PUSH2 0xAD6 JUMP JUMPDEST CALLVALUE DUP1 ISZERO PUSH2 0x27B JUMPI PUSH1 0x0 DUP1 REVERT JUMPDEST POP PUSH2 0x1A6 PUSH2 0x28A CALLDATASIZE PUSH1 0x4 PUSH2 0x1DFA JUMP JUMPDEST PUSH2 0xAEA JUMP JUMPDEST CALLVALUE DUP1 ISZERO PUSH2 0x29B JUMPI PUSH1 0x0 DUP1 REVERT JUMPDEST POP PUSH1 0x0 SLOAD PUSH1 0x40 MLOAD PUSH1 0x1 PUSH1 0x1 PUSH1 0xA0 SHL SUB SWAP1 SWAP2 AND DUP2 MSTORE PUSH1 0x20 ADD PUSH2 0x166 JUMP JUMPDEST CALLVALUE DUP1 ISZERO PUSH2 0x2C3 JUMPI PUSH1 0x0 DUP1 REVERT JUMPDEST POP PUSH2 0x1A6 PUSH2 0xEC8 JUMP JUMPDEST CALLVALUE DUP1 ISZERO PUSH2 0x2D8 JUMPI PUSH1 0x0 DUP1 REVERT JUMPDEST POP PUSH2 0x20A PUSH2 0x1453 JUMP JUMPDEST CALLVALUE DUP1 ISZERO PUSH2 0x2ED JUMPI PUSH1 0x0 DUP1 REVERT JUMPDEST POP PUSH2 0x1A6 PUSH2 0x1464 JUMP JUMPDEST PUSH2 0x1A6 PUSH2 0x1508 JUMP JUMPDEST CALLVALUE DUP1 ISZERO PUSH2 0x30A JUMPI PUSH1 0x0 DUP1 REVERT JUMPDEST POP PUSH2 0x20A PUSH2 0x15C7 JUMP JUMPDEST CALLVALUE DUP1 ISZERO PUSH2 0x31F JUMPI PUSH1 0x0 DUP1 REVERT JUMPDEST POP PUSH2 0x1A6 PUSH2 0x32E CALLDATASIZE PUSH1 0x4 PUSH2 0x1C8D JUMP JUMPDEST PUSH2 0x161A JUMP JUMPDEST CALLVALUE DUP1 ISZERO PUSH2 0x33F JUMPI PUSH1 0x0 DUP1 REVERT JUMPDEST POP PUSH2 0x1A6 PUSH2 0x34E CALLDATASIZE PUSH1 0x4 PUSH2 0x1C8D JUMP JUMPDEST PUSH2 0x17BC JUMP JUMPDEST CALLVALUE DUP1 ISZERO PUSH2 0x35F JUMPI PUSH1 0x0 DUP1 REVERT JUMPDEST POP PUSH2 0x1A6 PUSH2 0x36E CALLDATASIZE PUSH1 0x4 PUSH2 0x1E2F JUMP JUMPDEST PUSH2 0x17C9 JUMP JUMPDEST CALLVALUE DUP1 ISZERO PUSH2 0x37F JUMPI PUSH1 0x0 DUP1 REVERT JUMPDEST POP SELFBALANCE PUSH2 0x20A JUMP JUMPDEST CALLVALUE DUP1 ISZERO PUSH2 0x392 JUMPI PUSH1 0x0 DUP1 REVERT JUMPDEST POP PUSH2 0x1A6 PUSH2 0x3A1 CALLDATASIZE PUSH1 0x4 PUSH2 0x1CC2 JUMP JUMPDEST PUSH2 0x18EE JUMP JUMPDEST CALLVALUE DUP1 ISZERO PUSH2 0x3B2 JUMPI PUSH1 0x0 DUP1 REVERT JUMPDEST POP PUSH1 0x1 SLOAD PUSH1 0x2 SLOAD PUSH2 0x3CA SWAP2 PUSH1 0x1 PUSH1 0x1 PUSH1 0xA0 SHL SUB AND SWAP1 DUP3 JUMP JUMPDEST PUSH1 0x40 DUP1 MLOAD PUSH1 0x1 PUSH1 0x1 PUSH1 0xA0 SHL SUB SWAP1 SWAP4 AND DUP4 MSTORE PUSH1 0x20 DUP4 ADD SWAP2 SWAP1 SWAP2 MSTORE ADD PUSH2 0x166 JUMP JUMPDEST CALLVALUE DUP1 ISZERO PUSH2 0x3F5 JUMPI PUSH1 0x0 DUP1 REVERT JUMPDEST POP PUSH2 0x184 PUSH2 0x1964 JUMP JUMPDEST PUSH1 0x3 SLOAD PUSH1 0x2 SLOAD PUSH1 0x0 SWAP2 SWAP1 PUSH2 0x412 SWAP1 TIMESTAMP PUSH2 0x1E71 JUMP JUMPDEST LT ISZERO SWAP1 POP SWAP1 JUMP JUMPDEST PUSH1 0x60 PUSH2 0x423 PUSH2 0x1A42 JUMP JUMPDEST PUSH1 0x5 DUP1 SLOAD DUP1 PUSH1 0x20 MUL PUSH1 0x20 ADD PUSH1 0x40 MLOAD SWAP1 DUP2 ADD PUSH1 0x40 MSTORE DUP1 SWAP3 SWAP2 SWAP1 DUP2 DUP2 MSTORE PUSH1 0x20 ADD DUP3 DUP1 SLOAD DUP1 ISZERO PUSH2 0x479 JUMPI PUSH1 0x20 MUL DUP3 ADD SWAP2 SWAP1 PUSH1 0x0 MSTORE PUSH1 0x20 PUSH1 0x0 KECCAK256 SWAP1 JUMPDEST DUP2 SLOAD PUSH1 0x1 PUSH1 0x1 PUSH1 0xA0 SHL SUB AND DUP2 MSTORE PUSH1 0x1 SWAP1 SWAP2 ADD SWAP1 PUSH1 0x20 ADD DUP1 DUP4 GT PUSH2 0x45B JUMPI JUMPDEST POP POP POP POP POP SWAP1 POP SWAP1 JUMP JUMPDEST PUSH1 0x4 SLOAD CALLER SWAP1 PUSH1 0x64 GT PUSH2 0x4EC JUMPI PUSH1 0x40 MLOAD PUSH3 0x461BCD PUSH1 0xE5 SHL DUP2 MSTORE PUSH1 0x20 PUSH1 0x4 DUP3 ADD MSTORE PUSH1 0x27 PUSH1 0x24 DUP3 ADD MSTORE PUSH32 0x416C7265616479207265616368656420746865206C696D6974206F6620313030 PUSH1 0x44 DUP3 ADD MSTORE PUSH7 0x103432B4B93997 PUSH1 0xC9 SHL PUSH1 0x64 DUP3 ADD MSTORE PUSH1 0x84 ADD JUMPDEST PUSH1 0x40 MLOAD DUP1 SWAP2 SUB SWAP1 REVERT JUMPDEST PUSH1 0x5 SLOAD PUSH1 0x64 GT PUSH2 0x55D JUMPI PUSH1 0x40 MLOAD PUSH3 0x461BCD PUSH1 0xE5 SHL DUP2 MSTORE PUSH1 0x20 PUSH1 0x4 DUP3 ADD MSTORE PUSH1 0x36 PUSH1 0x24 DUP3 ADD MSTORE PUSH32 0x416C7265616479207265616368656420746865206C696D6974206F6620313030 PUSH1 0x44 DUP3 ADD MSTORE PUSH22 0x1034B73432B934BA30B731B2903932B8BAB2B9BA3997 PUSH1 0x51 SHL PUSH1 0x64 DUP3 ADD MSTORE PUSH1 0x84 ADD PUSH2 0x4E3 JUMP JUMPDEST PUSH1 0x0 JUMPDEST PUSH1 0x5 SLOAD DUP2 LT ISZERO PUSH2 0x60D JUMPI DUP2 PUSH1 0x1 PUSH1 0x1 PUSH1 0xA0 SHL SUB AND PUSH1 0x5 DUP3 DUP2 SLOAD DUP2 LT PUSH2 0x587 JUMPI PUSH2 0x587 PUSH2 0x1E8A JUMP JUMPDEST PUSH1 0x0 SWAP2 DUP3 MSTORE PUSH1 0x20 SWAP1 SWAP2 KECCAK256 ADD SLOAD PUSH1 0x1 PUSH1 0x1 PUSH1 0xA0 SHL SUB AND SUB PUSH2 0x5FB JUMPI PUSH1 0x40 MLOAD PUSH3 0x461BCD PUSH1 0xE5 SHL DUP2 MSTORE PUSH1 0x20 PUSH1 0x4 DUP3 ADD MSTORE PUSH1 0x29 PUSH1 0x24 DUP3 ADD MSTORE PUSH32 0x4164647265737320616C72656164792065786973747320696E20726571756573 PUSH1 0x44 DUP3 ADD MSTORE PUSH9 0x3A399030B93930BC97 PUSH1 0xB9 SHL PUSH1 0x64 DUP3 ADD MSTORE PUSH1 0x84 ADD PUSH2 0x4E3 JUMP JUMPDEST DUP1 PUSH2 0x605 DUP2 PUSH2 0x1EA0 JUMP JUMPDEST SWAP2 POP POP PUSH2 0x560 JUMP JUMPDEST POP PUSH1 0x5 DUP1 SLOAD PUSH1 0x1 DUP2 ADD DUP3 SSTORE PUSH1 0x0 DUP3 SWAP1 MSTORE PUSH32 0x36B6384B5ECA791C62761152D0C79BB0604C104A5FB6F4EB0703F3154BB3DB0 ADD DUP1 SLOAD PUSH1 0x1 PUSH1 0x1 PUSH1 0xA0 SHL SUB NOT AND CALLER SWAP1 DUP2 OR SWAP1 SWAP2 SSTORE SWAP1 SLOAD PUSH1 0x4 SLOAD PUSH1 0x40 DUP1 MLOAD PUSH1 0x60 DUP1 DUP3 MSTORE PUSH1 0x25 SWAP1 DUP3 ADD MSTORE PUSH32 0x5573657220726571756573747320746F20626520616464656420617320616E20 PUSH1 0x80 DUP3 ADD MSTORE PUSH5 0x3432B4B917 PUSH1 0xD9 SHL PUSH1 0xA0 DUP3 ADD MSTORE PUSH1 0x20 DUP2 ADD SWAP4 SWAP1 SWAP4 MSTORE DUP3 ADD MSTORE PUSH32 0xE6096EBFC672773AE3076E8AE873CB450789130E8C0D87B2B933210ACDC08F66 SWAP1 PUSH1 0xC0 ADD PUSH1 0x40 MLOAD DUP1 SWAP2 SUB SWAP1 LOG2 POP JUMP JUMPDEST PUSH2 0x6DD PUSH2 0x1A42 JUMP JUMPDEST PUSH1 0x0 DUP2 GT PUSH2 0x728 JUMPI PUSH1 0x40 MLOAD PUSH3 0x461BCD PUSH1 0xE5 SHL DUP2 MSTORE PUSH1 0x20 PUSH1 0x4 DUP3 ADD MSTORE PUSH1 0x18 PUSH1 0x24 DUP3 ADD MSTORE PUSH24 0x20B6B7BAB73A1036BAB9BA103132903837B9B4BA34BB3297 PUSH1 0x41 SHL PUSH1 0x44 DUP3 ADD MSTORE PUSH1 0x64 ADD PUSH2 0x4E3 JUMP JUMPDEST SELFBALANCE DUP2 GT ISZERO PUSH2 0x778 JUMPI PUSH1 0x40 MLOAD PUSH3 0x461BCD PUSH1 0xE5 SHL DUP2 MSTORE PUSH1 0x20 PUSH1 0x4 DUP3 ADD MSTORE PUSH1 0x17 PUSH1 0x24 DUP3 ADD MSTORE PUSH32 0x4E6F7420656E6F756768204554482062616C616E63652E000000000000000000 PUSH1 0x44 DUP3 ADD MSTORE PUSH1 0x64 ADD PUSH2 0x4E3 JUMP JUMPDEST PUSH1 0x40 MLOAD CALLER SWAP1 DUP3 ISZERO PUSH2 0x8FC MUL SWAP1 DUP4 SWAP1 PUSH1 0x0 DUP2 DUP2 DUP2 DUP6 DUP9 DUP9 CALL SWAP4 POP POP POP POP ISZERO DUP1 ISZERO PUSH2 0x7A5 JUMPI RETURNDATASIZE PUSH1 0x0 DUP1 RETURNDATACOPY RETURNDATASIZE PUSH1 0x0 REVERT JUMPDEST POP POP JUMP JUMPDEST PUSH1 0x60 PUSH1 0x0 JUMPDEST PUSH1 0x4 SLOAD DUP2 LT ISZERO PUSH2 0x881 JUMPI DUP3 PUSH1 0x1 PUSH1 0x1 PUSH1 0xA0 SHL SUB AND PUSH1 0x4 DUP3 DUP2 SLOAD DUP2 LT PUSH2 0x7D5 JUMPI PUSH2 0x7D5 PUSH2 0x1E8A JUMP JUMPDEST PUSH1 0x0 SWAP2 DUP3 MSTORE PUSH1 0x20 SWAP1 SWAP2 KECCAK256 PUSH1 0x5 SWAP1 SWAP2 MUL ADD SLOAD PUSH1 0x1 PUSH1 0x1 PUSH1 0xA0 SHL SUB AND SUB PUSH2 0x86F JUMPI PUSH1 0x4 DUP2 DUP2 SLOAD DUP2 LT PUSH2 0x807 JUMPI PUSH2 0x807 PUSH2 0x1E8A JUMP JUMPDEST SWAP1 PUSH1 0x0 MSTORE PUSH1 0x20 PUSH1 0x0 KECCAK256 SWAP1 PUSH1 0x5 MUL ADD PUSH1 0x4 ADD DUP1 SLOAD DUP1 PUSH1 0x20 MUL PUSH1 0x20 ADD PUSH1 0x40 MLOAD SWAP1 DUP2 ADD PUSH1 0x40 MSTORE DUP1 SWAP3 SWAP2 SWAP1 DUP2 DUP2 MSTORE PUSH1 0x20 ADD DUP3 DUP1 SLOAD DUP1 ISZERO PUSH2 0x862 JUMPI PUSH1 0x20 MUL DUP3 ADD SWAP2 SWAP1 PUSH1 0x0 MSTORE PUSH1 0x20 PUSH1 0x0 KECCAK256 SWAP1 JUMPDEST DUP2 SLOAD DUP2 MSTORE PUSH1 0x20 ADD SWAP1 PUSH1 0x1 ADD SWAP1 DUP1 DUP4 GT PUSH2 0x84E JUMPI JUMPDEST POP POP POP POP POP SWAP2 POP POP SWAP2 SWAP1 POP JUMP JUMPDEST DUP1 PUSH2 0x879 DUP2 PUSH2 0x1EA0 JUMP JUMPDEST SWAP2 POP POP PUSH2 0x7AE JUMP JUMPDEST POP SWAP2 SWAP1 POP JUMP JUMPDEST PUSH1 0x8 SLOAD PUSH1 0x40 MLOAD PUSH4 0x70A08231 PUSH1 0xE0 SHL DUP2 MSTORE ADDRESS PUSH1 0x4 DUP3 ADD MSTORE PUSH1 0x0 SWAP2 PUSH1 0x1 PUSH1 0x1 PUSH1 0xA0 SHL SUB AND SWAP1 PUSH4 0x70A08231 SWAP1 PUSH1 0x24 ADD PUSH1 0x20 PUSH1 0x40 MLOAD DUP1 DUP4 SUB DUP2 DUP7 GAS STATICCALL ISZERO DUP1 ISZERO PUSH2 0x8D0 JUMPI RETURNDATASIZE PUSH1 0x0 DUP1 RETURNDATACOPY RETURNDATASIZE PUSH1 0x0 REVERT JUMPDEST POP POP POP POP PUSH1 0x40 MLOAD RETURNDATASIZE PUSH1 0x1F NOT PUSH1 0x1F DUP3 ADD AND DUP3 ADD DUP1 PUSH1 0x40 MSTORE POP DUP2 ADD SWAP1 PUSH2 0x8F4 SWAP2 SWAP1 PUSH2 0x1EB9 JUMP JUMPDEST SWAP1 POP SWAP1 JUMP JUMPDEST PUSH2 0x901 PUSH2 0x1A42 JUMP JUMPDEST PUSH1 0x0 JUMPDEST PUSH1 0x4 SLOAD DUP2 LT ISZERO PUSH2 0x99B JUMPI DUP3 PUSH1 0x1 PUSH1 0x1 PUSH1 0xA0 SHL SUB AND PUSH1 0x4 DUP3 DUP2 SLOAD DUP2 LT PUSH2 0x92B JUMPI PUSH2 0x92B PUSH2 0x1E8A JUMP JUMPDEST PUSH1 0x0 SWAP2 DUP3 MSTORE PUSH1 0x20 SWAP1 SWAP2 KECCAK256 PUSH1 0x5 SWAP1 SWAP2 MUL ADD SLOAD PUSH1 0x1 PUSH1 0x1 PUSH1 0xA0 SHL SUB AND SUB PUSH2 0x989 JUMPI PUSH1 0x4 DUP2 DUP2 SLOAD DUP2 LT PUSH2 0x95D JUMPI PUSH2 0x95D PUSH2 0x1E8A JUMP JUMPDEST PUSH1 0x0 SWAP2 DUP3 MSTORE PUSH1 0x20 DUP1 DUP4 KECCAK256 PUSH1 0x4 PUSH1 0x5 SWAP1 SWAP4 MUL ADD SWAP2 SWAP1 SWAP2 ADD DUP1 SLOAD PUSH1 0x1 DUP2 ADD DUP3 SSTORE SWAP1 DUP4 MSTORE SWAP2 KECCAK256 ADD DUP3 SWAP1 SSTORE POP POP POP JUMP JUMPDEST DUP1 PUSH2 0x993 DUP2 PUSH2 0x1EA0 JUMP JUMPDEST SWAP2 POP POP PUSH2 0x904 JUMP JUMPDEST POP PUSH1 0x40 MLOAD PUSH3 0x461BCD PUSH1 0xE5 SHL DUP2 MSTORE PUSH1 0x20 PUSH1 0x4 DUP3 ADD MSTORE PUSH1 0x29 PUSH1 0x24 DUP3 ADD MSTORE PUSH32 0x4E6F7420686569722061646472657373206D61746368656420746F2074686520 PUSH1 0x44 DUP3 ADD MSTORE PUSH9 0x37B7329039B2B73A17 PUSH1 0xB9 SHL PUSH1 0x64 DUP3 ADD MSTORE PUSH1 0x84 ADD PUSH2 0x4E3 JUMP JUMPDEST PUSH1 0x60 PUSH1 0x4 DUP1 SLOAD DUP1 PUSH1 0x20 MUL PUSH1 0x20 ADD PUSH1 0x40 MLOAD SWAP1 DUP2 ADD PUSH1 0x40 MSTORE DUP1 SWAP3 SWAP2 SWAP1 DUP2 DUP2 MSTORE PUSH1 0x20 ADD PUSH1 0x0 SWAP1 JUMPDEST DUP3 DUP3 LT ISZERO PUSH2 0xACD JUMPI PUSH1 0x0 DUP5 DUP2 MSTORE PUSH1 0x20 SWAP1 DUP2 SWAP1 KECCAK256 PUSH1 0x40 DUP1 MLOAD PUSH1 0xA0 DUP2 ADD DUP3 MSTORE PUSH1 0x5 DUP7 MUL SWAP1 SWAP3 ADD DUP1 SLOAD PUSH1 0x1 PUSH1 0x1 PUSH1 0xA0 SHL SUB AND DUP4 MSTORE PUSH1 0x1 DUP2 ADD SLOAD DUP4 DUP6 ADD MSTORE PUSH1 0x2 DUP2 ADD SLOAD DUP4 DUP4 ADD MSTORE PUSH1 0x3 DUP2 ADD SLOAD PUSH1 0x60 DUP5 ADD MSTORE PUSH1 0x4 DUP2 ADD DUP1 SLOAD DUP4 MLOAD DUP2 DUP8 MUL DUP2 ADD DUP8 ADD SWAP1 SWAP5 MSTORE DUP1 DUP5 MSTORE SWAP4 SWAP5 SWAP2 SWAP4 PUSH1 0x80 DUP7 ADD SWAP4 SWAP3 DUP4 ADD DUP3 DUP3 DUP1 ISZERO PUSH2 0xAB5 JUMPI PUSH1 0x20 MUL DUP3 ADD SWAP2 SWAP1 PUSH1 0x0 MSTORE PUSH1 0x20 PUSH1 0x0 KECCAK256 SWAP1 JUMPDEST DUP2 SLOAD DUP2 MSTORE PUSH1 0x20 ADD SWAP1 PUSH1 0x1 ADD SWAP1 DUP1 DUP4 GT PUSH2 0xAA1 JUMPI JUMPDEST POP POP POP POP POP DUP2 MSTORE POP POP DUP2 MSTORE PUSH1 0x20 ADD SWAP1 PUSH1 0x1 ADD SWAP1 PUSH2 0xA1A JUMP JUMPDEST POP POP POP POP SWAP1 POP SWAP1 JUMP JUMPDEST PUSH2 0xADE PUSH2 0x1A42 JUMP JUMPDEST PUSH2 0xAE8 PUSH1 0x0 PUSH2 0x1A9C JUMP JUMPDEST JUMP JUMPDEST PUSH2 0xAF2 PUSH2 0x1A42 JUMP JUMPDEST DUP3 DUP3 DUP3 PUSH1 0x5 DUP1 SLOAD SWAP1 POP DUP4 LT PUSH2 0xB19 JUMPI PUSH1 0x40 MLOAD PUSH3 0x461BCD PUSH1 0xE5 SHL DUP2 MSTORE PUSH1 0x4 ADD PUSH2 0x4E3 SWAP1 PUSH2 0x1ED2 JUMP JUMPDEST DUP2 PUSH1 0x1 PUSH1 0x1 PUSH1 0xA0 SHL SUB AND PUSH1 0x5 DUP5 DUP2 SLOAD DUP2 LT PUSH2 0xB36 JUMPI PUSH2 0xB36 PUSH2 0x1E8A JUMP JUMPDEST PUSH1 0x0 SWAP2 DUP3 MSTORE PUSH1 0x20 SWAP1 SWAP2 KECCAK256 ADD SLOAD PUSH1 0x1 PUSH1 0x1 PUSH1 0xA0 SHL SUB AND EQ PUSH2 0xB68 JUMPI PUSH1 0x40 MLOAD PUSH3 0x461BCD PUSH1 0xE5 SHL DUP2 MSTORE PUSH1 0x4 ADD PUSH2 0x4E3 SWAP1 PUSH2 0x1F2F JUMP JUMPDEST PUSH1 0x0 DUP1 JUMPDEST PUSH1 0x4 SLOAD DUP2 LT ISZERO PUSH2 0xC4D JUMPI DUP4 PUSH1 0x1 PUSH1 0x1 PUSH1 0xA0 SHL SUB AND PUSH1 0x4 DUP3 DUP2 SLOAD DUP2 LT PUSH2 0xB93 JUMPI PUSH2 0xB93 PUSH2 0x1E8A JUMP JUMPDEST PUSH1 0x0 SWAP2 DUP3 MSTORE PUSH1 0x20 SWAP1 SWAP2 KECCAK256 PUSH1 0x5 SWAP1 SWAP2 MUL ADD SLOAD PUSH1 0x1 PUSH1 0x1 PUSH1 0xA0 SHL SUB AND SUB PUSH2 0xC09 JUMPI PUSH1 0x40 MLOAD PUSH3 0x461BCD PUSH1 0xE5 SHL DUP2 MSTORE PUSH1 0x20 PUSH1 0x4 DUP3 ADD MSTORE PUSH1 0x26 PUSH1 0x24 DUP3 ADD MSTORE PUSH32 0x4164647265737320616C72656164792065786973747320696E20686569727320 PUSH1 0x44 DUP3 ADD MSTORE PUSH6 0x30B93930BC97 PUSH1 0xD1 SHL PUSH1 0x64 DUP3 ADD MSTORE PUSH1 0x84 ADD PUSH2 0x4E3 JUMP JUMPDEST PUSH1 0x4 DUP2 DUP2 SLOAD DUP2 LT PUSH2 0xC1C JUMPI PUSH2 0xC1C PUSH2 0x1E8A JUMP JUMPDEST SWAP1 PUSH1 0x0 MSTORE PUSH1 0x20 PUSH1 0x0 KECCAK256 SWAP1 PUSH1 0x5 MUL ADD PUSH1 0x1 ADD SLOAD DUP3 PUSH2 0xC39 SWAP2 SWAP1 PUSH2 0x1F9E JUMP JUMPDEST SWAP2 POP DUP1 PUSH2 0xC45 DUP2 PUSH2 0x1EA0 JUMP JUMPDEST SWAP2 POP POP PUSH2 0xB6C JUMP JUMPDEST POP PUSH1 0x64 PUSH2 0xC5A DUP4 DUP4 PUSH2 0x1F9E JUMP JUMPDEST GT ISZERO PUSH2 0xCF4 JUMPI PUSH1 0x40 MLOAD PUSH3 0x461BCD PUSH1 0xE5 SHL DUP2 MSTORE PUSH1 0x20 PUSH1 0x4 DUP3 ADD MSTORE PUSH1 0x5C PUSH1 0x24 DUP3 ADD MSTORE PUSH32 0x74686520616D6F756E74206F6620736861726573206578636565642074686520 PUSH1 0x44 DUP3 ADD MSTORE PUSH32 0x31303025206F662074686520496E6865726974616E63652C2074727920776974 PUSH1 0x64 DUP3 ADD MSTORE PUSH32 0x68206120736D616C6C657220616D6F756E74206F662073686172652E00000000 PUSH1 0x84 DUP3 ADD MSTORE PUSH1 0xA4 ADD PUSH2 0x4E3 JUMP JUMPDEST PUSH1 0x40 DUP1 MLOAD PUSH1 0xA0 DUP2 ADD DUP3 MSTORE PUSH1 0x1 PUSH1 0x1 PUSH1 0xA0 SHL SUB DUP9 DUP2 AND DUP3 MSTORE PUSH1 0x20 DUP1 DUP4 ADD DUP10 DUP2 MSTORE PUSH1 0x0 SWAP5 DUP5 ADD DUP6 DUP2 MSTORE PUSH1 0x60 DUP1 DUP7 ADD DUP8 DUP2 MSTORE PUSH1 0x80 DUP8 ADD DUP3 DUP2 MSTORE PUSH1 0x4 DUP1 SLOAD PUSH1 0x1 DUP2 ADD DUP3 SSTORE SWAP10 MSTORE DUP8 MLOAD PUSH32 0x8A35ACFBC15FF81A39AE7D344FD709F28E8600B4AA8C65C6B64BFE7FE36BD19B PUSH1 0x5 SWAP1 SWAP11 MUL SWAP10 DUP11 ADD DUP1 SLOAD PUSH1 0x1 PUSH1 0x1 PUSH1 0xA0 SHL SUB NOT AND SWAP2 SWAP1 SWAP9 AND OR DUP8 SSTORE SWAP4 MLOAD PUSH32 0x8A35ACFBC15FF81A39AE7D344FD709F28E8600B4AA8C65C6B64BFE7FE36BD19C DUP10 ADD SSTORE SWAP2 MLOAD PUSH32 0x8A35ACFBC15FF81A39AE7D344FD709F28E8600B4AA8C65C6B64BFE7FE36BD19D DUP9 ADD SSTORE SWAP1 MLOAD PUSH32 0x8A35ACFBC15FF81A39AE7D344FD709F28E8600B4AA8C65C6B64BFE7FE36BD19E DUP8 ADD SSTORE SWAP1 MLOAD DUP1 MLOAD SWAP2 SWAP6 PUSH2 0xE1D SWAP4 PUSH32 0x8A35ACFBC15FF81A39AE7D344FD709F28E8600B4AA8C65C6B64BFE7FE36BD19F SWAP1 SWAP2 ADD SWAP3 SWAP2 ADD SWAP1 PUSH2 0x1BE0 JUMP JUMPDEST POP POP POP PUSH2 0xE29 DUP9 PUSH2 0x1AEC JUMP JUMPDEST PUSH1 0x5 SLOAD PUSH1 0x4 SLOAD PUSH1 0x40 DUP1 MLOAD PUSH1 0x80 DUP1 DUP3 MSTORE PUSH1 0x26 SWAP1 DUP3 ADD MSTORE PUSH32 0x41646D696E6973747261746F722061636365707473207573657220617320616E PUSH1 0xA0 DUP3 ADD MSTORE PUSH6 0x103432B4B917 PUSH1 0xD1 SHL PUSH1 0xC0 DUP3 ADD MSTORE PUSH1 0x20 DUP2 ADD DUP11 SWAP1 MSTORE SWAP1 DUP2 ADD SWAP3 SWAP1 SWAP3 MSTORE PUSH1 0x60 DUP3 ADD MSTORE PUSH1 0x1 PUSH1 0x1 PUSH1 0xA0 SHL SUB DUP9 AND SWAP1 PUSH32 0x14AA904C12FA948B33E901E688A79D46FE3D46A383A5B181C26475CEC40D67EC SWAP1 PUSH1 0xE0 ADD PUSH1 0x40 MLOAD DUP1 SWAP2 SUB SWAP1 LOG2 POP POP POP POP POP POP POP POP JUMP JUMPDEST CALLER PUSH1 0x0 DUP1 JUMPDEST PUSH1 0x4 SLOAD DUP2 LT ISZERO PUSH2 0xF2A JUMPI DUP3 PUSH1 0x1 PUSH1 0x1 PUSH1 0xA0 SHL SUB AND PUSH1 0x4 DUP3 DUP2 SLOAD DUP2 LT PUSH2 0xEF4 JUMPI PUSH2 0xEF4 PUSH2 0x1E8A JUMP JUMPDEST PUSH1 0x0 SWAP2 DUP3 MSTORE PUSH1 0x20 SWAP1 SWAP2 KECCAK256 PUSH1 0x5 SWAP1 SWAP2 MUL ADD SLOAD PUSH1 0x1 PUSH1 0x1 PUSH1 0xA0 SHL SUB AND SUB PUSH2 0xF18 JUMPI PUSH1 0x1 SWAP2 POP JUMPDEST DUP1 PUSH2 0xF22 DUP2 PUSH2 0x1EA0 JUMP JUMPDEST SWAP2 POP POP PUSH2 0xECD JUMP JUMPDEST POP PUSH1 0x1 DUP2 ISZERO ISZERO EQ PUSH2 0xF99 JUMPI PUSH1 0x40 MLOAD PUSH3 0x461BCD PUSH1 0xE5 SHL DUP2 MSTORE PUSH1 0x20 PUSH1 0x4 DUP3 ADD MSTORE PUSH1 0x33 PUSH1 0x24 DUP3 ADD MSTORE PUSH32 0x546865206164647265737320636C61696D696E672074686520696E6865726974 PUSH1 0x44 DUP3 ADD MSTORE PUSH19 0x30B731B29034B9903737BA1030902432B4B917 PUSH1 0x69 SHL PUSH1 0x64 DUP3 ADD MSTORE PUSH1 0x84 ADD PUSH2 0x4E3 JUMP JUMPDEST PUSH2 0xFA1 PUSH2 0x3FE JUMP JUMPDEST ISZERO PUSH2 0x7A5 JUMPI PUSH1 0x0 PUSH2 0xFB0 PUSH2 0x887 JUMP JUMPDEST SWAP1 POP SELFBALANCE PUSH1 0x0 PUSH2 0xFBD PUSH2 0x15C7 JUMP JUMPDEST SWAP1 POP PUSH1 0x0 JUMPDEST PUSH1 0x4 SLOAD DUP2 LT ISZERO PUSH2 0x10D9 JUMPI DUP2 DUP5 PUSH1 0x4 DUP4 DUP2 SLOAD DUP2 LT PUSH2 0xFE1 JUMPI PUSH2 0xFE1 PUSH2 0x1E8A JUMP JUMPDEST SWAP1 PUSH1 0x0 MSTORE PUSH1 0x20 PUSH1 0x0 KECCAK256 SWAP1 PUSH1 0x5 MUL ADD PUSH1 0x1 ADD SLOAD PUSH2 0xFFD SWAP2 SWAP1 PUSH2 0x1FB1 JUMP JUMPDEST PUSH2 0x1007 SWAP2 SWAP1 PUSH2 0x1FC8 JUMP JUMPDEST PUSH1 0x6 PUSH1 0x0 PUSH1 0x4 DUP5 DUP2 SLOAD DUP2 LT PUSH2 0x101E JUMPI PUSH2 0x101E PUSH2 0x1E8A JUMP JUMPDEST PUSH1 0x0 SWAP2 DUP3 MSTORE PUSH1 0x20 DUP1 DUP4 KECCAK256 PUSH1 0x5 SWAP1 SWAP3 MUL SWAP1 SWAP2 ADD SLOAD PUSH1 0x1 PUSH1 0x1 PUSH1 0xA0 SHL SUB AND DUP4 MSTORE DUP3 ADD SWAP3 SWAP1 SWAP3 MSTORE PUSH1 0x40 ADD SWAP1 KECCAK256 SSTORE PUSH1 0x4 DUP1 SLOAD DUP4 SWAP2 DUP6 SWAP2 DUP5 SWAP1 DUP2 LT PUSH2 0x1060 JUMPI PUSH2 0x1060 PUSH2 0x1E8A JUMP JUMPDEST SWAP1 PUSH1 0x0 MSTORE PUSH1 0x20 PUSH1 0x0 KECCAK256 SWAP1 PUSH1 0x5 MUL ADD PUSH1 0x1 ADD SLOAD PUSH2 0x107C SWAP2 SWAP1 PUSH2 0x1FB1 JUMP JUMPDEST PUSH2 0x1086 SWAP2 SWAP1 PUSH2 0x1FC8 JUMP JUMPDEST PUSH1 0x7 PUSH1 0x0 PUSH1 0x4 DUP5 DUP2 SLOAD DUP2 LT PUSH2 0x109D JUMPI PUSH2 0x109D PUSH2 0x1E8A JUMP JUMPDEST PUSH1 0x0 SWAP2 DUP3 MSTORE PUSH1 0x20 DUP1 DUP4 KECCAK256 PUSH1 0x5 SWAP1 SWAP3 MUL SWAP1 SWAP2 ADD SLOAD PUSH1 0x1 PUSH1 0x1 PUSH1 0xA0 SHL SUB AND DUP4 MSTORE DUP3 ADD SWAP3 SWAP1 SWAP3 MSTORE PUSH1 0x40 ADD SWAP1 KECCAK256 SSTORE DUP1 PUSH2 0x10D1 DUP2 PUSH2 0x1EA0 JUMP JUMPDEST SWAP2 POP POP PUSH2 0xFC2 JUMP JUMPDEST POP PUSH1 0x0 DUP1 JUMPDEST PUSH1 0x4 SLOAD DUP2 LT ISZERO PUSH2 0x144A JUMPI PUSH1 0x4 DUP2 DUP2 SLOAD DUP2 LT PUSH2 0x10FB JUMPI PUSH2 0x10FB PUSH2 0x1E8A JUMP JUMPDEST PUSH1 0x0 SWAP2 DUP3 MSTORE PUSH1 0x20 DUP1 DUP4 KECCAK256 PUSH1 0x5 SWAP1 SWAP3 MUL SWAP1 SWAP2 ADD SLOAD PUSH1 0x1 PUSH1 0x1 PUSH1 0xA0 SHL SUB AND DUP1 DUP4 MSTORE PUSH1 0x7 SWAP1 SWAP2 MSTORE PUSH1 0x40 DUP1 DUP4 KECCAK256 SLOAD SWAP1 MLOAD SWAP2 SWAP5 POP DUP5 SWAP3 DUP2 ISZERO PUSH2 0x8FC MUL SWAP3 SWAP1 DUP2 DUP2 DUP2 DUP6 DUP9 DUP9 CALL SWAP4 POP POP POP POP ISZERO DUP1 ISZERO PUSH2 0x1151 JUMPI RETURNDATASIZE PUSH1 0x0 DUP1 RETURNDATACOPY RETURNDATASIZE PUSH1 0x0 REVERT JUMPDEST POP PUSH1 0x1 PUSH1 0x1 PUSH1 0xA0 SHL SUB DUP3 AND PUSH1 0x0 SWAP1 DUP2 MSTORE PUSH1 0x7 PUSH1 0x20 MSTORE PUSH1 0x40 SWAP1 KECCAK256 SLOAD PUSH1 0x4 DUP1 SLOAD DUP4 SWAP1 DUP2 LT PUSH2 0x117F JUMPI PUSH2 0x117F PUSH2 0x1E8A JUMP JUMPDEST PUSH1 0x0 SWAP2 DUP3 MSTORE PUSH1 0x20 DUP1 DUP4 KECCAK256 PUSH1 0x5 SWAP3 SWAP1 SWAP3 MUL SWAP1 SWAP2 ADD PUSH1 0x2 ADD SWAP3 SWAP1 SWAP3 SSTORE PUSH1 0x8 SLOAD PUSH1 0x1 PUSH1 0x1 PUSH1 0xA0 SHL SUB DUP6 DUP2 AND DUP1 DUP5 MSTORE PUSH1 0x6 SWAP1 SWAP5 MSTORE PUSH1 0x40 SWAP3 DUP4 SWAP1 KECCAK256 SLOAD SWAP3 MLOAD PUSH4 0xA9059CBB PUSH1 0xE0 SHL DUP2 MSTORE PUSH1 0x4 DUP2 ADD SWAP5 SWAP1 SWAP5 MSTORE PUSH1 0x24 DUP5 ADD SWAP3 SWAP1 SWAP3 MSTORE AND SWAP1 PUSH4 0xA9059CBB SWAP1 PUSH1 0x44 ADD PUSH1 0x20 PUSH1 0x40 MLOAD DUP1 DUP4 SUB DUP2 PUSH1 0x0 DUP8 GAS CALL ISZERO DUP1 ISZERO PUSH2 0x11FC JUMPI RETURNDATASIZE PUSH1 0x0 DUP1 RETURNDATACOPY RETURNDATASIZE PUSH1 0x0 REVERT JUMPDEST POP POP POP POP PUSH1 0x40 MLOAD RETURNDATASIZE PUSH1 0x1F NOT PUSH1 0x1F DUP3 ADD AND DUP3 ADD DUP1 PUSH1 0x40 MSTORE POP DUP2 ADD SWAP1 PUSH2 0x1220 SWAP2 SWAP1 PUSH2 0x1FEA JUMP JUMPDEST PUSH2 0x1292 JUMPI PUSH1 0x40 MLOAD PUSH3 0x461BCD PUSH1 0xE5 SHL DUP2 MSTORE PUSH1 0x20 PUSH1 0x4 DUP3 ADD MSTORE PUSH1 0x38 PUSH1 0x24 DUP3 ADD MSTORE PUSH32 0x4572726F72207768696C65207472616E7366657272696E672055534443206672 PUSH1 0x44 DUP3 ADD MSTORE PUSH32 0x6F6D2074686520636F6E747261637420746F20686569722E0000000000000000 PUSH1 0x64 DUP3 ADD MSTORE PUSH1 0x84 ADD PUSH2 0x4E3 JUMP JUMPDEST PUSH1 0x1 PUSH1 0x1 PUSH1 0xA0 SHL SUB DUP3 AND PUSH1 0x0 SWAP1 DUP2 MSTORE PUSH1 0x6 PUSH1 0x20 MSTORE PUSH1 0x40 SWAP1 KECCAK256 SLOAD PUSH1 0x4 DUP1 SLOAD DUP4 SWAP1 DUP2 LT PUSH2 0x12BF JUMPI PUSH2 0x12BF PUSH2 0x1E8A JUMP JUMPDEST SWAP1 PUSH1 0x0 MSTORE PUSH1 0x20 PUSH1 0x0 KECCAK256 SWAP1 PUSH1 0x5 MUL ADD PUSH1 0x3 ADD DUP2 SWAP1 SSTORE POP DUP2 PUSH1 0x1 PUSH1 0x1 PUSH1 0xA0 SHL SUB AND PUSH32 0x34E2B4EFDA0968BD3C419ECD901876F712F93CD5FDA9303AB16021C3535F5593 PUSH1 0x4 DUP4 DUP2 SLOAD DUP2 LT PUSH2 0x1312 JUMPI PUSH2 0x1312 PUSH2 0x1E8A JUMP JUMPDEST SWAP1 PUSH1 0x0 MSTORE PUSH1 0x20 PUSH1 0x0 KECCAK256 SWAP1 PUSH1 0x5 MUL ADD PUSH1 0x1 ADD SLOAD PUSH1 0x7 PUSH1 0x0 DUP7 PUSH1 0x1 PUSH1 0x1 PUSH1 0xA0 SHL SUB AND PUSH1 0x1 PUSH1 0x1 PUSH1 0xA0 SHL SUB AND DUP2 MSTORE PUSH1 0x20 ADD SWAP1 DUP2 MSTORE PUSH1 0x20 ADD PUSH1 0x0 KECCAK256 SLOAD PUSH1 0x4 DUP6 DUP2 SLOAD DUP2 LT PUSH2 0x135D JUMPI PUSH2 0x135D PUSH2 0x1E8A JUMP JUMPDEST SWAP1 PUSH1 0x0 MSTORE PUSH1 0x20 PUSH1 0x0 KECCAK256 SWAP1 PUSH1 0x5 MUL ADD PUSH1 0x2 ADD SLOAD PUSH1 0x6 PUSH1 0x0 DUP9 PUSH1 0x1 PUSH1 0x1 PUSH1 0xA0 SHL SUB AND PUSH1 0x1 PUSH1 0x1 PUSH1 0xA0 SHL SUB AND DUP2 MSTORE PUSH1 0x20 ADD SWAP1 DUP2 MSTORE PUSH1 0x20 ADD PUSH1 0x0 KECCAK256 SLOAD PUSH1 0x4 DUP8 DUP2 SLOAD DUP2 LT PUSH2 0x13A8 JUMPI PUSH2 0x13A8 PUSH2 0x1E8A JUMP JUMPDEST SWAP1 PUSH1 0x0 MSTORE PUSH1 0x20 PUSH1 0x0 KECCAK256 SWAP1 PUSH1 0x5 MUL ADD PUSH1 0x3 ADD SLOAD PUSH1 0x40 MLOAD PUSH2 0x1430 SWAP6 SWAP5 SWAP4 SWAP3 SWAP2 SWAP1 PUSH1 0xC0 DUP1 DUP3 MSTORE PUSH1 0x26 SWAP1 DUP3 ADD MSTORE PUSH32 0x457468657220616E642055534443206D6F6E65792073656E7420746F20746865 PUSH1 0xE0 DUP3 ADD MSTORE PUSH6 0x103432B4B917 PUSH1 0xD1 SHL PUSH2 0x100 DUP3 ADD MSTORE PUSH1 0x20 DUP2 ADD SWAP6 SWAP1 SWAP6 MSTORE PUSH1 0x40 DUP6 ADD SWAP4 SWAP1 SWAP4 MSTORE PUSH1 0x60 DUP5 ADD SWAP2 SWAP1 SWAP2 MSTORE PUSH1 0x80 DUP4 ADD MSTORE PUSH1 0xA0 DUP3 ADD MSTORE PUSH2 0x120 ADD SWAP1 JUMP JUMPDEST PUSH1 0x40 MLOAD DUP1 SWAP2 SUB SWAP1 LOG2 DUP1 PUSH2 0x1442 DUP2 PUSH2 0x1EA0 JUMP JUMPDEST SWAP2 POP POP PUSH2 0x10DE JUMP JUMPDEST POP POP POP POP POP POP POP JUMP JUMPDEST PUSH1 0x0 PUSH2 0x145D PUSH2 0x1A42 JUMP JUMPDEST POP PUSH1 0x3 SLOAD SWAP1 JUMP JUMPDEST PUSH2 0x146C PUSH2 0x1A42 JUMP JUMPDEST TIMESTAMP PUSH1 0x2 DUP2 SWAP1 SSTORE PUSH1 0x3 SLOAD PUSH1 0x40 DUP1 MLOAD PUSH1 0x80 DUP1 DUP3 MSTORE PUSH1 0x31 SWAP1 DUP3 ADD MSTORE PUSH32 0x41646D696E6973747261746F722073656E64732061207369676E616C20746F20 PUSH1 0xA0 DUP3 ADD MSTORE PUSH17 0x39B437BB9034329034B99030B634BB3297 PUSH1 0x79 SHL PUSH1 0xC0 DUP3 ADD MSTORE PUSH1 0x20 DUP2 ADD DUP5 SWAP1 MSTORE SWAP1 DUP2 ADD SWAP3 SWAP1 SWAP3 MSTORE PUSH1 0x60 DUP3 ADD MSTORE CALLER SWAP1 PUSH32 0x5F1AA2875B7B1DF0CD72A6EE708C6AFF6432288001C47518BC91BE4599FDF6E6 SWAP1 PUSH1 0xE0 ADD PUSH1 0x40 MLOAD DUP1 SWAP2 SUB SWAP1 LOG2 JUMP JUMPDEST PUSH1 0x1 SLOAD PUSH1 0x40 DUP1 MLOAD PUSH1 0x80 DUP1 DUP3 MSTORE PUSH1 0x4F SWAP1 DUP3 ADD MSTORE PUSH32 0x4C6F6720616C6C207468652076616C7565733A2041646D696E6973747261746F PUSH1 0xA0 DUP3 ADD MSTORE PUSH32 0x7220616464726573732C20416D6F756E742073656E742C20436F6E7472616374 PUSH1 0xC0 DUP3 ADD MSTORE PUSH15 0x1032BA3432B9103130B630B731B297 PUSH1 0x89 SHL PUSH1 0xE0 DUP3 ADD MSTORE PUSH1 0x1 PUSH1 0x1 PUSH1 0xA0 SHL SUB SWAP1 SWAP3 AND PUSH1 0x20 DUP4 ADD MSTORE CALLVALUE DUP3 DUP3 ADD MSTORE SELFBALANCE PUSH1 0x60 DUP4 ADD MSTORE MLOAD PUSH32 0xE329D93CFDA1BD6EAD1003E3AE53461617C8D120014DFAEA03D2FB42EC55B07 SWAP2 DUP2 SWAP1 SUB PUSH2 0x100 ADD SWAP1 LOG1 JUMP JUMPDEST PUSH1 0x0 DUP1 DUP1 JUMPDEST PUSH1 0x4 SLOAD DUP2 LT ISZERO PUSH2 0x881 JUMPI PUSH1 0x4 DUP2 DUP2 SLOAD DUP2 LT PUSH2 0x15E9 JUMPI PUSH2 0x15E9 PUSH2 0x1E8A JUMP JUMPDEST SWAP1 PUSH1 0x0 MSTORE PUSH1 0x20 PUSH1 0x0 KECCAK256 SWAP1 PUSH1 0x5 MUL ADD PUSH1 0x1 ADD SLOAD DUP3 PUSH2 0x1606 SWAP2 SWAP1 PUSH2 0x1F9E JUMP JUMPDEST SWAP2 POP DUP1 PUSH2 0x1612 DUP2 PUSH2 0x1EA0 JUMP JUMPDEST SWAP2 POP POP PUSH2 0x15CC JUMP JUMPDEST PUSH2 0x1622 PUSH2 0x1A42 JUMP JUMPDEST PUSH1 0x0 DUP2 GT PUSH2 0x166D JUMPI PUSH1 0x40 MLOAD PUSH3 0x461BCD PUSH1 0xE5 SHL DUP2 MSTORE PUSH1 0x20 PUSH1 0x4 DUP3 ADD MSTORE PUSH1 0x18 PUSH1 0x24 DUP3 ADD MSTORE PUSH24 0x20B6B7BAB73A1036BAB9BA103132903837B9B4BA34BB3297 PUSH1 0x41 SHL PUSH1 0x44 DUP3 ADD MSTORE PUSH1 0x64 ADD PUSH2 0x4E3 JUMP JUMPDEST PUSH2 0x1675 PUSH2 0x887 JUMP JUMPDEST DUP2 GT ISZERO PUSH2 0x16C4 JUMPI PUSH1 0x40 MLOAD PUSH3 0x461BCD PUSH1 0xE5 SHL DUP2 MSTORE PUSH1 0x20 PUSH1 0x4 DUP3 ADD MSTORE PUSH1 0x18 PUSH1 0x24 DUP3 ADD MSTORE PUSH32 0x4E6F7420656E6F75676820555344432062616C616E63652E0000000000000000 PUSH1 0x44 DUP3 ADD MSTORE PUSH1 0x64 ADD PUSH2 0x4E3 JUMP JUMPDEST PUSH1 0x8 SLOAD PUSH1 0x40 MLOAD PUSH4 0xA9059CBB PUSH1 0xE0 SHL DUP2 MSTORE CALLER PUSH1 0x4 DUP3 ADD MSTORE PUSH1 0x24 DUP2 ADD DUP4 SWAP1 MSTORE PUSH1 0x1 PUSH1 0x1 PUSH1 0xA0 SHL SUB SWAP1 SWAP2 AND SWAP1 PUSH4 0xA9059CBB SWAP1 PUSH1 0x44 ADD PUSH1 0x20 PUSH1 0x40 MLOAD DUP1 DUP4 SUB DUP2 PUSH1 0x0 DUP8 GAS CALL ISZERO DUP1 ISZERO PUSH2 0x1715 JUMPI RETURNDATASIZE PUSH1 0x0 DUP1 RETURNDATACOPY RETURNDATASIZE PUSH1 0x0 REVERT JUMPDEST POP POP POP POP PUSH1 0x40 MLOAD RETURNDATASIZE PUSH1 0x1F NOT PUSH1 0x1F DUP3 ADD AND DUP3 ADD DUP1 PUSH1 0x40 MSTORE POP DUP2 ADD SWAP1 PUSH2 0x1739 SWAP2 SWAP1 PUSH2 0x1FEA JUMP JUMPDEST PUSH2 0x17B9 JUMPI PUSH1 0x40 MLOAD PUSH3 0x461BCD PUSH1 0xE5 SHL DUP2 MSTORE PUSH1 0x20 PUSH1 0x4 DUP3 ADD MSTORE PUSH1 0x45 PUSH1 0x24 DUP3 ADD MSTORE PUSH32 0x4572726F72207768696C65207472616E7366657272696E672055534443206672 PUSH1 0x44 DUP3 ADD MSTORE PUSH32 0x6F6D2074686520636F6E747261637420746F207468652061646D696E69737472 PUSH1 0x64 DUP3 ADD MSTORE PUSH5 0x30BA37B917 PUSH1 0xD9 SHL PUSH1 0x84 DUP3 ADD MSTORE PUSH1 0xA4 ADD PUSH2 0x4E3 JUMP JUMPDEST POP JUMP JUMPDEST PUSH2 0x17C4 PUSH2 0x1A42 JUMP JUMPDEST PUSH1 0x3 SSTORE JUMP JUMPDEST PUSH2 0x17D1 PUSH2 0x1A42 JUMP JUMPDEST PUSH1 0x5 SLOAD DUP3 SWAP1 DUP3 SWAP1 DUP3 LT PUSH2 0x17F6 JUMPI PUSH1 0x40 MLOAD PUSH3 0x461BCD PUSH1 0xE5 SHL DUP2 MSTORE PUSH1 0x4 ADD PUSH2 0x4E3 SWAP1 PUSH2 0x1ED2 JUMP JUMPDEST DUP1 PUSH1 0x1 PUSH1 0x1 PUSH1 0xA0 SHL SUB AND PUSH1 0x5 DUP4 DUP2 SLOAD DUP2 LT PUSH2 0x1813 JUMPI PUSH2 0x1813 PUSH2 0x1E8A JUMP JUMPDEST PUSH1 0x0 SWAP2 DUP3 MSTORE PUSH1 0x20 SWAP1 SWAP2 KECCAK256 ADD SLOAD PUSH1 0x1 PUSH1 0x1 PUSH1 0xA0 SHL SUB AND EQ PUSH2 0x1845 JUMPI PUSH1 0x40 MLOAD PUSH3 0x461BCD PUSH1 0xE5 SHL DUP2 MSTORE PUSH1 0x4 ADD PUSH2 0x4E3 SWAP1 PUSH2 0x1F2F JUMP JUMPDEST PUSH2 0x184E DUP5 PUSH2 0x1AEC JUMP JUMPDEST PUSH1 0x5 SLOAD PUSH1 0x4 SLOAD PUSH1 0x40 DUP1 MLOAD PUSH1 0x60 DUP1 DUP3 MSTORE PUSH1 0x33 SWAP1 DUP3 ADD MSTORE PUSH32 0x41646D696E6973747261746F722072656A656374732075736572277320726571 PUSH1 0x80 DUP3 ADD MSTORE PUSH19 0x3AB2B9BA103A379031329030B7103432B4B917 PUSH1 0x69 SHL PUSH1 0xA0 DUP3 ADD MSTORE PUSH1 0x20 DUP2 ADD SWAP4 SWAP1 SWAP4 MSTORE DUP3 ADD MSTORE PUSH1 0x1 PUSH1 0x1 PUSH1 0xA0 SHL SUB DUP5 AND SWAP1 PUSH32 0x5541B3BB46C30EE5AEA95B57D7A1D3949DA67BA8E09C865DA2318F2FB273857 SWAP1 PUSH1 0xC0 ADD PUSH1 0x40 MLOAD DUP1 SWAP2 SUB SWAP1 LOG2 POP POP POP POP JUMP JUMPDEST PUSH2 0x18F6 PUSH2 0x1A42 JUMP JUMPDEST PUSH1 0x1 PUSH1 0x1 PUSH1 0xA0 SHL SUB DUP2 AND PUSH2 0x195B JUMPI PUSH1 0x40 MLOAD PUSH3 0x461BCD PUSH1 0xE5 SHL DUP2 MSTORE PUSH1 0x20 PUSH1 0x4 DUP3 ADD MSTORE PUSH1 0x26 PUSH1 0x24 DUP3 ADD MSTORE PUSH32 0x4F776E61626C653A206E6577206F776E657220697320746865207A65726F2061 PUSH1 0x44 DUP3 ADD MSTORE PUSH6 0x646472657373 PUSH1 0xD0 SHL PUSH1 0x64 DUP3 ADD MSTORE PUSH1 0x84 ADD PUSH2 0x4E3 JUMP JUMPDEST PUSH2 0x17B9 DUP2 PUSH2 0x1A9C JUMP JUMPDEST PUSH1 0x4 SLOAD PUSH1 0x60 SWAP1 PUSH1 0x0 SWAP1 PUSH8 0xFFFFFFFFFFFFFFFF DUP2 GT ISZERO PUSH2 0x1985 JUMPI PUSH2 0x1985 PUSH2 0x200C JUMP JUMPDEST PUSH1 0x40 MLOAD SWAP1 DUP1 DUP3 MSTORE DUP1 PUSH1 0x20 MUL PUSH1 0x20 ADD DUP3 ADD PUSH1 0x40 MSTORE DUP1 ISZERO PUSH2 0x19AE JUMPI DUP2 PUSH1 0x20 ADD PUSH1 0x20 DUP3 MUL DUP1 CALLDATASIZE DUP4 CALLDATACOPY ADD SWAP1 POP JUMPDEST POP SWAP1 POP PUSH1 0x0 DUP1 JUMPDEST PUSH1 0x4 SLOAD DUP2 LT ISZERO PUSH2 0x1A3A JUMPI PUSH1 0x4 DUP2 DUP2 SLOAD DUP2 LT PUSH2 0x19D2 JUMPI PUSH2 0x19D2 PUSH2 0x1E8A JUMP JUMPDEST PUSH1 0x0 SWAP2 DUP3 MSTORE PUSH1 0x20 SWAP1 SWAP2 KECCAK256 PUSH1 0x5 SWAP1 SWAP2 MUL ADD SLOAD DUP4 MLOAD PUSH1 0x1 PUSH1 0x1 PUSH1 0xA0 SHL SUB SWAP1 SWAP2 AND SWAP1 DUP5 SWAP1 DUP5 SWAP1 DUP2 LT PUSH2 0x1A03 JUMPI PUSH2 0x1A03 PUSH2 0x1E8A JUMP JUMPDEST PUSH1 0x1 PUSH1 0x1 PUSH1 0xA0 SHL SUB SWAP1 SWAP3 AND PUSH1 0x20 SWAP3 DUP4 MUL SWAP2 SWAP1 SWAP2 ADD SWAP1 SWAP2 ADD MSTORE PUSH2 0x1A26 PUSH1 0x1 DUP4 PUSH2 0x1F9E JUMP JUMPDEST SWAP2 POP DUP1 PUSH2 0x1A32 DUP2 PUSH2 0x1EA0 JUMP JUMPDEST SWAP2 POP POP PUSH2 0x19B5 JUMP JUMPDEST POP SWAP1 SWAP3 SWAP2 POP POP JUMP JUMPDEST PUSH1 0x0 SLOAD PUSH1 0x1 PUSH1 0x1 PUSH1 0xA0 SHL SUB AND CALLER EQ PUSH2 0xAE8 JUMPI PUSH1 0x40 MLOAD PUSH3 0x461BCD PUSH1 0xE5 SHL DUP2 MSTORE PUSH1 0x20 PUSH1 0x4 DUP3 ADD DUP2 SWAP1 MSTORE PUSH1 0x24 DUP3 ADD MSTORE PUSH32 0x4F776E61626C653A2063616C6C6572206973206E6F7420746865206F776E6572 PUSH1 0x44 DUP3 ADD MSTORE PUSH1 0x64 ADD PUSH2 0x4E3 JUMP JUMPDEST PUSH1 0x0 DUP1 SLOAD PUSH1 0x1 PUSH1 0x1 PUSH1 0xA0 SHL SUB DUP4 DUP2 AND PUSH1 0x1 PUSH1 0x1 PUSH1 0xA0 SHL SUB NOT DUP4 AND DUP2 OR DUP5 SSTORE PUSH1 0x40 MLOAD SWAP2 SWAP1 SWAP3 AND SWAP3 DUP4 SWAP2 PUSH32 0x8BE0079C531659141344CD1FD0A4F28419497F9722A3DAAFE3B4186F6B6457E0 SWAP2 SWAP1 LOG3 POP POP JUMP JUMPDEST PUSH1 0x5 SLOAD DUP2 LT PUSH2 0x1B0D JUMPI PUSH1 0x40 MLOAD PUSH3 0x461BCD PUSH1 0xE5 SHL DUP2 MSTORE PUSH1 0x4 ADD PUSH2 0x4E3 SWAP1 PUSH2 0x1ED2 JUMP JUMPDEST DUP1 JUMPDEST PUSH1 0x5 SLOAD PUSH2 0x1B1E SWAP1 PUSH1 0x1 SWAP1 PUSH2 0x1E71 JUMP JUMPDEST DUP2 LT ISZERO PUSH2 0x1BA9 JUMPI PUSH1 0x5 PUSH2 0x1B32 DUP3 PUSH1 0x1 PUSH2 0x1F9E JUMP JUMPDEST DUP2 SLOAD DUP2 LT PUSH2 0x1B42 JUMPI PUSH2 0x1B42 PUSH2 0x1E8A JUMP JUMPDEST PUSH1 0x0 SWAP2 DUP3 MSTORE PUSH1 0x20 SWAP1 SWAP2 KECCAK256 ADD SLOAD PUSH1 0x5 DUP1 SLOAD PUSH1 0x1 PUSH1 0x1 PUSH1 0xA0 SHL SUB SWAP1 SWAP3 AND SWAP2 DUP4 SWAP1 DUP2 LT PUSH2 0x1B6E JUMPI PUSH2 0x1B6E PUSH2 0x1E8A JUMP JUMPDEST PUSH1 0x0 SWAP2 DUP3 MSTORE PUSH1 0x20 SWAP1 SWAP2 KECCAK256 ADD DUP1 SLOAD PUSH1 0x1 PUSH1 0x1 PUSH1 0xA0 SHL SUB NOT AND PUSH1 0x1 PUSH1 0x1 PUSH1 0xA0 SHL SUB SWAP3 SWAP1 SWAP3 AND SWAP2 SWAP1 SWAP2 OR SWAP1 SSTORE DUP1 PUSH2 0x1BA1 DUP2 PUSH2 0x1EA0 JUMP JUMPDEST SWAP2 POP POP PUSH2 0x1B0F JUMP JUMPDEST POP PUSH1 0x5 DUP1 SLOAD DUP1 PUSH2 0x1BBB JUMPI PUSH2 0x1BBB PUSH2 0x2022 JUMP JUMPDEST PUSH1 0x0 DUP3 DUP2 MSTORE PUSH1 0x20 SWAP1 KECCAK256 DUP2 ADD PUSH1 0x0 NOT SWAP1 DUP2 ADD DUP1 SLOAD PUSH1 0x1 PUSH1 0x1 PUSH1 0xA0 SHL SUB NOT AND SWAP1 SSTORE ADD SWAP1 SSTORE POP JUMP JUMPDEST DUP3 DUP1 SLOAD DUP3 DUP3 SSTORE SWAP1 PUSH1 0x0 MSTORE PUSH1 0x20 PUSH1 0x0 KECCAK256 SWAP1 DUP2 ADD SWAP3 DUP3 ISZERO PUSH2 0x1C1B JUMPI SWAP2 PUSH1 0x20 MUL DUP3 ADD JUMPDEST DUP3 DUP2 GT ISZERO PUSH2 0x1C1B JUMPI DUP3 MLOAD DUP3 SSTORE SWAP2 PUSH1 0x20 ADD SWAP2 SWAP1 PUSH1 0x1 ADD SWAP1 PUSH2 0x1C00 JUMP JUMPDEST POP PUSH2 0x1C27 SWAP3 SWAP2 POP PUSH2 0x1C2B JUMP JUMPDEST POP SWAP1 JUMP JUMPDEST JUMPDEST DUP1 DUP3 GT ISZERO PUSH2 0x1C27 JUMPI PUSH1 0x0 DUP2 SSTORE PUSH1 0x1 ADD PUSH2 0x1C2C JUMP JUMPDEST PUSH1 0x20 DUP1 DUP3 MSTORE DUP3 MLOAD DUP3 DUP3 ADD DUP2 SWAP1 MSTORE PUSH1 0x0 SWAP2 SWAP1 DUP5 DUP3 ADD SWAP1 PUSH1 0x40 DUP6 ADD SWAP1 DUP5 JUMPDEST DUP2 DUP2 LT ISZERO PUSH2 0x1C81 JUMPI DUP4 MLOAD PUSH1 0x1 PUSH1 0x1 PUSH1 0xA0 SHL SUB AND DUP4 MSTORE SWAP3 DUP5 ADD SWAP3 SWAP2 DUP5 ADD SWAP2 PUSH1 0x1 ADD PUSH2 0x1C5C JUMP JUMPDEST POP SWAP1 SWAP7 SWAP6 POP POP POP POP POP POP JUMP JUMPDEST PUSH1 0x0 PUSH1 0x20 DUP3 DUP5 SUB SLT ISZERO PUSH2 0x1C9F JUMPI PUSH1 0x0 DUP1 REVERT JUMPDEST POP CALLDATALOAD SWAP2 SWAP1 POP JUMP JUMPDEST DUP1 CALLDATALOAD PUSH1 0x1 PUSH1 0x1 PUSH1 0xA0 SHL SUB DUP2 AND DUP2 EQ PUSH2 0x1CBD JUMPI PUSH1 0x0 DUP1 REVERT JUMPDEST SWAP2 SWAP1 POP JUMP JUMPDEST PUSH1 0x0 PUSH1 0x20 DUP3 DUP5 SUB SLT ISZERO PUSH2 0x1CD4 JUMPI PUSH1 0x0 DUP1 REVERT JUMPDEST PUSH2 0x1CDD DUP3 PUSH2 0x1CA6 JUMP JUMPDEST SWAP4 SWAP3 POP POP POP JUMP JUMPDEST PUSH1 0x0 DUP2 MLOAD DUP1 DUP5 MSTORE PUSH1 0x20 DUP1 DUP6 ADD SWAP5 POP DUP1 DUP5 ADD PUSH1 0x0 JUMPDEST DUP4 DUP2 LT ISZERO PUSH2 0x1D14 JUMPI DUP2 MLOAD DUP8 MSTORE SWAP6 DUP3 ADD SWAP6 SWAP1 DUP3 ADD SWAP1 PUSH1 0x1 ADD PUSH2 0x1CF8 JUMP JUMPDEST POP SWAP5 SWAP6 SWAP5 POP POP POP POP POP JUMP JUMPDEST PUSH1 0x20 DUP2 MSTORE PUSH1 0x0 PUSH2 0x1CDD PUSH1 0x20 DUP4 ADD DUP5 PUSH2 0x1CE4 JUMP JUMPDEST PUSH1 0x0 DUP1 PUSH1 0x40 DUP4 DUP6 SUB SLT ISZERO PUSH2 0x1D45 JUMPI PUSH1 0x0 DUP1 REVERT JUMPDEST PUSH2 0x1D4E DUP4 PUSH2 0x1CA6 JUMP JUMPDEST SWAP5 PUSH1 0x20 SWAP4 SWAP1 SWAP4 ADD CALLDATALOAD SWAP4 POP POP POP JUMP JUMPDEST PUSH1 0x0 PUSH1 0x20 DUP1 DUP4 ADD DUP2 DUP5 MSTORE DUP1 DUP6 MLOAD DUP1 DUP4 MSTORE PUSH1 0x40 SWAP3 POP DUP3 DUP7 ADD SWAP2 POP DUP3 DUP2 PUSH1 0x5 SHL DUP8 ADD ADD DUP5 DUP9 ADD PUSH1 0x0 JUMPDEST DUP4 DUP2 LT ISZERO PUSH2 0x1DEC JUMPI DUP9 DUP4 SUB PUSH1 0x3F NOT ADD DUP6 MSTORE DUP2 MLOAD DUP1 MLOAD PUSH1 0x1 PUSH1 0x1 PUSH1 0xA0 SHL SUB AND DUP5 MSTORE DUP8 DUP2 ADD MLOAD DUP9 DUP6 ADD MSTORE DUP7 DUP2 ADD MLOAD DUP8 DUP6 ADD MSTORE PUSH1 0x60 DUP1 DUP3 ADD MLOAD SWAP1 DUP6 ADD MSTORE PUSH1 0x80 SWAP1 DUP2 ADD MLOAD PUSH1 0xA0 SWAP2 DUP6 ADD DUP3 SWAP1 MSTORE SWAP1 PUSH2 0x1DD8 DUP2 DUP7 ADD DUP4 PUSH2 0x1CE4 JUMP JUMPDEST SWAP7 DUP10 ADD SWAP7 SWAP5 POP POP POP SWAP1 DUP7 ADD SWAP1 PUSH1 0x1 ADD PUSH2 0x1D83 JUMP JUMPDEST POP SWAP1 SWAP9 SWAP8 POP POP POP POP POP POP POP POP JUMP JUMPDEST PUSH1 0x0 DUP1 PUSH1 0x0 PUSH1 0x60 DUP5 DUP7 SUB SLT ISZERO PUSH2 0x1E0F JUMPI PUSH1 0x0 DUP1 REVERT JUMPDEST DUP4 CALLDATALOAD SWAP3 POP PUSH2 0x1E1F PUSH1 0x20 DUP6 ADD PUSH2 0x1CA6 JUMP JUMPDEST SWAP2 POP PUSH1 0x40 DUP5 ADD CALLDATALOAD SWAP1 POP SWAP3 POP SWAP3 POP SWAP3 JUMP JUMPDEST PUSH1 0x0 DUP1 PUSH1 0x40 DUP4 DUP6 SUB SLT ISZERO PUSH2 0x1E42 JUMPI PUSH1 0x0 DUP1 REVERT JUMPDEST DUP3 CALLDATALOAD SWAP2 POP PUSH2 0x1E52 PUSH1 0x20 DUP5 ADD PUSH2 0x1CA6 JUMP JUMPDEST SWAP1 POP SWAP3 POP SWAP3 SWAP1 POP JUMP JUMPDEST PUSH4 0x4E487B71 PUSH1 0xE0 SHL PUSH1 0x0 MSTORE PUSH1 0x11 PUSH1 0x4 MSTORE PUSH1 0x24 PUSH1 0x0 REVERT JUMPDEST DUP2 DUP2 SUB DUP2 DUP2 GT ISZERO PUSH2 0x1E84 JUMPI PUSH2 0x1E84 PUSH2 0x1E5B JUMP JUMPDEST SWAP3 SWAP2 POP POP JUMP JUMPDEST PUSH4 0x4E487B71 PUSH1 0xE0 SHL PUSH1 0x0 MSTORE PUSH1 0x32 PUSH1 0x4 MSTORE PUSH1 0x24 PUSH1 0x0 REVERT JUMPDEST PUSH1 0x0 PUSH1 0x1 DUP3 ADD PUSH2 0x1EB2 JUMPI PUSH2 0x1EB2 PUSH2 0x1E5B JUMP JUMPDEST POP PUSH1 0x1 ADD SWAP1 JUMP JUMPDEST PUSH1 0x0 PUSH1 0x20 DUP3 DUP5 SUB SLT ISZERO PUSH2 0x1ECB JUMPI PUSH1 0x0 DUP1 REVERT JUMPDEST POP MLOAD SWAP2 SWAP1 POP JUMP JUMPDEST PUSH1 0x20 DUP1 DUP3 MSTORE PUSH1 0x38 SWAP1 DUP3 ADD MSTORE PUSH32 0x54686520696E6465782073656E7420697320626967676572207468616E207468 PUSH1 0x40 DUP3 ADD MSTORE PUSH32 0x65207265717565737473206172726179206C656E6774682E0000000000000000 PUSH1 0x60 DUP3 ADD MSTORE PUSH1 0x80 ADD SWAP1 JUMP JUMPDEST PUSH1 0x20 DUP1 DUP3 MSTORE PUSH1 0x49 SWAP1 DUP3 ADD MSTORE PUSH32 0x416464726573732073656E7420646F65736E2774206D61746368207769746820 PUSH1 0x40 DUP3 ADD MSTORE PUSH32 0x74686520616464726573732073746F72656420696E2074686520726571756573 PUSH1 0x60 DUP3 ADD MSTORE PUSH9 0x3A399030B93930BC97 PUSH1 0xB9 SHL PUSH1 0x80 DUP3 ADD MSTORE PUSH1 0xA0 ADD SWAP1 JUMP JUMPDEST DUP1 DUP3 ADD DUP1 DUP3 GT ISZERO PUSH2 0x1E84 JUMPI PUSH2 0x1E84 PUSH2 0x1E5B JUMP JUMPDEST DUP1 DUP3 MUL DUP2 ISZERO DUP3 DUP3 DIV DUP5 EQ OR PUSH2 0x1E84 JUMPI PUSH2 0x1E84 PUSH2 0x1E5B JUMP JUMPDEST PUSH1 0x0 DUP3 PUSH2 0x1FE5 JUMPI PUSH4 0x4E487B71 PUSH1 0xE0 SHL PUSH1 0x0 MSTORE PUSH1 0x12 PUSH1 0x4 MSTORE PUSH1 0x24 PUSH1 0x0 REVERT JUMPDEST POP DIV SWAP1 JUMP JUMPDEST PUSH1 0x0 PUSH1 0x20 DUP3 DUP5 SUB SLT ISZERO PUSH2 0x1FFC JUMPI PUSH1 0x0 DUP1 REVERT JUMPDEST DUP2 MLOAD DUP1 ISZERO ISZERO DUP2 EQ PUSH2 0x1CDD JUMPI PUSH1 0x0 DUP1 REVERT JUMPDEST PUSH4 0x4E487B71 PUSH1 0xE0 SHL PUSH1 0x0 MSTORE PUSH1 0x41 PUSH1 0x4 MSTORE PUSH1 0x24 PUSH1 0x0 REVERT JUMPDEST PUSH4 0x4E487B71 PUSH1 0xE0 SHL PUSH1 0x0 MSTORE PUSH1 0x31 PUSH1 0x4 MSTORE PUSH1 0x24 PUSH1 0x0 REVERT INVALID LOG2 PUSH5 0x6970667358 0x22 SLT KECCAK256 0xAB 0xD5 0xDF 0xDA DUP1 0xB6 SWAP16 SDIV LOG4 PUSH14 0xDCD2D5594744D2C3E501C6CA3C8E ADDMOD DIV AND 0xD1 PUSH5 0xDC287D6473 PUSH16 0x6C63430008130033A264697066735822 SLT KECCAK256 0xC2 0xBD PUSH29 0xBA939ED82539EDF9195672EA74D79800446FB78293BDC9DB5FA7C444CD PUSH5 0x736F6C6343 STOP ADDMOD SGT STOP CALLER "},"gasEstimates":{"creation":{"codeDepositCost":"1959800","executionCost":"2077","totalCost":"1961877"},"external":{"createInheritance(uint256,address)":"infinite","getDeployedInheritancesCount()":"2247","inheritances(address)":"2558"}},"methodIdentifiers":{"createInheritance(uint256,address)":"65a4c281","getDeployedInheritancesCount()":"21b6e8f5","inheritances(address)":"6122fed5"}},"storageLayout":{"storage":[{"astId":5,"contract":"Inheritance.sol:InheritanceFactory","label":"deployedInheritancesCount","offset":0,"slot":"0","type":"t_uint256"},{"astId":9,"contract":"Inheritance.sol:InheritanceFactory","label":"inheritances","offset":0,"slot":"1","type":"t_mapping(t_address,t_address)"}],"types":{"t_address":{"encoding":"inplace","label":"address","numberOfBytes":"20"},"t_mapping(t_address,t_address)":{"encoding":"mapping","key":"t_address","label":"mapping(address => address)","numberOfBytes":"32","value":"t_address"},"t_uint256":{"encoding":"inplace","label":"uint256","numberOfBytes":"32"}}},"userdoc":{"kind":"user","methods":{},"version":1}}