{"abi":[{"inputs":[],"stateMutability":"nonpayable","type":"constructor"},{"anonymous":false,"inputs":[{"indexed":true,"internalType":"address","name":"owner","type":"address"},{"indexed":true,"internalType":"address","name":"approved","type":"address"},{"indexed":true,"internalType":"uint256","name":"tokenId","type":"uint256"}],"name":"Approval","type":"event"},{"anonymous":false,"inputs":[{"indexed":true,"internalType":"address","name":"owner","type":"address"},{"indexed":true,"internalType":"address","name":"operator","type":"address"},{"indexed":false,"internalType":"bool","name":"approved","type":"bool"}],"name":"ApprovalForAll","type":"event"},{"anonymous":false,"inputs":[{"indexed":true,"internalType":"address","name":"from","type":"address"},{"indexed":true,"internalType":"address","name":"to","type":"address"},{"indexed":true,"internalType":"uint256","name":"tokenId","type":"uint256"}],"name":"Transfer","type":"event"},{"inputs":[{"internalType":"address","name":"to","type":"address"},{"internalType":"uint256","name":"tokenId","type":"uint256"}],"name":"approve","outputs":[],"stateMutability":"nonpayable","type":"function"},{"inputs":[{"internalType":"address","name":"owner","type":"address"}],"name":"balanceOf","outputs":[{"internalType":"uint256","name":"","type":"uint256"}],"stateMutability":"view","type":"function"},{"inputs":[{"internalType":"address","name":"contractAddress","type":"address"}],"name":"executeInheritance","outputs":[],"stateMutability":"nonpayable","type":"function"},{"inputs":[],"name":"getAdministratorNFTs","outputs":[{"components":[{"internalType":"uint256","name":"tokenId","type":"uint256"},{"internalType":"address","name":"administrator","type":"address"}],"internalType":"struct TitleDeed.DeedNFT[]","name":"","type":"tuple[]"}],"stateMutability":"view","type":"function"},{"inputs":[{"internalType":"uint256","name":"tokenId","type":"uint256"}],"name":"getApproved","outputs":[{"internalType":"address","name":"","type":"address"}],"stateMutability":"view","type":"function"},{"inputs":[{"internalType":"uint256","name":"tokenId","type":"uint256"}],"name":"getElementByTokenId","outputs":[{"components":[{"internalType":"uint256","name":"tokenId","type":"uint256"},{"internalType":"address","name":"administrator","type":"address"}],"internalType":"struct TitleDeed.DeedNFT","name":"","type":"tuple"}],"stateMutability":"view","type":"function"},{"inputs":[],"name":"getLastElement","outputs":[{"components":[{"internalType":"uint256","name":"tokenId","type":"uint256"},{"internalType":"address","name":"administrator","type":"address"}],"internalType":"struct TitleDeed.DeedNFT","name":"","type":"tuple"}],"stateMutability":"view","type":"function"},{"inputs":[],"name":"getLastTokenId","outputs":[{"internalType":"uint256","name":"","type":"uint256"}],"stateMutability":"view","type":"function"},{"inputs":[{"internalType":"address","name":"owner","type":"address"},{"internalType":"address","name":"operator","type":"address"}],"name":"isApprovedForAll","outputs":[{"internalType":"bool","name":"","type":"bool"}],"stateMutability":"view","type":"function"},{"inputs":[],"name":"name","outputs":[{"internalType":"string","name":"","type":"string"}],"stateMutability":"view","type":"function"},{"inputs":[{"internalType":"uint256","name":"tokenId","type":"uint256"}],"name":"ownerOf","outputs":[{"internalType":"address","name":"","type":"address"}],"stateMutability":"view","type":"function"},{"inputs":[{"internalType":"string","name":"tokenURI","type":"string"}],"name":"safeMint","outputs":[{"internalType":"uint256","name":"","type":"uint256"}],"stateMutability":"nonpayable","type":"function"},{"inputs":[{"internalType":"address","name":"from","type":"address"},{"internalType":"address","name":"to","type":"address"},{"internalType":"uint256","name":"tokenId","type":"uint256"}],"name":"safeTransferFrom","outputs":[],"stateMutability":"nonpayable","type":"function"},{"inputs":[{"internalType":"address","name":"from","type":"address"},{"internalType":"address","name":"to","type":"address"},{"internalType":"uint256","name":"tokenId","type":"uint256"},{"internalType":"bytes","name":"data","type":"bytes"}],"name":"safeTransferFrom","outputs":[],"stateMutability":"nonpayable","type":"function"},{"inputs":[{"internalType":"address","name":"operator","type":"address"},{"internalType":"bool","name":"approved","type":"bool"}],"name":"setApprovalForAll","outputs":[],"stateMutability":"nonpayable","type":"function"},{"inputs":[{"internalType":"bytes4","name":"interfaceId","type":"bytes4"}],"name":"supportsInterface","outputs":[{"internalType":"bool","name":"","type":"bool"}],"stateMutability":"view","type":"function"},{"inputs":[],"name":"symbol","outputs":[{"internalType":"string","name":"","type":"string"}],"stateMutability":"view","type":"function"},{"inputs":[{"internalType":"uint256","name":"tokenId","type":"uint256"}],"name":"tokenURI","outputs":[{"internalType":"string","name":"","type":"string"}],"stateMutability":"view","type":"function"},{"inputs":[{"internalType":"address","name":"from","type":"address"},{"internalType":"address","name":"to","type":"address"},{"internalType":"uint256","name":"tokenId","type":"uint256"}],"name":"transferFrom","outputs":[],"stateMutability":"nonpayable","type":"function"}],"devdoc":{"events":{"Approval(address,address,uint256)":{"details":"Emitted when `owner` enables `approved` to manage the `tokenId` token."},"ApprovalForAll(address,address,bool)":{"details":"Emitted when `owner` enables or disables (`approved`) `operator` to manage all of its assets."},"Transfer(address,address,uint256)":{"details":"Emitted when `tokenId` token is transferred from `from` to `to`."}},"kind":"dev","methods":{"approve(address,uint256)":{"details":"See {IERC721-approve}."},"balanceOf(address)":{"details":"See {IERC721-balanceOf}."},"getApproved(uint256)":{"details":"See {IERC721-getApproved}."},"isApprovedForAll(address,address)":{"details":"See {IERC721-isApprovedForAll}."},"name()":{"details":"See {IERC721Metadata-name}."},"ownerOf(uint256)":{"details":"See {IERC721-ownerOf}."},"safeTransferFrom(address,address,uint256)":{"details":"See {IERC721-safeTransferFrom}."},"safeTransferFrom(address,address,uint256,bytes)":{"details":"See {IERC721-safeTransferFrom}."},"setApprovalForAll(address,bool)":{"details":"See {IERC721-setApprovalForAll}."},"supportsInterface(bytes4)":{"details":"See {IERC165-supportsInterface}."},"symbol()":{"details":"See {IERC721Metadata-symbol}."},"tokenURI(uint256)":{"details":"See {IERC721Metadata-tokenURI}."},"transferFrom(address,address,uint256)":{"details":"See {IERC721-transferFrom}."}},"version":1},"evm":{"assembly":"    /* \"InheritanceDeed.sol\":277:4093  contract TitleDeed is ERC721URIStorage {... */\n  mstore(0x40, 0x80)\n    /* \"InheritanceDeed.sol\":632:675  constructor() ERC721(\"TitleDeed\", \"TDD\") {} */\n  callvalue\n  dup1\n  iszero\n  tag_1\n  jumpi\n  0x00\n  dup1\n  revert\ntag_1:\n  pop\n    /* \"@openzeppelin/contracts/token/ERC721/ERC721.sol\":1390:1503   */\n  mload(0x40)\n  dup1\n  0x40\n  add\n  0x40\n  mstore\n  dup1\n  0x09\n  dup2\n  mstore\n  0x20\n  add\n  shl(0xba, 0x151a5d1b1951195959)\n  dup2\n  mstore\n  pop\n  mload(0x40)\n  dup1\n  0x40\n  add\n  0x40\n  mstore\n  dup1\n  0x03\n  dup2\n  mstore\n  0x20\n  add\n  shl(0xea, 0x151111)\n  dup2\n  mstore\n  pop\n    /* \"@openzeppelin/contracts/token/ERC721/ERC721.sol\":1464:1469   */\n  dup2\n    /* \"@openzeppelin/contracts/token/ERC721/ERC721.sol\":1456:1461   */\n  0x00\n    /* \"@openzeppelin/contracts/token/ERC721/ERC721.sol\":1456:1469   */\n  swap1\n  dup2\n  tag_5\n  swap2\n  swap1\n  tag_6\n  jump\t// in\ntag_5:\n  pop\n    /* \"@openzeppelin/contracts/token/ERC721/ERC721.sol\":1479:1486   */\n  0x01\n    /* \"@openzeppelin/contracts/token/ERC721/ERC721.sol\":1479:1496   */\n  tag_7\n    /* \"@openzeppelin/contracts/token/ERC721/ERC721.sol\":1489:1496   */\n  dup3\n    /* \"@openzeppelin/contracts/token/ERC721/ERC721.sol\":1479:1486   */\n  dup3\n    /* \"@openzeppelin/contracts/token/ERC721/ERC721.sol\":1479:1496   */\n  tag_6\n  jump\t// in\ntag_7:\n  pop\n    /* \"@openzeppelin/contracts/token/ERC721/ERC721.sol\":1390:1503   */\n  pop\n  pop\n    /* \"InheritanceDeed.sol\":277:4093  contract TitleDeed is ERC721URIStorage {... */\n  jump(tag_15)\n    /* \"#utility.yul\":14:141   */\ntag_10:\n    /* \"#utility.yul\":75:85   */\n  0x4e487b71\n    /* \"#utility.yul\":70:73   */\n  0xe0\n    /* \"#utility.yul\":66:86   */\n  shl\n    /* \"#utility.yul\":63:64   */\n  0x00\n    /* \"#utility.yul\":56:87   */\n  mstore\n    /* \"#utility.yul\":106:110   */\n  0x41\n    /* \"#utility.yul\":103:104   */\n  0x04\n    /* \"#utility.yul\":96:111   */\n  mstore\n    /* \"#utility.yul\":130:134   */\n  0x24\n    /* \"#utility.yul\":127:128   */\n  0x00\n    /* \"#utility.yul\":120:135   */\n  revert\n    /* \"#utility.yul\":146:526   */\ntag_11:\n    /* \"#utility.yul\":225:226   */\n  0x01\n    /* \"#utility.yul\":221:233   */\n  dup2\n  dup2\n  shr\n  swap1\n    /* \"#utility.yul\":268:280   */\n  dup3\n  and\n  dup1\n    /* \"#utility.yul\":289:350   */\n  tag_18\n  jumpi\n    /* \"#utility.yul\":343:347   */\n  0x7f\n    /* \"#utility.yul\":335:341   */\n  dup3\n    /* \"#utility.yul\":331:348   */\n  and\n    /* \"#utility.yul\":321:348   */\n  swap2\n  pop\n    /* \"#utility.yul\":289:350   */\ntag_18:\n    /* \"#utility.yul\":396:398   */\n  0x20\n    /* \"#utility.yul\":388:394   */\n  dup3\n    /* \"#utility.yul\":385:399   */\n  lt\n    /* \"#utility.yul\":365:383   */\n  dup2\n    /* \"#utility.yul\":362:400   */\n  sub\n    /* \"#utility.yul\":359:520   */\n  tag_19\n  jumpi\n    /* \"#utility.yul\":442:452   */\n  0x4e487b71\n    /* \"#utility.yul\":437:440   */\n  0xe0\n    /* \"#utility.yul\":433:453   */\n  shl\n    /* \"#utility.yul\":430:431   */\n  0x00\n    /* \"#utility.yul\":423:454   */\n  mstore\n    /* \"#utility.yul\":477:481   */\n  0x22\n    /* \"#utility.yul\":474:475   */\n  0x04\n    /* \"#utility.yul\":467:482   */\n  mstore\n    /* \"#utility.yul\":505:509   */\n  0x24\n    /* \"#utility.yul\":502:503   */\n  0x00\n    /* \"#utility.yul\":495:510   */\n  revert\n    /* \"#utility.yul\":359:520   */\ntag_19:\n  pop\n    /* \"#utility.yul\":146:526   */\n  swap2\n  swap1\n  pop\n  jump\t// out\n    /* \"#utility.yul\":657:1202   */\ntag_13:\n    /* \"#utility.yul\":759:761   */\n  0x1f\n    /* \"#utility.yul\":754:757   */\n  dup3\n    /* \"#utility.yul\":751:762   */\n  gt\n    /* \"#utility.yul\":748:1196   */\n  iszero\n  tag_22\n  jumpi\n    /* \"#utility.yul\":795:796   */\n  0x00\n    /* \"#utility.yul\":820:825   */\n  dup2\n    /* \"#utility.yul\":816:818   */\n  dup2\n    /* \"#utility.yul\":809:826   */\n  mstore\n    /* \"#utility.yul\":865:869   */\n  0x20\n    /* \"#utility.yul\":861:863   */\n  dup2\n    /* \"#utility.yul\":851:870   */\n  keccak256\n    /* \"#utility.yul\":935:937   */\n  0x1f\n    /* \"#utility.yul\":923:933   */\n  dup6\n    /* \"#utility.yul\":919:938   */\n  add\n    /* \"#utility.yul\":916:917   */\n  0x05\n    /* \"#utility.yul\":912:939   */\n  shr\n    /* \"#utility.yul\":906:910   */\n  dup2\n    /* \"#utility.yul\":902:940   */\n  add\n    /* \"#utility.yul\":971:975   */\n  0x20\n    /* \"#utility.yul\":959:969   */\n  dup7\n    /* \"#utility.yul\":956:976   */\n  lt\n    /* \"#utility.yul\":953:1000   */\n  iszero\n  tag_23\n  jumpi\n  pop\n    /* \"#utility.yul\":994:998   */\n  dup1\n    /* \"#utility.yul\":953:1000   */\ntag_23:\n    /* \"#utility.yul\":1049:1051   */\n  0x1f\n    /* \"#utility.yul\":1044:1047   */\n  dup6\n    /* \"#utility.yul\":1040:1052   */\n  add\n    /* \"#utility.yul\":1037:1038   */\n  0x05\n    /* \"#utility.yul\":1033:1053   */\n  shr\n    /* \"#utility.yul\":1027:1031   */\n  dup3\n    /* \"#utility.yul\":1023:1054   */\n  add\n    /* \"#utility.yul\":1013:1054   */\n  swap2\n  pop\n    /* \"#utility.yul\":1104:1186   */\ntag_24:\n    /* \"#utility.yul\":1122:1124   */\n  dup2\n    /* \"#utility.yul\":1115:1120   */\n  dup2\n    /* \"#utility.yul\":1112:1125   */\n  lt\n    /* \"#utility.yul\":1104:1186   */\n  iszero\n  tag_26\n  jumpi\n    /* \"#utility.yul\":1167:1184   */\n  dup3\n  dup2\n  sstore\n    /* \"#utility.yul\":1148:1149   */\n  0x01\n    /* \"#utility.yul\":1137:1150   */\n  add\n    /* \"#utility.yul\":1104:1186   */\n  jump(tag_24)\ntag_26:\n    /* \"#utility.yul\":1108:1111   */\n  pop\n  pop\n  pop\n    /* \"#utility.yul\":748:1196   */\ntag_22:\n    /* \"#utility.yul\":657:1202   */\n  pop\n  pop\n  pop\n  jump\t// out\n    /* \"#utility.yul\":1378:2730   */\ntag_6:\n    /* \"#utility.yul\":1498:1508   */\n  dup2\n  mload\n  sub(shl(0x40, 0x01), 0x01)\n    /* \"#utility.yul\":1520:1550   */\n  dup2\n  gt\n    /* \"#utility.yul\":1517:1573   */\n  iszero\n  tag_30\n  jumpi\n    /* \"#utility.yul\":1553:1571   */\n  tag_30\n  tag_10\n  jump\t// in\ntag_30:\n    /* \"#utility.yul\":1582:1679   */\n  tag_31\n    /* \"#utility.yul\":1672:1678   */\n  dup2\n    /* \"#utility.yul\":1632:1670   */\n  tag_32\n    /* \"#utility.yul\":1664:1668   */\n  dup5\n    /* \"#utility.yul\":1658:1669   */\n  sload\n    /* \"#utility.yul\":1632:1670   */\n  tag_11\n  jump\t// in\ntag_32:\n    /* \"#utility.yul\":1626:1630   */\n  dup5\n    /* \"#utility.yul\":1582:1679   */\n  tag_13\n  jump\t// in\ntag_31:\n    /* \"#utility.yul\":1734:1738   */\n  0x20\n  dup1\n    /* \"#utility.yul\":1798:1800   */\n  0x1f\n    /* \"#utility.yul\":1787:1801   */\n  dup4\n  gt\n    /* \"#utility.yul\":1815:1816   */\n  0x01\n    /* \"#utility.yul\":1810:2473   */\n  dup2\n  eq\n  tag_34\n  jumpi\n    /* \"#utility.yul\":2517:2518   */\n  0x00\n    /* \"#utility.yul\":2534:2540   */\n  dup5\n    /* \"#utility.yul\":2531:2620   */\n  iszero\n  tag_35\n  jumpi\n  pop\n    /* \"#utility.yul\":2586:2605   */\n  dup6\n  dup4\n  add\n    /* \"#utility.yul\":2580:2606   */\n  mload\n    /* \"#utility.yul\":2531:2620   */\ntag_35:\n  not(0x00)\n    /* \"#utility.yul\":1335:1336   */\n  0x03\n    /* \"#utility.yul\":1331:1342   */\n  dup7\n  swap1\n  shl\n    /* \"#utility.yul\":1327:1351   */\n  shr\n    /* \"#utility.yul\":1323:1352   */\n  not\n    /* \"#utility.yul\":1313:1353   */\n  and\n    /* \"#utility.yul\":1359:1360   */\n  0x01\n    /* \"#utility.yul\":1355:1366   */\n  dup6\n  swap1\n  shl\n    /* \"#utility.yul\":1310:1367   */\n  or\n    /* \"#utility.yul\":2633:2714   */\n  dup6\n  sstore\n    /* \"#utility.yul\":1780:2724   */\n  jump(tag_26)\n    /* \"#utility.yul\":1810:2473   */\ntag_34:\n    /* \"#utility.yul\":604:605   */\n  0x00\n    /* \"#utility.yul\":597:611   */\n  dup6\n  dup2\n  mstore\n    /* \"#utility.yul\":641:645   */\n  0x20\n    /* \"#utility.yul\":628:646   */\n  dup2\n  keccak256\n  not(0x1f)\n    /* \"#utility.yul\":1846:1866   */\n  dup7\n  and\n  swap2\n    /* \"#utility.yul\":1964:2200   */\ntag_38:\n    /* \"#utility.yul\":1978:1985   */\n  dup3\n    /* \"#utility.yul\":1975:1976   */\n  dup2\n    /* \"#utility.yul\":1972:1986   */\n  lt\n    /* \"#utility.yul\":1964:2200   */\n  iszero\n  tag_40\n  jumpi\n    /* \"#utility.yul\":2067:2086   */\n  dup9\n  dup7\n  add\n    /* \"#utility.yul\":2061:2087   */\n  mload\n    /* \"#utility.yul\":2046:2088   */\n  dup3\n  sstore\n    /* \"#utility.yul\":2159:2186   */\n  swap5\n  dup5\n  add\n  swap5\n    /* \"#utility.yul\":2127:2128   */\n  0x01\n    /* \"#utility.yul\":2115:2129   */\n  swap1\n  swap2\n  add\n  swap1\n    /* \"#utility.yul\":1994:2013   */\n  dup5\n  add\n    /* \"#utility.yul\":1964:2200   */\n  jump(tag_38)\ntag_40:\n    /* \"#utility.yul\":1968:1971   */\n  pop\n    /* \"#utility.yul\":2228:2234   */\n  dup6\n    /* \"#utility.yul\":2219:2226   */\n  dup3\n    /* \"#utility.yul\":2216:2235   */\n  lt\n    /* \"#utility.yul\":2213:2414   */\n  iszero\n  tag_41\n  jumpi\n    /* \"#utility.yul\":2289:2308   */\n  dup8\n  dup6\n  add\n    /* \"#utility.yul\":2283:2309   */\n  mload\n  not(0x00)\n    /* \"#utility.yul\":2372:2373   */\n  0x03\n    /* \"#utility.yul\":2368:2382   */\n  dup9\n  swap1\n  shl\n    /* \"#utility.yul\":2384:2387   */\n  0xf8\n    /* \"#utility.yul\":2364:2388   */\n  and\n    /* \"#utility.yul\":2360:2397   */\n  shr\n    /* \"#utility.yul\":2356:2398   */\n  not\n    /* \"#utility.yul\":2341:2399   */\n  and\n    /* \"#utility.yul\":2326:2400   */\n  dup2\n  sstore\n    /* \"#utility.yul\":2213:2414   */\ntag_41:\n  pop\n  pop\n  pop\n  pop\n  pop\n    /* \"#utility.yul\":2460:2461   */\n  0x01\n    /* \"#utility.yul\":2444:2458   */\n  swap1\n  dup2\n  shl\n    /* \"#utility.yul\":2440:2462   */\n  add\n    /* \"#utility.yul\":2427:2463   */\n  swap1\n  sstore\n  pop\n    /* \"#utility.yul\":1378:2730   */\n  jump\t// out\ntag_15:\n    /* \"InheritanceDeed.sol\":277:4093  contract TitleDeed is ERC721URIStorage {... */\n  dataSize(sub_0)\n  dup1\n  dataOffset(sub_0)\n  0x00\n  codecopy\n  0x00\n  return\nstop\n\nsub_0: assembly {\n        /* \"InheritanceDeed.sol\":277:4093  contract TitleDeed is ERC721URIStorage {... */\n      mstore(0x40, 0x80)\n      callvalue\n      dup1\n      iszero\n      tag_1\n      jumpi\n      0x00\n      dup1\n      revert\n    tag_1:\n      pop\n      jumpi(tag_2, lt(calldatasize, 0x04))\n      shr(0xe0, calldataload(0x00))\n      dup1\n      0x695850fb\n      gt\n      tag_22\n      jumpi\n      dup1\n      0xa22cb465\n      gt\n      tag_23\n      jumpi\n      dup1\n      0xa22cb465\n      eq\n      tag_17\n      jumpi\n      dup1\n      0xb88d4fde\n      eq\n      tag_18\n      jumpi\n      dup1\n      0xc87b56dd\n      eq\n      tag_19\n      jumpi\n      dup1\n      0xce4a392f\n      eq\n      tag_20\n      jumpi\n      dup1\n      0xe985e9c5\n      eq\n      tag_21\n      jumpi\n      0x00\n      dup1\n      revert\n    tag_23:\n      dup1\n      0x695850fb\n      eq\n      tag_12\n      jumpi\n      dup1\n      0x70a08231\n      eq\n      tag_13\n      jumpi\n      dup1\n      0x83c4c00d\n      eq\n      tag_14\n      jumpi\n      dup1\n      0x86198cd5\n      eq\n      tag_15\n      jumpi\n      dup1\n      0x95d89b41\n      eq\n      tag_16\n      jumpi\n      0x00\n      dup1\n      revert\n    tag_22:\n      dup1\n      0x23b872dd\n      gt\n      tag_24\n      jumpi\n      dup1\n      0x23b872dd\n      eq\n      tag_7\n      jumpi\n      dup1\n      0x3d598291\n      eq\n      tag_8\n      jumpi\n      dup1\n      0x42842e0e\n      eq\n      tag_9\n      jumpi\n      dup1\n      0x5f2fedce\n      eq\n      tag_10\n      jumpi\n      dup1\n      0x6352211e\n      eq\n      tag_11\n      jumpi\n      0x00\n      dup1\n      revert\n    tag_24:\n      dup1\n      0x01ffc9a7\n      eq\n      tag_3\n      jumpi\n      dup1\n      0x06fdde03\n      eq\n      tag_4\n      jumpi\n      dup1\n      0x081812fc\n      eq\n      tag_5\n      jumpi\n      dup1\n      0x095ea7b3\n      eq\n      tag_6\n      jumpi\n    tag_2:\n      0x00\n      dup1\n      revert\n        /* \"@openzeppelin/contracts/token/ERC721/ERC721.sol\":1570:1870   */\n    tag_3:\n      tag_25\n      tag_26\n      calldatasize\n      0x04\n      tag_27\n      jump\t// in\n    tag_26:\n      tag_28\n      jump\t// in\n    tag_25:\n      mload(0x40)\n        /* \"#utility.yul\":565:579   */\n      swap1\n      iszero\n        /* \"#utility.yul\":558:580   */\n      iszero\n        /* \"#utility.yul\":540:581   */\n      dup2\n      mstore\n        /* \"#utility.yul\":528:530   */\n      0x20\n        /* \"#utility.yul\":513:531   */\n      add\n        /* \"@openzeppelin/contracts/token/ERC721/ERC721.sol\":1570:1870   */\n    tag_29:\n      mload(0x40)\n      dup1\n      swap2\n      sub\n      swap1\n      return\n        /* \"@openzeppelin/contracts/token/ERC721/ERC721.sol\":2471:2569   */\n    tag_4:\n      tag_31\n      tag_32\n      jump\t// in\n    tag_31:\n      mload(0x40)\n      tag_29\n      swap2\n      swap1\n      tag_34\n      jump\t// in\n        /* \"@openzeppelin/contracts/token/ERC721/ERC721.sol\":3935:4102   */\n    tag_5:\n      tag_35\n      tag_36\n      calldatasize\n      0x04\n      tag_37\n      jump\t// in\n    tag_36:\n      tag_38\n      jump\t// in\n    tag_35:\n      mload(0x40)\n      sub(shl(0xa0, 0x01), 0x01)\n        /* \"#utility.yul\":1697:1729   */\n      swap1\n      swap2\n      and\n        /* \"#utility.yul\":1679:1730   */\n      dup2\n      mstore\n        /* \"#utility.yul\":1667:1669   */\n      0x20\n        /* \"#utility.yul\":1652:1670   */\n      add\n        /* \"@openzeppelin/contracts/token/ERC721/ERC721.sol\":3935:4102   */\n      tag_29\n        /* \"#utility.yul\":1533:1736   */\n      jump\n        /* \"@openzeppelin/contracts/token/ERC721/ERC721.sol\":3468:3874   */\n    tag_6:\n      tag_41\n      tag_42\n      calldatasize\n      0x04\n      tag_43\n      jump\t// in\n    tag_42:\n      tag_44\n      jump\t// in\n    tag_41:\n      stop\n        /* \"@openzeppelin/contracts/token/ERC721/ERC721.sol\":4612:4938   */\n    tag_7:\n      tag_41\n      tag_46\n      calldatasize\n      0x04\n      tag_47\n      jump\t// in\n    tag_46:\n      tag_48\n      jump\t// in\n        /* \"InheritanceDeed.sol\":2418:3393  function getAdministratorNFTs() public view returns (DeedNFT[] memory) {... */\n    tag_8:\n      tag_49\n      tag_50\n      jump\t// in\n    tag_49:\n      mload(0x40)\n      tag_29\n      swap2\n      swap1\n      tag_52\n      jump\t// in\n        /* \"@openzeppelin/contracts/token/ERC721/ERC721.sol\":5004:5183   */\n    tag_9:\n      tag_41\n      tag_54\n      calldatasize\n      0x04\n      tag_47\n      jump\t// in\n    tag_54:\n      tag_55\n      jump\t// in\n        /* \"InheritanceDeed.sol\":2077:2302  function getElementByTokenId(uint256 tokenId) public view returns (DeedNFT memory) { //Remover o actualizar para msg.sender, este contrato deberia usarse por todos los Administrator.... */\n    tag_10:\n      tag_56\n      tag_57\n      calldatasize\n      0x04\n      tag_37\n      jump\t// in\n    tag_57:\n      0x40\n      dup1\n      mload\n      dup1\n      dup3\n      add\n      swap1\n      swap2\n      mstore\n      0x00\n      dup1\n      dup3\n      mstore\n      0x20\n      dup3\n      add\n      mstore\n      pop\n        /* \"InheritanceDeed.sol\":2275:2295  idToDeedNFT[tokenId] */\n      0x00\n      swap1\n      dup2\n      mstore\n        /* \"InheritanceDeed.sol\":2275:2286  idToDeedNFT */\n      0x08\n        /* \"InheritanceDeed.sol\":2275:2295  idToDeedNFT[tokenId] */\n      0x20\n      swap1\n      dup2\n      mstore\n      0x40\n      swap2\n      dup3\n      swap1\n      keccak256\n        /* \"InheritanceDeed.sol\":2268:2295  return idToDeedNFT[tokenId] */\n      dup3\n      mload\n      dup1\n      dup5\n      add\n      swap1\n      swap4\n      mstore\n      dup1\n      sload\n      dup4\n      mstore\n      0x01\n      add\n      sload\n      sub(shl(0xa0, 0x01), 0x01)\n      and\n      swap1\n      dup3\n      add\n      mstore\n      swap1\n        /* \"InheritanceDeed.sol\":2077:2302  function getElementByTokenId(uint256 tokenId) public view returns (DeedNFT memory) { //Remover o actualizar para msg.sender, este contrato deberia usarse por todos los Administrator.... */\n      jump\n    tag_56:\n      mload(0x40)\n      tag_29\n      swap2\n      swap1\n      tag_60\n      jump\t// in\n        /* \"@openzeppelin/contracts/token/ERC721/ERC721.sol\":2190:2409   */\n    tag_11:\n      tag_35\n      tag_62\n      calldatasize\n      0x04\n      tag_37\n      jump\t// in\n    tag_62:\n      tag_63\n      jump\t// in\n        /* \"InheritanceDeed.sol\":924:1649  function safeMint(string memory tokenURI) public returns (uint256) {... */\n    tag_12:\n      tag_65\n      tag_66\n      calldatasize\n      0x04\n      tag_67\n      jump\t// in\n    tag_66:\n      tag_68\n      jump\t// in\n    tag_65:\n      mload(0x40)\n        /* \"#utility.yul\":5241:5266   */\n      swap1\n      dup2\n      mstore\n        /* \"#utility.yul\":5229:5231   */\n      0x20\n        /* \"#utility.yul\":5214:5232   */\n      add\n        /* \"InheritanceDeed.sol\":924:1649  function safeMint(string memory tokenURI) public returns (uint256) {... */\n      tag_29\n        /* \"#utility.yul\":5095:5272   */\n      jump\n        /* \"@openzeppelin/contracts/token/ERC721/ERC721.sol\":1929:2133   */\n    tag_13:\n      tag_65\n      tag_72\n      calldatasize\n      0x04\n      tag_73\n      jump\t// in\n    tag_72:\n      tag_74\n      jump\t// in\n        /* \"InheritanceDeed.sol\":2308:2412  function getLastTokenId() public view returns (uint256) {... */\n    tag_14:\n      tag_65\n      tag_77\n      jump\t// in\n        /* \"InheritanceDeed.sol\":3427:4090  function executeInheritance(address contractAddress) public {... */\n    tag_15:\n      tag_41\n      tag_80\n      calldatasize\n      0x04\n      tag_73\n      jump\t// in\n    tag_80:\n      tag_81\n      jump\t// in\n        /* \"@openzeppelin/contracts/token/ERC721/ERC721.sol\":2633:2735   */\n    tag_16:\n      tag_31\n      tag_83\n      jump\t// in\n        /* \"@openzeppelin/contracts/token/ERC721/ERC721.sol\":4169:4322   */\n    tag_17:\n      tag_41\n      tag_86\n      calldatasize\n      0x04\n      tag_87\n      jump\t// in\n    tag_86:\n      tag_88\n      jump\t// in\n        /* \"@openzeppelin/contracts/token/ERC721/ERC721.sol\":5249:5563   */\n    tag_18:\n      tag_41\n      tag_90\n      calldatasize\n      0x04\n      tag_91\n      jump\t// in\n    tag_90:\n      tag_92\n      jump\t// in\n        /* \"@openzeppelin/contracts/token/ERC721/extensions/ERC721URIStorage.sol\":482:1090   */\n    tag_19:\n      tag_31\n      tag_94\n      calldatasize\n      0x04\n      tag_37\n      jump\t// in\n    tag_94:\n      tag_95\n      jump\t// in\n        /* \"InheritanceDeed.sol\":1800:2071  function getLastElement() public view returns (DeedNFT memory) { //Remover o actualizar para msg.sender, este contrato deberia usarse por todos los Administrator.... */\n    tag_20:\n      tag_56\n      tag_98\n      jump\t// in\n        /* \"@openzeppelin/contracts/token/ERC721/ERC721.sol\":4388:4550   */\n    tag_21:\n      tag_25\n      tag_101\n      calldatasize\n      0x04\n      tag_102\n      jump\t// in\n    tag_101:\n      tag_103\n      jump\t// in\n        /* \"@openzeppelin/contracts/token/ERC721/ERC721.sol\":1570:1870   */\n    tag_28:\n        /* \"@openzeppelin/contracts/token/ERC721/ERC721.sol\":1672:1676   */\n      0x00\n      not(sub(shl(0xe0, 0x01), 0x01))\n        /* \"@openzeppelin/contracts/token/ERC721/ERC721.sol\":1707:1747   */\n      dup3\n      and\n      shl(0xe0, 0x80ac58cd)\n      eq\n      dup1\n        /* \"@openzeppelin/contracts/token/ERC721/ERC721.sol\":1707:1811   */\n      tag_106\n      jumpi\n      pop\n      not(sub(shl(0xe0, 0x01), 0x01))\n        /* \"@openzeppelin/contracts/token/ERC721/ERC721.sol\":1763:1811   */\n      dup3\n      and\n      shl(0xe0, 0x5b5e139f)\n      eq\n        /* \"@openzeppelin/contracts/token/ERC721/ERC721.sol\":1707:1811   */\n    tag_106:\n        /* \"@openzeppelin/contracts/token/ERC721/ERC721.sol\":1707:1863   */\n      dup1\n      tag_108\n      jumpi\n      pop\n      shl(0xe0, 0x01ffc9a7)\n      not(sub(shl(0xe0, 0x01), 0x01))\n        /* \"@openzeppelin/contracts/utils/introspection/ERC165.sol\":937:977   */\n      dup4\n      and\n      eq\n        /* \"@openzeppelin/contracts/token/ERC721/ERC721.sol\":1827:1863   */\n    tag_108:\n        /* \"@openzeppelin/contracts/token/ERC721/ERC721.sol\":1688:1863   */\n      swap3\n        /* \"@openzeppelin/contracts/token/ERC721/ERC721.sol\":1570:1870   */\n      swap2\n      pop\n      pop\n      jump\t// out\n        /* \"@openzeppelin/contracts/token/ERC721/ERC721.sol\":2471:2569   */\n    tag_32:\n        /* \"@openzeppelin/contracts/token/ERC721/ERC721.sol\":2525:2538   */\n      0x60\n        /* \"@openzeppelin/contracts/token/ERC721/ERC721.sol\":2557:2562   */\n      0x00\n        /* \"@openzeppelin/contracts/token/ERC721/ERC721.sol\":2550:2562   */\n      dup1\n      sload\n      tag_111\n      swap1\n      tag_112\n      jump\t// in\n    tag_111:\n      dup1\n      0x1f\n      add\n      0x20\n      dup1\n      swap2\n      div\n      mul\n      0x20\n      add\n      mload(0x40)\n      swap1\n      dup2\n      add\n      0x40\n      mstore\n      dup1\n      swap3\n      swap2\n      swap1\n      dup2\n      dup2\n      mstore\n      0x20\n      add\n      dup3\n      dup1\n      sload\n      tag_113\n      swap1\n      tag_112\n      jump\t// in\n    tag_113:\n      dup1\n      iszero\n      tag_114\n      jumpi\n      dup1\n      0x1f\n      lt\n      tag_115\n      jumpi\n      0x0100\n      dup1\n      dup4\n      sload\n      div\n      mul\n      dup4\n      mstore\n      swap2\n      0x20\n      add\n      swap2\n      jump(tag_114)\n    tag_115:\n      dup3\n      add\n      swap2\n      swap1\n      0x00\n      mstore\n      keccak256(0x00, 0x20)\n      swap1\n    tag_116:\n      dup2\n      sload\n      dup2\n      mstore\n      swap1\n      0x01\n      add\n      swap1\n      0x20\n      add\n      dup1\n      dup4\n      gt\n      tag_116\n      jumpi\n      dup3\n      swap1\n      sub\n      0x1f\n      and\n      dup3\n      add\n      swap2\n    tag_114:\n      pop\n      pop\n      pop\n      pop\n      pop\n      swap1\n      pop\n        /* \"@openzeppelin/contracts/token/ERC721/ERC721.sol\":2471:2569   */\n      swap1\n      jump\t// out\n        /* \"@openzeppelin/contracts/token/ERC721/ERC721.sol\":3935:4102   */\n    tag_38:\n        /* \"@openzeppelin/contracts/token/ERC721/ERC721.sol\":4011:4018   */\n      0x00\n        /* \"@openzeppelin/contracts/token/ERC721/ERC721.sol\":4030:4053   */\n      tag_118\n        /* \"@openzeppelin/contracts/token/ERC721/ERC721.sol\":4045:4052   */\n      dup3\n        /* \"@openzeppelin/contracts/token/ERC721/ERC721.sol\":4030:4044   */\n      tag_119\n        /* \"@openzeppelin/contracts/token/ERC721/ERC721.sol\":4030:4053   */\n      jump\t// in\n    tag_118:\n      pop\n        /* \"@openzeppelin/contracts/token/ERC721/ERC721.sol\":4071:4095   */\n      0x00\n      swap1\n      dup2\n      mstore\n        /* \"@openzeppelin/contracts/token/ERC721/ERC721.sol\":4071:4086   */\n      0x04\n        /* \"@openzeppelin/contracts/token/ERC721/ERC721.sol\":4071:4095   */\n      0x20\n      mstore\n      0x40\n      swap1\n      keccak256\n      sload\n      sub(shl(0xa0, 0x01), 0x01)\n      and\n      swap1\n        /* \"@openzeppelin/contracts/token/ERC721/ERC721.sol\":3935:4102   */\n      jump\t// out\n        /* \"@openzeppelin/contracts/token/ERC721/ERC721.sol\":3468:3874   */\n    tag_44:\n        /* \"@openzeppelin/contracts/token/ERC721/ERC721.sol\":3548:3561   */\n      0x00\n        /* \"@openzeppelin/contracts/token/ERC721/ERC721.sol\":3564:3587   */\n      tag_121\n        /* \"@openzeppelin/contracts/token/ERC721/ERC721.sol\":3579:3586   */\n      dup3\n        /* \"@openzeppelin/contracts/token/ERC721/ERC721.sol\":3564:3578   */\n      tag_63\n        /* \"@openzeppelin/contracts/token/ERC721/ERC721.sol\":3564:3587   */\n      jump\t// in\n    tag_121:\n        /* \"@openzeppelin/contracts/token/ERC721/ERC721.sol\":3548:3587   */\n      swap1\n      pop\n        /* \"@openzeppelin/contracts/token/ERC721/ERC721.sol\":3611:3616   */\n      dup1\n      sub(shl(0xa0, 0x01), 0x01)\n        /* \"@openzeppelin/contracts/token/ERC721/ERC721.sol\":3605:3616   */\n      and\n        /* \"@openzeppelin/contracts/token/ERC721/ERC721.sol\":3605:3607   */\n      dup4\n      sub(shl(0xa0, 0x01), 0x01)\n        /* \"@openzeppelin/contracts/token/ERC721/ERC721.sol\":3605:3616   */\n      and\n      sub\n        /* \"@openzeppelin/contracts/token/ERC721/ERC721.sol\":3597:3654   */\n      tag_122\n      jumpi\n      mload(0x40)\n      shl(0xe5, 0x461bcd)\n      dup2\n      mstore\n        /* \"#utility.yul\":7819:7821   */\n      0x20\n        /* \"@openzeppelin/contracts/token/ERC721/ERC721.sol\":3597:3654   */\n      0x04\n      dup3\n      add\n        /* \"#utility.yul\":7801:7822   */\n      mstore\n        /* \"#utility.yul\":7858:7860   */\n      0x21\n        /* \"#utility.yul\":7838:7856   */\n      0x24\n      dup3\n      add\n        /* \"#utility.yul\":7831:7861   */\n      mstore\n        /* \"#utility.yul\":7897:7931   */\n      0x4552433732313a20617070726f76616c20746f2063757272656e74206f776e65\n        /* \"#utility.yul\":7877:7895   */\n      0x44\n      dup3\n      add\n        /* \"#utility.yul\":7870:7932   */\n      mstore\n      shl(0xf9, 0x39)\n        /* \"#utility.yul\":7948:7966   */\n      0x64\n      dup3\n      add\n        /* \"#utility.yul\":7941:7972   */\n      mstore\n        /* \"#utility.yul\":7989:8008   */\n      0x84\n      add\n        /* \"@openzeppelin/contracts/token/ERC721/ERC721.sol\":3597:3654   */\n    tag_123:\n      mload(0x40)\n      dup1\n      swap2\n      sub\n      swap1\n      revert\n    tag_122:\n        /* \"@openzeppelin/contracts/utils/Context.sol\":719:729   */\n      caller\n      sub(shl(0xa0, 0x01), 0x01)\n        /* \"@openzeppelin/contracts/token/ERC721/ERC721.sol\":3686:3707   */\n      dup3\n      and\n      eq\n      dup1\n        /* \"@openzeppelin/contracts/token/ERC721/ERC721.sol\":3686:3748   */\n      tag_128\n      jumpi\n      pop\n        /* \"@openzeppelin/contracts/token/ERC721/ERC721.sol\":3711:3748   */\n      tag_128\n        /* \"@openzeppelin/contracts/token/ERC721/ERC721.sol\":3728:3733   */\n      dup2\n        /* \"@openzeppelin/contracts/utils/Context.sol\":719:729   */\n      caller\n        /* \"@openzeppelin/contracts/token/ERC721/ERC721.sol\":4388:4550   */\n      tag_103\n      jump\t// in\n        /* \"@openzeppelin/contracts/token/ERC721/ERC721.sol\":3711:3748   */\n    tag_128:\n        /* \"@openzeppelin/contracts/token/ERC721/ERC721.sol\":3665:3835   */\n      tag_130\n      jumpi\n      mload(0x40)\n      shl(0xe5, 0x461bcd)\n      dup2\n      mstore\n        /* \"#utility.yul\":8221:8223   */\n      0x20\n        /* \"@openzeppelin/contracts/token/ERC721/ERC721.sol\":3665:3835   */\n      0x04\n      dup3\n      add\n        /* \"#utility.yul\":8203:8224   */\n      mstore\n        /* \"#utility.yul\":8260:8262   */\n      0x3d\n        /* \"#utility.yul\":8240:8258   */\n      0x24\n      dup3\n      add\n        /* \"#utility.yul\":8233:8263   */\n      mstore\n        /* \"#utility.yul\":8299:8333   */\n      0x4552433732313a20617070726f76652063616c6c6572206973206e6f7420746f\n        /* \"#utility.yul\":8279:8297   */\n      0x44\n      dup3\n      add\n        /* \"#utility.yul\":8272:8334   */\n      mstore\n        /* \"#utility.yul\":8370:8401   */\n      0x6b656e206f776e6572206f7220617070726f76656420666f7220616c6c000000\n        /* \"#utility.yul\":8350:8368   */\n      0x64\n      dup3\n      add\n        /* \"#utility.yul\":8343:8402   */\n      mstore\n        /* \"#utility.yul\":8419:8438   */\n      0x84\n      add\n        /* \"@openzeppelin/contracts/token/ERC721/ERC721.sol\":3665:3835   */\n      tag_123\n        /* \"#utility.yul\":8019:8444   */\n      jump\n        /* \"@openzeppelin/contracts/token/ERC721/ERC721.sol\":3665:3835   */\n    tag_130:\n        /* \"@openzeppelin/contracts/token/ERC721/ERC721.sol\":3846:3867   */\n      tag_133\n        /* \"@openzeppelin/contracts/token/ERC721/ERC721.sol\":3855:3857   */\n      dup4\n        /* \"@openzeppelin/contracts/token/ERC721/ERC721.sol\":3859:3866   */\n      dup4\n        /* \"@openzeppelin/contracts/token/ERC721/ERC721.sol\":3846:3854   */\n      tag_134\n        /* \"@openzeppelin/contracts/token/ERC721/ERC721.sol\":3846:3867   */\n      jump\t// in\n    tag_133:\n        /* \"@openzeppelin/contracts/token/ERC721/ERC721.sol\":3538:3874   */\n      pop\n        /* \"@openzeppelin/contracts/token/ERC721/ERC721.sol\":3468:3874   */\n      pop\n      pop\n      jump\t// out\n        /* \"@openzeppelin/contracts/token/ERC721/ERC721.sol\":4612:4938   */\n    tag_48:\n        /* \"@openzeppelin/contracts/token/ERC721/ERC721.sol\":4801:4842   */\n      tag_136\n        /* \"@openzeppelin/contracts/utils/Context.sol\":719:729   */\n      caller\n        /* \"@openzeppelin/contracts/token/ERC721/ERC721.sol\":4834:4841   */\n      dup3\n        /* \"@openzeppelin/contracts/token/ERC721/ERC721.sol\":4801:4819   */\n      tag_138\n        /* \"@openzeppelin/contracts/token/ERC721/ERC721.sol\":4801:4842   */\n      jump\t// in\n    tag_136:\n        /* \"@openzeppelin/contracts/token/ERC721/ERC721.sol\":4793:4892   */\n      tag_139\n      jumpi\n      mload(0x40)\n      shl(0xe5, 0x461bcd)\n      dup2\n      mstore\n      0x04\n      add\n      tag_123\n      swap1\n      tag_141\n      jump\t// in\n    tag_139:\n        /* \"@openzeppelin/contracts/token/ERC721/ERC721.sol\":4903:4931   */\n      tag_133\n        /* \"@openzeppelin/contracts/token/ERC721/ERC721.sol\":4913:4917   */\n      dup4\n        /* \"@openzeppelin/contracts/token/ERC721/ERC721.sol\":4919:4921   */\n      dup4\n        /* \"@openzeppelin/contracts/token/ERC721/ERC721.sol\":4923:4930   */\n      dup4\n        /* \"@openzeppelin/contracts/token/ERC721/ERC721.sol\":4903:4912   */\n      tag_143\n        /* \"@openzeppelin/contracts/token/ERC721/ERC721.sol\":4903:4931   */\n      jump\t// in\n        /* \"InheritanceDeed.sol\":2418:3393  function getAdministratorNFTs() public view returns (DeedNFT[] memory) {... */\n    tag_50:\n        /* \"InheritanceDeed.sol\":2471:2487  DeedNFT[] memory */\n      0x60\n        /* \"InheritanceDeed.sol\":2499:2519  uint256 tokensAmount */\n      0x00\n        /* \"InheritanceDeed.sol\":2522:2546  tokenIdCounter.current() */\n      tag_145\n        /* \"InheritanceDeed.sol\":2522:2536  tokenIdCounter */\n      0x07\n        /* \"@openzeppelin/contracts/utils/Counters.sol\":918:932   */\n      sload\n      swap1\n        /* \"@openzeppelin/contracts/utils/Counters.sol\":827:939   */\n      jump\n        /* \"InheritanceDeed.sol\":2522:2546  tokenIdCounter.current() */\n    tag_145:\n        /* \"InheritanceDeed.sol\":2499:2546  uint256 tokensAmount = tokenIdCounter.current() */\n      swap1\n      pop\n        /* \"InheritanceDeed.sol\":2556:2573  uint256 itemCount */\n      0x00\n        /* \"InheritanceDeed.sol\":2587:2607  uint256 currentIndex */\n      dup1\n        /* \"InheritanceDeed.sol\":2694:2703  uint256 i */\n      0x00\n        /* \"InheritanceDeed.sol\":2690:2852  for(uint256 i = 0; i < tokensAmount; i++) {... */\n    tag_147:\n        /* \"InheritanceDeed.sol\":2713:2725  tokensAmount */\n      dup4\n        /* \"InheritanceDeed.sol\":2709:2710  i */\n      dup2\n        /* \"InheritanceDeed.sol\":2709:2725  i < tokensAmount */\n      lt\n        /* \"InheritanceDeed.sol\":2690:2852  for(uint256 i = 0; i < tokensAmount; i++) {... */\n      iszero\n      tag_148\n      jumpi\n        /* \"InheritanceDeed.sol\":2783:2793  msg.sender */\n      caller\n        /* \"InheritanceDeed.sol\":2749:2760  idToDeedNFT */\n      0x08\n        /* \"InheritanceDeed.sol\":2749:2765  idToDeedNFT[i+1] */\n      0x00\n        /* \"InheritanceDeed.sol\":2761:2764  i+1 */\n      tag_150\n        /* \"InheritanceDeed.sol\":2761:2762  i */\n      dup5\n        /* \"InheritanceDeed.sol\":2763:2764  1 */\n      0x01\n        /* \"InheritanceDeed.sol\":2761:2764  i+1 */\n      tag_151\n      jump\t// in\n    tag_150:\n        /* \"InheritanceDeed.sol\":2749:2765  idToDeedNFT[i+1] */\n      dup2\n      mstore\n      0x20\n      dup2\n      add\n      swap2\n      swap1\n      swap2\n      mstore\n      0x40\n      add\n      0x00\n      keccak256\n        /* \"InheritanceDeed.sol\":2749:2779  idToDeedNFT[i+1].administrator */\n      0x01\n      add\n      sload\n      sub(shl(0xa0, 0x01), 0x01)\n      and\n        /* \"InheritanceDeed.sol\":2749:2793  idToDeedNFT[i+1].administrator == msg.sender */\n      sub\n        /* \"InheritanceDeed.sol\":2746:2842  if(idToDeedNFT[i+1].administrator == msg.sender) {... */\n      tag_152\n      jumpi\n        /* \"InheritanceDeed.sol\":2813:2827  itemCount += 1 */\n      tag_153\n        /* \"InheritanceDeed.sol\":2826:2827  1 */\n      0x01\n        /* \"InheritanceDeed.sol\":2813:2827  itemCount += 1 */\n      dup5\n      tag_151\n      jump\t// in\n    tag_153:\n      swap3\n      pop\n        /* \"InheritanceDeed.sol\":2746:2842  if(idToDeedNFT[i+1].administrator == msg.sender) {... */\n    tag_152:\n        /* \"InheritanceDeed.sol\":2727:2730  i++ */\n      dup1\n      tag_154\n      dup2\n      tag_155\n      jump\t// in\n    tag_154:\n      swap2\n      pop\n      pop\n        /* \"InheritanceDeed.sol\":2690:2852  for(uint256 i = 0; i < tokensAmount; i++) {... */\n      jump(tag_147)\n    tag_148:\n      pop\n        /* \"InheritanceDeed.sol\":2862:2884  DeedNFT[] memory deeds */\n      0x00\n        /* \"InheritanceDeed.sol\":2901:2910  itemCount */\n      dup3\n        /* \"InheritanceDeed.sol\":2887:2911  new DeedNFT[](itemCount) */\n      0xffffffffffffffff\n      dup2\n      gt\n      iszero\n      tag_157\n      jumpi\n      tag_157\n      tag_158\n      jump\t// in\n    tag_157:\n      mload(0x40)\n      swap1\n      dup1\n      dup3\n      mstore\n      dup1\n      0x20\n      mul\n      0x20\n      add\n      dup3\n      add\n      0x40\n      mstore\n      dup1\n      iszero\n      tag_159\n      jumpi\n      dup2\n      0x20\n      add\n    tag_160:\n      0x40\n      dup1\n      mload\n      dup1\n      dup3\n      add\n      swap1\n      swap2\n      mstore\n      0x00\n      dup1\n      dup3\n      mstore\n      0x20\n      dup3\n      add\n      mstore\n      dup2\n      mstore\n      0x20\n      add\n      swap1\n      0x01\n      swap1\n      sub\n      swap1\n      dup2\n      tag_160\n      jumpi\n      swap1\n      pop\n    tag_159:\n      pop\n        /* \"InheritanceDeed.sol\":2862:2911  DeedNFT[] memory deeds = new DeedNFT[](itemCount) */\n      swap1\n      pop\n        /* \"InheritanceDeed.sol\":3041:3050  uint256 i */\n      0x00\n        /* \"InheritanceDeed.sol\":3037:3364  for(uint256 i = 0; i < tokensAmount; i++) {... */\n    tag_163:\n        /* \"InheritanceDeed.sol\":3060:3072  tokensAmount */\n      dup5\n        /* \"InheritanceDeed.sol\":3056:3057  i */\n      dup2\n        /* \"InheritanceDeed.sol\":3056:3072  i < tokensAmount */\n      lt\n        /* \"InheritanceDeed.sol\":3037:3364  for(uint256 i = 0; i < tokensAmount; i++) {... */\n      iszero\n      tag_164\n      jumpi\n        /* \"InheritanceDeed.sol\":3130:3140  msg.sender */\n      caller\n        /* \"InheritanceDeed.sol\":3096:3107  idToDeedNFT */\n      0x08\n        /* \"InheritanceDeed.sol\":3096:3112  idToDeedNFT[i+1] */\n      0x00\n        /* \"InheritanceDeed.sol\":3108:3111  i+1 */\n      tag_166\n        /* \"InheritanceDeed.sol\":3108:3109  i */\n      dup5\n        /* \"InheritanceDeed.sol\":3110:3111  1 */\n      0x01\n        /* \"InheritanceDeed.sol\":3108:3111  i+1 */\n      tag_151\n      jump\t// in\n    tag_166:\n        /* \"InheritanceDeed.sol\":3096:3112  idToDeedNFT[i+1] */\n      dup2\n      mstore\n      0x20\n      dup2\n      add\n      swap2\n      swap1\n      swap2\n      mstore\n      0x40\n      add\n      0x00\n      keccak256\n        /* \"InheritanceDeed.sol\":3096:3126  idToDeedNFT[i+1].administrator */\n      0x01\n      add\n      sload\n      sub(shl(0xa0, 0x01), 0x01)\n      and\n        /* \"InheritanceDeed.sol\":3096:3140  idToDeedNFT[i+1].administrator == msg.sender */\n      sub\n        /* \"InheritanceDeed.sol\":3093:3354  if(idToDeedNFT[i+1].administrator == msg.sender) {... */\n      tag_167\n      jumpi\n        /* \"InheritanceDeed.sol\":3160:3177  uint256 currentId */\n      0x00\n        /* \"InheritanceDeed.sol\":3180:3183  i+1 */\n      tag_168\n        /* \"InheritanceDeed.sol\":3180:3181  i */\n      dup3\n        /* \"InheritanceDeed.sol\":3182:3183  1 */\n      0x01\n        /* \"InheritanceDeed.sol\":3180:3183  i+1 */\n      tag_151\n      jump\t// in\n    tag_168:\n        /* \"InheritanceDeed.sol\":3201:3228  DeedNFT storage currentItem */\n      0x00\n        /* \"InheritanceDeed.sol\":3231:3253  idToDeedNFT[currentId] */\n      dup2\n      dup2\n      mstore\n        /* \"InheritanceDeed.sol\":3231:3242  idToDeedNFT */\n      0x08\n        /* \"InheritanceDeed.sol\":3231:3253  idToDeedNFT[currentId] */\n      0x20\n      swap1\n      dup2\n      mstore\n      0x40\n      swap2\n      dup3\n      swap1\n      keccak256\n        /* \"InheritanceDeed.sol\":3271:3304  deeds[currentIndex] = currentItem */\n      dup3\n      mload\n      dup1\n      dup5\n      add\n      swap1\n      swap4\n      mstore\n      dup1\n      sload\n      dup4\n      mstore\n      0x01\n      dup2\n      add\n      sload\n      sub(shl(0xa0, 0x01), 0x01)\n      and\n      swap2\n      dup4\n      add\n      swap2\n      swap1\n      swap2\n      mstore\n        /* \"InheritanceDeed.sol\":3271:3290  deeds[currentIndex] */\n      dup6\n      mload\n        /* \"InheritanceDeed.sol\":3160:3183  uint256 currentId = i+1 */\n      swap3\n      swap4\n      pop\n        /* \"InheritanceDeed.sol\":3231:3253  idToDeedNFT[currentId] */\n      swap2\n        /* \"InheritanceDeed.sol\":3271:3276  deeds */\n      dup6\n      swap1\n        /* \"InheritanceDeed.sol\":3277:3289  currentIndex */\n      dup8\n      swap1\n        /* \"InheritanceDeed.sol\":3271:3290  deeds[currentIndex] */\n      dup2\n      lt\n      tag_170\n      jumpi\n      tag_170\n      tag_171\n      jump\t// in\n    tag_170:\n      0x20\n      swap1\n      dup2\n      mul\n      swap2\n      swap1\n      swap2\n      add\n      add\n        /* \"InheritanceDeed.sol\":3271:3304  deeds[currentIndex] = currentItem */\n      mstore\n        /* \"InheritanceDeed.sol\":3322:3339  currentIndex += 1 */\n      tag_172\n        /* \"InheritanceDeed.sol\":3338:3339  1 */\n      0x01\n        /* \"InheritanceDeed.sol\":3322:3339  currentIndex += 1 */\n      dup7\n      tag_151\n      jump\t// in\n    tag_172:\n      swap5\n      pop\n        /* \"InheritanceDeed.sol\":3142:3354  {... */\n      pop\n      pop\n        /* \"InheritanceDeed.sol\":3093:3354  if(idToDeedNFT[i+1].administrator == msg.sender) {... */\n    tag_167:\n        /* \"InheritanceDeed.sol\":3074:3077  i++ */\n      dup1\n      tag_173\n      dup2\n      tag_155\n      jump\t// in\n    tag_173:\n      swap2\n      pop\n      pop\n        /* \"InheritanceDeed.sol\":3037:3364  for(uint256 i = 0; i < tokensAmount; i++) {... */\n      jump(tag_163)\n    tag_164:\n      pop\n        /* \"InheritanceDeed.sol\":3381:3386  deeds */\n      swap5\n        /* \"InheritanceDeed.sol\":2418:3393  function getAdministratorNFTs() public view returns (DeedNFT[] memory) {... */\n      swap4\n      pop\n      pop\n      pop\n      pop\n      jump\t// out\n        /* \"@openzeppelin/contracts/token/ERC721/ERC721.sol\":5004:5183   */\n    tag_55:\n        /* \"@openzeppelin/contracts/token/ERC721/ERC721.sol\":5137:5176   */\n      tag_133\n        /* \"@openzeppelin/contracts/token/ERC721/ERC721.sol\":5154:5158   */\n      dup4\n        /* \"@openzeppelin/contracts/token/ERC721/ERC721.sol\":5160:5162   */\n      dup4\n        /* \"@openzeppelin/contracts/token/ERC721/ERC721.sol\":5164:5171   */\n      dup4\n        /* \"@openzeppelin/contracts/token/ERC721/ERC721.sol\":5137:5176   */\n      mload(0x40)\n      dup1\n      0x20\n      add\n      0x40\n      mstore\n      dup1\n      0x00\n      dup2\n      mstore\n      pop\n        /* \"@openzeppelin/contracts/token/ERC721/ERC721.sol\":5137:5153   */\n      tag_92\n        /* \"@openzeppelin/contracts/token/ERC721/ERC721.sol\":5137:5176   */\n      jump\t// in\n        /* \"@openzeppelin/contracts/token/ERC721/ERC721.sol\":2190:2409   */\n    tag_63:\n        /* \"@openzeppelin/contracts/token/ERC721/ERC721.sol\":2262:2269   */\n      0x00\n        /* \"@openzeppelin/contracts/token/ERC721/ERC721.sol\":6930:6946   */\n      dup2\n      dup2\n      mstore\n        /* \"@openzeppelin/contracts/token/ERC721/ERC721.sol\":6930:6937   */\n      0x02\n        /* \"@openzeppelin/contracts/token/ERC721/ERC721.sol\":6930:6946   */\n      0x20\n      mstore\n      0x40\n      dup2\n      keccak256\n      sload\n      sub(shl(0xa0, 0x01), 0x01)\n      and\n      dup1\n        /* \"@openzeppelin/contracts/token/ERC721/ERC721.sol\":2324:2380   */\n      tag_108\n      jumpi\n      mload(0x40)\n      shl(0xe5, 0x461bcd)\n      dup2\n      mstore\n        /* \"#utility.yul\":9599:9601   */\n      0x20\n        /* \"@openzeppelin/contracts/token/ERC721/ERC721.sol\":2324:2380   */\n      0x04\n      dup3\n      add\n        /* \"#utility.yul\":9581:9602   */\n      mstore\n        /* \"#utility.yul\":9638:9640   */\n      0x18\n        /* \"#utility.yul\":9618:9636   */\n      0x24\n      dup3\n      add\n        /* \"#utility.yul\":9611:9641   */\n      mstore\n      shl(0x42, 0x115490cdcc8c4e881a5b9d985b1a59081d1bdad95b881251)\n        /* \"#utility.yul\":9657:9675   */\n      0x44\n      dup3\n      add\n        /* \"#utility.yul\":9650:9704   */\n      mstore\n        /* \"#utility.yul\":9721:9739   */\n      0x64\n      add\n        /* \"@openzeppelin/contracts/token/ERC721/ERC721.sol\":2324:2380   */\n      tag_123\n        /* \"#utility.yul\":9397:9745   */\n      jump\n        /* \"InheritanceDeed.sol\":924:1649  function safeMint(string memory tokenURI) public returns (uint256) {... */\n    tag_68:\n        /* \"InheritanceDeed.sol\":982:989  uint256 */\n      0x00\n        /* \"InheritanceDeed.sol\":1001:1027  tokenIdCounter.increment() */\n      tag_185\n        /* \"InheritanceDeed.sol\":1001:1015  tokenIdCounter */\n      0x07\n        /* \"@openzeppelin/contracts/utils/Counters.sol\":1032:1051   */\n      dup1\n      sload\n        /* \"@openzeppelin/contracts/utils/Counters.sol\":1050:1051   */\n      0x01\n        /* \"@openzeppelin/contracts/utils/Counters.sol\":1032:1051   */\n      add\n      swap1\n      sstore\n        /* \"@openzeppelin/contracts/utils/Counters.sol\":945:1068   */\n      jump\n        /* \"InheritanceDeed.sol\":1001:1027  tokenIdCounter.increment() */\n    tag_185:\n        /* \"InheritanceDeed.sol\":1079:1094  uint256 tokenId */\n      0x00\n        /* \"InheritanceDeed.sol\":1097:1121  tokenIdCounter.current() */\n      tag_187\n        /* \"InheritanceDeed.sol\":1097:1111  tokenIdCounter */\n      0x07\n        /* \"@openzeppelin/contracts/utils/Counters.sol\":918:932   */\n      sload\n      swap1\n        /* \"@openzeppelin/contracts/utils/Counters.sol\":827:939   */\n      jump\n        /* \"InheritanceDeed.sol\":1097:1121  tokenIdCounter.current() */\n    tag_187:\n        /* \"InheritanceDeed.sol\":1079:1121  uint256 tokenId = tokenIdCounter.current() */\n      swap1\n      pop\n        /* \"InheritanceDeed.sol\":1132:1162  _safeMint(msg.sender, tokenId) */\n      tag_188\n        /* \"InheritanceDeed.sol\":1142:1152  msg.sender */\n      caller\n        /* \"InheritanceDeed.sol\":1154:1161  tokenId */\n      dup3\n        /* \"InheritanceDeed.sol\":1132:1141  _safeMint */\n      tag_189\n        /* \"InheritanceDeed.sol\":1132:1162  _safeMint(msg.sender, tokenId) */\n      jump\t// in\n    tag_188:\n        /* \"InheritanceDeed.sol\":1172:1203  _setTokenURI(tokenId, tokenURI) */\n      tag_190\n        /* \"InheritanceDeed.sol\":1185:1192  tokenId */\n      dup2\n        /* \"InheritanceDeed.sol\":1194:1202  tokenURI */\n      dup5\n        /* \"InheritanceDeed.sol\":1172:1184  _setTokenURI */\n      tag_191\n        /* \"InheritanceDeed.sol\":1172:1203  _setTokenURI(tokenId, tokenURI) */\n      jump\t// in\n    tag_190:\n        /* \"InheritanceDeed.sol\":1740:1768  DeedNFT(tokenId, msg.sender) */\n      0x40\n      dup1\n      mload\n      dup1\n      dup3\n      add\n      dup3\n      mstore\n      dup3\n      dup2\n      mstore\n        /* \"InheritanceDeed.sol\":1757:1767  msg.sender */\n      caller\n        /* \"InheritanceDeed.sol\":1740:1768  DeedNFT(tokenId, msg.sender) */\n      0x20\n      dup1\n      dup4\n      add\n      swap2\n      dup3\n      mstore\n      0x00\n        /* \"InheritanceDeed.sol\":1717:1737  idToDeedNFT[tokenId] */\n      dup6\n      dup2\n      mstore\n        /* \"InheritanceDeed.sol\":1717:1728  idToDeedNFT */\n      0x08\n        /* \"InheritanceDeed.sol\":1717:1737  idToDeedNFT[tokenId] */\n      swap1\n      swap2\n      mstore\n      swap3\n      swap1\n      swap3\n      keccak256\n        /* \"InheritanceDeed.sol\":1717:1768  idToDeedNFT[tokenId] = DeedNFT(tokenId, msg.sender) */\n      swap1\n      mload\n      dup2\n      sstore\n      swap1\n      mload\n      0x01\n      swap1\n      swap2\n      add\n      dup1\n      sload\n      not(sub(shl(0xa0, 0x01), 0x01))\n      and\n      sub(shl(0xa0, 0x01), 0x01)\n      swap1\n      swap3\n      and\n      swap2\n      swap1\n      swap2\n      or\n      swap1\n      sstore\n        /* \"InheritanceDeed.sol\":1571:1616  _transfer(msg.sender, address(this), tokenId) */\n      tag_108\n        /* \"InheritanceDeed.sol\":1581:1591  msg.sender */\n      caller\n        /* \"InheritanceDeed.sol\":1601:1605  this */\n      address\n        /* \"InheritanceDeed.sol\":1608:1615  tokenId */\n      dup4\n        /* \"InheritanceDeed.sol\":1571:1580  _transfer */\n      tag_143\n        /* \"InheritanceDeed.sol\":1571:1616  _transfer(msg.sender, address(this), tokenId) */\n      jump\t// in\n        /* \"@openzeppelin/contracts/token/ERC721/ERC721.sol\":1929:2133   */\n    tag_74:\n        /* \"@openzeppelin/contracts/token/ERC721/ERC721.sol\":2001:2008   */\n      0x00\n      sub(shl(0xa0, 0x01), 0x01)\n        /* \"@openzeppelin/contracts/token/ERC721/ERC721.sol\":2028:2047   */\n      dup3\n      and\n        /* \"@openzeppelin/contracts/token/ERC721/ERC721.sol\":2020:2093   */\n      tag_196\n      jumpi\n      mload(0x40)\n      shl(0xe5, 0x461bcd)\n      dup2\n      mstore\n        /* \"#utility.yul\":9952:9954   */\n      0x20\n        /* \"@openzeppelin/contracts/token/ERC721/ERC721.sol\":2020:2093   */\n      0x04\n      dup3\n      add\n        /* \"#utility.yul\":9934:9955   */\n      mstore\n        /* \"#utility.yul\":9991:9993   */\n      0x29\n        /* \"#utility.yul\":9971:9989   */\n      0x24\n      dup3\n      add\n        /* \"#utility.yul\":9964:9994   */\n      mstore\n        /* \"#utility.yul\":10030:10064   */\n      0x4552433732313a2061646472657373207a65726f206973206e6f742061207661\n        /* \"#utility.yul\":10010:10028   */\n      0x44\n      dup3\n      add\n        /* \"#utility.yul\":10003:10065   */\n      mstore\n      shl(0xb9, 0x3634b21037bbb732b9)\n        /* \"#utility.yul\":10081:10099   */\n      0x64\n      dup3\n      add\n        /* \"#utility.yul\":10074:10113   */\n      mstore\n        /* \"#utility.yul\":10130:10149   */\n      0x84\n      add\n        /* \"@openzeppelin/contracts/token/ERC721/ERC721.sol\":2020:2093   */\n      tag_123\n        /* \"#utility.yul\":9750:10155   */\n      jump\n        /* \"@openzeppelin/contracts/token/ERC721/ERC721.sol\":2020:2093   */\n    tag_196:\n      pop\n      sub(shl(0xa0, 0x01), 0x01)\n        /* \"@openzeppelin/contracts/token/ERC721/ERC721.sol\":2110:2126   */\n      and\n      0x00\n      swap1\n      dup2\n      mstore\n        /* \"@openzeppelin/contracts/token/ERC721/ERC721.sol\":2110:2119   */\n      0x03\n        /* \"@openzeppelin/contracts/token/ERC721/ERC721.sol\":2110:2126   */\n      0x20\n      mstore\n      0x40\n      swap1\n      keccak256\n      sload\n      swap1\n        /* \"@openzeppelin/contracts/token/ERC721/ERC721.sol\":1929:2133   */\n      jump\t// out\n        /* \"InheritanceDeed.sol\":2308:2412  function getLastTokenId() public view returns (uint256) {... */\n    tag_77:\n        /* \"InheritanceDeed.sol\":2355:2362  uint256 */\n      0x00\n        /* \"InheritanceDeed.sol\":2381:2405  tokenIdCounter.current() */\n      tag_200\n        /* \"InheritanceDeed.sol\":2381:2395  tokenIdCounter */\n      0x07\n        /* \"@openzeppelin/contracts/utils/Counters.sol\":918:932   */\n      sload\n      swap1\n        /* \"@openzeppelin/contracts/utils/Counters.sol\":827:939   */\n      jump\n        /* \"InheritanceDeed.sol\":2381:2405  tokenIdCounter.current() */\n    tag_200:\n        /* \"InheritanceDeed.sol\":2374:2405  return tokenIdCounter.current() */\n      swap1\n      pop\n        /* \"InheritanceDeed.sol\":2308:2412  function getLastTokenId() public view returns (uint256) {... */\n      swap1\n      jump\t// out\n        /* \"InheritanceDeed.sol\":3427:4090  function executeInheritance(address contractAddress) public {... */\n    tag_81:\n        /* \"InheritanceDeed.sol\":3497:3528  Inheritance inheritanceContract */\n      0x00\n        /* \"InheritanceDeed.sol\":3543:3558  contractAddress */\n      dup2\n        /* \"InheritanceDeed.sol\":3497:3559  Inheritance inheritanceContract = Inheritance(contractAddress) */\n      swap1\n      pop\n        /* \"InheritanceDeed.sol\":3577:3596  inheritanceContract */\n      dup1\n      sub(shl(0xa0, 0x01), 0x01)\n        /* \"InheritanceDeed.sol\":3577:3616  inheritanceContract.isAdministratorDead */\n      and\n      0x051ea68f\n        /* \"InheritanceDeed.sol\":3577:3618  inheritanceContract.isAdministratorDead() */\n      mload(0x40)\n      dup2\n      0xffffffff\n      and\n      0xe0\n      shl\n      dup2\n      mstore\n      0x04\n      add\n      0x20\n      mload(0x40)\n      dup1\n      dup4\n      sub\n      dup2\n      dup7\n      gas\n      staticcall\n      iszero\n      dup1\n      iszero\n      tag_203\n      jumpi\n      returndatasize\n      0x00\n      dup1\n      returndatacopy\n      revert(0x00, returndatasize)\n    tag_203:\n      pop\n      pop\n      pop\n      pop\n      mload(0x40)\n      returndatasize\n      not(0x1f)\n      0x1f\n      dup3\n      add\n      and\n      dup3\n      add\n      dup1\n      0x40\n      mstore\n      pop\n      dup2\n      add\n      swap1\n      tag_204\n      swap2\n      swap1\n      tag_205\n      jump\t// in\n    tag_204:\n        /* \"InheritanceDeed.sol\":3569:3672  require(inheritanceContract.isAdministratorDead(), \"Owner still alive, you can't redeem the NFTs yet.\") */\n      tag_206\n      jumpi\n      mload(0x40)\n      shl(0xe5, 0x461bcd)\n      dup2\n      mstore\n        /* \"#utility.yul\":10612:10614   */\n      0x20\n        /* \"InheritanceDeed.sol\":3569:3672  require(inheritanceContract.isAdministratorDead(), \"Owner still alive, you can't redeem the NFTs yet.\") */\n      0x04\n      dup3\n      add\n        /* \"#utility.yul\":10594:10615   */\n      mstore\n        /* \"#utility.yul\":10651:10653   */\n      0x31\n        /* \"#utility.yul\":10631:10649   */\n      0x24\n      dup3\n      add\n        /* \"#utility.yul\":10624:10654   */\n      mstore\n        /* \"#utility.yul\":10690:10724   */\n      0x4f776e6572207374696c6c20616c6976652c20796f752063616e277420726564\n        /* \"#utility.yul\":10670:10688   */\n      0x44\n      dup3\n      add\n        /* \"#utility.yul\":10663:10725   */\n      mstore\n      shl(0x79, 0x32b2b6903a34329027232a39903cb2ba17)\n        /* \"#utility.yul\":10741:10759   */\n      0x64\n      dup3\n      add\n        /* \"#utility.yul\":10734:10781   */\n      mstore\n        /* \"#utility.yul\":10798:10817   */\n      0x84\n      add\n        /* \"InheritanceDeed.sol\":3569:3672  require(inheritanceContract.isAdministratorDead(), \"Owner still alive, you can't redeem the NFTs yet.\") */\n      tag_123\n        /* \"#utility.yul\":10410:10823   */\n      jump\n        /* \"InheritanceDeed.sol\":3569:3672  require(inheritanceContract.isAdministratorDead(), \"Owner still alive, you can't redeem the NFTs yet.\") */\n    tag_206:\n        /* \"InheritanceDeed.sol\":3683:3713  address[] memory heirAddresses */\n      0x00\n        /* \"InheritanceDeed.sol\":3716:3735  inheritanceContract */\n      dup2\n      sub(shl(0xa0, 0x01), 0x01)\n        /* \"InheritanceDeed.sol\":3716:3753  inheritanceContract.getHeirsAddresses */\n      and\n      0xffc15b7c\n        /* \"InheritanceDeed.sol\":3716:3755  inheritanceContract.getHeirsAddresses() */\n      mload(0x40)\n      dup2\n      0xffffffff\n      and\n      0xe0\n      shl\n      dup2\n      mstore\n      0x04\n      add\n      0x00\n      mload(0x40)\n      dup1\n      dup4\n      sub\n      dup2\n      dup7\n      gas\n      staticcall\n      iszero\n      dup1\n      iszero\n      tag_210\n      jumpi\n      returndatasize\n      0x00\n      dup1\n      returndatacopy\n      revert(0x00, returndatasize)\n    tag_210:\n      pop\n      pop\n      pop\n      pop\n      mload(0x40)\n      returndatasize\n      0x00\n      dup3\n      returndatacopy\n      0x1f\n      returndatasize\n      swap1\n      dup2\n      add\n      not(0x1f)\n      and\n      dup3\n      add\n      0x40\n      mstore\n      tag_211\n      swap2\n      swap1\n      dup2\n      add\n      swap1\n      tag_212\n      jump\t// in\n    tag_211:\n        /* \"InheritanceDeed.sol\":3683:3755  address[] memory heirAddresses = inheritanceContract.getHeirsAddresses() */\n      swap1\n      pop\n        /* \"InheritanceDeed.sol\":3770:3779  uint256 i */\n      0x00\n        /* \"InheritanceDeed.sol\":3766:4084  for(uint256 i = 0; i < heirAddresses.length; i++) {... */\n    tag_213:\n        /* \"InheritanceDeed.sol\":3789:3802  heirAddresses */\n      dup2\n        /* \"InheritanceDeed.sol\":3789:3809  heirAddresses.length */\n      mload\n        /* \"InheritanceDeed.sol\":3785:3786  i */\n      dup2\n        /* \"InheritanceDeed.sol\":3785:3809  i < heirAddresses.length */\n      lt\n        /* \"InheritanceDeed.sol\":3766:4084  for(uint256 i = 0; i < heirAddresses.length; i++) {... */\n      iszero\n      tag_214\n      jumpi\n        /* \"InheritanceDeed.sol\":3830:3857  uint256[] memory nftDeedIds */\n      0x00\n        /* \"InheritanceDeed.sol\":3860:3879  inheritanceContract */\n      dup4\n      sub(shl(0xa0, 0x01), 0x01)\n        /* \"InheritanceDeed.sol\":3860:3904  inheritanceContract.getNFTDeedsByHeirAddress */\n      and\n      0x35d6f873\n        /* \"InheritanceDeed.sol\":3905:3918  heirAddresses */\n      dup5\n        /* \"InheritanceDeed.sol\":3919:3920  i */\n      dup5\n        /* \"InheritanceDeed.sol\":3905:3921  heirAddresses[i] */\n      dup2\n      mload\n      dup2\n      lt\n      tag_217\n      jumpi\n      tag_217\n      tag_171\n      jump\t// in\n    tag_217:\n      0x20\n      mul\n      0x20\n      add\n      add\n      mload\n        /* \"InheritanceDeed.sol\":3860:3922  inheritanceContract.getNFTDeedsByHeirAddress(heirAddresses[i]) */\n      mload(0x40)\n      dup3\n      0xffffffff\n      and\n      0xe0\n      shl\n      dup2\n      mstore\n      0x04\n      add\n      tag_218\n      swap2\n      swap1\n      sub(shl(0xa0, 0x01), 0x01)\n        /* \"#utility.yul\":1697:1729   */\n      swap2\n      swap1\n      swap2\n      and\n        /* \"#utility.yul\":1679:1730   */\n      dup2\n      mstore\n        /* \"#utility.yul\":1667:1669   */\n      0x20\n        /* \"#utility.yul\":1652:1670   */\n      add\n      swap1\n        /* \"#utility.yul\":1533:1736   */\n      jump\n        /* \"InheritanceDeed.sol\":3860:3922  inheritanceContract.getNFTDeedsByHeirAddress(heirAddresses[i]) */\n    tag_218:\n      0x00\n      mload(0x40)\n      dup1\n      dup4\n      sub\n      dup2\n      dup7\n      gas\n      staticcall\n      iszero\n      dup1\n      iszero\n      tag_220\n      jumpi\n      returndatasize\n      0x00\n      dup1\n      returndatacopy\n      revert(0x00, returndatasize)\n    tag_220:\n      pop\n      pop\n      pop\n      pop\n      mload(0x40)\n      returndatasize\n      0x00\n      dup3\n      returndatacopy\n      0x1f\n      returndatasize\n      swap1\n      dup2\n      add\n      not(0x1f)\n      and\n      dup3\n      add\n      0x40\n      mstore\n      tag_221\n      swap2\n      swap1\n      dup2\n      add\n      swap1\n      tag_222\n      jump\t// in\n    tag_221:\n        /* \"InheritanceDeed.sol\":3830:3922  uint256[] memory nftDeedIds = inheritanceContract.getNFTDeedsByHeirAddress(heirAddresses[i]) */\n      swap1\n      pop\n        /* \"InheritanceDeed.sol\":3941:3950  uint256 x */\n      0x00\n        /* \"InheritanceDeed.sol\":3937:4074  for(uint256 x = 0; x < nftDeedIds.length; x++) {... */\n    tag_223:\n        /* \"InheritanceDeed.sol\":3960:3970  nftDeedIds */\n      dup2\n        /* \"InheritanceDeed.sol\":3960:3977  nftDeedIds.length */\n      mload\n        /* \"InheritanceDeed.sol\":3956:3957  x */\n      dup2\n        /* \"InheritanceDeed.sol\":3956:3977  x < nftDeedIds.length */\n      lt\n        /* \"InheritanceDeed.sol\":3937:4074  for(uint256 x = 0; x < nftDeedIds.length; x++) {... */\n      iszero\n      tag_224\n      jumpi\n        /* \"InheritanceDeed.sol\":4002:4059  _transfer(address(this), heirAddresses[i], nftDeedIds[x]) */\n      tag_226\n        /* \"InheritanceDeed.sol\":4020:4024  this */\n      address\n        /* \"InheritanceDeed.sol\":4027:4040  heirAddresses */\n      dup6\n        /* \"InheritanceDeed.sol\":4041:4042  i */\n      dup6\n        /* \"InheritanceDeed.sol\":4027:4043  heirAddresses[i] */\n      dup2\n      mload\n      dup2\n      lt\n      tag_228\n      jumpi\n      tag_228\n      tag_171\n      jump\t// in\n    tag_228:\n      0x20\n      mul\n      0x20\n      add\n      add\n      mload\n        /* \"InheritanceDeed.sol\":4045:4055  nftDeedIds */\n      dup5\n        /* \"InheritanceDeed.sol\":4056:4057  x */\n      dup5\n        /* \"InheritanceDeed.sol\":4045:4058  nftDeedIds[x] */\n      dup2\n      mload\n      dup2\n      lt\n      tag_230\n      jumpi\n      tag_230\n      tag_171\n      jump\t// in\n    tag_230:\n      0x20\n      mul\n      0x20\n      add\n      add\n      mload\n        /* \"InheritanceDeed.sol\":4002:4011  _transfer */\n      tag_143\n        /* \"InheritanceDeed.sol\":4002:4059  _transfer(address(this), heirAddresses[i], nftDeedIds[x]) */\n      jump\t// in\n    tag_226:\n        /* \"InheritanceDeed.sol\":3979:3982  x++ */\n      dup1\n      tag_231\n      dup2\n      tag_155\n      jump\t// in\n    tag_231:\n      swap2\n      pop\n      pop\n        /* \"InheritanceDeed.sol\":3937:4074  for(uint256 x = 0; x < nftDeedIds.length; x++) {... */\n      jump(tag_223)\n    tag_224:\n      pop\n        /* \"InheritanceDeed.sol\":3816:4084  {... */\n      pop\n        /* \"InheritanceDeed.sol\":3811:3814  i++ */\n      dup1\n      dup1\n      tag_232\n      swap1\n      tag_155\n      jump\t// in\n    tag_232:\n      swap2\n      pop\n      pop\n        /* \"InheritanceDeed.sol\":3766:4084  for(uint256 i = 0; i < heirAddresses.length; i++) {... */\n      jump(tag_213)\n    tag_214:\n      pop\n        /* \"InheritanceDeed.sol\":3487:4090  {... */\n      pop\n      pop\n        /* \"InheritanceDeed.sol\":3427:4090  function executeInheritance(address contractAddress) public {... */\n      pop\n      jump\t// out\n        /* \"@openzeppelin/contracts/token/ERC721/ERC721.sol\":2633:2735   */\n    tag_83:\n        /* \"@openzeppelin/contracts/token/ERC721/ERC721.sol\":2689:2702   */\n      0x60\n        /* \"@openzeppelin/contracts/token/ERC721/ERC721.sol\":2721:2728   */\n      0x01\n        /* \"@openzeppelin/contracts/token/ERC721/ERC721.sol\":2714:2728   */\n      dup1\n      sload\n      tag_111\n      swap1\n      tag_112\n      jump\t// in\n        /* \"@openzeppelin/contracts/token/ERC721/ERC721.sol\":4169:4322   */\n    tag_88:\n        /* \"@openzeppelin/contracts/token/ERC721/ERC721.sol\":4263:4315   */\n      tag_240\n        /* \"@openzeppelin/contracts/utils/Context.sol\":719:729   */\n      caller\n        /* \"@openzeppelin/contracts/token/ERC721/ERC721.sol\":4296:4304   */\n      dup4\n        /* \"@openzeppelin/contracts/token/ERC721/ERC721.sol\":4306:4314   */\n      dup4\n        /* \"@openzeppelin/contracts/token/ERC721/ERC721.sol\":4263:4281   */\n      tag_242\n        /* \"@openzeppelin/contracts/token/ERC721/ERC721.sol\":4263:4315   */\n      jump\t// in\n    tag_240:\n        /* \"@openzeppelin/contracts/token/ERC721/ERC721.sol\":4169:4322   */\n      pop\n      pop\n      jump\t// out\n        /* \"@openzeppelin/contracts/token/ERC721/ERC721.sol\":5249:5563   */\n    tag_92:\n        /* \"@openzeppelin/contracts/token/ERC721/ERC721.sol\":5417:5458   */\n      tag_244\n        /* \"@openzeppelin/contracts/utils/Context.sol\":719:729   */\n      caller\n        /* \"@openzeppelin/contracts/token/ERC721/ERC721.sol\":5450:5457   */\n      dup4\n        /* \"@openzeppelin/contracts/token/ERC721/ERC721.sol\":5417:5435   */\n      tag_138\n        /* \"@openzeppelin/contracts/token/ERC721/ERC721.sol\":5417:5458   */\n      jump\t// in\n    tag_244:\n        /* \"@openzeppelin/contracts/token/ERC721/ERC721.sol\":5409:5508   */\n      tag_246\n      jumpi\n      mload(0x40)\n      shl(0xe5, 0x461bcd)\n      dup2\n      mstore\n      0x04\n      add\n      tag_123\n      swap1\n      tag_141\n      jump\t// in\n    tag_246:\n        /* \"@openzeppelin/contracts/token/ERC721/ERC721.sol\":5518:5556   */\n      tag_214\n        /* \"@openzeppelin/contracts/token/ERC721/ERC721.sol\":5532:5536   */\n      dup5\n        /* \"@openzeppelin/contracts/token/ERC721/ERC721.sol\":5538:5540   */\n      dup5\n        /* \"@openzeppelin/contracts/token/ERC721/ERC721.sol\":5542:5549   */\n      dup5\n        /* \"@openzeppelin/contracts/token/ERC721/ERC721.sol\":5551:5555   */\n      dup5\n        /* \"@openzeppelin/contracts/token/ERC721/ERC721.sol\":5518:5531   */\n      tag_249\n        /* \"@openzeppelin/contracts/token/ERC721/ERC721.sol\":5518:5556   */\n      jump\t// in\n        /* \"@openzeppelin/contracts/token/ERC721/extensions/ERC721URIStorage.sol\":482:1090   */\n    tag_95:\n        /* \"@openzeppelin/contracts/token/ERC721/extensions/ERC721URIStorage.sol\":555:568   */\n      0x60\n        /* \"@openzeppelin/contracts/token/ERC721/extensions/ERC721URIStorage.sol\":580:603   */\n      tag_251\n        /* \"@openzeppelin/contracts/token/ERC721/extensions/ERC721URIStorage.sol\":595:602   */\n      dup3\n        /* \"@openzeppelin/contracts/token/ERC721/extensions/ERC721URIStorage.sol\":580:594   */\n      tag_119\n        /* \"@openzeppelin/contracts/token/ERC721/extensions/ERC721URIStorage.sol\":580:603   */\n      jump\t// in\n    tag_251:\n        /* \"@openzeppelin/contracts/token/ERC721/extensions/ERC721URIStorage.sol\":614:637   */\n      0x00\n        /* \"@openzeppelin/contracts/token/ERC721/extensions/ERC721URIStorage.sol\":640:659   */\n      dup3\n      dup2\n      mstore\n        /* \"@openzeppelin/contracts/token/ERC721/extensions/ERC721URIStorage.sol\":640:650   */\n      0x06\n        /* \"@openzeppelin/contracts/token/ERC721/extensions/ERC721URIStorage.sol\":640:659   */\n      0x20\n      mstore\n      0x40\n      dup2\n      keccak256\n        /* \"@openzeppelin/contracts/token/ERC721/extensions/ERC721URIStorage.sol\":614:659   */\n      dup1\n      sload\n      tag_252\n      swap1\n      tag_112\n      jump\t// in\n    tag_252:\n      dup1\n      0x1f\n      add\n      0x20\n      dup1\n      swap2\n      div\n      mul\n      0x20\n      add\n      mload(0x40)\n      swap1\n      dup2\n      add\n      0x40\n      mstore\n      dup1\n      swap3\n      swap2\n      swap1\n      dup2\n      dup2\n      mstore\n      0x20\n      add\n      dup3\n      dup1\n      sload\n      tag_253\n      swap1\n      tag_112\n      jump\t// in\n    tag_253:\n      dup1\n      iszero\n      tag_254\n      jumpi\n      dup1\n      0x1f\n      lt\n      tag_255\n      jumpi\n      0x0100\n      dup1\n      dup4\n      sload\n      div\n      mul\n      dup4\n      mstore\n      swap2\n      0x20\n      add\n      swap2\n      jump(tag_254)\n    tag_255:\n      dup3\n      add\n      swap2\n      swap1\n      0x00\n      mstore\n      keccak256(0x00, 0x20)\n      swap1\n    tag_256:\n      dup2\n      sload\n      dup2\n      mstore\n      swap1\n      0x01\n      add\n      swap1\n      0x20\n      add\n      dup1\n      dup4\n      gt\n      tag_256\n      jumpi\n      dup3\n      swap1\n      sub\n      0x1f\n      and\n      dup3\n      add\n      swap2\n    tag_254:\n      pop\n      pop\n      pop\n      pop\n      pop\n      swap1\n      pop\n        /* \"@openzeppelin/contracts/token/ERC721/extensions/ERC721URIStorage.sol\":669:687   */\n      0x00\n        /* \"@openzeppelin/contracts/token/ERC721/extensions/ERC721URIStorage.sol\":690:700   */\n      tag_257\n        /* \"@openzeppelin/contracts/token/ERC721/ERC721.sol\":3395:3404   */\n      0x40\n      dup1\n      mload\n      0x20\n      dup2\n      add\n      swap1\n      swap2\n      mstore\n      0x00\n      dup2\n      mstore\n      swap1\n        /* \"@openzeppelin/contracts/token/ERC721/ERC721.sol\":3319:3411   */\n      jump\n        /* \"@openzeppelin/contracts/token/ERC721/extensions/ERC721URIStorage.sol\":690:700   */\n    tag_257:\n        /* \"@openzeppelin/contracts/token/ERC721/extensions/ERC721URIStorage.sol\":669:700   */\n      swap1\n      pop\n        /* \"@openzeppelin/contracts/token/ERC721/extensions/ERC721URIStorage.sol\":779:783   */\n      dup1\n        /* \"@openzeppelin/contracts/token/ERC721/extensions/ERC721URIStorage.sol\":773:791   */\n      mload\n        /* \"@openzeppelin/contracts/token/ERC721/extensions/ERC721URIStorage.sol\":795:796   */\n      0x00\n        /* \"@openzeppelin/contracts/token/ERC721/extensions/ERC721URIStorage.sol\":773:796   */\n      sub\n        /* \"@openzeppelin/contracts/token/ERC721/extensions/ERC721URIStorage.sol\":769:839   */\n      tag_259\n      jumpi\n      pop\n        /* \"@openzeppelin/contracts/token/ERC721/extensions/ERC721URIStorage.sol\":819:828   */\n      swap3\n        /* \"@openzeppelin/contracts/token/ERC721/extensions/ERC721URIStorage.sol\":482:1090   */\n      swap2\n      pop\n      pop\n      jump\t// out\n        /* \"@openzeppelin/contracts/token/ERC721/extensions/ERC721URIStorage.sol\":769:839   */\n    tag_259:\n        /* \"@openzeppelin/contracts/token/ERC721/extensions/ERC721URIStorage.sol\":941:964   */\n      dup2\n      mload\n        /* \"@openzeppelin/contracts/token/ERC721/extensions/ERC721URIStorage.sol\":941:968   */\n      iszero\n        /* \"@openzeppelin/contracts/token/ERC721/extensions/ERC721URIStorage.sol\":937:1043   */\n      tag_260\n      jumpi\n        /* \"@openzeppelin/contracts/token/ERC721/extensions/ERC721URIStorage.sol\":1015:1019   */\n      dup1\n        /* \"@openzeppelin/contracts/token/ERC721/extensions/ERC721URIStorage.sol\":1021:1030   */\n      dup3\n        /* \"@openzeppelin/contracts/token/ERC721/extensions/ERC721URIStorage.sol\":998:1031   */\n      add(0x20, mload(0x40))\n      tag_261\n      swap3\n      swap2\n      swap1\n      tag_262\n      jump\t// in\n    tag_261:\n      mload(0x40)\n      0x20\n      dup2\n      dup4\n      sub\n      sub\n      dup2\n      mstore\n      swap1\n      0x40\n      mstore\n        /* \"@openzeppelin/contracts/token/ERC721/extensions/ERC721URIStorage.sol\":984:1032   */\n      swap3\n      pop\n      pop\n      pop\n        /* \"@openzeppelin/contracts/token/ERC721/extensions/ERC721URIStorage.sol\":482:1090   */\n      swap2\n      swap1\n      pop\n      jump\t// out\n        /* \"@openzeppelin/contracts/token/ERC721/extensions/ERC721URIStorage.sol\":937:1043   */\n    tag_260:\n        /* \"@openzeppelin/contracts/token/ERC721/extensions/ERC721URIStorage.sol\":1060:1083   */\n      tag_263\n        /* \"@openzeppelin/contracts/token/ERC721/extensions/ERC721URIStorage.sol\":1075:1082   */\n      dup5\n        /* \"@openzeppelin/contracts/token/ERC721/extensions/ERC721URIStorage.sol\":1060:1074   */\n      tag_264\n        /* \"@openzeppelin/contracts/token/ERC721/extensions/ERC721URIStorage.sol\":1060:1083   */\n      jump\t// in\n    tag_263:\n        /* \"@openzeppelin/contracts/token/ERC721/extensions/ERC721URIStorage.sol\":1053:1083   */\n      swap5\n        /* \"@openzeppelin/contracts/token/ERC721/extensions/ERC721URIStorage.sol\":482:1090   */\n      swap4\n      pop\n      pop\n      pop\n      pop\n      jump\t// out\n        /* \"InheritanceDeed.sol\":1800:2071  function getLastElement() public view returns (DeedNFT memory) { //Remover o actualizar para msg.sender, este contrato deberia usarse por todos los Administrator.... */\n    tag_98:\n      0x40\n      dup1\n      mload\n      dup1\n      dup3\n      add\n      swap1\n      swap2\n      mstore\n      0x00\n      dup1\n      dup3\n      mstore\n      0x20\n      dup3\n      add\n      mstore\n        /* \"InheritanceDeed.sol\":1971:1993  uint256 currentTokenId */\n      0x00\n        /* \"InheritanceDeed.sol\":1996:2020  tokenIdCounter.current() */\n      tag_267\n        /* \"InheritanceDeed.sol\":1996:2010  tokenIdCounter */\n      0x07\n        /* \"@openzeppelin/contracts/utils/Counters.sol\":918:932   */\n      sload\n      swap1\n        /* \"@openzeppelin/contracts/utils/Counters.sol\":827:939   */\n      jump\n        /* \"InheritanceDeed.sol\":1996:2020  tokenIdCounter.current() */\n    tag_267:\n        /* \"InheritanceDeed.sol\":2037:2064  idToDeedNFT[currentTokenId] */\n      0x00\n      swap1\n      dup2\n      mstore\n        /* \"InheritanceDeed.sol\":2037:2048  idToDeedNFT */\n      0x08\n        /* \"InheritanceDeed.sol\":2037:2064  idToDeedNFT[currentTokenId] */\n      0x20\n      swap1\n      dup2\n      mstore\n      0x40\n      swap2\n      dup3\n      swap1\n      keccak256\n        /* \"InheritanceDeed.sol\":2030:2064  return idToDeedNFT[currentTokenId] */\n      dup3\n      mload\n      dup1\n      dup5\n      add\n      swap1\n      swap4\n      mstore\n      dup1\n      sload\n      dup4\n      mstore\n      0x01\n      add\n      sload\n      sub(shl(0xa0, 0x01), 0x01)\n      and\n      swap1\n      dup3\n      add\n      mstore\n      swap3\n        /* \"InheritanceDeed.sol\":1800:2071  function getLastElement() public view returns (DeedNFT memory) { //Remover o actualizar para msg.sender, este contrato deberia usarse por todos los Administrator.... */\n      swap2\n      pop\n      pop\n      jump\t// out\n        /* \"@openzeppelin/contracts/token/ERC721/ERC721.sol\":4388:4550   */\n    tag_103:\n      sub(shl(0xa0, 0x01), 0x01)\n        /* \"@openzeppelin/contracts/token/ERC721/ERC721.sol\":4508:4533   */\n      swap2\n      dup3\n      and\n        /* \"@openzeppelin/contracts/token/ERC721/ERC721.sol\":4485:4489   */\n      0x00\n        /* \"@openzeppelin/contracts/token/ERC721/ERC721.sol\":4508:4533   */\n      swap1\n      dup2\n      mstore\n        /* \"@openzeppelin/contracts/token/ERC721/ERC721.sol\":4508:4526   */\n      0x05\n        /* \"@openzeppelin/contracts/token/ERC721/ERC721.sol\":4508:4533   */\n      0x20\n      swap1\n      dup2\n      mstore\n      0x40\n      dup1\n      dup4\n      keccak256\n        /* \"@openzeppelin/contracts/token/ERC721/ERC721.sol\":4508:4543   */\n      swap4\n      swap1\n      swap5\n      and\n      dup3\n      mstore\n      swap2\n      swap1\n      swap2\n      mstore\n      keccak256\n      sload\n      0xff\n      and\n      swap1\n        /* \"@openzeppelin/contracts/token/ERC721/ERC721.sol\":4388:4550   */\n      jump\t// out\n        /* \"@openzeppelin/contracts/token/ERC721/ERC721.sol\":13466:13599   */\n    tag_119:\n        /* \"@openzeppelin/contracts/token/ERC721/ERC721.sol\":7321:7325   */\n      0x00\n        /* \"@openzeppelin/contracts/token/ERC721/ERC721.sol\":6930:6946   */\n      dup2\n      dup2\n      mstore\n        /* \"@openzeppelin/contracts/token/ERC721/ERC721.sol\":6930:6937   */\n      0x02\n        /* \"@openzeppelin/contracts/token/ERC721/ERC721.sol\":6930:6946   */\n      0x20\n      mstore\n      0x40\n      swap1\n      keccak256\n      sload\n      sub(shl(0xa0, 0x01), 0x01)\n      and\n        /* \"@openzeppelin/contracts/token/ERC721/ERC721.sol\":13539:13592   */\n      tag_273\n      jumpi\n      mload(0x40)\n      shl(0xe5, 0x461bcd)\n      dup2\n      mstore\n        /* \"#utility.yul\":9599:9601   */\n      0x20\n        /* \"@openzeppelin/contracts/token/ERC721/ERC721.sol\":13539:13592   */\n      0x04\n      dup3\n      add\n        /* \"#utility.yul\":9581:9602   */\n      mstore\n        /* \"#utility.yul\":9638:9640   */\n      0x18\n        /* \"#utility.yul\":9618:9636   */\n      0x24\n      dup3\n      add\n        /* \"#utility.yul\":9611:9641   */\n      mstore\n      shl(0x42, 0x115490cdcc8c4e881a5b9d985b1a59081d1bdad95b881251)\n        /* \"#utility.yul\":9657:9675   */\n      0x44\n      dup3\n      add\n        /* \"#utility.yul\":9650:9704   */\n      mstore\n        /* \"#utility.yul\":9721:9739   */\n      0x64\n      add\n        /* \"@openzeppelin/contracts/token/ERC721/ERC721.sol\":13539:13592   */\n      tag_123\n        /* \"#utility.yul\":9397:9745   */\n      jump\n        /* \"@openzeppelin/contracts/token/ERC721/ERC721.sol\":13539:13592   */\n    tag_273:\n        /* \"@openzeppelin/contracts/token/ERC721/ERC721.sol\":13466:13599   */\n      pop\n      jump\t// out\n        /* \"@openzeppelin/contracts/token/ERC721/ERC721.sol\":12768:12939   */\n    tag_134:\n        /* \"@openzeppelin/contracts/token/ERC721/ERC721.sol\":12842:12866   */\n      0x00\n      dup2\n      dup2\n      mstore\n        /* \"@openzeppelin/contracts/token/ERC721/ERC721.sol\":12842:12857   */\n      0x04\n        /* \"@openzeppelin/contracts/token/ERC721/ERC721.sol\":12842:12866   */\n      0x20\n      mstore\n      0x40\n      swap1\n      keccak256\n        /* \"@openzeppelin/contracts/token/ERC721/ERC721.sol\":12842:12871   */\n      dup1\n      sload\n      not(sub(shl(0xa0, 0x01), 0x01))\n      and\n      sub(shl(0xa0, 0x01), 0x01)\n      dup5\n      and\n      swap1\n      dup2\n      or\n      swap1\n      swap2\n      sstore\n        /* \"@openzeppelin/contracts/token/ERC721/ERC721.sol\":12842:12866   */\n      dup2\n      swap1\n        /* \"@openzeppelin/contracts/token/ERC721/ERC721.sol\":12895:12918   */\n      tag_277\n        /* \"@openzeppelin/contracts/token/ERC721/ERC721.sol\":12842:12866   */\n      dup3\n        /* \"@openzeppelin/contracts/token/ERC721/ERC721.sol\":12895:12909   */\n      tag_63\n        /* \"@openzeppelin/contracts/token/ERC721/ERC721.sol\":12895:12918   */\n      jump\t// in\n    tag_277:\n      sub(shl(0xa0, 0x01), 0x01)\n        /* \"@openzeppelin/contracts/token/ERC721/ERC721.sol\":12886:12932   */\n      and\n      0x8c5be1e5ebec7d5bd14f71427d1e84f3dd0314c0f7b2291e5b200ac8c7c3b925\n      mload(0x40)\n      mload(0x40)\n      dup1\n      swap2\n      sub\n      swap1\n      log4\n        /* \"@openzeppelin/contracts/token/ERC721/ERC721.sol\":12768:12939   */\n      pop\n      pop\n      jump\t// out\n        /* \"@openzeppelin/contracts/token/ERC721/ERC721.sol\":7540:7801   */\n    tag_138:\n        /* \"@openzeppelin/contracts/token/ERC721/ERC721.sol\":7633:7637   */\n      0x00\n        /* \"@openzeppelin/contracts/token/ERC721/ERC721.sol\":7649:7662   */\n      dup1\n        /* \"@openzeppelin/contracts/token/ERC721/ERC721.sol\":7665:7688   */\n      tag_279\n        /* \"@openzeppelin/contracts/token/ERC721/ERC721.sol\":7680:7687   */\n      dup4\n        /* \"@openzeppelin/contracts/token/ERC721/ERC721.sol\":7665:7679   */\n      tag_63\n        /* \"@openzeppelin/contracts/token/ERC721/ERC721.sol\":7665:7688   */\n      jump\t// in\n    tag_279:\n        /* \"@openzeppelin/contracts/token/ERC721/ERC721.sol\":7649:7688   */\n      swap1\n      pop\n        /* \"@openzeppelin/contracts/token/ERC721/ERC721.sol\":7717:7722   */\n      dup1\n      sub(shl(0xa0, 0x01), 0x01)\n        /* \"@openzeppelin/contracts/token/ERC721/ERC721.sol\":7706:7722   */\n      and\n        /* \"@openzeppelin/contracts/token/ERC721/ERC721.sol\":7706:7713   */\n      dup5\n      sub(shl(0xa0, 0x01), 0x01)\n        /* \"@openzeppelin/contracts/token/ERC721/ERC721.sol\":7706:7722   */\n      and\n      eq\n        /* \"@openzeppelin/contracts/token/ERC721/ERC721.sol\":7706:7758   */\n      dup1\n      tag_281\n      jumpi\n      pop\n        /* \"@openzeppelin/contracts/token/ERC721/ERC721.sol\":7726:7758   */\n      tag_281\n        /* \"@openzeppelin/contracts/token/ERC721/ERC721.sol\":7743:7748   */\n      dup2\n        /* \"@openzeppelin/contracts/token/ERC721/ERC721.sol\":7750:7757   */\n      dup6\n        /* \"@openzeppelin/contracts/token/ERC721/ERC721.sol\":7726:7742   */\n      tag_103\n        /* \"@openzeppelin/contracts/token/ERC721/ERC721.sol\":7726:7758   */\n      jump\t// in\n    tag_281:\n        /* \"@openzeppelin/contracts/token/ERC721/ERC721.sol\":7706:7793   */\n      dup1\n      tag_263\n      jumpi\n      pop\n        /* \"@openzeppelin/contracts/token/ERC721/ERC721.sol\":7786:7793   */\n      dup4\n      sub(shl(0xa0, 0x01), 0x01)\n        /* \"@openzeppelin/contracts/token/ERC721/ERC721.sol\":7762:7793   */\n      and\n        /* \"@openzeppelin/contracts/token/ERC721/ERC721.sol\":7762:7782   */\n      tag_283\n        /* \"@openzeppelin/contracts/token/ERC721/ERC721.sol\":7774:7781   */\n      dup5\n        /* \"@openzeppelin/contracts/token/ERC721/ERC721.sol\":7762:7773   */\n      tag_38\n        /* \"@openzeppelin/contracts/token/ERC721/ERC721.sol\":7762:7782   */\n      jump\t// in\n    tag_283:\n      sub(shl(0xa0, 0x01), 0x01)\n        /* \"@openzeppelin/contracts/token/ERC721/ERC721.sol\":7762:7793   */\n      and\n      eq\n        /* \"@openzeppelin/contracts/token/ERC721/ERC721.sol\":7698:7794   */\n      swap5\n        /* \"@openzeppelin/contracts/token/ERC721/ERC721.sol\":7540:7801   */\n      swap4\n      pop\n      pop\n      pop\n      pop\n      jump\t// out\n        /* \"@openzeppelin/contracts/token/ERC721/ERC721.sol\":11423:12656   */\n    tag_143:\n        /* \"@openzeppelin/contracts/token/ERC721/ERC721.sol\":11577:11581   */\n      dup3\n      sub(shl(0xa0, 0x01), 0x01)\n        /* \"@openzeppelin/contracts/token/ERC721/ERC721.sol\":11550:11581   */\n      and\n        /* \"@openzeppelin/contracts/token/ERC721/ERC721.sol\":11550:11573   */\n      tag_285\n        /* \"@openzeppelin/contracts/token/ERC721/ERC721.sol\":11565:11572   */\n      dup3\n        /* \"@openzeppelin/contracts/token/ERC721/ERC721.sol\":11550:11564   */\n      tag_63\n        /* \"@openzeppelin/contracts/token/ERC721/ERC721.sol\":11550:11573   */\n      jump\t// in\n    tag_285:\n      sub(shl(0xa0, 0x01), 0x01)\n        /* \"@openzeppelin/contracts/token/ERC721/ERC721.sol\":11550:11581   */\n      and\n      eq\n        /* \"@openzeppelin/contracts/token/ERC721/ERC721.sol\":11542:11623   */\n      tag_286\n      jumpi\n      mload(0x40)\n      shl(0xe5, 0x461bcd)\n      dup2\n      mstore\n      0x04\n      add\n      tag_123\n      swap1\n      tag_288\n      jump\t// in\n    tag_286:\n      sub(shl(0xa0, 0x01), 0x01)\n        /* \"@openzeppelin/contracts/token/ERC721/ERC721.sol\":11641:11657   */\n      dup3\n      and\n        /* \"@openzeppelin/contracts/token/ERC721/ERC721.sol\":11633:11698   */\n      tag_289\n      jumpi\n      mload(0x40)\n      shl(0xe5, 0x461bcd)\n      dup2\n      mstore\n        /* \"#utility.yul\":13972:13974   */\n      0x20\n        /* \"@openzeppelin/contracts/token/ERC721/ERC721.sol\":11633:11698   */\n      0x04\n      dup3\n      add\n        /* \"#utility.yul\":13954:13975   */\n      mstore\n        /* \"#utility.yul\":14011:14013   */\n      0x24\n        /* \"#utility.yul\":13991:14009   */\n      dup1\n      dup3\n      add\n        /* \"#utility.yul\":13984:14014   */\n      mstore\n        /* \"#utility.yul\":14050:14084   */\n      0x4552433732313a207472616e7366657220746f20746865207a65726f20616464\n        /* \"#utility.yul\":14030:14048   */\n      0x44\n      dup3\n      add\n        /* \"#utility.yul\":14023:14085   */\n      mstore\n      shl(0xe0, 0x72657373)\n        /* \"#utility.yul\":14101:14119   */\n      0x64\n      dup3\n      add\n        /* \"#utility.yul\":14094:14128   */\n      mstore\n        /* \"#utility.yul\":14145:14164   */\n      0x84\n      add\n        /* \"@openzeppelin/contracts/token/ERC721/ERC721.sol\":11633:11698   */\n      tag_123\n        /* \"#utility.yul\":13770:14170   */\n      jump\n        /* \"@openzeppelin/contracts/token/ERC721/ERC721.sol\":11633:11698   */\n    tag_289:\n        /* \"@openzeppelin/contracts/token/ERC721/ERC721.sol\":11709:11751   */\n      tag_292\n        /* \"@openzeppelin/contracts/token/ERC721/ERC721.sol\":11730:11734   */\n      dup4\n        /* \"@openzeppelin/contracts/token/ERC721/ERC721.sol\":11736:11738   */\n      dup4\n        /* \"@openzeppelin/contracts/token/ERC721/ERC721.sol\":11740:11747   */\n      dup4\n        /* \"@openzeppelin/contracts/token/ERC721/ERC721.sol\":11749:11750   */\n      0x01\n        /* \"@openzeppelin/contracts/token/ERC721/ERC721.sol\":11709:11729   */\n      tag_293\n        /* \"@openzeppelin/contracts/token/ERC721/ERC721.sol\":11709:11751   */\n      jump\t// in\n    tag_292:\n        /* \"@openzeppelin/contracts/token/ERC721/ERC721.sol\":11878:11882   */\n      dup3\n      sub(shl(0xa0, 0x01), 0x01)\n        /* \"@openzeppelin/contracts/token/ERC721/ERC721.sol\":11851:11882   */\n      and\n        /* \"@openzeppelin/contracts/token/ERC721/ERC721.sol\":11851:11874   */\n      tag_294\n        /* \"@openzeppelin/contracts/token/ERC721/ERC721.sol\":11866:11873   */\n      dup3\n        /* \"@openzeppelin/contracts/token/ERC721/ERC721.sol\":11851:11865   */\n      tag_63\n        /* \"@openzeppelin/contracts/token/ERC721/ERC721.sol\":11851:11874   */\n      jump\t// in\n    tag_294:\n      sub(shl(0xa0, 0x01), 0x01)\n        /* \"@openzeppelin/contracts/token/ERC721/ERC721.sol\":11851:11882   */\n      and\n      eq\n        /* \"@openzeppelin/contracts/token/ERC721/ERC721.sol\":11843:11924   */\n      tag_295\n      jumpi\n      mload(0x40)\n      shl(0xe5, 0x461bcd)\n      dup2\n      mstore\n      0x04\n      add\n      tag_123\n      swap1\n      tag_288\n      jump\t// in\n    tag_295:\n        /* \"@openzeppelin/contracts/token/ERC721/ERC721.sol\":11993:12017   */\n      0x00\n      dup2\n      dup2\n      mstore\n        /* \"@openzeppelin/contracts/token/ERC721/ERC721.sol\":11993:12008   */\n      0x04\n        /* \"@openzeppelin/contracts/token/ERC721/ERC721.sol\":11993:12017   */\n      0x20\n      swap1\n      dup2\n      mstore\n      0x40\n      dup1\n      dup4\n      keccak256\n        /* \"@openzeppelin/contracts/token/ERC721/ERC721.sol\":11986:12017   */\n      dup1\n      sload\n      not(sub(shl(0xa0, 0x01), 0x01))\n      swap1\n      dup2\n      and\n      swap1\n      swap2\n      sstore\n      sub(shl(0xa0, 0x01), 0x01)\n        /* \"@openzeppelin/contracts/token/ERC721/ERC721.sol\":12461:12476   */\n      dup8\n      dup2\n      and\n      dup1\n      dup7\n      mstore\n        /* \"@openzeppelin/contracts/token/ERC721/ERC721.sol\":12461:12470   */\n      0x03\n        /* \"@openzeppelin/contracts/token/ERC721/ERC721.sol\":12461:12476   */\n      dup6\n      mstore\n      dup4\n      dup7\n      keccak256\n        /* \"@openzeppelin/contracts/token/ERC721/ERC721.sol\":12461:12481   */\n      dup1\n      sload\n      not(0x00)\n      add\n      swap1\n      sstore\n        /* \"@openzeppelin/contracts/token/ERC721/ERC721.sol\":12495:12508   */\n      swap1\n      dup8\n      and\n      dup1\n      dup7\n      mstore\n      dup4\n      dup7\n      keccak256\n        /* \"@openzeppelin/contracts/token/ERC721/ERC721.sol\":12495:12513   */\n      dup1\n      sload\n        /* \"@openzeppelin/contracts/token/ERC721/ERC721.sol\":11986:12017   */\n      0x01\n        /* \"@openzeppelin/contracts/token/ERC721/ERC721.sol\":12495:12513   */\n      add\n      swap1\n      sstore\n        /* \"@openzeppelin/contracts/token/ERC721/ERC721.sol\":12533:12549   */\n      dup7\n      dup7\n      mstore\n        /* \"@openzeppelin/contracts/token/ERC721/ERC721.sol\":12533:12540   */\n      0x02\n        /* \"@openzeppelin/contracts/token/ERC721/ERC721.sol\":12533:12549   */\n      swap1\n      swap5\n      mstore\n      dup3\n      dup6\n      keccak256\n        /* \"@openzeppelin/contracts/token/ERC721/ERC721.sol\":12533:12554   */\n      dup1\n      sload\n      swap1\n      swap3\n      and\n      dup5\n      or\n      swap1\n      swap2\n      sstore\n        /* \"@openzeppelin/contracts/token/ERC721/ERC721.sol\":12570:12597   */\n      swap1\n      mload\n        /* \"@openzeppelin/contracts/token/ERC721/ERC721.sol\":12009:12016   */\n      dup5\n      swap4\n        /* \"@openzeppelin/contracts/token/ERC721/ERC721.sol\":12570:12597   */\n      0xddf252ad1be2c89b69c2b068fc378daa952ba7f163c4a11628f55a4df523b3ef\n      swap2\n      log4\n        /* \"@openzeppelin/contracts/token/ERC721/ERC721.sol\":3538:3874   */\n      pop\n        /* \"@openzeppelin/contracts/token/ERC721/ERC721.sol\":3468:3874   */\n      pop\n      pop\n      jump\t// out\n        /* \"@openzeppelin/contracts/token/ERC721/ERC721.sol\":8131:8239   */\n    tag_189:\n        /* \"@openzeppelin/contracts/token/ERC721/ERC721.sol\":8206:8232   */\n      tag_240\n        /* \"@openzeppelin/contracts/token/ERC721/ERC721.sol\":8216:8218   */\n      dup3\n        /* \"@openzeppelin/contracts/token/ERC721/ERC721.sol\":8220:8227   */\n      dup3\n        /* \"@openzeppelin/contracts/token/ERC721/ERC721.sol\":8206:8232   */\n      mload(0x40)\n      dup1\n      0x20\n      add\n      0x40\n      mstore\n      dup1\n      0x00\n      dup2\n      mstore\n      pop\n        /* \"@openzeppelin/contracts/token/ERC721/ERC721.sol\":8206:8215   */\n      tag_304\n        /* \"@openzeppelin/contracts/token/ERC721/ERC721.sol\":8206:8232   */\n      jump\t// in\n        /* \"@openzeppelin/contracts/token/ERC721/extensions/ERC721URIStorage.sol\":1237:1451   */\n    tag_191:\n        /* \"@openzeppelin/contracts/token/ERC721/ERC721.sol\":7321:7325   */\n      0x00\n        /* \"@openzeppelin/contracts/token/ERC721/ERC721.sol\":6930:6946   */\n      dup3\n      dup2\n      mstore\n        /* \"@openzeppelin/contracts/token/ERC721/ERC721.sol\":6930:6937   */\n      0x02\n        /* \"@openzeppelin/contracts/token/ERC721/ERC721.sol\":6930:6946   */\n      0x20\n      mstore\n      0x40\n      swap1\n      keccak256\n      sload\n      sub(shl(0xa0, 0x01), 0x01)\n      and\n        /* \"@openzeppelin/contracts/token/ERC721/extensions/ERC721URIStorage.sol\":1328:1403   */\n      tag_307\n      jumpi\n      mload(0x40)\n      shl(0xe5, 0x461bcd)\n      dup2\n      mstore\n        /* \"#utility.yul\":14377:14379   */\n      0x20\n        /* \"@openzeppelin/contracts/token/ERC721/extensions/ERC721URIStorage.sol\":1328:1403   */\n      0x04\n      dup3\n      add\n        /* \"#utility.yul\":14359:14380   */\n      mstore\n        /* \"#utility.yul\":14416:14418   */\n      0x2e\n        /* \"#utility.yul\":14396:14414   */\n      0x24\n      dup3\n      add\n        /* \"#utility.yul\":14389:14419   */\n      mstore\n        /* \"#utility.yul\":14455:14489   */\n      0x45524337323155524953746f726167653a2055524920736574206f66206e6f6e\n        /* \"#utility.yul\":14435:14453   */\n      0x44\n      dup3\n      add\n        /* \"#utility.yul\":14428:14490   */\n      mstore\n      shl(0x91, 0x32bc34b9ba32b73a103a37b5b2b7)\n        /* \"#utility.yul\":14506:14524   */\n      0x64\n      dup3\n      add\n        /* \"#utility.yul\":14499:14543   */\n      mstore\n        /* \"#utility.yul\":14560:14579   */\n      0x84\n      add\n        /* \"@openzeppelin/contracts/token/ERC721/extensions/ERC721URIStorage.sol\":1328:1403   */\n      tag_123\n        /* \"#utility.yul\":14175:14585   */\n      jump\n        /* \"@openzeppelin/contracts/token/ERC721/extensions/ERC721URIStorage.sol\":1328:1403   */\n    tag_307:\n        /* \"@openzeppelin/contracts/token/ERC721/extensions/ERC721URIStorage.sol\":1413:1432   */\n      0x00\n      dup3\n      dup2\n      mstore\n        /* \"@openzeppelin/contracts/token/ERC721/extensions/ERC721URIStorage.sol\":1413:1423   */\n      0x06\n        /* \"@openzeppelin/contracts/token/ERC721/extensions/ERC721URIStorage.sol\":1413:1432   */\n      0x20\n      mstore\n      0x40\n      swap1\n      keccak256\n        /* \"@openzeppelin/contracts/token/ERC721/extensions/ERC721URIStorage.sol\":1413:1444   */\n      tag_133\n        /* \"@openzeppelin/contracts/token/ERC721/extensions/ERC721URIStorage.sol\":1435:1444   */\n      dup3\n        /* \"@openzeppelin/contracts/token/ERC721/extensions/ERC721URIStorage.sol\":1413:1432   */\n      dup3\n        /* \"@openzeppelin/contracts/token/ERC721/extensions/ERC721URIStorage.sol\":1413:1444   */\n      tag_311\n      jump\t// in\n        /* \"@openzeppelin/contracts/token/ERC721/ERC721.sol\":13075:13382   */\n    tag_242:\n        /* \"@openzeppelin/contracts/token/ERC721/ERC721.sol\":13225:13233   */\n      dup2\n      sub(shl(0xa0, 0x01), 0x01)\n        /* \"@openzeppelin/contracts/token/ERC721/ERC721.sol\":13216:13233   */\n      and\n        /* \"@openzeppelin/contracts/token/ERC721/ERC721.sol\":13216:13221   */\n      dup4\n      sub(shl(0xa0, 0x01), 0x01)\n        /* \"@openzeppelin/contracts/token/ERC721/ERC721.sol\":13216:13233   */\n      and\n      sub\n        /* \"@openzeppelin/contracts/token/ERC721/ERC721.sol\":13208:13263   */\n      tag_314\n      jumpi\n      mload(0x40)\n      shl(0xe5, 0x461bcd)\n      dup2\n      mstore\n        /* \"#utility.yul\":16996:16998   */\n      0x20\n        /* \"@openzeppelin/contracts/token/ERC721/ERC721.sol\":13208:13263   */\n      0x04\n      dup3\n      add\n        /* \"#utility.yul\":16978:16999   */\n      mstore\n        /* \"#utility.yul\":17035:17037   */\n      0x19\n        /* \"#utility.yul\":17015:17033   */\n      0x24\n      dup3\n      add\n        /* \"#utility.yul\":17008:17038   */\n      mstore\n        /* \"#utility.yul\":17074:17101   */\n      0x4552433732313a20617070726f766520746f2063616c6c657200000000000000\n        /* \"#utility.yul\":17054:17072   */\n      0x44\n      dup3\n      add\n        /* \"#utility.yul\":17047:17102   */\n      mstore\n        /* \"#utility.yul\":17119:17137   */\n      0x64\n      add\n        /* \"@openzeppelin/contracts/token/ERC721/ERC721.sol\":13208:13263   */\n      tag_123\n        /* \"#utility.yul\":16794:17143   */\n      jump\n        /* \"@openzeppelin/contracts/token/ERC721/ERC721.sol\":13208:13263   */\n    tag_314:\n      sub(shl(0xa0, 0x01), 0x01)\n        /* \"@openzeppelin/contracts/token/ERC721/ERC721.sol\":13273:13298   */\n      dup4\n      dup2\n      and\n      0x00\n      dup2\n      dup2\n      mstore\n        /* \"@openzeppelin/contracts/token/ERC721/ERC721.sol\":13273:13291   */\n      0x05\n        /* \"@openzeppelin/contracts/token/ERC721/ERC721.sol\":13273:13298   */\n      0x20\n      swap1\n      dup2\n      mstore\n      0x40\n      dup1\n      dup4\n      keccak256\n        /* \"@openzeppelin/contracts/token/ERC721/ERC721.sol\":13273:13308   */\n      swap5\n      dup8\n      and\n      dup1\n      dup5\n      mstore\n      swap5\n      dup3\n      mstore\n      swap2\n      dup3\n      swap1\n      keccak256\n        /* \"@openzeppelin/contracts/token/ERC721/ERC721.sol\":13273:13319   */\n      dup1\n      sload\n      not(0xff)\n      and\n      dup7\n      iszero\n      iszero\n      swap1\n      dup2\n      or\n      swap1\n      swap2\n      sstore\n        /* \"@openzeppelin/contracts/token/ERC721/ERC721.sol\":13334:13375   */\n      swap2\n      mload\n        /* \"#utility.yul\":540:581   */\n      swap2\n      dup3\n      mstore\n        /* \"@openzeppelin/contracts/token/ERC721/ERC721.sol\":13334:13375   */\n      0x17307eab39ab6107e8899845ad3d59bd9653f200f220920489ca2b5937696c31\n      swap2\n        /* \"#utility.yul\":513:531   */\n      add\n        /* \"@openzeppelin/contracts/token/ERC721/ERC721.sol\":13334:13375   */\n      mload(0x40)\n      dup1\n      swap2\n      sub\n      swap1\n      log3\n        /* \"@openzeppelin/contracts/token/ERC721/ERC721.sol\":13075:13382   */\n      pop\n      pop\n      pop\n      jump\t// out\n        /* \"@openzeppelin/contracts/token/ERC721/ERC721.sol\":6424:6729   */\n    tag_249:\n        /* \"@openzeppelin/contracts/token/ERC721/ERC721.sol\":6574:6602   */\n      tag_319\n        /* \"@openzeppelin/contracts/token/ERC721/ERC721.sol\":6584:6588   */\n      dup5\n        /* \"@openzeppelin/contracts/token/ERC721/ERC721.sol\":6590:6592   */\n      dup5\n        /* \"@openzeppelin/contracts/token/ERC721/ERC721.sol\":6594:6601   */\n      dup5\n        /* \"@openzeppelin/contracts/token/ERC721/ERC721.sol\":6574:6583   */\n      tag_143\n        /* \"@openzeppelin/contracts/token/ERC721/ERC721.sol\":6574:6602   */\n      jump\t// in\n    tag_319:\n        /* \"@openzeppelin/contracts/token/ERC721/ERC721.sol\":6620:6667   */\n      tag_320\n        /* \"@openzeppelin/contracts/token/ERC721/ERC721.sol\":6643:6647   */\n      dup5\n        /* \"@openzeppelin/contracts/token/ERC721/ERC721.sol\":6649:6651   */\n      dup5\n        /* \"@openzeppelin/contracts/token/ERC721/ERC721.sol\":6653:6660   */\n      dup5\n        /* \"@openzeppelin/contracts/token/ERC721/ERC721.sol\":6662:6666   */\n      dup5\n        /* \"@openzeppelin/contracts/token/ERC721/ERC721.sol\":6620:6642   */\n      tag_321\n        /* \"@openzeppelin/contracts/token/ERC721/ERC721.sol\":6620:6667   */\n      jump\t// in\n    tag_320:\n        /* \"@openzeppelin/contracts/token/ERC721/ERC721.sol\":6612:6722   */\n      tag_214\n      jumpi\n      mload(0x40)\n      shl(0xe5, 0x461bcd)\n      dup2\n      mstore\n      0x04\n      add\n      tag_123\n      swap1\n      tag_324\n      jump\t// in\n        /* \"@openzeppelin/contracts/token/ERC721/ERC721.sol\":2801:3077   */\n    tag_264:\n        /* \"@openzeppelin/contracts/token/ERC721/ERC721.sol\":2874:2887   */\n      0x60\n        /* \"@openzeppelin/contracts/token/ERC721/ERC721.sol\":2899:2922   */\n      tag_327\n        /* \"@openzeppelin/contracts/token/ERC721/ERC721.sol\":2914:2921   */\n      dup3\n        /* \"@openzeppelin/contracts/token/ERC721/ERC721.sol\":2899:2913   */\n      tag_119\n        /* \"@openzeppelin/contracts/token/ERC721/ERC721.sol\":2899:2922   */\n      jump\t// in\n    tag_327:\n        /* \"@openzeppelin/contracts/token/ERC721/ERC721.sol\":2933:2954   */\n      0x00\n        /* \"@openzeppelin/contracts/token/ERC721/ERC721.sol\":2957:2967   */\n      tag_328\n        /* \"@openzeppelin/contracts/token/ERC721/ERC721.sol\":3395:3404   */\n      0x40\n      dup1\n      mload\n      0x20\n      dup2\n      add\n      swap1\n      swap2\n      mstore\n      0x00\n      dup2\n      mstore\n      swap1\n        /* \"@openzeppelin/contracts/token/ERC721/ERC721.sol\":3319:3411   */\n      jump\n        /* \"@openzeppelin/contracts/token/ERC721/ERC721.sol\":2957:2967   */\n    tag_328:\n        /* \"@openzeppelin/contracts/token/ERC721/ERC721.sol\":2933:2967   */\n      swap1\n      pop\n        /* \"@openzeppelin/contracts/token/ERC721/ERC721.sol\":3008:3009   */\n      0x00\n        /* \"@openzeppelin/contracts/token/ERC721/ERC721.sol\":2990:2997   */\n      dup2\n        /* \"@openzeppelin/contracts/token/ERC721/ERC721.sol\":2984:3005   */\n      mload\n        /* \"@openzeppelin/contracts/token/ERC721/ERC721.sol\":2984:3009   */\n      gt\n        /* \"@openzeppelin/contracts/token/ERC721/ERC721.sol\":2984:3070   */\n      tag_329\n      jumpi\n      mload(0x40)\n      dup1\n      0x20\n      add\n      0x40\n      mstore\n      dup1\n      0x00\n      dup2\n      mstore\n      pop\n      jump(tag_330)\n    tag_329:\n        /* \"@openzeppelin/contracts/token/ERC721/ERC721.sol\":3036:3043   */\n      dup1\n        /* \"@openzeppelin/contracts/token/ERC721/ERC721.sol\":3045:3063   */\n      tag_331\n        /* \"@openzeppelin/contracts/token/ERC721/ERC721.sol\":3045:3052   */\n      dup5\n        /* \"@openzeppelin/contracts/token/ERC721/ERC721.sol\":3045:3061   */\n      tag_332\n        /* \"@openzeppelin/contracts/token/ERC721/ERC721.sol\":3045:3063   */\n      jump\t// in\n    tag_331:\n        /* \"@openzeppelin/contracts/token/ERC721/ERC721.sol\":3019:3064   */\n      add(0x20, mload(0x40))\n      tag_333\n      swap3\n      swap2\n      swap1\n      tag_262\n      jump\t// in\n    tag_333:\n      mload(0x40)\n      0x20\n      dup2\n      dup4\n      sub\n      sub\n      dup2\n      mstore\n      swap1\n      0x40\n      mstore\n        /* \"@openzeppelin/contracts/token/ERC721/ERC721.sol\":2984:3070   */\n    tag_330:\n        /* \"@openzeppelin/contracts/token/ERC721/ERC721.sol\":2977:3070   */\n      swap4\n        /* \"@openzeppelin/contracts/token/ERC721/ERC721.sol\":2801:3077   */\n      swap3\n      pop\n      pop\n      pop\n      jump\t// out\n        /* \"@openzeppelin/contracts/token/ERC721/ERC721.sol\":15698:16094   */\n    tag_293:\n        /* \"@openzeppelin/contracts/token/ERC721/ERC721.sol\":15882:15883   */\n      0x01\n        /* \"@openzeppelin/contracts/token/ERC721/ERC721.sol\":15870:15879   */\n      dup2\n        /* \"@openzeppelin/contracts/token/ERC721/ERC721.sol\":15870:15883   */\n      gt\n        /* \"@openzeppelin/contracts/token/ERC721/ERC721.sol\":15866:16088   */\n      iszero\n      tag_214\n      jumpi\n      sub(shl(0xa0, 0x01), 0x01)\n        /* \"@openzeppelin/contracts/token/ERC721/ERC721.sol\":15903:15921   */\n      dup5\n      and\n      iszero\n        /* \"@openzeppelin/contracts/token/ERC721/ERC721.sol\":15899:15984   */\n      tag_338\n      jumpi\n      sub(shl(0xa0, 0x01), 0x01)\n        /* \"@openzeppelin/contracts/token/ERC721/ERC721.sol\":15941:15956   */\n      dup5\n      and\n      0x00\n      swap1\n      dup2\n      mstore\n        /* \"@openzeppelin/contracts/token/ERC721/ERC721.sol\":15941:15950   */\n      0x03\n        /* \"@openzeppelin/contracts/token/ERC721/ERC721.sol\":15941:15956   */\n      0x20\n      mstore\n      0x40\n      dup2\n      keccak256\n        /* \"@openzeppelin/contracts/token/ERC721/ERC721.sol\":15941:15969   */\n      dup1\n      sload\n        /* \"@openzeppelin/contracts/token/ERC721/ERC721.sol\":15960:15969   */\n      dup4\n      swap3\n        /* \"@openzeppelin/contracts/token/ERC721/ERC721.sol\":15941:15956   */\n      swap1\n        /* \"@openzeppelin/contracts/token/ERC721/ERC721.sol\":15941:15969   */\n      tag_339\n      swap1\n        /* \"@openzeppelin/contracts/token/ERC721/ERC721.sol\":15960:15969   */\n      dup5\n      swap1\n        /* \"@openzeppelin/contracts/token/ERC721/ERC721.sol\":15941:15969   */\n      tag_340\n      jump\t// in\n    tag_339:\n      swap1\n      swap2\n      sstore\n      pop\n      pop\n        /* \"@openzeppelin/contracts/token/ERC721/ERC721.sol\":15899:15984   */\n    tag_338:\n      sub(shl(0xa0, 0x01), 0x01)\n        /* \"@openzeppelin/contracts/token/ERC721/ERC721.sol\":16001:16017   */\n      dup4\n      and\n      iszero\n        /* \"@openzeppelin/contracts/token/ERC721/ERC721.sol\":15997:16078   */\n      tag_214\n      jumpi\n      sub(shl(0xa0, 0x01), 0x01)\n        /* \"@openzeppelin/contracts/token/ERC721/ERC721.sol\":16037:16050   */\n      dup4\n      and\n      0x00\n      swap1\n      dup2\n      mstore\n        /* \"@openzeppelin/contracts/token/ERC721/ERC721.sol\":16037:16046   */\n      0x03\n        /* \"@openzeppelin/contracts/token/ERC721/ERC721.sol\":16037:16050   */\n      0x20\n      mstore\n      0x40\n      dup2\n      keccak256\n        /* \"@openzeppelin/contracts/token/ERC721/ERC721.sol\":16037:16063   */\n      dup1\n      sload\n        /* \"@openzeppelin/contracts/token/ERC721/ERC721.sol\":16054:16063   */\n      dup4\n      swap3\n        /* \"@openzeppelin/contracts/token/ERC721/ERC721.sol\":16037:16050   */\n      swap1\n        /* \"@openzeppelin/contracts/token/ERC721/ERC721.sol\":16037:16063   */\n      tag_342\n      swap1\n        /* \"@openzeppelin/contracts/token/ERC721/ERC721.sol\":16054:16063   */\n      dup5\n      swap1\n        /* \"@openzeppelin/contracts/token/ERC721/ERC721.sol\":16037:16063   */\n      tag_151\n      jump\t// in\n    tag_342:\n      swap1\n      swap2\n      sstore\n      pop\n      pop\n        /* \"@openzeppelin/contracts/token/ERC721/ERC721.sol\":15698:16094   */\n      pop\n      pop\n      pop\n      pop\n      jump\t// out\n        /* \"@openzeppelin/contracts/token/ERC721/ERC721.sol\":8460:8769   */\n    tag_304:\n        /* \"@openzeppelin/contracts/token/ERC721/ERC721.sol\":8584:8602   */\n      tag_345\n        /* \"@openzeppelin/contracts/token/ERC721/ERC721.sol\":8590:8592   */\n      dup4\n        /* \"@openzeppelin/contracts/token/ERC721/ERC721.sol\":8594:8601   */\n      dup4\n        /* \"@openzeppelin/contracts/token/ERC721/ERC721.sol\":8584:8589   */\n      tag_346\n        /* \"@openzeppelin/contracts/token/ERC721/ERC721.sol\":8584:8602   */\n      jump\t// in\n    tag_345:\n        /* \"@openzeppelin/contracts/token/ERC721/ERC721.sol\":8633:8686   */\n      tag_347\n        /* \"@openzeppelin/contracts/token/ERC721/ERC721.sol\":8664:8665   */\n      0x00\n        /* \"@openzeppelin/contracts/token/ERC721/ERC721.sol\":8668:8670   */\n      dup5\n        /* \"@openzeppelin/contracts/token/ERC721/ERC721.sol\":8672:8679   */\n      dup5\n        /* \"@openzeppelin/contracts/token/ERC721/ERC721.sol\":8681:8685   */\n      dup5\n        /* \"@openzeppelin/contracts/token/ERC721/ERC721.sol\":8633:8655   */\n      tag_321\n        /* \"@openzeppelin/contracts/token/ERC721/ERC721.sol\":8633:8686   */\n      jump\t// in\n    tag_347:\n        /* \"@openzeppelin/contracts/token/ERC721/ERC721.sol\":8612:8762   */\n      tag_133\n      jumpi\n      mload(0x40)\n      shl(0xe5, 0x461bcd)\n      dup2\n      mstore\n      0x04\n      add\n      tag_123\n      swap1\n      tag_324\n      jump\t// in\n        /* \"@openzeppelin/contracts/token/ERC721/ERC721.sol\":14151:14982   */\n    tag_321:\n        /* \"@openzeppelin/contracts/token/ERC721/ERC721.sol\":14300:14304   */\n      0x00\n      sub(shl(0xa0, 0x01), 0x01)\n        /* \"@openzeppelin/contracts/token/ERC721/ERC721.sol\":14320:14333   */\n      dup5\n      and\n        /* \"@openzeppelin/contracts/utils/Address.sol\":1465:1484   */\n      extcodesize\n        /* \"@openzeppelin/contracts/utils/Address.sol\":1465:1488   */\n      iszero\n        /* \"@openzeppelin/contracts/token/ERC721/ERC721.sol\":14316:14976   */\n      tag_353\n      jumpi\n        /* \"@openzeppelin/contracts/token/ERC721/ERC721.sol\":14355:14426   */\n      mload(0x40)\n      shl(0xe1, 0x0a85bd01)\n      dup2\n      mstore\n      sub(shl(0xa0, 0x01), 0x01)\n        /* \"@openzeppelin/contracts/token/ERC721/ERC721.sol\":14355:14391   */\n      dup6\n      and\n      swap1\n      0x150b7a02\n      swap1\n        /* \"@openzeppelin/contracts/token/ERC721/ERC721.sol\":14355:14426   */\n      tag_355\n      swap1\n        /* \"@openzeppelin/contracts/utils/Context.sol\":719:729   */\n      caller\n      swap1\n        /* \"@openzeppelin/contracts/token/ERC721/ERC721.sol\":14406:14410   */\n      dup10\n      swap1\n        /* \"@openzeppelin/contracts/token/ERC721/ERC721.sol\":14412:14419   */\n      dup9\n      swap1\n        /* \"@openzeppelin/contracts/token/ERC721/ERC721.sol\":14421:14425   */\n      dup9\n      swap1\n        /* \"@openzeppelin/contracts/token/ERC721/ERC721.sol\":14355:14426   */\n      0x04\n      add\n      tag_356\n      jump\t// in\n    tag_355:\n      0x20\n      mload(0x40)\n      dup1\n      dup4\n      sub\n      dup2\n      0x00\n      dup8\n      gas\n      call\n      swap3\n      pop\n      pop\n      pop\n      dup1\n      iszero\n      tag_357\n      jumpi\n      pop\n      0x40\n      dup1\n      mload\n      0x1f\n      returndatasize\n      swap1\n      dup2\n      add\n      not(0x1f)\n      and\n      dup3\n      add\n      swap1\n      swap3\n      mstore\n      tag_358\n      swap2\n      dup2\n      add\n      swap1\n      tag_359\n      jump\t// in\n    tag_358:\n      0x01\n    tag_357:\n        /* \"@openzeppelin/contracts/token/ERC721/ERC721.sol\":14351:14924   */\n      tag_360\n      jumpi\n      returndatasize\n      dup1\n      dup1\n      iszero\n      tag_365\n      jumpi\n      mload(0x40)\n      swap2\n      pop\n      and(add(returndatasize, 0x3f), not(0x1f))\n      dup3\n      add\n      0x40\n      mstore\n      returndatasize\n      dup3\n      mstore\n      returndatasize\n      0x00\n      0x20\n      dup5\n      add\n      returndatacopy\n      jump(tag_364)\n    tag_365:\n      0x60\n      swap2\n      pop\n    tag_364:\n      pop\n        /* \"@openzeppelin/contracts/token/ERC721/ERC721.sol\":14593:14599   */\n      dup1\n        /* \"@openzeppelin/contracts/token/ERC721/ERC721.sol\":14593:14606   */\n      mload\n        /* \"@openzeppelin/contracts/token/ERC721/ERC721.sol\":14610:14611   */\n      0x00\n        /* \"@openzeppelin/contracts/token/ERC721/ERC721.sol\":14593:14611   */\n      sub\n        /* \"@openzeppelin/contracts/token/ERC721/ERC721.sol\":14589:14910   */\n      tag_366\n      jumpi\n        /* \"@openzeppelin/contracts/token/ERC721/ERC721.sol\":14635:14695   */\n      mload(0x40)\n      shl(0xe5, 0x461bcd)\n      dup2\n      mstore\n      0x04\n      add\n      tag_123\n      swap1\n      tag_324\n      jump\t// in\n        /* \"@openzeppelin/contracts/token/ERC721/ERC721.sol\":14589:14910   */\n    tag_366:\n        /* \"@openzeppelin/contracts/token/ERC721/ERC721.sol\":14862:14868   */\n      dup1\n        /* \"@openzeppelin/contracts/token/ERC721/ERC721.sol\":14856:14869   */\n      mload\n        /* \"@openzeppelin/contracts/token/ERC721/ERC721.sol\":14847:14853   */\n      dup2\n        /* \"@openzeppelin/contracts/token/ERC721/ERC721.sol\":14843:14845   */\n      0x20\n        /* \"@openzeppelin/contracts/token/ERC721/ERC721.sol\":14839:14854   */\n      add\n        /* \"@openzeppelin/contracts/token/ERC721/ERC721.sol\":14832:14870   */\n      revert\n        /* \"@openzeppelin/contracts/token/ERC721/ERC721.sol\":14351:14924   */\n    tag_360:\n      not(sub(shl(0xe0, 0x01), 0x01))\n        /* \"@openzeppelin/contracts/token/ERC721/ERC721.sol\":14476:14527   */\n      and\n      shl(0xe1, 0x0a85bd01)\n      eq\n      swap1\n      pop\n        /* \"@openzeppelin/contracts/token/ERC721/ERC721.sol\":14469:14527   */\n      jump(tag_263)\n        /* \"@openzeppelin/contracts/token/ERC721/ERC721.sol\":14316:14976   */\n    tag_353:\n      pop\n        /* \"@openzeppelin/contracts/token/ERC721/ERC721.sol\":14961:14965   */\n      0x01\n        /* \"@openzeppelin/contracts/token/ERC721/ERC721.sol\":14151:14982   */\n      swap5\n      swap4\n      pop\n      pop\n      pop\n      pop\n      jump\t// out\n        /* \"@openzeppelin/contracts/utils/Strings.sol\":415:1111   */\n    tag_332:\n        /* \"@openzeppelin/contracts/utils/Strings.sol\":471:484   */\n      0x60\n        /* \"@openzeppelin/contracts/utils/Strings.sol\":520:534   */\n      0x00\n        /* \"@openzeppelin/contracts/utils/Strings.sol\":537:554   */\n      tag_372\n        /* \"@openzeppelin/contracts/utils/Strings.sol\":548:553   */\n      dup4\n        /* \"@openzeppelin/contracts/utils/Strings.sol\":537:547   */\n      tag_373\n        /* \"@openzeppelin/contracts/utils/Strings.sol\":537:554   */\n      jump\t// in\n    tag_372:\n        /* \"@openzeppelin/contracts/utils/Strings.sol\":557:558   */\n      0x01\n        /* \"@openzeppelin/contracts/utils/Strings.sol\":537:558   */\n      add\n        /* \"@openzeppelin/contracts/utils/Strings.sol\":520:558   */\n      swap1\n      pop\n        /* \"@openzeppelin/contracts/utils/Strings.sol\":572:592   */\n      0x00\n        /* \"@openzeppelin/contracts/utils/Strings.sol\":606:612   */\n      dup2\n        /* \"@openzeppelin/contracts/utils/Strings.sol\":595:613   */\n      0xffffffffffffffff\n      dup2\n      gt\n      iszero\n      tag_375\n      jumpi\n      tag_375\n      tag_158\n      jump\t// in\n    tag_375:\n      mload(0x40)\n      swap1\n      dup1\n      dup3\n      mstore\n      dup1\n      0x1f\n      add\n      not(0x1f)\n      and\n      0x20\n      add\n      dup3\n      add\n      0x40\n      mstore\n      dup1\n      iszero\n      tag_376\n      jumpi\n      0x20\n      dup3\n      add\n      dup2\n      dup1\n      calldatasize\n      dup4\n      calldatacopy\n      add\n      swap1\n      pop\n    tag_376:\n      pop\n        /* \"@openzeppelin/contracts/utils/Strings.sol\":572:613   */\n      swap1\n      pop\n        /* \"@openzeppelin/contracts/utils/Strings.sol\":733:761   */\n      dup2\n      dup2\n      add\n        /* \"@openzeppelin/contracts/utils/Strings.sol\":749:751   */\n      0x20\n        /* \"@openzeppelin/contracts/utils/Strings.sol\":733:761   */\n      add\n        /* \"@openzeppelin/contracts/utils/Strings.sol\":788:1068   */\n    tag_377:\n      not(0x00)\n        /* \"@openzeppelin/contracts/utils/Strings.sol\":819:824   */\n      add\n      shl(0x81, 0x181899199a1a9b1b9c1cb0b131b232b3)\n        /* \"@openzeppelin/contracts/utils/Strings.sol\":953:955   */\n      0x0a\n        /* \"@openzeppelin/contracts/utils/Strings.sol\":942:956   */\n      dup7\n      mod\n        /* \"@openzeppelin/contracts/utils/Strings.sol\":937:967   */\n      byte\n        /* \"@openzeppelin/contracts/utils/Strings.sol\":819:824   */\n      dup2\n        /* \"@openzeppelin/contracts/utils/Strings.sol\":924:968   */\n      mstore8\n        /* \"@openzeppelin/contracts/utils/Strings.sol\":1012:1014   */\n      0x0a\n        /* \"@openzeppelin/contracts/utils/Strings.sol\":1003:1014   */\n      dup6\n      div\n      swap5\n      pop\n        /* \"@openzeppelin/contracts/utils/Strings.sol\":1032:1053   */\n      dup5\n        /* \"@openzeppelin/contracts/utils/Strings.sol\":788:1068   */\n      tag_377\n        /* \"@openzeppelin/contracts/utils/Strings.sol\":1032:1053   */\n      jumpi\n      pop\n        /* \"@openzeppelin/contracts/utils/Strings.sol\":1088:1094   */\n      swap4\n        /* \"@openzeppelin/contracts/utils/Strings.sol\":415:1111   */\n      swap3\n      pop\n      pop\n      pop\n      jump\t// out\n        /* \"@openzeppelin/contracts/token/ERC721/ERC721.sol\":9091:10011   */\n    tag_346:\n      sub(shl(0xa0, 0x01), 0x01)\n        /* \"@openzeppelin/contracts/token/ERC721/ERC721.sol\":9170:9186   */\n      dup3\n      and\n        /* \"@openzeppelin/contracts/token/ERC721/ERC721.sol\":9162:9223   */\n      tag_384\n      jumpi\n      mload(0x40)\n      shl(0xe5, 0x461bcd)\n      dup2\n      mstore\n        /* \"#utility.yul\":18782:18784   */\n      0x20\n        /* \"@openzeppelin/contracts/token/ERC721/ERC721.sol\":9162:9223   */\n      0x04\n      dup3\n      add\n        /* \"#utility.yul\":18764:18785   */\n      dup2\n      swap1\n      mstore\n        /* \"#utility.yul\":18801:18819   */\n      0x24\n      dup3\n      add\n        /* \"#utility.yul\":18794:18824   */\n      mstore\n        /* \"#utility.yul\":18860:18894   */\n      0x4552433732313a206d696e7420746f20746865207a65726f2061646472657373\n        /* \"#utility.yul\":18840:18858   */\n      0x44\n      dup3\n      add\n        /* \"#utility.yul\":18833:18895   */\n      mstore\n        /* \"#utility.yul\":18912:18930   */\n      0x64\n      add\n        /* \"@openzeppelin/contracts/token/ERC721/ERC721.sol\":9162:9223   */\n      tag_123\n        /* \"#utility.yul\":18580:18936   */\n      jump\n        /* \"@openzeppelin/contracts/token/ERC721/ERC721.sol\":9162:9223   */\n    tag_384:\n        /* \"@openzeppelin/contracts/token/ERC721/ERC721.sol\":7321:7325   */\n      0x00\n        /* \"@openzeppelin/contracts/token/ERC721/ERC721.sol\":6930:6946   */\n      dup2\n      dup2\n      mstore\n        /* \"@openzeppelin/contracts/token/ERC721/ERC721.sol\":6930:6937   */\n      0x02\n        /* \"@openzeppelin/contracts/token/ERC721/ERC721.sol\":6930:6946   */\n      0x20\n      mstore\n      0x40\n      swap1\n      keccak256\n      sload\n      sub(shl(0xa0, 0x01), 0x01)\n      and\n        /* \"@openzeppelin/contracts/token/ERC721/ERC721.sol\":7344:7375   */\n      iszero\n        /* \"@openzeppelin/contracts/token/ERC721/ERC721.sol\":9233:9291   */\n      tag_388\n      jumpi\n      mload(0x40)\n      shl(0xe5, 0x461bcd)\n      dup2\n      mstore\n        /* \"#utility.yul\":19143:19145   */\n      0x20\n        /* \"@openzeppelin/contracts/token/ERC721/ERC721.sol\":9233:9291   */\n      0x04\n      dup3\n      add\n        /* \"#utility.yul\":19125:19146   */\n      mstore\n        /* \"#utility.yul\":19182:19184   */\n      0x1c\n        /* \"#utility.yul\":19162:19180   */\n      0x24\n      dup3\n      add\n        /* \"#utility.yul\":19155:19185   */\n      mstore\n        /* \"#utility.yul\":19221:19251   */\n      0x4552433732313a20746f6b656e20616c7265616479206d696e74656400000000\n        /* \"#utility.yul\":19201:19219   */\n      0x44\n      dup3\n      add\n        /* \"#utility.yul\":19194:19252   */\n      mstore\n        /* \"#utility.yul\":19269:19287   */\n      0x64\n      add\n        /* \"@openzeppelin/contracts/token/ERC721/ERC721.sol\":9233:9291   */\n      tag_123\n        /* \"#utility.yul\":18941:19293   */\n      jump\n        /* \"@openzeppelin/contracts/token/ERC721/ERC721.sol\":9233:9291   */\n    tag_388:\n        /* \"@openzeppelin/contracts/token/ERC721/ERC721.sol\":9302:9350   */\n      tag_391\n        /* \"@openzeppelin/contracts/token/ERC721/ERC721.sol\":9331:9332   */\n      0x00\n        /* \"@openzeppelin/contracts/token/ERC721/ERC721.sol\":9335:9337   */\n      dup4\n        /* \"@openzeppelin/contracts/token/ERC721/ERC721.sol\":9339:9346   */\n      dup4\n        /* \"@openzeppelin/contracts/token/ERC721/ERC721.sol\":9348:9349   */\n      0x01\n        /* \"@openzeppelin/contracts/token/ERC721/ERC721.sol\":9302:9322   */\n      tag_293\n        /* \"@openzeppelin/contracts/token/ERC721/ERC721.sol\":9302:9350   */\n      jump\t// in\n    tag_391:\n        /* \"@openzeppelin/contracts/token/ERC721/ERC721.sol\":7321:7325   */\n      0x00\n        /* \"@openzeppelin/contracts/token/ERC721/ERC721.sol\":6930:6946   */\n      dup2\n      dup2\n      mstore\n        /* \"@openzeppelin/contracts/token/ERC721/ERC721.sol\":6930:6937   */\n      0x02\n        /* \"@openzeppelin/contracts/token/ERC721/ERC721.sol\":6930:6946   */\n      0x20\n      mstore\n      0x40\n      swap1\n      keccak256\n      sload\n      sub(shl(0xa0, 0x01), 0x01)\n      and\n        /* \"@openzeppelin/contracts/token/ERC721/ERC721.sol\":7344:7375   */\n      iszero\n        /* \"@openzeppelin/contracts/token/ERC721/ERC721.sol\":9437:9495   */\n      tag_393\n      jumpi\n      mload(0x40)\n      shl(0xe5, 0x461bcd)\n      dup2\n      mstore\n        /* \"#utility.yul\":19143:19145   */\n      0x20\n        /* \"@openzeppelin/contracts/token/ERC721/ERC721.sol\":9437:9495   */\n      0x04\n      dup3\n      add\n        /* \"#utility.yul\":19125:19146   */\n      mstore\n        /* \"#utility.yul\":19182:19184   */\n      0x1c\n        /* \"#utility.yul\":19162:19180   */\n      0x24\n      dup3\n      add\n        /* \"#utility.yul\":19155:19185   */\n      mstore\n        /* \"#utility.yul\":19221:19251   */\n      0x4552433732313a20746f6b656e20616c7265616479206d696e74656400000000\n        /* \"#utility.yul\":19201:19219   */\n      0x44\n      dup3\n      add\n        /* \"#utility.yul\":19194:19252   */\n      mstore\n        /* \"#utility.yul\":19269:19287   */\n      0x64\n      add\n        /* \"@openzeppelin/contracts/token/ERC721/ERC721.sol\":9437:9495   */\n      tag_123\n        /* \"#utility.yul\":18941:19293   */\n      jump\n        /* \"@openzeppelin/contracts/token/ERC721/ERC721.sol\":9437:9495   */\n    tag_393:\n      sub(shl(0xa0, 0x01), 0x01)\n        /* \"@openzeppelin/contracts/token/ERC721/ERC721.sol\":9837:9850   */\n      dup3\n      and\n      0x00\n      dup2\n      dup2\n      mstore\n        /* \"@openzeppelin/contracts/token/ERC721/ERC721.sol\":9837:9846   */\n      0x03\n        /* \"@openzeppelin/contracts/token/ERC721/ERC721.sol\":9837:9850   */\n      0x20\n      swap1\n      dup2\n      mstore\n      0x40\n      dup1\n      dup4\n      keccak256\n        /* \"@openzeppelin/contracts/token/ERC721/ERC721.sol\":9837:9855   */\n      dup1\n      sload\n        /* \"@openzeppelin/contracts/token/ERC721/ERC721.sol\":9854:9855   */\n      0x01\n        /* \"@openzeppelin/contracts/token/ERC721/ERC721.sol\":9837:9855   */\n      add\n      swap1\n      sstore\n        /* \"@openzeppelin/contracts/token/ERC721/ERC721.sol\":9876:9892   */\n      dup5\n      dup4\n      mstore\n        /* \"@openzeppelin/contracts/token/ERC721/ERC721.sol\":9876:9883   */\n      0x02\n        /* \"@openzeppelin/contracts/token/ERC721/ERC721.sol\":9876:9892   */\n      swap1\n      swap2\n      mstore\n      dup1\n      dup3\n      keccak256\n        /* \"@openzeppelin/contracts/token/ERC721/ERC721.sol\":9876:9897   */\n      dup1\n      sload\n      not(sub(shl(0xa0, 0x01), 0x01))\n      and\n      dup5\n      or\n      swap1\n      sstore\n        /* \"@openzeppelin/contracts/token/ERC721/ERC721.sol\":9913:9946   */\n      mload\n        /* \"@openzeppelin/contracts/token/ERC721/ERC721.sol\":9884:9891   */\n      dup4\n      swap3\n        /* \"@openzeppelin/contracts/token/ERC721/ERC721.sol\":9837:9850   */\n      swap2\n      swap1\n        /* \"@openzeppelin/contracts/token/ERC721/ERC721.sol\":9913:9946   */\n      0xddf252ad1be2c89b69c2b068fc378daa952ba7f163c4a11628f55a4df523b3ef\n      swap1\n        /* \"@openzeppelin/contracts/token/ERC721/ERC721.sol\":9837:9850   */\n      dup3\n      swap1\n        /* \"@openzeppelin/contracts/token/ERC721/ERC721.sol\":9913:9946   */\n      log4\n        /* \"@openzeppelin/contracts/token/ERC721/ERC721.sol\":4169:4322   */\n      pop\n      pop\n      jump\t// out\n        /* \"@openzeppelin/contracts/utils/math/Math.sol\":9889:10779   */\n    tag_373:\n        /* \"@openzeppelin/contracts/utils/math/Math.sol\":9942:9949   */\n      0x00\n      dup1\n      shl(0x40, 0x184f03e93ff9f4daa797ed6e38ed64bf6a1f01)\n        /* \"@openzeppelin/contracts/utils/math/Math.sol\":10017:10032   */\n      dup4\n      lt\n        /* \"@openzeppelin/contracts/utils/math/Math.sol\":10013:10112   */\n      tag_398\n      jumpi\n      shl(0x40, 0x184f03e93ff9f4daa797ed6e38ed64bf6a1f01)\n        /* \"@openzeppelin/contracts/utils/math/Math.sol\":10052:10067   */\n      dup4\n      div\n      swap3\n      pop\n        /* \"@openzeppelin/contracts/utils/math/Math.sol\":10095:10097   */\n      0x40\n        /* \"@openzeppelin/contracts/utils/math/Math.sol\":10085:10097   */\n      add\n        /* \"@openzeppelin/contracts/utils/math/Math.sol\":10013:10112   */\n    tag_398:\n        /* \"@openzeppelin/contracts/utils/math/Math.sol\":10138:10144   */\n      0x04ee2d6d415b85acef8100000000\n        /* \"@openzeppelin/contracts/utils/math/Math.sol\":10129:10134   */\n      dup4\n        /* \"@openzeppelin/contracts/utils/math/Math.sol\":10129:10144   */\n      lt\n        /* \"@openzeppelin/contracts/utils/math/Math.sol\":10125:10224   */\n      tag_401\n      jumpi\n        /* \"@openzeppelin/contracts/utils/math/Math.sol\":10173:10179   */\n      0x04ee2d6d415b85acef8100000000\n        /* \"@openzeppelin/contracts/utils/math/Math.sol\":10164:10179   */\n      dup4\n      div\n      swap3\n      pop\n        /* \"@openzeppelin/contracts/utils/math/Math.sol\":10207:10209   */\n      0x20\n        /* \"@openzeppelin/contracts/utils/math/Math.sol\":10197:10209   */\n      add\n        /* \"@openzeppelin/contracts/utils/math/Math.sol\":10125:10224   */\n    tag_401:\n        /* \"@openzeppelin/contracts/utils/math/Math.sol\":10250:10256   */\n      0x2386f26fc10000\n        /* \"@openzeppelin/contracts/utils/math/Math.sol\":10241:10246   */\n      dup4\n        /* \"@openzeppelin/contracts/utils/math/Math.sol\":10241:10256   */\n      lt\n        /* \"@openzeppelin/contracts/utils/math/Math.sol\":10237:10336   */\n      tag_404\n      jumpi\n        /* \"@openzeppelin/contracts/utils/math/Math.sol\":10285:10291   */\n      0x2386f26fc10000\n        /* \"@openzeppelin/contracts/utils/math/Math.sol\":10276:10291   */\n      dup4\n      div\n      swap3\n      pop\n        /* \"@openzeppelin/contracts/utils/math/Math.sol\":10319:10321   */\n      0x10\n        /* \"@openzeppelin/contracts/utils/math/Math.sol\":10309:10321   */\n      add\n        /* \"@openzeppelin/contracts/utils/math/Math.sol\":10237:10336   */\n    tag_404:\n        /* \"@openzeppelin/contracts/utils/math/Math.sol\":10362:10367   */\n      0x05f5e100\n        /* \"@openzeppelin/contracts/utils/math/Math.sol\":10353:10358   */\n      dup4\n        /* \"@openzeppelin/contracts/utils/math/Math.sol\":10353:10367   */\n      lt\n        /* \"@openzeppelin/contracts/utils/math/Math.sol\":10349:10445   */\n      tag_407\n      jumpi\n        /* \"@openzeppelin/contracts/utils/math/Math.sol\":10396:10401   */\n      0x05f5e100\n        /* \"@openzeppelin/contracts/utils/math/Math.sol\":10387:10401   */\n      dup4\n      div\n      swap3\n      pop\n        /* \"@openzeppelin/contracts/utils/math/Math.sol\":10429:10430   */\n      0x08\n        /* \"@openzeppelin/contracts/utils/math/Math.sol\":10419:10430   */\n      add\n        /* \"@openzeppelin/contracts/utils/math/Math.sol\":10349:10445   */\n    tag_407:\n        /* \"@openzeppelin/contracts/utils/math/Math.sol\":10471:10476   */\n      0x2710\n        /* \"@openzeppelin/contracts/utils/math/Math.sol\":10462:10467   */\n      dup4\n        /* \"@openzeppelin/contracts/utils/math/Math.sol\":10462:10476   */\n      lt\n        /* \"@openzeppelin/contracts/utils/math/Math.sol\":10458:10554   */\n      tag_410\n      jumpi\n        /* \"@openzeppelin/contracts/utils/math/Math.sol\":10505:10510   */\n      0x2710\n        /* \"@openzeppelin/contracts/utils/math/Math.sol\":10496:10510   */\n      dup4\n      div\n      swap3\n      pop\n        /* \"@openzeppelin/contracts/utils/math/Math.sol\":10538:10539   */\n      0x04\n        /* \"@openzeppelin/contracts/utils/math/Math.sol\":10528:10539   */\n      add\n        /* \"@openzeppelin/contracts/utils/math/Math.sol\":10458:10554   */\n    tag_410:\n        /* \"@openzeppelin/contracts/utils/math/Math.sol\":10580:10585   */\n      0x64\n        /* \"@openzeppelin/contracts/utils/math/Math.sol\":10571:10576   */\n      dup4\n        /* \"@openzeppelin/contracts/utils/math/Math.sol\":10571:10585   */\n      lt\n        /* \"@openzeppelin/contracts/utils/math/Math.sol\":10567:10663   */\n      tag_413\n      jumpi\n        /* \"@openzeppelin/contracts/utils/math/Math.sol\":10614:10619   */\n      0x64\n        /* \"@openzeppelin/contracts/utils/math/Math.sol\":10605:10619   */\n      dup4\n      div\n      swap3\n      pop\n        /* \"@openzeppelin/contracts/utils/math/Math.sol\":10647:10648   */\n      0x02\n        /* \"@openzeppelin/contracts/utils/math/Math.sol\":10637:10648   */\n      add\n        /* \"@openzeppelin/contracts/utils/math/Math.sol\":10567:10663   */\n    tag_413:\n        /* \"@openzeppelin/contracts/utils/math/Math.sol\":10689:10694   */\n      0x0a\n        /* \"@openzeppelin/contracts/utils/math/Math.sol\":10680:10685   */\n      dup4\n        /* \"@openzeppelin/contracts/utils/math/Math.sol\":10680:10694   */\n      lt\n        /* \"@openzeppelin/contracts/utils/math/Math.sol\":10676:10740   */\n      tag_108\n      jumpi\n        /* \"@openzeppelin/contracts/utils/math/Math.sol\":10724:10725   */\n      0x01\n        /* \"@openzeppelin/contracts/utils/math/Math.sol\":10714:10725   */\n      add\n        /* \"@openzeppelin/contracts/utils/math/Math.sol\":10766:10772   */\n      swap3\n        /* \"@openzeppelin/contracts/utils/math/Math.sol\":9889:10779   */\n      swap2\n      pop\n      pop\n      jump\t// out\n        /* \"#utility.yul\":14:145   */\n    tag_417:\n      not(sub(shl(0xe0, 0x01), 0x01))\n        /* \"#utility.yul\":88:120   */\n      dup2\n      and\n        /* \"#utility.yul\":78:121   */\n      dup2\n      eq\n        /* \"#utility.yul\":68:139   */\n      tag_273\n      jumpi\n        /* \"#utility.yul\":135:136   */\n      0x00\n        /* \"#utility.yul\":132:133   */\n      dup1\n        /* \"#utility.yul\":125:137   */\n      revert\n        /* \"#utility.yul\":150:395   */\n    tag_27:\n        /* \"#utility.yul\":208:214   */\n      0x00\n        /* \"#utility.yul\":261:263   */\n      0x20\n        /* \"#utility.yul\":249:258   */\n      dup3\n        /* \"#utility.yul\":240:247   */\n      dup5\n        /* \"#utility.yul\":236:259   */\n      sub\n        /* \"#utility.yul\":232:264   */\n      slt\n        /* \"#utility.yul\":229:281   */\n      iszero\n      tag_434\n      jumpi\n        /* \"#utility.yul\":277:278   */\n      0x00\n        /* \"#utility.yul\":274:275   */\n      dup1\n        /* \"#utility.yul\":267:279   */\n      revert\n        /* \"#utility.yul\":229:281   */\n    tag_434:\n        /* \"#utility.yul\":316:325   */\n      dup2\n        /* \"#utility.yul\":303:326   */\n      calldataload\n        /* \"#utility.yul\":335:365   */\n      tag_330\n        /* \"#utility.yul\":359:364   */\n      dup2\n        /* \"#utility.yul\":335:365   */\n      tag_417\n      jump\t// in\n        /* \"#utility.yul\":592:842   */\n    tag_418:\n        /* \"#utility.yul\":677:678   */\n      0x00\n        /* \"#utility.yul\":687:800   */\n    tag_438:\n        /* \"#utility.yul\":701:707   */\n      dup4\n        /* \"#utility.yul\":698:699   */\n      dup2\n        /* \"#utility.yul\":695:708   */\n      lt\n        /* \"#utility.yul\":687:800   */\n      iszero\n      tag_440\n      jumpi\n        /* \"#utility.yul\":777:788   */\n      dup2\n      dup2\n      add\n        /* \"#utility.yul\":771:789   */\n      mload\n        /* \"#utility.yul\":758:769   */\n      dup4\n      dup3\n      add\n        /* \"#utility.yul\":751:790   */\n      mstore\n        /* \"#utility.yul\":723:725   */\n      0x20\n        /* \"#utility.yul\":716:726   */\n      add\n        /* \"#utility.yul\":687:800   */\n      jump(tag_438)\n    tag_440:\n      pop\n      pop\n        /* \"#utility.yul\":834:835   */\n      0x00\n        /* \"#utility.yul\":816:832   */\n      swap2\n      add\n        /* \"#utility.yul\":809:836   */\n      mstore\n        /* \"#utility.yul\":592:842   */\n      jump\t// out\n        /* \"#utility.yul\":847:1118   */\n    tag_419:\n        /* \"#utility.yul\":889:892   */\n      0x00\n        /* \"#utility.yul\":927:932   */\n      dup2\n        /* \"#utility.yul\":921:933   */\n      mload\n        /* \"#utility.yul\":954:960   */\n      dup1\n        /* \"#utility.yul\":949:952   */\n      dup5\n        /* \"#utility.yul\":942:961   */\n      mstore\n        /* \"#utility.yul\":970:1046   */\n      tag_442\n        /* \"#utility.yul\":1039:1045   */\n      dup2\n        /* \"#utility.yul\":1032:1036   */\n      0x20\n        /* \"#utility.yul\":1027:1030   */\n      dup7\n        /* \"#utility.yul\":1023:1037   */\n      add\n        /* \"#utility.yul\":1016:1020   */\n      0x20\n        /* \"#utility.yul\":1009:1014   */\n      dup7\n        /* \"#utility.yul\":1005:1021   */\n      add\n        /* \"#utility.yul\":970:1046   */\n      tag_418\n      jump\t// in\n    tag_442:\n        /* \"#utility.yul\":1100:1102   */\n      0x1f\n        /* \"#utility.yul\":1079:1094   */\n      add\n      not(0x1f)\n        /* \"#utility.yul\":1075:1104   */\n      and\n        /* \"#utility.yul\":1066:1105   */\n      swap3\n      swap1\n      swap3\n      add\n        /* \"#utility.yul\":1107:1111   */\n      0x20\n        /* \"#utility.yul\":1062:1112   */\n      add\n      swap3\n        /* \"#utility.yul\":847:1118   */\n      swap2\n      pop\n      pop\n      jump\t// out\n        /* \"#utility.yul\":1123:1343   */\n    tag_34:\n        /* \"#utility.yul\":1272:1274   */\n      0x20\n        /* \"#utility.yul\":1261:1270   */\n      dup2\n        /* \"#utility.yul\":1254:1275   */\n      mstore\n        /* \"#utility.yul\":1235:1239   */\n      0x00\n        /* \"#utility.yul\":1292:1337   */\n      tag_330\n        /* \"#utility.yul\":1333:1335   */\n      0x20\n        /* \"#utility.yul\":1322:1331   */\n      dup4\n        /* \"#utility.yul\":1318:1336   */\n      add\n        /* \"#utility.yul\":1310:1316   */\n      dup5\n        /* \"#utility.yul\":1292:1337   */\n      tag_419\n      jump\t// in\n        /* \"#utility.yul\":1348:1528   */\n    tag_37:\n        /* \"#utility.yul\":1407:1413   */\n      0x00\n        /* \"#utility.yul\":1460:1462   */\n      0x20\n        /* \"#utility.yul\":1448:1457   */\n      dup3\n        /* \"#utility.yul\":1439:1446   */\n      dup5\n        /* \"#utility.yul\":1435:1458   */\n      sub\n        /* \"#utility.yul\":1431:1463   */\n      slt\n        /* \"#utility.yul\":1428:1480   */\n      iszero\n      tag_446\n      jumpi\n        /* \"#utility.yul\":1476:1477   */\n      0x00\n        /* \"#utility.yul\":1473:1474   */\n      dup1\n        /* \"#utility.yul\":1466:1478   */\n      revert\n        /* \"#utility.yul\":1428:1480   */\n    tag_446:\n      pop\n        /* \"#utility.yul\":1499:1522   */\n      calldataload\n      swap2\n        /* \"#utility.yul\":1348:1528   */\n      swap1\n      pop\n      jump\t// out\n        /* \"#utility.yul\":1741:1872   */\n    tag_420:\n      sub(shl(0xa0, 0x01), 0x01)\n        /* \"#utility.yul\":1816:1847   */\n      dup2\n      and\n        /* \"#utility.yul\":1806:1848   */\n      dup2\n      eq\n        /* \"#utility.yul\":1796:1866   */\n      tag_273\n      jumpi\n        /* \"#utility.yul\":1862:1863   */\n      0x00\n        /* \"#utility.yul\":1859:1860   */\n      dup1\n        /* \"#utility.yul\":1852:1864   */\n      revert\n        /* \"#utility.yul\":1877:2192   */\n    tag_43:\n        /* \"#utility.yul\":1945:1951   */\n      0x00\n        /* \"#utility.yul\":1953:1959   */\n      dup1\n        /* \"#utility.yul\":2006:2008   */\n      0x40\n        /* \"#utility.yul\":1994:2003   */\n      dup4\n        /* \"#utility.yul\":1985:1992   */\n      dup6\n        /* \"#utility.yul\":1981:2004   */\n      sub\n        /* \"#utility.yul\":1977:2009   */\n      slt\n        /* \"#utility.yul\":1974:2026   */\n      iszero\n      tag_451\n      jumpi\n        /* \"#utility.yul\":2022:2023   */\n      0x00\n        /* \"#utility.yul\":2019:2020   */\n      dup1\n        /* \"#utility.yul\":2012:2024   */\n      revert\n        /* \"#utility.yul\":1974:2026   */\n    tag_451:\n        /* \"#utility.yul\":2061:2070   */\n      dup3\n        /* \"#utility.yul\":2048:2071   */\n      calldataload\n        /* \"#utility.yul\":2080:2111   */\n      tag_452\n        /* \"#utility.yul\":2105:2110   */\n      dup2\n        /* \"#utility.yul\":2080:2111   */\n      tag_420\n      jump\t// in\n    tag_452:\n        /* \"#utility.yul\":2130:2135   */\n      swap5\n        /* \"#utility.yul\":2182:2184   */\n      0x20\n        /* \"#utility.yul\":2167:2185   */\n      swap4\n      swap1\n      swap4\n      add\n        /* \"#utility.yul\":2154:2186   */\n      calldataload\n      swap4\n      pop\n      pop\n      pop\n        /* \"#utility.yul\":1877:2192   */\n      jump\t// out\n        /* \"#utility.yul\":2197:2653   */\n    tag_47:\n        /* \"#utility.yul\":2274:2280   */\n      0x00\n        /* \"#utility.yul\":2282:2288   */\n      dup1\n        /* \"#utility.yul\":2290:2296   */\n      0x00\n        /* \"#utility.yul\":2343:2345   */\n      0x60\n        /* \"#utility.yul\":2331:2340   */\n      dup5\n        /* \"#utility.yul\":2322:2329   */\n      dup7\n        /* \"#utility.yul\":2318:2341   */\n      sub\n        /* \"#utility.yul\":2314:2346   */\n      slt\n        /* \"#utility.yul\":2311:2363   */\n      iszero\n      tag_454\n      jumpi\n        /* \"#utility.yul\":2359:2360   */\n      0x00\n        /* \"#utility.yul\":2356:2357   */\n      dup1\n        /* \"#utility.yul\":2349:2361   */\n      revert\n        /* \"#utility.yul\":2311:2363   */\n    tag_454:\n        /* \"#utility.yul\":2398:2407   */\n      dup4\n        /* \"#utility.yul\":2385:2408   */\n      calldataload\n        /* \"#utility.yul\":2417:2448   */\n      tag_455\n        /* \"#utility.yul\":2442:2447   */\n      dup2\n        /* \"#utility.yul\":2417:2448   */\n      tag_420\n      jump\t// in\n    tag_455:\n        /* \"#utility.yul\":2467:2472   */\n      swap3\n      pop\n        /* \"#utility.yul\":2524:2526   */\n      0x20\n        /* \"#utility.yul\":2509:2527   */\n      dup5\n      add\n        /* \"#utility.yul\":2496:2528   */\n      calldataload\n        /* \"#utility.yul\":2537:2570   */\n      tag_456\n        /* \"#utility.yul\":2496:2528   */\n      dup2\n        /* \"#utility.yul\":2537:2570   */\n      tag_420\n      jump\t// in\n    tag_456:\n        /* \"#utility.yul\":2197:2653   */\n      swap3\n      swap6\n        /* \"#utility.yul\":2589:2596   */\n      swap3\n      swap5\n      pop\n      pop\n      pop\n        /* \"#utility.yul\":2643:2645   */\n      0x40\n        /* \"#utility.yul\":2628:2646   */\n      swap2\n      swap1\n      swap2\n      add\n        /* \"#utility.yul\":2615:2647   */\n      calldataload\n      swap1\n        /* \"#utility.yul\":2197:2653   */\n      jump\t// out\n        /* \"#utility.yul\":2837:3559   */\n    tag_52:\n        /* \"#utility.yul\":3058:3060   */\n      0x20\n        /* \"#utility.yul\":3110:3131   */\n      dup1\n      dup3\n      mstore\n        /* \"#utility.yul\":3180:3193   */\n      dup3\n      mload\n        /* \"#utility.yul\":3083:3101   */\n      dup3\n      dup3\n      add\n        /* \"#utility.yul\":3202:3224   */\n      dup2\n      swap1\n      mstore\n        /* \"#utility.yul\":3029:3033   */\n      0x00\n      swap2\n        /* \"#utility.yul\":3058:3060   */\n      swap1\n        /* \"#utility.yul\":3243:3245   */\n      0x40\n      swap1\n        /* \"#utility.yul\":3261:3279   */\n      dup2\n      dup6\n      add\n      swap1\n        /* \"#utility.yul\":3302:3317   */\n      dup7\n      dup5\n      add\n        /* \"#utility.yul\":3029:3033   */\n      dup6\n        /* \"#utility.yul\":3345:3533   */\n    tag_459:\n        /* \"#utility.yul\":3359:3365   */\n      dup3\n        /* \"#utility.yul\":3356:3357   */\n      dup2\n        /* \"#utility.yul\":3353:3366   */\n      lt\n        /* \"#utility.yul\":3345:3533   */\n      iszero\n      tag_461\n      jumpi\n        /* \"#utility.yul\":3408:3453   */\n      tag_462\n        /* \"#utility.yul\":3449:3452   */\n      dup5\n        /* \"#utility.yul\":3440:3446   */\n      dup4\n        /* \"#utility.yul\":3434:3447   */\n      mload\n        /* \"#utility.yul\":2731:2743   */\n      dup1\n      mload\n        /* \"#utility.yul\":2719:2744   */\n      dup3\n      mstore\n        /* \"#utility.yul\":2797:2801   */\n      0x20\n        /* \"#utility.yul\":2786:2802   */\n      swap1\n      dup2\n      add\n        /* \"#utility.yul\":2780:2803   */\n      mload\n      sub(shl(0xa0, 0x01), 0x01)\n        /* \"#utility.yul\":2776:2825   */\n      and\n        /* \"#utility.yul\":2760:2774   */\n      swap2\n      add\n        /* \"#utility.yul\":2753:2826   */\n      mstore\n        /* \"#utility.yul\":2658:2832   */\n      jump\n        /* \"#utility.yul\":3408:3453   */\n    tag_462:\n        /* \"#utility.yul\":3473:3485   */\n      swap3\n      dup5\n      add\n      swap3\n        /* \"#utility.yul\":3508:3523   */\n      swap1\n      dup6\n      add\n      swap1\n        /* \"#utility.yul\":3381:3382   */\n      0x01\n        /* \"#utility.yul\":3374:3383   */\n      add\n        /* \"#utility.yul\":3345:3533   */\n      jump(tag_459)\n    tag_461:\n      pop\n        /* \"#utility.yul\":3550:3553   */\n      swap2\n      swap8\n        /* \"#utility.yul\":2837:3559   */\n      swap7\n      pop\n      pop\n      pop\n      pop\n      pop\n      pop\n      pop\n      jump\t// out\n        /* \"#utility.yul\":3564:3810   */\n    tag_60:\n        /* \"#utility.yul\":2731:2743   */\n      dup2\n      mload\n        /* \"#utility.yul\":2719:2744   */\n      dup2\n      mstore\n        /* \"#utility.yul\":2797:2801   */\n      0x20\n        /* \"#utility.yul\":2786:2802   */\n      dup1\n      dup4\n      add\n        /* \"#utility.yul\":2780:2803   */\n      mload\n      sub(shl(0xa0, 0x01), 0x01)\n        /* \"#utility.yul\":2776:2825   */\n      and\n        /* \"#utility.yul\":2760:2774   */\n      swap1\n      dup3\n      add\n        /* \"#utility.yul\":2753:2826   */\n      mstore\n        /* \"#utility.yul\":3748:3750   */\n      0x40\n        /* \"#utility.yul\":3733:3751   */\n      dup2\n      add\n        /* \"#utility.yul\":3760:3804   */\n      tag_108\n        /* \"#utility.yul\":2658:2832   */\n      jump\n        /* \"#utility.yul\":3815:3942   */\n    tag_158:\n        /* \"#utility.yul\":3876:3886   */\n      0x4e487b71\n        /* \"#utility.yul\":3871:3874   */\n      0xe0\n        /* \"#utility.yul\":3867:3887   */\n      shl\n        /* \"#utility.yul\":3864:3865   */\n      0x00\n        /* \"#utility.yul\":3857:3888   */\n      mstore\n        /* \"#utility.yul\":3907:3911   */\n      0x41\n        /* \"#utility.yul\":3904:3905   */\n      0x04\n        /* \"#utility.yul\":3897:3912   */\n      mstore\n        /* \"#utility.yul\":3931:3935   */\n      0x24\n        /* \"#utility.yul\":3928:3929   */\n      0x00\n        /* \"#utility.yul\":3921:3936   */\n      revert\n        /* \"#utility.yul\":3947:4222   */\n    tag_422:\n        /* \"#utility.yul\":4018:4020   */\n      0x40\n        /* \"#utility.yul\":4012:4021   */\n      mload\n        /* \"#utility.yul\":4083:4085   */\n      0x1f\n        /* \"#utility.yul\":4064:4077   */\n      dup3\n      add\n      not(0x1f)\n        /* \"#utility.yul\":4060:4087   */\n      and\n        /* \"#utility.yul\":4048:4088   */\n      dup2\n      add\n        /* \"#utility.yul\":4118:4136   */\n      0xffffffffffffffff\n        /* \"#utility.yul\":4103:4137   */\n      dup2\n      gt\n        /* \"#utility.yul\":4139:4161   */\n      dup3\n      dup3\n      lt\n        /* \"#utility.yul\":4100:4162   */\n      or\n        /* \"#utility.yul\":4097:4185   */\n      iszero\n      tag_468\n      jumpi\n        /* \"#utility.yul\":4165:4183   */\n      tag_468\n      tag_158\n      jump\t// in\n    tag_468:\n        /* \"#utility.yul\":4201:4203   */\n      0x40\n        /* \"#utility.yul\":4194:4216   */\n      mstore\n        /* \"#utility.yul\":3947:4222   */\n      swap2\n      swap1\n      pop\n      jump\t// out\n        /* \"#utility.yul\":4227:4634   */\n    tag_423:\n        /* \"#utility.yul\":4292:4297   */\n      0x00\n        /* \"#utility.yul\":4326:4344   */\n      0xffffffffffffffff\n        /* \"#utility.yul\":4318:4324   */\n      dup4\n        /* \"#utility.yul\":4315:4345   */\n      gt\n        /* \"#utility.yul\":4312:4368   */\n      iszero\n      tag_471\n      jumpi\n        /* \"#utility.yul\":4348:4366   */\n      tag_471\n      tag_158\n      jump\t// in\n    tag_471:\n        /* \"#utility.yul\":4386:4443   */\n      tag_472\n        /* \"#utility.yul\":4431:4433   */\n      0x1f\n        /* \"#utility.yul\":4410:4425   */\n      dup5\n      add\n      not(0x1f)\n        /* \"#utility.yul\":4406:4435   */\n      and\n        /* \"#utility.yul\":4437:4441   */\n      0x20\n        /* \"#utility.yul\":4402:4442   */\n      add\n        /* \"#utility.yul\":4386:4443   */\n      tag_422\n      jump\t// in\n    tag_472:\n        /* \"#utility.yul\":4377:4443   */\n      swap1\n      pop\n        /* \"#utility.yul\":4466:4472   */\n      dup3\n        /* \"#utility.yul\":4459:4464   */\n      dup2\n        /* \"#utility.yul\":4452:4473   */\n      mstore\n        /* \"#utility.yul\":4506:4509   */\n      dup4\n        /* \"#utility.yul\":4497:4503   */\n      dup4\n        /* \"#utility.yul\":4492:4495   */\n      dup4\n        /* \"#utility.yul\":4488:4504   */\n      add\n        /* \"#utility.yul\":4485:4510   */\n      gt\n        /* \"#utility.yul\":4482:4527   */\n      iszero\n      tag_473\n      jumpi\n        /* \"#utility.yul\":4523:4524   */\n      0x00\n        /* \"#utility.yul\":4520:4521   */\n      dup1\n        /* \"#utility.yul\":4513:4525   */\n      revert\n        /* \"#utility.yul\":4482:4527   */\n    tag_473:\n        /* \"#utility.yul\":4572:4578   */\n      dup3\n        /* \"#utility.yul\":4567:4570   */\n      dup3\n        /* \"#utility.yul\":4560:4564   */\n      0x20\n        /* \"#utility.yul\":4553:4558   */\n      dup4\n        /* \"#utility.yul\":4549:4565   */\n      add\n        /* \"#utility.yul\":4536:4579   */\n      calldatacopy\n        /* \"#utility.yul\":4626:4627   */\n      0x00\n        /* \"#utility.yul\":4619:4623   */\n      0x20\n        /* \"#utility.yul\":4610:4616   */\n      dup5\n        /* \"#utility.yul\":4603:4608   */\n      dup4\n        /* \"#utility.yul\":4599:4617   */\n      add\n        /* \"#utility.yul\":4595:4624   */\n      add\n        /* \"#utility.yul\":4588:4628   */\n      mstore\n        /* \"#utility.yul\":4227:4634   */\n      swap4\n      swap3\n      pop\n      pop\n      pop\n      jump\t// out\n        /* \"#utility.yul\":4639:5090   */\n    tag_67:\n        /* \"#utility.yul\":4708:4714   */\n      0x00\n        /* \"#utility.yul\":4761:4763   */\n      0x20\n        /* \"#utility.yul\":4749:4758   */\n      dup3\n        /* \"#utility.yul\":4740:4747   */\n      dup5\n        /* \"#utility.yul\":4736:4759   */\n      sub\n        /* \"#utility.yul\":4732:4764   */\n      slt\n        /* \"#utility.yul\":4729:4781   */\n      iszero\n      tag_475\n      jumpi\n        /* \"#utility.yul\":4777:4778   */\n      0x00\n        /* \"#utility.yul\":4774:4775   */\n      dup1\n        /* \"#utility.yul\":4767:4779   */\n      revert\n        /* \"#utility.yul\":4729:4781   */\n    tag_475:\n        /* \"#utility.yul\":4817:4826   */\n      dup2\n        /* \"#utility.yul\":4804:4827   */\n      calldataload\n        /* \"#utility.yul\":4850:4868   */\n      0xffffffffffffffff\n        /* \"#utility.yul\":4842:4848   */\n      dup2\n        /* \"#utility.yul\":4839:4869   */\n      gt\n        /* \"#utility.yul\":4836:4886   */\n      iszero\n      tag_476\n      jumpi\n        /* \"#utility.yul\":4882:4883   */\n      0x00\n        /* \"#utility.yul\":4879:4880   */\n      dup1\n        /* \"#utility.yul\":4872:4884   */\n      revert\n        /* \"#utility.yul\":4836:4886   */\n    tag_476:\n        /* \"#utility.yul\":4905:4927   */\n      dup3\n      add\n        /* \"#utility.yul\":4958:4962   */\n      0x1f\n        /* \"#utility.yul\":4950:4963   */\n      dup2\n      add\n        /* \"#utility.yul\":4946:4973   */\n      dup5\n      sgt\n        /* \"#utility.yul\":4936:4991   */\n      tag_477\n      jumpi\n        /* \"#utility.yul\":4987:4988   */\n      0x00\n        /* \"#utility.yul\":4984:4985   */\n      dup1\n        /* \"#utility.yul\":4977:4989   */\n      revert\n        /* \"#utility.yul\":4936:4991   */\n    tag_477:\n        /* \"#utility.yul\":5010:5084   */\n      tag_263\n        /* \"#utility.yul\":5076:5083   */\n      dup5\n        /* \"#utility.yul\":5071:5073   */\n      dup3\n        /* \"#utility.yul\":5058:5074   */\n      calldataload\n        /* \"#utility.yul\":5053:5055   */\n      0x20\n        /* \"#utility.yul\":5049:5051   */\n      dup5\n        /* \"#utility.yul\":5045:5056   */\n      add\n        /* \"#utility.yul\":5010:5084   */\n      tag_423\n      jump\t// in\n        /* \"#utility.yul\":5277:5524   */\n    tag_73:\n        /* \"#utility.yul\":5336:5342   */\n      0x00\n        /* \"#utility.yul\":5389:5391   */\n      0x20\n        /* \"#utility.yul\":5377:5386   */\n      dup3\n        /* \"#utility.yul\":5368:5375   */\n      dup5\n        /* \"#utility.yul\":5364:5387   */\n      sub\n        /* \"#utility.yul\":5360:5392   */\n      slt\n        /* \"#utility.yul\":5357:5409   */\n      iszero\n      tag_481\n      jumpi\n        /* \"#utility.yul\":5405:5406   */\n      0x00\n        /* \"#utility.yul\":5402:5403   */\n      dup1\n        /* \"#utility.yul\":5395:5407   */\n      revert\n        /* \"#utility.yul\":5357:5409   */\n    tag_481:\n        /* \"#utility.yul\":5444:5453   */\n      dup2\n        /* \"#utility.yul\":5431:5454   */\n      calldataload\n        /* \"#utility.yul\":5463:5494   */\n      tag_330\n        /* \"#utility.yul\":5488:5493   */\n      dup2\n        /* \"#utility.yul\":5463:5494   */\n      tag_420\n      jump\t// in\n        /* \"#utility.yul\":5529:5647   */\n    tag_424:\n        /* \"#utility.yul\":5615:5620   */\n      dup1\n        /* \"#utility.yul\":5608:5621   */\n      iszero\n        /* \"#utility.yul\":5601:5622   */\n      iszero\n        /* \"#utility.yul\":5594:5599   */\n      dup2\n        /* \"#utility.yul\":5591:5623   */\n      eq\n        /* \"#utility.yul\":5581:5641   */\n      tag_273\n      jumpi\n        /* \"#utility.yul\":5637:5638   */\n      0x00\n        /* \"#utility.yul\":5634:5635   */\n      dup1\n        /* \"#utility.yul\":5627:5639   */\n      revert\n        /* \"#utility.yul\":5652:6034   */\n    tag_87:\n        /* \"#utility.yul\":5717:5723   */\n      0x00\n        /* \"#utility.yul\":5725:5731   */\n      dup1\n        /* \"#utility.yul\":5778:5780   */\n      0x40\n        /* \"#utility.yul\":5766:5775   */\n      dup4\n        /* \"#utility.yul\":5757:5764   */\n      dup6\n        /* \"#utility.yul\":5753:5776   */\n      sub\n        /* \"#utility.yul\":5749:5781   */\n      slt\n        /* \"#utility.yul\":5746:5798   */\n      iszero\n      tag_486\n      jumpi\n        /* \"#utility.yul\":5794:5795   */\n      0x00\n        /* \"#utility.yul\":5791:5792   */\n      dup1\n        /* \"#utility.yul\":5784:5796   */\n      revert\n        /* \"#utility.yul\":5746:5798   */\n    tag_486:\n        /* \"#utility.yul\":5833:5842   */\n      dup3\n        /* \"#utility.yul\":5820:5843   */\n      calldataload\n        /* \"#utility.yul\":5852:5883   */\n      tag_487\n        /* \"#utility.yul\":5877:5882   */\n      dup2\n        /* \"#utility.yul\":5852:5883   */\n      tag_420\n      jump\t// in\n    tag_487:\n        /* \"#utility.yul\":5902:5907   */\n      swap2\n      pop\n        /* \"#utility.yul\":5959:5961   */\n      0x20\n        /* \"#utility.yul\":5944:5962   */\n      dup4\n      add\n        /* \"#utility.yul\":5931:5963   */\n      calldataload\n        /* \"#utility.yul\":5972:6002   */\n      tag_488\n        /* \"#utility.yul\":5931:5963   */\n      dup2\n        /* \"#utility.yul\":5972:6002   */\n      tag_424\n      jump\t// in\n    tag_488:\n        /* \"#utility.yul\":6021:6028   */\n      dup1\n        /* \"#utility.yul\":6011:6028   */\n      swap2\n      pop\n      pop\n        /* \"#utility.yul\":5652:6034   */\n      swap3\n      pop\n      swap3\n      swap1\n      pop\n      jump\t// out\n        /* \"#utility.yul\":6039:6834   */\n    tag_91:\n        /* \"#utility.yul\":6134:6140   */\n      0x00\n        /* \"#utility.yul\":6142:6148   */\n      dup1\n        /* \"#utility.yul\":6150:6156   */\n      0x00\n        /* \"#utility.yul\":6158:6164   */\n      dup1\n        /* \"#utility.yul\":6211:6214   */\n      0x80\n        /* \"#utility.yul\":6199:6208   */\n      dup6\n        /* \"#utility.yul\":6190:6197   */\n      dup8\n        /* \"#utility.yul\":6186:6209   */\n      sub\n        /* \"#utility.yul\":6182:6215   */\n      slt\n        /* \"#utility.yul\":6179:6232   */\n      iszero\n      tag_490\n      jumpi\n        /* \"#utility.yul\":6228:6229   */\n      0x00\n        /* \"#utility.yul\":6225:6226   */\n      dup1\n        /* \"#utility.yul\":6218:6230   */\n      revert\n        /* \"#utility.yul\":6179:6232   */\n    tag_490:\n        /* \"#utility.yul\":6267:6276   */\n      dup5\n        /* \"#utility.yul\":6254:6277   */\n      calldataload\n        /* \"#utility.yul\":6286:6317   */\n      tag_491\n        /* \"#utility.yul\":6311:6316   */\n      dup2\n        /* \"#utility.yul\":6286:6317   */\n      tag_420\n      jump\t// in\n    tag_491:\n        /* \"#utility.yul\":6336:6341   */\n      swap4\n      pop\n        /* \"#utility.yul\":6393:6395   */\n      0x20\n        /* \"#utility.yul\":6378:6396   */\n      dup6\n      add\n        /* \"#utility.yul\":6365:6397   */\n      calldataload\n        /* \"#utility.yul\":6406:6439   */\n      tag_492\n        /* \"#utility.yul\":6365:6397   */\n      dup2\n        /* \"#utility.yul\":6406:6439   */\n      tag_420\n      jump\t// in\n    tag_492:\n        /* \"#utility.yul\":6458:6465   */\n      swap3\n      pop\n        /* \"#utility.yul\":6512:6514   */\n      0x40\n        /* \"#utility.yul\":6497:6515   */\n      dup6\n      add\n        /* \"#utility.yul\":6484:6516   */\n      calldataload\n      swap2\n      pop\n        /* \"#utility.yul\":6567:6569   */\n      0x60\n        /* \"#utility.yul\":6552:6570   */\n      dup6\n      add\n        /* \"#utility.yul\":6539:6571   */\n      calldataload\n        /* \"#utility.yul\":6594:6612   */\n      0xffffffffffffffff\n        /* \"#utility.yul\":6583:6613   */\n      dup2\n      gt\n        /* \"#utility.yul\":6580:6630   */\n      iszero\n      tag_493\n      jumpi\n        /* \"#utility.yul\":6626:6627   */\n      0x00\n        /* \"#utility.yul\":6623:6624   */\n      dup1\n        /* \"#utility.yul\":6616:6628   */\n      revert\n        /* \"#utility.yul\":6580:6630   */\n    tag_493:\n        /* \"#utility.yul\":6649:6671   */\n      dup6\n      add\n        /* \"#utility.yul\":6702:6706   */\n      0x1f\n        /* \"#utility.yul\":6694:6707   */\n      dup2\n      add\n        /* \"#utility.yul\":6690:6717   */\n      dup8\n      sgt\n        /* \"#utility.yul\":6680:6735   */\n      tag_494\n      jumpi\n        /* \"#utility.yul\":6731:6732   */\n      0x00\n        /* \"#utility.yul\":6728:6729   */\n      dup1\n        /* \"#utility.yul\":6721:6733   */\n      revert\n        /* \"#utility.yul\":6680:6735   */\n    tag_494:\n        /* \"#utility.yul\":6754:6828   */\n      tag_495\n        /* \"#utility.yul\":6820:6827   */\n      dup8\n        /* \"#utility.yul\":6815:6817   */\n      dup3\n        /* \"#utility.yul\":6802:6818   */\n      calldataload\n        /* \"#utility.yul\":6797:6799   */\n      0x20\n        /* \"#utility.yul\":6793:6795   */\n      dup5\n        /* \"#utility.yul\":6789:6800   */\n      add\n        /* \"#utility.yul\":6754:6828   */\n      tag_423\n      jump\t// in\n    tag_495:\n        /* \"#utility.yul\":6744:6828   */\n      swap2\n      pop\n      pop\n        /* \"#utility.yul\":6039:6834   */\n      swap3\n      swap6\n      swap2\n      swap5\n      pop\n      swap3\n      pop\n      jump\t// out\n        /* \"#utility.yul\":6839:7227   */\n    tag_102:\n        /* \"#utility.yul\":6907:6913   */\n      0x00\n        /* \"#utility.yul\":6915:6921   */\n      dup1\n        /* \"#utility.yul\":6968:6970   */\n      0x40\n        /* \"#utility.yul\":6956:6965   */\n      dup4\n        /* \"#utility.yul\":6947:6954   */\n      dup6\n        /* \"#utility.yul\":6943:6966   */\n      sub\n        /* \"#utility.yul\":6939:6971   */\n      slt\n        /* \"#utility.yul\":6936:6988   */\n      iszero\n      tag_497\n      jumpi\n        /* \"#utility.yul\":6984:6985   */\n      0x00\n        /* \"#utility.yul\":6981:6982   */\n      dup1\n        /* \"#utility.yul\":6974:6986   */\n      revert\n        /* \"#utility.yul\":6936:6988   */\n    tag_497:\n        /* \"#utility.yul\":7023:7032   */\n      dup3\n        /* \"#utility.yul\":7010:7033   */\n      calldataload\n        /* \"#utility.yul\":7042:7073   */\n      tag_498\n        /* \"#utility.yul\":7067:7072   */\n      dup2\n        /* \"#utility.yul\":7042:7073   */\n      tag_420\n      jump\t// in\n    tag_498:\n        /* \"#utility.yul\":7092:7097   */\n      swap2\n      pop\n        /* \"#utility.yul\":7149:7151   */\n      0x20\n        /* \"#utility.yul\":7134:7152   */\n      dup4\n      add\n        /* \"#utility.yul\":7121:7153   */\n      calldataload\n        /* \"#utility.yul\":7162:7195   */\n      tag_488\n        /* \"#utility.yul\":7121:7153   */\n      dup2\n        /* \"#utility.yul\":7162:7195   */\n      tag_420\n      jump\t// in\n        /* \"#utility.yul\":7232:7612   */\n    tag_112:\n        /* \"#utility.yul\":7311:7312   */\n      0x01\n        /* \"#utility.yul\":7307:7319   */\n      dup2\n      dup2\n      shr\n      swap1\n        /* \"#utility.yul\":7354:7366   */\n      dup3\n      and\n      dup1\n        /* \"#utility.yul\":7375:7436   */\n      tag_501\n      jumpi\n        /* \"#utility.yul\":7429:7433   */\n      0x7f\n        /* \"#utility.yul\":7421:7427   */\n      dup3\n        /* \"#utility.yul\":7417:7434   */\n      and\n        /* \"#utility.yul\":7407:7434   */\n      swap2\n      pop\n        /* \"#utility.yul\":7375:7436   */\n    tag_501:\n        /* \"#utility.yul\":7482:7484   */\n      0x20\n        /* \"#utility.yul\":7474:7480   */\n      dup3\n        /* \"#utility.yul\":7471:7485   */\n      lt\n        /* \"#utility.yul\":7451:7469   */\n      dup2\n        /* \"#utility.yul\":7448:7486   */\n      sub\n        /* \"#utility.yul\":7445:7606   */\n      tag_502\n      jumpi\n        /* \"#utility.yul\":7528:7538   */\n      0x4e487b71\n        /* \"#utility.yul\":7523:7526   */\n      0xe0\n        /* \"#utility.yul\":7519:7539   */\n      shl\n        /* \"#utility.yul\":7516:7517   */\n      0x00\n        /* \"#utility.yul\":7509:7540   */\n      mstore\n        /* \"#utility.yul\":7563:7567   */\n      0x22\n        /* \"#utility.yul\":7560:7561   */\n      0x04\n        /* \"#utility.yul\":7553:7568   */\n      mstore\n        /* \"#utility.yul\":7591:7595   */\n      0x24\n        /* \"#utility.yul\":7588:7589   */\n      0x00\n        /* \"#utility.yul\":7581:7596   */\n      revert\n        /* \"#utility.yul\":7445:7606   */\n    tag_502:\n      pop\n        /* \"#utility.yul\":7232:7612   */\n      swap2\n      swap1\n      pop\n      jump\t// out\n        /* \"#utility.yul\":8449:8858   */\n    tag_141:\n        /* \"#utility.yul\":8651:8653   */\n      0x20\n        /* \"#utility.yul\":8633:8654   */\n      dup1\n      dup3\n      mstore\n        /* \"#utility.yul\":8690:8692   */\n      0x2d\n        /* \"#utility.yul\":8670:8688   */\n      swap1\n      dup3\n      add\n        /* \"#utility.yul\":8663:8693   */\n      mstore\n        /* \"#utility.yul\":8729:8763   */\n      0x4552433732313a2063616c6c6572206973206e6f7420746f6b656e206f776e65\n        /* \"#utility.yul\":8724:8726   */\n      0x40\n        /* \"#utility.yul\":8709:8727   */\n      dup3\n      add\n        /* \"#utility.yul\":8702:8764   */\n      mstore\n      shl(0x9a, 0x1c881bdc88185c1c1c9bdd9959)\n        /* \"#utility.yul\":8795:8797   */\n      0x60\n        /* \"#utility.yul\":8780:8798   */\n      dup3\n      add\n        /* \"#utility.yul\":8773:8816   */\n      mstore\n        /* \"#utility.yul\":8848:8851   */\n      0x80\n        /* \"#utility.yul\":8833:8852   */\n      add\n      swap1\n        /* \"#utility.yul\":8449:8858   */\n      jump\t// out\n        /* \"#utility.yul\":8863:8990   */\n    tag_425:\n        /* \"#utility.yul\":8924:8934   */\n      0x4e487b71\n        /* \"#utility.yul\":8919:8922   */\n      0xe0\n        /* \"#utility.yul\":8915:8935   */\n      shl\n        /* \"#utility.yul\":8912:8913   */\n      0x00\n        /* \"#utility.yul\":8905:8936   */\n      mstore\n        /* \"#utility.yul\":8955:8959   */\n      0x11\n        /* \"#utility.yul\":8952:8953   */\n      0x04\n        /* \"#utility.yul\":8945:8960   */\n      mstore\n        /* \"#utility.yul\":8979:8983   */\n      0x24\n        /* \"#utility.yul\":8976:8977   */\n      0x00\n        /* \"#utility.yul\":8969:8984   */\n      revert\n        /* \"#utility.yul\":8995:9120   */\n    tag_151:\n        /* \"#utility.yul\":9060:9069   */\n      dup1\n      dup3\n      add\n        /* \"#utility.yul\":9081:9091   */\n      dup1\n      dup3\n      gt\n        /* \"#utility.yul\":9078:9114   */\n      iszero\n      tag_108\n      jumpi\n        /* \"#utility.yul\":9094:9112   */\n      tag_108\n      tag_425\n      jump\t// in\n        /* \"#utility.yul\":9125:9260   */\n    tag_155:\n        /* \"#utility.yul\":9164:9167   */\n      0x00\n        /* \"#utility.yul\":9185:9202   */\n      0x01\n      dup3\n      add\n        /* \"#utility.yul\":9182:9225   */\n      tag_512\n      jumpi\n        /* \"#utility.yul\":9205:9223   */\n      tag_512\n      tag_425\n      jump\t// in\n    tag_512:\n      pop\n        /* \"#utility.yul\":9252:9253   */\n      0x01\n        /* \"#utility.yul\":9241:9254   */\n      add\n      swap1\n        /* \"#utility.yul\":9125:9260   */\n      jump\t// out\n        /* \"#utility.yul\":9265:9392   */\n    tag_171:\n        /* \"#utility.yul\":9326:9336   */\n      0x4e487b71\n        /* \"#utility.yul\":9321:9324   */\n      0xe0\n        /* \"#utility.yul\":9317:9337   */\n      shl\n        /* \"#utility.yul\":9314:9315   */\n      0x00\n        /* \"#utility.yul\":9307:9338   */\n      mstore\n        /* \"#utility.yul\":9357:9361   */\n      0x32\n        /* \"#utility.yul\":9354:9355   */\n      0x04\n        /* \"#utility.yul\":9347:9362   */\n      mstore\n        /* \"#utility.yul\":9381:9385   */\n      0x24\n        /* \"#utility.yul\":9378:9379   */\n      0x00\n        /* \"#utility.yul\":9371:9386   */\n      revert\n        /* \"#utility.yul\":10160:10405   */\n    tag_205:\n        /* \"#utility.yul\":10227:10233   */\n      0x00\n        /* \"#utility.yul\":10280:10282   */\n      0x20\n        /* \"#utility.yul\":10268:10277   */\n      dup3\n        /* \"#utility.yul\":10259:10266   */\n      dup5\n        /* \"#utility.yul\":10255:10278   */\n      sub\n        /* \"#utility.yul\":10251:10283   */\n      slt\n        /* \"#utility.yul\":10248:10300   */\n      iszero\n      tag_517\n      jumpi\n        /* \"#utility.yul\":10296:10297   */\n      0x00\n        /* \"#utility.yul\":10293:10294   */\n      dup1\n        /* \"#utility.yul\":10286:10298   */\n      revert\n        /* \"#utility.yul\":10248:10300   */\n    tag_517:\n        /* \"#utility.yul\":10328:10337   */\n      dup2\n        /* \"#utility.yul\":10322:10338   */\n      mload\n        /* \"#utility.yul\":10347:10375   */\n      tag_330\n        /* \"#utility.yul\":10369:10374   */\n      dup2\n        /* \"#utility.yul\":10347:10375   */\n      tag_424\n      jump\t// in\n        /* \"#utility.yul\":10828:11011   */\n    tag_426:\n        /* \"#utility.yul\":10888:10892   */\n      0x00\n        /* \"#utility.yul\":10921:10939   */\n      0xffffffffffffffff\n        /* \"#utility.yul\":10913:10919   */\n      dup3\n        /* \"#utility.yul\":10910:10940   */\n      gt\n        /* \"#utility.yul\":10907:10963   */\n      iszero\n      tag_522\n      jumpi\n        /* \"#utility.yul\":10943:10961   */\n      tag_522\n      tag_158\n      jump\t// in\n    tag_522:\n      pop\n        /* \"#utility.yul\":10988:10989   */\n      0x05\n        /* \"#utility.yul\":10984:10998   */\n      shl\n        /* \"#utility.yul\":11000:11004   */\n      0x20\n        /* \"#utility.yul\":10980:11005   */\n      add\n      swap1\n        /* \"#utility.yul\":10828:11011   */\n      jump\t// out\n        /* \"#utility.yul\":11016:11972   */\n    tag_212:\n        /* \"#utility.yul\":11111:11117   */\n      0x00\n        /* \"#utility.yul\":11142:11144   */\n      0x20\n        /* \"#utility.yul\":11185:11187   */\n      dup1\n        /* \"#utility.yul\":11173:11182   */\n      dup4\n        /* \"#utility.yul\":11164:11171   */\n      dup6\n        /* \"#utility.yul\":11160:11183   */\n      sub\n        /* \"#utility.yul\":11156:11188   */\n      slt\n        /* \"#utility.yul\":11153:11205   */\n      iszero\n      tag_524\n      jumpi\n        /* \"#utility.yul\":11201:11202   */\n      0x00\n        /* \"#utility.yul\":11198:11199   */\n      dup1\n        /* \"#utility.yul\":11191:11203   */\n      revert\n        /* \"#utility.yul\":11153:11205   */\n    tag_524:\n        /* \"#utility.yul\":11234:11243   */\n      dup3\n        /* \"#utility.yul\":11228:11244   */\n      mload\n        /* \"#utility.yul\":11267:11285   */\n      0xffffffffffffffff\n        /* \"#utility.yul\":11259:11265   */\n      dup2\n        /* \"#utility.yul\":11256:11286   */\n      gt\n        /* \"#utility.yul\":11253:11303   */\n      iszero\n      tag_525\n      jumpi\n        /* \"#utility.yul\":11299:11300   */\n      0x00\n        /* \"#utility.yul\":11296:11297   */\n      dup1\n        /* \"#utility.yul\":11289:11301   */\n      revert\n        /* \"#utility.yul\":11253:11303   */\n    tag_525:\n        /* \"#utility.yul\":11322:11344   */\n      dup4\n      add\n        /* \"#utility.yul\":11375:11379   */\n      0x1f\n        /* \"#utility.yul\":11367:11380   */\n      dup2\n      add\n        /* \"#utility.yul\":11363:11390   */\n      dup6\n      sgt\n        /* \"#utility.yul\":11353:11408   */\n      tag_526\n      jumpi\n        /* \"#utility.yul\":11404:11405   */\n      0x00\n        /* \"#utility.yul\":11401:11402   */\n      dup1\n        /* \"#utility.yul\":11394:11406   */\n      revert\n        /* \"#utility.yul\":11353:11408   */\n    tag_526:\n        /* \"#utility.yul\":11433:11435   */\n      dup1\n        /* \"#utility.yul\":11427:11436   */\n      mload\n        /* \"#utility.yul\":11456:11516   */\n      tag_527\n        /* \"#utility.yul\":11472:11515   */\n      tag_528\n        /* \"#utility.yul\":11512:11514   */\n      dup3\n        /* \"#utility.yul\":11472:11515   */\n      tag_426\n      jump\t// in\n    tag_528:\n        /* \"#utility.yul\":11456:11516   */\n      tag_422\n      jump\t// in\n    tag_527:\n        /* \"#utility.yul\":11550:11565   */\n      dup2\n      dup2\n      mstore\n        /* \"#utility.yul\":11632:11633   */\n      0x05\n        /* \"#utility.yul\":11628:11638   */\n      swap2\n      swap1\n      swap2\n      shl\n        /* \"#utility.yul\":11620:11639   */\n      dup3\n      add\n        /* \"#utility.yul\":11616:11644   */\n      dup4\n      add\n      swap1\n        /* \"#utility.yul\":11581:11593   */\n      dup4\n      dup2\n      add\n      swap1\n        /* \"#utility.yul\":11656:11675   */\n      dup8\n      dup4\n      gt\n        /* \"#utility.yul\":11653:11692   */\n      iszero\n      tag_529\n      jumpi\n        /* \"#utility.yul\":11688:11689   */\n      0x00\n        /* \"#utility.yul\":11685:11686   */\n      dup1\n        /* \"#utility.yul\":11678:11690   */\n      revert\n        /* \"#utility.yul\":11653:11692   */\n    tag_529:\n        /* \"#utility.yul\":11712:11723   */\n      swap3\n      dup5\n      add\n      swap3\n        /* \"#utility.yul\":11732:11942   */\n    tag_530:\n        /* \"#utility.yul\":11748:11754   */\n      dup3\n        /* \"#utility.yul\":11743:11746   */\n      dup5\n        /* \"#utility.yul\":11740:11755   */\n      lt\n        /* \"#utility.yul\":11732:11942   */\n      iszero\n      tag_532\n      jumpi\n        /* \"#utility.yul\":11821:11824   */\n      dup4\n        /* \"#utility.yul\":11815:11825   */\n      mload\n        /* \"#utility.yul\":11838:11869   */\n      tag_533\n        /* \"#utility.yul\":11863:11868   */\n      dup2\n        /* \"#utility.yul\":11838:11869   */\n      tag_420\n      jump\t// in\n    tag_533:\n        /* \"#utility.yul\":11882:11900   */\n      dup3\n      mstore\n        /* \"#utility.yul\":11765:11777   */\n      swap3\n      dup5\n      add\n      swap3\n        /* \"#utility.yul\":11920:11932   */\n      swap1\n      dup5\n      add\n      swap1\n        /* \"#utility.yul\":11732:11942   */\n      jump(tag_530)\n    tag_532:\n        /* \"#utility.yul\":11961:11966   */\n      swap8\n        /* \"#utility.yul\":11016:11972   */\n      swap7\n      pop\n      pop\n      pop\n      pop\n      pop\n      pop\n      pop\n      jump\t// out\n        /* \"#utility.yul\":11977:12858   */\n    tag_222:\n        /* \"#utility.yul\":12072:12078   */\n      0x00\n        /* \"#utility.yul\":12103:12105   */\n      0x20\n        /* \"#utility.yul\":12146:12148   */\n      dup1\n        /* \"#utility.yul\":12134:12143   */\n      dup4\n        /* \"#utility.yul\":12125:12132   */\n      dup6\n        /* \"#utility.yul\":12121:12144   */\n      sub\n        /* \"#utility.yul\":12117:12149   */\n      slt\n        /* \"#utility.yul\":12114:12166   */\n      iszero\n      tag_535\n      jumpi\n        /* \"#utility.yul\":12162:12163   */\n      0x00\n        /* \"#utility.yul\":12159:12160   */\n      dup1\n        /* \"#utility.yul\":12152:12164   */\n      revert\n        /* \"#utility.yul\":12114:12166   */\n    tag_535:\n        /* \"#utility.yul\":12195:12204   */\n      dup3\n        /* \"#utility.yul\":12189:12205   */\n      mload\n        /* \"#utility.yul\":12228:12246   */\n      0xffffffffffffffff\n        /* \"#utility.yul\":12220:12226   */\n      dup2\n        /* \"#utility.yul\":12217:12247   */\n      gt\n        /* \"#utility.yul\":12214:12264   */\n      iszero\n      tag_536\n      jumpi\n        /* \"#utility.yul\":12260:12261   */\n      0x00\n        /* \"#utility.yul\":12257:12258   */\n      dup1\n        /* \"#utility.yul\":12250:12262   */\n      revert\n        /* \"#utility.yul\":12214:12264   */\n    tag_536:\n        /* \"#utility.yul\":12283:12305   */\n      dup4\n      add\n        /* \"#utility.yul\":12336:12340   */\n      0x1f\n        /* \"#utility.yul\":12328:12341   */\n      dup2\n      add\n        /* \"#utility.yul\":12324:12351   */\n      dup6\n      sgt\n        /* \"#utility.yul\":12314:12369   */\n      tag_537\n      jumpi\n        /* \"#utility.yul\":12365:12366   */\n      0x00\n        /* \"#utility.yul\":12362:12363   */\n      dup1\n        /* \"#utility.yul\":12355:12367   */\n      revert\n        /* \"#utility.yul\":12314:12369   */\n    tag_537:\n        /* \"#utility.yul\":12394:12396   */\n      dup1\n        /* \"#utility.yul\":12388:12397   */\n      mload\n        /* \"#utility.yul\":12417:12477   */\n      tag_538\n        /* \"#utility.yul\":12433:12476   */\n      tag_528\n        /* \"#utility.yul\":12473:12475   */\n      dup3\n        /* \"#utility.yul\":12433:12476   */\n      tag_426\n      jump\t// in\n        /* \"#utility.yul\":12417:12477   */\n    tag_538:\n        /* \"#utility.yul\":12511:12526   */\n      dup2\n      dup2\n      mstore\n        /* \"#utility.yul\":12593:12594   */\n      0x05\n        /* \"#utility.yul\":12589:12599   */\n      swap2\n      swap1\n      swap2\n      shl\n        /* \"#utility.yul\":12581:12600   */\n      dup3\n      add\n        /* \"#utility.yul\":12577:12605   */\n      dup4\n      add\n      swap1\n        /* \"#utility.yul\":12542:12554   */\n      dup4\n      dup2\n      add\n      swap1\n        /* \"#utility.yul\":12617:12636   */\n      dup8\n      dup4\n      gt\n        /* \"#utility.yul\":12614:12653   */\n      iszero\n      tag_540\n      jumpi\n        /* \"#utility.yul\":12649:12650   */\n      0x00\n        /* \"#utility.yul\":12646:12647   */\n      dup1\n        /* \"#utility.yul\":12639:12651   */\n      revert\n        /* \"#utility.yul\":12614:12653   */\n    tag_540:\n        /* \"#utility.yul\":12673:12684   */\n      swap3\n      dup5\n      add\n      swap3\n        /* \"#utility.yul\":12693:12828   */\n    tag_541:\n        /* \"#utility.yul\":12709:12715   */\n      dup3\n        /* \"#utility.yul\":12704:12707   */\n      dup5\n        /* \"#utility.yul\":12701:12716   */\n      lt\n        /* \"#utility.yul\":12693:12828   */\n      iszero\n      tag_532\n      jumpi\n        /* \"#utility.yul\":12775:12785   */\n      dup4\n      mload\n        /* \"#utility.yul\":12763:12786   */\n      dup3\n      mstore\n        /* \"#utility.yul\":12726:12738   */\n      swap3\n      dup5\n      add\n      swap3\n        /* \"#utility.yul\":12806:12818   */\n      swap1\n      dup5\n      add\n      swap1\n        /* \"#utility.yul\":12693:12828   */\n      jump(tag_541)\n        /* \"#utility.yul\":12863:13359   */\n    tag_262:\n        /* \"#utility.yul\":13042:13045   */\n      0x00\n        /* \"#utility.yul\":13080:13086   */\n      dup4\n        /* \"#utility.yul\":13074:13087   */\n      mload\n        /* \"#utility.yul\":13096:13162   */\n      tag_545\n        /* \"#utility.yul\":13155:13161   */\n      dup2\n        /* \"#utility.yul\":13150:13153   */\n      dup5\n        /* \"#utility.yul\":13143:13147   */\n      0x20\n        /* \"#utility.yul\":13135:13141   */\n      dup9\n        /* \"#utility.yul\":13131:13148   */\n      add\n        /* \"#utility.yul\":13096:13162   */\n      tag_418\n      jump\t// in\n    tag_545:\n        /* \"#utility.yul\":13225:13238   */\n      dup4\n      mload\n        /* \"#utility.yul\":13184:13200   */\n      swap1\n      dup4\n      add\n      swap1\n        /* \"#utility.yul\":13247:13317   */\n      tag_546\n        /* \"#utility.yul\":13225:13238   */\n      dup2\n        /* \"#utility.yul\":13184:13200   */\n      dup4\n        /* \"#utility.yul\":13294:13298   */\n      0x20\n        /* \"#utility.yul\":13282:13299   */\n      dup9\n      add\n        /* \"#utility.yul\":13247:13317   */\n      tag_418\n      jump\t// in\n    tag_546:\n        /* \"#utility.yul\":13333:13353   */\n      add\n      swap5\n        /* \"#utility.yul\":12863:13359   */\n      swap4\n      pop\n      pop\n      pop\n      pop\n      jump\t// out\n        /* \"#utility.yul\":13364:13765   */\n    tag_288:\n        /* \"#utility.yul\":13566:13568   */\n      0x20\n        /* \"#utility.yul\":13548:13569   */\n      dup1\n      dup3\n      mstore\n        /* \"#utility.yul\":13605:13607   */\n      0x25\n        /* \"#utility.yul\":13585:13603   */\n      swap1\n      dup3\n      add\n        /* \"#utility.yul\":13578:13608   */\n      mstore\n        /* \"#utility.yul\":13644:13678   */\n      0x4552433732313a207472616e736665722066726f6d20696e636f727265637420\n        /* \"#utility.yul\":13639:13641   */\n      0x40\n        /* \"#utility.yul\":13624:13642   */\n      dup3\n      add\n        /* \"#utility.yul\":13617:13679   */\n      mstore\n      shl(0xd9, 0x37bbb732b9)\n        /* \"#utility.yul\":13710:13712   */\n      0x60\n        /* \"#utility.yul\":13695:13713   */\n      dup3\n      add\n        /* \"#utility.yul\":13688:13723   */\n      mstore\n        /* \"#utility.yul\":13755:13758   */\n      0x80\n        /* \"#utility.yul\":13740:13759   */\n      add\n      swap1\n        /* \"#utility.yul\":13364:13765   */\n      jump\t// out\n        /* \"#utility.yul\":14716:15261   */\n    tag_428:\n        /* \"#utility.yul\":14818:14820   */\n      0x1f\n        /* \"#utility.yul\":14813:14816   */\n      dup3\n        /* \"#utility.yul\":14810:14821   */\n      gt\n        /* \"#utility.yul\":14807:15255   */\n      iszero\n      tag_133\n      jumpi\n        /* \"#utility.yul\":14854:14855   */\n      0x00\n        /* \"#utility.yul\":14879:14884   */\n      dup2\n        /* \"#utility.yul\":14875:14877   */\n      dup2\n        /* \"#utility.yul\":14868:14885   */\n      mstore\n        /* \"#utility.yul\":14924:14928   */\n      0x20\n        /* \"#utility.yul\":14920:14922   */\n      dup2\n        /* \"#utility.yul\":14910:14929   */\n      keccak256\n        /* \"#utility.yul\":14994:14996   */\n      0x1f\n        /* \"#utility.yul\":14982:14992   */\n      dup6\n        /* \"#utility.yul\":14978:14997   */\n      add\n        /* \"#utility.yul\":14975:14976   */\n      0x05\n        /* \"#utility.yul\":14971:14998   */\n      shr\n        /* \"#utility.yul\":14965:14969   */\n      dup2\n        /* \"#utility.yul\":14961:14999   */\n      add\n        /* \"#utility.yul\":15030:15034   */\n      0x20\n        /* \"#utility.yul\":15018:15028   */\n      dup7\n        /* \"#utility.yul\":15015:15035   */\n      lt\n        /* \"#utility.yul\":15012:15059   */\n      iszero\n      tag_553\n      jumpi\n      pop\n        /* \"#utility.yul\":15053:15057   */\n      dup1\n        /* \"#utility.yul\":15012:15059   */\n    tag_553:\n        /* \"#utility.yul\":15108:15110   */\n      0x1f\n        /* \"#utility.yul\":15103:15106   */\n      dup6\n        /* \"#utility.yul\":15099:15111   */\n      add\n        /* \"#utility.yul\":15096:15097   */\n      0x05\n        /* \"#utility.yul\":15092:15112   */\n      shr\n        /* \"#utility.yul\":15086:15090   */\n      dup3\n        /* \"#utility.yul\":15082:15113   */\n      add\n        /* \"#utility.yul\":15072:15113   */\n      swap2\n      pop\n        /* \"#utility.yul\":15163:15245   */\n    tag_554:\n        /* \"#utility.yul\":15181:15183   */\n      dup2\n        /* \"#utility.yul\":15174:15179   */\n      dup2\n        /* \"#utility.yul\":15171:15184   */\n      lt\n        /* \"#utility.yul\":15163:15245   */\n      iszero\n      tag_556\n      jumpi\n        /* \"#utility.yul\":15226:15243   */\n      dup3\n      dup2\n      sstore\n        /* \"#utility.yul\":15207:15208   */\n      0x01\n        /* \"#utility.yul\":15196:15209   */\n      add\n        /* \"#utility.yul\":15163:15245   */\n      jump(tag_554)\n    tag_556:\n        /* \"#utility.yul\":15167:15170   */\n      pop\n      pop\n      pop\n        /* \"#utility.yul\":14716:15261   */\n      pop\n      pop\n      pop\n      jump\t// out\n        /* \"#utility.yul\":15437:16789   */\n    tag_311:\n        /* \"#utility.yul\":15563:15566   */\n      dup2\n        /* \"#utility.yul\":15557:15567   */\n      mload\n        /* \"#utility.yul\":15590:15608   */\n      0xffffffffffffffff\n        /* \"#utility.yul\":15582:15588   */\n      dup2\n        /* \"#utility.yul\":15579:15609   */\n      gt\n        /* \"#utility.yul\":15576:15632   */\n      iszero\n      tag_560\n      jumpi\n        /* \"#utility.yul\":15612:15630   */\n      tag_560\n      tag_158\n      jump\t// in\n    tag_560:\n        /* \"#utility.yul\":15641:15738   */\n      tag_561\n        /* \"#utility.yul\":15731:15737   */\n      dup2\n        /* \"#utility.yul\":15691:15729   */\n      tag_562\n        /* \"#utility.yul\":15723:15727   */\n      dup5\n        /* \"#utility.yul\":15717:15728   */\n      sload\n        /* \"#utility.yul\":15691:15729   */\n      tag_112\n      jump\t// in\n    tag_562:\n        /* \"#utility.yul\":15685:15689   */\n      dup5\n        /* \"#utility.yul\":15641:15738   */\n      tag_428\n      jump\t// in\n    tag_561:\n        /* \"#utility.yul\":15793:15797   */\n      0x20\n      dup1\n        /* \"#utility.yul\":15857:15859   */\n      0x1f\n        /* \"#utility.yul\":15846:15860   */\n      dup4\n      gt\n        /* \"#utility.yul\":15874:15875   */\n      0x01\n        /* \"#utility.yul\":15869:16532   */\n      dup2\n      eq\n      tag_564\n      jumpi\n        /* \"#utility.yul\":16576:16577   */\n      0x00\n        /* \"#utility.yul\":16593:16599   */\n      dup5\n        /* \"#utility.yul\":16590:16679   */\n      iszero\n      tag_565\n      jumpi\n      pop\n        /* \"#utility.yul\":16645:16664   */\n      dup6\n      dup4\n      add\n        /* \"#utility.yul\":16639:16665   */\n      mload\n        /* \"#utility.yul\":16590:16679   */\n    tag_565:\n      not(0x00)\n        /* \"#utility.yul\":15394:15395   */\n      0x03\n        /* \"#utility.yul\":15390:15401   */\n      dup7\n      swap1\n      shl\n        /* \"#utility.yul\":15386:15410   */\n      shr\n        /* \"#utility.yul\":15382:15411   */\n      not\n        /* \"#utility.yul\":15372:15412   */\n      and\n        /* \"#utility.yul\":15418:15419   */\n      0x01\n        /* \"#utility.yul\":15414:15425   */\n      dup6\n      swap1\n      shl\n        /* \"#utility.yul\":15369:15426   */\n      or\n        /* \"#utility.yul\":16692:16773   */\n      dup6\n      sstore\n        /* \"#utility.yul\":15839:16783   */\n      jump(tag_556)\n        /* \"#utility.yul\":15869:16532   */\n    tag_564:\n        /* \"#utility.yul\":14663:14664   */\n      0x00\n        /* \"#utility.yul\":14656:14670   */\n      dup6\n      dup2\n      mstore\n        /* \"#utility.yul\":14700:14704   */\n      0x20\n        /* \"#utility.yul\":14687:14705   */\n      dup2\n      keccak256\n      not(0x1f)\n        /* \"#utility.yul\":15905:15925   */\n      dup7\n      and\n      swap2\n        /* \"#utility.yul\":16023:16259   */\n    tag_568:\n        /* \"#utility.yul\":16037:16044   */\n      dup3\n        /* \"#utility.yul\":16034:16035   */\n      dup2\n        /* \"#utility.yul\":16031:16045   */\n      lt\n        /* \"#utility.yul\":16023:16259   */\n      iszero\n      tag_570\n      jumpi\n        /* \"#utility.yul\":16126:16145   */\n      dup9\n      dup7\n      add\n        /* \"#utility.yul\":16120:16146   */\n      mload\n        /* \"#utility.yul\":16105:16147   */\n      dup3\n      sstore\n        /* \"#utility.yul\":16218:16245   */\n      swap5\n      dup5\n      add\n      swap5\n        /* \"#utility.yul\":16186:16187   */\n      0x01\n        /* \"#utility.yul\":16174:16188   */\n      swap1\n      swap2\n      add\n      swap1\n        /* \"#utility.yul\":16053:16072   */\n      dup5\n      add\n        /* \"#utility.yul\":16023:16259   */\n      jump(tag_568)\n    tag_570:\n        /* \"#utility.yul\":16027:16030   */\n      pop\n        /* \"#utility.yul\":16287:16293   */\n      dup6\n        /* \"#utility.yul\":16278:16285   */\n      dup3\n        /* \"#utility.yul\":16275:16294   */\n      lt\n        /* \"#utility.yul\":16272:16473   */\n      iszero\n      tag_571\n      jumpi\n        /* \"#utility.yul\":16348:16367   */\n      dup8\n      dup6\n      add\n        /* \"#utility.yul\":16342:16368   */\n      mload\n      not(0x00)\n        /* \"#utility.yul\":16431:16432   */\n      0x03\n        /* \"#utility.yul\":16427:16441   */\n      dup9\n      swap1\n      shl\n        /* \"#utility.yul\":16443:16446   */\n      0xf8\n        /* \"#utility.yul\":16423:16447   */\n      and\n        /* \"#utility.yul\":16419:16456   */\n      shr\n        /* \"#utility.yul\":16415:16457   */\n      not\n        /* \"#utility.yul\":16400:16458   */\n      and\n        /* \"#utility.yul\":16385:16459   */\n      dup2\n      sstore\n        /* \"#utility.yul\":16272:16473   */\n    tag_571:\n      pop\n      pop\n      pop\n      pop\n      pop\n        /* \"#utility.yul\":16519:16520   */\n      0x01\n        /* \"#utility.yul\":16503:16517   */\n      swap1\n      dup2\n      shl\n        /* \"#utility.yul\":16499:16521   */\n      add\n        /* \"#utility.yul\":16486:16522   */\n      swap1\n      sstore\n      pop\n        /* \"#utility.yul\":15437:16789   */\n      jump\t// out\n        /* \"#utility.yul\":17148:17562   */\n    tag_324:\n        /* \"#utility.yul\":17350:17352   */\n      0x20\n        /* \"#utility.yul\":17332:17353   */\n      dup1\n      dup3\n      mstore\n        /* \"#utility.yul\":17389:17391   */\n      0x32\n        /* \"#utility.yul\":17369:17387   */\n      swap1\n      dup3\n      add\n        /* \"#utility.yul\":17362:17392   */\n      mstore\n        /* \"#utility.yul\":17428:17462   */\n      0x4552433732313a207472616e7366657220746f206e6f6e204552433732315265\n        /* \"#utility.yul\":17423:17425   */\n      0x40\n        /* \"#utility.yul\":17408:17426   */\n      dup3\n      add\n        /* \"#utility.yul\":17401:17463   */\n      mstore\n      shl(0x71, 0x31b2b4bb32b91034b6b83632b6b2b73a32b9)\n        /* \"#utility.yul\":17494:17496   */\n      0x60\n        /* \"#utility.yul\":17479:17497   */\n      dup3\n      add\n        /* \"#utility.yul\":17472:17520   */\n      mstore\n        /* \"#utility.yul\":17552:17555   */\n      0x80\n        /* \"#utility.yul\":17537:17556   */\n      add\n      swap1\n        /* \"#utility.yul\":17148:17562   */\n      jump\t// out\n        /* \"#utility.yul\":17567:17695   */\n    tag_340:\n        /* \"#utility.yul\":17634:17643   */\n      dup2\n      dup2\n      sub\n        /* \"#utility.yul\":17655:17666   */\n      dup2\n      dup2\n      gt\n        /* \"#utility.yul\":17652:17689   */\n      iszero\n      tag_108\n      jumpi\n        /* \"#utility.yul\":17669:17687   */\n      tag_108\n      tag_425\n      jump\t// in\n        /* \"#utility.yul\":17700:18189   */\n    tag_356:\n      sub(shl(0xa0, 0x01), 0x01)\n        /* \"#utility.yul\":17969:17984   */\n      dup6\n      dup2\n      and\n        /* \"#utility.yul\":17951:17985   */\n      dup3\n      mstore\n        /* \"#utility.yul\":18021:18036   */\n      dup5\n      and\n        /* \"#utility.yul\":18016:18018   */\n      0x20\n        /* \"#utility.yul\":18001:18019   */\n      dup3\n      add\n        /* \"#utility.yul\":17994:18037   */\n      mstore\n        /* \"#utility.yul\":18068:18070   */\n      0x40\n        /* \"#utility.yul\":18053:18071   */\n      dup2\n      add\n        /* \"#utility.yul\":18046:18080   */\n      dup4\n      swap1\n      mstore\n        /* \"#utility.yul\":18116:18119   */\n      0x80\n        /* \"#utility.yul\":18111:18113   */\n      0x60\n        /* \"#utility.yul\":18096:18114   */\n      dup3\n      add\n        /* \"#utility.yul\":18089:18120   */\n      dup2\n      swap1\n      mstore\n        /* \"#utility.yul\":17894:17898   */\n      0x00\n      swap1\n        /* \"#utility.yul\":18137:18183   */\n      tag_578\n      swap1\n        /* \"#utility.yul\":18163:18182   */\n      dup4\n      add\n        /* \"#utility.yul\":18155:18161   */\n      dup5\n        /* \"#utility.yul\":18137:18183   */\n      tag_419\n      jump\t// in\n    tag_578:\n        /* \"#utility.yul\":18129:18183   */\n      swap7\n        /* \"#utility.yul\":17700:18189   */\n      swap6\n      pop\n      pop\n      pop\n      pop\n      pop\n      pop\n      jump\t// out\n        /* \"#utility.yul\":18194:18443   */\n    tag_359:\n        /* \"#utility.yul\":18263:18269   */\n      0x00\n        /* \"#utility.yul\":18316:18318   */\n      0x20\n        /* \"#utility.yul\":18304:18313   */\n      dup3\n        /* \"#utility.yul\":18295:18302   */\n      dup5\n        /* \"#utility.yul\":18291:18314   */\n      sub\n        /* \"#utility.yul\":18287:18319   */\n      slt\n        /* \"#utility.yul\":18284:18336   */\n      iszero\n      tag_580\n      jumpi\n        /* \"#utility.yul\":18332:18333   */\n      0x00\n        /* \"#utility.yul\":18329:18330   */\n      dup1\n        /* \"#utility.yul\":18322:18334   */\n      revert\n        /* \"#utility.yul\":18284:18336   */\n    tag_580:\n        /* \"#utility.yul\":18364:18373   */\n      dup2\n        /* \"#utility.yul\":18358:18374   */\n      mload\n        /* \"#utility.yul\":18383:18413   */\n      tag_330\n        /* \"#utility.yul\":18407:18412   */\n      dup2\n        /* \"#utility.yul\":18383:18413   */\n      tag_417\n      jump\t// in\n\n    auxdata: 0xa2646970667358221220df3e0adc3cb3cfc997588e18cb0857b9934dfb08858e4fa873e89c1262173f3964736f6c63430008130033\n}\n","bytecode":{"linkReferences":{},"object":"60806040523480156200001157600080fd5b5060405180604001604052806009815260200168151a5d1b195119595960ba1b8152506040518060400160405280600381526020016215111160ea1b81525081600090816200006191906200011e565b5060016200007082826200011e565b505050620001ea565b634e487b7160e01b600052604160045260246000fd5b600181811c90821680620000a457607f821691505b602082108103620000c557634e487b7160e01b600052602260045260246000fd5b50919050565b601f8211156200011957600081815260208120601f850160051c81016020861015620000f45750805b601f850160051c820191505b81811015620001155782815560010162000100565b5050505b505050565b81516001600160401b038111156200013a576200013a62000079565b62000152816200014b84546200008f565b84620000cb565b602080601f8311600181146200018a5760008415620001715750858301515b600019600386901b1c1916600185901b17855562000115565b600085815260208120601f198616915b82811015620001bb578886015182559484019460019091019084016200019a565b5085821015620001da5787850151600019600388901b60f8161c191681555b5050505050600190811b01905550565b611eaa80620001fa6000396000f3fe608060405234801561001057600080fd5b50600436106101215760003560e01c8063695850fb116100ad578063a22cb46511610071578063a22cb465146102aa578063b88d4fde146102bd578063c87b56dd146102d0578063ce4a392f146102e3578063e985e9c5146102eb57600080fd5b8063695850fb1461025357806370a082311461027457806383c4c00d1461028757806386198cd51461028f57806395d89b41146102a257600080fd5b806323b872dd116100f457806323b872dd146101a35780633d598291146101b657806342842e0e146101cb5780635f2fedce146101de5780636352211e1461024057600080fd5b806301ffc9a71461012657806306fdde031461014e578063081812fc14610163578063095ea7b31461018e575b600080fd5b610139610134366004611659565b6102fe565b60405190151581526020015b60405180910390f35b610156610350565b60405161014591906116c6565b6101766101713660046116d9565b6103e2565b6040516001600160a01b039091168152602001610145565b6101a161019c366004611707565b610409565b005b6101a16101b1366004611733565b610523565b6101be610554565b6040516101459190611774565b6101a16101d9366004611733565b6106f2565b6102336101ec3660046116d9565b604080518082019091526000808252602082015250600090815260086020908152604091829020825180840190935280548352600101546001600160a01b03169082015290565b60405161014591906117d4565b61017661024e3660046116d9565b61070d565b610266610261366004611893565b61076d565b604051908152602001610145565b6102666102823660046118dc565b6107f4565b61026661087a565b6101a161029d3660046118dc565b61088a565b610156610ae0565b6101a16102b8366004611907565b610aef565b6101a16102cb366004611940565b610afe565b6101566102de3660046116d9565b610b30565b610233610c40565b6101396102f93660046119c0565b610c94565b60006001600160e01b031982166380ac58cd60e01b148061032f57506001600160e01b03198216635b5e139f60e01b145b8061034a57506301ffc9a760e01b6001600160e01b03198316145b92915050565b60606000805461035f906119ee565b80601f016020809104026020016040519081016040528092919081815260200182805461038b906119ee565b80156103d85780601f106103ad576101008083540402835291602001916103d8565b820191906000526020600020905b8154815290600101906020018083116103bb57829003601f168201915b5050505050905090565b60006103ed82610cc2565b506000908152600460205260409020546001600160a01b031690565b60006104148261070d565b9050806001600160a01b0316836001600160a01b0316036104865760405162461bcd60e51b815260206004820152602160248201527f4552433732313a20617070726f76616c20746f2063757272656e74206f776e656044820152603960f91b60648201526084015b60405180910390fd5b336001600160a01b03821614806104a257506104a28133610c94565b6105145760405162461bcd60e51b815260206004820152603d60248201527f4552433732313a20617070726f76652063616c6c6572206973206e6f7420746f60448201527f6b656e206f776e6572206f7220617070726f76656420666f7220616c6c000000606482015260840161047d565b61051e8383610d24565b505050565b61052d3382610d92565b6105495760405162461bcd60e51b815260040161047d90611a28565b61051e838383610df0565b6060600061056160075490565b905060008060005b838110156105c3573360086000610581846001611a8b565b81526020810191909152604001600020600101546001600160a01b0316036105b1576105ae600184611a8b565b92505b806105bb81611a9e565b915050610569565b5060008267ffffffffffffffff8111156105df576105df6117f4565b60405190808252806020026020018201604052801561062457816020015b60408051808201909152600080825260208201528152602001906001900390816105fd5790505b50905060005b848110156106e9573360086000610642846001611a8b565b81526020810191909152604001600020600101546001600160a01b0316036106d7576000610671826001611a8b565b60008181526008602090815260409182902082518084019093528054835260018101546001600160a01b0316918301919091528551929350918590879081106106bc576106bc611ab7565b60209081029190910101526106d2600186611a8b565b945050505b806106e181611a9e565b91505061062a565b50949350505050565b61051e83838360405180602001604052806000815250610afe565b6000818152600260205260408120546001600160a01b03168061034a5760405162461bcd60e51b8152602060048201526018602482015277115490cdcc8c4e881a5b9d985b1a59081d1bdad95b88125160421b604482015260640161047d565b600061077d600780546001019055565b600061078860075490565b90506107943382610f61565b61079e8184610f7b565b6040805180820182528281523360208083019182526000858152600890915292909220905181559051600190910180546001600160a01b0319166001600160a01b0390921691909117905561034a333083610df0565b60006001600160a01b03821661085e5760405162461bcd60e51b815260206004820152602960248201527f4552433732313a2061646472657373207a65726f206973206e6f7420612076616044820152683634b21037bbb732b960b91b606482015260840161047d565b506001600160a01b031660009081526003602052604090205490565b600061088560075490565b905090565b6000819050806001600160a01b031663051ea68f6040518163ffffffff1660e01b8152600401602060405180830381865afa1580156108cd573d6000803e3d6000fd5b505050506040513d601f19601f820116820180604052508101906108f19190611acd565b6109575760405162461bcd60e51b815260206004820152603160248201527f4f776e6572207374696c6c20616c6976652c20796f752063616e27742072656460448201527032b2b6903a34329027232a39903cb2ba1760791b606482015260840161047d565b6000816001600160a01b031663ffc15b7c6040518163ffffffff1660e01b8152600401600060405180830381865afa158015610997573d6000803e3d6000fd5b505050506040513d6000823e601f3d908101601f191682016040526109bf9190810190611b0e565b905060005b8151811015610ada576000836001600160a01b03166335d6f8738484815181106109f0576109f0611ab7565b60200260200101516040518263ffffffff1660e01b8152600401610a2391906001600160a01b0391909116815260200190565b600060405180830381865afa158015610a40573d6000803e3d6000fd5b505050506040513d6000823e601f3d908101601f19168201604052610a689190810190611bad565b905060005b8151811015610ac557610ab330858581518110610a8c57610a8c611ab7565b6020026020010151848481518110610aa657610aa6611ab7565b6020026020010151610df0565b80610abd81611a9e565b915050610a6d565b50508080610ad290611a9e565b9150506109c4565b50505050565b60606001805461035f906119ee565b610afa33838361100e565b5050565b610b083383610d92565b610b245760405162461bcd60e51b815260040161047d90611a28565b610ada848484846110dc565b6060610b3b82610cc2565b60008281526006602052604081208054610b54906119ee565b80601f0160208091040260200160405190810160405280929190818152602001828054610b80906119ee565b8015610bcd5780601f10610ba257610100808354040283529160200191610bcd565b820191906000526020600020905b815481529060010190602001808311610bb057829003601f168201915b505050505090506000610beb60408051602081019091526000815290565b90508051600003610bfd575092915050565b815115610c2f578082604051602001610c17929190611c33565b60405160208183030381529060405292505050919050565b610c388461110f565b949350505050565b60408051808201909152600080825260208201526000610c5f60075490565b600090815260086020908152604091829020825180840190935280548352600101546001600160a01b03169082015292915050565b6001600160a01b03918216600090815260056020908152604080832093909416825291909152205460ff1690565b6000818152600260205260409020546001600160a01b0316610d215760405162461bcd60e51b8152602060048201526018602482015277115490cdcc8c4e881a5b9d985b1a59081d1bdad95b88125160421b604482015260640161047d565b50565b600081815260046020526040902080546001600160a01b0319166001600160a01b0384169081179091558190610d598261070d565b6001600160a01b03167f8c5be1e5ebec7d5bd14f71427d1e84f3dd0314c0f7b2291e5b200ac8c7c3b92560405160405180910390a45050565b600080610d9e8361070d565b9050806001600160a01b0316846001600160a01b03161480610dc55750610dc58185610c94565b80610c385750836001600160a01b0316610dde846103e2565b6001600160a01b031614949350505050565b826001600160a01b0316610e038261070d565b6001600160a01b031614610e295760405162461bcd60e51b815260040161047d90611c62565b6001600160a01b038216610e8b5760405162461bcd60e51b8152602060048201526024808201527f4552433732313a207472616e7366657220746f20746865207a65726f206164646044820152637265737360e01b606482015260840161047d565b610e988383836001611183565b826001600160a01b0316610eab8261070d565b6001600160a01b031614610ed15760405162461bcd60e51b815260040161047d90611c62565b600081815260046020908152604080832080546001600160a01b03199081169091556001600160a01b0387811680865260038552838620805460001901905590871680865283862080546001019055868652600290945282852080549092168417909155905184937fddf252ad1be2c89b69c2b068fc378daa952ba7f163c4a11628f55a4df523b3ef91a4505050565b610afa82826040518060200160405280600081525061120b565b6000828152600260205260409020546001600160a01b0316610ff65760405162461bcd60e51b815260206004820152602e60248201527f45524337323155524953746f726167653a2055524920736574206f66206e6f6e60448201526d32bc34b9ba32b73a103a37b5b2b760911b606482015260840161047d565b600082815260066020526040902061051e8282611cf5565b816001600160a01b0316836001600160a01b03160361106f5760405162461bcd60e51b815260206004820152601960248201527f4552433732313a20617070726f766520746f2063616c6c657200000000000000604482015260640161047d565b6001600160a01b03838116600081815260056020908152604080832094871680845294825291829020805460ff191686151590811790915591519182527f17307eab39ab6107e8899845ad3d59bd9653f200f220920489ca2b5937696c31910160405180910390a3505050565b6110e7848484610df0565b6110f38484848461123e565b610ada5760405162461bcd60e51b815260040161047d90611db5565b606061111a82610cc2565b600061113160408051602081019091526000815290565b90506000815111611151576040518060200160405280600081525061117c565b8061115b8461133f565b60405160200161116c929190611c33565b6040516020818303038152906040525b9392505050565b6001811115610ada576001600160a01b038416156111c9576001600160a01b038416600090815260036020526040812080548392906111c3908490611e07565b90915550505b6001600160a01b03831615610ada576001600160a01b03831660009081526003602052604081208054839290611200908490611a8b565b909155505050505050565b61121583836113d2565b611222600084848461123e565b61051e5760405162461bcd60e51b815260040161047d90611db5565b60006001600160a01b0384163b1561133457604051630a85bd0160e11b81526001600160a01b0385169063150b7a0290611282903390899088908890600401611e1a565b6020604051808303816000875af19250505080156112bd575060408051601f3d908101601f191682019092526112ba91810190611e57565b60015b61131a573d8080156112eb576040519150601f19603f3d011682016040523d82523d6000602084013e6112f0565b606091505b5080516000036113125760405162461bcd60e51b815260040161047d90611db5565b805181602001fd5b6001600160e01b031916630a85bd0160e11b149050610c38565b506001949350505050565b6060600061134c8361156b565b600101905060008167ffffffffffffffff81111561136c5761136c6117f4565b6040519080825280601f01601f191660200182016040528015611396576020820181803683370190505b5090508181016020015b600019016f181899199a1a9b1b9c1cb0b131b232b360811b600a86061a8153600a85049450846113a057509392505050565b6001600160a01b0382166114285760405162461bcd60e51b815260206004820181905260248201527f4552433732313a206d696e7420746f20746865207a65726f2061646472657373604482015260640161047d565b6000818152600260205260409020546001600160a01b03161561148d5760405162461bcd60e51b815260206004820152601c60248201527f4552433732313a20746f6b656e20616c7265616479206d696e74656400000000604482015260640161047d565b61149b600083836001611183565b6000818152600260205260409020546001600160a01b0316156115005760405162461bcd60e51b815260206004820152601c60248201527f4552433732313a20746f6b656e20616c7265616479206d696e74656400000000604482015260640161047d565b6001600160a01b038216600081815260036020908152604080832080546001019055848352600290915280822080546001600160a01b0319168417905551839291907fddf252ad1be2c89b69c2b068fc378daa952ba7f163c4a11628f55a4df523b3ef908290a45050565b60008072184f03e93ff9f4daa797ed6e38ed64bf6a1f0160401b83106115aa5772184f03e93ff9f4daa797ed6e38ed64bf6a1f0160401b830492506040015b6d04ee2d6d415b85acef810000000083106115d6576d04ee2d6d415b85acef8100000000830492506020015b662386f26fc1000083106115f457662386f26fc10000830492506010015b6305f5e100831061160c576305f5e100830492506008015b612710831061162057612710830492506004015b60648310611632576064830492506002015b600a831061034a5760010192915050565b6001600160e01b031981168114610d2157600080fd5b60006020828403121561166b57600080fd5b813561117c81611643565b60005b83811015611691578181015183820152602001611679565b50506000910152565b600081518084526116b2816020860160208601611676565b601f01601f19169290920160200192915050565b60208152600061117c602083018461169a565b6000602082840312156116eb57600080fd5b5035919050565b6001600160a01b0381168114610d2157600080fd5b6000806040838503121561171a57600080fd5b8235611725816116f2565b946020939093013593505050565b60008060006060848603121561174857600080fd5b8335611753816116f2565b92506020840135611763816116f2565b929592945050506040919091013590565b602080825282518282018190526000919060409081850190868401855b828110156117c7576117b7848351805182526020908101516001600160a01b0316910152565b9284019290850190600101611791565b5091979650505050505050565b815181526020808301516001600160a01b0316908201526040810161034a565b634e487b7160e01b600052604160045260246000fd5b604051601f8201601f1916810167ffffffffffffffff81118282101715611833576118336117f4565b604052919050565b600067ffffffffffffffff831115611855576118556117f4565b611868601f8401601f191660200161180a565b905082815283838301111561187c57600080fd5b828260208301376000602084830101529392505050565b6000602082840312156118a557600080fd5b813567ffffffffffffffff8111156118bc57600080fd5b8201601f810184136118cd57600080fd5b610c388482356020840161183b565b6000602082840312156118ee57600080fd5b813561117c816116f2565b8015158114610d2157600080fd5b6000806040838503121561191a57600080fd5b8235611925816116f2565b91506020830135611935816118f9565b809150509250929050565b6000806000806080858703121561195657600080fd5b8435611961816116f2565b93506020850135611971816116f2565b925060408501359150606085013567ffffffffffffffff81111561199457600080fd5b8501601f810187136119a557600080fd5b6119b48782356020840161183b565b91505092959194509250565b600080604083850312156119d357600080fd5b82356119de816116f2565b91506020830135611935816116f2565b600181811c90821680611a0257607f821691505b602082108103611a2257634e487b7160e01b600052602260045260246000fd5b50919050565b6020808252602d908201527f4552433732313a2063616c6c6572206973206e6f7420746f6b656e206f776e6560408201526c1c881bdc88185c1c1c9bdd9959609a1b606082015260800190565b634e487b7160e01b600052601160045260246000fd5b8082018082111561034a5761034a611a75565b600060018201611ab057611ab0611a75565b5060010190565b634e487b7160e01b600052603260045260246000fd5b600060208284031215611adf57600080fd5b815161117c816118f9565b600067ffffffffffffffff821115611b0457611b046117f4565b5060051b60200190565b60006020808385031215611b2157600080fd5b825167ffffffffffffffff811115611b3857600080fd5b8301601f81018513611b4957600080fd5b8051611b5c611b5782611aea565b61180a565b81815260059190911b82018301908381019087831115611b7b57600080fd5b928401925b82841015611ba2578351611b93816116f2565b82529284019290840190611b80565b979650505050505050565b60006020808385031215611bc057600080fd5b825167ffffffffffffffff811115611bd757600080fd5b8301601f81018513611be857600080fd5b8051611bf6611b5782611aea565b81815260059190911b82018301908381019087831115611c1557600080fd5b928401925b82841015611ba257835182529284019290840190611c1a565b60008351611c45818460208801611676565b835190830190611c59818360208801611676565b01949350505050565b60208082526025908201527f4552433732313a207472616e736665722066726f6d20696e636f72726563742060408201526437bbb732b960d91b606082015260800190565b601f82111561051e57600081815260208120601f850160051c81016020861015611cce5750805b601f850160051c820191505b81811015611ced57828155600101611cda565b505050505050565b815167ffffffffffffffff811115611d0f57611d0f6117f4565b611d2381611d1d84546119ee565b84611ca7565b602080601f831160018114611d585760008415611d405750858301515b600019600386901b1c1916600185901b178555611ced565b600085815260208120601f198616915b82811015611d8757888601518255948401946001909101908401611d68565b5085821015611da55787850151600019600388901b60f8161c191681555b5050505050600190811b01905550565b60208082526032908201527f4552433732313a207472616e7366657220746f206e6f6e20455243373231526560408201527131b2b4bb32b91034b6b83632b6b2b73a32b960711b606082015260800190565b8181038181111561034a5761034a611a75565b6001600160a01b0385811682528416602082015260408101839052608060608201819052600090611e4d9083018461169a565b9695505050505050565b600060208284031215611e6957600080fd5b815161117c8161164356fea2646970667358221220df3e0adc3cb3cfc997588e18cb0857b9934dfb08858e4fa873e89c1262173f3964736f6c63430008130033","opcodes":"PUSH1 0x80 PUSH1 0x40 MSTORE CALLVALUE DUP1 ISZERO PUSH3 0x11 JUMPI PUSH1 0x0 DUP1 REVERT JUMPDEST POP PUSH1 0x40 MLOAD DUP1 PUSH1 0x40 ADD PUSH1 0x40 MSTORE DUP1 PUSH1 0x9 DUP2 MSTORE PUSH1 0x20 ADD PUSH9 0x151A5D1B1951195959 PUSH1 0xBA SHL DUP2 MSTORE POP PUSH1 0x40 MLOAD DUP1 PUSH1 0x40 ADD PUSH1 0x40 MSTORE DUP1 PUSH1 0x3 DUP2 MSTORE PUSH1 0x20 ADD PUSH3 0x151111 PUSH1 0xEA SHL DUP2 MSTORE POP DUP2 PUSH1 0x0 SWAP1 DUP2 PUSH3 0x61 SWAP2 SWAP1 PUSH3 0x11E JUMP JUMPDEST POP PUSH1 0x1 PUSH3 0x70 DUP3 DUP3 PUSH3 0x11E JUMP JUMPDEST POP POP POP PUSH3 0x1EA JUMP JUMPDEST PUSH4 0x4E487B71 PUSH1 0xE0 SHL PUSH1 0x0 MSTORE PUSH1 0x41 PUSH1 0x4 MSTORE PUSH1 0x24 PUSH1 0x0 REVERT JUMPDEST PUSH1 0x1 DUP2 DUP2 SHR SWAP1 DUP3 AND DUP1 PUSH3 0xA4 JUMPI PUSH1 0x7F DUP3 AND SWAP2 POP JUMPDEST PUSH1 0x20 DUP3 LT DUP2 SUB PUSH3 0xC5 JUMPI PUSH4 0x4E487B71 PUSH1 0xE0 SHL PUSH1 0x0 MSTORE PUSH1 0x22 PUSH1 0x4 MSTORE PUSH1 0x24 PUSH1 0x0 REVERT JUMPDEST POP SWAP2 SWAP1 POP JUMP JUMPDEST PUSH1 0x1F DUP3 GT ISZERO PUSH3 0x119 JUMPI PUSH1 0x0 DUP2 DUP2 MSTORE PUSH1 0x20 DUP2 KECCAK256 PUSH1 0x1F DUP6 ADD PUSH1 0x5 SHR DUP2 ADD PUSH1 0x20 DUP7 LT ISZERO PUSH3 0xF4 JUMPI POP DUP1 JUMPDEST PUSH1 0x1F DUP6 ADD PUSH1 0x5 SHR DUP3 ADD SWAP2 POP JUMPDEST DUP2 DUP2 LT ISZERO PUSH3 0x115 JUMPI DUP3 DUP2 SSTORE PUSH1 0x1 ADD PUSH3 0x100 JUMP JUMPDEST POP POP POP JUMPDEST POP POP POP JUMP JUMPDEST DUP2 MLOAD PUSH1 0x1 PUSH1 0x1 PUSH1 0x40 SHL SUB DUP2 GT ISZERO PUSH3 0x13A JUMPI PUSH3 0x13A PUSH3 0x79 JUMP JUMPDEST PUSH3 0x152 DUP2 PUSH3 0x14B DUP5 SLOAD PUSH3 0x8F JUMP JUMPDEST DUP5 PUSH3 0xCB JUMP JUMPDEST PUSH1 0x20 DUP1 PUSH1 0x1F DUP4 GT PUSH1 0x1 DUP2 EQ PUSH3 0x18A JUMPI PUSH1 0x0 DUP5 ISZERO PUSH3 0x171 JUMPI POP DUP6 DUP4 ADD MLOAD JUMPDEST PUSH1 0x0 NOT PUSH1 0x3 DUP7 SWAP1 SHL SHR NOT AND PUSH1 0x1 DUP6 SWAP1 SHL OR DUP6 SSTORE PUSH3 0x115 JUMP JUMPDEST PUSH1 0x0 DUP6 DUP2 MSTORE PUSH1 0x20 DUP2 KECCAK256 PUSH1 0x1F NOT DUP7 AND SWAP2 JUMPDEST DUP3 DUP2 LT ISZERO PUSH3 0x1BB JUMPI DUP9 DUP7 ADD MLOAD DUP3 SSTORE SWAP5 DUP5 ADD SWAP5 PUSH1 0x1 SWAP1 SWAP2 ADD SWAP1 DUP5 ADD PUSH3 0x19A JUMP JUMPDEST POP DUP6 DUP3 LT ISZERO PUSH3 0x1DA JUMPI DUP8 DUP6 ADD MLOAD PUSH1 0x0 NOT PUSH1 0x3 DUP9 SWAP1 SHL PUSH1 0xF8 AND SHR NOT AND DUP2 SSTORE JUMPDEST POP POP POP POP POP PUSH1 0x1 SWAP1 DUP2 SHL ADD SWAP1 SSTORE POP JUMP JUMPDEST PUSH2 0x1EAA DUP1 PUSH3 0x1FA PUSH1 0x0 CODECOPY PUSH1 0x0 RETURN INVALID PUSH1 0x80 PUSH1 0x40 MSTORE CALLVALUE DUP1 ISZERO PUSH2 0x10 JUMPI PUSH1 0x0 DUP1 REVERT JUMPDEST POP PUSH1 0x4 CALLDATASIZE LT PUSH2 0x121 JUMPI PUSH1 0x0 CALLDATALOAD PUSH1 0xE0 SHR DUP1 PUSH4 0x695850FB GT PUSH2 0xAD JUMPI DUP1 PUSH4 0xA22CB465 GT PUSH2 0x71 JUMPI DUP1 PUSH4 0xA22CB465 EQ PUSH2 0x2AA JUMPI DUP1 PUSH4 0xB88D4FDE EQ PUSH2 0x2BD JUMPI DUP1 PUSH4 0xC87B56DD EQ PUSH2 0x2D0 JUMPI DUP1 PUSH4 0xCE4A392F EQ PUSH2 0x2E3 JUMPI DUP1 PUSH4 0xE985E9C5 EQ PUSH2 0x2EB JUMPI PUSH1 0x0 DUP1 REVERT JUMPDEST DUP1 PUSH4 0x695850FB EQ PUSH2 0x253 JUMPI DUP1 PUSH4 0x70A08231 EQ PUSH2 0x274 JUMPI DUP1 PUSH4 0x83C4C00D EQ PUSH2 0x287 JUMPI DUP1 PUSH4 0x86198CD5 EQ PUSH2 0x28F JUMPI DUP1 PUSH4 0x95D89B41 EQ PUSH2 0x2A2 JUMPI PUSH1 0x0 DUP1 REVERT JUMPDEST DUP1 PUSH4 0x23B872DD GT PUSH2 0xF4 JUMPI DUP1 PUSH4 0x23B872DD EQ PUSH2 0x1A3 JUMPI DUP1 PUSH4 0x3D598291 EQ PUSH2 0x1B6 JUMPI DUP1 PUSH4 0x42842E0E EQ PUSH2 0x1CB JUMPI DUP1 PUSH4 0x5F2FEDCE EQ PUSH2 0x1DE JUMPI DUP1 PUSH4 0x6352211E EQ PUSH2 0x240 JUMPI PUSH1 0x0 DUP1 REVERT JUMPDEST DUP1 PUSH4 0x1FFC9A7 EQ PUSH2 0x126 JUMPI DUP1 PUSH4 0x6FDDE03 EQ PUSH2 0x14E JUMPI DUP1 PUSH4 0x81812FC EQ PUSH2 0x163 JUMPI DUP1 PUSH4 0x95EA7B3 EQ PUSH2 0x18E JUMPI JUMPDEST PUSH1 0x0 DUP1 REVERT JUMPDEST PUSH2 0x139 PUSH2 0x134 CALLDATASIZE PUSH1 0x4 PUSH2 0x1659 JUMP JUMPDEST PUSH2 0x2FE JUMP JUMPDEST PUSH1 0x40 MLOAD SWAP1 ISZERO ISZERO DUP2 MSTORE PUSH1 0x20 ADD JUMPDEST PUSH1 0x40 MLOAD DUP1 SWAP2 SUB SWAP1 RETURN JUMPDEST PUSH2 0x156 PUSH2 0x350 JUMP JUMPDEST PUSH1 0x40 MLOAD PUSH2 0x145 SWAP2 SWAP1 PUSH2 0x16C6 JUMP JUMPDEST PUSH2 0x176 PUSH2 0x171 CALLDATASIZE PUSH1 0x4 PUSH2 0x16D9 JUMP JUMPDEST PUSH2 0x3E2 JUMP JUMPDEST PUSH1 0x40 MLOAD PUSH1 0x1 PUSH1 0x1 PUSH1 0xA0 SHL SUB SWAP1 SWAP2 AND DUP2 MSTORE PUSH1 0x20 ADD PUSH2 0x145 JUMP JUMPDEST PUSH2 0x1A1 PUSH2 0x19C CALLDATASIZE PUSH1 0x4 PUSH2 0x1707 JUMP JUMPDEST PUSH2 0x409 JUMP JUMPDEST STOP JUMPDEST PUSH2 0x1A1 PUSH2 0x1B1 CALLDATASIZE PUSH1 0x4 PUSH2 0x1733 JUMP JUMPDEST PUSH2 0x523 JUMP JUMPDEST PUSH2 0x1BE PUSH2 0x554 JUMP JUMPDEST PUSH1 0x40 MLOAD PUSH2 0x145 SWAP2 SWAP1 PUSH2 0x1774 JUMP JUMPDEST PUSH2 0x1A1 PUSH2 0x1D9 CALLDATASIZE PUSH1 0x4 PUSH2 0x1733 JUMP JUMPDEST PUSH2 0x6F2 JUMP JUMPDEST PUSH2 0x233 PUSH2 0x1EC CALLDATASIZE PUSH1 0x4 PUSH2 0x16D9 JUMP JUMPDEST PUSH1 0x40 DUP1 MLOAD DUP1 DUP3 ADD SWAP1 SWAP2 MSTORE PUSH1 0x0 DUP1 DUP3 MSTORE PUSH1 0x20 DUP3 ADD MSTORE POP PUSH1 0x0 SWAP1 DUP2 MSTORE PUSH1 0x8 PUSH1 0x20 SWAP1 DUP2 MSTORE PUSH1 0x40 SWAP2 DUP3 SWAP1 KECCAK256 DUP3 MLOAD DUP1 DUP5 ADD SWAP1 SWAP4 MSTORE DUP1 SLOAD DUP4 MSTORE PUSH1 0x1 ADD SLOAD PUSH1 0x1 PUSH1 0x1 PUSH1 0xA0 SHL SUB AND SWAP1 DUP3 ADD MSTORE SWAP1 JUMP JUMPDEST PUSH1 0x40 MLOAD PUSH2 0x145 SWAP2 SWAP1 PUSH2 0x17D4 JUMP JUMPDEST PUSH2 0x176 PUSH2 0x24E CALLDATASIZE PUSH1 0x4 PUSH2 0x16D9 JUMP JUMPDEST PUSH2 0x70D JUMP JUMPDEST PUSH2 0x266 PUSH2 0x261 CALLDATASIZE PUSH1 0x4 PUSH2 0x1893 JUMP JUMPDEST PUSH2 0x76D JUMP JUMPDEST PUSH1 0x40 MLOAD SWAP1 DUP2 MSTORE PUSH1 0x20 ADD PUSH2 0x145 JUMP JUMPDEST PUSH2 0x266 PUSH2 0x282 CALLDATASIZE PUSH1 0x4 PUSH2 0x18DC JUMP JUMPDEST PUSH2 0x7F4 JUMP JUMPDEST PUSH2 0x266 PUSH2 0x87A JUMP JUMPDEST PUSH2 0x1A1 PUSH2 0x29D CALLDATASIZE PUSH1 0x4 PUSH2 0x18DC JUMP JUMPDEST PUSH2 0x88A JUMP JUMPDEST PUSH2 0x156 PUSH2 0xAE0 JUMP JUMPDEST PUSH2 0x1A1 PUSH2 0x2B8 CALLDATASIZE PUSH1 0x4 PUSH2 0x1907 JUMP JUMPDEST PUSH2 0xAEF JUMP JUMPDEST PUSH2 0x1A1 PUSH2 0x2CB CALLDATASIZE PUSH1 0x4 PUSH2 0x1940 JUMP JUMPDEST PUSH2 0xAFE JUMP JUMPDEST PUSH2 0x156 PUSH2 0x2DE CALLDATASIZE PUSH1 0x4 PUSH2 0x16D9 JUMP JUMPDEST PUSH2 0xB30 JUMP JUMPDEST PUSH2 0x233 PUSH2 0xC40 JUMP JUMPDEST PUSH2 0x139 PUSH2 0x2F9 CALLDATASIZE PUSH1 0x4 PUSH2 0x19C0 JUMP JUMPDEST PUSH2 0xC94 JUMP JUMPDEST PUSH1 0x0 PUSH1 0x1 PUSH1 0x1 PUSH1 0xE0 SHL SUB NOT DUP3 AND PUSH4 0x80AC58CD PUSH1 0xE0 SHL EQ DUP1 PUSH2 0x32F JUMPI POP PUSH1 0x1 PUSH1 0x1 PUSH1 0xE0 SHL SUB NOT DUP3 AND PUSH4 0x5B5E139F PUSH1 0xE0 SHL EQ JUMPDEST DUP1 PUSH2 0x34A JUMPI POP PUSH4 0x1FFC9A7 PUSH1 0xE0 SHL PUSH1 0x1 PUSH1 0x1 PUSH1 0xE0 SHL SUB NOT DUP4 AND EQ JUMPDEST SWAP3 SWAP2 POP POP JUMP JUMPDEST PUSH1 0x60 PUSH1 0x0 DUP1 SLOAD PUSH2 0x35F SWAP1 PUSH2 0x19EE JUMP JUMPDEST DUP1 PUSH1 0x1F ADD PUSH1 0x20 DUP1 SWAP2 DIV MUL PUSH1 0x20 ADD PUSH1 0x40 MLOAD SWAP1 DUP2 ADD PUSH1 0x40 MSTORE DUP1 SWAP3 SWAP2 SWAP1 DUP2 DUP2 MSTORE PUSH1 0x20 ADD DUP3 DUP1 SLOAD PUSH2 0x38B SWAP1 PUSH2 0x19EE JUMP JUMPDEST DUP1 ISZERO PUSH2 0x3D8 JUMPI DUP1 PUSH1 0x1F LT PUSH2 0x3AD JUMPI PUSH2 0x100 DUP1 DUP4 SLOAD DIV MUL DUP4 MSTORE SWAP2 PUSH1 0x20 ADD SWAP2 PUSH2 0x3D8 JUMP JUMPDEST DUP3 ADD SWAP2 SWAP1 PUSH1 0x0 MSTORE PUSH1 0x20 PUSH1 0x0 KECCAK256 SWAP1 JUMPDEST DUP2 SLOAD DUP2 MSTORE SWAP1 PUSH1 0x1 ADD SWAP1 PUSH1 0x20 ADD DUP1 DUP4 GT PUSH2 0x3BB JUMPI DUP3 SWAP1 SUB PUSH1 0x1F AND DUP3 ADD SWAP2 JUMPDEST POP POP POP POP POP SWAP1 POP SWAP1 JUMP JUMPDEST PUSH1 0x0 PUSH2 0x3ED DUP3 PUSH2 0xCC2 JUMP JUMPDEST POP PUSH1 0x0 SWAP1 DUP2 MSTORE PUSH1 0x4 PUSH1 0x20 MSTORE PUSH1 0x40 SWAP1 KECCAK256 SLOAD PUSH1 0x1 PUSH1 0x1 PUSH1 0xA0 SHL SUB AND SWAP1 JUMP JUMPDEST PUSH1 0x0 PUSH2 0x414 DUP3 PUSH2 0x70D JUMP JUMPDEST SWAP1 POP DUP1 PUSH1 0x1 PUSH1 0x1 PUSH1 0xA0 SHL SUB AND DUP4 PUSH1 0x1 PUSH1 0x1 PUSH1 0xA0 SHL SUB AND SUB PUSH2 0x486 JUMPI PUSH1 0x40 MLOAD PUSH3 0x461BCD PUSH1 0xE5 SHL DUP2 MSTORE PUSH1 0x20 PUSH1 0x4 DUP3 ADD MSTORE PUSH1 0x21 PUSH1 0x24 DUP3 ADD MSTORE PUSH32 0x4552433732313A20617070726F76616C20746F2063757272656E74206F776E65 PUSH1 0x44 DUP3 ADD MSTORE PUSH1 0x39 PUSH1 0xF9 SHL PUSH1 0x64 DUP3 ADD MSTORE PUSH1 0x84 ADD JUMPDEST PUSH1 0x40 MLOAD DUP1 SWAP2 SUB SWAP1 REVERT JUMPDEST CALLER PUSH1 0x1 PUSH1 0x1 PUSH1 0xA0 SHL SUB DUP3 AND EQ DUP1 PUSH2 0x4A2 JUMPI POP PUSH2 0x4A2 DUP2 CALLER PUSH2 0xC94 JUMP JUMPDEST PUSH2 0x514 JUMPI PUSH1 0x40 MLOAD PUSH3 0x461BCD PUSH1 0xE5 SHL DUP2 MSTORE PUSH1 0x20 PUSH1 0x4 DUP3 ADD MSTORE PUSH1 0x3D PUSH1 0x24 DUP3 ADD MSTORE PUSH32 0x4552433732313A20617070726F76652063616C6C6572206973206E6F7420746F PUSH1 0x44 DUP3 ADD MSTORE PUSH32 0x6B656E206F776E6572206F7220617070726F76656420666F7220616C6C000000 PUSH1 0x64 DUP3 ADD MSTORE PUSH1 0x84 ADD PUSH2 0x47D JUMP JUMPDEST PUSH2 0x51E DUP4 DUP4 PUSH2 0xD24 JUMP JUMPDEST POP POP POP JUMP JUMPDEST PUSH2 0x52D CALLER DUP3 PUSH2 0xD92 JUMP JUMPDEST PUSH2 0x549 JUMPI PUSH1 0x40 MLOAD PUSH3 0x461BCD PUSH1 0xE5 SHL DUP2 MSTORE PUSH1 0x4 ADD PUSH2 0x47D SWAP1 PUSH2 0x1A28 JUMP JUMPDEST PUSH2 0x51E DUP4 DUP4 DUP4 PUSH2 0xDF0 JUMP JUMPDEST PUSH1 0x60 PUSH1 0x0 PUSH2 0x561 PUSH1 0x7 SLOAD SWAP1 JUMP JUMPDEST SWAP1 POP PUSH1 0x0 DUP1 PUSH1 0x0 JUMPDEST DUP4 DUP2 LT ISZERO PUSH2 0x5C3 JUMPI CALLER PUSH1 0x8 PUSH1 0x0 PUSH2 0x581 DUP5 PUSH1 0x1 PUSH2 0x1A8B JUMP JUMPDEST DUP2 MSTORE PUSH1 0x20 DUP2 ADD SWAP2 SWAP1 SWAP2 MSTORE PUSH1 0x40 ADD PUSH1 0x0 KECCAK256 PUSH1 0x1 ADD SLOAD PUSH1 0x1 PUSH1 0x1 PUSH1 0xA0 SHL SUB AND SUB PUSH2 0x5B1 JUMPI PUSH2 0x5AE PUSH1 0x1 DUP5 PUSH2 0x1A8B JUMP JUMPDEST SWAP3 POP JUMPDEST DUP1 PUSH2 0x5BB DUP2 PUSH2 0x1A9E JUMP JUMPDEST SWAP2 POP POP PUSH2 0x569 JUMP JUMPDEST POP PUSH1 0x0 DUP3 PUSH8 0xFFFFFFFFFFFFFFFF DUP2 GT ISZERO PUSH2 0x5DF JUMPI PUSH2 0x5DF PUSH2 0x17F4 JUMP JUMPDEST PUSH1 0x40 MLOAD SWAP1 DUP1 DUP3 MSTORE DUP1 PUSH1 0x20 MUL PUSH1 0x20 ADD DUP3 ADD PUSH1 0x40 MSTORE DUP1 ISZERO PUSH2 0x624 JUMPI DUP2 PUSH1 0x20 ADD JUMPDEST PUSH1 0x40 DUP1 MLOAD DUP1 DUP3 ADD SWAP1 SWAP2 MSTORE PUSH1 0x0 DUP1 DUP3 MSTORE PUSH1 0x20 DUP3 ADD MSTORE DUP2 MSTORE PUSH1 0x20 ADD SWAP1 PUSH1 0x1 SWAP1 SUB SWAP1 DUP2 PUSH2 0x5FD JUMPI SWAP1 POP JUMPDEST POP SWAP1 POP PUSH1 0x0 JUMPDEST DUP5 DUP2 LT ISZERO PUSH2 0x6E9 JUMPI CALLER PUSH1 0x8 PUSH1 0x0 PUSH2 0x642 DUP5 PUSH1 0x1 PUSH2 0x1A8B JUMP JUMPDEST DUP2 MSTORE PUSH1 0x20 DUP2 ADD SWAP2 SWAP1 SWAP2 MSTORE PUSH1 0x40 ADD PUSH1 0x0 KECCAK256 PUSH1 0x1 ADD SLOAD PUSH1 0x1 PUSH1 0x1 PUSH1 0xA0 SHL SUB AND SUB PUSH2 0x6D7 JUMPI PUSH1 0x0 PUSH2 0x671 DUP3 PUSH1 0x1 PUSH2 0x1A8B JUMP JUMPDEST PUSH1 0x0 DUP2 DUP2 MSTORE PUSH1 0x8 PUSH1 0x20 SWAP1 DUP2 MSTORE PUSH1 0x40 SWAP2 DUP3 SWAP1 KECCAK256 DUP3 MLOAD DUP1 DUP5 ADD SWAP1 SWAP4 MSTORE DUP1 SLOAD DUP4 MSTORE PUSH1 0x1 DUP2 ADD SLOAD PUSH1 0x1 PUSH1 0x1 PUSH1 0xA0 SHL SUB AND SWAP2 DUP4 ADD SWAP2 SWAP1 SWAP2 MSTORE DUP6 MLOAD SWAP3 SWAP4 POP SWAP2 DUP6 SWAP1 DUP8 SWAP1 DUP2 LT PUSH2 0x6BC JUMPI PUSH2 0x6BC PUSH2 0x1AB7 JUMP JUMPDEST PUSH1 0x20 SWAP1 DUP2 MUL SWAP2 SWAP1 SWAP2 ADD ADD MSTORE PUSH2 0x6D2 PUSH1 0x1 DUP7 PUSH2 0x1A8B JUMP JUMPDEST SWAP5 POP POP POP JUMPDEST DUP1 PUSH2 0x6E1 DUP2 PUSH2 0x1A9E JUMP JUMPDEST SWAP2 POP POP PUSH2 0x62A JUMP JUMPDEST POP SWAP5 SWAP4 POP POP POP POP JUMP JUMPDEST PUSH2 0x51E DUP4 DUP4 DUP4 PUSH1 0x40 MLOAD DUP1 PUSH1 0x20 ADD PUSH1 0x40 MSTORE DUP1 PUSH1 0x0 DUP2 MSTORE POP PUSH2 0xAFE JUMP JUMPDEST PUSH1 0x0 DUP2 DUP2 MSTORE PUSH1 0x2 PUSH1 0x20 MSTORE PUSH1 0x40 DUP2 KECCAK256 SLOAD PUSH1 0x1 PUSH1 0x1 PUSH1 0xA0 SHL SUB AND DUP1 PUSH2 0x34A JUMPI PUSH1 0x40 MLOAD PUSH3 0x461BCD PUSH1 0xE5 SHL DUP2 MSTORE PUSH1 0x20 PUSH1 0x4 DUP3 ADD MSTORE PUSH1 0x18 PUSH1 0x24 DUP3 ADD MSTORE PUSH24 0x115490CDCC8C4E881A5B9D985B1A59081D1BDAD95B881251 PUSH1 0x42 SHL PUSH1 0x44 DUP3 ADD MSTORE PUSH1 0x64 ADD PUSH2 0x47D JUMP JUMPDEST PUSH1 0x0 PUSH2 0x77D PUSH1 0x7 DUP1 SLOAD PUSH1 0x1 ADD SWAP1 SSTORE JUMP JUMPDEST PUSH1 0x0 PUSH2 0x788 PUSH1 0x7 SLOAD SWAP1 JUMP JUMPDEST SWAP1 POP PUSH2 0x794 CALLER DUP3 PUSH2 0xF61 JUMP JUMPDEST PUSH2 0x79E DUP2 DUP5 PUSH2 0xF7B JUMP JUMPDEST PUSH1 0x40 DUP1 MLOAD DUP1 DUP3 ADD DUP3 MSTORE DUP3 DUP2 MSTORE CALLER PUSH1 0x20 DUP1 DUP4 ADD SWAP2 DUP3 MSTORE PUSH1 0x0 DUP6 DUP2 MSTORE PUSH1 0x8 SWAP1 SWAP2 MSTORE SWAP3 SWAP1 SWAP3 KECCAK256 SWAP1 MLOAD DUP2 SSTORE SWAP1 MLOAD PUSH1 0x1 SWAP1 SWAP2 ADD DUP1 SLOAD PUSH1 0x1 PUSH1 0x1 PUSH1 0xA0 SHL SUB NOT AND PUSH1 0x1 PUSH1 0x1 PUSH1 0xA0 SHL SUB SWAP1 SWAP3 AND SWAP2 SWAP1 SWAP2 OR SWAP1 SSTORE PUSH2 0x34A CALLER ADDRESS DUP4 PUSH2 0xDF0 JUMP JUMPDEST PUSH1 0x0 PUSH1 0x1 PUSH1 0x1 PUSH1 0xA0 SHL SUB DUP3 AND PUSH2 0x85E JUMPI PUSH1 0x40 MLOAD PUSH3 0x461BCD PUSH1 0xE5 SHL DUP2 MSTORE PUSH1 0x20 PUSH1 0x4 DUP3 ADD MSTORE PUSH1 0x29 PUSH1 0x24 DUP3 ADD MSTORE PUSH32 0x4552433732313A2061646472657373207A65726F206973206E6F742061207661 PUSH1 0x44 DUP3 ADD MSTORE PUSH9 0x3634B21037BBB732B9 PUSH1 0xB9 SHL PUSH1 0x64 DUP3 ADD MSTORE PUSH1 0x84 ADD PUSH2 0x47D JUMP JUMPDEST POP PUSH1 0x1 PUSH1 0x1 PUSH1 0xA0 SHL SUB AND PUSH1 0x0 SWAP1 DUP2 MSTORE PUSH1 0x3 PUSH1 0x20 MSTORE PUSH1 0x40 SWAP1 KECCAK256 SLOAD SWAP1 JUMP JUMPDEST PUSH1 0x0 PUSH2 0x885 PUSH1 0x7 SLOAD SWAP1 JUMP JUMPDEST SWAP1 POP SWAP1 JUMP JUMPDEST PUSH1 0x0 DUP2 SWAP1 POP DUP1 PUSH1 0x1 PUSH1 0x1 PUSH1 0xA0 SHL SUB AND PUSH4 0x51EA68F PUSH1 0x40 MLOAD DUP2 PUSH4 0xFFFFFFFF AND PUSH1 0xE0 SHL DUP2 MSTORE PUSH1 0x4 ADD PUSH1 0x20 PUSH1 0x40 MLOAD DUP1 DUP4 SUB DUP2 DUP7 GAS STATICCALL ISZERO DUP1 ISZERO PUSH2 0x8CD JUMPI RETURNDATASIZE PUSH1 0x0 DUP1 RETURNDATACOPY RETURNDATASIZE PUSH1 0x0 REVERT JUMPDEST POP POP POP POP PUSH1 0x40 MLOAD RETURNDATASIZE PUSH1 0x1F NOT PUSH1 0x1F DUP3 ADD AND DUP3 ADD DUP1 PUSH1 0x40 MSTORE POP DUP2 ADD SWAP1 PUSH2 0x8F1 SWAP2 SWAP1 PUSH2 0x1ACD JUMP JUMPDEST PUSH2 0x957 JUMPI PUSH1 0x40 MLOAD PUSH3 0x461BCD PUSH1 0xE5 SHL DUP2 MSTORE PUSH1 0x20 PUSH1 0x4 DUP3 ADD MSTORE PUSH1 0x31 PUSH1 0x24 DUP3 ADD MSTORE PUSH32 0x4F776E6572207374696C6C20616C6976652C20796F752063616E277420726564 PUSH1 0x44 DUP3 ADD MSTORE PUSH17 0x32B2B6903A34329027232A39903CB2BA17 PUSH1 0x79 SHL PUSH1 0x64 DUP3 ADD MSTORE PUSH1 0x84 ADD PUSH2 0x47D JUMP JUMPDEST PUSH1 0x0 DUP2 PUSH1 0x1 PUSH1 0x1 PUSH1 0xA0 SHL SUB AND PUSH4 0xFFC15B7C PUSH1 0x40 MLOAD DUP2 PUSH4 0xFFFFFFFF AND PUSH1 0xE0 SHL DUP2 MSTORE PUSH1 0x4 ADD PUSH1 0x0 PUSH1 0x40 MLOAD DUP1 DUP4 SUB DUP2 DUP7 GAS STATICCALL ISZERO DUP1 ISZERO PUSH2 0x997 JUMPI RETURNDATASIZE PUSH1 0x0 DUP1 RETURNDATACOPY RETURNDATASIZE PUSH1 0x0 REVERT JUMPDEST POP POP POP POP PUSH1 0x40 MLOAD RETURNDATASIZE PUSH1 0x0 DUP3 RETURNDATACOPY PUSH1 0x1F RETURNDATASIZE SWAP1 DUP2 ADD PUSH1 0x1F NOT AND DUP3 ADD PUSH1 0x40 MSTORE PUSH2 0x9BF SWAP2 SWAP1 DUP2 ADD SWAP1 PUSH2 0x1B0E JUMP JUMPDEST SWAP1 POP PUSH1 0x0 JUMPDEST DUP2 MLOAD DUP2 LT ISZERO PUSH2 0xADA JUMPI PUSH1 0x0 DUP4 PUSH1 0x1 PUSH1 0x1 PUSH1 0xA0 SHL SUB AND PUSH4 0x35D6F873 DUP5 DUP5 DUP2 MLOAD DUP2 LT PUSH2 0x9F0 JUMPI PUSH2 0x9F0 PUSH2 0x1AB7 JUMP JUMPDEST PUSH1 0x20 MUL PUSH1 0x20 ADD ADD MLOAD PUSH1 0x40 MLOAD DUP3 PUSH4 0xFFFFFFFF AND PUSH1 0xE0 SHL DUP2 MSTORE PUSH1 0x4 ADD PUSH2 0xA23 SWAP2 SWAP1 PUSH1 0x1 PUSH1 0x1 PUSH1 0xA0 SHL SUB SWAP2 SWAP1 SWAP2 AND DUP2 MSTORE PUSH1 0x20 ADD SWAP1 JUMP JUMPDEST PUSH1 0x0 PUSH1 0x40 MLOAD DUP1 DUP4 SUB DUP2 DUP7 GAS STATICCALL ISZERO DUP1 ISZERO PUSH2 0xA40 JUMPI RETURNDATASIZE PUSH1 0x0 DUP1 RETURNDATACOPY RETURNDATASIZE PUSH1 0x0 REVERT JUMPDEST POP POP POP POP PUSH1 0x40 MLOAD RETURNDATASIZE PUSH1 0x0 DUP3 RETURNDATACOPY PUSH1 0x1F RETURNDATASIZE SWAP1 DUP2 ADD PUSH1 0x1F NOT AND DUP3 ADD PUSH1 0x40 MSTORE PUSH2 0xA68 SWAP2 SWAP1 DUP2 ADD SWAP1 PUSH2 0x1BAD JUMP JUMPDEST SWAP1 POP PUSH1 0x0 JUMPDEST DUP2 MLOAD DUP2 LT ISZERO PUSH2 0xAC5 JUMPI PUSH2 0xAB3 ADDRESS DUP6 DUP6 DUP2 MLOAD DUP2 LT PUSH2 0xA8C JUMPI PUSH2 0xA8C PUSH2 0x1AB7 JUMP JUMPDEST PUSH1 0x20 MUL PUSH1 0x20 ADD ADD MLOAD DUP5 DUP5 DUP2 MLOAD DUP2 LT PUSH2 0xAA6 JUMPI PUSH2 0xAA6 PUSH2 0x1AB7 JUMP JUMPDEST PUSH1 0x20 MUL PUSH1 0x20 ADD ADD MLOAD PUSH2 0xDF0 JUMP JUMPDEST DUP1 PUSH2 0xABD DUP2 PUSH2 0x1A9E JUMP JUMPDEST SWAP2 POP POP PUSH2 0xA6D JUMP JUMPDEST POP POP DUP1 DUP1 PUSH2 0xAD2 SWAP1 PUSH2 0x1A9E JUMP JUMPDEST SWAP2 POP POP PUSH2 0x9C4 JUMP JUMPDEST POP POP POP POP JUMP JUMPDEST PUSH1 0x60 PUSH1 0x1 DUP1 SLOAD PUSH2 0x35F SWAP1 PUSH2 0x19EE JUMP JUMPDEST PUSH2 0xAFA CALLER DUP4 DUP4 PUSH2 0x100E JUMP JUMPDEST POP POP JUMP JUMPDEST PUSH2 0xB08 CALLER DUP4 PUSH2 0xD92 JUMP JUMPDEST PUSH2 0xB24 JUMPI PUSH1 0x40 MLOAD PUSH3 0x461BCD PUSH1 0xE5 SHL DUP2 MSTORE PUSH1 0x4 ADD PUSH2 0x47D SWAP1 PUSH2 0x1A28 JUMP JUMPDEST PUSH2 0xADA DUP5 DUP5 DUP5 DUP5 PUSH2 0x10DC JUMP JUMPDEST PUSH1 0x60 PUSH2 0xB3B DUP3 PUSH2 0xCC2 JUMP JUMPDEST PUSH1 0x0 DUP3 DUP2 MSTORE PUSH1 0x6 PUSH1 0x20 MSTORE PUSH1 0x40 DUP2 KECCAK256 DUP1 SLOAD PUSH2 0xB54 SWAP1 PUSH2 0x19EE JUMP JUMPDEST DUP1 PUSH1 0x1F ADD PUSH1 0x20 DUP1 SWAP2 DIV MUL PUSH1 0x20 ADD PUSH1 0x40 MLOAD SWAP1 DUP2 ADD PUSH1 0x40 MSTORE DUP1 SWAP3 SWAP2 SWAP1 DUP2 DUP2 MSTORE PUSH1 0x20 ADD DUP3 DUP1 SLOAD PUSH2 0xB80 SWAP1 PUSH2 0x19EE JUMP JUMPDEST DUP1 ISZERO PUSH2 0xBCD JUMPI DUP1 PUSH1 0x1F LT PUSH2 0xBA2 JUMPI PUSH2 0x100 DUP1 DUP4 SLOAD DIV MUL DUP4 MSTORE SWAP2 PUSH1 0x20 ADD SWAP2 PUSH2 0xBCD JUMP JUMPDEST DUP3 ADD SWAP2 SWAP1 PUSH1 0x0 MSTORE PUSH1 0x20 PUSH1 0x0 KECCAK256 SWAP1 JUMPDEST DUP2 SLOAD DUP2 MSTORE SWAP1 PUSH1 0x1 ADD SWAP1 PUSH1 0x20 ADD DUP1 DUP4 GT PUSH2 0xBB0 JUMPI DUP3 SWAP1 SUB PUSH1 0x1F AND DUP3 ADD SWAP2 JUMPDEST POP POP POP POP POP SWAP1 POP PUSH1 0x0 PUSH2 0xBEB PUSH1 0x40 DUP1 MLOAD PUSH1 0x20 DUP2 ADD SWAP1 SWAP2 MSTORE PUSH1 0x0 DUP2 MSTORE SWAP1 JUMP JUMPDEST SWAP1 POP DUP1 MLOAD PUSH1 0x0 SUB PUSH2 0xBFD JUMPI POP SWAP3 SWAP2 POP POP JUMP JUMPDEST DUP2 MLOAD ISZERO PUSH2 0xC2F JUMPI DUP1 DUP3 PUSH1 0x40 MLOAD PUSH1 0x20 ADD PUSH2 0xC17 SWAP3 SWAP2 SWAP1 PUSH2 0x1C33 JUMP JUMPDEST PUSH1 0x40 MLOAD PUSH1 0x20 DUP2 DUP4 SUB SUB DUP2 MSTORE SWAP1 PUSH1 0x40 MSTORE SWAP3 POP POP POP SWAP2 SWAP1 POP JUMP JUMPDEST PUSH2 0xC38 DUP5 PUSH2 0x110F JUMP JUMPDEST SWAP5 SWAP4 POP POP POP POP JUMP JUMPDEST PUSH1 0x40 DUP1 MLOAD DUP1 DUP3 ADD SWAP1 SWAP2 MSTORE PUSH1 0x0 DUP1 DUP3 MSTORE PUSH1 0x20 DUP3 ADD MSTORE PUSH1 0x0 PUSH2 0xC5F PUSH1 0x7 SLOAD SWAP1 JUMP JUMPDEST PUSH1 0x0 SWAP1 DUP2 MSTORE PUSH1 0x8 PUSH1 0x20 SWAP1 DUP2 MSTORE PUSH1 0x40 SWAP2 DUP3 SWAP1 KECCAK256 DUP3 MLOAD DUP1 DUP5 ADD SWAP1 SWAP4 MSTORE DUP1 SLOAD DUP4 MSTORE PUSH1 0x1 ADD SLOAD PUSH1 0x1 PUSH1 0x1 PUSH1 0xA0 SHL SUB AND SWAP1 DUP3 ADD MSTORE SWAP3 SWAP2 POP POP JUMP JUMPDEST PUSH1 0x1 PUSH1 0x1 PUSH1 0xA0 SHL SUB SWAP2 DUP3 AND PUSH1 0x0 SWAP1 DUP2 MSTORE PUSH1 0x5 PUSH1 0x20 SWAP1 DUP2 MSTORE PUSH1 0x40 DUP1 DUP4 KECCAK256 SWAP4 SWAP1 SWAP5 AND DUP3 MSTORE SWAP2 SWAP1 SWAP2 MSTORE KECCAK256 SLOAD PUSH1 0xFF AND SWAP1 JUMP JUMPDEST PUSH1 0x0 DUP2 DUP2 MSTORE PUSH1 0x2 PUSH1 0x20 MSTORE PUSH1 0x40 SWAP1 KECCAK256 SLOAD PUSH1 0x1 PUSH1 0x1 PUSH1 0xA0 SHL SUB AND PUSH2 0xD21 JUMPI PUSH1 0x40 MLOAD PUSH3 0x461BCD PUSH1 0xE5 SHL DUP2 MSTORE PUSH1 0x20 PUSH1 0x4 DUP3 ADD MSTORE PUSH1 0x18 PUSH1 0x24 DUP3 ADD MSTORE PUSH24 0x115490CDCC8C4E881A5B9D985B1A59081D1BDAD95B881251 PUSH1 0x42 SHL PUSH1 0x44 DUP3 ADD MSTORE PUSH1 0x64 ADD PUSH2 0x47D JUMP JUMPDEST POP JUMP JUMPDEST PUSH1 0x0 DUP2 DUP2 MSTORE PUSH1 0x4 PUSH1 0x20 MSTORE PUSH1 0x40 SWAP1 KECCAK256 DUP1 SLOAD PUSH1 0x1 PUSH1 0x1 PUSH1 0xA0 SHL SUB NOT AND PUSH1 0x1 PUSH1 0x1 PUSH1 0xA0 SHL SUB DUP5 AND SWAP1 DUP2 OR SWAP1 SWAP2 SSTORE DUP2 SWAP1 PUSH2 0xD59 DUP3 PUSH2 0x70D JUMP JUMPDEST PUSH1 0x1 PUSH1 0x1 PUSH1 0xA0 SHL SUB AND PUSH32 0x8C5BE1E5EBEC7D5BD14F71427D1E84F3DD0314C0F7B2291E5B200AC8C7C3B925 PUSH1 0x40 MLOAD PUSH1 0x40 MLOAD DUP1 SWAP2 SUB SWAP1 LOG4 POP POP JUMP JUMPDEST PUSH1 0x0 DUP1 PUSH2 0xD9E DUP4 PUSH2 0x70D JUMP JUMPDEST SWAP1 POP DUP1 PUSH1 0x1 PUSH1 0x1 PUSH1 0xA0 SHL SUB AND DUP5 PUSH1 0x1 PUSH1 0x1 PUSH1 0xA0 SHL SUB AND EQ DUP1 PUSH2 0xDC5 JUMPI POP PUSH2 0xDC5 DUP2 DUP6 PUSH2 0xC94 JUMP JUMPDEST DUP1 PUSH2 0xC38 JUMPI POP DUP4 PUSH1 0x1 PUSH1 0x1 PUSH1 0xA0 SHL SUB AND PUSH2 0xDDE DUP5 PUSH2 0x3E2 JUMP JUMPDEST PUSH1 0x1 PUSH1 0x1 PUSH1 0xA0 SHL SUB AND EQ SWAP5 SWAP4 POP POP POP POP JUMP JUMPDEST DUP3 PUSH1 0x1 PUSH1 0x1 PUSH1 0xA0 SHL SUB AND PUSH2 0xE03 DUP3 PUSH2 0x70D JUMP JUMPDEST PUSH1 0x1 PUSH1 0x1 PUSH1 0xA0 SHL SUB AND EQ PUSH2 0xE29 JUMPI PUSH1 0x40 MLOAD PUSH3 0x461BCD PUSH1 0xE5 SHL DUP2 MSTORE PUSH1 0x4 ADD PUSH2 0x47D SWAP1 PUSH2 0x1C62 JUMP JUMPDEST PUSH1 0x1 PUSH1 0x1 PUSH1 0xA0 SHL SUB DUP3 AND PUSH2 0xE8B JUMPI PUSH1 0x40 MLOAD PUSH3 0x461BCD PUSH1 0xE5 SHL DUP2 MSTORE PUSH1 0x20 PUSH1 0x4 DUP3 ADD MSTORE PUSH1 0x24 DUP1 DUP3 ADD MSTORE PUSH32 0x4552433732313A207472616E7366657220746F20746865207A65726F20616464 PUSH1 0x44 DUP3 ADD MSTORE PUSH4 0x72657373 PUSH1 0xE0 SHL PUSH1 0x64 DUP3 ADD MSTORE PUSH1 0x84 ADD PUSH2 0x47D JUMP JUMPDEST PUSH2 0xE98 DUP4 DUP4 DUP4 PUSH1 0x1 PUSH2 0x1183 JUMP JUMPDEST DUP3 PUSH1 0x1 PUSH1 0x1 PUSH1 0xA0 SHL SUB AND PUSH2 0xEAB DUP3 PUSH2 0x70D JUMP JUMPDEST PUSH1 0x1 PUSH1 0x1 PUSH1 0xA0 SHL SUB AND EQ PUSH2 0xED1 JUMPI PUSH1 0x40 MLOAD PUSH3 0x461BCD PUSH1 0xE5 SHL DUP2 MSTORE PUSH1 0x4 ADD PUSH2 0x47D SWAP1 PUSH2 0x1C62 JUMP JUMPDEST PUSH1 0x0 DUP2 DUP2 MSTORE PUSH1 0x4 PUSH1 0x20 SWAP1 DUP2 MSTORE PUSH1 0x40 DUP1 DUP4 KECCAK256 DUP1 SLOAD PUSH1 0x1 PUSH1 0x1 PUSH1 0xA0 SHL SUB NOT SWAP1 DUP2 AND SWAP1 SWAP2 SSTORE PUSH1 0x1 PUSH1 0x1 PUSH1 0xA0 SHL SUB DUP8 DUP2 AND DUP1 DUP7 MSTORE PUSH1 0x3 DUP6 MSTORE DUP4 DUP7 KECCAK256 DUP1 SLOAD PUSH1 0x0 NOT ADD SWAP1 SSTORE SWAP1 DUP8 AND DUP1 DUP7 MSTORE DUP4 DUP7 KECCAK256 DUP1 SLOAD PUSH1 0x1 ADD SWAP1 SSTORE DUP7 DUP7 MSTORE PUSH1 0x2 SWAP1 SWAP5 MSTORE DUP3 DUP6 KECCAK256 DUP1 SLOAD SWAP1 SWAP3 AND DUP5 OR SWAP1 SWAP2 SSTORE SWAP1 MLOAD DUP5 SWAP4 PUSH32 0xDDF252AD1BE2C89B69C2B068FC378DAA952BA7F163C4A11628F55A4DF523B3EF SWAP2 LOG4 POP POP POP JUMP JUMPDEST PUSH2 0xAFA DUP3 DUP3 PUSH1 0x40 MLOAD DUP1 PUSH1 0x20 ADD PUSH1 0x40 MSTORE DUP1 PUSH1 0x0 DUP2 MSTORE POP PUSH2 0x120B JUMP JUMPDEST PUSH1 0x0 DUP3 DUP2 MSTORE PUSH1 0x2 PUSH1 0x20 MSTORE PUSH1 0x40 SWAP1 KECCAK256 SLOAD PUSH1 0x1 PUSH1 0x1 PUSH1 0xA0 SHL SUB AND PUSH2 0xFF6 JUMPI PUSH1 0x40 MLOAD PUSH3 0x461BCD PUSH1 0xE5 SHL DUP2 MSTORE PUSH1 0x20 PUSH1 0x4 DUP3 ADD MSTORE PUSH1 0x2E PUSH1 0x24 DUP3 ADD MSTORE PUSH32 0x45524337323155524953746F726167653A2055524920736574206F66206E6F6E PUSH1 0x44 DUP3 ADD MSTORE PUSH14 0x32BC34B9BA32B73A103A37B5B2B7 PUSH1 0x91 SHL PUSH1 0x64 DUP3 ADD MSTORE PUSH1 0x84 ADD PUSH2 0x47D JUMP JUMPDEST PUSH1 0x0 DUP3 DUP2 MSTORE PUSH1 0x6 PUSH1 0x20 MSTORE PUSH1 0x40 SWAP1 KECCAK256 PUSH2 0x51E DUP3 DUP3 PUSH2 0x1CF5 JUMP JUMPDEST DUP2 PUSH1 0x1 PUSH1 0x1 PUSH1 0xA0 SHL SUB AND DUP4 PUSH1 0x1 PUSH1 0x1 PUSH1 0xA0 SHL SUB AND SUB PUSH2 0x106F JUMPI PUSH1 0x40 MLOAD PUSH3 0x461BCD PUSH1 0xE5 SHL DUP2 MSTORE PUSH1 0x20 PUSH1 0x4 DUP3 ADD MSTORE PUSH1 0x19 PUSH1 0x24 DUP3 ADD MSTORE PUSH32 0x4552433732313A20617070726F766520746F2063616C6C657200000000000000 PUSH1 0x44 DUP3 ADD MSTORE PUSH1 0x64 ADD PUSH2 0x47D JUMP JUMPDEST PUSH1 0x1 PUSH1 0x1 PUSH1 0xA0 SHL SUB DUP4 DUP2 AND PUSH1 0x0 DUP2 DUP2 MSTORE PUSH1 0x5 PUSH1 0x20 SWAP1 DUP2 MSTORE PUSH1 0x40 DUP1 DUP4 KECCAK256 SWAP5 DUP8 AND DUP1 DUP5 MSTORE SWAP5 DUP3 MSTORE SWAP2 DUP3 SWAP1 KECCAK256 DUP1 SLOAD PUSH1 0xFF NOT AND DUP7 ISZERO ISZERO SWAP1 DUP2 OR SWAP1 SWAP2 SSTORE SWAP2 MLOAD SWAP2 DUP3 MSTORE PUSH32 0x17307EAB39AB6107E8899845AD3D59BD9653F200F220920489CA2B5937696C31 SWAP2 ADD PUSH1 0x40 MLOAD DUP1 SWAP2 SUB SWAP1 LOG3 POP POP POP JUMP JUMPDEST PUSH2 0x10E7 DUP5 DUP5 DUP5 PUSH2 0xDF0 JUMP JUMPDEST PUSH2 0x10F3 DUP5 DUP5 DUP5 DUP5 PUSH2 0x123E JUMP JUMPDEST PUSH2 0xADA JUMPI PUSH1 0x40 MLOAD PUSH3 0x461BCD PUSH1 0xE5 SHL DUP2 MSTORE PUSH1 0x4 ADD PUSH2 0x47D SWAP1 PUSH2 0x1DB5 JUMP JUMPDEST PUSH1 0x60 PUSH2 0x111A DUP3 PUSH2 0xCC2 JUMP JUMPDEST PUSH1 0x0 PUSH2 0x1131 PUSH1 0x40 DUP1 MLOAD PUSH1 0x20 DUP2 ADD SWAP1 SWAP2 MSTORE PUSH1 0x0 DUP2 MSTORE SWAP1 JUMP JUMPDEST SWAP1 POP PUSH1 0x0 DUP2 MLOAD GT PUSH2 0x1151 JUMPI PUSH1 0x40 MLOAD DUP1 PUSH1 0x20 ADD PUSH1 0x40 MSTORE DUP1 PUSH1 0x0 DUP2 MSTORE POP PUSH2 0x117C JUMP JUMPDEST DUP1 PUSH2 0x115B DUP5 PUSH2 0x133F JUMP JUMPDEST PUSH1 0x40 MLOAD PUSH1 0x20 ADD PUSH2 0x116C SWAP3 SWAP2 SWAP1 PUSH2 0x1C33 JUMP JUMPDEST PUSH1 0x40 MLOAD PUSH1 0x20 DUP2 DUP4 SUB SUB DUP2 MSTORE SWAP1 PUSH1 0x40 MSTORE JUMPDEST SWAP4 SWAP3 POP POP POP JUMP JUMPDEST PUSH1 0x1 DUP2 GT ISZERO PUSH2 0xADA JUMPI PUSH1 0x1 PUSH1 0x1 PUSH1 0xA0 SHL SUB DUP5 AND ISZERO PUSH2 0x11C9 JUMPI PUSH1 0x1 PUSH1 0x1 PUSH1 0xA0 SHL SUB DUP5 AND PUSH1 0x0 SWAP1 DUP2 MSTORE PUSH1 0x3 PUSH1 0x20 MSTORE PUSH1 0x40 DUP2 KECCAK256 DUP1 SLOAD DUP4 SWAP3 SWAP1 PUSH2 0x11C3 SWAP1 DUP5 SWAP1 PUSH2 0x1E07 JUMP JUMPDEST SWAP1 SWAP2 SSTORE POP POP JUMPDEST PUSH1 0x1 PUSH1 0x1 PUSH1 0xA0 SHL SUB DUP4 AND ISZERO PUSH2 0xADA JUMPI PUSH1 0x1 PUSH1 0x1 PUSH1 0xA0 SHL SUB DUP4 AND PUSH1 0x0 SWAP1 DUP2 MSTORE PUSH1 0x3 PUSH1 0x20 MSTORE PUSH1 0x40 DUP2 KECCAK256 DUP1 SLOAD DUP4 SWAP3 SWAP1 PUSH2 0x1200 SWAP1 DUP5 SWAP1 PUSH2 0x1A8B JUMP JUMPDEST SWAP1 SWAP2 SSTORE POP POP POP POP POP POP JUMP JUMPDEST PUSH2 0x1215 DUP4 DUP4 PUSH2 0x13D2 JUMP JUMPDEST PUSH2 0x1222 PUSH1 0x0 DUP5 DUP5 DUP5 PUSH2 0x123E JUMP JUMPDEST PUSH2 0x51E JUMPI PUSH1 0x40 MLOAD PUSH3 0x461BCD PUSH1 0xE5 SHL DUP2 MSTORE PUSH1 0x4 ADD PUSH2 0x47D SWAP1 PUSH2 0x1DB5 JUMP JUMPDEST PUSH1 0x0 PUSH1 0x1 PUSH1 0x1 PUSH1 0xA0 SHL SUB DUP5 AND EXTCODESIZE ISZERO PUSH2 0x1334 JUMPI PUSH1 0x40 MLOAD PUSH4 0xA85BD01 PUSH1 0xE1 SHL DUP2 MSTORE PUSH1 0x1 PUSH1 0x1 PUSH1 0xA0 SHL SUB DUP6 AND SWAP1 PUSH4 0x150B7A02 SWAP1 PUSH2 0x1282 SWAP1 CALLER SWAP1 DUP10 SWAP1 DUP9 SWAP1 DUP9 SWAP1 PUSH1 0x4 ADD PUSH2 0x1E1A JUMP JUMPDEST PUSH1 0x20 PUSH1 0x40 MLOAD DUP1 DUP4 SUB DUP2 PUSH1 0x0 DUP8 GAS CALL SWAP3 POP POP POP DUP1 ISZERO PUSH2 0x12BD JUMPI POP PUSH1 0x40 DUP1 MLOAD PUSH1 0x1F RETURNDATASIZE SWAP1 DUP2 ADD PUSH1 0x1F NOT AND DUP3 ADD SWAP1 SWAP3 MSTORE PUSH2 0x12BA SWAP2 DUP2 ADD SWAP1 PUSH2 0x1E57 JUMP JUMPDEST PUSH1 0x1 JUMPDEST PUSH2 0x131A JUMPI RETURNDATASIZE DUP1 DUP1 ISZERO PUSH2 0x12EB JUMPI PUSH1 0x40 MLOAD SWAP2 POP PUSH1 0x1F NOT PUSH1 0x3F RETURNDATASIZE ADD AND DUP3 ADD PUSH1 0x40 MSTORE RETURNDATASIZE DUP3 MSTORE RETURNDATASIZE PUSH1 0x0 PUSH1 0x20 DUP5 ADD RETURNDATACOPY PUSH2 0x12F0 JUMP JUMPDEST PUSH1 0x60 SWAP2 POP JUMPDEST POP DUP1 MLOAD PUSH1 0x0 SUB PUSH2 0x1312 JUMPI PUSH1 0x40 MLOAD PUSH3 0x461BCD PUSH1 0xE5 SHL DUP2 MSTORE PUSH1 0x4 ADD PUSH2 0x47D SWAP1 PUSH2 0x1DB5 JUMP JUMPDEST DUP1 MLOAD DUP2 PUSH1 0x20 ADD REVERT JUMPDEST PUSH1 0x1 PUSH1 0x1 PUSH1 0xE0 SHL SUB NOT AND PUSH4 0xA85BD01 PUSH1 0xE1 SHL EQ SWAP1 POP PUSH2 0xC38 JUMP JUMPDEST POP PUSH1 0x1 SWAP5 SWAP4 POP POP POP POP JUMP JUMPDEST PUSH1 0x60 PUSH1 0x0 PUSH2 0x134C DUP4 PUSH2 0x156B JUMP JUMPDEST PUSH1 0x1 ADD SWAP1 POP PUSH1 0x0 DUP2 PUSH8 0xFFFFFFFFFFFFFFFF DUP2 GT ISZERO PUSH2 0x136C JUMPI PUSH2 0x136C PUSH2 0x17F4 JUMP JUMPDEST PUSH1 0x40 MLOAD SWAP1 DUP1 DUP3 MSTORE DUP1 PUSH1 0x1F ADD PUSH1 0x1F NOT AND PUSH1 0x20 ADD DUP3 ADD PUSH1 0x40 MSTORE DUP1 ISZERO PUSH2 0x1396 JUMPI PUSH1 0x20 DUP3 ADD DUP2 DUP1 CALLDATASIZE DUP4 CALLDATACOPY ADD SWAP1 POP JUMPDEST POP SWAP1 POP DUP2 DUP2 ADD PUSH1 0x20 ADD JUMPDEST PUSH1 0x0 NOT ADD PUSH16 0x181899199A1A9B1B9C1CB0B131B232B3 PUSH1 0x81 SHL PUSH1 0xA DUP7 MOD BYTE DUP2 MSTORE8 PUSH1 0xA DUP6 DIV SWAP5 POP DUP5 PUSH2 0x13A0 JUMPI POP SWAP4 SWAP3 POP POP POP JUMP JUMPDEST PUSH1 0x1 PUSH1 0x1 PUSH1 0xA0 SHL SUB DUP3 AND PUSH2 0x1428 JUMPI PUSH1 0x40 MLOAD PUSH3 0x461BCD PUSH1 0xE5 SHL DUP2 MSTORE PUSH1 0x20 PUSH1 0x4 DUP3 ADD DUP2 SWAP1 MSTORE PUSH1 0x24 DUP3 ADD MSTORE PUSH32 0x4552433732313A206D696E7420746F20746865207A65726F2061646472657373 PUSH1 0x44 DUP3 ADD MSTORE PUSH1 0x64 ADD PUSH2 0x47D JUMP JUMPDEST PUSH1 0x0 DUP2 DUP2 MSTORE PUSH1 0x2 PUSH1 0x20 MSTORE PUSH1 0x40 SWAP1 KECCAK256 SLOAD PUSH1 0x1 PUSH1 0x1 PUSH1 0xA0 SHL SUB AND ISZERO PUSH2 0x148D JUMPI PUSH1 0x40 MLOAD PUSH3 0x461BCD PUSH1 0xE5 SHL DUP2 MSTORE PUSH1 0x20 PUSH1 0x4 DUP3 ADD MSTORE PUSH1 0x1C PUSH1 0x24 DUP3 ADD MSTORE PUSH32 0x4552433732313A20746F6B656E20616C7265616479206D696E74656400000000 PUSH1 0x44 DUP3 ADD MSTORE PUSH1 0x64 ADD PUSH2 0x47D JUMP JUMPDEST PUSH2 0x149B PUSH1 0x0 DUP4 DUP4 PUSH1 0x1 PUSH2 0x1183 JUMP JUMPDEST PUSH1 0x0 DUP2 DUP2 MSTORE PUSH1 0x2 PUSH1 0x20 MSTORE PUSH1 0x40 SWAP1 KECCAK256 SLOAD PUSH1 0x1 PUSH1 0x1 PUSH1 0xA0 SHL SUB AND ISZERO PUSH2 0x1500 JUMPI PUSH1 0x40 MLOAD PUSH3 0x461BCD PUSH1 0xE5 SHL DUP2 MSTORE PUSH1 0x20 PUSH1 0x4 DUP3 ADD MSTORE PUSH1 0x1C PUSH1 0x24 DUP3 ADD MSTORE PUSH32 0x4552433732313A20746F6B656E20616C7265616479206D696E74656400000000 PUSH1 0x44 DUP3 ADD MSTORE PUSH1 0x64 ADD PUSH2 0x47D JUMP JUMPDEST PUSH1 0x1 PUSH1 0x1 PUSH1 0xA0 SHL SUB DUP3 AND PUSH1 0x0 DUP2 DUP2 MSTORE PUSH1 0x3 PUSH1 0x20 SWAP1 DUP2 MSTORE PUSH1 0x40 DUP1 DUP4 KECCAK256 DUP1 SLOAD PUSH1 0x1 ADD SWAP1 SSTORE DUP5 DUP4 MSTORE PUSH1 0x2 SWAP1 SWAP2 MSTORE DUP1 DUP3 KECCAK256 DUP1 SLOAD PUSH1 0x1 PUSH1 0x1 PUSH1 0xA0 SHL SUB NOT AND DUP5 OR SWAP1 SSTORE MLOAD DUP4 SWAP3 SWAP2 SWAP1 PUSH32 0xDDF252AD1BE2C89B69C2B068FC378DAA952BA7F163C4A11628F55A4DF523B3EF SWAP1 DUP3 SWAP1 LOG4 POP POP JUMP JUMPDEST PUSH1 0x0 DUP1 PUSH19 0x184F03E93FF9F4DAA797ED6E38ED64BF6A1F01 PUSH1 0x40 SHL DUP4 LT PUSH2 0x15AA JUMPI PUSH19 0x184F03E93FF9F4DAA797ED6E38ED64BF6A1F01 PUSH1 0x40 SHL DUP4 DIV SWAP3 POP PUSH1 0x40 ADD JUMPDEST PUSH14 0x4EE2D6D415B85ACEF8100000000 DUP4 LT PUSH2 0x15D6 JUMPI PUSH14 0x4EE2D6D415B85ACEF8100000000 DUP4 DIV SWAP3 POP PUSH1 0x20 ADD JUMPDEST PUSH7 0x2386F26FC10000 DUP4 LT PUSH2 0x15F4 JUMPI PUSH7 0x2386F26FC10000 DUP4 DIV SWAP3 POP PUSH1 0x10 ADD JUMPDEST PUSH4 0x5F5E100 DUP4 LT PUSH2 0x160C JUMPI PUSH4 0x5F5E100 DUP4 DIV SWAP3 POP PUSH1 0x8 ADD JUMPDEST PUSH2 0x2710 DUP4 LT PUSH2 0x1620 JUMPI PUSH2 0x2710 DUP4 DIV SWAP3 POP PUSH1 0x4 ADD JUMPDEST PUSH1 0x64 DUP4 LT PUSH2 0x1632 JUMPI PUSH1 0x64 DUP4 DIV SWAP3 POP PUSH1 0x2 ADD JUMPDEST PUSH1 0xA DUP4 LT PUSH2 0x34A JUMPI PUSH1 0x1 ADD SWAP3 SWAP2 POP POP JUMP JUMPDEST PUSH1 0x1 PUSH1 0x1 PUSH1 0xE0 SHL SUB NOT DUP2 AND DUP2 EQ PUSH2 0xD21 JUMPI PUSH1 0x0 DUP1 REVERT JUMPDEST PUSH1 0x0 PUSH1 0x20 DUP3 DUP5 SUB SLT ISZERO PUSH2 0x166B JUMPI PUSH1 0x0 DUP1 REVERT JUMPDEST DUP2 CALLDATALOAD PUSH2 0x117C DUP2 PUSH2 0x1643 JUMP JUMPDEST PUSH1 0x0 JUMPDEST DUP4 DUP2 LT ISZERO PUSH2 0x1691 JUMPI DUP2 DUP2 ADD MLOAD DUP4 DUP3 ADD MSTORE PUSH1 0x20 ADD PUSH2 0x1679 JUMP JUMPDEST POP POP PUSH1 0x0 SWAP2 ADD MSTORE JUMP JUMPDEST PUSH1 0x0 DUP2 MLOAD DUP1 DUP5 MSTORE PUSH2 0x16B2 DUP2 PUSH1 0x20 DUP7 ADD PUSH1 0x20 DUP7 ADD PUSH2 0x1676 JUMP JUMPDEST PUSH1 0x1F ADD PUSH1 0x1F NOT AND SWAP3 SWAP1 SWAP3 ADD PUSH1 0x20 ADD SWAP3 SWAP2 POP POP JUMP JUMPDEST PUSH1 0x20 DUP2 MSTORE PUSH1 0x0 PUSH2 0x117C PUSH1 0x20 DUP4 ADD DUP5 PUSH2 0x169A JUMP JUMPDEST PUSH1 0x0 PUSH1 0x20 DUP3 DUP5 SUB SLT ISZERO PUSH2 0x16EB JUMPI PUSH1 0x0 DUP1 REVERT JUMPDEST POP CALLDATALOAD SWAP2 SWAP1 POP JUMP JUMPDEST PUSH1 0x1 PUSH1 0x1 PUSH1 0xA0 SHL SUB DUP2 AND DUP2 EQ PUSH2 0xD21 JUMPI PUSH1 0x0 DUP1 REVERT JUMPDEST PUSH1 0x0 DUP1 PUSH1 0x40 DUP4 DUP6 SUB SLT ISZERO PUSH2 0x171A JUMPI PUSH1 0x0 DUP1 REVERT JUMPDEST DUP3 CALLDATALOAD PUSH2 0x1725 DUP2 PUSH2 0x16F2 JUMP JUMPDEST SWAP5 PUSH1 0x20 SWAP4 SWAP1 SWAP4 ADD CALLDATALOAD SWAP4 POP POP POP JUMP JUMPDEST PUSH1 0x0 DUP1 PUSH1 0x0 PUSH1 0x60 DUP5 DUP7 SUB SLT ISZERO PUSH2 0x1748 JUMPI PUSH1 0x0 DUP1 REVERT JUMPDEST DUP4 CALLDATALOAD PUSH2 0x1753 DUP2 PUSH2 0x16F2 JUMP JUMPDEST SWAP3 POP PUSH1 0x20 DUP5 ADD CALLDATALOAD PUSH2 0x1763 DUP2 PUSH2 0x16F2 JUMP JUMPDEST SWAP3 SWAP6 SWAP3 SWAP5 POP POP POP PUSH1 0x40 SWAP2 SWAP1 SWAP2 ADD CALLDATALOAD SWAP1 JUMP JUMPDEST PUSH1 0x20 DUP1 DUP3 MSTORE DUP3 MLOAD DUP3 DUP3 ADD DUP2 SWAP1 MSTORE PUSH1 0x0 SWAP2 SWAP1 PUSH1 0x40 SWAP1 DUP2 DUP6 ADD SWAP1 DUP7 DUP5 ADD DUP6 JUMPDEST DUP3 DUP2 LT ISZERO PUSH2 0x17C7 JUMPI PUSH2 0x17B7 DUP5 DUP4 MLOAD DUP1 MLOAD DUP3 MSTORE PUSH1 0x20 SWAP1 DUP2 ADD MLOAD PUSH1 0x1 PUSH1 0x1 PUSH1 0xA0 SHL SUB AND SWAP2 ADD MSTORE JUMP JUMPDEST SWAP3 DUP5 ADD SWAP3 SWAP1 DUP6 ADD SWAP1 PUSH1 0x1 ADD PUSH2 0x1791 JUMP JUMPDEST POP SWAP2 SWAP8 SWAP7 POP POP POP POP POP POP POP JUMP JUMPDEST DUP2 MLOAD DUP2 MSTORE PUSH1 0x20 DUP1 DUP4 ADD MLOAD PUSH1 0x1 PUSH1 0x1 PUSH1 0xA0 SHL SUB AND SWAP1 DUP3 ADD MSTORE PUSH1 0x40 DUP2 ADD PUSH2 0x34A JUMP JUMPDEST PUSH4 0x4E487B71 PUSH1 0xE0 SHL PUSH1 0x0 MSTORE PUSH1 0x41 PUSH1 0x4 MSTORE PUSH1 0x24 PUSH1 0x0 REVERT JUMPDEST PUSH1 0x40 MLOAD PUSH1 0x1F DUP3 ADD PUSH1 0x1F NOT AND DUP2 ADD PUSH8 0xFFFFFFFFFFFFFFFF DUP2 GT DUP3 DUP3 LT OR ISZERO PUSH2 0x1833 JUMPI PUSH2 0x1833 PUSH2 0x17F4 JUMP JUMPDEST PUSH1 0x40 MSTORE SWAP2 SWAP1 POP JUMP JUMPDEST PUSH1 0x0 PUSH8 0xFFFFFFFFFFFFFFFF DUP4 GT ISZERO PUSH2 0x1855 JUMPI PUSH2 0x1855 PUSH2 0x17F4 JUMP JUMPDEST PUSH2 0x1868 PUSH1 0x1F DUP5 ADD PUSH1 0x1F NOT AND PUSH1 0x20 ADD PUSH2 0x180A JUMP JUMPDEST SWAP1 POP DUP3 DUP2 MSTORE DUP4 DUP4 DUP4 ADD GT ISZERO PUSH2 0x187C JUMPI PUSH1 0x0 DUP1 REVERT JUMPDEST DUP3 DUP3 PUSH1 0x20 DUP4 ADD CALLDATACOPY PUSH1 0x0 PUSH1 0x20 DUP5 DUP4 ADD ADD MSTORE SWAP4 SWAP3 POP POP POP JUMP JUMPDEST PUSH1 0x0 PUSH1 0x20 DUP3 DUP5 SUB SLT ISZERO PUSH2 0x18A5 JUMPI PUSH1 0x0 DUP1 REVERT JUMPDEST DUP2 CALLDATALOAD PUSH8 0xFFFFFFFFFFFFFFFF DUP2 GT ISZERO PUSH2 0x18BC JUMPI PUSH1 0x0 DUP1 REVERT JUMPDEST DUP3 ADD PUSH1 0x1F DUP2 ADD DUP5 SGT PUSH2 0x18CD JUMPI PUSH1 0x0 DUP1 REVERT JUMPDEST PUSH2 0xC38 DUP5 DUP3 CALLDATALOAD PUSH1 0x20 DUP5 ADD PUSH2 0x183B JUMP JUMPDEST PUSH1 0x0 PUSH1 0x20 DUP3 DUP5 SUB SLT ISZERO PUSH2 0x18EE JUMPI PUSH1 0x0 DUP1 REVERT JUMPDEST DUP2 CALLDATALOAD PUSH2 0x117C DUP2 PUSH2 0x16F2 JUMP JUMPDEST DUP1 ISZERO ISZERO DUP2 EQ PUSH2 0xD21 JUMPI PUSH1 0x0 DUP1 REVERT JUMPDEST PUSH1 0x0 DUP1 PUSH1 0x40 DUP4 DUP6 SUB SLT ISZERO PUSH2 0x191A JUMPI PUSH1 0x0 DUP1 REVERT JUMPDEST DUP3 CALLDATALOAD PUSH2 0x1925 DUP2 PUSH2 0x16F2 JUMP JUMPDEST SWAP2 POP PUSH1 0x20 DUP4 ADD CALLDATALOAD PUSH2 0x1935 DUP2 PUSH2 0x18F9 JUMP JUMPDEST DUP1 SWAP2 POP POP SWAP3 POP SWAP3 SWAP1 POP JUMP JUMPDEST PUSH1 0x0 DUP1 PUSH1 0x0 DUP1 PUSH1 0x80 DUP6 DUP8 SUB SLT ISZERO PUSH2 0x1956 JUMPI PUSH1 0x0 DUP1 REVERT JUMPDEST DUP5 CALLDATALOAD PUSH2 0x1961 DUP2 PUSH2 0x16F2 JUMP JUMPDEST SWAP4 POP PUSH1 0x20 DUP6 ADD CALLDATALOAD PUSH2 0x1971 DUP2 PUSH2 0x16F2 JUMP JUMPDEST SWAP3 POP PUSH1 0x40 DUP6 ADD CALLDATALOAD SWAP2 POP PUSH1 0x60 DUP6 ADD CALLDATALOAD PUSH8 0xFFFFFFFFFFFFFFFF DUP2 GT ISZERO PUSH2 0x1994 JUMPI PUSH1 0x0 DUP1 REVERT JUMPDEST DUP6 ADD PUSH1 0x1F DUP2 ADD DUP8 SGT PUSH2 0x19A5 JUMPI PUSH1 0x0 DUP1 REVERT JUMPDEST PUSH2 0x19B4 DUP8 DUP3 CALLDATALOAD PUSH1 0x20 DUP5 ADD PUSH2 0x183B JUMP JUMPDEST SWAP2 POP POP SWAP3 SWAP6 SWAP2 SWAP5 POP SWAP3 POP JUMP JUMPDEST PUSH1 0x0 DUP1 PUSH1 0x40 DUP4 DUP6 SUB SLT ISZERO PUSH2 0x19D3 JUMPI PUSH1 0x0 DUP1 REVERT JUMPDEST DUP3 CALLDATALOAD PUSH2 0x19DE DUP2 PUSH2 0x16F2 JUMP JUMPDEST SWAP2 POP PUSH1 0x20 DUP4 ADD CALLDATALOAD PUSH2 0x1935 DUP2 PUSH2 0x16F2 JUMP JUMPDEST PUSH1 0x1 DUP2 DUP2 SHR SWAP1 DUP3 AND DUP1 PUSH2 0x1A02 JUMPI PUSH1 0x7F DUP3 AND SWAP2 POP JUMPDEST PUSH1 0x20 DUP3 LT DUP2 SUB PUSH2 0x1A22 JUMPI PUSH4 0x4E487B71 PUSH1 0xE0 SHL PUSH1 0x0 MSTORE PUSH1 0x22 PUSH1 0x4 MSTORE PUSH1 0x24 PUSH1 0x0 REVERT JUMPDEST POP SWAP2 SWAP1 POP JUMP JUMPDEST PUSH1 0x20 DUP1 DUP3 MSTORE PUSH1 0x2D SWAP1 DUP3 ADD MSTORE PUSH32 0x4552433732313A2063616C6C6572206973206E6F7420746F6B656E206F776E65 PUSH1 0x40 DUP3 ADD MSTORE PUSH13 0x1C881BDC88185C1C1C9BDD9959 PUSH1 0x9A SHL PUSH1 0x60 DUP3 ADD MSTORE PUSH1 0x80 ADD SWAP1 JUMP JUMPDEST PUSH4 0x4E487B71 PUSH1 0xE0 SHL PUSH1 0x0 MSTORE PUSH1 0x11 PUSH1 0x4 MSTORE PUSH1 0x24 PUSH1 0x0 REVERT JUMPDEST DUP1 DUP3 ADD DUP1 DUP3 GT ISZERO PUSH2 0x34A JUMPI PUSH2 0x34A PUSH2 0x1A75 JUMP JUMPDEST PUSH1 0x0 PUSH1 0x1 DUP3 ADD PUSH2 0x1AB0 JUMPI PUSH2 0x1AB0 PUSH2 0x1A75 JUMP JUMPDEST POP PUSH1 0x1 ADD SWAP1 JUMP JUMPDEST PUSH4 0x4E487B71 PUSH1 0xE0 SHL PUSH1 0x0 MSTORE PUSH1 0x32 PUSH1 0x4 MSTORE PUSH1 0x24 PUSH1 0x0 REVERT JUMPDEST PUSH1 0x0 PUSH1 0x20 DUP3 DUP5 SUB SLT ISZERO PUSH2 0x1ADF JUMPI PUSH1 0x0 DUP1 REVERT JUMPDEST DUP2 MLOAD PUSH2 0x117C DUP2 PUSH2 0x18F9 JUMP JUMPDEST PUSH1 0x0 PUSH8 0xFFFFFFFFFFFFFFFF DUP3 GT ISZERO PUSH2 0x1B04 JUMPI PUSH2 0x1B04 PUSH2 0x17F4 JUMP JUMPDEST POP PUSH1 0x5 SHL PUSH1 0x20 ADD SWAP1 JUMP JUMPDEST PUSH1 0x0 PUSH1 0x20 DUP1 DUP4 DUP6 SUB SLT ISZERO PUSH2 0x1B21 JUMPI PUSH1 0x0 DUP1 REVERT JUMPDEST DUP3 MLOAD PUSH8 0xFFFFFFFFFFFFFFFF DUP2 GT ISZERO PUSH2 0x1B38 JUMPI PUSH1 0x0 DUP1 REVERT JUMPDEST DUP4 ADD PUSH1 0x1F DUP2 ADD DUP6 SGT PUSH2 0x1B49 JUMPI PUSH1 0x0 DUP1 REVERT JUMPDEST DUP1 MLOAD PUSH2 0x1B5C PUSH2 0x1B57 DUP3 PUSH2 0x1AEA JUMP JUMPDEST PUSH2 0x180A JUMP JUMPDEST DUP2 DUP2 MSTORE PUSH1 0x5 SWAP2 SWAP1 SWAP2 SHL DUP3 ADD DUP4 ADD SWAP1 DUP4 DUP2 ADD SWAP1 DUP8 DUP4 GT ISZERO PUSH2 0x1B7B JUMPI PUSH1 0x0 DUP1 REVERT JUMPDEST SWAP3 DUP5 ADD SWAP3 JUMPDEST DUP3 DUP5 LT ISZERO PUSH2 0x1BA2 JUMPI DUP4 MLOAD PUSH2 0x1B93 DUP2 PUSH2 0x16F2 JUMP JUMPDEST DUP3 MSTORE SWAP3 DUP5 ADD SWAP3 SWAP1 DUP5 ADD SWAP1 PUSH2 0x1B80 JUMP JUMPDEST SWAP8 SWAP7 POP POP POP POP POP POP POP JUMP JUMPDEST PUSH1 0x0 PUSH1 0x20 DUP1 DUP4 DUP6 SUB SLT ISZERO PUSH2 0x1BC0 JUMPI PUSH1 0x0 DUP1 REVERT JUMPDEST DUP3 MLOAD PUSH8 0xFFFFFFFFFFFFFFFF DUP2 GT ISZERO PUSH2 0x1BD7 JUMPI PUSH1 0x0 DUP1 REVERT JUMPDEST DUP4 ADD PUSH1 0x1F DUP2 ADD DUP6 SGT PUSH2 0x1BE8 JUMPI PUSH1 0x0 DUP1 REVERT JUMPDEST DUP1 MLOAD PUSH2 0x1BF6 PUSH2 0x1B57 DUP3 PUSH2 0x1AEA JUMP JUMPDEST DUP2 DUP2 MSTORE PUSH1 0x5 SWAP2 SWAP1 SWAP2 SHL DUP3 ADD DUP4 ADD SWAP1 DUP4 DUP2 ADD SWAP1 DUP8 DUP4 GT ISZERO PUSH2 0x1C15 JUMPI PUSH1 0x0 DUP1 REVERT JUMPDEST SWAP3 DUP5 ADD SWAP3 JUMPDEST DUP3 DUP5 LT ISZERO PUSH2 0x1BA2 JUMPI DUP4 MLOAD DUP3 MSTORE SWAP3 DUP5 ADD SWAP3 SWAP1 DUP5 ADD SWAP1 PUSH2 0x1C1A JUMP JUMPDEST PUSH1 0x0 DUP4 MLOAD PUSH2 0x1C45 DUP2 DUP5 PUSH1 0x20 DUP9 ADD PUSH2 0x1676 JUMP JUMPDEST DUP4 MLOAD SWAP1 DUP4 ADD SWAP1 PUSH2 0x1C59 DUP2 DUP4 PUSH1 0x20 DUP9 ADD PUSH2 0x1676 JUMP JUMPDEST ADD SWAP5 SWAP4 POP POP POP POP JUMP JUMPDEST PUSH1 0x20 DUP1 DUP3 MSTORE PUSH1 0x25 SWAP1 DUP3 ADD MSTORE PUSH32 0x4552433732313A207472616E736665722066726F6D20696E636F727265637420 PUSH1 0x40 DUP3 ADD MSTORE PUSH5 0x37BBB732B9 PUSH1 0xD9 SHL PUSH1 0x60 DUP3 ADD MSTORE PUSH1 0x80 ADD SWAP1 JUMP JUMPDEST PUSH1 0x1F DUP3 GT ISZERO PUSH2 0x51E JUMPI PUSH1 0x0 DUP2 DUP2 MSTORE PUSH1 0x20 DUP2 KECCAK256 PUSH1 0x1F DUP6 ADD PUSH1 0x5 SHR DUP2 ADD PUSH1 0x20 DUP7 LT ISZERO PUSH2 0x1CCE JUMPI POP DUP1 JUMPDEST PUSH1 0x1F DUP6 ADD PUSH1 0x5 SHR DUP3 ADD SWAP2 POP JUMPDEST DUP2 DUP2 LT ISZERO PUSH2 0x1CED JUMPI DUP3 DUP2 SSTORE PUSH1 0x1 ADD PUSH2 0x1CDA JUMP JUMPDEST POP POP POP POP POP POP JUMP JUMPDEST DUP2 MLOAD PUSH8 0xFFFFFFFFFFFFFFFF DUP2 GT ISZERO PUSH2 0x1D0F JUMPI PUSH2 0x1D0F PUSH2 0x17F4 JUMP JUMPDEST PUSH2 0x1D23 DUP2 PUSH2 0x1D1D DUP5 SLOAD PUSH2 0x19EE JUMP JUMPDEST DUP5 PUSH2 0x1CA7 JUMP JUMPDEST PUSH1 0x20 DUP1 PUSH1 0x1F DUP4 GT PUSH1 0x1 DUP2 EQ PUSH2 0x1D58 JUMPI PUSH1 0x0 DUP5 ISZERO PUSH2 0x1D40 JUMPI POP DUP6 DUP4 ADD MLOAD JUMPDEST PUSH1 0x0 NOT PUSH1 0x3 DUP7 SWAP1 SHL SHR NOT AND PUSH1 0x1 DUP6 SWAP1 SHL OR DUP6 SSTORE PUSH2 0x1CED JUMP JUMPDEST PUSH1 0x0 DUP6 DUP2 MSTORE PUSH1 0x20 DUP2 KECCAK256 PUSH1 0x1F NOT DUP7 AND SWAP2 JUMPDEST DUP3 DUP2 LT ISZERO PUSH2 0x1D87 JUMPI DUP9 DUP7 ADD MLOAD DUP3 SSTORE SWAP5 DUP5 ADD SWAP5 PUSH1 0x1 SWAP1 SWAP2 ADD SWAP1 DUP5 ADD PUSH2 0x1D68 JUMP JUMPDEST POP DUP6 DUP3 LT ISZERO PUSH2 0x1DA5 JUMPI DUP8 DUP6 ADD MLOAD PUSH1 0x0 NOT PUSH1 0x3 DUP9 SWAP1 SHL PUSH1 0xF8 AND SHR NOT AND DUP2 SSTORE JUMPDEST POP POP POP POP POP PUSH1 0x1 SWAP1 DUP2 SHL ADD SWAP1 SSTORE POP JUMP JUMPDEST PUSH1 0x20 DUP1 DUP3 MSTORE PUSH1 0x32 SWAP1 DUP3 ADD MSTORE PUSH32 0x4552433732313A207472616E7366657220746F206E6F6E204552433732315265 PUSH1 0x40 DUP3 ADD MSTORE PUSH18 0x31B2B4BB32B91034B6B83632B6B2B73A32B9 PUSH1 0x71 SHL PUSH1 0x60 DUP3 ADD MSTORE PUSH1 0x80 ADD SWAP1 JUMP JUMPDEST DUP2 DUP2 SUB DUP2 DUP2 GT ISZERO PUSH2 0x34A JUMPI PUSH2 0x34A PUSH2 0x1A75 JUMP JUMPDEST PUSH1 0x1 PUSH1 0x1 PUSH1 0xA0 SHL SUB DUP6 DUP2 AND DUP3 MSTORE DUP5 AND PUSH1 0x20 DUP3 ADD MSTORE PUSH1 0x40 DUP2 ADD DUP4 SWAP1 MSTORE PUSH1 0x80 PUSH1 0x60 DUP3 ADD DUP2 SWAP1 MSTORE PUSH1 0x0 SWAP1 PUSH2 0x1E4D SWAP1 DUP4 ADD DUP5 PUSH2 0x169A JUMP JUMPDEST SWAP7 SWAP6 POP POP POP POP POP POP JUMP JUMPDEST PUSH1 0x0 PUSH1 0x20 DUP3 DUP5 SUB SLT ISZERO PUSH2 0x1E69 JUMPI PUSH1 0x0 DUP1 REVERT JUMPDEST DUP2 MLOAD PUSH2 0x117C DUP2 PUSH2 0x1643 JUMP INVALID LOG2 PUSH5 0x6970667358 0x22 SLT KECCAK256 0xDF RETURNDATACOPY EXP 0xDC EXTCODECOPY 0xB3 0xCF 0xC9 SWAP8 PC DUP15 XOR 0xCB ADDMOD JUMPI 0xB9 SWAP4 0x4D 0xFB ADDMOD DUP6 DUP15 0x4F 0xA8 PUSH20 0xE89C1262173F3964736F6C634300081300330000 "},"gasEstimates":{"creation":{"codeDepositCost":"1570000","executionCost":"infinite","totalCost":"infinite"},"external":{"approve(address,uint256)":"infinite","balanceOf(address)":"2628","executeInheritance(address)":"infinite","getAdministratorNFTs()":"infinite","getApproved(uint256)":"4792","getElementByTokenId(uint256)":"4867","getLastElement()":"6927","getLastTokenId()":"2397","isApprovedForAll(address,address)":"infinite","name()":"infinite","ownerOf(uint256)":"2649","safeMint(string)":"infinite","safeTransferFrom(address,address,uint256)":"infinite","safeTransferFrom(address,address,uint256,bytes)":"infinite","setApprovalForAll(address,bool)":"infinite","supportsInterface(bytes4)":"534","symbol()":"infinite","tokenURI(uint256)":"infinite","transferFrom(address,address,uint256)":"infinite"},"internal":{"addToDeedNFTArray(uint256)":"infinite"}},"methodIdentifiers":{"approve(address,uint256)":"095ea7b3","balanceOf(address)":"70a08231","executeInheritance(address)":"86198cd5","getAdministratorNFTs()":"3d598291","getApproved(uint256)":"081812fc","getElementByTokenId(uint256)":"5f2fedce","getLastElement()":"ce4a392f","getLastTokenId()":"83c4c00d","isApprovedForAll(address,address)":"e985e9c5","name()":"06fdde03","ownerOf(uint256)":"6352211e","safeMint(string)":"695850fb","safeTransferFrom(address,address,uint256)":"42842e0e","safeTransferFrom(address,address,uint256,bytes)":"b88d4fde","setApprovalForAll(address,bool)":"a22cb465","supportsInterface(bytes4)":"01ffc9a7","symbol()":"95d89b41","tokenURI(uint256)":"c87b56dd","transferFrom(address,address,uint256)":"23b872dd"}},"storageLayout":{"storage":[{"astId":1880,"contract":"InheritanceDeed.sol:TitleDeed","label":"_name","offset":0,"slot":"0","type":"t_string_storage"},{"astId":1882,"contract":"InheritanceDeed.sol:TitleDeed","label":"_symbol","offset":0,"slot":"1","type":"t_string_storage"},{"astId":1886,"contract":"InheritanceDeed.sol:TitleDeed","label":"_owners","offset":0,"slot":"2","type":"t_mapping(t_uint256,t_address)"},{"astId":1890,"contract":"InheritanceDeed.sol:TitleDeed","label":"_balances","offset":0,"slot":"3","type":"t_mapping(t_address,t_uint256)"},{"astId":1894,"contract":"InheritanceDeed.sol:TitleDeed","label":"_tokenApprovals","offset":0,"slot":"4","type":"t_mapping(t_uint256,t_address)"},{"astId":1900,"contract":"InheritanceDeed.sol:TitleDeed","label":"_operatorApprovals","offset":0,"slot":"5","type":"t_mapping(t_address,t_mapping(t_address,t_bool))"},{"astId":2812,"contract":"InheritanceDeed.sol:TitleDeed","label":"_tokenURIs","offset":0,"slot":"6","type":"t_mapping(t_uint256,t_string_storage)"},{"astId":1308,"contract":"InheritanceDeed.sol:TitleDeed","label":"tokenIdCounter","offset":0,"slot":"7","type":"t_struct(Counter)2930_storage"},{"astId":1313,"contract":"InheritanceDeed.sol:TitleDeed","label":"idToDeedNFT","offset":0,"slot":"8","type":"t_mapping(t_uint256,t_struct(DeedNFT)1326_storage)"}],"types":{"t_address":{"encoding":"inplace","label":"address","numberOfBytes":"20"},"t_bool":{"encoding":"inplace","label":"bool","numberOfBytes":"1"},"t_mapping(t_address,t_bool)":{"encoding":"mapping","key":"t_address","label":"mapping(address => bool)","numberOfBytes":"32","value":"t_bool"},"t_mapping(t_address,t_mapping(t_address,t_bool))":{"encoding":"mapping","key":"t_address","label":"mapping(address => mapping(address => bool))","numberOfBytes":"32","value":"t_mapping(t_address,t_bool)"},"t_mapping(t_address,t_uint256)":{"encoding":"mapping","key":"t_address","label":"mapping(address => uint256)","numberOfBytes":"32","value":"t_uint256"},"t_mapping(t_uint256,t_address)":{"encoding":"mapping","key":"t_uint256","label":"mapping(uint256 => address)","numberOfBytes":"32","value":"t_address"},"t_mapping(t_uint256,t_string_storage)":{"encoding":"mapping","key":"t_uint256","label":"mapping(uint256 => string)","numberOfBytes":"32","value":"t_string_storage"},"t_mapping(t_uint256,t_struct(DeedNFT)1326_storage)":{"encoding":"mapping","key":"t_uint256","label":"mapping(uint256 => struct TitleDeed.DeedNFT)","numberOfBytes":"32","value":"t_struct(DeedNFT)1326_storage"},"t_string_storage":{"encoding":"bytes","label":"string","numberOfBytes":"32"},"t_struct(Counter)2930_storage":{"encoding":"inplace","label":"struct Counters.Counter","members":[{"astId":2929,"contract":"InheritanceDeed.sol:TitleDeed","label":"_value","offset":0,"slot":"0","type":"t_uint256"}],"numberOfBytes":"32"},"t_struct(DeedNFT)1326_storage":{"encoding":"inplace","label":"struct TitleDeed.DeedNFT","members":[{"astId":1323,"contract":"InheritanceDeed.sol:TitleDeed","label":"tokenId","offset":0,"slot":"0","type":"t_uint256"},{"astId":1325,"contract":"InheritanceDeed.sol:TitleDeed","label":"administrator","offset":0,"slot":"1","type":"t_address"}],"numberOfBytes":"64"},"t_uint256":{"encoding":"inplace","label":"uint256","numberOfBytes":"32"}}},"userdoc":{"kind":"user","methods":{},"version":1}}